{
	"stateVariables.sol": {
		"stateVariables": {
			"abi": [
				{
					"inputs": [],
					"name": "getStringFromBytes",
					"outputs": [
						{
							"internalType": "string",
							"name": "",
							"type": "string"
						}
					],
					"stateMutability": "view",
					"type": "function"
				},
				{
					"inputs": [
						{
							"internalType": "uint256",
							"name": "",
							"type": "uint256"
						}
					],
					"name": "myNumber",
					"outputs": [
						{
							"internalType": "uint256",
							"name": "",
							"type": "uint256"
						}
					],
					"stateMutability": "view",
					"type": "function"
				},
				{
					"inputs": [
						{
							"internalType": "uint256",
							"name": "_value",
							"type": "uint256"
						}
					],
					"name": "pushToArray",
					"outputs": [],
					"stateMutability": "nonpayable",
					"type": "function"
				},
				{
					"inputs": [],
					"name": "someBytes",
					"outputs": [
						{
							"internalType": "bytes",
							"name": "",
							"type": "bytes"
						}
					],
					"stateMutability": "view",
					"type": "function"
				},
				{
					"inputs": [],
					"name": "someString",
					"outputs": [
						{
							"internalType": "string",
							"name": "",
							"type": "string"
						}
					],
					"stateMutability": "view",
					"type": "function"
				},
				{
					"inputs": [],
					"name": "unsignedInt",
					"outputs": [
						{
							"internalType": "uint256",
							"name": "",
							"type": "uint256"
						}
					],
					"stateMutability": "view",
					"type": "function"
				},
				{
					"inputs": [
						{
							"internalType": "string",
							"name": "_value",
							"type": "string"
						}
					],
					"name": "updateSomeString",
					"outputs": [],
					"stateMutability": "nonpayable",
					"type": "function"
				}
			],
			"devdoc": {
				"kind": "dev",
				"methods": {},
				"version": 1
			},
			"evm": {
				"assembly": "    /* \"stateVariables.sol\":61:555  contract stateVariables{... */\n  mstore(0x40, 0x80)\n    /* \"stateVariables.sol\":120:124  1000 */\n  0x03e8\n    /* \"stateVariables.sol\":91:124  uint256 public unsignedInt = 1000 */\n  0x00\n  sstore\n    /* \"stateVariables.sol\":131:169  string public someString = \"Hi there!\" */\n  mload(0x40)\n  dup1\n  0x40\n  add\n  0x40\n  mstore\n  dup1\n  0x09\n  dup2\n  mstore\n  0x20\n  add\n  0x4869207468657265210000000000000000000000000000000000000000000000\n  dup2\n  mstore\n  pop\n  0x01\n  swap1\n  dup2\n  tag_1\n  swap2\n  swap1\n  tag_2\n  jump\t// in\ntag_1:\n  pop\n    /* \"stateVariables.sol\":176:217  bytes public someBytes = \"Crazy times...\" */\n  mload(0x40)\n  dup1\n  0x40\n  add\n  0x40\n  mstore\n  dup1\n  0x0e\n  dup2\n  mstore\n  0x20\n  add\n  0x4372617a792074696d65732e2e2e000000000000000000000000000000000000\n  dup2\n  mstore\n  pop\n  0x02\n  swap1\n  dup2\n  tag_3\n  swap2\n  swap1\n  tag_4\n  jump\t// in\ntag_3:\n  pop\n    /* \"stateVariables.sol\":61:555  contract stateVariables{... */\n  callvalue\n  dup1\n  iszero\n  tag_5\n  jumpi\n  0x00\n  dup1\n  revert\ntag_5:\n  pop\n  jump(tag_6)\n    /* \"#utility.yul\":7:106   */\ntag_7:\n    /* \"#utility.yul\":59:65   */\n  0x00\n    /* \"#utility.yul\":93:98   */\n  dup2\n    /* \"#utility.yul\":87:99   */\n  mload\n    /* \"#utility.yul\":77:99   */\n  swap1\n  pop\n    /* \"#utility.yul\":7:106   */\n  swap2\n  swap1\n  pop\n  jump\t// out\n    /* \"#utility.yul\":112:292   */\ntag_8:\n    /* \"#utility.yul\":160:237   */\n  0x4e487b7100000000000000000000000000000000000000000000000000000000\n    /* \"#utility.yul\":157:158   */\n  0x00\n    /* \"#utility.yul\":150:238   */\n  mstore\n    /* \"#utility.yul\":257:261   */\n  0x41\n    /* \"#utility.yul\":254:255   */\n  0x04\n    /* \"#utility.yul\":247:262   */\n  mstore\n    /* \"#utility.yul\":281:285   */\n  0x24\n    /* \"#utility.yul\":278:279   */\n  0x00\n    /* \"#utility.yul\":271:286   */\n  revert\n    /* \"#utility.yul\":298:478   */\ntag_9:\n    /* \"#utility.yul\":346:423   */\n  0x4e487b7100000000000000000000000000000000000000000000000000000000\n    /* \"#utility.yul\":343:344   */\n  0x00\n    /* \"#utility.yul\":336:424   */\n  mstore\n    /* \"#utility.yul\":443:447   */\n  0x22\n    /* \"#utility.yul\":440:441   */\n  0x04\n    /* \"#utility.yul\":433:448   */\n  mstore\n    /* \"#utility.yul\":467:471   */\n  0x24\n    /* \"#utility.yul\":464:465   */\n  0x00\n    /* \"#utility.yul\":457:472   */\n  revert\n    /* \"#utility.yul\":484:804   */\ntag_10:\n    /* \"#utility.yul\":528:534   */\n  0x00\n    /* \"#utility.yul\":565:566   */\n  0x02\n    /* \"#utility.yul\":559:563   */\n  dup3\n    /* \"#utility.yul\":555:567   */\n  div\n    /* \"#utility.yul\":545:567   */\n  swap1\n  pop\n    /* \"#utility.yul\":612:613   */\n  0x01\n    /* \"#utility.yul\":606:610   */\n  dup3\n    /* \"#utility.yul\":602:614   */\n  and\n    /* \"#utility.yul\":633:651   */\n  dup1\n    /* \"#utility.yul\":623:704   */\n  tag_34\n  jumpi\n    /* \"#utility.yul\":689:693   */\n  0x7f\n    /* \"#utility.yul\":681:687   */\n  dup3\n    /* \"#utility.yul\":677:694   */\n  and\n    /* \"#utility.yul\":667:694   */\n  swap2\n  pop\n    /* \"#utility.yul\":623:704   */\ntag_34:\n    /* \"#utility.yul\":751:753   */\n  0x20\n    /* \"#utility.yul\":743:749   */\n  dup3\n    /* \"#utility.yul\":740:754   */\n  lt\n    /* \"#utility.yul\":720:738   */\n  dup2\n    /* \"#utility.yul\":717:755   */\n  sub\n    /* \"#utility.yul\":714:798   */\n  tag_35\n  jumpi\n    /* \"#utility.yul\":770:788   */\n  tag_36\n  tag_9\n  jump\t// in\ntag_36:\n    /* \"#utility.yul\":714:798   */\ntag_35:\n    /* \"#utility.yul\":535:804   */\n  pop\n    /* \"#utility.yul\":484:804   */\n  swap2\n  swap1\n  pop\n  jump\t// out\n    /* \"#utility.yul\":810:951   */\ntag_11:\n    /* \"#utility.yul\":859:863   */\n  0x00\n    /* \"#utility.yul\":882:885   */\n  dup2\n    /* \"#utility.yul\":874:885   */\n  swap1\n  pop\n    /* \"#utility.yul\":905:908   */\n  dup2\n    /* \"#utility.yul\":902:903   */\n  0x00\n    /* \"#utility.yul\":895:909   */\n  mstore\n    /* \"#utility.yul\":939:943   */\n  0x20\n    /* \"#utility.yul\":936:937   */\n  0x00\n    /* \"#utility.yul\":926:944   */\n  keccak256\n    /* \"#utility.yul\":918:944   */\n  swap1\n  pop\n    /* \"#utility.yul\":810:951   */\n  swap2\n  swap1\n  pop\n  jump\t// out\n    /* \"#utility.yul\":957:1050   */\ntag_12:\n    /* \"#utility.yul\":994:1000   */\n  0x00\n    /* \"#utility.yul\":1041:1043   */\n  0x20\n    /* \"#utility.yul\":1036:1038   */\n  0x1f\n    /* \"#utility.yul\":1029:1034   */\n  dup4\n    /* \"#utility.yul\":1025:1039   */\n  add\n    /* \"#utility.yul\":1021:1044   */\n  div\n    /* \"#utility.yul\":1011:1044   */\n  swap1\n  pop\n    /* \"#utility.yul\":957:1050   */\n  swap2\n  swap1\n  pop\n  jump\t// out\n    /* \"#utility.yul\":1056:1163   */\ntag_13:\n    /* \"#utility.yul\":1100:1108   */\n  0x00\n    /* \"#utility.yul\":1150:1155   */\n  dup3\n    /* \"#utility.yul\":1144:1148   */\n  dup3\n    /* \"#utility.yul\":1140:1156   */\n  shl\n    /* \"#utility.yul\":1119:1156   */\n  swap1\n  pop\n    /* \"#utility.yul\":1056:1163   */\n  swap3\n  swap2\n  pop\n  pop\n  jump\t// out\n    /* \"#utility.yul\":1169:1562   */\ntag_14:\n    /* \"#utility.yul\":1238:1244   */\n  0x00\n    /* \"#utility.yul\":1288:1289   */\n  0x08\n    /* \"#utility.yul\":1276:1286   */\n  dup4\n    /* \"#utility.yul\":1272:1290   */\n  mul\n    /* \"#utility.yul\":1311:1408   */\n  tag_41\n    /* \"#utility.yul\":1341:1407   */\n  0xffffffffffffffffffffffffffffffffffffffffffffffffffffffffffffffff\n    /* \"#utility.yul\":1330:1339   */\n  dup3\n    /* \"#utility.yul\":1311:1408   */\n  tag_13\n  jump\t// in\ntag_41:\n    /* \"#utility.yul\":1429:1468   */\n  tag_42\n    /* \"#utility.yul\":1459:1467   */\n  dup7\n    /* \"#utility.yul\":1448:1457   */\n  dup4\n    /* \"#utility.yul\":1429:1468   */\n  tag_13\n  jump\t// in\ntag_42:\n    /* \"#utility.yul\":1417:1468   */\n  swap6\n  pop\n    /* \"#utility.yul\":1501:1505   */\n  dup1\n    /* \"#utility.yul\":1497:1506   */\n  not\n    /* \"#utility.yul\":1490:1495   */\n  dup5\n    /* \"#utility.yul\":1486:1507   */\n  and\n    /* \"#utility.yul\":1477:1507   */\n  swap4\n  pop\n    /* \"#utility.yul\":1550:1554   */\n  dup1\n    /* \"#utility.yul\":1540:1548   */\n  dup7\n    /* \"#utility.yul\":1536:1555   */\n  and\n    /* \"#utility.yul\":1529:1534   */\n  dup5\n    /* \"#utility.yul\":1526:1556   */\n  or\n    /* \"#utility.yul\":1516:1556   */\n  swap3\n  pop\n    /* \"#utility.yul\":1245:1562   */\n  pop\n  pop\n    /* \"#utility.yul\":1169:1562   */\n  swap4\n  swap3\n  pop\n  pop\n  pop\n  jump\t// out\n    /* \"#utility.yul\":1568:1645   */\ntag_15:\n    /* \"#utility.yul\":1605:1612   */\n  0x00\n    /* \"#utility.yul\":1634:1639   */\n  dup2\n    /* \"#utility.yul\":1623:1639   */\n  swap1\n  pop\n    /* \"#utility.yul\":1568:1645   */\n  swap2\n  swap1\n  pop\n  jump\t// out\n    /* \"#utility.yul\":1651:1711   */\ntag_16:\n    /* \"#utility.yul\":1679:1682   */\n  0x00\n    /* \"#utility.yul\":1700:1705   */\n  dup2\n    /* \"#utility.yul\":1693:1705   */\n  swap1\n  pop\n    /* \"#utility.yul\":1651:1711   */\n  swap2\n  swap1\n  pop\n  jump\t// out\n    /* \"#utility.yul\":1717:1859   */\ntag_17:\n    /* \"#utility.yul\":1767:1776   */\n  0x00\n    /* \"#utility.yul\":1800:1853   */\n  tag_46\n    /* \"#utility.yul\":1818:1852   */\n  tag_47\n    /* \"#utility.yul\":1827:1851   */\n  tag_48\n    /* \"#utility.yul\":1845:1850   */\n  dup5\n    /* \"#utility.yul\":1827:1851   */\n  tag_15\n  jump\t// in\ntag_48:\n    /* \"#utility.yul\":1818:1852   */\n  tag_16\n  jump\t// in\ntag_47:\n    /* \"#utility.yul\":1800:1853   */\n  tag_15\n  jump\t// in\ntag_46:\n    /* \"#utility.yul\":1787:1853   */\n  swap1\n  pop\n    /* \"#utility.yul\":1717:1859   */\n  swap2\n  swap1\n  pop\n  jump\t// out\n    /* \"#utility.yul\":1865:1940   */\ntag_18:\n    /* \"#utility.yul\":1908:1911   */\n  0x00\n    /* \"#utility.yul\":1929:1934   */\n  dup2\n    /* \"#utility.yul\":1922:1934   */\n  swap1\n  pop\n    /* \"#utility.yul\":1865:1940   */\n  swap2\n  swap1\n  pop\n  jump\t// out\n    /* \"#utility.yul\":1946:2215   */\ntag_19:\n    /* \"#utility.yul\":2056:2095   */\n  tag_51\n    /* \"#utility.yul\":2087:2094   */\n  dup4\n    /* \"#utility.yul\":2056:2095   */\n  tag_17\n  jump\t// in\ntag_51:\n    /* \"#utility.yul\":2117:2208   */\n  tag_52\n    /* \"#utility.yul\":2166:2207   */\n  tag_53\n    /* \"#utility.yul\":2190:2206   */\n  dup3\n    /* \"#utility.yul\":2166:2207   */\n  tag_18\n  jump\t// in\ntag_53:\n    /* \"#utility.yul\":2158:2164   */\n  dup5\n    /* \"#utility.yul\":2151:2155   */\n  dup5\n    /* \"#utility.yul\":2145:2156   */\n  sload\n    /* \"#utility.yul\":2117:2208   */\n  tag_14\n  jump\t// in\ntag_52:\n    /* \"#utility.yul\":2111:2115   */\n  dup3\n    /* \"#utility.yul\":2104:2209   */\n  sstore\n    /* \"#utility.yul\":2022:2215   */\n  pop\n    /* \"#utility.yul\":1946:2215   */\n  pop\n  pop\n  pop\n  jump\t// out\n    /* \"#utility.yul\":2221:2294   */\ntag_20:\n    /* \"#utility.yul\":2266:2269   */\n  0x00\n    /* \"#utility.yul\":2221:2294   */\n  swap1\n  jump\t// out\n    /* \"#utility.yul\":2300:2489   */\ntag_21:\n    /* \"#utility.yul\":2377:2409   */\n  tag_56\n  tag_20\n  jump\t// in\ntag_56:\n    /* \"#utility.yul\":2418:2483   */\n  tag_57\n    /* \"#utility.yul\":2476:2482   */\n  dup2\n    /* \"#utility.yul\":2468:2474   */\n  dup5\n    /* \"#utility.yul\":2462:2466   */\n  dup5\n    /* \"#utility.yul\":2418:2483   */\n  tag_19\n  jump\t// in\ntag_57:\n    /* \"#utility.yul\":2353:2489   */\n  pop\n    /* \"#utility.yul\":2300:2489   */\n  pop\n  pop\n  jump\t// out\n    /* \"#utility.yul\":2495:2681   */\ntag_22:\n    /* \"#utility.yul\":2555:2675   */\ntag_59:\n    /* \"#utility.yul\":2572:2575   */\n  dup2\n    /* \"#utility.yul\":2565:2570   */\n  dup2\n    /* \"#utility.yul\":2562:2576   */\n  lt\n    /* \"#utility.yul\":2555:2675   */\n  iszero\n  tag_61\n  jumpi\n    /* \"#utility.yul\":2626:2665   */\n  tag_62\n    /* \"#utility.yul\":2663:2664   */\n  0x00\n    /* \"#utility.yul\":2656:2661   */\n  dup3\n    /* \"#utility.yul\":2626:2665   */\n  tag_21\n  jump\t// in\ntag_62:\n    /* \"#utility.yul\":2599:2600   */\n  0x01\n    /* \"#utility.yul\":2592:2597   */\n  dup2\n    /* \"#utility.yul\":2588:2601   */\n  add\n    /* \"#utility.yul\":2579:2601   */\n  swap1\n  pop\n    /* \"#utility.yul\":2555:2675   */\n  jump(tag_59)\ntag_61:\n    /* \"#utility.yul\":2495:2681   */\n  pop\n  pop\n  jump\t// out\n    /* \"#utility.yul\":2687:3230   */\ntag_23:\n    /* \"#utility.yul\":2788:2790   */\n  0x1f\n    /* \"#utility.yul\":2783:2786   */\n  dup3\n    /* \"#utility.yul\":2780:2791   */\n  gt\n    /* \"#utility.yul\":2777:3223   */\n  iszero\n  tag_64\n  jumpi\n    /* \"#utility.yul\":2822:2860   */\n  tag_65\n    /* \"#utility.yul\":2854:2859   */\n  dup2\n    /* \"#utility.yul\":2822:2860   */\n  tag_11\n  jump\t// in\ntag_65:\n    /* \"#utility.yul\":2906:2935   */\n  tag_66\n    /* \"#utility.yul\":2924:2934   */\n  dup5\n    /* \"#utility.yul\":2906:2935   */\n  tag_12\n  jump\t// in\ntag_66:\n    /* \"#utility.yul\":2896:2904   */\n  dup2\n    /* \"#utility.yul\":2892:2936   */\n  add\n    /* \"#utility.yul\":3089:3091   */\n  0x20\n    /* \"#utility.yul\":3077:3087   */\n  dup6\n    /* \"#utility.yul\":3074:3092   */\n  lt\n    /* \"#utility.yul\":3071:3120   */\n  iszero\n  tag_67\n  jumpi\n    /* \"#utility.yul\":3110:3118   */\n  dup2\n    /* \"#utility.yul\":3095:3118   */\n  swap1\n  pop\n    /* \"#utility.yul\":3071:3120   */\ntag_67:\n    /* \"#utility.yul\":3133:3213   */\n  tag_68\n    /* \"#utility.yul\":3189:3211   */\n  tag_69\n    /* \"#utility.yul\":3207:3210   */\n  dup6\n    /* \"#utility.yul\":3189:3211   */\n  tag_12\n  jump\t// in\ntag_69:\n    /* \"#utility.yul\":3179:3187   */\n  dup4\n    /* \"#utility.yul\":3175:3212   */\n  add\n    /* \"#utility.yul\":3162:3173   */\n  dup3\n    /* \"#utility.yul\":3133:3213   */\n  tag_22\n  jump\t// in\ntag_68:\n    /* \"#utility.yul\":2792:3223   */\n  pop\n  pop\n    /* \"#utility.yul\":2777:3223   */\ntag_64:\n    /* \"#utility.yul\":2687:3230   */\n  pop\n  pop\n  pop\n  jump\t// out\n    /* \"#utility.yul\":3236:3353   */\ntag_24:\n    /* \"#utility.yul\":3290:3298   */\n  0x00\n    /* \"#utility.yul\":3340:3345   */\n  dup3\n    /* \"#utility.yul\":3334:3338   */\n  dup3\n    /* \"#utility.yul\":3330:3346   */\n  shr\n    /* \"#utility.yul\":3309:3346   */\n  swap1\n  pop\n    /* \"#utility.yul\":3236:3353   */\n  swap3\n  swap2\n  pop\n  pop\n  jump\t// out\n    /* \"#utility.yul\":3359:3528   */\ntag_25:\n    /* \"#utility.yul\":3403:3409   */\n  0x00\n    /* \"#utility.yul\":3436:3487   */\n  tag_72\n    /* \"#utility.yul\":3484:3485   */\n  0x00\n    /* \"#utility.yul\":3480:3486   */\n  not\n    /* \"#utility.yul\":3472:3477   */\n  dup5\n    /* \"#utility.yul\":3469:3470   */\n  0x08\n    /* \"#utility.yul\":3465:3478   */\n  mul\n    /* \"#utility.yul\":3436:3487   */\n  tag_24\n  jump\t// in\ntag_72:\n    /* \"#utility.yul\":3432:3488   */\n  not\n    /* \"#utility.yul\":3517:3521   */\n  dup1\n    /* \"#utility.yul\":3511:3515   */\n  dup4\n    /* \"#utility.yul\":3507:3522   */\n  and\n    /* \"#utility.yul\":3497:3522   */\n  swap2\n  pop\n    /* \"#utility.yul\":3410:3528   */\n  pop\n    /* \"#utility.yul\":3359:3528   */\n  swap3\n  swap2\n  pop\n  pop\n  jump\t// out\n    /* \"#utility.yul\":3533:3828   */\ntag_26:\n    /* \"#utility.yul\":3609:3613   */\n  0x00\n    /* \"#utility.yul\":3755:3784   */\n  tag_74\n    /* \"#utility.yul\":3780:3783   */\n  dup4\n    /* \"#utility.yul\":3774:3778   */\n  dup4\n    /* \"#utility.yul\":3755:3784   */\n  tag_25\n  jump\t// in\ntag_74:\n    /* \"#utility.yul\":3747:3784   */\n  swap2\n  pop\n    /* \"#utility.yul\":3817:3820   */\n  dup3\n    /* \"#utility.yul\":3814:3815   */\n  0x02\n    /* \"#utility.yul\":3810:3821   */\n  mul\n    /* \"#utility.yul\":3804:3808   */\n  dup3\n    /* \"#utility.yul\":3801:3822   */\n  or\n    /* \"#utility.yul\":3793:3822   */\n  swap1\n  pop\n    /* \"#utility.yul\":3533:3828   */\n  swap3\n  swap2\n  pop\n  pop\n  jump\t// out\n    /* \"#utility.yul\":3833:5228   */\ntag_2:\n    /* \"#utility.yul\":3950:3987   */\n  tag_76\n    /* \"#utility.yul\":3983:3986   */\n  dup3\n    /* \"#utility.yul\":3950:3987   */\n  tag_7\n  jump\t// in\ntag_76:\n    /* \"#utility.yul\":4052:4070   */\n  0xffffffffffffffff\n    /* \"#utility.yul\":4044:4050   */\n  dup2\n    /* \"#utility.yul\":4041:4071   */\n  gt\n    /* \"#utility.yul\":4038:4094   */\n  iszero\n  tag_77\n  jumpi\n    /* \"#utility.yul\":4074:4092   */\n  tag_78\n  tag_8\n  jump\t// in\ntag_78:\n    /* \"#utility.yul\":4038:4094   */\ntag_77:\n    /* \"#utility.yul\":4118:4156   */\n  tag_79\n    /* \"#utility.yul\":4150:4154   */\n  dup3\n    /* \"#utility.yul\":4144:4155   */\n  sload\n    /* \"#utility.yul\":4118:4156   */\n  tag_10\n  jump\t// in\ntag_79:\n    /* \"#utility.yul\":4203:4270   */\n  tag_80\n    /* \"#utility.yul\":4263:4269   */\n  dup3\n    /* \"#utility.yul\":4255:4261   */\n  dup3\n    /* \"#utility.yul\":4249:4253   */\n  dup6\n    /* \"#utility.yul\":4203:4270   */\n  tag_23\n  jump\t// in\ntag_80:\n    /* \"#utility.yul\":4297:4298   */\n  0x00\n    /* \"#utility.yul\":4321:4325   */\n  0x20\n    /* \"#utility.yul\":4308:4325   */\n  swap1\n  pop\n    /* \"#utility.yul\":4353:4355   */\n  0x1f\n    /* \"#utility.yul\":4345:4351   */\n  dup4\n    /* \"#utility.yul\":4342:4356   */\n  gt\n    /* \"#utility.yul\":4370:4371   */\n  0x01\n    /* \"#utility.yul\":4365:4983   */\n  dup2\n  eq\n  tag_82\n  jumpi\n    /* \"#utility.yul\":5027:5028   */\n  0x00\n    /* \"#utility.yul\":5044:5050   */\n  dup5\n    /* \"#utility.yul\":5041:5118   */\n  iszero\n  tag_83\n  jumpi\n    /* \"#utility.yul\":5093:5102   */\n  dup3\n    /* \"#utility.yul\":5088:5091   */\n  dup8\n    /* \"#utility.yul\":5084:5103   */\n  add\n    /* \"#utility.yul\":5078:5104   */\n  mload\n    /* \"#utility.yul\":5069:5104   */\n  swap1\n  pop\n    /* \"#utility.yul\":5041:5118   */\ntag_83:\n    /* \"#utility.yul\":5144:5211   */\n  tag_84\n    /* \"#utility.yul\":5204:5210   */\n  dup6\n    /* \"#utility.yul\":5197:5202   */\n  dup3\n    /* \"#utility.yul\":5144:5211   */\n  tag_26\n  jump\t// in\ntag_84:\n    /* \"#utility.yul\":5138:5142   */\n  dup7\n    /* \"#utility.yul\":5131:5212   */\n  sstore\n    /* \"#utility.yul\":5000:5222   */\n  pop\n    /* \"#utility.yul\":4335:5222   */\n  jump(tag_81)\n    /* \"#utility.yul\":4365:4983   */\ntag_82:\n    /* \"#utility.yul\":4417:4421   */\n  0x1f\n    /* \"#utility.yul\":4413:4422   */\n  not\n    /* \"#utility.yul\":4405:4411   */\n  dup5\n    /* \"#utility.yul\":4401:4423   */\n  and\n    /* \"#utility.yul\":4451:4488   */\n  tag_85\n    /* \"#utility.yul\":4483:4487   */\n  dup7\n    /* \"#utility.yul\":4451:4488   */\n  tag_11\n  jump\t// in\ntag_85:\n    /* \"#utility.yul\":4510:4511   */\n  0x00\n    /* \"#utility.yul\":4524:4732   */\ntag_86:\n    /* \"#utility.yul\":4538:4545   */\n  dup3\n    /* \"#utility.yul\":4535:4536   */\n  dup2\n    /* \"#utility.yul\":4532:4546   */\n  lt\n    /* \"#utility.yul\":4524:4732   */\n  iszero\n  tag_88\n  jumpi\n    /* \"#utility.yul\":4617:4626   */\n  dup5\n    /* \"#utility.yul\":4612:4615   */\n  dup10\n    /* \"#utility.yul\":4608:4627   */\n  add\n    /* \"#utility.yul\":4602:4628   */\n  mload\n    /* \"#utility.yul\":4594:4600   */\n  dup3\n    /* \"#utility.yul\":4587:4629   */\n  sstore\n    /* \"#utility.yul\":4668:4669   */\n  0x01\n    /* \"#utility.yul\":4660:4666   */\n  dup3\n    /* \"#utility.yul\":4656:4670   */\n  add\n    /* \"#utility.yul\":4646:4670   */\n  swap2\n  pop\n    /* \"#utility.yul\":4715:4717   */\n  0x20\n    /* \"#utility.yul\":4704:4713   */\n  dup6\n    /* \"#utility.yul\":4700:4718   */\n  add\n    /* \"#utility.yul\":4687:4718   */\n  swap5\n  pop\n    /* \"#utility.yul\":4561:4565   */\n  0x20\n    /* \"#utility.yul\":4558:4559   */\n  dup2\n    /* \"#utility.yul\":4554:4566   */\n  add\n    /* \"#utility.yul\":4549:4566   */\n  swap1\n  pop\n    /* \"#utility.yul\":4524:4732   */\n  jump(tag_86)\ntag_88:\n    /* \"#utility.yul\":4760:4766   */\n  dup7\n    /* \"#utility.yul\":4751:4758   */\n  dup4\n    /* \"#utility.yul\":4748:4767   */\n  lt\n    /* \"#utility.yul\":4745:4924   */\n  iszero\n  tag_89\n  jumpi\n    /* \"#utility.yul\":4818:4827   */\n  dup5\n    /* \"#utility.yul\":4813:4816   */\n  dup10\n    /* \"#utility.yul\":4809:4828   */\n  add\n    /* \"#utility.yul\":4803:4829   */\n  mload\n    /* \"#utility.yul\":4861:4909   */\n  tag_90\n    /* \"#utility.yul\":4903:4907   */\n  0x1f\n    /* \"#utility.yul\":4895:4901   */\n  dup10\n    /* \"#utility.yul\":4891:4908   */\n  and\n    /* \"#utility.yul\":4880:4889   */\n  dup3\n    /* \"#utility.yul\":4861:4909   */\n  tag_25\n  jump\t// in\ntag_90:\n    /* \"#utility.yul\":4853:4859   */\n  dup4\n    /* \"#utility.yul\":4846:4910   */\n  sstore\n    /* \"#utility.yul\":4768:4924   */\n  pop\n    /* \"#utility.yul\":4745:4924   */\ntag_89:\n    /* \"#utility.yul\":4970:4971   */\n  0x01\n    /* \"#utility.yul\":4966:4967   */\n  0x02\n    /* \"#utility.yul\":4958:4964   */\n  dup9\n    /* \"#utility.yul\":4954:4968   */\n  mul\n    /* \"#utility.yul\":4950:4972   */\n  add\n    /* \"#utility.yul\":4944:4948   */\n  dup9\n    /* \"#utility.yul\":4937:4973   */\n  sstore\n    /* \"#utility.yul\":4372:4983   */\n  pop\n  pop\n  pop\n    /* \"#utility.yul\":4335:5222   */\ntag_81:\n  pop\n    /* \"#utility.yul\":3925:5228   */\n  pop\n  pop\n  pop\n    /* \"#utility.yul\":3833:5228   */\n  pop\n  pop\n  jump\t// out\n    /* \"#utility.yul\":5234:5374   */\ntag_27:\n    /* \"#utility.yul\":5282:5286   */\n  0x00\n    /* \"#utility.yul\":5305:5308   */\n  dup2\n    /* \"#utility.yul\":5297:5308   */\n  swap1\n  pop\n    /* \"#utility.yul\":5328:5331   */\n  dup2\n    /* \"#utility.yul\":5325:5326   */\n  0x00\n    /* \"#utility.yul\":5318:5332   */\n  mstore\n    /* \"#utility.yul\":5362:5366   */\n  0x20\n    /* \"#utility.yul\":5359:5360   */\n  0x00\n    /* \"#utility.yul\":5349:5367   */\n  keccak256\n    /* \"#utility.yul\":5341:5367   */\n  swap1\n  pop\n    /* \"#utility.yul\":5234:5374   */\n  swap2\n  swap1\n  pop\n  jump\t// out\n    /* \"#utility.yul\":5380:5921   */\ntag_28:\n    /* \"#utility.yul\":5480:5482   */\n  0x1f\n    /* \"#utility.yul\":5475:5478   */\n  dup3\n    /* \"#utility.yul\":5472:5483   */\n  gt\n    /* \"#utility.yul\":5469:5914   */\n  iszero\n  tag_93\n  jumpi\n    /* \"#utility.yul\":5514:5551   */\n  tag_94\n    /* \"#utility.yul\":5545:5550   */\n  dup2\n    /* \"#utility.yul\":5514:5551   */\n  tag_27\n  jump\t// in\ntag_94:\n    /* \"#utility.yul\":5597:5626   */\n  tag_95\n    /* \"#utility.yul\":5615:5625   */\n  dup5\n    /* \"#utility.yul\":5597:5626   */\n  tag_12\n  jump\t// in\ntag_95:\n    /* \"#utility.yul\":5587:5595   */\n  dup2\n    /* \"#utility.yul\":5583:5627   */\n  add\n    /* \"#utility.yul\":5780:5782   */\n  0x20\n    /* \"#utility.yul\":5768:5778   */\n  dup6\n    /* \"#utility.yul\":5765:5783   */\n  lt\n    /* \"#utility.yul\":5762:5811   */\n  iszero\n  tag_96\n  jumpi\n    /* \"#utility.yul\":5801:5809   */\n  dup2\n    /* \"#utility.yul\":5786:5809   */\n  swap1\n  pop\n    /* \"#utility.yul\":5762:5811   */\ntag_96:\n    /* \"#utility.yul\":5824:5904   */\n  tag_97\n    /* \"#utility.yul\":5880:5902   */\n  tag_98\n    /* \"#utility.yul\":5898:5901   */\n  dup6\n    /* \"#utility.yul\":5880:5902   */\n  tag_12\n  jump\t// in\ntag_98:\n    /* \"#utility.yul\":5870:5878   */\n  dup4\n    /* \"#utility.yul\":5866:5903   */\n  add\n    /* \"#utility.yul\":5853:5864   */\n  dup3\n    /* \"#utility.yul\":5824:5904   */\n  tag_22\n  jump\t// in\ntag_97:\n    /* \"#utility.yul\":5484:5914   */\n  pop\n  pop\n    /* \"#utility.yul\":5469:5914   */\ntag_93:\n    /* \"#utility.yul\":5380:5921   */\n  pop\n  pop\n  pop\n  jump\t// out\n    /* \"#utility.yul\":5927:7319   */\ntag_4:\n    /* \"#utility.yul\":6043:6080   */\n  tag_100\n    /* \"#utility.yul\":6076:6079   */\n  dup3\n    /* \"#utility.yul\":6043:6080   */\n  tag_7\n  jump\t// in\ntag_100:\n    /* \"#utility.yul\":6145:6163   */\n  0xffffffffffffffff\n    /* \"#utility.yul\":6137:6143   */\n  dup2\n    /* \"#utility.yul\":6134:6164   */\n  gt\n    /* \"#utility.yul\":6131:6187   */\n  iszero\n  tag_101\n  jumpi\n    /* \"#utility.yul\":6167:6185   */\n  tag_102\n  tag_8\n  jump\t// in\ntag_102:\n    /* \"#utility.yul\":6131:6187   */\ntag_101:\n    /* \"#utility.yul\":6211:6249   */\n  tag_103\n    /* \"#utility.yul\":6243:6247   */\n  dup3\n    /* \"#utility.yul\":6237:6248   */\n  sload\n    /* \"#utility.yul\":6211:6249   */\n  tag_10\n  jump\t// in\ntag_103:\n    /* \"#utility.yul\":6296:6362   */\n  tag_104\n    /* \"#utility.yul\":6355:6361   */\n  dup3\n    /* \"#utility.yul\":6347:6353   */\n  dup3\n    /* \"#utility.yul\":6341:6345   */\n  dup6\n    /* \"#utility.yul\":6296:6362   */\n  tag_28\n  jump\t// in\ntag_104:\n    /* \"#utility.yul\":6389:6390   */\n  0x00\n    /* \"#utility.yul\":6413:6417   */\n  0x20\n    /* \"#utility.yul\":6400:6417   */\n  swap1\n  pop\n    /* \"#utility.yul\":6445:6447   */\n  0x1f\n    /* \"#utility.yul\":6437:6443   */\n  dup4\n    /* \"#utility.yul\":6434:6448   */\n  gt\n    /* \"#utility.yul\":6462:6463   */\n  0x01\n    /* \"#utility.yul\":6457:7074   */\n  dup2\n  eq\n  tag_106\n  jumpi\n    /* \"#utility.yul\":7118:7119   */\n  0x00\n    /* \"#utility.yul\":7135:7141   */\n  dup5\n    /* \"#utility.yul\":7132:7209   */\n  iszero\n  tag_107\n  jumpi\n    /* \"#utility.yul\":7184:7193   */\n  dup3\n    /* \"#utility.yul\":7179:7182   */\n  dup8\n    /* \"#utility.yul\":7175:7194   */\n  add\n    /* \"#utility.yul\":7169:7195   */\n  mload\n    /* \"#utility.yul\":7160:7195   */\n  swap1\n  pop\n    /* \"#utility.yul\":7132:7209   */\ntag_107:\n    /* \"#utility.yul\":7235:7302   */\n  tag_108\n    /* \"#utility.yul\":7295:7301   */\n  dup6\n    /* \"#utility.yul\":7288:7293   */\n  dup3\n    /* \"#utility.yul\":7235:7302   */\n  tag_26\n  jump\t// in\ntag_108:\n    /* \"#utility.yul\":7229:7233   */\n  dup7\n    /* \"#utility.yul\":7222:7303   */\n  sstore\n    /* \"#utility.yul\":7091:7313   */\n  pop\n    /* \"#utility.yul\":6427:7313   */\n  jump(tag_105)\n    /* \"#utility.yul\":6457:7074   */\ntag_106:\n    /* \"#utility.yul\":6509:6513   */\n  0x1f\n    /* \"#utility.yul\":6505:6514   */\n  not\n    /* \"#utility.yul\":6497:6503   */\n  dup5\n    /* \"#utility.yul\":6493:6515   */\n  and\n    /* \"#utility.yul\":6543:6579   */\n  tag_109\n    /* \"#utility.yul\":6574:6578   */\n  dup7\n    /* \"#utility.yul\":6543:6579   */\n  tag_27\n  jump\t// in\ntag_109:\n    /* \"#utility.yul\":6601:6602   */\n  0x00\n    /* \"#utility.yul\":6615:6823   */\ntag_110:\n    /* \"#utility.yul\":6629:6636   */\n  dup3\n    /* \"#utility.yul\":6626:6627   */\n  dup2\n    /* \"#utility.yul\":6623:6637   */\n  lt\n    /* \"#utility.yul\":6615:6823   */\n  iszero\n  tag_112\n  jumpi\n    /* \"#utility.yul\":6708:6717   */\n  dup5\n    /* \"#utility.yul\":6703:6706   */\n  dup10\n    /* \"#utility.yul\":6699:6718   */\n  add\n    /* \"#utility.yul\":6693:6719   */\n  mload\n    /* \"#utility.yul\":6685:6691   */\n  dup3\n    /* \"#utility.yul\":6678:6720   */\n  sstore\n    /* \"#utility.yul\":6759:6760   */\n  0x01\n    /* \"#utility.yul\":6751:6757   */\n  dup3\n    /* \"#utility.yul\":6747:6761   */\n  add\n    /* \"#utility.yul\":6737:6761   */\n  swap2\n  pop\n    /* \"#utility.yul\":6806:6808   */\n  0x20\n    /* \"#utility.yul\":6795:6804   */\n  dup6\n    /* \"#utility.yul\":6791:6809   */\n  add\n    /* \"#utility.yul\":6778:6809   */\n  swap5\n  pop\n    /* \"#utility.yul\":6652:6656   */\n  0x20\n    /* \"#utility.yul\":6649:6650   */\n  dup2\n    /* \"#utility.yul\":6645:6657   */\n  add\n    /* \"#utility.yul\":6640:6657   */\n  swap1\n  pop\n    /* \"#utility.yul\":6615:6823   */\n  jump(tag_110)\ntag_112:\n    /* \"#utility.yul\":6851:6857   */\n  dup7\n    /* \"#utility.yul\":6842:6849   */\n  dup4\n    /* \"#utility.yul\":6839:6858   */\n  lt\n    /* \"#utility.yul\":6836:7015   */\n  iszero\n  tag_113\n  jumpi\n    /* \"#utility.yul\":6909:6918   */\n  dup5\n    /* \"#utility.yul\":6904:6907   */\n  dup10\n    /* \"#utility.yul\":6900:6919   */\n  add\n    /* \"#utility.yul\":6894:6920   */\n  mload\n    /* \"#utility.yul\":6952:7000   */\n  tag_114\n    /* \"#utility.yul\":6994:6998   */\n  0x1f\n    /* \"#utility.yul\":6986:6992   */\n  dup10\n    /* \"#utility.yul\":6982:6999   */\n  and\n    /* \"#utility.yul\":6971:6980   */\n  dup3\n    /* \"#utility.yul\":6952:7000   */\n  tag_25\n  jump\t// in\ntag_114:\n    /* \"#utility.yul\":6944:6950   */\n  dup4\n    /* \"#utility.yul\":6937:7001   */\n  sstore\n    /* \"#utility.yul\":6859:7015   */\n  pop\n    /* \"#utility.yul\":6836:7015   */\ntag_113:\n    /* \"#utility.yul\":7061:7062   */\n  0x01\n    /* \"#utility.yul\":7057:7058   */\n  0x02\n    /* \"#utility.yul\":7049:7055   */\n  dup9\n    /* \"#utility.yul\":7045:7059   */\n  mul\n    /* \"#utility.yul\":7041:7063   */\n  add\n    /* \"#utility.yul\":7035:7039   */\n  dup9\n    /* \"#utility.yul\":7028:7064   */\n  sstore\n    /* \"#utility.yul\":6464:7074   */\n  pop\n  pop\n  pop\n    /* \"#utility.yul\":6427:7313   */\ntag_105:\n  pop\n    /* \"#utility.yul\":6018:7319   */\n  pop\n  pop\n  pop\n    /* \"#utility.yul\":5927:7319   */\n  pop\n  pop\n  jump\t// out\n    /* \"stateVariables.sol\":61:555  contract stateVariables{... */\ntag_6:\n  dataSize(sub_0)\n  dup1\n  dataOffset(sub_0)\n  0x00\n  codecopy\n  0x00\n  return\nstop\n\nsub_0: assembly {\n        /* \"stateVariables.sol\":61:555  contract stateVariables{... */\n      mstore(0x40, 0x80)\n      callvalue\n      dup1\n      iszero\n      tag_1\n      jumpi\n      0x00\n      dup1\n      revert\n    tag_1:\n      pop\n      jumpi(tag_2, lt(calldatasize, 0x04))\n      shr(0xe0, calldataload(0x00))\n      dup1\n      0x2b2654a3\n      gt\n      tag_10\n      jumpi\n      dup1\n      0x2b2654a3\n      eq\n      tag_6\n      jumpi\n      dup1\n      0x9c38f900\n      eq\n      tag_7\n      jumpi\n      dup1\n      0xe7a96f6d\n      eq\n      tag_8\n      jumpi\n      dup1\n      0xfc668876\n      eq\n      tag_9\n      jumpi\n      jump(tag_2)\n    tag_10:\n      dup1\n      0x03a1777f\n      eq\n      tag_3\n      jumpi\n      dup1\n      0x07ca2442\n      eq\n      tag_4\n      jumpi\n      dup1\n      0x112fd29e\n      eq\n      tag_5\n      jumpi\n    tag_2:\n      0x00\n      dup1\n      revert\n        /* \"stateVariables.sol\":458:550  function updateSomeString(string memory _value) public{... */\n    tag_3:\n      tag_11\n      0x04\n      dup1\n      calldatasize\n      sub\n      dup2\n      add\n      swap1\n      tag_12\n      swap2\n      swap1\n      tag_13\n      jump\t// in\n    tag_12:\n      tag_14\n      jump\t// in\n    tag_11:\n      stop\n        /* \"stateVariables.sol\":224:246  uint[] public myNumber */\n    tag_4:\n      tag_15\n      0x04\n      dup1\n      calldatasize\n      sub\n      dup2\n      add\n      swap1\n      tag_16\n      swap2\n      swap1\n      tag_17\n      jump\t// in\n    tag_16:\n      tag_18\n      jump\t// in\n    tag_15:\n      mload(0x40)\n      tag_19\n      swap2\n      swap1\n      tag_20\n      jump\t// in\n    tag_19:\n      mload(0x40)\n      dup1\n      swap2\n      sub\n      swap1\n      return\n        /* \"stateVariables.sol\":91:124  uint256 public unsignedInt = 1000 */\n    tag_5:\n      tag_21\n      tag_22\n      jump\t// in\n    tag_21:\n      mload(0x40)\n      tag_23\n      swap2\n      swap1\n      tag_20\n      jump\t// in\n    tag_23:\n      mload(0x40)\n      dup1\n      swap2\n      sub\n      swap1\n      return\n        /* \"stateVariables.sol\":370:450  function pushToArray(uint _value) public{... */\n    tag_6:\n      tag_24\n      0x04\n      dup1\n      calldatasize\n      sub\n      dup2\n      add\n      swap1\n      tag_25\n      swap2\n      swap1\n      tag_17\n      jump\t// in\n    tag_25:\n      tag_26\n      jump\t// in\n    tag_24:\n      stop\n        /* \"stateVariables.sol\":176:217  bytes public someBytes = \"Crazy times...\" */\n    tag_7:\n      tag_27\n      tag_28\n      jump\t// in\n    tag_27:\n      mload(0x40)\n      tag_29\n      swap2\n      swap1\n      tag_30\n      jump\t// in\n    tag_29:\n      mload(0x40)\n      dup1\n      swap2\n      sub\n      swap1\n      return\n        /* \"stateVariables.sol\":131:169  string public someString = \"Hi there!\" */\n    tag_8:\n      tag_31\n      tag_32\n      jump\t// in\n    tag_31:\n      mload(0x40)\n      tag_33\n      swap2\n      swap1\n      tag_34\n      jump\t// in\n    tag_33:\n      mload(0x40)\n      dup1\n      swap2\n      sub\n      swap1\n      return\n        /* \"stateVariables.sol\":255:362  function getStringFromBytes() public view returns(string memory){... */\n    tag_9:\n      tag_35\n      tag_36\n      jump\t// in\n    tag_35:\n      mload(0x40)\n      tag_37\n      swap2\n      swap1\n      tag_34\n      jump\t// in\n    tag_37:\n      mload(0x40)\n      dup1\n      swap2\n      sub\n      swap1\n      return\n        /* \"stateVariables.sol\":458:550  function updateSomeString(string memory _value) public{... */\n    tag_14:\n        /* \"stateVariables.sol\":536:542  _value */\n      dup1\n        /* \"stateVariables.sol\":523:533  someString */\n      0x01\n        /* \"stateVariables.sol\":523:542  someString = _value */\n      swap1\n      dup2\n      tag_39\n      swap2\n      swap1\n      tag_40\n      jump\t// in\n    tag_39:\n      pop\n        /* \"stateVariables.sol\":458:550  function updateSomeString(string memory _value) public{... */\n      pop\n      jump\t// out\n        /* \"stateVariables.sol\":224:246  uint[] public myNumber */\n    tag_18:\n      0x03\n      dup2\n      dup2\n      sload\n      dup2\n      lt\n      tag_41\n      jumpi\n      0x00\n      dup1\n      revert\n    tag_41:\n      swap1\n      0x00\n      mstore\n      keccak256(0x00, 0x20)\n      add\n      0x00\n      swap2\n      pop\n      swap1\n      pop\n      sload\n      dup2\n      jump\t// out\n        /* \"stateVariables.sol\":91:124  uint256 public unsignedInt = 1000 */\n    tag_22:\n      sload(0x00)\n      dup2\n      jump\t// out\n        /* \"stateVariables.sol\":370:450  function pushToArray(uint _value) public{... */\n    tag_26:\n        /* \"stateVariables.sol\":421:429  myNumber */\n      0x03\n        /* \"stateVariables.sol\":435:441  _value */\n      dup2\n        /* \"stateVariables.sol\":421:442  myNumber.push(_value) */\n      swap1\n      dup1\n      0x01\n      dup2\n      sload\n      add\n      dup1\n      dup3\n      sstore\n      dup1\n      swap2\n      pop\n      pop\n      0x01\n      swap1\n      sub\n      swap1\n      0x00\n      mstore\n      keccak256(0x00, 0x20)\n      add\n      0x00\n      swap1\n      swap2\n      swap1\n      swap2\n      swap1\n      swap2\n      pop\n      sstore\n        /* \"stateVariables.sol\":370:450  function pushToArray(uint _value) public{... */\n      pop\n      jump\t// out\n        /* \"stateVariables.sol\":176:217  bytes public someBytes = \"Crazy times...\" */\n    tag_28:\n      0x02\n      dup1\n      sload\n      tag_45\n      swap1\n      tag_46\n      jump\t// in\n    tag_45:\n      dup1\n      0x1f\n      add\n      0x20\n      dup1\n      swap2\n      div\n      mul\n      0x20\n      add\n      mload(0x40)\n      swap1\n      dup2\n      add\n      0x40\n      mstore\n      dup1\n      swap3\n      swap2\n      swap1\n      dup2\n      dup2\n      mstore\n      0x20\n      add\n      dup3\n      dup1\n      sload\n      tag_47\n      swap1\n      tag_46\n      jump\t// in\n    tag_47:\n      dup1\n      iszero\n      tag_48\n      jumpi\n      dup1\n      0x1f\n      lt\n      tag_49\n      jumpi\n      0x0100\n      dup1\n      dup4\n      sload\n      div\n      mul\n      dup4\n      mstore\n      swap2\n      0x20\n      add\n      swap2\n      jump(tag_48)\n    tag_49:\n      dup3\n      add\n      swap2\n      swap1\n      0x00\n      mstore\n      keccak256(0x00, 0x20)\n      swap1\n    tag_50:\n      dup2\n      sload\n      dup2\n      mstore\n      swap1\n      0x01\n      add\n      swap1\n      0x20\n      add\n      dup1\n      dup4\n      gt\n      tag_50\n      jumpi\n      dup3\n      swap1\n      sub\n      0x1f\n      and\n      dup3\n      add\n      swap2\n    tag_48:\n      pop\n      pop\n      pop\n      pop\n      pop\n      dup2\n      jump\t// out\n        /* \"stateVariables.sol\":131:169  string public someString = \"Hi there!\" */\n    tag_32:\n      0x01\n      dup1\n      sload\n      tag_51\n      swap1\n      tag_46\n      jump\t// in\n    tag_51:\n      dup1\n      0x1f\n      add\n      0x20\n      dup1\n      swap2\n      div\n      mul\n      0x20\n      add\n      mload(0x40)\n      swap1\n      dup2\n      add\n      0x40\n      mstore\n      dup1\n      swap3\n      swap2\n      swap1\n      dup2\n      dup2\n      mstore\n      0x20\n      add\n      dup3\n      dup1\n      sload\n      tag_52\n      swap1\n      tag_46\n      jump\t// in\n    tag_52:\n      dup1\n      iszero\n      tag_53\n      jumpi\n      dup1\n      0x1f\n      lt\n      tag_54\n      jumpi\n      0x0100\n      dup1\n      dup4\n      sload\n      div\n      mul\n      dup4\n      mstore\n      swap2\n      0x20\n      add\n      swap2\n      jump(tag_53)\n    tag_54:\n      dup3\n      add\n      swap2\n      swap1\n      0x00\n      mstore\n      keccak256(0x00, 0x20)\n      swap1\n    tag_55:\n      dup2\n      sload\n      dup2\n      mstore\n      swap1\n      0x01\n      add\n      swap1\n      0x20\n      add\n      dup1\n      dup4\n      gt\n      tag_55\n      jumpi\n      dup3\n      swap1\n      sub\n      0x1f\n      and\n      dup3\n      add\n      swap2\n    tag_53:\n      pop\n      pop\n      pop\n      pop\n      pop\n      dup2\n      jump\t// out\n        /* \"stateVariables.sol\":255:362  function getStringFromBytes() public view returns(string memory){... */\n    tag_36:\n        /* \"stateVariables.sol\":305:318  string memory */\n      0x60\n        /* \"stateVariables.sol\":344:353  someBytes */\n      0x02\n        /* \"stateVariables.sol\":330:354  return string(someBytes) */\n      dup1\n      sload\n      tag_57\n      swap1\n      tag_46\n      jump\t// in\n    tag_57:\n      dup1\n      0x1f\n      add\n      0x20\n      dup1\n      swap2\n      div\n      mul\n      0x20\n      add\n      mload(0x40)\n      swap1\n      dup2\n      add\n      0x40\n      mstore\n      dup1\n      swap3\n      swap2\n      swap1\n      dup2\n      dup2\n      mstore\n      0x20\n      add\n      dup3\n      dup1\n      sload\n      tag_58\n      swap1\n      tag_46\n      jump\t// in\n    tag_58:\n      dup1\n      iszero\n      tag_59\n      jumpi\n      dup1\n      0x1f\n      lt\n      tag_60\n      jumpi\n      0x0100\n      dup1\n      dup4\n      sload\n      div\n      mul\n      dup4\n      mstore\n      swap2\n      0x20\n      add\n      swap2\n      jump(tag_59)\n    tag_60:\n      dup3\n      add\n      swap2\n      swap1\n      0x00\n      mstore\n      keccak256(0x00, 0x20)\n      swap1\n    tag_61:\n      dup2\n      sload\n      dup2\n      mstore\n      swap1\n      0x01\n      add\n      swap1\n      0x20\n      add\n      dup1\n      dup4\n      gt\n      tag_61\n      jumpi\n      dup3\n      swap1\n      sub\n      0x1f\n      and\n      dup3\n      add\n      swap2\n    tag_59:\n      pop\n      pop\n      pop\n      pop\n      pop\n      swap1\n      pop\n        /* \"stateVariables.sol\":255:362  function getStringFromBytes() public view returns(string memory){... */\n      swap1\n      jump\t// out\n        /* \"#utility.yul\":7:82   */\n    tag_62:\n        /* \"#utility.yul\":40:46   */\n      0x00\n        /* \"#utility.yul\":73:75   */\n      0x40\n        /* \"#utility.yul\":67:76   */\n      mload\n        /* \"#utility.yul\":57:76   */\n      swap1\n      pop\n        /* \"#utility.yul\":7:82   */\n      swap1\n      jump\t// out\n        /* \"#utility.yul\":88:205   */\n    tag_63:\n        /* \"#utility.yul\":197:198   */\n      0x00\n        /* \"#utility.yul\":194:195   */\n      dup1\n        /* \"#utility.yul\":187:199   */\n      revert\n        /* \"#utility.yul\":211:328   */\n    tag_64:\n        /* \"#utility.yul\":320:321   */\n      0x00\n        /* \"#utility.yul\":317:318   */\n      dup1\n        /* \"#utility.yul\":310:322   */\n      revert\n        /* \"#utility.yul\":334:451   */\n    tag_65:\n        /* \"#utility.yul\":443:444   */\n      0x00\n        /* \"#utility.yul\":440:441   */\n      dup1\n        /* \"#utility.yul\":433:445   */\n      revert\n        /* \"#utility.yul\":457:574   */\n    tag_66:\n        /* \"#utility.yul\":566:567   */\n      0x00\n        /* \"#utility.yul\":563:564   */\n      dup1\n        /* \"#utility.yul\":556:568   */\n      revert\n        /* \"#utility.yul\":580:682   */\n    tag_67:\n        /* \"#utility.yul\":621:627   */\n      0x00\n        /* \"#utility.yul\":672:674   */\n      0x1f\n        /* \"#utility.yul\":668:675   */\n      not\n        /* \"#utility.yul\":663:665   */\n      0x1f\n        /* \"#utility.yul\":656:661   */\n      dup4\n        /* \"#utility.yul\":652:666   */\n      add\n        /* \"#utility.yul\":648:676   */\n      and\n        /* \"#utility.yul\":638:676   */\n      swap1\n      pop\n        /* \"#utility.yul\":580:682   */\n      swap2\n      swap1\n      pop\n      jump\t// out\n        /* \"#utility.yul\":688:868   */\n    tag_68:\n        /* \"#utility.yul\":736:813   */\n      0x4e487b7100000000000000000000000000000000000000000000000000000000\n        /* \"#utility.yul\":733:734   */\n      0x00\n        /* \"#utility.yul\":726:814   */\n      mstore\n        /* \"#utility.yul\":833:837   */\n      0x41\n        /* \"#utility.yul\":830:831   */\n      0x04\n        /* \"#utility.yul\":823:838   */\n      mstore\n        /* \"#utility.yul\":857:861   */\n      0x24\n        /* \"#utility.yul\":854:855   */\n      0x00\n        /* \"#utility.yul\":847:862   */\n      revert\n        /* \"#utility.yul\":874:1155   */\n    tag_69:\n        /* \"#utility.yul\":957:984   */\n      tag_111\n        /* \"#utility.yul\":979:983   */\n      dup3\n        /* \"#utility.yul\":957:984   */\n      tag_67\n      jump\t// in\n    tag_111:\n        /* \"#utility.yul\":949:955   */\n      dup2\n        /* \"#utility.yul\":945:985   */\n      add\n        /* \"#utility.yul\":1087:1093   */\n      dup2\n        /* \"#utility.yul\":1075:1085   */\n      dup2\n        /* \"#utility.yul\":1072:1094   */\n      lt\n        /* \"#utility.yul\":1051:1069   */\n      0xffffffffffffffff\n        /* \"#utility.yul\":1039:1049   */\n      dup3\n        /* \"#utility.yul\":1036:1070   */\n      gt\n        /* \"#utility.yul\":1033:1095   */\n      or\n        /* \"#utility.yul\":1030:1118   */\n      iszero\n      tag_112\n      jumpi\n        /* \"#utility.yul\":1098:1116   */\n      tag_113\n      tag_68\n      jump\t// in\n    tag_113:\n        /* \"#utility.yul\":1030:1118   */\n    tag_112:\n        /* \"#utility.yul\":1138:1148   */\n      dup1\n        /* \"#utility.yul\":1134:1136   */\n      0x40\n        /* \"#utility.yul\":1127:1149   */\n      mstore\n        /* \"#utility.yul\":917:1155   */\n      pop\n        /* \"#utility.yul\":874:1155   */\n      pop\n      pop\n      jump\t// out\n        /* \"#utility.yul\":1161:1290   */\n    tag_70:\n        /* \"#utility.yul\":1195:1201   */\n      0x00\n        /* \"#utility.yul\":1222:1242   */\n      tag_115\n      tag_62\n      jump\t// in\n    tag_115:\n        /* \"#utility.yul\":1212:1242   */\n      swap1\n      pop\n        /* \"#utility.yul\":1251:1284   */\n      tag_116\n        /* \"#utility.yul\":1279:1283   */\n      dup3\n        /* \"#utility.yul\":1271:1277   */\n      dup3\n        /* \"#utility.yul\":1251:1284   */\n      tag_69\n      jump\t// in\n    tag_116:\n        /* \"#utility.yul\":1161:1290   */\n      swap2\n      swap1\n      pop\n      jump\t// out\n        /* \"#utility.yul\":1296:1604   */\n    tag_71:\n        /* \"#utility.yul\":1358:1362   */\n      0x00\n        /* \"#utility.yul\":1448:1466   */\n      0xffffffffffffffff\n        /* \"#utility.yul\":1440:1446   */\n      dup3\n        /* \"#utility.yul\":1437:1467   */\n      gt\n        /* \"#utility.yul\":1434:1490   */\n      iszero\n      tag_118\n      jumpi\n        /* \"#utility.yul\":1470:1488   */\n      tag_119\n      tag_68\n      jump\t// in\n    tag_119:\n        /* \"#utility.yul\":1434:1490   */\n    tag_118:\n        /* \"#utility.yul\":1508:1537   */\n      tag_120\n        /* \"#utility.yul\":1530:1536   */\n      dup3\n        /* \"#utility.yul\":1508:1537   */\n      tag_67\n      jump\t// in\n    tag_120:\n        /* \"#utility.yul\":1500:1537   */\n      swap1\n      pop\n        /* \"#utility.yul\":1592:1596   */\n      0x20\n        /* \"#utility.yul\":1586:1590   */\n      dup2\n        /* \"#utility.yul\":1582:1597   */\n      add\n        /* \"#utility.yul\":1574:1597   */\n      swap1\n      pop\n        /* \"#utility.yul\":1296:1604   */\n      swap2\n      swap1\n      pop\n      jump\t// out\n        /* \"#utility.yul\":1610:1756   */\n    tag_72:\n        /* \"#utility.yul\":1707:1713   */\n      dup3\n        /* \"#utility.yul\":1702:1705   */\n      dup2\n        /* \"#utility.yul\":1697:1700   */\n      dup4\n        /* \"#utility.yul\":1684:1714   */\n      calldatacopy\n        /* \"#utility.yul\":1748:1749   */\n      0x00\n        /* \"#utility.yul\":1739:1745   */\n      dup4\n        /* \"#utility.yul\":1734:1737   */\n      dup4\n        /* \"#utility.yul\":1730:1746   */\n      add\n        /* \"#utility.yul\":1723:1750   */\n      mstore\n        /* \"#utility.yul\":1610:1756   */\n      pop\n      pop\n      pop\n      jump\t// out\n        /* \"#utility.yul\":1762:2187   */\n    tag_73:\n        /* \"#utility.yul\":1840:1845   */\n      0x00\n        /* \"#utility.yul\":1865:1931   */\n      tag_123\n        /* \"#utility.yul\":1881:1930   */\n      tag_124\n        /* \"#utility.yul\":1923:1929   */\n      dup5\n        /* \"#utility.yul\":1881:1930   */\n      tag_71\n      jump\t// in\n    tag_124:\n        /* \"#utility.yul\":1865:1931   */\n      tag_70\n      jump\t// in\n    tag_123:\n        /* \"#utility.yul\":1856:1931   */\n      swap1\n      pop\n        /* \"#utility.yul\":1954:1960   */\n      dup3\n        /* \"#utility.yul\":1947:1952   */\n      dup2\n        /* \"#utility.yul\":1940:1961   */\n      mstore\n        /* \"#utility.yul\":1992:1996   */\n      0x20\n        /* \"#utility.yul\":1985:1990   */\n      dup2\n        /* \"#utility.yul\":1981:1997   */\n      add\n        /* \"#utility.yul\":2030:2033   */\n      dup5\n        /* \"#utility.yul\":2021:2027   */\n      dup5\n        /* \"#utility.yul\":2016:2019   */\n      dup5\n        /* \"#utility.yul\":2012:2028   */\n      add\n        /* \"#utility.yul\":2009:2034   */\n      gt\n        /* \"#utility.yul\":2006:2118   */\n      iszero\n      tag_125\n      jumpi\n        /* \"#utility.yul\":2037:2116   */\n      tag_126\n      tag_66\n      jump\t// in\n    tag_126:\n        /* \"#utility.yul\":2006:2118   */\n    tag_125:\n        /* \"#utility.yul\":2127:2181   */\n      tag_127\n        /* \"#utility.yul\":2174:2180   */\n      dup5\n        /* \"#utility.yul\":2169:2172   */\n      dup3\n        /* \"#utility.yul\":2164:2167   */\n      dup6\n        /* \"#utility.yul\":2127:2181   */\n      tag_72\n      jump\t// in\n    tag_127:\n        /* \"#utility.yul\":1846:2187   */\n      pop\n        /* \"#utility.yul\":1762:2187   */\n      swap4\n      swap3\n      pop\n      pop\n      pop\n      jump\t// out\n        /* \"#utility.yul\":2207:2547   */\n    tag_74:\n        /* \"#utility.yul\":2263:2268   */\n      0x00\n        /* \"#utility.yul\":2312:2315   */\n      dup3\n        /* \"#utility.yul\":2305:2309   */\n      0x1f\n        /* \"#utility.yul\":2297:2303   */\n      dup4\n        /* \"#utility.yul\":2293:2310   */\n      add\n        /* \"#utility.yul\":2289:2316   */\n      slt\n        /* \"#utility.yul\":2279:2401   */\n      tag_129\n      jumpi\n        /* \"#utility.yul\":2320:2399   */\n      tag_130\n      tag_65\n      jump\t// in\n    tag_130:\n        /* \"#utility.yul\":2279:2401   */\n    tag_129:\n        /* \"#utility.yul\":2437:2443   */\n      dup2\n        /* \"#utility.yul\":2424:2444   */\n      calldataload\n        /* \"#utility.yul\":2462:2541   */\n      tag_131\n        /* \"#utility.yul\":2537:2540   */\n      dup5\n        /* \"#utility.yul\":2529:2535   */\n      dup3\n        /* \"#utility.yul\":2522:2526   */\n      0x20\n        /* \"#utility.yul\":2514:2520   */\n      dup7\n        /* \"#utility.yul\":2510:2527   */\n      add\n        /* \"#utility.yul\":2462:2541   */\n      tag_73\n      jump\t// in\n    tag_131:\n        /* \"#utility.yul\":2453:2541   */\n      swap2\n      pop\n        /* \"#utility.yul\":2269:2547   */\n      pop\n        /* \"#utility.yul\":2207:2547   */\n      swap3\n      swap2\n      pop\n      pop\n      jump\t// out\n        /* \"#utility.yul\":2553:3062   */\n    tag_13:\n        /* \"#utility.yul\":2622:2628   */\n      0x00\n        /* \"#utility.yul\":2671:2673   */\n      0x20\n        /* \"#utility.yul\":2659:2668   */\n      dup3\n        /* \"#utility.yul\":2650:2657   */\n      dup5\n        /* \"#utility.yul\":2646:2669   */\n      sub\n        /* \"#utility.yul\":2642:2674   */\n      slt\n        /* \"#utility.yul\":2639:2758   */\n      iszero\n      tag_133\n      jumpi\n        /* \"#utility.yul\":2677:2756   */\n      tag_134\n      tag_63\n      jump\t// in\n    tag_134:\n        /* \"#utility.yul\":2639:2758   */\n    tag_133:\n        /* \"#utility.yul\":2825:2826   */\n      0x00\n        /* \"#utility.yul\":2814:2823   */\n      dup3\n        /* \"#utility.yul\":2810:2827   */\n      add\n        /* \"#utility.yul\":2797:2828   */\n      calldataload\n        /* \"#utility.yul\":2855:2873   */\n      0xffffffffffffffff\n        /* \"#utility.yul\":2847:2853   */\n      dup2\n        /* \"#utility.yul\":2844:2874   */\n      gt\n        /* \"#utility.yul\":2841:2958   */\n      iszero\n      tag_135\n      jumpi\n        /* \"#utility.yul\":2877:2956   */\n      tag_136\n      tag_64\n      jump\t// in\n    tag_136:\n        /* \"#utility.yul\":2841:2958   */\n    tag_135:\n        /* \"#utility.yul\":2982:3045   */\n      tag_137\n        /* \"#utility.yul\":3037:3044   */\n      dup5\n        /* \"#utility.yul\":3028:3034   */\n      dup3\n        /* \"#utility.yul\":3017:3026   */\n      dup6\n        /* \"#utility.yul\":3013:3035   */\n      add\n        /* \"#utility.yul\":2982:3045   */\n      tag_74\n      jump\t// in\n    tag_137:\n        /* \"#utility.yul\":2972:3045   */\n      swap2\n      pop\n        /* \"#utility.yul\":2768:3055   */\n      pop\n        /* \"#utility.yul\":2553:3062   */\n      swap3\n      swap2\n      pop\n      pop\n      jump\t// out\n        /* \"#utility.yul\":3068:3145   */\n    tag_75:\n        /* \"#utility.yul\":3105:3112   */\n      0x00\n        /* \"#utility.yul\":3134:3139   */\n      dup2\n        /* \"#utility.yul\":3123:3139   */\n      swap1\n      pop\n        /* \"#utility.yul\":3068:3145   */\n      swap2\n      swap1\n      pop\n      jump\t// out\n        /* \"#utility.yul\":3151:3273   */\n    tag_76:\n        /* \"#utility.yul\":3224:3248   */\n      tag_140\n        /* \"#utility.yul\":3242:3247   */\n      dup2\n        /* \"#utility.yul\":3224:3248   */\n      tag_75\n      jump\t// in\n    tag_140:\n        /* \"#utility.yul\":3217:3222   */\n      dup2\n        /* \"#utility.yul\":3214:3249   */\n      eq\n        /* \"#utility.yul\":3204:3267   */\n      tag_141\n      jumpi\n        /* \"#utility.yul\":3263:3264   */\n      0x00\n        /* \"#utility.yul\":3260:3261   */\n      dup1\n        /* \"#utility.yul\":3253:3265   */\n      revert\n        /* \"#utility.yul\":3204:3267   */\n    tag_141:\n        /* \"#utility.yul\":3151:3273   */\n      pop\n      jump\t// out\n        /* \"#utility.yul\":3279:3418   */\n    tag_77:\n        /* \"#utility.yul\":3325:3330   */\n      0x00\n        /* \"#utility.yul\":3363:3369   */\n      dup2\n        /* \"#utility.yul\":3350:3370   */\n      calldataload\n        /* \"#utility.yul\":3341:3370   */\n      swap1\n      pop\n        /* \"#utility.yul\":3379:3412   */\n      tag_143\n        /* \"#utility.yul\":3406:3411   */\n      dup2\n        /* \"#utility.yul\":3379:3412   */\n      tag_76\n      jump\t// in\n    tag_143:\n        /* \"#utility.yul\":3279:3418   */\n      swap3\n      swap2\n      pop\n      pop\n      jump\t// out\n        /* \"#utility.yul\":3424:3753   */\n    tag_17:\n        /* \"#utility.yul\":3483:3489   */\n      0x00\n        /* \"#utility.yul\":3532:3534   */\n      0x20\n        /* \"#utility.yul\":3520:3529   */\n      dup3\n        /* \"#utility.yul\":3511:3518   */\n      dup5\n        /* \"#utility.yul\":3507:3530   */\n      sub\n        /* \"#utility.yul\":3503:3535   */\n      slt\n        /* \"#utility.yul\":3500:3619   */\n      iszero\n      tag_145\n      jumpi\n        /* \"#utility.yul\":3538:3617   */\n      tag_146\n      tag_63\n      jump\t// in\n    tag_146:\n        /* \"#utility.yul\":3500:3619   */\n    tag_145:\n        /* \"#utility.yul\":3658:3659   */\n      0x00\n        /* \"#utility.yul\":3683:3736   */\n      tag_147\n        /* \"#utility.yul\":3728:3735   */\n      dup5\n        /* \"#utility.yul\":3719:3725   */\n      dup3\n        /* \"#utility.yul\":3708:3717   */\n      dup6\n        /* \"#utility.yul\":3704:3726   */\n      add\n        /* \"#utility.yul\":3683:3736   */\n      tag_77\n      jump\t// in\n    tag_147:\n        /* \"#utility.yul\":3673:3736   */\n      swap2\n      pop\n        /* \"#utility.yul\":3629:3746   */\n      pop\n        /* \"#utility.yul\":3424:3753   */\n      swap3\n      swap2\n      pop\n      pop\n      jump\t// out\n        /* \"#utility.yul\":3759:3877   */\n    tag_78:\n        /* \"#utility.yul\":3846:3870   */\n      tag_149\n        /* \"#utility.yul\":3864:3869   */\n      dup2\n        /* \"#utility.yul\":3846:3870   */\n      tag_75\n      jump\t// in\n    tag_149:\n        /* \"#utility.yul\":3841:3844   */\n      dup3\n        /* \"#utility.yul\":3834:3871   */\n      mstore\n        /* \"#utility.yul\":3759:3877   */\n      pop\n      pop\n      jump\t// out\n        /* \"#utility.yul\":3883:4105   */\n    tag_20:\n        /* \"#utility.yul\":3976:3980   */\n      0x00\n        /* \"#utility.yul\":4014:4016   */\n      0x20\n        /* \"#utility.yul\":4003:4012   */\n      dup3\n        /* \"#utility.yul\":3999:4017   */\n      add\n        /* \"#utility.yul\":3991:4017   */\n      swap1\n      pop\n        /* \"#utility.yul\":4027:4098   */\n      tag_151\n        /* \"#utility.yul\":4095:4096   */\n      0x00\n        /* \"#utility.yul\":4084:4093   */\n      dup4\n        /* \"#utility.yul\":4080:4097   */\n      add\n        /* \"#utility.yul\":4071:4077   */\n      dup5\n        /* \"#utility.yul\":4027:4098   */\n      tag_78\n      jump\t// in\n    tag_151:\n        /* \"#utility.yul\":3883:4105   */\n      swap3\n      swap2\n      pop\n      pop\n      jump\t// out\n        /* \"#utility.yul\":4111:4209   */\n    tag_79:\n        /* \"#utility.yul\":4162:4168   */\n      0x00\n        /* \"#utility.yul\":4196:4201   */\n      dup2\n        /* \"#utility.yul\":4190:4202   */\n      mload\n        /* \"#utility.yul\":4180:4202   */\n      swap1\n      pop\n        /* \"#utility.yul\":4111:4209   */\n      swap2\n      swap1\n      pop\n      jump\t// out\n        /* \"#utility.yul\":4215:4383   */\n    tag_80:\n        /* \"#utility.yul\":4298:4309   */\n      0x00\n        /* \"#utility.yul\":4332:4338   */\n      dup3\n        /* \"#utility.yul\":4327:4330   */\n      dup3\n        /* \"#utility.yul\":4320:4339   */\n      mstore\n        /* \"#utility.yul\":4372:4376   */\n      0x20\n        /* \"#utility.yul\":4367:4370   */\n      dup3\n        /* \"#utility.yul\":4363:4377   */\n      add\n        /* \"#utility.yul\":4348:4377   */\n      swap1\n      pop\n        /* \"#utility.yul\":4215:4383   */\n      swap3\n      swap2\n      pop\n      pop\n      jump\t// out\n        /* \"#utility.yul\":4389:4635   */\n    tag_81:\n        /* \"#utility.yul\":4470:4471   */\n      0x00\n        /* \"#utility.yul\":4480:4593   */\n    tag_155:\n        /* \"#utility.yul\":4494:4500   */\n      dup4\n        /* \"#utility.yul\":4491:4492   */\n      dup2\n        /* \"#utility.yul\":4488:4501   */\n      lt\n        /* \"#utility.yul\":4480:4593   */\n      iszero\n      tag_157\n      jumpi\n        /* \"#utility.yul\":4579:4580   */\n      dup1\n        /* \"#utility.yul\":4574:4577   */\n      dup3\n        /* \"#utility.yul\":4570:4581   */\n      add\n        /* \"#utility.yul\":4564:4582   */\n      mload\n        /* \"#utility.yul\":4560:4561   */\n      dup2\n        /* \"#utility.yul\":4555:4558   */\n      dup5\n        /* \"#utility.yul\":4551:4562   */\n      add\n        /* \"#utility.yul\":4544:4583   */\n      mstore\n        /* \"#utility.yul\":4516:4518   */\n      0x20\n        /* \"#utility.yul\":4513:4514   */\n      dup2\n        /* \"#utility.yul\":4509:4519   */\n      add\n        /* \"#utility.yul\":4504:4519   */\n      swap1\n      pop\n        /* \"#utility.yul\":4480:4593   */\n      jump(tag_155)\n    tag_157:\n        /* \"#utility.yul\":4627:4628   */\n      0x00\n        /* \"#utility.yul\":4618:4624   */\n      dup5\n        /* \"#utility.yul\":4613:4616   */\n      dup5\n        /* \"#utility.yul\":4609:4625   */\n      add\n        /* \"#utility.yul\":4602:4629   */\n      mstore\n        /* \"#utility.yul\":4451:4635   */\n      pop\n        /* \"#utility.yul\":4389:4635   */\n      pop\n      pop\n      pop\n      jump\t// out\n        /* \"#utility.yul\":4641:5014   */\n    tag_82:\n        /* \"#utility.yul\":4727:4730   */\n      0x00\n        /* \"#utility.yul\":4755:4793   */\n      tag_159\n        /* \"#utility.yul\":4787:4792   */\n      dup3\n        /* \"#utility.yul\":4755:4793   */\n      tag_79\n      jump\t// in\n    tag_159:\n        /* \"#utility.yul\":4809:4879   */\n      tag_160\n        /* \"#utility.yul\":4872:4878   */\n      dup2\n        /* \"#utility.yul\":4867:4870   */\n      dup6\n        /* \"#utility.yul\":4809:4879   */\n      tag_80\n      jump\t// in\n    tag_160:\n        /* \"#utility.yul\":4802:4879   */\n      swap4\n      pop\n        /* \"#utility.yul\":4888:4953   */\n      tag_161\n        /* \"#utility.yul\":4946:4952   */\n      dup2\n        /* \"#utility.yul\":4941:4944   */\n      dup6\n        /* \"#utility.yul\":4934:4938   */\n      0x20\n        /* \"#utility.yul\":4927:4932   */\n      dup7\n        /* \"#utility.yul\":4923:4939   */\n      add\n        /* \"#utility.yul\":4888:4953   */\n      tag_81\n      jump\t// in\n    tag_161:\n        /* \"#utility.yul\":4978:5007   */\n      tag_162\n        /* \"#utility.yul\":5000:5006   */\n      dup2\n        /* \"#utility.yul\":4978:5007   */\n      tag_67\n      jump\t// in\n    tag_162:\n        /* \"#utility.yul\":4973:4976   */\n      dup5\n        /* \"#utility.yul\":4969:5008   */\n      add\n        /* \"#utility.yul\":4962:5008   */\n      swap2\n      pop\n        /* \"#utility.yul\":4731:5014   */\n      pop\n        /* \"#utility.yul\":4641:5014   */\n      swap3\n      swap2\n      pop\n      pop\n      jump\t// out\n        /* \"#utility.yul\":5020:5329   */\n    tag_30:\n        /* \"#utility.yul\":5131:5135   */\n      0x00\n        /* \"#utility.yul\":5169:5171   */\n      0x20\n        /* \"#utility.yul\":5158:5167   */\n      dup3\n        /* \"#utility.yul\":5154:5172   */\n      add\n        /* \"#utility.yul\":5146:5172   */\n      swap1\n      pop\n        /* \"#utility.yul\":5218:5227   */\n      dup2\n        /* \"#utility.yul\":5212:5216   */\n      dup2\n        /* \"#utility.yul\":5208:5228   */\n      sub\n        /* \"#utility.yul\":5204:5205   */\n      0x00\n        /* \"#utility.yul\":5193:5202   */\n      dup4\n        /* \"#utility.yul\":5189:5206   */\n      add\n        /* \"#utility.yul\":5182:5229   */\n      mstore\n        /* \"#utility.yul\":5246:5322   */\n      tag_164\n        /* \"#utility.yul\":5317:5321   */\n      dup2\n        /* \"#utility.yul\":5308:5314   */\n      dup5\n        /* \"#utility.yul\":5246:5322   */\n      tag_82\n      jump\t// in\n    tag_164:\n        /* \"#utility.yul\":5238:5322   */\n      swap1\n      pop\n        /* \"#utility.yul\":5020:5329   */\n      swap3\n      swap2\n      pop\n      pop\n      jump\t// out\n        /* \"#utility.yul\":5335:5434   */\n    tag_83:\n        /* \"#utility.yul\":5387:5393   */\n      0x00\n        /* \"#utility.yul\":5421:5426   */\n      dup2\n        /* \"#utility.yul\":5415:5427   */\n      mload\n        /* \"#utility.yul\":5405:5427   */\n      swap1\n      pop\n        /* \"#utility.yul\":5335:5434   */\n      swap2\n      swap1\n      pop\n      jump\t// out\n        /* \"#utility.yul\":5440:5609   */\n    tag_84:\n        /* \"#utility.yul\":5524:5535   */\n      0x00\n        /* \"#utility.yul\":5558:5564   */\n      dup3\n        /* \"#utility.yul\":5553:5556   */\n      dup3\n        /* \"#utility.yul\":5546:5565   */\n      mstore\n        /* \"#utility.yul\":5598:5602   */\n      0x20\n        /* \"#utility.yul\":5593:5596   */\n      dup3\n        /* \"#utility.yul\":5589:5603   */\n      add\n        /* \"#utility.yul\":5574:5603   */\n      swap1\n      pop\n        /* \"#utility.yul\":5440:5609   */\n      swap3\n      swap2\n      pop\n      pop\n      jump\t// out\n        /* \"#utility.yul\":5615:5992   */\n    tag_85:\n        /* \"#utility.yul\":5703:5706   */\n      0x00\n        /* \"#utility.yul\":5731:5770   */\n      tag_168\n        /* \"#utility.yul\":5764:5769   */\n      dup3\n        /* \"#utility.yul\":5731:5770   */\n      tag_83\n      jump\t// in\n    tag_168:\n        /* \"#utility.yul\":5786:5857   */\n      tag_169\n        /* \"#utility.yul\":5850:5856   */\n      dup2\n        /* \"#utility.yul\":5845:5848   */\n      dup6\n        /* \"#utility.yul\":5786:5857   */\n      tag_84\n      jump\t// in\n    tag_169:\n        /* \"#utility.yul\":5779:5857   */\n      swap4\n      pop\n        /* \"#utility.yul\":5866:5931   */\n      tag_170\n        /* \"#utility.yul\":5924:5930   */\n      dup2\n        /* \"#utility.yul\":5919:5922   */\n      dup6\n        /* \"#utility.yul\":5912:5916   */\n      0x20\n        /* \"#utility.yul\":5905:5910   */\n      dup7\n        /* \"#utility.yul\":5901:5917   */\n      add\n        /* \"#utility.yul\":5866:5931   */\n      tag_81\n      jump\t// in\n    tag_170:\n        /* \"#utility.yul\":5956:5985   */\n      tag_171\n        /* \"#utility.yul\":5978:5984   */\n      dup2\n        /* \"#utility.yul\":5956:5985   */\n      tag_67\n      jump\t// in\n    tag_171:\n        /* \"#utility.yul\":5951:5954   */\n      dup5\n        /* \"#utility.yul\":5947:5986   */\n      add\n        /* \"#utility.yul\":5940:5986   */\n      swap2\n      pop\n        /* \"#utility.yul\":5707:5992   */\n      pop\n        /* \"#utility.yul\":5615:5992   */\n      swap3\n      swap2\n      pop\n      pop\n      jump\t// out\n        /* \"#utility.yul\":5998:6311   */\n    tag_34:\n        /* \"#utility.yul\":6111:6115   */\n      0x00\n        /* \"#utility.yul\":6149:6151   */\n      0x20\n        /* \"#utility.yul\":6138:6147   */\n      dup3\n        /* \"#utility.yul\":6134:6152   */\n      add\n        /* \"#utility.yul\":6126:6152   */\n      swap1\n      pop\n        /* \"#utility.yul\":6198:6207   */\n      dup2\n        /* \"#utility.yul\":6192:6196   */\n      dup2\n        /* \"#utility.yul\":6188:6208   */\n      sub\n        /* \"#utility.yul\":6184:6185   */\n      0x00\n        /* \"#utility.yul\":6173:6182   */\n      dup4\n        /* \"#utility.yul\":6169:6186   */\n      add\n        /* \"#utility.yul\":6162:6209   */\n      mstore\n        /* \"#utility.yul\":6226:6304   */\n      tag_173\n        /* \"#utility.yul\":6299:6303   */\n      dup2\n        /* \"#utility.yul\":6290:6296   */\n      dup5\n        /* \"#utility.yul\":6226:6304   */\n      tag_85\n      jump\t// in\n    tag_173:\n        /* \"#utility.yul\":6218:6304   */\n      swap1\n      pop\n        /* \"#utility.yul\":5998:6311   */\n      swap3\n      swap2\n      pop\n      pop\n      jump\t// out\n        /* \"#utility.yul\":6317:6497   */\n    tag_86:\n        /* \"#utility.yul\":6365:6442   */\n      0x4e487b7100000000000000000000000000000000000000000000000000000000\n        /* \"#utility.yul\":6362:6363   */\n      0x00\n        /* \"#utility.yul\":6355:6443   */\n      mstore\n        /* \"#utility.yul\":6462:6466   */\n      0x22\n        /* \"#utility.yul\":6459:6460   */\n      0x04\n        /* \"#utility.yul\":6452:6467   */\n      mstore\n        /* \"#utility.yul\":6486:6490   */\n      0x24\n        /* \"#utility.yul\":6483:6484   */\n      0x00\n        /* \"#utility.yul\":6476:6491   */\n      revert\n        /* \"#utility.yul\":6503:6823   */\n    tag_46:\n        /* \"#utility.yul\":6547:6553   */\n      0x00\n        /* \"#utility.yul\":6584:6585   */\n      0x02\n        /* \"#utility.yul\":6578:6582   */\n      dup3\n        /* \"#utility.yul\":6574:6586   */\n      div\n        /* \"#utility.yul\":6564:6586   */\n      swap1\n      pop\n        /* \"#utility.yul\":6631:6632   */\n      0x01\n        /* \"#utility.yul\":6625:6629   */\n      dup3\n        /* \"#utility.yul\":6621:6633   */\n      and\n        /* \"#utility.yul\":6652:6670   */\n      dup1\n        /* \"#utility.yul\":6642:6723   */\n      tag_176\n      jumpi\n        /* \"#utility.yul\":6708:6712   */\n      0x7f\n        /* \"#utility.yul\":6700:6706   */\n      dup3\n        /* \"#utility.yul\":6696:6713   */\n      and\n        /* \"#utility.yul\":6686:6713   */\n      swap2\n      pop\n        /* \"#utility.yul\":6642:6723   */\n    tag_176:\n        /* \"#utility.yul\":6770:6772   */\n      0x20\n        /* \"#utility.yul\":6762:6768   */\n      dup3\n        /* \"#utility.yul\":6759:6773   */\n      lt\n        /* \"#utility.yul\":6739:6757   */\n      dup2\n        /* \"#utility.yul\":6736:6774   */\n      sub\n        /* \"#utility.yul\":6733:6817   */\n      tag_177\n      jumpi\n        /* \"#utility.yul\":6789:6807   */\n      tag_178\n      tag_86\n      jump\t// in\n    tag_178:\n        /* \"#utility.yul\":6733:6817   */\n    tag_177:\n        /* \"#utility.yul\":6554:6823   */\n      pop\n        /* \"#utility.yul\":6503:6823   */\n      swap2\n      swap1\n      pop\n      jump\t// out\n        /* \"#utility.yul\":6829:6970   */\n    tag_87:\n        /* \"#utility.yul\":6878:6882   */\n      0x00\n        /* \"#utility.yul\":6901:6904   */\n      dup2\n        /* \"#utility.yul\":6893:6904   */\n      swap1\n      pop\n        /* \"#utility.yul\":6924:6927   */\n      dup2\n        /* \"#utility.yul\":6921:6922   */\n      0x00\n        /* \"#utility.yul\":6914:6928   */\n      mstore\n        /* \"#utility.yul\":6958:6962   */\n      0x20\n        /* \"#utility.yul\":6955:6956   */\n      0x00\n        /* \"#utility.yul\":6945:6963   */\n      keccak256\n        /* \"#utility.yul\":6937:6963   */\n      swap1\n      pop\n        /* \"#utility.yul\":6829:6970   */\n      swap2\n      swap1\n      pop\n      jump\t// out\n        /* \"#utility.yul\":6976:7069   */\n    tag_88:\n        /* \"#utility.yul\":7013:7019   */\n      0x00\n        /* \"#utility.yul\":7060:7062   */\n      0x20\n        /* \"#utility.yul\":7055:7057   */\n      0x1f\n        /* \"#utility.yul\":7048:7053   */\n      dup4\n        /* \"#utility.yul\":7044:7058   */\n      add\n        /* \"#utility.yul\":7040:7063   */\n      div\n        /* \"#utility.yul\":7030:7063   */\n      swap1\n      pop\n        /* \"#utility.yul\":6976:7069   */\n      swap2\n      swap1\n      pop\n      jump\t// out\n        /* \"#utility.yul\":7075:7182   */\n    tag_89:\n        /* \"#utility.yul\":7119:7127   */\n      0x00\n        /* \"#utility.yul\":7169:7174   */\n      dup3\n        /* \"#utility.yul\":7163:7167   */\n      dup3\n        /* \"#utility.yul\":7159:7175   */\n      shl\n        /* \"#utility.yul\":7138:7175   */\n      swap1\n      pop\n        /* \"#utility.yul\":7075:7182   */\n      swap3\n      swap2\n      pop\n      pop\n      jump\t// out\n        /* \"#utility.yul\":7188:7581   */\n    tag_90:\n        /* \"#utility.yul\":7257:7263   */\n      0x00\n        /* \"#utility.yul\":7307:7308   */\n      0x08\n        /* \"#utility.yul\":7295:7305   */\n      dup4\n        /* \"#utility.yul\":7291:7309   */\n      mul\n        /* \"#utility.yul\":7330:7427   */\n      tag_183\n        /* \"#utility.yul\":7360:7426   */\n      0xffffffffffffffffffffffffffffffffffffffffffffffffffffffffffffffff\n        /* \"#utility.yul\":7349:7358   */\n      dup3\n        /* \"#utility.yul\":7330:7427   */\n      tag_89\n      jump\t// in\n    tag_183:\n        /* \"#utility.yul\":7448:7487   */\n      tag_184\n        /* \"#utility.yul\":7478:7486   */\n      dup7\n        /* \"#utility.yul\":7467:7476   */\n      dup4\n        /* \"#utility.yul\":7448:7487   */\n      tag_89\n      jump\t// in\n    tag_184:\n        /* \"#utility.yul\":7436:7487   */\n      swap6\n      pop\n        /* \"#utility.yul\":7520:7524   */\n      dup1\n        /* \"#utility.yul\":7516:7525   */\n      not\n        /* \"#utility.yul\":7509:7514   */\n      dup5\n        /* \"#utility.yul\":7505:7526   */\n      and\n        /* \"#utility.yul\":7496:7526   */\n      swap4\n      pop\n        /* \"#utility.yul\":7569:7573   */\n      dup1\n        /* \"#utility.yul\":7559:7567   */\n      dup7\n        /* \"#utility.yul\":7555:7574   */\n      and\n        /* \"#utility.yul\":7548:7553   */\n      dup5\n        /* \"#utility.yul\":7545:7575   */\n      or\n        /* \"#utility.yul\":7535:7575   */\n      swap3\n      pop\n        /* \"#utility.yul\":7264:7581   */\n      pop\n      pop\n        /* \"#utility.yul\":7188:7581   */\n      swap4\n      swap3\n      pop\n      pop\n      pop\n      jump\t// out\n        /* \"#utility.yul\":7587:7647   */\n    tag_91:\n        /* \"#utility.yul\":7615:7618   */\n      0x00\n        /* \"#utility.yul\":7636:7641   */\n      dup2\n        /* \"#utility.yul\":7629:7641   */\n      swap1\n      pop\n        /* \"#utility.yul\":7587:7647   */\n      swap2\n      swap1\n      pop\n      jump\t// out\n        /* \"#utility.yul\":7653:7795   */\n    tag_92:\n        /* \"#utility.yul\":7703:7712   */\n      0x00\n        /* \"#utility.yul\":7736:7789   */\n      tag_187\n        /* \"#utility.yul\":7754:7788   */\n      tag_188\n        /* \"#utility.yul\":7763:7787   */\n      tag_189\n        /* \"#utility.yul\":7781:7786   */\n      dup5\n        /* \"#utility.yul\":7763:7787   */\n      tag_75\n      jump\t// in\n    tag_189:\n        /* \"#utility.yul\":7754:7788   */\n      tag_91\n      jump\t// in\n    tag_188:\n        /* \"#utility.yul\":7736:7789   */\n      tag_75\n      jump\t// in\n    tag_187:\n        /* \"#utility.yul\":7723:7789   */\n      swap1\n      pop\n        /* \"#utility.yul\":7653:7795   */\n      swap2\n      swap1\n      pop\n      jump\t// out\n        /* \"#utility.yul\":7801:7876   */\n    tag_93:\n        /* \"#utility.yul\":7844:7847   */\n      0x00\n        /* \"#utility.yul\":7865:7870   */\n      dup2\n        /* \"#utility.yul\":7858:7870   */\n      swap1\n      pop\n        /* \"#utility.yul\":7801:7876   */\n      swap2\n      swap1\n      pop\n      jump\t// out\n        /* \"#utility.yul\":7882:8151   */\n    tag_94:\n        /* \"#utility.yul\":7992:8031   */\n      tag_192\n        /* \"#utility.yul\":8023:8030   */\n      dup4\n        /* \"#utility.yul\":7992:8031   */\n      tag_92\n      jump\t// in\n    tag_192:\n        /* \"#utility.yul\":8053:8144   */\n      tag_193\n        /* \"#utility.yul\":8102:8143   */\n      tag_194\n        /* \"#utility.yul\":8126:8142   */\n      dup3\n        /* \"#utility.yul\":8102:8143   */\n      tag_93\n      jump\t// in\n    tag_194:\n        /* \"#utility.yul\":8094:8100   */\n      dup5\n        /* \"#utility.yul\":8087:8091   */\n      dup5\n        /* \"#utility.yul\":8081:8092   */\n      sload\n        /* \"#utility.yul\":8053:8144   */\n      tag_90\n      jump\t// in\n    tag_193:\n        /* \"#utility.yul\":8047:8051   */\n      dup3\n        /* \"#utility.yul\":8040:8145   */\n      sstore\n        /* \"#utility.yul\":7958:8151   */\n      pop\n        /* \"#utility.yul\":7882:8151   */\n      pop\n      pop\n      pop\n      jump\t// out\n        /* \"#utility.yul\":8157:8230   */\n    tag_95:\n        /* \"#utility.yul\":8202:8205   */\n      0x00\n        /* \"#utility.yul\":8157:8230   */\n      swap1\n      jump\t// out\n        /* \"#utility.yul\":8236:8425   */\n    tag_96:\n        /* \"#utility.yul\":8313:8345   */\n      tag_197\n      tag_95\n      jump\t// in\n    tag_197:\n        /* \"#utility.yul\":8354:8419   */\n      tag_198\n        /* \"#utility.yul\":8412:8418   */\n      dup2\n        /* \"#utility.yul\":8404:8410   */\n      dup5\n        /* \"#utility.yul\":8398:8402   */\n      dup5\n        /* \"#utility.yul\":8354:8419   */\n      tag_94\n      jump\t// in\n    tag_198:\n        /* \"#utility.yul\":8289:8425   */\n      pop\n        /* \"#utility.yul\":8236:8425   */\n      pop\n      pop\n      jump\t// out\n        /* \"#utility.yul\":8431:8617   */\n    tag_97:\n        /* \"#utility.yul\":8491:8611   */\n    tag_200:\n        /* \"#utility.yul\":8508:8511   */\n      dup2\n        /* \"#utility.yul\":8501:8506   */\n      dup2\n        /* \"#utility.yul\":8498:8512   */\n      lt\n        /* \"#utility.yul\":8491:8611   */\n      iszero\n      tag_202\n      jumpi\n        /* \"#utility.yul\":8562:8601   */\n      tag_203\n        /* \"#utility.yul\":8599:8600   */\n      0x00\n        /* \"#utility.yul\":8592:8597   */\n      dup3\n        /* \"#utility.yul\":8562:8601   */\n      tag_96\n      jump\t// in\n    tag_203:\n        /* \"#utility.yul\":8535:8536   */\n      0x01\n        /* \"#utility.yul\":8528:8533   */\n      dup2\n        /* \"#utility.yul\":8524:8537   */\n      add\n        /* \"#utility.yul\":8515:8537   */\n      swap1\n      pop\n        /* \"#utility.yul\":8491:8611   */\n      jump(tag_200)\n    tag_202:\n        /* \"#utility.yul\":8431:8617   */\n      pop\n      pop\n      jump\t// out\n        /* \"#utility.yul\":8623:9166   */\n    tag_98:\n        /* \"#utility.yul\":8724:8726   */\n      0x1f\n        /* \"#utility.yul\":8719:8722   */\n      dup3\n        /* \"#utility.yul\":8716:8727   */\n      gt\n        /* \"#utility.yul\":8713:9159   */\n      iszero\n      tag_205\n      jumpi\n        /* \"#utility.yul\":8758:8796   */\n      tag_206\n        /* \"#utility.yul\":8790:8795   */\n      dup2\n        /* \"#utility.yul\":8758:8796   */\n      tag_87\n      jump\t// in\n    tag_206:\n        /* \"#utility.yul\":8842:8871   */\n      tag_207\n        /* \"#utility.yul\":8860:8870   */\n      dup5\n        /* \"#utility.yul\":8842:8871   */\n      tag_88\n      jump\t// in\n    tag_207:\n        /* \"#utility.yul\":8832:8840   */\n      dup2\n        /* \"#utility.yul\":8828:8872   */\n      add\n        /* \"#utility.yul\":9025:9027   */\n      0x20\n        /* \"#utility.yul\":9013:9023   */\n      dup6\n        /* \"#utility.yul\":9010:9028   */\n      lt\n        /* \"#utility.yul\":9007:9056   */\n      iszero\n      tag_208\n      jumpi\n        /* \"#utility.yul\":9046:9054   */\n      dup2\n        /* \"#utility.yul\":9031:9054   */\n      swap1\n      pop\n        /* \"#utility.yul\":9007:9056   */\n    tag_208:\n        /* \"#utility.yul\":9069:9149   */\n      tag_209\n        /* \"#utility.yul\":9125:9147   */\n      tag_210\n        /* \"#utility.yul\":9143:9146   */\n      dup6\n        /* \"#utility.yul\":9125:9147   */\n      tag_88\n      jump\t// in\n    tag_210:\n        /* \"#utility.yul\":9115:9123   */\n      dup4\n        /* \"#utility.yul\":9111:9148   */\n      add\n        /* \"#utility.yul\":9098:9109   */\n      dup3\n        /* \"#utility.yul\":9069:9149   */\n      tag_97\n      jump\t// in\n    tag_209:\n        /* \"#utility.yul\":8728:9159   */\n      pop\n      pop\n        /* \"#utility.yul\":8713:9159   */\n    tag_205:\n        /* \"#utility.yul\":8623:9166   */\n      pop\n      pop\n      pop\n      jump\t// out\n        /* \"#utility.yul\":9172:9289   */\n    tag_99:\n        /* \"#utility.yul\":9226:9234   */\n      0x00\n        /* \"#utility.yul\":9276:9281   */\n      dup3\n        /* \"#utility.yul\":9270:9274   */\n      dup3\n        /* \"#utility.yul\":9266:9282   */\n      shr\n        /* \"#utility.yul\":9245:9282   */\n      swap1\n      pop\n        /* \"#utility.yul\":9172:9289   */\n      swap3\n      swap2\n      pop\n      pop\n      jump\t// out\n        /* \"#utility.yul\":9295:9464   */\n    tag_100:\n        /* \"#utility.yul\":9339:9345   */\n      0x00\n        /* \"#utility.yul\":9372:9423   */\n      tag_213\n        /* \"#utility.yul\":9420:9421   */\n      0x00\n        /* \"#utility.yul\":9416:9422   */\n      not\n        /* \"#utility.yul\":9408:9413   */\n      dup5\n        /* \"#utility.yul\":9405:9406   */\n      0x08\n        /* \"#utility.yul\":9401:9414   */\n      mul\n        /* \"#utility.yul\":9372:9423   */\n      tag_99\n      jump\t// in\n    tag_213:\n        /* \"#utility.yul\":9368:9424   */\n      not\n        /* \"#utility.yul\":9453:9457   */\n      dup1\n        /* \"#utility.yul\":9447:9451   */\n      dup4\n        /* \"#utility.yul\":9443:9458   */\n      and\n        /* \"#utility.yul\":9433:9458   */\n      swap2\n      pop\n        /* \"#utility.yul\":9346:9464   */\n      pop\n        /* \"#utility.yul\":9295:9464   */\n      swap3\n      swap2\n      pop\n      pop\n      jump\t// out\n        /* \"#utility.yul\":9469:9764   */\n    tag_101:\n        /* \"#utility.yul\":9545:9549   */\n      0x00\n        /* \"#utility.yul\":9691:9720   */\n      tag_215\n        /* \"#utility.yul\":9716:9719   */\n      dup4\n        /* \"#utility.yul\":9710:9714   */\n      dup4\n        /* \"#utility.yul\":9691:9720   */\n      tag_100\n      jump\t// in\n    tag_215:\n        /* \"#utility.yul\":9683:9720   */\n      swap2\n      pop\n        /* \"#utility.yul\":9753:9756   */\n      dup3\n        /* \"#utility.yul\":9750:9751   */\n      0x02\n        /* \"#utility.yul\":9746:9757   */\n      mul\n        /* \"#utility.yul\":9740:9744   */\n      dup3\n        /* \"#utility.yul\":9737:9758   */\n      or\n        /* \"#utility.yul\":9729:9758   */\n      swap1\n      pop\n        /* \"#utility.yul\":9469:9764   */\n      swap3\n      swap2\n      pop\n      pop\n      jump\t// out\n        /* \"#utility.yul\":9769:11164   */\n    tag_40:\n        /* \"#utility.yul\":9886:9923   */\n      tag_217\n        /* \"#utility.yul\":9919:9922   */\n      dup3\n        /* \"#utility.yul\":9886:9923   */\n      tag_83\n      jump\t// in\n    tag_217:\n        /* \"#utility.yul\":9988:10006   */\n      0xffffffffffffffff\n        /* \"#utility.yul\":9980:9986   */\n      dup2\n        /* \"#utility.yul\":9977:10007   */\n      gt\n        /* \"#utility.yul\":9974:10030   */\n      iszero\n      tag_218\n      jumpi\n        /* \"#utility.yul\":10010:10028   */\n      tag_219\n      tag_68\n      jump\t// in\n    tag_219:\n        /* \"#utility.yul\":9974:10030   */\n    tag_218:\n        /* \"#utility.yul\":10054:10092   */\n      tag_220\n        /* \"#utility.yul\":10086:10090   */\n      dup3\n        /* \"#utility.yul\":10080:10091   */\n      sload\n        /* \"#utility.yul\":10054:10092   */\n      tag_46\n      jump\t// in\n    tag_220:\n        /* \"#utility.yul\":10139:10206   */\n      tag_221\n        /* \"#utility.yul\":10199:10205   */\n      dup3\n        /* \"#utility.yul\":10191:10197   */\n      dup3\n        /* \"#utility.yul\":10185:10189   */\n      dup6\n        /* \"#utility.yul\":10139:10206   */\n      tag_98\n      jump\t// in\n    tag_221:\n        /* \"#utility.yul\":10233:10234   */\n      0x00\n        /* \"#utility.yul\":10257:10261   */\n      0x20\n        /* \"#utility.yul\":10244:10261   */\n      swap1\n      pop\n        /* \"#utility.yul\":10289:10291   */\n      0x1f\n        /* \"#utility.yul\":10281:10287   */\n      dup4\n        /* \"#utility.yul\":10278:10292   */\n      gt\n        /* \"#utility.yul\":10306:10307   */\n      0x01\n        /* \"#utility.yul\":10301:10919   */\n      dup2\n      eq\n      tag_223\n      jumpi\n        /* \"#utility.yul\":10963:10964   */\n      0x00\n        /* \"#utility.yul\":10980:10986   */\n      dup5\n        /* \"#utility.yul\":10977:11054   */\n      iszero\n      tag_224\n      jumpi\n        /* \"#utility.yul\":11029:11038   */\n      dup3\n        /* \"#utility.yul\":11024:11027   */\n      dup8\n        /* \"#utility.yul\":11020:11039   */\n      add\n        /* \"#utility.yul\":11014:11040   */\n      mload\n        /* \"#utility.yul\":11005:11040   */\n      swap1\n      pop\n        /* \"#utility.yul\":10977:11054   */\n    tag_224:\n        /* \"#utility.yul\":11080:11147   */\n      tag_225\n        /* \"#utility.yul\":11140:11146   */\n      dup6\n        /* \"#utility.yul\":11133:11138   */\n      dup3\n        /* \"#utility.yul\":11080:11147   */\n      tag_101\n      jump\t// in\n    tag_225:\n        /* \"#utility.yul\":11074:11078   */\n      dup7\n        /* \"#utility.yul\":11067:11148   */\n      sstore\n        /* \"#utility.yul\":10936:11158   */\n      pop\n        /* \"#utility.yul\":10271:11158   */\n      jump(tag_222)\n        /* \"#utility.yul\":10301:10919   */\n    tag_223:\n        /* \"#utility.yul\":10353:10357   */\n      0x1f\n        /* \"#utility.yul\":10349:10358   */\n      not\n        /* \"#utility.yul\":10341:10347   */\n      dup5\n        /* \"#utility.yul\":10337:10359   */\n      and\n        /* \"#utility.yul\":10387:10424   */\n      tag_226\n        /* \"#utility.yul\":10419:10423   */\n      dup7\n        /* \"#utility.yul\":10387:10424   */\n      tag_87\n      jump\t// in\n    tag_226:\n        /* \"#utility.yul\":10446:10447   */\n      0x00\n        /* \"#utility.yul\":10460:10668   */\n    tag_227:\n        /* \"#utility.yul\":10474:10481   */\n      dup3\n        /* \"#utility.yul\":10471:10472   */\n      dup2\n        /* \"#utility.yul\":10468:10482   */\n      lt\n        /* \"#utility.yul\":10460:10668   */\n      iszero\n      tag_229\n      jumpi\n        /* \"#utility.yul\":10553:10562   */\n      dup5\n        /* \"#utility.yul\":10548:10551   */\n      dup10\n        /* \"#utility.yul\":10544:10563   */\n      add\n        /* \"#utility.yul\":10538:10564   */\n      mload\n        /* \"#utility.yul\":10530:10536   */\n      dup3\n        /* \"#utility.yul\":10523:10565   */\n      sstore\n        /* \"#utility.yul\":10604:10605   */\n      0x01\n        /* \"#utility.yul\":10596:10602   */\n      dup3\n        /* \"#utility.yul\":10592:10606   */\n      add\n        /* \"#utility.yul\":10582:10606   */\n      swap2\n      pop\n        /* \"#utility.yul\":10651:10653   */\n      0x20\n        /* \"#utility.yul\":10640:10649   */\n      dup6\n        /* \"#utility.yul\":10636:10654   */\n      add\n        /* \"#utility.yul\":10623:10654   */\n      swap5\n      pop\n        /* \"#utility.yul\":10497:10501   */\n      0x20\n        /* \"#utility.yul\":10494:10495   */\n      dup2\n        /* \"#utility.yul\":10490:10502   */\n      add\n        /* \"#utility.yul\":10485:10502   */\n      swap1\n      pop\n        /* \"#utility.yul\":10460:10668   */\n      jump(tag_227)\n    tag_229:\n        /* \"#utility.yul\":10696:10702   */\n      dup7\n        /* \"#utility.yul\":10687:10694   */\n      dup4\n        /* \"#utility.yul\":10684:10703   */\n      lt\n        /* \"#utility.yul\":10681:10860   */\n      iszero\n      tag_230\n      jumpi\n        /* \"#utility.yul\":10754:10763   */\n      dup5\n        /* \"#utility.yul\":10749:10752   */\n      dup10\n        /* \"#utility.yul\":10745:10764   */\n      add\n        /* \"#utility.yul\":10739:10765   */\n      mload\n        /* \"#utility.yul\":10797:10845   */\n      tag_231\n        /* \"#utility.yul\":10839:10843   */\n      0x1f\n        /* \"#utility.yul\":10831:10837   */\n      dup10\n        /* \"#utility.yul\":10827:10844   */\n      and\n        /* \"#utility.yul\":10816:10825   */\n      dup3\n        /* \"#utility.yul\":10797:10845   */\n      tag_100\n      jump\t// in\n    tag_231:\n        /* \"#utility.yul\":10789:10795   */\n      dup4\n        /* \"#utility.yul\":10782:10846   */\n      sstore\n        /* \"#utility.yul\":10704:10860   */\n      pop\n        /* \"#utility.yul\":10681:10860   */\n    tag_230:\n        /* \"#utility.yul\":10906:10907   */\n      0x01\n        /* \"#utility.yul\":10902:10903   */\n      0x02\n        /* \"#utility.yul\":10894:10900   */\n      dup9\n        /* \"#utility.yul\":10890:10904   */\n      mul\n        /* \"#utility.yul\":10886:10908   */\n      add\n        /* \"#utility.yul\":10880:10884   */\n      dup9\n        /* \"#utility.yul\":10873:10909   */\n      sstore\n        /* \"#utility.yul\":10308:10919   */\n      pop\n      pop\n      pop\n        /* \"#utility.yul\":10271:11158   */\n    tag_222:\n      pop\n        /* \"#utility.yul\":9861:11164   */\n      pop\n      pop\n      pop\n        /* \"#utility.yul\":9769:11164   */\n      pop\n      pop\n      jump\t// out\n\n    auxdata: 0xa26469706673582212204a40e82197d7bf723214352bb424939b47f89b5ae6c3f14acb734e27920b5ad264736f6c63430008120033\n}\n",
				"bytecode": {
					"linkReferences": {},
					"object": "60806040526103e86000556040518060400160405280600981526020017f48692074686572652100000000000000000000000000000000000000000000008152506001908162000050919062000326565b506040518060400160405280600e81526020017f4372617a792074696d65732e2e2e0000000000000000000000000000000000008152506002908162000097919062000472565b50348015620000a557600080fd5b5062000559565b600081519050919050565b7f4e487b7100000000000000000000000000000000000000000000000000000000600052604160045260246000fd5b7f4e487b7100000000000000000000000000000000000000000000000000000000600052602260045260246000fd5b600060028204905060018216806200012e57607f821691505b602082108103620001445762000143620000e6565b5b50919050565b60008190508160005260206000209050919050565b60006020601f8301049050919050565b600082821b905092915050565b600060088302620001ae7fffffffffffffffffffffffffffffffffffffffffffffffffffffffffffffffff826200016f565b620001ba86836200016f565b95508019841693508086168417925050509392505050565b6000819050919050565b6000819050919050565b60006200020762000201620001fb84620001d2565b620001dc565b620001d2565b9050919050565b6000819050919050565b6200022383620001e6565b6200023b62000232826200020e565b8484546200017c565b825550505050565b600090565b6200025262000243565b6200025f81848462000218565b505050565b5b8181101562000287576200027b60008262000248565b60018101905062000265565b5050565b601f821115620002d657620002a0816200014a565b620002ab846200015f565b81016020851015620002bb578190505b620002d3620002ca856200015f565b83018262000264565b50505b505050565b600082821c905092915050565b6000620002fb60001984600802620002db565b1980831691505092915050565b6000620003168383620002e8565b9150826002028217905092915050565b6200033182620000ac565b67ffffffffffffffff8111156200034d576200034c620000b7565b5b62000359825462000115565b620003668282856200028b565b600060209050601f8311600181146200039e576000841562000389578287015190505b62000395858262000308565b86555062000405565b601f198416620003ae866200014a565b60005b82811015620003d857848901518255600182019150602085019450602081019050620003b1565b86831015620003f85784890151620003f4601f891682620002e8565b8355505b6001600288020188555050505b505050505050565b60008190508160005260206000209050919050565b601f8211156200046d5762000437816200040d565b62000442846200015f565b8101602085101562000452578190505b6200046a62000461856200015f565b83018262000264565b50505b505050565b6200047d82620000ac565b67ffffffffffffffff811115620004995762000498620000b7565b5b620004a5825462000115565b620004b282828562000422565b600060209050601f831160018114620004ea5760008415620004d5578287015190505b620004e1858262000308565b86555062000551565b601f198416620004fa866200040d565b60005b828110156200052457848901518255600182019150602085019450602081019050620004fd565b8683101562000544578489015162000540601f891682620002e8565b8355505b6001600288020188555050505b505050505050565b6109d580620005696000396000f3fe608060405234801561001057600080fd5b506004361061007d5760003560e01c80632b2654a31161005b5780632b2654a3146100ec5780639c38f90014610108578063e7a96f6d14610126578063fc668876146101445761007d565b806303a1777f1461008257806307ca24421461009e578063112fd29e146100ce575b600080fd5b61009c600480360381019061009791906104d3565b610162565b005b6100b860048036038101906100b39190610552565b610175565b6040516100c5919061058e565b60405180910390f35b6100d6610199565b6040516100e3919061058e565b60405180910390f35b61010660048036038101906101019190610552565b61019f565b005b6101106101cb565b60405161011d9190610628565b60405180910390f35b61012e610259565b60405161013b919061069f565b60405180910390f35b61014c6102e7565b604051610159919061069f565b60405180910390f35b806001908161017191906108cd565b5050565b6003818154811061018557600080fd5b906000526020600020016000915090505481565b60005481565b600381908060018154018082558091505060019003906000526020600020016000909190919091505550565b600280546101d8906106f0565b80601f0160208091040260200160405190810160405280929190818152602001828054610204906106f0565b80156102515780601f1061022657610100808354040283529160200191610251565b820191906000526020600020905b81548152906001019060200180831161023457829003601f168201915b505050505081565b60018054610266906106f0565b80601f0160208091040260200160405190810160405280929190818152602001828054610292906106f0565b80156102df5780601f106102b4576101008083540402835291602001916102df565b820191906000526020600020905b8154815290600101906020018083116102c257829003601f168201915b505050505081565b6060600280546102f6906106f0565b80601f0160208091040260200160405190810160405280929190818152602001828054610322906106f0565b801561036f5780601f106103445761010080835404028352916020019161036f565b820191906000526020600020905b81548152906001019060200180831161035257829003601f168201915b5050505050905090565b6000604051905090565b600080fd5b600080fd5b600080fd5b600080fd5b6000601f19601f8301169050919050565b7f4e487b7100000000000000000000000000000000000000000000000000000000600052604160045260246000fd5b6103e082610397565b810181811067ffffffffffffffff821117156103ff576103fe6103a8565b5b80604052505050565b6000610412610379565b905061041e82826103d7565b919050565b600067ffffffffffffffff82111561043e5761043d6103a8565b5b61044782610397565b9050602081019050919050565b82818337600083830152505050565b600061047661047184610423565b610408565b90508281526020810184848401111561049257610491610392565b5b61049d848285610454565b509392505050565b600082601f8301126104ba576104b961038d565b5b81356104ca848260208601610463565b91505092915050565b6000602082840312156104e9576104e8610383565b5b600082013567ffffffffffffffff81111561050757610506610388565b5b610513848285016104a5565b91505092915050565b6000819050919050565b61052f8161051c565b811461053a57600080fd5b50565b60008135905061054c81610526565b92915050565b60006020828403121561056857610567610383565b5b60006105768482850161053d565b91505092915050565b6105888161051c565b82525050565b60006020820190506105a3600083018461057f565b92915050565b600081519050919050565b600082825260208201905092915050565b60005b838110156105e35780820151818401526020810190506105c8565b60008484015250505050565b60006105fa826105a9565b61060481856105b4565b93506106148185602086016105c5565b61061d81610397565b840191505092915050565b6000602082019050818103600083015261064281846105ef565b905092915050565b600081519050919050565b600082825260208201905092915050565b60006106718261064a565b61067b8185610655565b935061068b8185602086016105c5565b61069481610397565b840191505092915050565b600060208201905081810360008301526106b98184610666565b905092915050565b7f4e487b7100000000000000000000000000000000000000000000000000000000600052602260045260246000fd5b6000600282049050600182168061070857607f821691505b60208210810361071b5761071a6106c1565b5b50919050565b60008190508160005260206000209050919050565b60006020601f8301049050919050565b600082821b905092915050565b6000600883026107837fffffffffffffffffffffffffffffffffffffffffffffffffffffffffffffffff82610746565b61078d8683610746565b95508019841693508086168417925050509392505050565b6000819050919050565b60006107ca6107c56107c08461051c565b6107a5565b61051c565b9050919050565b6000819050919050565b6107e4836107af565b6107f86107f0826107d1565b848454610753565b825550505050565b600090565b61080d610800565b6108188184846107db565b505050565b5b8181101561083c57610831600082610805565b60018101905061081e565b5050565b601f8211156108815761085281610721565b61085b84610736565b8101602085101561086a578190505b61087e61087685610736565b83018261081d565b50505b505050565b600082821c905092915050565b60006108a460001984600802610886565b1980831691505092915050565b60006108bd8383610893565b9150826002028217905092915050565b6108d68261064a565b67ffffffffffffffff8111156108ef576108ee6103a8565b5b6108f982546106f0565b610904828285610840565b600060209050601f8311600181146109375760008415610925578287015190505b61092f85826108b1565b865550610997565b601f19841661094586610721565b60005b8281101561096d57848901518255600182019150602085019450602081019050610948565b8683101561098a5784890151610986601f891682610893565b8355505b6001600288020188555050505b50505050505056fea26469706673582212204a40e82197d7bf723214352bb424939b47f89b5ae6c3f14acb734e27920b5ad264736f6c63430008120033",
					"opcodes": "PUSH1 0x80 PUSH1 0x40 MSTORE PUSH2 0x3E8 PUSH1 0x0 SSTORE PUSH1 0x40 MLOAD DUP1 PUSH1 0x40 ADD PUSH1 0x40 MSTORE DUP1 PUSH1 0x9 DUP2 MSTORE PUSH1 0x20 ADD PUSH32 0x4869207468657265210000000000000000000000000000000000000000000000 DUP2 MSTORE POP PUSH1 0x1 SWAP1 DUP2 PUSH3 0x50 SWAP2 SWAP1 PUSH3 0x326 JUMP JUMPDEST POP PUSH1 0x40 MLOAD DUP1 PUSH1 0x40 ADD PUSH1 0x40 MSTORE DUP1 PUSH1 0xE DUP2 MSTORE PUSH1 0x20 ADD PUSH32 0x4372617A792074696D65732E2E2E000000000000000000000000000000000000 DUP2 MSTORE POP PUSH1 0x2 SWAP1 DUP2 PUSH3 0x97 SWAP2 SWAP1 PUSH3 0x472 JUMP JUMPDEST POP CALLVALUE DUP1 ISZERO PUSH3 0xA5 JUMPI PUSH1 0x0 DUP1 REVERT JUMPDEST POP PUSH3 0x559 JUMP JUMPDEST PUSH1 0x0 DUP2 MLOAD SWAP1 POP SWAP2 SWAP1 POP JUMP JUMPDEST PUSH32 0x4E487B7100000000000000000000000000000000000000000000000000000000 PUSH1 0x0 MSTORE PUSH1 0x41 PUSH1 0x4 MSTORE PUSH1 0x24 PUSH1 0x0 REVERT JUMPDEST PUSH32 0x4E487B7100000000000000000000000000000000000000000000000000000000 PUSH1 0x0 MSTORE PUSH1 0x22 PUSH1 0x4 MSTORE PUSH1 0x24 PUSH1 0x0 REVERT JUMPDEST PUSH1 0x0 PUSH1 0x2 DUP3 DIV SWAP1 POP PUSH1 0x1 DUP3 AND DUP1 PUSH3 0x12E JUMPI PUSH1 0x7F DUP3 AND SWAP2 POP JUMPDEST PUSH1 0x20 DUP3 LT DUP2 SUB PUSH3 0x144 JUMPI PUSH3 0x143 PUSH3 0xE6 JUMP JUMPDEST JUMPDEST POP SWAP2 SWAP1 POP JUMP JUMPDEST PUSH1 0x0 DUP2 SWAP1 POP DUP2 PUSH1 0x0 MSTORE PUSH1 0x20 PUSH1 0x0 KECCAK256 SWAP1 POP SWAP2 SWAP1 POP JUMP JUMPDEST PUSH1 0x0 PUSH1 0x20 PUSH1 0x1F DUP4 ADD DIV SWAP1 POP SWAP2 SWAP1 POP JUMP JUMPDEST PUSH1 0x0 DUP3 DUP3 SHL SWAP1 POP SWAP3 SWAP2 POP POP JUMP JUMPDEST PUSH1 0x0 PUSH1 0x8 DUP4 MUL PUSH3 0x1AE PUSH32 0xFFFFFFFFFFFFFFFFFFFFFFFFFFFFFFFFFFFFFFFFFFFFFFFFFFFFFFFFFFFFFFFF DUP3 PUSH3 0x16F JUMP JUMPDEST PUSH3 0x1BA DUP7 DUP4 PUSH3 0x16F JUMP JUMPDEST SWAP6 POP DUP1 NOT DUP5 AND SWAP4 POP DUP1 DUP7 AND DUP5 OR SWAP3 POP POP POP SWAP4 SWAP3 POP POP POP JUMP JUMPDEST PUSH1 0x0 DUP2 SWAP1 POP SWAP2 SWAP1 POP JUMP JUMPDEST PUSH1 0x0 DUP2 SWAP1 POP SWAP2 SWAP1 POP JUMP JUMPDEST PUSH1 0x0 PUSH3 0x207 PUSH3 0x201 PUSH3 0x1FB DUP5 PUSH3 0x1D2 JUMP JUMPDEST PUSH3 0x1DC JUMP JUMPDEST PUSH3 0x1D2 JUMP JUMPDEST SWAP1 POP SWAP2 SWAP1 POP JUMP JUMPDEST PUSH1 0x0 DUP2 SWAP1 POP SWAP2 SWAP1 POP JUMP JUMPDEST PUSH3 0x223 DUP4 PUSH3 0x1E6 JUMP JUMPDEST PUSH3 0x23B PUSH3 0x232 DUP3 PUSH3 0x20E JUMP JUMPDEST DUP5 DUP5 SLOAD PUSH3 0x17C JUMP JUMPDEST DUP3 SSTORE POP POP POP POP JUMP JUMPDEST PUSH1 0x0 SWAP1 JUMP JUMPDEST PUSH3 0x252 PUSH3 0x243 JUMP JUMPDEST PUSH3 0x25F DUP2 DUP5 DUP5 PUSH3 0x218 JUMP JUMPDEST POP POP POP JUMP JUMPDEST JUMPDEST DUP2 DUP2 LT ISZERO PUSH3 0x287 JUMPI PUSH3 0x27B PUSH1 0x0 DUP3 PUSH3 0x248 JUMP JUMPDEST PUSH1 0x1 DUP2 ADD SWAP1 POP PUSH3 0x265 JUMP JUMPDEST POP POP JUMP JUMPDEST PUSH1 0x1F DUP3 GT ISZERO PUSH3 0x2D6 JUMPI PUSH3 0x2A0 DUP2 PUSH3 0x14A JUMP JUMPDEST PUSH3 0x2AB DUP5 PUSH3 0x15F JUMP JUMPDEST DUP2 ADD PUSH1 0x20 DUP6 LT ISZERO PUSH3 0x2BB JUMPI DUP2 SWAP1 POP JUMPDEST PUSH3 0x2D3 PUSH3 0x2CA DUP6 PUSH3 0x15F JUMP JUMPDEST DUP4 ADD DUP3 PUSH3 0x264 JUMP JUMPDEST POP POP JUMPDEST POP POP POP JUMP JUMPDEST PUSH1 0x0 DUP3 DUP3 SHR SWAP1 POP SWAP3 SWAP2 POP POP JUMP JUMPDEST PUSH1 0x0 PUSH3 0x2FB PUSH1 0x0 NOT DUP5 PUSH1 0x8 MUL PUSH3 0x2DB JUMP JUMPDEST NOT DUP1 DUP4 AND SWAP2 POP POP SWAP3 SWAP2 POP POP JUMP JUMPDEST PUSH1 0x0 PUSH3 0x316 DUP4 DUP4 PUSH3 0x2E8 JUMP JUMPDEST SWAP2 POP DUP3 PUSH1 0x2 MUL DUP3 OR SWAP1 POP SWAP3 SWAP2 POP POP JUMP JUMPDEST PUSH3 0x331 DUP3 PUSH3 0xAC JUMP JUMPDEST PUSH8 0xFFFFFFFFFFFFFFFF DUP2 GT ISZERO PUSH3 0x34D JUMPI PUSH3 0x34C PUSH3 0xB7 JUMP JUMPDEST JUMPDEST PUSH3 0x359 DUP3 SLOAD PUSH3 0x115 JUMP JUMPDEST PUSH3 0x366 DUP3 DUP3 DUP6 PUSH3 0x28B JUMP JUMPDEST PUSH1 0x0 PUSH1 0x20 SWAP1 POP PUSH1 0x1F DUP4 GT PUSH1 0x1 DUP2 EQ PUSH3 0x39E JUMPI PUSH1 0x0 DUP5 ISZERO PUSH3 0x389 JUMPI DUP3 DUP8 ADD MLOAD SWAP1 POP JUMPDEST PUSH3 0x395 DUP6 DUP3 PUSH3 0x308 JUMP JUMPDEST DUP7 SSTORE POP PUSH3 0x405 JUMP JUMPDEST PUSH1 0x1F NOT DUP5 AND PUSH3 0x3AE DUP7 PUSH3 0x14A JUMP JUMPDEST PUSH1 0x0 JUMPDEST DUP3 DUP2 LT ISZERO PUSH3 0x3D8 JUMPI DUP5 DUP10 ADD MLOAD DUP3 SSTORE PUSH1 0x1 DUP3 ADD SWAP2 POP PUSH1 0x20 DUP6 ADD SWAP5 POP PUSH1 0x20 DUP2 ADD SWAP1 POP PUSH3 0x3B1 JUMP JUMPDEST DUP7 DUP4 LT ISZERO PUSH3 0x3F8 JUMPI DUP5 DUP10 ADD MLOAD PUSH3 0x3F4 PUSH1 0x1F DUP10 AND DUP3 PUSH3 0x2E8 JUMP JUMPDEST DUP4 SSTORE POP JUMPDEST PUSH1 0x1 PUSH1 0x2 DUP9 MUL ADD DUP9 SSTORE POP POP POP JUMPDEST POP POP POP POP POP POP JUMP JUMPDEST PUSH1 0x0 DUP2 SWAP1 POP DUP2 PUSH1 0x0 MSTORE PUSH1 0x20 PUSH1 0x0 KECCAK256 SWAP1 POP SWAP2 SWAP1 POP JUMP JUMPDEST PUSH1 0x1F DUP3 GT ISZERO PUSH3 0x46D JUMPI PUSH3 0x437 DUP2 PUSH3 0x40D JUMP JUMPDEST PUSH3 0x442 DUP5 PUSH3 0x15F JUMP JUMPDEST DUP2 ADD PUSH1 0x20 DUP6 LT ISZERO PUSH3 0x452 JUMPI DUP2 SWAP1 POP JUMPDEST PUSH3 0x46A PUSH3 0x461 DUP6 PUSH3 0x15F JUMP JUMPDEST DUP4 ADD DUP3 PUSH3 0x264 JUMP JUMPDEST POP POP JUMPDEST POP POP POP JUMP JUMPDEST PUSH3 0x47D DUP3 PUSH3 0xAC JUMP JUMPDEST PUSH8 0xFFFFFFFFFFFFFFFF DUP2 GT ISZERO PUSH3 0x499 JUMPI PUSH3 0x498 PUSH3 0xB7 JUMP JUMPDEST JUMPDEST PUSH3 0x4A5 DUP3 SLOAD PUSH3 0x115 JUMP JUMPDEST PUSH3 0x4B2 DUP3 DUP3 DUP6 PUSH3 0x422 JUMP JUMPDEST PUSH1 0x0 PUSH1 0x20 SWAP1 POP PUSH1 0x1F DUP4 GT PUSH1 0x1 DUP2 EQ PUSH3 0x4EA JUMPI PUSH1 0x0 DUP5 ISZERO PUSH3 0x4D5 JUMPI DUP3 DUP8 ADD MLOAD SWAP1 POP JUMPDEST PUSH3 0x4E1 DUP6 DUP3 PUSH3 0x308 JUMP JUMPDEST DUP7 SSTORE POP PUSH3 0x551 JUMP JUMPDEST PUSH1 0x1F NOT DUP5 AND PUSH3 0x4FA DUP7 PUSH3 0x40D JUMP JUMPDEST PUSH1 0x0 JUMPDEST DUP3 DUP2 LT ISZERO PUSH3 0x524 JUMPI DUP5 DUP10 ADD MLOAD DUP3 SSTORE PUSH1 0x1 DUP3 ADD SWAP2 POP PUSH1 0x20 DUP6 ADD SWAP5 POP PUSH1 0x20 DUP2 ADD SWAP1 POP PUSH3 0x4FD JUMP JUMPDEST DUP7 DUP4 LT ISZERO PUSH3 0x544 JUMPI DUP5 DUP10 ADD MLOAD PUSH3 0x540 PUSH1 0x1F DUP10 AND DUP3 PUSH3 0x2E8 JUMP JUMPDEST DUP4 SSTORE POP JUMPDEST PUSH1 0x1 PUSH1 0x2 DUP9 MUL ADD DUP9 SSTORE POP POP POP JUMPDEST POP POP POP POP POP POP JUMP JUMPDEST PUSH2 0x9D5 DUP1 PUSH3 0x569 PUSH1 0x0 CODECOPY PUSH1 0x0 RETURN INVALID PUSH1 0x80 PUSH1 0x40 MSTORE CALLVALUE DUP1 ISZERO PUSH2 0x10 JUMPI PUSH1 0x0 DUP1 REVERT JUMPDEST POP PUSH1 0x4 CALLDATASIZE LT PUSH2 0x7D JUMPI PUSH1 0x0 CALLDATALOAD PUSH1 0xE0 SHR DUP1 PUSH4 0x2B2654A3 GT PUSH2 0x5B JUMPI DUP1 PUSH4 0x2B2654A3 EQ PUSH2 0xEC JUMPI DUP1 PUSH4 0x9C38F900 EQ PUSH2 0x108 JUMPI DUP1 PUSH4 0xE7A96F6D EQ PUSH2 0x126 JUMPI DUP1 PUSH4 0xFC668876 EQ PUSH2 0x144 JUMPI PUSH2 0x7D JUMP JUMPDEST DUP1 PUSH4 0x3A1777F EQ PUSH2 0x82 JUMPI DUP1 PUSH4 0x7CA2442 EQ PUSH2 0x9E JUMPI DUP1 PUSH4 0x112FD29E EQ PUSH2 0xCE JUMPI JUMPDEST PUSH1 0x0 DUP1 REVERT JUMPDEST PUSH2 0x9C PUSH1 0x4 DUP1 CALLDATASIZE SUB DUP2 ADD SWAP1 PUSH2 0x97 SWAP2 SWAP1 PUSH2 0x4D3 JUMP JUMPDEST PUSH2 0x162 JUMP JUMPDEST STOP JUMPDEST PUSH2 0xB8 PUSH1 0x4 DUP1 CALLDATASIZE SUB DUP2 ADD SWAP1 PUSH2 0xB3 SWAP2 SWAP1 PUSH2 0x552 JUMP JUMPDEST PUSH2 0x175 JUMP JUMPDEST PUSH1 0x40 MLOAD PUSH2 0xC5 SWAP2 SWAP1 PUSH2 0x58E JUMP JUMPDEST PUSH1 0x40 MLOAD DUP1 SWAP2 SUB SWAP1 RETURN JUMPDEST PUSH2 0xD6 PUSH2 0x199 JUMP JUMPDEST PUSH1 0x40 MLOAD PUSH2 0xE3 SWAP2 SWAP1 PUSH2 0x58E JUMP JUMPDEST PUSH1 0x40 MLOAD DUP1 SWAP2 SUB SWAP1 RETURN JUMPDEST PUSH2 0x106 PUSH1 0x4 DUP1 CALLDATASIZE SUB DUP2 ADD SWAP1 PUSH2 0x101 SWAP2 SWAP1 PUSH2 0x552 JUMP JUMPDEST PUSH2 0x19F JUMP JUMPDEST STOP JUMPDEST PUSH2 0x110 PUSH2 0x1CB JUMP JUMPDEST PUSH1 0x40 MLOAD PUSH2 0x11D SWAP2 SWAP1 PUSH2 0x628 JUMP JUMPDEST PUSH1 0x40 MLOAD DUP1 SWAP2 SUB SWAP1 RETURN JUMPDEST PUSH2 0x12E PUSH2 0x259 JUMP JUMPDEST PUSH1 0x40 MLOAD PUSH2 0x13B SWAP2 SWAP1 PUSH2 0x69F JUMP JUMPDEST PUSH1 0x40 MLOAD DUP1 SWAP2 SUB SWAP1 RETURN JUMPDEST PUSH2 0x14C PUSH2 0x2E7 JUMP JUMPDEST PUSH1 0x40 MLOAD PUSH2 0x159 SWAP2 SWAP1 PUSH2 0x69F JUMP JUMPDEST PUSH1 0x40 MLOAD DUP1 SWAP2 SUB SWAP1 RETURN JUMPDEST DUP1 PUSH1 0x1 SWAP1 DUP2 PUSH2 0x171 SWAP2 SWAP1 PUSH2 0x8CD JUMP JUMPDEST POP POP JUMP JUMPDEST PUSH1 0x3 DUP2 DUP2 SLOAD DUP2 LT PUSH2 0x185 JUMPI PUSH1 0x0 DUP1 REVERT JUMPDEST SWAP1 PUSH1 0x0 MSTORE PUSH1 0x20 PUSH1 0x0 KECCAK256 ADD PUSH1 0x0 SWAP2 POP SWAP1 POP SLOAD DUP2 JUMP JUMPDEST PUSH1 0x0 SLOAD DUP2 JUMP JUMPDEST PUSH1 0x3 DUP2 SWAP1 DUP1 PUSH1 0x1 DUP2 SLOAD ADD DUP1 DUP3 SSTORE DUP1 SWAP2 POP POP PUSH1 0x1 SWAP1 SUB SWAP1 PUSH1 0x0 MSTORE PUSH1 0x20 PUSH1 0x0 KECCAK256 ADD PUSH1 0x0 SWAP1 SWAP2 SWAP1 SWAP2 SWAP1 SWAP2 POP SSTORE POP JUMP JUMPDEST PUSH1 0x2 DUP1 SLOAD PUSH2 0x1D8 SWAP1 PUSH2 0x6F0 JUMP JUMPDEST DUP1 PUSH1 0x1F ADD PUSH1 0x20 DUP1 SWAP2 DIV MUL PUSH1 0x20 ADD PUSH1 0x40 MLOAD SWAP1 DUP2 ADD PUSH1 0x40 MSTORE DUP1 SWAP3 SWAP2 SWAP1 DUP2 DUP2 MSTORE PUSH1 0x20 ADD DUP3 DUP1 SLOAD PUSH2 0x204 SWAP1 PUSH2 0x6F0 JUMP JUMPDEST DUP1 ISZERO PUSH2 0x251 JUMPI DUP1 PUSH1 0x1F LT PUSH2 0x226 JUMPI PUSH2 0x100 DUP1 DUP4 SLOAD DIV MUL DUP4 MSTORE SWAP2 PUSH1 0x20 ADD SWAP2 PUSH2 0x251 JUMP JUMPDEST DUP3 ADD SWAP2 SWAP1 PUSH1 0x0 MSTORE PUSH1 0x20 PUSH1 0x0 KECCAK256 SWAP1 JUMPDEST DUP2 SLOAD DUP2 MSTORE SWAP1 PUSH1 0x1 ADD SWAP1 PUSH1 0x20 ADD DUP1 DUP4 GT PUSH2 0x234 JUMPI DUP3 SWAP1 SUB PUSH1 0x1F AND DUP3 ADD SWAP2 JUMPDEST POP POP POP POP POP DUP2 JUMP JUMPDEST PUSH1 0x1 DUP1 SLOAD PUSH2 0x266 SWAP1 PUSH2 0x6F0 JUMP JUMPDEST DUP1 PUSH1 0x1F ADD PUSH1 0x20 DUP1 SWAP2 DIV MUL PUSH1 0x20 ADD PUSH1 0x40 MLOAD SWAP1 DUP2 ADD PUSH1 0x40 MSTORE DUP1 SWAP3 SWAP2 SWAP1 DUP2 DUP2 MSTORE PUSH1 0x20 ADD DUP3 DUP1 SLOAD PUSH2 0x292 SWAP1 PUSH2 0x6F0 JUMP JUMPDEST DUP1 ISZERO PUSH2 0x2DF JUMPI DUP1 PUSH1 0x1F LT PUSH2 0x2B4 JUMPI PUSH2 0x100 DUP1 DUP4 SLOAD DIV MUL DUP4 MSTORE SWAP2 PUSH1 0x20 ADD SWAP2 PUSH2 0x2DF JUMP JUMPDEST DUP3 ADD SWAP2 SWAP1 PUSH1 0x0 MSTORE PUSH1 0x20 PUSH1 0x0 KECCAK256 SWAP1 JUMPDEST DUP2 SLOAD DUP2 MSTORE SWAP1 PUSH1 0x1 ADD SWAP1 PUSH1 0x20 ADD DUP1 DUP4 GT PUSH2 0x2C2 JUMPI DUP3 SWAP1 SUB PUSH1 0x1F AND DUP3 ADD SWAP2 JUMPDEST POP POP POP POP POP DUP2 JUMP JUMPDEST PUSH1 0x60 PUSH1 0x2 DUP1 SLOAD PUSH2 0x2F6 SWAP1 PUSH2 0x6F0 JUMP JUMPDEST DUP1 PUSH1 0x1F ADD PUSH1 0x20 DUP1 SWAP2 DIV MUL PUSH1 0x20 ADD PUSH1 0x40 MLOAD SWAP1 DUP2 ADD PUSH1 0x40 MSTORE DUP1 SWAP3 SWAP2 SWAP1 DUP2 DUP2 MSTORE PUSH1 0x20 ADD DUP3 DUP1 SLOAD PUSH2 0x322 SWAP1 PUSH2 0x6F0 JUMP JUMPDEST DUP1 ISZERO PUSH2 0x36F JUMPI DUP1 PUSH1 0x1F LT PUSH2 0x344 JUMPI PUSH2 0x100 DUP1 DUP4 SLOAD DIV MUL DUP4 MSTORE SWAP2 PUSH1 0x20 ADD SWAP2 PUSH2 0x36F JUMP JUMPDEST DUP3 ADD SWAP2 SWAP1 PUSH1 0x0 MSTORE PUSH1 0x20 PUSH1 0x0 KECCAK256 SWAP1 JUMPDEST DUP2 SLOAD DUP2 MSTORE SWAP1 PUSH1 0x1 ADD SWAP1 PUSH1 0x20 ADD DUP1 DUP4 GT PUSH2 0x352 JUMPI DUP3 SWAP1 SUB PUSH1 0x1F AND DUP3 ADD SWAP2 JUMPDEST POP POP POP POP POP SWAP1 POP SWAP1 JUMP JUMPDEST PUSH1 0x0 PUSH1 0x40 MLOAD SWAP1 POP SWAP1 JUMP JUMPDEST PUSH1 0x0 DUP1 REVERT JUMPDEST PUSH1 0x0 DUP1 REVERT JUMPDEST PUSH1 0x0 DUP1 REVERT JUMPDEST PUSH1 0x0 DUP1 REVERT JUMPDEST PUSH1 0x0 PUSH1 0x1F NOT PUSH1 0x1F DUP4 ADD AND SWAP1 POP SWAP2 SWAP1 POP JUMP JUMPDEST PUSH32 0x4E487B7100000000000000000000000000000000000000000000000000000000 PUSH1 0x0 MSTORE PUSH1 0x41 PUSH1 0x4 MSTORE PUSH1 0x24 PUSH1 0x0 REVERT JUMPDEST PUSH2 0x3E0 DUP3 PUSH2 0x397 JUMP JUMPDEST DUP2 ADD DUP2 DUP2 LT PUSH8 0xFFFFFFFFFFFFFFFF DUP3 GT OR ISZERO PUSH2 0x3FF JUMPI PUSH2 0x3FE PUSH2 0x3A8 JUMP JUMPDEST JUMPDEST DUP1 PUSH1 0x40 MSTORE POP POP POP JUMP JUMPDEST PUSH1 0x0 PUSH2 0x412 PUSH2 0x379 JUMP JUMPDEST SWAP1 POP PUSH2 0x41E DUP3 DUP3 PUSH2 0x3D7 JUMP JUMPDEST SWAP2 SWAP1 POP JUMP JUMPDEST PUSH1 0x0 PUSH8 0xFFFFFFFFFFFFFFFF DUP3 GT ISZERO PUSH2 0x43E JUMPI PUSH2 0x43D PUSH2 0x3A8 JUMP JUMPDEST JUMPDEST PUSH2 0x447 DUP3 PUSH2 0x397 JUMP JUMPDEST SWAP1 POP PUSH1 0x20 DUP2 ADD SWAP1 POP SWAP2 SWAP1 POP JUMP JUMPDEST DUP3 DUP2 DUP4 CALLDATACOPY PUSH1 0x0 DUP4 DUP4 ADD MSTORE POP POP POP JUMP JUMPDEST PUSH1 0x0 PUSH2 0x476 PUSH2 0x471 DUP5 PUSH2 0x423 JUMP JUMPDEST PUSH2 0x408 JUMP JUMPDEST SWAP1 POP DUP3 DUP2 MSTORE PUSH1 0x20 DUP2 ADD DUP5 DUP5 DUP5 ADD GT ISZERO PUSH2 0x492 JUMPI PUSH2 0x491 PUSH2 0x392 JUMP JUMPDEST JUMPDEST PUSH2 0x49D DUP5 DUP3 DUP6 PUSH2 0x454 JUMP JUMPDEST POP SWAP4 SWAP3 POP POP POP JUMP JUMPDEST PUSH1 0x0 DUP3 PUSH1 0x1F DUP4 ADD SLT PUSH2 0x4BA JUMPI PUSH2 0x4B9 PUSH2 0x38D JUMP JUMPDEST JUMPDEST DUP2 CALLDATALOAD PUSH2 0x4CA DUP5 DUP3 PUSH1 0x20 DUP7 ADD PUSH2 0x463 JUMP JUMPDEST SWAP2 POP POP SWAP3 SWAP2 POP POP JUMP JUMPDEST PUSH1 0x0 PUSH1 0x20 DUP3 DUP5 SUB SLT ISZERO PUSH2 0x4E9 JUMPI PUSH2 0x4E8 PUSH2 0x383 JUMP JUMPDEST JUMPDEST PUSH1 0x0 DUP3 ADD CALLDATALOAD PUSH8 0xFFFFFFFFFFFFFFFF DUP2 GT ISZERO PUSH2 0x507 JUMPI PUSH2 0x506 PUSH2 0x388 JUMP JUMPDEST JUMPDEST PUSH2 0x513 DUP5 DUP3 DUP6 ADD PUSH2 0x4A5 JUMP JUMPDEST SWAP2 POP POP SWAP3 SWAP2 POP POP JUMP JUMPDEST PUSH1 0x0 DUP2 SWAP1 POP SWAP2 SWAP1 POP JUMP JUMPDEST PUSH2 0x52F DUP2 PUSH2 0x51C JUMP JUMPDEST DUP2 EQ PUSH2 0x53A JUMPI PUSH1 0x0 DUP1 REVERT JUMPDEST POP JUMP JUMPDEST PUSH1 0x0 DUP2 CALLDATALOAD SWAP1 POP PUSH2 0x54C DUP2 PUSH2 0x526 JUMP JUMPDEST SWAP3 SWAP2 POP POP JUMP JUMPDEST PUSH1 0x0 PUSH1 0x20 DUP3 DUP5 SUB SLT ISZERO PUSH2 0x568 JUMPI PUSH2 0x567 PUSH2 0x383 JUMP JUMPDEST JUMPDEST PUSH1 0x0 PUSH2 0x576 DUP5 DUP3 DUP6 ADD PUSH2 0x53D JUMP JUMPDEST SWAP2 POP POP SWAP3 SWAP2 POP POP JUMP JUMPDEST PUSH2 0x588 DUP2 PUSH2 0x51C JUMP JUMPDEST DUP3 MSTORE POP POP JUMP JUMPDEST PUSH1 0x0 PUSH1 0x20 DUP3 ADD SWAP1 POP PUSH2 0x5A3 PUSH1 0x0 DUP4 ADD DUP5 PUSH2 0x57F JUMP JUMPDEST SWAP3 SWAP2 POP POP JUMP JUMPDEST PUSH1 0x0 DUP2 MLOAD SWAP1 POP SWAP2 SWAP1 POP JUMP JUMPDEST PUSH1 0x0 DUP3 DUP3 MSTORE PUSH1 0x20 DUP3 ADD SWAP1 POP SWAP3 SWAP2 POP POP JUMP JUMPDEST PUSH1 0x0 JUMPDEST DUP4 DUP2 LT ISZERO PUSH2 0x5E3 JUMPI DUP1 DUP3 ADD MLOAD DUP2 DUP5 ADD MSTORE PUSH1 0x20 DUP2 ADD SWAP1 POP PUSH2 0x5C8 JUMP JUMPDEST PUSH1 0x0 DUP5 DUP5 ADD MSTORE POP POP POP POP JUMP JUMPDEST PUSH1 0x0 PUSH2 0x5FA DUP3 PUSH2 0x5A9 JUMP JUMPDEST PUSH2 0x604 DUP2 DUP6 PUSH2 0x5B4 JUMP JUMPDEST SWAP4 POP PUSH2 0x614 DUP2 DUP6 PUSH1 0x20 DUP7 ADD PUSH2 0x5C5 JUMP JUMPDEST PUSH2 0x61D DUP2 PUSH2 0x397 JUMP JUMPDEST DUP5 ADD SWAP2 POP POP SWAP3 SWAP2 POP POP JUMP JUMPDEST PUSH1 0x0 PUSH1 0x20 DUP3 ADD SWAP1 POP DUP2 DUP2 SUB PUSH1 0x0 DUP4 ADD MSTORE PUSH2 0x642 DUP2 DUP5 PUSH2 0x5EF JUMP JUMPDEST SWAP1 POP SWAP3 SWAP2 POP POP JUMP JUMPDEST PUSH1 0x0 DUP2 MLOAD SWAP1 POP SWAP2 SWAP1 POP JUMP JUMPDEST PUSH1 0x0 DUP3 DUP3 MSTORE PUSH1 0x20 DUP3 ADD SWAP1 POP SWAP3 SWAP2 POP POP JUMP JUMPDEST PUSH1 0x0 PUSH2 0x671 DUP3 PUSH2 0x64A JUMP JUMPDEST PUSH2 0x67B DUP2 DUP6 PUSH2 0x655 JUMP JUMPDEST SWAP4 POP PUSH2 0x68B DUP2 DUP6 PUSH1 0x20 DUP7 ADD PUSH2 0x5C5 JUMP JUMPDEST PUSH2 0x694 DUP2 PUSH2 0x397 JUMP JUMPDEST DUP5 ADD SWAP2 POP POP SWAP3 SWAP2 POP POP JUMP JUMPDEST PUSH1 0x0 PUSH1 0x20 DUP3 ADD SWAP1 POP DUP2 DUP2 SUB PUSH1 0x0 DUP4 ADD MSTORE PUSH2 0x6B9 DUP2 DUP5 PUSH2 0x666 JUMP JUMPDEST SWAP1 POP SWAP3 SWAP2 POP POP JUMP JUMPDEST PUSH32 0x4E487B7100000000000000000000000000000000000000000000000000000000 PUSH1 0x0 MSTORE PUSH1 0x22 PUSH1 0x4 MSTORE PUSH1 0x24 PUSH1 0x0 REVERT JUMPDEST PUSH1 0x0 PUSH1 0x2 DUP3 DIV SWAP1 POP PUSH1 0x1 DUP3 AND DUP1 PUSH2 0x708 JUMPI PUSH1 0x7F DUP3 AND SWAP2 POP JUMPDEST PUSH1 0x20 DUP3 LT DUP2 SUB PUSH2 0x71B JUMPI PUSH2 0x71A PUSH2 0x6C1 JUMP JUMPDEST JUMPDEST POP SWAP2 SWAP1 POP JUMP JUMPDEST PUSH1 0x0 DUP2 SWAP1 POP DUP2 PUSH1 0x0 MSTORE PUSH1 0x20 PUSH1 0x0 KECCAK256 SWAP1 POP SWAP2 SWAP1 POP JUMP JUMPDEST PUSH1 0x0 PUSH1 0x20 PUSH1 0x1F DUP4 ADD DIV SWAP1 POP SWAP2 SWAP1 POP JUMP JUMPDEST PUSH1 0x0 DUP3 DUP3 SHL SWAP1 POP SWAP3 SWAP2 POP POP JUMP JUMPDEST PUSH1 0x0 PUSH1 0x8 DUP4 MUL PUSH2 0x783 PUSH32 0xFFFFFFFFFFFFFFFFFFFFFFFFFFFFFFFFFFFFFFFFFFFFFFFFFFFFFFFFFFFFFFFF DUP3 PUSH2 0x746 JUMP JUMPDEST PUSH2 0x78D DUP7 DUP4 PUSH2 0x746 JUMP JUMPDEST SWAP6 POP DUP1 NOT DUP5 AND SWAP4 POP DUP1 DUP7 AND DUP5 OR SWAP3 POP POP POP SWAP4 SWAP3 POP POP POP JUMP JUMPDEST PUSH1 0x0 DUP2 SWAP1 POP SWAP2 SWAP1 POP JUMP JUMPDEST PUSH1 0x0 PUSH2 0x7CA PUSH2 0x7C5 PUSH2 0x7C0 DUP5 PUSH2 0x51C JUMP JUMPDEST PUSH2 0x7A5 JUMP JUMPDEST PUSH2 0x51C JUMP JUMPDEST SWAP1 POP SWAP2 SWAP1 POP JUMP JUMPDEST PUSH1 0x0 DUP2 SWAP1 POP SWAP2 SWAP1 POP JUMP JUMPDEST PUSH2 0x7E4 DUP4 PUSH2 0x7AF JUMP JUMPDEST PUSH2 0x7F8 PUSH2 0x7F0 DUP3 PUSH2 0x7D1 JUMP JUMPDEST DUP5 DUP5 SLOAD PUSH2 0x753 JUMP JUMPDEST DUP3 SSTORE POP POP POP POP JUMP JUMPDEST PUSH1 0x0 SWAP1 JUMP JUMPDEST PUSH2 0x80D PUSH2 0x800 JUMP JUMPDEST PUSH2 0x818 DUP2 DUP5 DUP5 PUSH2 0x7DB JUMP JUMPDEST POP POP POP JUMP JUMPDEST JUMPDEST DUP2 DUP2 LT ISZERO PUSH2 0x83C JUMPI PUSH2 0x831 PUSH1 0x0 DUP3 PUSH2 0x805 JUMP JUMPDEST PUSH1 0x1 DUP2 ADD SWAP1 POP PUSH2 0x81E JUMP JUMPDEST POP POP JUMP JUMPDEST PUSH1 0x1F DUP3 GT ISZERO PUSH2 0x881 JUMPI PUSH2 0x852 DUP2 PUSH2 0x721 JUMP JUMPDEST PUSH2 0x85B DUP5 PUSH2 0x736 JUMP JUMPDEST DUP2 ADD PUSH1 0x20 DUP6 LT ISZERO PUSH2 0x86A JUMPI DUP2 SWAP1 POP JUMPDEST PUSH2 0x87E PUSH2 0x876 DUP6 PUSH2 0x736 JUMP JUMPDEST DUP4 ADD DUP3 PUSH2 0x81D JUMP JUMPDEST POP POP JUMPDEST POP POP POP JUMP JUMPDEST PUSH1 0x0 DUP3 DUP3 SHR SWAP1 POP SWAP3 SWAP2 POP POP JUMP JUMPDEST PUSH1 0x0 PUSH2 0x8A4 PUSH1 0x0 NOT DUP5 PUSH1 0x8 MUL PUSH2 0x886 JUMP JUMPDEST NOT DUP1 DUP4 AND SWAP2 POP POP SWAP3 SWAP2 POP POP JUMP JUMPDEST PUSH1 0x0 PUSH2 0x8BD DUP4 DUP4 PUSH2 0x893 JUMP JUMPDEST SWAP2 POP DUP3 PUSH1 0x2 MUL DUP3 OR SWAP1 POP SWAP3 SWAP2 POP POP JUMP JUMPDEST PUSH2 0x8D6 DUP3 PUSH2 0x64A JUMP JUMPDEST PUSH8 0xFFFFFFFFFFFFFFFF DUP2 GT ISZERO PUSH2 0x8EF JUMPI PUSH2 0x8EE PUSH2 0x3A8 JUMP JUMPDEST JUMPDEST PUSH2 0x8F9 DUP3 SLOAD PUSH2 0x6F0 JUMP JUMPDEST PUSH2 0x904 DUP3 DUP3 DUP6 PUSH2 0x840 JUMP JUMPDEST PUSH1 0x0 PUSH1 0x20 SWAP1 POP PUSH1 0x1F DUP4 GT PUSH1 0x1 DUP2 EQ PUSH2 0x937 JUMPI PUSH1 0x0 DUP5 ISZERO PUSH2 0x925 JUMPI DUP3 DUP8 ADD MLOAD SWAP1 POP JUMPDEST PUSH2 0x92F DUP6 DUP3 PUSH2 0x8B1 JUMP JUMPDEST DUP7 SSTORE POP PUSH2 0x997 JUMP JUMPDEST PUSH1 0x1F NOT DUP5 AND PUSH2 0x945 DUP7 PUSH2 0x721 JUMP JUMPDEST PUSH1 0x0 JUMPDEST DUP3 DUP2 LT ISZERO PUSH2 0x96D JUMPI DUP5 DUP10 ADD MLOAD DUP3 SSTORE PUSH1 0x1 DUP3 ADD SWAP2 POP PUSH1 0x20 DUP6 ADD SWAP5 POP PUSH1 0x20 DUP2 ADD SWAP1 POP PUSH2 0x948 JUMP JUMPDEST DUP7 DUP4 LT ISZERO PUSH2 0x98A JUMPI DUP5 DUP10 ADD MLOAD PUSH2 0x986 PUSH1 0x1F DUP10 AND DUP3 PUSH2 0x893 JUMP JUMPDEST DUP4 SSTORE POP JUMPDEST PUSH1 0x1 PUSH1 0x2 DUP9 MUL ADD DUP9 SSTORE POP POP POP JUMPDEST POP POP POP POP POP POP JUMP INVALID LOG2 PUSH5 0x6970667358 0x22 SLT KECCAK256 0x4A BLOCKHASH 0xE8 0x21 SWAP8 0xD7 0xBF PUSH19 0x3214352BB424939B47F89B5AE6C3F14ACB734E 0x27 SWAP3 SIGNEXTEND GAS 0xD2 PUSH5 0x736F6C6343 STOP ADDMOD SLT STOP CALLER "
				},
				"gasEstimates": {
					"creation": {
						"codeDepositCost": "503400",
						"executionCost": "infinite",
						"totalCost": "infinite"
					},
					"external": {
						"getStringFromBytes()": "infinite",
						"myNumber(uint256)": "infinite",
						"pushToArray(uint256)": "46829",
						"someBytes()": "infinite",
						"someString()": "infinite",
						"unsignedInt()": "2474",
						"updateSomeString(string)": "infinite"
					}
				},
				"methodIdentifiers": {
					"getStringFromBytes()": "fc668876",
					"myNumber(uint256)": "07ca2442",
					"pushToArray(uint256)": "2b2654a3",
					"someBytes()": "9c38f900",
					"someString()": "e7a96f6d",
					"unsignedInt()": "112fd29e",
					"updateSomeString(string)": "03a1777f"
				}
			},
			"storageLayout": {
				"storage": [
					{
						"astId": 4,
						"contract": "stateVariables.sol:stateVariables",
						"label": "unsignedInt",
						"offset": 0,
						"slot": "0",
						"type": "t_uint256"
					},
					{
						"astId": 7,
						"contract": "stateVariables.sol:stateVariables",
						"label": "someString",
						"offset": 0,
						"slot": "1",
						"type": "t_string_storage"
					},
					{
						"astId": 10,
						"contract": "stateVariables.sol:stateVariables",
						"label": "someBytes",
						"offset": 0,
						"slot": "2",
						"type": "t_bytes_storage"
					},
					{
						"astId": 13,
						"contract": "stateVariables.sol:stateVariables",
						"label": "myNumber",
						"offset": 0,
						"slot": "3",
						"type": "t_array(t_uint256)dyn_storage"
					}
				],
				"types": {
					"t_array(t_uint256)dyn_storage": {
						"base": "t_uint256",
						"encoding": "dynamic_array",
						"label": "uint256[]",
						"numberOfBytes": "32"
					},
					"t_bytes_storage": {
						"encoding": "bytes",
						"label": "bytes",
						"numberOfBytes": "32"
					},
					"t_string_storage": {
						"encoding": "bytes",
						"label": "string",
						"numberOfBytes": "32"
					},
					"t_uint256": {
						"encoding": "inplace",
						"label": "uint256",
						"numberOfBytes": "32"
					}
				}
			},
			"userdoc": {
				"kind": "user",
				"methods": {},
				"version": 1
			}
		}
	}
}