{
	"visibility.sol": {
		"Access": {
			"abi": [
				{
					"inputs": [
						{
							"internalType": "address",
							"name": "_contractAddress",
							"type": "address"
						}
					],
					"stateMutability": "nonpayable",
					"type": "constructor"
				},
				{
					"inputs": [],
					"name": "callExternalDabro",
					"outputs": [
						{
							"internalType": "string",
							"name": "",
							"type": "string"
						}
					],
					"stateMutability": "view",
					"type": "function"
				},
				{
					"inputs": [],
					"name": "contractInstance",
					"outputs": [
						{
							"internalType": "contract Visibility",
							"name": "",
							"type": "address"
						}
					],
					"stateMutability": "view",
					"type": "function"
				}
			],
			"devdoc": {
				"kind": "dev",
				"methods": {},
				"version": 1
			},
			"evm": {
				"assembly": "    /* \"visibility.sol\":793:1516  contract Access{... */\n  mstore(0x40, 0x80)\n    /* \"visibility.sol\":858:961  constructor(address _contractAddress){... */\n  callvalue\n  dup1\n  iszero\n  tag_1\n  jumpi\n  0x00\n  dup1\n  revert\ntag_1:\n  pop\n  mload(0x40)\n  sub(codesize, bytecodeSize)\n  dup1\n  bytecodeSize\n  dup4\n  codecopy\n  dup2\n  dup2\n  add\n  0x40\n  mstore\n  dup2\n  add\n  swap1\n  tag_2\n  swap2\n  swap1\n  tag_3\n  jump\t// in\ntag_2:\n    /* \"visibility.sol\":936:952  _contractAddress */\n  dup1\n    /* \"visibility.sol\":906:922  contractInstance */\n  0x00\n  dup1\n    /* \"visibility.sol\":906:953  contractInstance = Visibility(_contractAddress) */\n  0x0100\n  exp\n  dup2\n  sload\n  dup2\n  0xffffffffffffffffffffffffffffffffffffffff\n  mul\n  not\n  and\n  swap1\n  dup4\n  0xffffffffffffffffffffffffffffffffffffffff\n  and\n  mul\n  or\n  swap1\n  sstore\n  pop\n    /* \"visibility.sol\":858:961  constructor(address _contractAddress){... */\n  pop\n    /* \"visibility.sol\":793:1516  contract Access{... */\n  jump(tag_6)\n    /* \"#utility.yul\":88:205   */\ntag_8:\n    /* \"#utility.yul\":197:198   */\n  0x00\n    /* \"#utility.yul\":194:195   */\n  dup1\n    /* \"#utility.yul\":187:199   */\n  revert\n    /* \"#utility.yul\":334:460   */\ntag_10:\n    /* \"#utility.yul\":371:378   */\n  0x00\n    /* \"#utility.yul\":411:453   */\n  0xffffffffffffffffffffffffffffffffffffffff\n    /* \"#utility.yul\":404:409   */\n  dup3\n    /* \"#utility.yul\":400:454   */\n  and\n    /* \"#utility.yul\":389:454   */\n  swap1\n  pop\n    /* \"#utility.yul\":334:460   */\n  swap2\n  swap1\n  pop\n  jump\t// out\n    /* \"#utility.yul\":466:562   */\ntag_11:\n    /* \"#utility.yul\":503:510   */\n  0x00\n    /* \"#utility.yul\":532:556   */\n  tag_20\n    /* \"#utility.yul\":550:555   */\n  dup3\n    /* \"#utility.yul\":532:556   */\n  tag_10\n  jump\t// in\ntag_20:\n    /* \"#utility.yul\":521:556   */\n  swap1\n  pop\n    /* \"#utility.yul\":466:562   */\n  swap2\n  swap1\n  pop\n  jump\t// out\n    /* \"#utility.yul\":568:690   */\ntag_12:\n    /* \"#utility.yul\":641:665   */\n  tag_22\n    /* \"#utility.yul\":659:664   */\n  dup2\n    /* \"#utility.yul\":641:665   */\n  tag_11\n  jump\t// in\ntag_22:\n    /* \"#utility.yul\":634:639   */\n  dup2\n    /* \"#utility.yul\":631:666   */\n  eq\n    /* \"#utility.yul\":621:684   */\n  tag_23\n  jumpi\n    /* \"#utility.yul\":680:681   */\n  0x00\n    /* \"#utility.yul\":677:678   */\n  dup1\n    /* \"#utility.yul\":670:682   */\n  revert\n    /* \"#utility.yul\":621:684   */\ntag_23:\n    /* \"#utility.yul\":568:690   */\n  pop\n  jump\t// out\n    /* \"#utility.yul\":696:839   */\ntag_13:\n    /* \"#utility.yul\":753:758   */\n  0x00\n    /* \"#utility.yul\":784:790   */\n  dup2\n    /* \"#utility.yul\":778:791   */\n  mload\n    /* \"#utility.yul\":769:791   */\n  swap1\n  pop\n    /* \"#utility.yul\":800:833   */\n  tag_25\n    /* \"#utility.yul\":827:832   */\n  dup2\n    /* \"#utility.yul\":800:833   */\n  tag_12\n  jump\t// in\ntag_25:\n    /* \"#utility.yul\":696:839   */\n  swap3\n  swap2\n  pop\n  pop\n  jump\t// out\n    /* \"#utility.yul\":845:1196   */\ntag_3:\n    /* \"#utility.yul\":915:921   */\n  0x00\n    /* \"#utility.yul\":964:966   */\n  0x20\n    /* \"#utility.yul\":952:961   */\n  dup3\n    /* \"#utility.yul\":943:950   */\n  dup5\n    /* \"#utility.yul\":939:962   */\n  sub\n    /* \"#utility.yul\":935:967   */\n  slt\n    /* \"#utility.yul\":932:1051   */\n  iszero\n  tag_27\n  jumpi\n    /* \"#utility.yul\":970:1049   */\n  tag_28\n  tag_8\n  jump\t// in\ntag_28:\n    /* \"#utility.yul\":932:1051   */\ntag_27:\n    /* \"#utility.yul\":1090:1091   */\n  0x00\n    /* \"#utility.yul\":1115:1179   */\n  tag_29\n    /* \"#utility.yul\":1171:1178   */\n  dup5\n    /* \"#utility.yul\":1162:1168   */\n  dup3\n    /* \"#utility.yul\":1151:1160   */\n  dup6\n    /* \"#utility.yul\":1147:1169   */\n  add\n    /* \"#utility.yul\":1115:1179   */\n  tag_13\n  jump\t// in\ntag_29:\n    /* \"#utility.yul\":1105:1179   */\n  swap2\n  pop\n    /* \"#utility.yul\":1061:1189   */\n  pop\n    /* \"#utility.yul\":845:1196   */\n  swap3\n  swap2\n  pop\n  pop\n  jump\t// out\n    /* \"visibility.sol\":793:1516  contract Access{... */\ntag_6:\n  dataSize(sub_0)\n  dup1\n  dataOffset(sub_0)\n  0x00\n  codecopy\n  0x00\n  return\nstop\n\nsub_0: assembly {\n        /* \"visibility.sol\":793:1516  contract Access{... */\n      mstore(0x40, 0x80)\n      callvalue\n      dup1\n      iszero\n      tag_1\n      jumpi\n      0x00\n      dup1\n      revert\n    tag_1:\n      pop\n      jumpi(tag_2, lt(calldatasize, 0x04))\n      shr(0xe0, calldataload(0x00))\n      dup1\n      0x29fa6a6f\n      eq\n      tag_3\n      jumpi\n      dup1\n      0x2caebb50\n      eq\n      tag_4\n      jumpi\n    tag_2:\n      0x00\n      dup1\n      revert\n        /* \"visibility.sol\":815:849  Visibility public contractInstance */\n    tag_3:\n      tag_5\n      tag_6\n      jump\t// in\n    tag_5:\n      mload(0x40)\n      tag_7\n      swap2\n      swap1\n      tag_8\n      jump\t// in\n    tag_7:\n      mload(0x40)\n      dup1\n      swap2\n      sub\n      swap1\n      return\n        /* \"visibility.sol\":1049:1204  function callExternalDabro() public view returns(string memory){... */\n    tag_4:\n      tag_9\n      tag_10\n      jump\t// in\n    tag_9:\n      mload(0x40)\n      tag_11\n      swap2\n      swap1\n      tag_12\n      jump\t// in\n    tag_11:\n      mload(0x40)\n      dup1\n      swap2\n      sub\n      swap1\n      return\n        /* \"visibility.sol\":815:849  Visibility public contractInstance */\n    tag_6:\n      0x00\n      dup1\n      sload\n      swap1\n      0x0100\n      exp\n      swap1\n      div\n      0xffffffffffffffffffffffffffffffffffffffff\n      and\n      dup2\n      jump\t// out\n        /* \"visibility.sol\":1049:1204  function callExternalDabro() public view returns(string memory){... */\n    tag_10:\n        /* \"visibility.sol\":1098:1111  string memory */\n      0x60\n        /* \"visibility.sol\":1123:1142  string memory dabro */\n      0x00\n        /* \"visibility.sol\":1145:1161  contractInstance */\n      dup1\n      0x00\n      swap1\n      sload\n      swap1\n      0x0100\n      exp\n      swap1\n      div\n      0xffffffffffffffffffffffffffffffffffffffff\n      and\n        /* \"visibility.sol\":1145:1171  contractInstance.callDabro */\n      0xffffffffffffffffffffffffffffffffffffffff\n      and\n      0x4ee22c6e\n        /* \"visibility.sol\":1145:1173  contractInstance.callDabro() */\n      mload(0x40)\n      dup2\n      0xffffffff\n      and\n      0xe0\n      shl\n      dup2\n      mstore\n      0x04\n      add\n      0x00\n      mload(0x40)\n      dup1\n      dup4\n      sub\n      dup2\n      dup7\n      gas\n      staticcall\n      iszero\n      dup1\n      iszero\n      tag_15\n      jumpi\n      returndatasize\n      0x00\n      dup1\n      returndatacopy\n      revert(0x00, returndatasize)\n    tag_15:\n      pop\n      pop\n      pop\n      pop\n      mload(0x40)\n      returndatasize\n      0x00\n      dup3\n      returndatacopy\n      returndatasize\n      not(0x1f)\n      0x1f\n      dup3\n      add\n      and\n      dup3\n      add\n      dup1\n      0x40\n      mstore\n      pop\n      dup2\n      add\n      swap1\n      tag_16\n      swap2\n      swap1\n      tag_17\n      jump\t// in\n    tag_16:\n        /* \"visibility.sol\":1123:1173  string memory dabro = contractInstance.callDabro() */\n      swap1\n      pop\n        /* \"visibility.sol\":1191:1196  dabro */\n      dup1\n        /* \"visibility.sol\":1184:1196  return dabro */\n      swap2\n      pop\n      pop\n        /* \"visibility.sol\":1049:1204  function callExternalDabro() public view returns(string memory){... */\n      swap1\n      jump\t// out\n        /* \"#utility.yul\":7:133   */\n    tag_18:\n        /* \"#utility.yul\":44:51   */\n      0x00\n        /* \"#utility.yul\":84:126   */\n      0xffffffffffffffffffffffffffffffffffffffff\n        /* \"#utility.yul\":77:82   */\n      dup3\n        /* \"#utility.yul\":73:127   */\n      and\n        /* \"#utility.yul\":62:127   */\n      swap1\n      pop\n        /* \"#utility.yul\":7:133   */\n      swap2\n      swap1\n      pop\n      jump\t// out\n        /* \"#utility.yul\":139:199   */\n    tag_19:\n        /* \"#utility.yul\":167:170   */\n      0x00\n        /* \"#utility.yul\":188:193   */\n      dup2\n        /* \"#utility.yul\":181:193   */\n      swap1\n      pop\n        /* \"#utility.yul\":139:199   */\n      swap2\n      swap1\n      pop\n      jump\t// out\n        /* \"#utility.yul\":205:347   */\n    tag_20:\n        /* \"#utility.yul\":255:264   */\n      0x00\n        /* \"#utility.yul\":288:341   */\n      tag_44\n        /* \"#utility.yul\":306:340   */\n      tag_45\n        /* \"#utility.yul\":315:339   */\n      tag_46\n        /* \"#utility.yul\":333:338   */\n      dup5\n        /* \"#utility.yul\":315:339   */\n      tag_18\n      jump\t// in\n    tag_46:\n        /* \"#utility.yul\":306:340   */\n      tag_19\n      jump\t// in\n    tag_45:\n        /* \"#utility.yul\":288:341   */\n      tag_18\n      jump\t// in\n    tag_44:\n        /* \"#utility.yul\":275:341   */\n      swap1\n      pop\n        /* \"#utility.yul\":205:347   */\n      swap2\n      swap1\n      pop\n      jump\t// out\n        /* \"#utility.yul\":353:479   */\n    tag_21:\n        /* \"#utility.yul\":403:412   */\n      0x00\n        /* \"#utility.yul\":436:473   */\n      tag_48\n        /* \"#utility.yul\":467:472   */\n      dup3\n        /* \"#utility.yul\":436:473   */\n      tag_20\n      jump\t// in\n    tag_48:\n        /* \"#utility.yul\":423:473   */\n      swap1\n      pop\n        /* \"#utility.yul\":353:479   */\n      swap2\n      swap1\n      pop\n      jump\t// out\n        /* \"#utility.yul\":485:628   */\n    tag_22:\n        /* \"#utility.yul\":552:561   */\n      0x00\n        /* \"#utility.yul\":585:622   */\n      tag_50\n        /* \"#utility.yul\":616:621   */\n      dup3\n        /* \"#utility.yul\":585:622   */\n      tag_21\n      jump\t// in\n    tag_50:\n        /* \"#utility.yul\":572:622   */\n      swap1\n      pop\n        /* \"#utility.yul\":485:628   */\n      swap2\n      swap1\n      pop\n      jump\t// out\n        /* \"#utility.yul\":634:799   */\n    tag_23:\n        /* \"#utility.yul\":738:792   */\n      tag_52\n        /* \"#utility.yul\":786:791   */\n      dup2\n        /* \"#utility.yul\":738:792   */\n      tag_22\n      jump\t// in\n    tag_52:\n        /* \"#utility.yul\":733:736   */\n      dup3\n        /* \"#utility.yul\":726:793   */\n      mstore\n        /* \"#utility.yul\":634:799   */\n      pop\n      pop\n      jump\t// out\n        /* \"#utility.yul\":805:1061   */\n    tag_8:\n        /* \"#utility.yul\":915:919   */\n      0x00\n        /* \"#utility.yul\":953:955   */\n      0x20\n        /* \"#utility.yul\":942:951   */\n      dup3\n        /* \"#utility.yul\":938:956   */\n      add\n        /* \"#utility.yul\":930:956   */\n      swap1\n      pop\n        /* \"#utility.yul\":966:1054   */\n      tag_54\n        /* \"#utility.yul\":1051:1052   */\n      0x00\n        /* \"#utility.yul\":1040:1049   */\n      dup4\n        /* \"#utility.yul\":1036:1053   */\n      add\n        /* \"#utility.yul\":1027:1033   */\n      dup5\n        /* \"#utility.yul\":966:1054   */\n      tag_23\n      jump\t// in\n    tag_54:\n        /* \"#utility.yul\":805:1061   */\n      swap3\n      swap2\n      pop\n      pop\n      jump\t// out\n        /* \"#utility.yul\":1067:1166   */\n    tag_24:\n        /* \"#utility.yul\":1119:1125   */\n      0x00\n        /* \"#utility.yul\":1153:1158   */\n      dup2\n        /* \"#utility.yul\":1147:1159   */\n      mload\n        /* \"#utility.yul\":1137:1159   */\n      swap1\n      pop\n        /* \"#utility.yul\":1067:1166   */\n      swap2\n      swap1\n      pop\n      jump\t// out\n        /* \"#utility.yul\":1172:1341   */\n    tag_25:\n        /* \"#utility.yul\":1256:1267   */\n      0x00\n        /* \"#utility.yul\":1290:1296   */\n      dup3\n        /* \"#utility.yul\":1285:1288   */\n      dup3\n        /* \"#utility.yul\":1278:1297   */\n      mstore\n        /* \"#utility.yul\":1330:1334   */\n      0x20\n        /* \"#utility.yul\":1325:1328   */\n      dup3\n        /* \"#utility.yul\":1321:1335   */\n      add\n        /* \"#utility.yul\":1306:1335   */\n      swap1\n      pop\n        /* \"#utility.yul\":1172:1341   */\n      swap3\n      swap2\n      pop\n      pop\n      jump\t// out\n        /* \"#utility.yul\":1347:1593   */\n    tag_26:\n        /* \"#utility.yul\":1428:1429   */\n      0x00\n        /* \"#utility.yul\":1438:1551   */\n    tag_58:\n        /* \"#utility.yul\":1452:1458   */\n      dup4\n        /* \"#utility.yul\":1449:1450   */\n      dup2\n        /* \"#utility.yul\":1446:1459   */\n      lt\n        /* \"#utility.yul\":1438:1551   */\n      iszero\n      tag_60\n      jumpi\n        /* \"#utility.yul\":1537:1538   */\n      dup1\n        /* \"#utility.yul\":1532:1535   */\n      dup3\n        /* \"#utility.yul\":1528:1539   */\n      add\n        /* \"#utility.yul\":1522:1540   */\n      mload\n        /* \"#utility.yul\":1518:1519   */\n      dup2\n        /* \"#utility.yul\":1513:1516   */\n      dup5\n        /* \"#utility.yul\":1509:1520   */\n      add\n        /* \"#utility.yul\":1502:1541   */\n      mstore\n        /* \"#utility.yul\":1474:1476   */\n      0x20\n        /* \"#utility.yul\":1471:1472   */\n      dup2\n        /* \"#utility.yul\":1467:1477   */\n      add\n        /* \"#utility.yul\":1462:1477   */\n      swap1\n      pop\n        /* \"#utility.yul\":1438:1551   */\n      jump(tag_58)\n    tag_60:\n        /* \"#utility.yul\":1585:1586   */\n      0x00\n        /* \"#utility.yul\":1576:1582   */\n      dup5\n        /* \"#utility.yul\":1571:1574   */\n      dup5\n        /* \"#utility.yul\":1567:1583   */\n      add\n        /* \"#utility.yul\":1560:1587   */\n      mstore\n        /* \"#utility.yul\":1409:1593   */\n      pop\n        /* \"#utility.yul\":1347:1593   */\n      pop\n      pop\n      pop\n      jump\t// out\n        /* \"#utility.yul\":1599:1701   */\n    tag_27:\n        /* \"#utility.yul\":1640:1646   */\n      0x00\n        /* \"#utility.yul\":1691:1693   */\n      0x1f\n        /* \"#utility.yul\":1687:1694   */\n      not\n        /* \"#utility.yul\":1682:1684   */\n      0x1f\n        /* \"#utility.yul\":1675:1680   */\n      dup4\n        /* \"#utility.yul\":1671:1685   */\n      add\n        /* \"#utility.yul\":1667:1695   */\n      and\n        /* \"#utility.yul\":1657:1695   */\n      swap1\n      pop\n        /* \"#utility.yul\":1599:1701   */\n      swap2\n      swap1\n      pop\n      jump\t// out\n        /* \"#utility.yul\":1707:2084   */\n    tag_28:\n        /* \"#utility.yul\":1795:1798   */\n      0x00\n        /* \"#utility.yul\":1823:1862   */\n      tag_63\n        /* \"#utility.yul\":1856:1861   */\n      dup3\n        /* \"#utility.yul\":1823:1862   */\n      tag_24\n      jump\t// in\n    tag_63:\n        /* \"#utility.yul\":1878:1949   */\n      tag_64\n        /* \"#utility.yul\":1942:1948   */\n      dup2\n        /* \"#utility.yul\":1937:1940   */\n      dup6\n        /* \"#utility.yul\":1878:1949   */\n      tag_25\n      jump\t// in\n    tag_64:\n        /* \"#utility.yul\":1871:1949   */\n      swap4\n      pop\n        /* \"#utility.yul\":1958:2023   */\n      tag_65\n        /* \"#utility.yul\":2016:2022   */\n      dup2\n        /* \"#utility.yul\":2011:2014   */\n      dup6\n        /* \"#utility.yul\":2004:2008   */\n      0x20\n        /* \"#utility.yul\":1997:2002   */\n      dup7\n        /* \"#utility.yul\":1993:2009   */\n      add\n        /* \"#utility.yul\":1958:2023   */\n      tag_26\n      jump\t// in\n    tag_65:\n        /* \"#utility.yul\":2048:2077   */\n      tag_66\n        /* \"#utility.yul\":2070:2076   */\n      dup2\n        /* \"#utility.yul\":2048:2077   */\n      tag_27\n      jump\t// in\n    tag_66:\n        /* \"#utility.yul\":2043:2046   */\n      dup5\n        /* \"#utility.yul\":2039:2078   */\n      add\n        /* \"#utility.yul\":2032:2078   */\n      swap2\n      pop\n        /* \"#utility.yul\":1799:2084   */\n      pop\n        /* \"#utility.yul\":1707:2084   */\n      swap3\n      swap2\n      pop\n      pop\n      jump\t// out\n        /* \"#utility.yul\":2090:2403   */\n    tag_12:\n        /* \"#utility.yul\":2203:2207   */\n      0x00\n        /* \"#utility.yul\":2241:2243   */\n      0x20\n        /* \"#utility.yul\":2230:2239   */\n      dup3\n        /* \"#utility.yul\":2226:2244   */\n      add\n        /* \"#utility.yul\":2218:2244   */\n      swap1\n      pop\n        /* \"#utility.yul\":2290:2299   */\n      dup2\n        /* \"#utility.yul\":2284:2288   */\n      dup2\n        /* \"#utility.yul\":2280:2300   */\n      sub\n        /* \"#utility.yul\":2276:2277   */\n      0x00\n        /* \"#utility.yul\":2265:2274   */\n      dup4\n        /* \"#utility.yul\":2261:2278   */\n      add\n        /* \"#utility.yul\":2254:2301   */\n      mstore\n        /* \"#utility.yul\":2318:2396   */\n      tag_68\n        /* \"#utility.yul\":2391:2395   */\n      dup2\n        /* \"#utility.yul\":2382:2388   */\n      dup5\n        /* \"#utility.yul\":2318:2396   */\n      tag_28\n      jump\t// in\n    tag_68:\n        /* \"#utility.yul\":2310:2396   */\n      swap1\n      pop\n        /* \"#utility.yul\":2090:2403   */\n      swap3\n      swap2\n      pop\n      pop\n      jump\t// out\n        /* \"#utility.yul\":2409:2484   */\n    tag_29:\n        /* \"#utility.yul\":2442:2448   */\n      0x00\n        /* \"#utility.yul\":2475:2477   */\n      0x40\n        /* \"#utility.yul\":2469:2478   */\n      mload\n        /* \"#utility.yul\":2459:2478   */\n      swap1\n      pop\n        /* \"#utility.yul\":2409:2484   */\n      swap1\n      jump\t// out\n        /* \"#utility.yul\":2490:2607   */\n    tag_30:\n        /* \"#utility.yul\":2599:2600   */\n      0x00\n        /* \"#utility.yul\":2596:2597   */\n      dup1\n        /* \"#utility.yul\":2589:2601   */\n      revert\n        /* \"#utility.yul\":2613:2730   */\n    tag_31:\n        /* \"#utility.yul\":2722:2723   */\n      0x00\n        /* \"#utility.yul\":2719:2720   */\n      dup1\n        /* \"#utility.yul\":2712:2724   */\n      revert\n        /* \"#utility.yul\":2736:2853   */\n    tag_32:\n        /* \"#utility.yul\":2845:2846   */\n      0x00\n        /* \"#utility.yul\":2842:2843   */\n      dup1\n        /* \"#utility.yul\":2835:2847   */\n      revert\n        /* \"#utility.yul\":2859:2976   */\n    tag_33:\n        /* \"#utility.yul\":2968:2969   */\n      0x00\n        /* \"#utility.yul\":2965:2966   */\n      dup1\n        /* \"#utility.yul\":2958:2970   */\n      revert\n        /* \"#utility.yul\":2982:3162   */\n    tag_34:\n        /* \"#utility.yul\":3030:3107   */\n      0x4e487b7100000000000000000000000000000000000000000000000000000000\n        /* \"#utility.yul\":3027:3028   */\n      0x00\n        /* \"#utility.yul\":3020:3108   */\n      mstore\n        /* \"#utility.yul\":3127:3131   */\n      0x41\n        /* \"#utility.yul\":3124:3125   */\n      0x04\n        /* \"#utility.yul\":3117:3132   */\n      mstore\n        /* \"#utility.yul\":3151:3155   */\n      0x24\n        /* \"#utility.yul\":3148:3149   */\n      0x00\n        /* \"#utility.yul\":3141:3156   */\n      revert\n        /* \"#utility.yul\":3168:3449   */\n    tag_35:\n        /* \"#utility.yul\":3251:3278   */\n      tag_76\n        /* \"#utility.yul\":3273:3277   */\n      dup3\n        /* \"#utility.yul\":3251:3278   */\n      tag_27\n      jump\t// in\n    tag_76:\n        /* \"#utility.yul\":3243:3249   */\n      dup2\n        /* \"#utility.yul\":3239:3279   */\n      add\n        /* \"#utility.yul\":3381:3387   */\n      dup2\n        /* \"#utility.yul\":3369:3379   */\n      dup2\n        /* \"#utility.yul\":3366:3388   */\n      lt\n        /* \"#utility.yul\":3345:3363   */\n      0xffffffffffffffff\n        /* \"#utility.yul\":3333:3343   */\n      dup3\n        /* \"#utility.yul\":3330:3364   */\n      gt\n        /* \"#utility.yul\":3327:3389   */\n      or\n        /* \"#utility.yul\":3324:3412   */\n      iszero\n      tag_77\n      jumpi\n        /* \"#utility.yul\":3392:3410   */\n      tag_78\n      tag_34\n      jump\t// in\n    tag_78:\n        /* \"#utility.yul\":3324:3412   */\n    tag_77:\n        /* \"#utility.yul\":3432:3442   */\n      dup1\n        /* \"#utility.yul\":3428:3430   */\n      0x40\n        /* \"#utility.yul\":3421:3443   */\n      mstore\n        /* \"#utility.yul\":3211:3449   */\n      pop\n        /* \"#utility.yul\":3168:3449   */\n      pop\n      pop\n      jump\t// out\n        /* \"#utility.yul\":3455:3584   */\n    tag_36:\n        /* \"#utility.yul\":3489:3495   */\n      0x00\n        /* \"#utility.yul\":3516:3536   */\n      tag_80\n      tag_29\n      jump\t// in\n    tag_80:\n        /* \"#utility.yul\":3506:3536   */\n      swap1\n      pop\n        /* \"#utility.yul\":3545:3578   */\n      tag_81\n        /* \"#utility.yul\":3573:3577   */\n      dup3\n        /* \"#utility.yul\":3565:3571   */\n      dup3\n        /* \"#utility.yul\":3545:3578   */\n      tag_35\n      jump\t// in\n    tag_81:\n        /* \"#utility.yul\":3455:3584   */\n      swap2\n      swap1\n      pop\n      jump\t// out\n        /* \"#utility.yul\":3590:3898   */\n    tag_37:\n        /* \"#utility.yul\":3652:3656   */\n      0x00\n        /* \"#utility.yul\":3742:3760   */\n      0xffffffffffffffff\n        /* \"#utility.yul\":3734:3740   */\n      dup3\n        /* \"#utility.yul\":3731:3761   */\n      gt\n        /* \"#utility.yul\":3728:3784   */\n      iszero\n      tag_83\n      jumpi\n        /* \"#utility.yul\":3764:3782   */\n      tag_84\n      tag_34\n      jump\t// in\n    tag_84:\n        /* \"#utility.yul\":3728:3784   */\n    tag_83:\n        /* \"#utility.yul\":3802:3831   */\n      tag_85\n        /* \"#utility.yul\":3824:3830   */\n      dup3\n        /* \"#utility.yul\":3802:3831   */\n      tag_27\n      jump\t// in\n    tag_85:\n        /* \"#utility.yul\":3794:3831   */\n      swap1\n      pop\n        /* \"#utility.yul\":3886:3890   */\n      0x20\n        /* \"#utility.yul\":3880:3884   */\n      dup2\n        /* \"#utility.yul\":3876:3891   */\n      add\n        /* \"#utility.yul\":3868:3891   */\n      swap1\n      pop\n        /* \"#utility.yul\":3590:3898   */\n      swap2\n      swap1\n      pop\n      jump\t// out\n        /* \"#utility.yul\":3904:4338   */\n    tag_38:\n        /* \"#utility.yul\":3993:3998   */\n      0x00\n        /* \"#utility.yul\":4018:4084   */\n      tag_87\n        /* \"#utility.yul\":4034:4083   */\n      tag_88\n        /* \"#utility.yul\":4076:4082   */\n      dup5\n        /* \"#utility.yul\":4034:4083   */\n      tag_37\n      jump\t// in\n    tag_88:\n        /* \"#utility.yul\":4018:4084   */\n      tag_36\n      jump\t// in\n    tag_87:\n        /* \"#utility.yul\":4009:4084   */\n      swap1\n      pop\n        /* \"#utility.yul\":4107:4113   */\n      dup3\n        /* \"#utility.yul\":4100:4105   */\n      dup2\n        /* \"#utility.yul\":4093:4114   */\n      mstore\n        /* \"#utility.yul\":4145:4149   */\n      0x20\n        /* \"#utility.yul\":4138:4143   */\n      dup2\n        /* \"#utility.yul\":4134:4150   */\n      add\n        /* \"#utility.yul\":4183:4186   */\n      dup5\n        /* \"#utility.yul\":4174:4180   */\n      dup5\n        /* \"#utility.yul\":4169:4172   */\n      dup5\n        /* \"#utility.yul\":4165:4181   */\n      add\n        /* \"#utility.yul\":4162:4187   */\n      gt\n        /* \"#utility.yul\":4159:4271   */\n      iszero\n      tag_89\n      jumpi\n        /* \"#utility.yul\":4190:4269   */\n      tag_90\n      tag_33\n      jump\t// in\n    tag_90:\n        /* \"#utility.yul\":4159:4271   */\n    tag_89:\n        /* \"#utility.yul\":4280:4332   */\n      tag_91\n        /* \"#utility.yul\":4325:4331   */\n      dup5\n        /* \"#utility.yul\":4320:4323   */\n      dup3\n        /* \"#utility.yul\":4315:4318   */\n      dup6\n        /* \"#utility.yul\":4280:4332   */\n      tag_26\n      jump\t// in\n    tag_91:\n        /* \"#utility.yul\":3999:4338   */\n      pop\n        /* \"#utility.yul\":3904:4338   */\n      swap4\n      swap3\n      pop\n      pop\n      pop\n      jump\t// out\n        /* \"#utility.yul\":4358:4713   */\n    tag_39:\n        /* \"#utility.yul\":4425:4430   */\n      0x00\n        /* \"#utility.yul\":4474:4477   */\n      dup3\n        /* \"#utility.yul\":4467:4471   */\n      0x1f\n        /* \"#utility.yul\":4459:4465   */\n      dup4\n        /* \"#utility.yul\":4455:4472   */\n      add\n        /* \"#utility.yul\":4451:4478   */\n      slt\n        /* \"#utility.yul\":4441:4563   */\n      tag_93\n      jumpi\n        /* \"#utility.yul\":4482:4561   */\n      tag_94\n      tag_32\n      jump\t// in\n    tag_94:\n        /* \"#utility.yul\":4441:4563   */\n    tag_93:\n        /* \"#utility.yul\":4592:4598   */\n      dup2\n        /* \"#utility.yul\":4586:4599   */\n      mload\n        /* \"#utility.yul\":4617:4707   */\n      tag_95\n        /* \"#utility.yul\":4703:4706   */\n      dup5\n        /* \"#utility.yul\":4695:4701   */\n      dup3\n        /* \"#utility.yul\":4688:4692   */\n      0x20\n        /* \"#utility.yul\":4680:4686   */\n      dup7\n        /* \"#utility.yul\":4676:4693   */\n      add\n        /* \"#utility.yul\":4617:4707   */\n      tag_38\n      jump\t// in\n    tag_95:\n        /* \"#utility.yul\":4608:4707   */\n      swap2\n      pop\n        /* \"#utility.yul\":4431:4713   */\n      pop\n        /* \"#utility.yul\":4358:4713   */\n      swap3\n      swap2\n      pop\n      pop\n      jump\t// out\n        /* \"#utility.yul\":4719:5243   */\n    tag_17:\n        /* \"#utility.yul\":4799:4805   */\n      0x00\n        /* \"#utility.yul\":4848:4850   */\n      0x20\n        /* \"#utility.yul\":4836:4845   */\n      dup3\n        /* \"#utility.yul\":4827:4834   */\n      dup5\n        /* \"#utility.yul\":4823:4846   */\n      sub\n        /* \"#utility.yul\":4819:4851   */\n      slt\n        /* \"#utility.yul\":4816:4935   */\n      iszero\n      tag_97\n      jumpi\n        /* \"#utility.yul\":4854:4933   */\n      tag_98\n      tag_30\n      jump\t// in\n    tag_98:\n        /* \"#utility.yul\":4816:4935   */\n    tag_97:\n        /* \"#utility.yul\":4995:4996   */\n      0x00\n        /* \"#utility.yul\":4984:4993   */\n      dup3\n        /* \"#utility.yul\":4980:4997   */\n      add\n        /* \"#utility.yul\":4974:4998   */\n      mload\n        /* \"#utility.yul\":5025:5043   */\n      0xffffffffffffffff\n        /* \"#utility.yul\":5017:5023   */\n      dup2\n        /* \"#utility.yul\":5014:5044   */\n      gt\n        /* \"#utility.yul\":5011:5128   */\n      iszero\n      tag_99\n      jumpi\n        /* \"#utility.yul\":5047:5126   */\n      tag_100\n      tag_31\n      jump\t// in\n    tag_100:\n        /* \"#utility.yul\":5011:5128   */\n    tag_99:\n        /* \"#utility.yul\":5152:5226   */\n      tag_101\n        /* \"#utility.yul\":5218:5225   */\n      dup5\n        /* \"#utility.yul\":5209:5215   */\n      dup3\n        /* \"#utility.yul\":5198:5207   */\n      dup6\n        /* \"#utility.yul\":5194:5216   */\n      add\n        /* \"#utility.yul\":5152:5226   */\n      tag_39\n      jump\t// in\n    tag_101:\n        /* \"#utility.yul\":5142:5226   */\n      swap2\n      pop\n        /* \"#utility.yul\":4945:5236   */\n      pop\n        /* \"#utility.yul\":4719:5243   */\n      swap3\n      swap2\n      pop\n      pop\n      jump\t// out\n\n    auxdata: 0xa26469706673582212203daa9a7c284fdb58754a06bdfbcb91d0d81683f64b694a0d6ba46f112259204264736f6c63430008120033\n}\n",
				"bytecode": {
					"linkReferences": {},
					"object": "608060405234801561001057600080fd5b50604051610559380380610559833981810160405281019061003291906100db565b806000806101000a81548173ffffffffffffffffffffffffffffffffffffffff021916908373ffffffffffffffffffffffffffffffffffffffff16021790555050610108565b600080fd5b600073ffffffffffffffffffffffffffffffffffffffff82169050919050565b60006100a88261007d565b9050919050565b6100b88161009d565b81146100c357600080fd5b50565b6000815190506100d5816100af565b92915050565b6000602082840312156100f1576100f0610078565b5b60006100ff848285016100c6565b91505092915050565b610442806101176000396000f3fe608060405234801561001057600080fd5b50600436106100365760003560e01c806329fa6a6f1461003b5780632caebb5014610059575b600080fd5b610043610077565b60405161005091906101bc565b60405180910390f35b61006161009b565b60405161006e9190610267565b60405180910390f35b60008054906101000a900473ffffffffffffffffffffffffffffffffffffffff1681565b606060008060009054906101000a900473ffffffffffffffffffffffffffffffffffffffff1673ffffffffffffffffffffffffffffffffffffffff16634ee22c6e6040518163ffffffff1660e01b8152600401600060405180830381865afa15801561010b573d6000803e3d6000fd5b505050506040513d6000823e3d601f19601f8201168201806040525081019061013491906103c3565b90508091505090565b600073ffffffffffffffffffffffffffffffffffffffff82169050919050565b6000819050919050565b600061018261017d6101788461013d565b61015d565b61013d565b9050919050565b600061019482610167565b9050919050565b60006101a682610189565b9050919050565b6101b68161019b565b82525050565b60006020820190506101d160008301846101ad565b92915050565b600081519050919050565b600082825260208201905092915050565b60005b838110156102115780820151818401526020810190506101f6565b60008484015250505050565b6000601f19601f8301169050919050565b6000610239826101d7565b61024381856101e2565b93506102538185602086016101f3565b61025c8161021d565b840191505092915050565b60006020820190508181036000830152610281818461022e565b905092915050565b6000604051905090565b600080fd5b600080fd5b600080fd5b600080fd5b7f4e487b7100000000000000000000000000000000000000000000000000000000600052604160045260246000fd5b6102df8261021d565b810181811067ffffffffffffffff821117156102fe576102fd6102a7565b5b80604052505050565b6000610311610289565b905061031d82826102d6565b919050565b600067ffffffffffffffff82111561033d5761033c6102a7565b5b6103468261021d565b9050602081019050919050565b600061036661036184610322565b610307565b905082815260208101848484011115610382576103816102a2565b5b61038d8482856101f3565b509392505050565b600082601f8301126103aa576103a961029d565b5b81516103ba848260208601610353565b91505092915050565b6000602082840312156103d9576103d8610293565b5b600082015167ffffffffffffffff8111156103f7576103f6610298565b5b61040384828501610395565b9150509291505056fea26469706673582212203daa9a7c284fdb58754a06bdfbcb91d0d81683f64b694a0d6ba46f112259204264736f6c63430008120033",
					"opcodes": "PUSH1 0x80 PUSH1 0x40 MSTORE CALLVALUE DUP1 ISZERO PUSH2 0x10 JUMPI PUSH1 0x0 DUP1 REVERT JUMPDEST POP PUSH1 0x40 MLOAD PUSH2 0x559 CODESIZE SUB DUP1 PUSH2 0x559 DUP4 CODECOPY DUP2 DUP2 ADD PUSH1 0x40 MSTORE DUP2 ADD SWAP1 PUSH2 0x32 SWAP2 SWAP1 PUSH2 0xDB JUMP JUMPDEST DUP1 PUSH1 0x0 DUP1 PUSH2 0x100 EXP DUP2 SLOAD DUP2 PUSH20 0xFFFFFFFFFFFFFFFFFFFFFFFFFFFFFFFFFFFFFFFF MUL NOT AND SWAP1 DUP4 PUSH20 0xFFFFFFFFFFFFFFFFFFFFFFFFFFFFFFFFFFFFFFFF AND MUL OR SWAP1 SSTORE POP POP PUSH2 0x108 JUMP JUMPDEST PUSH1 0x0 DUP1 REVERT JUMPDEST PUSH1 0x0 PUSH20 0xFFFFFFFFFFFFFFFFFFFFFFFFFFFFFFFFFFFFFFFF DUP3 AND SWAP1 POP SWAP2 SWAP1 POP JUMP JUMPDEST PUSH1 0x0 PUSH2 0xA8 DUP3 PUSH2 0x7D JUMP JUMPDEST SWAP1 POP SWAP2 SWAP1 POP JUMP JUMPDEST PUSH2 0xB8 DUP2 PUSH2 0x9D JUMP JUMPDEST DUP2 EQ PUSH2 0xC3 JUMPI PUSH1 0x0 DUP1 REVERT JUMPDEST POP JUMP JUMPDEST PUSH1 0x0 DUP2 MLOAD SWAP1 POP PUSH2 0xD5 DUP2 PUSH2 0xAF JUMP JUMPDEST SWAP3 SWAP2 POP POP JUMP JUMPDEST PUSH1 0x0 PUSH1 0x20 DUP3 DUP5 SUB SLT ISZERO PUSH2 0xF1 JUMPI PUSH2 0xF0 PUSH2 0x78 JUMP JUMPDEST JUMPDEST PUSH1 0x0 PUSH2 0xFF DUP5 DUP3 DUP6 ADD PUSH2 0xC6 JUMP JUMPDEST SWAP2 POP POP SWAP3 SWAP2 POP POP JUMP JUMPDEST PUSH2 0x442 DUP1 PUSH2 0x117 PUSH1 0x0 CODECOPY PUSH1 0x0 RETURN INVALID PUSH1 0x80 PUSH1 0x40 MSTORE CALLVALUE DUP1 ISZERO PUSH2 0x10 JUMPI PUSH1 0x0 DUP1 REVERT JUMPDEST POP PUSH1 0x4 CALLDATASIZE LT PUSH2 0x36 JUMPI PUSH1 0x0 CALLDATALOAD PUSH1 0xE0 SHR DUP1 PUSH4 0x29FA6A6F EQ PUSH2 0x3B JUMPI DUP1 PUSH4 0x2CAEBB50 EQ PUSH2 0x59 JUMPI JUMPDEST PUSH1 0x0 DUP1 REVERT JUMPDEST PUSH2 0x43 PUSH2 0x77 JUMP JUMPDEST PUSH1 0x40 MLOAD PUSH2 0x50 SWAP2 SWAP1 PUSH2 0x1BC JUMP JUMPDEST PUSH1 0x40 MLOAD DUP1 SWAP2 SUB SWAP1 RETURN JUMPDEST PUSH2 0x61 PUSH2 0x9B JUMP JUMPDEST PUSH1 0x40 MLOAD PUSH2 0x6E SWAP2 SWAP1 PUSH2 0x267 JUMP JUMPDEST PUSH1 0x40 MLOAD DUP1 SWAP2 SUB SWAP1 RETURN JUMPDEST PUSH1 0x0 DUP1 SLOAD SWAP1 PUSH2 0x100 EXP SWAP1 DIV PUSH20 0xFFFFFFFFFFFFFFFFFFFFFFFFFFFFFFFFFFFFFFFF AND DUP2 JUMP JUMPDEST PUSH1 0x60 PUSH1 0x0 DUP1 PUSH1 0x0 SWAP1 SLOAD SWAP1 PUSH2 0x100 EXP SWAP1 DIV PUSH20 0xFFFFFFFFFFFFFFFFFFFFFFFFFFFFFFFFFFFFFFFF AND PUSH20 0xFFFFFFFFFFFFFFFFFFFFFFFFFFFFFFFFFFFFFFFF AND PUSH4 0x4EE22C6E PUSH1 0x40 MLOAD DUP2 PUSH4 0xFFFFFFFF AND PUSH1 0xE0 SHL DUP2 MSTORE PUSH1 0x4 ADD PUSH1 0x0 PUSH1 0x40 MLOAD DUP1 DUP4 SUB DUP2 DUP7 GAS STATICCALL ISZERO DUP1 ISZERO PUSH2 0x10B JUMPI RETURNDATASIZE PUSH1 0x0 DUP1 RETURNDATACOPY RETURNDATASIZE PUSH1 0x0 REVERT JUMPDEST POP POP POP POP PUSH1 0x40 MLOAD RETURNDATASIZE PUSH1 0x0 DUP3 RETURNDATACOPY RETURNDATASIZE PUSH1 0x1F NOT PUSH1 0x1F DUP3 ADD AND DUP3 ADD DUP1 PUSH1 0x40 MSTORE POP DUP2 ADD SWAP1 PUSH2 0x134 SWAP2 SWAP1 PUSH2 0x3C3 JUMP JUMPDEST SWAP1 POP DUP1 SWAP2 POP POP SWAP1 JUMP JUMPDEST PUSH1 0x0 PUSH20 0xFFFFFFFFFFFFFFFFFFFFFFFFFFFFFFFFFFFFFFFF DUP3 AND SWAP1 POP SWAP2 SWAP1 POP JUMP JUMPDEST PUSH1 0x0 DUP2 SWAP1 POP SWAP2 SWAP1 POP JUMP JUMPDEST PUSH1 0x0 PUSH2 0x182 PUSH2 0x17D PUSH2 0x178 DUP5 PUSH2 0x13D JUMP JUMPDEST PUSH2 0x15D JUMP JUMPDEST PUSH2 0x13D JUMP JUMPDEST SWAP1 POP SWAP2 SWAP1 POP JUMP JUMPDEST PUSH1 0x0 PUSH2 0x194 DUP3 PUSH2 0x167 JUMP JUMPDEST SWAP1 POP SWAP2 SWAP1 POP JUMP JUMPDEST PUSH1 0x0 PUSH2 0x1A6 DUP3 PUSH2 0x189 JUMP JUMPDEST SWAP1 POP SWAP2 SWAP1 POP JUMP JUMPDEST PUSH2 0x1B6 DUP2 PUSH2 0x19B JUMP JUMPDEST DUP3 MSTORE POP POP JUMP JUMPDEST PUSH1 0x0 PUSH1 0x20 DUP3 ADD SWAP1 POP PUSH2 0x1D1 PUSH1 0x0 DUP4 ADD DUP5 PUSH2 0x1AD JUMP JUMPDEST SWAP3 SWAP2 POP POP JUMP JUMPDEST PUSH1 0x0 DUP2 MLOAD SWAP1 POP SWAP2 SWAP1 POP JUMP JUMPDEST PUSH1 0x0 DUP3 DUP3 MSTORE PUSH1 0x20 DUP3 ADD SWAP1 POP SWAP3 SWAP2 POP POP JUMP JUMPDEST PUSH1 0x0 JUMPDEST DUP4 DUP2 LT ISZERO PUSH2 0x211 JUMPI DUP1 DUP3 ADD MLOAD DUP2 DUP5 ADD MSTORE PUSH1 0x20 DUP2 ADD SWAP1 POP PUSH2 0x1F6 JUMP JUMPDEST PUSH1 0x0 DUP5 DUP5 ADD MSTORE POP POP POP POP JUMP JUMPDEST PUSH1 0x0 PUSH1 0x1F NOT PUSH1 0x1F DUP4 ADD AND SWAP1 POP SWAP2 SWAP1 POP JUMP JUMPDEST PUSH1 0x0 PUSH2 0x239 DUP3 PUSH2 0x1D7 JUMP JUMPDEST PUSH2 0x243 DUP2 DUP6 PUSH2 0x1E2 JUMP JUMPDEST SWAP4 POP PUSH2 0x253 DUP2 DUP6 PUSH1 0x20 DUP7 ADD PUSH2 0x1F3 JUMP JUMPDEST PUSH2 0x25C DUP2 PUSH2 0x21D JUMP JUMPDEST DUP5 ADD SWAP2 POP POP SWAP3 SWAP2 POP POP JUMP JUMPDEST PUSH1 0x0 PUSH1 0x20 DUP3 ADD SWAP1 POP DUP2 DUP2 SUB PUSH1 0x0 DUP4 ADD MSTORE PUSH2 0x281 DUP2 DUP5 PUSH2 0x22E JUMP JUMPDEST SWAP1 POP SWAP3 SWAP2 POP POP JUMP JUMPDEST PUSH1 0x0 PUSH1 0x40 MLOAD SWAP1 POP SWAP1 JUMP JUMPDEST PUSH1 0x0 DUP1 REVERT JUMPDEST PUSH1 0x0 DUP1 REVERT JUMPDEST PUSH1 0x0 DUP1 REVERT JUMPDEST PUSH1 0x0 DUP1 REVERT JUMPDEST PUSH32 0x4E487B7100000000000000000000000000000000000000000000000000000000 PUSH1 0x0 MSTORE PUSH1 0x41 PUSH1 0x4 MSTORE PUSH1 0x24 PUSH1 0x0 REVERT JUMPDEST PUSH2 0x2DF DUP3 PUSH2 0x21D JUMP JUMPDEST DUP2 ADD DUP2 DUP2 LT PUSH8 0xFFFFFFFFFFFFFFFF DUP3 GT OR ISZERO PUSH2 0x2FE JUMPI PUSH2 0x2FD PUSH2 0x2A7 JUMP JUMPDEST JUMPDEST DUP1 PUSH1 0x40 MSTORE POP POP POP JUMP JUMPDEST PUSH1 0x0 PUSH2 0x311 PUSH2 0x289 JUMP JUMPDEST SWAP1 POP PUSH2 0x31D DUP3 DUP3 PUSH2 0x2D6 JUMP JUMPDEST SWAP2 SWAP1 POP JUMP JUMPDEST PUSH1 0x0 PUSH8 0xFFFFFFFFFFFFFFFF DUP3 GT ISZERO PUSH2 0x33D JUMPI PUSH2 0x33C PUSH2 0x2A7 JUMP JUMPDEST JUMPDEST PUSH2 0x346 DUP3 PUSH2 0x21D JUMP JUMPDEST SWAP1 POP PUSH1 0x20 DUP2 ADD SWAP1 POP SWAP2 SWAP1 POP JUMP JUMPDEST PUSH1 0x0 PUSH2 0x366 PUSH2 0x361 DUP5 PUSH2 0x322 JUMP JUMPDEST PUSH2 0x307 JUMP JUMPDEST SWAP1 POP DUP3 DUP2 MSTORE PUSH1 0x20 DUP2 ADD DUP5 DUP5 DUP5 ADD GT ISZERO PUSH2 0x382 JUMPI PUSH2 0x381 PUSH2 0x2A2 JUMP JUMPDEST JUMPDEST PUSH2 0x38D DUP5 DUP3 DUP6 PUSH2 0x1F3 JUMP JUMPDEST POP SWAP4 SWAP3 POP POP POP JUMP JUMPDEST PUSH1 0x0 DUP3 PUSH1 0x1F DUP4 ADD SLT PUSH2 0x3AA JUMPI PUSH2 0x3A9 PUSH2 0x29D JUMP JUMPDEST JUMPDEST DUP2 MLOAD PUSH2 0x3BA DUP5 DUP3 PUSH1 0x20 DUP7 ADD PUSH2 0x353 JUMP JUMPDEST SWAP2 POP POP SWAP3 SWAP2 POP POP JUMP JUMPDEST PUSH1 0x0 PUSH1 0x20 DUP3 DUP5 SUB SLT ISZERO PUSH2 0x3D9 JUMPI PUSH2 0x3D8 PUSH2 0x293 JUMP JUMPDEST JUMPDEST PUSH1 0x0 DUP3 ADD MLOAD PUSH8 0xFFFFFFFFFFFFFFFF DUP2 GT ISZERO PUSH2 0x3F7 JUMPI PUSH2 0x3F6 PUSH2 0x298 JUMP JUMPDEST JUMPDEST PUSH2 0x403 DUP5 DUP3 DUP6 ADD PUSH2 0x395 JUMP JUMPDEST SWAP2 POP POP SWAP3 SWAP2 POP POP JUMP INVALID LOG2 PUSH5 0x6970667358 0x22 SLT KECCAK256 RETURNDATASIZE 0xAA SWAP11 PUSH29 0x284FDB58754A06BDFBCB91D0D81683F64B694A0D6BA46F112259204264 PUSH20 0x6F6C634300081200330000000000000000000000 "
				},
				"gasEstimates": {
					"creation": {
						"codeDepositCost": "218000",
						"executionCost": "infinite",
						"totalCost": "infinite"
					},
					"external": {
						"callExternalDabro()": "infinite",
						"contractInstance()": "infinite"
					}
				},
				"methodIdentifiers": {
					"callExternalDabro()": "2caebb50",
					"contractInstance()": "29fa6a6f"
				}
			},
			"storageLayout": {
				"storage": [
					{
						"astId": 34,
						"contract": "visibility.sol:Access",
						"label": "contractInstance",
						"offset": 0,
						"slot": "0",
						"type": "t_contract(Visibility)31"
					}
				],
				"types": {
					"t_contract(Visibility)31": {
						"encoding": "inplace",
						"label": "contract Visibility",
						"numberOfBytes": "20"
					}
				}
			},
			"userdoc": {
				"kind": "user",
				"methods": {},
				"version": 1
			}
		}
	}
}