{
	"structs.sol": {
		"Structs": {
			"abi": [
				{
					"inputs": [
						{
							"internalType": "uint256",
							"name": "_id",
							"type": "uint256"
						},
						{
							"internalType": "string",
							"name": "_name",
							"type": "string"
						}
					],
					"name": "addApadrinhado",
					"outputs": [],
					"stateMutability": "nonpayable",
					"type": "function"
				},
				{
					"inputs": [
						{
							"internalType": "uint8",
							"name": "_age",
							"type": "uint8"
						},
						{
							"internalType": "string",
							"name": "_name",
							"type": "string"
						}
					],
					"name": "addPadrin",
					"outputs": [],
					"stateMutability": "nonpayable",
					"type": "function"
				},
				{
					"inputs": [
						{
							"internalType": "uint256",
							"name": "_idPadrin",
							"type": "uint256"
						},
						{
							"internalType": "uint256",
							"name": "_idApadrinhado",
							"type": "uint256"
						}
					],
					"name": "delApadrinhado",
					"outputs": [],
					"stateMutability": "nonpayable",
					"type": "function"
				},
				{
					"inputs": [
						{
							"internalType": "uint256",
							"name": "_id",
							"type": "uint256"
						}
					],
					"name": "getApadrinhados",
					"outputs": [
						{
							"internalType": "string[]",
							"name": "",
							"type": "string[]"
						}
					],
					"stateMutability": "view",
					"type": "function"
				},
				{
					"inputs": [
						{
							"internalType": "uint256",
							"name": "_id",
							"type": "uint256"
						}
					],
					"name": "getPadrin",
					"outputs": [
						{
							"internalType": "uint8",
							"name": "",
							"type": "uint8"
						},
						{
							"internalType": "string",
							"name": "",
							"type": "string"
						},
						{
							"internalType": "string[]",
							"name": "",
							"type": "string[]"
						}
					],
					"stateMutability": "view",
					"type": "function"
				},
				{
					"inputs": [
						{
							"internalType": "uint256",
							"name": "",
							"type": "uint256"
						}
					],
					"name": "padrinhage",
					"outputs": [
						{
							"internalType": "uint8",
							"name": "age",
							"type": "uint8"
						},
						{
							"internalType": "string",
							"name": "name",
							"type": "string"
						}
					],
					"stateMutability": "view",
					"type": "function"
				}
			],
			"devdoc": {
				"kind": "dev",
				"methods": {},
				"version": 1
			},
			"evm": {
				"assembly": "    /* \"structs.sol\":63:1402  contract Structs{... */\n  mstore(0x40, 0x80)\n  callvalue\n  dup1\n  iszero\n  tag_1\n  jumpi\n  0x00\n  dup1\n  revert\ntag_1:\n  pop\n  dataSize(sub_0)\n  dup1\n  dataOffset(sub_0)\n  0x00\n  codecopy\n  0x00\n  return\nstop\n\nsub_0: assembly {\n        /* \"structs.sol\":63:1402  contract Structs{... */\n      mstore(0x40, 0x80)\n      callvalue\n      dup1\n      iszero\n      tag_1\n      jumpi\n      0x00\n      dup1\n      revert\n    tag_1:\n      pop\n      jumpi(tag_2, lt(calldatasize, 0x04))\n      shr(0xe0, calldataload(0x00))\n      dup1\n      0x0eed4e0a\n      eq\n      tag_3\n      jumpi\n      dup1\n      0x299d6a6e\n      eq\n      tag_4\n      jumpi\n      dup1\n      0x4a136077\n      eq\n      tag_5\n      jumpi\n      dup1\n      0x9253f734\n      eq\n      tag_6\n      jumpi\n      dup1\n      0x93384581\n      eq\n      tag_7\n      jumpi\n      dup1\n      0xe8a9e04d\n      eq\n      tag_8\n      jumpi\n    tag_2:\n      0x00\n      dup1\n      revert\n        /* \"structs.sol\":532:652  function addApadrinhado(uint _id, string memory _name) public{... */\n    tag_3:\n      tag_9\n      0x04\n      dup1\n      calldatasize\n      sub\n      dup2\n      add\n      swap1\n      tag_10\n      swap2\n      swap1\n      tag_11\n      jump\t// in\n    tag_10:\n      tag_12\n      jump\t// in\n    tag_9:\n      stop\n        /* \"structs.sol\":399:524  function getApadrinhados(uint _id) public view returns(string[] memory){... */\n    tag_4:\n      tag_13\n      0x04\n      dup1\n      calldatasize\n      sub\n      dup2\n      add\n      swap1\n      tag_14\n      swap2\n      swap1\n      tag_15\n      jump\t// in\n    tag_14:\n      tag_16\n      jump\t// in\n    tag_13:\n      mload(0x40)\n      tag_17\n      swap2\n      swap1\n      tag_18\n      jump\t// in\n    tag_17:\n      mload(0x40)\n      dup1\n      swap2\n      sub\n      swap1\n      return\n        /* \"structs.sol\":660:1179  function delApadrinhado(uint _idPadrin,uint _idApadrinhado) public{... */\n    tag_5:\n      tag_19\n      0x04\n      dup1\n      calldatasize\n      sub\n      dup2\n      add\n      swap1\n      tag_20\n      swap2\n      swap1\n      tag_21\n      jump\t// in\n    tag_20:\n      tag_22\n      jump\t// in\n    tag_19:\n      stop\n        /* \"structs.sol\":1193:1397  function getPadrin(uint _id) view public returns(uint8,string memory, string[]memory){... */\n    tag_6:\n      tag_23\n      0x04\n      dup1\n      calldatasize\n      sub\n      dup2\n      add\n      swap1\n      tag_24\n      swap2\n      swap1\n      tag_15\n      jump\t// in\n    tag_24:\n      tag_25\n      jump\t// in\n    tag_23:\n      mload(0x40)\n      tag_26\n      swap4\n      swap3\n      swap2\n      swap1\n      tag_27\n      jump\t// in\n    tag_26:\n      mload(0x40)\n      dup1\n      swap2\n      sub\n      swap1\n      return\n        /* \"structs.sol\":230:391  function addPadrin(uint8 _age, string memory _name) public {... */\n    tag_7:\n      tag_28\n      0x04\n      dup1\n      calldatasize\n      sub\n      dup2\n      add\n      swap1\n      tag_29\n      swap2\n      swap1\n      tag_30\n      jump\t// in\n    tag_29:\n      tag_31\n      jump\t// in\n    tag_28:\n      stop\n        /* \"structs.sol\":195:221  Padrin[] public padrinhage */\n    tag_8:\n      tag_32\n      0x04\n      dup1\n      calldatasize\n      sub\n      dup2\n      add\n      swap1\n      tag_33\n      swap2\n      swap1\n      tag_15\n      jump\t// in\n    tag_33:\n      tag_34\n      jump\t// in\n    tag_32:\n      mload(0x40)\n      tag_35\n      swap3\n      swap2\n      swap1\n      tag_36\n      jump\t// in\n    tag_35:\n      mload(0x40)\n      dup1\n      swap2\n      sub\n      swap1\n      return\n        /* \"structs.sol\":532:652  function addApadrinhado(uint _id, string memory _name) public{... */\n    tag_12:\n        /* \"structs.sol\":604:614  padrinhage */\n      0x00\n        /* \"structs.sol\":615:618  _id */\n      dup3\n        /* \"structs.sol\":604:619  padrinhage[_id] */\n      dup2\n      sload\n      dup2\n      lt\n      tag_38\n      jumpi\n      tag_39\n      tag_40\n      jump\t// in\n    tag_39:\n    tag_38:\n      swap1\n      0x00\n      mstore\n      keccak256(0x00, 0x20)\n      swap1\n      0x03\n      mul\n      add\n        /* \"structs.sol\":604:632  padrinhage[_id].apadrinhados */\n      0x02\n      add\n        /* \"structs.sol\":638:643  _name */\n      dup2\n        /* \"structs.sol\":604:644  padrinhage[_id].apadrinhados.push(_name) */\n      swap1\n      dup1\n      0x01\n      dup2\n      sload\n      add\n      dup1\n      dup3\n      sstore\n      dup1\n      swap2\n      pop\n      pop\n      0x01\n      swap1\n      sub\n      swap1\n      0x00\n      mstore\n      keccak256(0x00, 0x20)\n      add\n      0x00\n      swap1\n      swap2\n      swap1\n      swap2\n      swap1\n      swap2\n      pop\n      swap1\n      dup2\n      tag_43\n      swap2\n      swap1\n      tag_44\n      jump\t// in\n    tag_43:\n      pop\n        /* \"structs.sol\":532:652  function addApadrinhado(uint _id, string memory _name) public{... */\n      pop\n      pop\n      jump\t// out\n        /* \"structs.sol\":399:524  function getApadrinhados(uint _id) public view returns(string[] memory){... */\n    tag_16:\n        /* \"structs.sol\":454:469  string[] memory */\n      0x60\n        /* \"structs.sol\":488:498  padrinhage */\n      0x00\n        /* \"structs.sol\":499:502  _id */\n      dup3\n        /* \"structs.sol\":488:503  padrinhage[_id] */\n      dup2\n      sload\n      dup2\n      lt\n      tag_46\n      jumpi\n      tag_47\n      tag_40\n      jump\t// in\n    tag_47:\n    tag_46:\n      swap1\n      0x00\n      mstore\n      keccak256(0x00, 0x20)\n      swap1\n      0x03\n      mul\n      add\n        /* \"structs.sol\":488:516  padrinhage[_id].apadrinhados */\n      0x02\n      add\n        /* \"structs.sol\":481:516  return padrinhage[_id].apadrinhados */\n      dup1\n      sload\n      dup1\n      0x20\n      mul\n      0x20\n      add\n      mload(0x40)\n      swap1\n      dup2\n      add\n      0x40\n      mstore\n      dup1\n      swap3\n      swap2\n      swap1\n      dup2\n      dup2\n      mstore\n      0x20\n      add\n      0x00\n      swap1\n    tag_49:\n      dup3\n      dup3\n      lt\n      iszero\n      tag_50\n      jumpi\n      dup4\n      dup3\n      swap1\n      0x00\n      mstore\n      keccak256(0x00, 0x20)\n      add\n      dup1\n      sload\n      tag_52\n      swap1\n      tag_53\n      jump\t// in\n    tag_52:\n      dup1\n      0x1f\n      add\n      0x20\n      dup1\n      swap2\n      div\n      mul\n      0x20\n      add\n      mload(0x40)\n      swap1\n      dup2\n      add\n      0x40\n      mstore\n      dup1\n      swap3\n      swap2\n      swap1\n      dup2\n      dup2\n      mstore\n      0x20\n      add\n      dup3\n      dup1\n      sload\n      tag_54\n      swap1\n      tag_53\n      jump\t// in\n    tag_54:\n      dup1\n      iszero\n      tag_55\n      jumpi\n      dup1\n      0x1f\n      lt\n      tag_56\n      jumpi\n      0x0100\n      dup1\n      dup4\n      sload\n      div\n      mul\n      dup4\n      mstore\n      swap2\n      0x20\n      add\n      swap2\n      jump(tag_55)\n    tag_56:\n      dup3\n      add\n      swap2\n      swap1\n      0x00\n      mstore\n      keccak256(0x00, 0x20)\n      swap1\n    tag_57:\n      dup2\n      sload\n      dup2\n      mstore\n      swap1\n      0x01\n      add\n      swap1\n      0x20\n      add\n      dup1\n      dup4\n      gt\n      tag_57\n      jumpi\n      dup3\n      swap1\n      sub\n      0x1f\n      and\n      dup3\n      add\n      swap2\n    tag_55:\n      pop\n      pop\n      pop\n      pop\n      pop\n      dup2\n      mstore\n      0x20\n      add\n      swap1\n      0x01\n      add\n      swap1\n      jump(tag_49)\n    tag_50:\n      pop\n      pop\n      pop\n      pop\n      swap1\n      pop\n        /* \"structs.sol\":399:524  function getApadrinhados(uint _id) public view returns(string[] memory){... */\n      swap2\n      swap1\n      pop\n      jump\t// out\n        /* \"structs.sol\":660:1179  function delApadrinhado(uint _idPadrin,uint _idApadrinhado) public{... */\n    tag_22:\n        /* \"structs.sol\":765:775  padrinhage */\n      0x00\n        /* \"structs.sol\":776:785  _idPadrin */\n      dup3\n        /* \"structs.sol\":765:786  padrinhage[_idPadrin] */\n      dup2\n      sload\n      dup2\n      lt\n      tag_59\n      jumpi\n      tag_60\n      tag_40\n      jump\t// in\n    tag_60:\n    tag_59:\n      swap1\n      0x00\n      mstore\n      keccak256(0x00, 0x20)\n      swap1\n      0x03\n      mul\n      add\n        /* \"structs.sol\":765:799  padrinhage[_idPadrin].apadrinhados */\n      0x02\n      add\n        /* \"structs.sol\":765:806  padrinhage[_idPadrin].apadrinhados.length */\n      dup1\n      sload\n      swap1\n      pop\n        /* \"structs.sol\":747:761  _idApadrinhado */\n      dup2\n        /* \"structs.sol\":747:806  _idApadrinhado >= padrinhage[_idPadrin].apadrinhados.length */\n      lt\n        /* \"structs.sol\":737:808  require(!(_idApadrinhado >= padrinhage[_idPadrin].apadrinhados.length)) */\n      tag_62\n      jumpi\n      0x00\n      dup1\n      revert\n    tag_62:\n        /* \"structs.sol\":883:884  1 */\n      0x01\n        /* \"structs.sol\":840:850  padrinhage */\n      0x00\n        /* \"structs.sol\":851:860  _idPadrin */\n      dup4\n        /* \"structs.sol\":840:861  padrinhage[_idPadrin] */\n      dup2\n      sload\n      dup2\n      lt\n      tag_63\n      jumpi\n      tag_64\n      tag_40\n      jump\t// in\n    tag_64:\n    tag_63:\n      swap1\n      0x00\n      mstore\n      keccak256(0x00, 0x20)\n      swap1\n      0x03\n      mul\n      add\n        /* \"structs.sol\":840:874  padrinhage[_idPadrin].apadrinhados */\n      0x02\n      add\n        /* \"structs.sol\":840:881  padrinhage[_idPadrin].apadrinhados.length */\n      dup1\n      sload\n      swap1\n      pop\n        /* \"structs.sol\":840:884  padrinhage[_idPadrin].apadrinhados.length -1 */\n      tag_66\n      swap2\n      swap1\n      tag_67\n      jump\t// in\n    tag_66:\n        /* \"structs.sol\":822:836  _idApadrinhado */\n      dup2\n        /* \"structs.sol\":822:884  _idApadrinhado == padrinhage[_idPadrin].apadrinhados.length -1 */\n      sub\n        /* \"structs.sol\":819:1172  if(_idApadrinhado == padrinhage[_idPadrin].apadrinhados.length -1){... */\n      tag_68\n      jumpi\n        /* \"structs.sol\":900:910  padrinhage */\n      0x00\n        /* \"structs.sol\":911:920  _idPadrin */\n      dup3\n        /* \"structs.sol\":900:921  padrinhage[_idPadrin] */\n      dup2\n      sload\n      dup2\n      lt\n      tag_69\n      jumpi\n      tag_70\n      tag_40\n      jump\t// in\n    tag_70:\n    tag_69:\n      swap1\n      0x00\n      mstore\n      keccak256(0x00, 0x20)\n      swap1\n      0x03\n      mul\n      add\n        /* \"structs.sol\":900:934  padrinhage[_idPadrin].apadrinhados */\n      0x02\n      add\n        /* \"structs.sol\":900:940  padrinhage[_idPadrin].apadrinhados.pop() */\n      dup1\n      sload\n      dup1\n      tag_72\n      jumpi\n      tag_73\n      tag_74\n      jump\t// in\n    tag_73:\n    tag_72:\n      0x01\n      swap1\n      sub\n      dup2\n      dup2\n      swap1\n      0x00\n      mstore\n      keccak256(0x00, 0x20)\n      add\n      0x00\n      tag_76\n      swap2\n      swap1\n      tag_77\n      jump\t// in\n    tag_76:\n      swap1\n      sstore\n        /* \"structs.sol\":819:1172  if(_idApadrinhado == padrinhage[_idPadrin].apadrinhados.length -1){... */\n      jump(tag_78)\n    tag_68:\n        /* \"structs.sol\":1024:1034  padrinhage */\n      0x00\n        /* \"structs.sol\":1035:1044  _idPadrin */\n      dup3\n        /* \"structs.sol\":1024:1045  padrinhage[_idPadrin] */\n      dup2\n      sload\n      dup2\n      lt\n      tag_79\n      jumpi\n      tag_80\n      tag_40\n      jump\t// in\n    tag_80:\n    tag_79:\n      swap1\n      0x00\n      mstore\n      keccak256(0x00, 0x20)\n      swap1\n      0x03\n      mul\n      add\n        /* \"structs.sol\":1024:1058  padrinhage[_idPadrin].apadrinhados */\n      0x02\n      add\n        /* \"structs.sol\":1103:1104  1 */\n      0x01\n        /* \"structs.sol\":1059:1069  padrinhage */\n      0x00\n        /* \"structs.sol\":1070:1079  _idPadrin */\n      dup5\n        /* \"structs.sol\":1059:1080  padrinhage[_idPadrin] */\n      dup2\n      sload\n      dup2\n      lt\n      tag_82\n      jumpi\n      tag_83\n      tag_40\n      jump\t// in\n    tag_83:\n    tag_82:\n      swap1\n      0x00\n      mstore\n      keccak256(0x00, 0x20)\n      swap1\n      0x03\n      mul\n      add\n        /* \"structs.sol\":1059:1093  padrinhage[_idPadrin].apadrinhados */\n      0x02\n      add\n        /* \"structs.sol\":1059:1100  padrinhage[_idPadrin].apadrinhados.length */\n      dup1\n      sload\n      swap1\n      pop\n        /* \"structs.sol\":1059:1104  padrinhage[_idPadrin].apadrinhados.length - 1 */\n      tag_85\n      swap2\n      swap1\n      tag_67\n      jump\t// in\n    tag_85:\n        /* \"structs.sol\":1024:1105  padrinhage[_idPadrin].apadrinhados[padrinhage[_idPadrin].apadrinhados.length - 1] */\n      dup2\n      sload\n      dup2\n      lt\n      tag_86\n      jumpi\n      tag_87\n      tag_40\n      jump\t// in\n    tag_87:\n    tag_86:\n      swap1\n      0x00\n      mstore\n      keccak256(0x00, 0x20)\n      add\n        /* \"structs.sol\":971:981  padrinhage */\n      0x00\n        /* \"structs.sol\":982:991  _idPadrin */\n      dup4\n        /* \"structs.sol\":971:992  padrinhage[_idPadrin] */\n      dup2\n      sload\n      dup2\n      lt\n      tag_89\n      jumpi\n      tag_90\n      tag_40\n      jump\t// in\n    tag_90:\n    tag_89:\n      swap1\n      0x00\n      mstore\n      keccak256(0x00, 0x20)\n      swap1\n      0x03\n      mul\n      add\n        /* \"structs.sol\":971:1005  padrinhage[_idPadrin].apadrinhados */\n      0x02\n      add\n        /* \"structs.sol\":1006:1020  _idApadrinhado */\n      dup3\n        /* \"structs.sol\":971:1021  padrinhage[_idPadrin].apadrinhados[_idApadrinhado] */\n      dup2\n      sload\n      dup2\n      lt\n      tag_92\n      jumpi\n      tag_93\n      tag_40\n      jump\t// in\n    tag_93:\n    tag_92:\n      swap1\n      0x00\n      mstore\n      keccak256(0x00, 0x20)\n      add\n        /* \"structs.sol\":971:1105  padrinhage[_idPadrin].apadrinhados[_idApadrinhado] = padrinhage[_idPadrin].apadrinhados[padrinhage[_idPadrin].apadrinhados.length - 1] */\n      swap1\n      dup2\n      tag_95\n      swap2\n      swap1\n      tag_96\n      jump\t// in\n    tag_95:\n      pop\n        /* \"structs.sol\":1120:1130  padrinhage */\n      0x00\n        /* \"structs.sol\":1131:1140  _idPadrin */\n      dup3\n        /* \"structs.sol\":1120:1141  padrinhage[_idPadrin] */\n      dup2\n      sload\n      dup2\n      lt\n      tag_97\n      jumpi\n      tag_98\n      tag_40\n      jump\t// in\n    tag_98:\n    tag_97:\n      swap1\n      0x00\n      mstore\n      keccak256(0x00, 0x20)\n      swap1\n      0x03\n      mul\n      add\n        /* \"structs.sol\":1120:1154  padrinhage[_idPadrin].apadrinhados */\n      0x02\n      add\n        /* \"structs.sol\":1120:1160  padrinhage[_idPadrin].apadrinhados.pop() */\n      dup1\n      sload\n      dup1\n      tag_100\n      jumpi\n      tag_101\n      tag_74\n      jump\t// in\n    tag_101:\n    tag_100:\n      0x01\n      swap1\n      sub\n      dup2\n      dup2\n      swap1\n      0x00\n      mstore\n      keccak256(0x00, 0x20)\n      add\n      0x00\n      tag_103\n      swap2\n      swap1\n      tag_77\n      jump\t// in\n    tag_103:\n      swap1\n      sstore\n        /* \"structs.sol\":819:1172  if(_idApadrinhado == padrinhage[_idPadrin].apadrinhados.length -1){... */\n    tag_78:\n        /* \"structs.sol\":660:1179  function delApadrinhado(uint _idPadrin,uint _idApadrinhado) public{... */\n      pop\n      pop\n      jump\t// out\n        /* \"structs.sol\":1193:1397  function getPadrin(uint _id) view public returns(uint8,string memory, string[]memory){... */\n    tag_25:\n        /* \"structs.sol\":1242:1247  uint8 */\n      0x00\n        /* \"structs.sol\":1248:1261  string memory */\n      0x60\n        /* \"structs.sol\":1263:1277  string[]memory */\n      dup1\n        /* \"structs.sol\":1289:1309  Padrin memory padrin */\n      0x00\n        /* \"structs.sol\":1312:1322  padrinhage */\n      dup1\n        /* \"structs.sol\":1323:1326  _id */\n      dup6\n        /* \"structs.sol\":1312:1327  padrinhage[_id] */\n      dup2\n      sload\n      dup2\n      lt\n      tag_105\n      jumpi\n      tag_106\n      tag_40\n      jump\t// in\n    tag_106:\n    tag_105:\n      swap1\n      0x00\n      mstore\n      keccak256(0x00, 0x20)\n      swap1\n      0x03\n      mul\n      add\n        /* \"structs.sol\":1289:1327  Padrin memory padrin = padrinhage[_id] */\n      mload(0x40)\n      dup1\n      0x60\n      add\n      0x40\n      mstore\n      swap1\n      dup2\n      0x00\n      dup3\n      add\n      0x00\n      swap1\n      sload\n      swap1\n      0x0100\n      exp\n      swap1\n      div\n      0xff\n      and\n      0xff\n      and\n      0xff\n      and\n      dup2\n      mstore\n      0x20\n      add\n      0x01\n      dup3\n      add\n      dup1\n      sload\n      tag_108\n      swap1\n      tag_53\n      jump\t// in\n    tag_108:\n      dup1\n      0x1f\n      add\n      0x20\n      dup1\n      swap2\n      div\n      mul\n      0x20\n      add\n      mload(0x40)\n      swap1\n      dup2\n      add\n      0x40\n      mstore\n      dup1\n      swap3\n      swap2\n      swap1\n      dup2\n      dup2\n      mstore\n      0x20\n      add\n      dup3\n      dup1\n      sload\n      tag_109\n      swap1\n      tag_53\n      jump\t// in\n    tag_109:\n      dup1\n      iszero\n      tag_110\n      jumpi\n      dup1\n      0x1f\n      lt\n      tag_111\n      jumpi\n      0x0100\n      dup1\n      dup4\n      sload\n      div\n      mul\n      dup4\n      mstore\n      swap2\n      0x20\n      add\n      swap2\n      jump(tag_110)\n    tag_111:\n      dup3\n      add\n      swap2\n      swap1\n      0x00\n      mstore\n      keccak256(0x00, 0x20)\n      swap1\n    tag_112:\n      dup2\n      sload\n      dup2\n      mstore\n      swap1\n      0x01\n      add\n      swap1\n      0x20\n      add\n      dup1\n      dup4\n      gt\n      tag_112\n      jumpi\n      dup3\n      swap1\n      sub\n      0x1f\n      and\n      dup3\n      add\n      swap2\n    tag_110:\n      pop\n      pop\n      pop\n      pop\n      pop\n      dup2\n      mstore\n      0x20\n      add\n      0x02\n      dup3\n      add\n      dup1\n      sload\n      dup1\n      0x20\n      mul\n      0x20\n      add\n      mload(0x40)\n      swap1\n      dup2\n      add\n      0x40\n      mstore\n      dup1\n      swap3\n      swap2\n      swap1\n      dup2\n      dup2\n      mstore\n      0x20\n      add\n      0x00\n      swap1\n    tag_113:\n      dup3\n      dup3\n      lt\n      iszero\n      tag_114\n      jumpi\n      dup4\n      dup3\n      swap1\n      0x00\n      mstore\n      keccak256(0x00, 0x20)\n      add\n      dup1\n      sload\n      tag_116\n      swap1\n      tag_53\n      jump\t// in\n    tag_116:\n      dup1\n      0x1f\n      add\n      0x20\n      dup1\n      swap2\n      div\n      mul\n      0x20\n      add\n      mload(0x40)\n      swap1\n      dup2\n      add\n      0x40\n      mstore\n      dup1\n      swap3\n      swap2\n      swap1\n      dup2\n      dup2\n      mstore\n      0x20\n      add\n      dup3\n      dup1\n      sload\n      tag_117\n      swap1\n      tag_53\n      jump\t// in\n    tag_117:\n      dup1\n      iszero\n      tag_118\n      jumpi\n      dup1\n      0x1f\n      lt\n      tag_119\n      jumpi\n      0x0100\n      dup1\n      dup4\n      sload\n      div\n      mul\n      dup4\n      mstore\n      swap2\n      0x20\n      add\n      swap2\n      jump(tag_118)\n    tag_119:\n      dup3\n      add\n      swap2\n      swap1\n      0x00\n      mstore\n      keccak256(0x00, 0x20)\n      swap1\n    tag_120:\n      dup2\n      sload\n      dup2\n      mstore\n      swap1\n      0x01\n      add\n      swap1\n      0x20\n      add\n      dup1\n      dup4\n      gt\n      tag_120\n      jumpi\n      dup3\n      swap1\n      sub\n      0x1f\n      and\n      dup3\n      add\n      swap2\n    tag_118:\n      pop\n      pop\n      pop\n      pop\n      pop\n      dup2\n      mstore\n      0x20\n      add\n      swap1\n      0x01\n      add\n      swap1\n      jump(tag_113)\n    tag_114:\n      pop\n      pop\n      pop\n      pop\n      dup2\n      mstore\n      pop\n      pop\n      swap1\n      pop\n        /* \"structs.sol\":1346:1352  padrin */\n      dup1\n        /* \"structs.sol\":1346:1356  padrin.age */\n      0x00\n      add\n      mload\n        /* \"structs.sol\":1357:1363  padrin */\n      dup2\n        /* \"structs.sol\":1357:1368  padrin.name */\n      0x20\n      add\n      mload\n        /* \"structs.sol\":1369:1375  padrin */\n      dup3\n        /* \"structs.sol\":1369:1388  padrin.apadrinhados */\n      0x40\n      add\n      mload\n        /* \"structs.sol\":1338:1389  return (padrin.age,padrin.name,padrin.apadrinhados) */\n      swap4\n      pop\n      swap4\n      pop\n      swap4\n      pop\n      pop\n        /* \"structs.sol\":1193:1397  function getPadrin(uint _id) view public returns(uint8,string memory, string[]memory){... */\n      swap2\n      swap4\n      swap1\n      swap3\n      pop\n      jump\t// out\n        /* \"structs.sol\":230:391  function addPadrin(uint8 _age, string memory _name) public {... */\n    tag_31:\n        /* \"structs.sol\":300:326  string[] memory emptyArray */\n      0x60\n        /* \"structs.sol\":337:347  padrinhage */\n      0x00\n        /* \"structs.sol\":353:382  Padrin(_age,_name,emptyArray) */\n      mload(0x40)\n      dup1\n      0x60\n      add\n      0x40\n      mstore\n      dup1\n        /* \"structs.sol\":360:364  _age */\n      dup6\n        /* \"structs.sol\":353:382  Padrin(_age,_name,emptyArray) */\n      0xff\n      and\n      dup2\n      mstore\n      0x20\n      add\n        /* \"structs.sol\":365:370  _name */\n      dup5\n        /* \"structs.sol\":353:382  Padrin(_age,_name,emptyArray) */\n      dup2\n      mstore\n      0x20\n      add\n        /* \"structs.sol\":371:381  emptyArray */\n      dup4\n        /* \"structs.sol\":353:382  Padrin(_age,_name,emptyArray) */\n      dup2\n      mstore\n      pop\n        /* \"structs.sol\":337:383  padrinhage.push(Padrin(_age,_name,emptyArray)) */\n      swap1\n      dup1\n      0x01\n      dup2\n      sload\n      add\n      dup1\n      dup3\n      sstore\n      dup1\n      swap2\n      pop\n      pop\n      0x01\n      swap1\n      sub\n      swap1\n      0x00\n      mstore\n      keccak256(0x00, 0x20)\n      swap1\n      0x03\n      mul\n      add\n      0x00\n      swap1\n      swap2\n      swap1\n      swap2\n      swap1\n      swap2\n      pop\n      0x00\n      dup3\n      add\n      mload\n      dup2\n      0x00\n      add\n      exp(0x0100, 0x00)\n      dup2\n      sload\n      dup2\n      0xff\n      mul\n      not\n      and\n      swap1\n      dup4\n      0xff\n      and\n      mul\n      or\n      swap1\n      sstore\n      pop\n      0x20\n      dup3\n      add\n      mload\n      dup2\n      0x01\n      add\n      swap1\n      dup2\n      tag_123\n      swap2\n      swap1\n      tag_44\n      jump\t// in\n    tag_123:\n      pop\n      0x40\n      dup3\n      add\n      mload\n      dup2\n      0x02\n      add\n      swap1\n      dup1\n      mload\n      swap1\n      0x20\n      add\n      swap1\n      tag_124\n      swap3\n      swap2\n      swap1\n      tag_125\n      jump\t// in\n    tag_124:\n      pop\n      pop\n      pop\n        /* \"structs.sol\":289:391  {... */\n      pop\n        /* \"structs.sol\":230:391  function addPadrin(uint8 _age, string memory _name) public {... */\n      pop\n      pop\n      jump\t// out\n        /* \"structs.sol\":195:221  Padrin[] public padrinhage */\n    tag_34:\n      0x00\n      dup2\n      dup2\n      sload\n      dup2\n      lt\n      tag_126\n      jumpi\n      0x00\n      dup1\n      revert\n    tag_126:\n      swap1\n      0x00\n      mstore\n      keccak256(0x00, 0x20)\n      swap1\n      0x03\n      mul\n      add\n      0x00\n      swap2\n      pop\n      swap1\n      pop\n      dup1\n      0x00\n      add\n      0x00\n      swap1\n      sload\n      swap1\n      0x0100\n      exp\n      swap1\n      div\n      0xff\n      and\n      swap1\n      dup1\n      0x01\n      add\n      dup1\n      sload\n      tag_128\n      swap1\n      tag_53\n      jump\t// in\n    tag_128:\n      dup1\n      0x1f\n      add\n      0x20\n      dup1\n      swap2\n      div\n      mul\n      0x20\n      add\n      mload(0x40)\n      swap1\n      dup2\n      add\n      0x40\n      mstore\n      dup1\n      swap3\n      swap2\n      swap1\n      dup2\n      dup2\n      mstore\n      0x20\n      add\n      dup3\n      dup1\n      sload\n      tag_129\n      swap1\n      tag_53\n      jump\t// in\n    tag_129:\n      dup1\n      iszero\n      tag_130\n      jumpi\n      dup1\n      0x1f\n      lt\n      tag_131\n      jumpi\n      0x0100\n      dup1\n      dup4\n      sload\n      div\n      mul\n      dup4\n      mstore\n      swap2\n      0x20\n      add\n      swap2\n      jump(tag_130)\n    tag_131:\n      dup3\n      add\n      swap2\n      swap1\n      0x00\n      mstore\n      keccak256(0x00, 0x20)\n      swap1\n    tag_132:\n      dup2\n      sload\n      dup2\n      mstore\n      swap1\n      0x01\n      add\n      swap1\n      0x20\n      add\n      dup1\n      dup4\n      gt\n      tag_132\n      jumpi\n      dup3\n      swap1\n      sub\n      0x1f\n      and\n      dup3\n      add\n      swap2\n    tag_130:\n      pop\n      pop\n      pop\n      pop\n      pop\n      swap1\n      pop\n      dup3\n      jump\t// out\n    tag_77:\n      pop\n      dup1\n      sload\n      tag_133\n      swap1\n      tag_53\n      jump\t// in\n    tag_133:\n      0x00\n      dup3\n      sstore\n      dup1\n      0x1f\n      lt\n      tag_135\n      jumpi\n      pop\n      jump(tag_134)\n    tag_135:\n      0x1f\n      add\n      0x20\n      swap1\n      div\n      swap1\n      0x00\n      mstore\n      keccak256(0x00, 0x20)\n      swap1\n      dup2\n      add\n      swap1\n      tag_136\n      swap2\n      swap1\n      tag_137\n      jump\t// in\n    tag_136:\n    tag_134:\n      pop\n      jump\t// out\n    tag_125:\n      dup3\n      dup1\n      sload\n      dup3\n      dup3\n      sstore\n      swap1\n      0x00\n      mstore\n      keccak256(0x00, 0x20)\n      swap1\n      dup2\n      add\n      swap3\n      dup3\n      iszero\n      tag_138\n      jumpi\n      swap2\n      0x20\n      mul\n      dup3\n      add\n    tag_139:\n      dup3\n      dup2\n      gt\n      iszero\n      tag_140\n      jumpi\n      dup3\n      mload\n      dup3\n      swap1\n      dup2\n      tag_141\n      swap2\n      swap1\n      tag_44\n      jump\t// in\n    tag_141:\n      pop\n      swap2\n      0x20\n      add\n      swap2\n      swap1\n      0x01\n      add\n      swap1\n      jump(tag_139)\n    tag_140:\n    tag_138:\n      pop\n      swap1\n      pop\n      tag_142\n      swap2\n      swap1\n      tag_143\n      jump\t// in\n    tag_142:\n      pop\n      swap1\n      jump\t// out\n    tag_137:\n    tag_144:\n      dup1\n      dup3\n      gt\n      iszero\n      tag_145\n      jumpi\n      0x00\n      dup2\n      0x00\n      swap1\n      sstore\n      pop\n      0x01\n      add\n      jump(tag_144)\n    tag_145:\n      pop\n      swap1\n      jump\t// out\n    tag_143:\n    tag_146:\n      dup1\n      dup3\n      gt\n      iszero\n      tag_147\n      jumpi\n      0x00\n      dup2\n      dup2\n      tag_148\n      swap2\n      swap1\n      tag_77\n      jump\t// in\n    tag_148:\n      pop\n      0x01\n      add\n      jump(tag_146)\n    tag_147:\n      pop\n      swap1\n      jump\t// out\n        /* \"#utility.yul\":7:82   */\n    tag_149:\n        /* \"#utility.yul\":40:46   */\n      0x00\n        /* \"#utility.yul\":73:75   */\n      0x40\n        /* \"#utility.yul\":67:76   */\n      mload\n        /* \"#utility.yul\":57:76   */\n      swap1\n      pop\n        /* \"#utility.yul\":7:82   */\n      swap1\n      jump\t// out\n        /* \"#utility.yul\":88:205   */\n    tag_150:\n        /* \"#utility.yul\":197:198   */\n      0x00\n        /* \"#utility.yul\":194:195   */\n      dup1\n        /* \"#utility.yul\":187:199   */\n      revert\n        /* \"#utility.yul\":211:328   */\n    tag_151:\n        /* \"#utility.yul\":320:321   */\n      0x00\n        /* \"#utility.yul\":317:318   */\n      dup1\n        /* \"#utility.yul\":310:322   */\n      revert\n        /* \"#utility.yul\":334:411   */\n    tag_152:\n        /* \"#utility.yul\":371:378   */\n      0x00\n        /* \"#utility.yul\":400:405   */\n      dup2\n        /* \"#utility.yul\":389:405   */\n      swap1\n      pop\n        /* \"#utility.yul\":334:411   */\n      swap2\n      swap1\n      pop\n      jump\t// out\n        /* \"#utility.yul\":417:539   */\n    tag_153:\n        /* \"#utility.yul\":490:514   */\n      tag_206\n        /* \"#utility.yul\":508:513   */\n      dup2\n        /* \"#utility.yul\":490:514   */\n      tag_152\n      jump\t// in\n    tag_206:\n        /* \"#utility.yul\":483:488   */\n      dup2\n        /* \"#utility.yul\":480:515   */\n      eq\n        /* \"#utility.yul\":470:533   */\n      tag_207\n      jumpi\n        /* \"#utility.yul\":529:530   */\n      0x00\n        /* \"#utility.yul\":526:527   */\n      dup1\n        /* \"#utility.yul\":519:531   */\n      revert\n        /* \"#utility.yul\":470:533   */\n    tag_207:\n        /* \"#utility.yul\":417:539   */\n      pop\n      jump\t// out\n        /* \"#utility.yul\":545:684   */\n    tag_154:\n        /* \"#utility.yul\":591:596   */\n      0x00\n        /* \"#utility.yul\":629:635   */\n      dup2\n        /* \"#utility.yul\":616:636   */\n      calldataload\n        /* \"#utility.yul\":607:636   */\n      swap1\n      pop\n        /* \"#utility.yul\":645:678   */\n      tag_209\n        /* \"#utility.yul\":672:677   */\n      dup2\n        /* \"#utility.yul\":645:678   */\n      tag_153\n      jump\t// in\n    tag_209:\n        /* \"#utility.yul\":545:684   */\n      swap3\n      swap2\n      pop\n      pop\n      jump\t// out\n        /* \"#utility.yul\":690:807   */\n    tag_155:\n        /* \"#utility.yul\":799:800   */\n      0x00\n        /* \"#utility.yul\":796:797   */\n      dup1\n        /* \"#utility.yul\":789:801   */\n      revert\n        /* \"#utility.yul\":813:930   */\n    tag_156:\n        /* \"#utility.yul\":922:923   */\n      0x00\n        /* \"#utility.yul\":919:920   */\n      dup1\n        /* \"#utility.yul\":912:924   */\n      revert\n        /* \"#utility.yul\":936:1038   */\n    tag_157:\n        /* \"#utility.yul\":977:983   */\n      0x00\n        /* \"#utility.yul\":1028:1030   */\n      0x1f\n        /* \"#utility.yul\":1024:1031   */\n      not\n        /* \"#utility.yul\":1019:1021   */\n      0x1f\n        /* \"#utility.yul\":1012:1017   */\n      dup4\n        /* \"#utility.yul\":1008:1022   */\n      add\n        /* \"#utility.yul\":1004:1032   */\n      and\n        /* \"#utility.yul\":994:1032   */\n      swap1\n      pop\n        /* \"#utility.yul\":936:1038   */\n      swap2\n      swap1\n      pop\n      jump\t// out\n        /* \"#utility.yul\":1044:1224   */\n    tag_158:\n        /* \"#utility.yul\":1092:1169   */\n      0x4e487b7100000000000000000000000000000000000000000000000000000000\n        /* \"#utility.yul\":1089:1090   */\n      0x00\n        /* \"#utility.yul\":1082:1170   */\n      mstore\n        /* \"#utility.yul\":1189:1193   */\n      0x41\n        /* \"#utility.yul\":1186:1187   */\n      0x04\n        /* \"#utility.yul\":1179:1194   */\n      mstore\n        /* \"#utility.yul\":1213:1217   */\n      0x24\n        /* \"#utility.yul\":1210:1211   */\n      0x00\n        /* \"#utility.yul\":1203:1218   */\n      revert\n        /* \"#utility.yul\":1230:1511   */\n    tag_159:\n        /* \"#utility.yul\":1313:1340   */\n      tag_215\n        /* \"#utility.yul\":1335:1339   */\n      dup3\n        /* \"#utility.yul\":1313:1340   */\n      tag_157\n      jump\t// in\n    tag_215:\n        /* \"#utility.yul\":1305:1311   */\n      dup2\n        /* \"#utility.yul\":1301:1341   */\n      add\n        /* \"#utility.yul\":1443:1449   */\n      dup2\n        /* \"#utility.yul\":1431:1441   */\n      dup2\n        /* \"#utility.yul\":1428:1450   */\n      lt\n        /* \"#utility.yul\":1407:1425   */\n      0xffffffffffffffff\n        /* \"#utility.yul\":1395:1405   */\n      dup3\n        /* \"#utility.yul\":1392:1426   */\n      gt\n        /* \"#utility.yul\":1389:1451   */\n      or\n        /* \"#utility.yul\":1386:1474   */\n      iszero\n      tag_216\n      jumpi\n        /* \"#utility.yul\":1454:1472   */\n      tag_217\n      tag_158\n      jump\t// in\n    tag_217:\n        /* \"#utility.yul\":1386:1474   */\n    tag_216:\n        /* \"#utility.yul\":1494:1504   */\n      dup1\n        /* \"#utility.yul\":1490:1492   */\n      0x40\n        /* \"#utility.yul\":1483:1505   */\n      mstore\n        /* \"#utility.yul\":1273:1511   */\n      pop\n        /* \"#utility.yul\":1230:1511   */\n      pop\n      pop\n      jump\t// out\n        /* \"#utility.yul\":1517:1646   */\n    tag_160:\n        /* \"#utility.yul\":1551:1557   */\n      0x00\n        /* \"#utility.yul\":1578:1598   */\n      tag_219\n      tag_149\n      jump\t// in\n    tag_219:\n        /* \"#utility.yul\":1568:1598   */\n      swap1\n      pop\n        /* \"#utility.yul\":1607:1640   */\n      tag_220\n        /* \"#utility.yul\":1635:1639   */\n      dup3\n        /* \"#utility.yul\":1627:1633   */\n      dup3\n        /* \"#utility.yul\":1607:1640   */\n      tag_159\n      jump\t// in\n    tag_220:\n        /* \"#utility.yul\":1517:1646   */\n      swap2\n      swap1\n      pop\n      jump\t// out\n        /* \"#utility.yul\":1652:1960   */\n    tag_161:\n        /* \"#utility.yul\":1714:1718   */\n      0x00\n        /* \"#utility.yul\":1804:1822   */\n      0xffffffffffffffff\n        /* \"#utility.yul\":1796:1802   */\n      dup3\n        /* \"#utility.yul\":1793:1823   */\n      gt\n        /* \"#utility.yul\":1790:1846   */\n      iszero\n      tag_222\n      jumpi\n        /* \"#utility.yul\":1826:1844   */\n      tag_223\n      tag_158\n      jump\t// in\n    tag_223:\n        /* \"#utility.yul\":1790:1846   */\n    tag_222:\n        /* \"#utility.yul\":1864:1893   */\n      tag_224\n        /* \"#utility.yul\":1886:1892   */\n      dup3\n        /* \"#utility.yul\":1864:1893   */\n      tag_157\n      jump\t// in\n    tag_224:\n        /* \"#utility.yul\":1856:1893   */\n      swap1\n      pop\n        /* \"#utility.yul\":1948:1952   */\n      0x20\n        /* \"#utility.yul\":1942:1946   */\n      dup2\n        /* \"#utility.yul\":1938:1953   */\n      add\n        /* \"#utility.yul\":1930:1953   */\n      swap1\n      pop\n        /* \"#utility.yul\":1652:1960   */\n      swap2\n      swap1\n      pop\n      jump\t// out\n        /* \"#utility.yul\":1966:2112   */\n    tag_162:\n        /* \"#utility.yul\":2063:2069   */\n      dup3\n        /* \"#utility.yul\":2058:2061   */\n      dup2\n        /* \"#utility.yul\":2053:2056   */\n      dup4\n        /* \"#utility.yul\":2040:2070   */\n      calldatacopy\n        /* \"#utility.yul\":2104:2105   */\n      0x00\n        /* \"#utility.yul\":2095:2101   */\n      dup4\n        /* \"#utility.yul\":2090:2093   */\n      dup4\n        /* \"#utility.yul\":2086:2102   */\n      add\n        /* \"#utility.yul\":2079:2106   */\n      mstore\n        /* \"#utility.yul\":1966:2112   */\n      pop\n      pop\n      pop\n      jump\t// out\n        /* \"#utility.yul\":2118:2543   */\n    tag_163:\n        /* \"#utility.yul\":2196:2201   */\n      0x00\n        /* \"#utility.yul\":2221:2287   */\n      tag_227\n        /* \"#utility.yul\":2237:2286   */\n      tag_228\n        /* \"#utility.yul\":2279:2285   */\n      dup5\n        /* \"#utility.yul\":2237:2286   */\n      tag_161\n      jump\t// in\n    tag_228:\n        /* \"#utility.yul\":2221:2287   */\n      tag_160\n      jump\t// in\n    tag_227:\n        /* \"#utility.yul\":2212:2287   */\n      swap1\n      pop\n        /* \"#utility.yul\":2310:2316   */\n      dup3\n        /* \"#utility.yul\":2303:2308   */\n      dup2\n        /* \"#utility.yul\":2296:2317   */\n      mstore\n        /* \"#utility.yul\":2348:2352   */\n      0x20\n        /* \"#utility.yul\":2341:2346   */\n      dup2\n        /* \"#utility.yul\":2337:2353   */\n      add\n        /* \"#utility.yul\":2386:2389   */\n      dup5\n        /* \"#utility.yul\":2377:2383   */\n      dup5\n        /* \"#utility.yul\":2372:2375   */\n      dup5\n        /* \"#utility.yul\":2368:2384   */\n      add\n        /* \"#utility.yul\":2365:2390   */\n      gt\n        /* \"#utility.yul\":2362:2474   */\n      iszero\n      tag_229\n      jumpi\n        /* \"#utility.yul\":2393:2472   */\n      tag_230\n      tag_156\n      jump\t// in\n    tag_230:\n        /* \"#utility.yul\":2362:2474   */\n    tag_229:\n        /* \"#utility.yul\":2483:2537   */\n      tag_231\n        /* \"#utility.yul\":2530:2536   */\n      dup5\n        /* \"#utility.yul\":2525:2528   */\n      dup3\n        /* \"#utility.yul\":2520:2523   */\n      dup6\n        /* \"#utility.yul\":2483:2537   */\n      tag_162\n      jump\t// in\n    tag_231:\n        /* \"#utility.yul\":2202:2543   */\n      pop\n        /* \"#utility.yul\":2118:2543   */\n      swap4\n      swap3\n      pop\n      pop\n      pop\n      jump\t// out\n        /* \"#utility.yul\":2563:2903   */\n    tag_164:\n        /* \"#utility.yul\":2619:2624   */\n      0x00\n        /* \"#utility.yul\":2668:2671   */\n      dup3\n        /* \"#utility.yul\":2661:2665   */\n      0x1f\n        /* \"#utility.yul\":2653:2659   */\n      dup4\n        /* \"#utility.yul\":2649:2666   */\n      add\n        /* \"#utility.yul\":2645:2672   */\n      slt\n        /* \"#utility.yul\":2635:2757   */\n      tag_233\n      jumpi\n        /* \"#utility.yul\":2676:2755   */\n      tag_234\n      tag_155\n      jump\t// in\n    tag_234:\n        /* \"#utility.yul\":2635:2757   */\n    tag_233:\n        /* \"#utility.yul\":2793:2799   */\n      dup2\n        /* \"#utility.yul\":2780:2800   */\n      calldataload\n        /* \"#utility.yul\":2818:2897   */\n      tag_235\n        /* \"#utility.yul\":2893:2896   */\n      dup5\n        /* \"#utility.yul\":2885:2891   */\n      dup3\n        /* \"#utility.yul\":2878:2882   */\n      0x20\n        /* \"#utility.yul\":2870:2876   */\n      dup7\n        /* \"#utility.yul\":2866:2883   */\n      add\n        /* \"#utility.yul\":2818:2897   */\n      tag_163\n      jump\t// in\n    tag_235:\n        /* \"#utility.yul\":2809:2897   */\n      swap2\n      pop\n        /* \"#utility.yul\":2625:2903   */\n      pop\n        /* \"#utility.yul\":2563:2903   */\n      swap3\n      swap2\n      pop\n      pop\n      jump\t// out\n        /* \"#utility.yul\":2909:3563   */\n    tag_11:\n        /* \"#utility.yul\":2987:2993   */\n      0x00\n        /* \"#utility.yul\":2995:3001   */\n      dup1\n        /* \"#utility.yul\":3044:3046   */\n      0x40\n        /* \"#utility.yul\":3032:3041   */\n      dup4\n        /* \"#utility.yul\":3023:3030   */\n      dup6\n        /* \"#utility.yul\":3019:3042   */\n      sub\n        /* \"#utility.yul\":3015:3047   */\n      slt\n        /* \"#utility.yul\":3012:3131   */\n      iszero\n      tag_237\n      jumpi\n        /* \"#utility.yul\":3050:3129   */\n      tag_238\n      tag_150\n      jump\t// in\n    tag_238:\n        /* \"#utility.yul\":3012:3131   */\n    tag_237:\n        /* \"#utility.yul\":3170:3171   */\n      0x00\n        /* \"#utility.yul\":3195:3248   */\n      tag_239\n        /* \"#utility.yul\":3240:3247   */\n      dup6\n        /* \"#utility.yul\":3231:3237   */\n      dup3\n        /* \"#utility.yul\":3220:3229   */\n      dup7\n        /* \"#utility.yul\":3216:3238   */\n      add\n        /* \"#utility.yul\":3195:3248   */\n      tag_154\n      jump\t// in\n    tag_239:\n        /* \"#utility.yul\":3185:3248   */\n      swap3\n      pop\n        /* \"#utility.yul\":3141:3258   */\n      pop\n        /* \"#utility.yul\":3325:3327   */\n      0x20\n        /* \"#utility.yul\":3314:3323   */\n      dup4\n        /* \"#utility.yul\":3310:3328   */\n      add\n        /* \"#utility.yul\":3297:3329   */\n      calldataload\n        /* \"#utility.yul\":3356:3374   */\n      0xffffffffffffffff\n        /* \"#utility.yul\":3348:3354   */\n      dup2\n        /* \"#utility.yul\":3345:3375   */\n      gt\n        /* \"#utility.yul\":3342:3459   */\n      iszero\n      tag_240\n      jumpi\n        /* \"#utility.yul\":3378:3457   */\n      tag_241\n      tag_151\n      jump\t// in\n    tag_241:\n        /* \"#utility.yul\":3342:3459   */\n    tag_240:\n        /* \"#utility.yul\":3483:3546   */\n      tag_242\n        /* \"#utility.yul\":3538:3545   */\n      dup6\n        /* \"#utility.yul\":3529:3535   */\n      dup3\n        /* \"#utility.yul\":3518:3527   */\n      dup7\n        /* \"#utility.yul\":3514:3536   */\n      add\n        /* \"#utility.yul\":3483:3546   */\n      tag_164\n      jump\t// in\n    tag_242:\n        /* \"#utility.yul\":3473:3546   */\n      swap2\n      pop\n        /* \"#utility.yul\":3268:3556   */\n      pop\n        /* \"#utility.yul\":2909:3563   */\n      swap3\n      pop\n      swap3\n      swap1\n      pop\n      jump\t// out\n        /* \"#utility.yul\":3569:3898   */\n    tag_15:\n        /* \"#utility.yul\":3628:3634   */\n      0x00\n        /* \"#utility.yul\":3677:3679   */\n      0x20\n        /* \"#utility.yul\":3665:3674   */\n      dup3\n        /* \"#utility.yul\":3656:3663   */\n      dup5\n        /* \"#utility.yul\":3652:3675   */\n      sub\n        /* \"#utility.yul\":3648:3680   */\n      slt\n        /* \"#utility.yul\":3645:3764   */\n      iszero\n      tag_244\n      jumpi\n        /* \"#utility.yul\":3683:3762   */\n      tag_245\n      tag_150\n      jump\t// in\n    tag_245:\n        /* \"#utility.yul\":3645:3764   */\n    tag_244:\n        /* \"#utility.yul\":3803:3804   */\n      0x00\n        /* \"#utility.yul\":3828:3881   */\n      tag_246\n        /* \"#utility.yul\":3873:3880   */\n      dup5\n        /* \"#utility.yul\":3864:3870   */\n      dup3\n        /* \"#utility.yul\":3853:3862   */\n      dup6\n        /* \"#utility.yul\":3849:3871   */\n      add\n        /* \"#utility.yul\":3828:3881   */\n      tag_154\n      jump\t// in\n    tag_246:\n        /* \"#utility.yul\":3818:3881   */\n      swap2\n      pop\n        /* \"#utility.yul\":3774:3891   */\n      pop\n        /* \"#utility.yul\":3569:3898   */\n      swap3\n      swap2\n      pop\n      pop\n      jump\t// out\n        /* \"#utility.yul\":3904:4028   */\n    tag_165:\n        /* \"#utility.yul\":3981:3987   */\n      0x00\n        /* \"#utility.yul\":4015:4020   */\n      dup2\n        /* \"#utility.yul\":4009:4021   */\n      mload\n        /* \"#utility.yul\":3999:4021   */\n      swap1\n      pop\n        /* \"#utility.yul\":3904:4028   */\n      swap2\n      swap1\n      pop\n      jump\t// out\n        /* \"#utility.yul\":4034:4228   */\n    tag_166:\n        /* \"#utility.yul\":4143:4154   */\n      0x00\n        /* \"#utility.yul\":4177:4183   */\n      dup3\n        /* \"#utility.yul\":4172:4175   */\n      dup3\n        /* \"#utility.yul\":4165:4184   */\n      mstore\n        /* \"#utility.yul\":4217:4221   */\n      0x20\n        /* \"#utility.yul\":4212:4215   */\n      dup3\n        /* \"#utility.yul\":4208:4222   */\n      add\n        /* \"#utility.yul\":4193:4222   */\n      swap1\n      pop\n        /* \"#utility.yul\":4034:4228   */\n      swap3\n      swap2\n      pop\n      pop\n      jump\t// out\n        /* \"#utility.yul\":4234:4376   */\n    tag_167:\n        /* \"#utility.yul\":4311:4315   */\n      0x00\n        /* \"#utility.yul\":4334:4337   */\n      dup2\n        /* \"#utility.yul\":4326:4337   */\n      swap1\n      pop\n        /* \"#utility.yul\":4364:4368   */\n      0x20\n        /* \"#utility.yul\":4359:4362   */\n      dup3\n        /* \"#utility.yul\":4355:4369   */\n      add\n        /* \"#utility.yul\":4347:4369   */\n      swap1\n      pop\n        /* \"#utility.yul\":4234:4376   */\n      swap2\n      swap1\n      pop\n      jump\t// out\n        /* \"#utility.yul\":4382:4481   */\n    tag_168:\n        /* \"#utility.yul\":4434:4440   */\n      0x00\n        /* \"#utility.yul\":4468:4473   */\n      dup2\n        /* \"#utility.yul\":4462:4474   */\n      mload\n        /* \"#utility.yul\":4452:4474   */\n      swap1\n      pop\n        /* \"#utility.yul\":4382:4481   */\n      swap2\n      swap1\n      pop\n      jump\t// out\n        /* \"#utility.yul\":4487:4646   */\n    tag_169:\n        /* \"#utility.yul\":4561:4572   */\n      0x00\n        /* \"#utility.yul\":4595:4601   */\n      dup3\n        /* \"#utility.yul\":4590:4593   */\n      dup3\n        /* \"#utility.yul\":4583:4602   */\n      mstore\n        /* \"#utility.yul\":4635:4639   */\n      0x20\n        /* \"#utility.yul\":4630:4633   */\n      dup3\n        /* \"#utility.yul\":4626:4640   */\n      add\n        /* \"#utility.yul\":4611:4640   */\n      swap1\n      pop\n        /* \"#utility.yul\":4487:4646   */\n      swap3\n      swap2\n      pop\n      pop\n      jump\t// out\n        /* \"#utility.yul\":4652:4898   */\n    tag_170:\n        /* \"#utility.yul\":4733:4734   */\n      0x00\n        /* \"#utility.yul\":4743:4856   */\n    tag_253:\n        /* \"#utility.yul\":4757:4763   */\n      dup4\n        /* \"#utility.yul\":4754:4755   */\n      dup2\n        /* \"#utility.yul\":4751:4764   */\n      lt\n        /* \"#utility.yul\":4743:4856   */\n      iszero\n      tag_255\n      jumpi\n        /* \"#utility.yul\":4842:4843   */\n      dup1\n        /* \"#utility.yul\":4837:4840   */\n      dup3\n        /* \"#utility.yul\":4833:4844   */\n      add\n        /* \"#utility.yul\":4827:4845   */\n      mload\n        /* \"#utility.yul\":4823:4824   */\n      dup2\n        /* \"#utility.yul\":4818:4821   */\n      dup5\n        /* \"#utility.yul\":4814:4825   */\n      add\n        /* \"#utility.yul\":4807:4846   */\n      mstore\n        /* \"#utility.yul\":4779:4781   */\n      0x20\n        /* \"#utility.yul\":4776:4777   */\n      dup2\n        /* \"#utility.yul\":4772:4782   */\n      add\n        /* \"#utility.yul\":4767:4782   */\n      swap1\n      pop\n        /* \"#utility.yul\":4743:4856   */\n      jump(tag_253)\n    tag_255:\n        /* \"#utility.yul\":4890:4891   */\n      0x00\n        /* \"#utility.yul\":4881:4887   */\n      dup5\n        /* \"#utility.yul\":4876:4879   */\n      dup5\n        /* \"#utility.yul\":4872:4888   */\n      add\n        /* \"#utility.yul\":4865:4892   */\n      mstore\n        /* \"#utility.yul\":4714:4898   */\n      pop\n        /* \"#utility.yul\":4652:4898   */\n      pop\n      pop\n      pop\n      jump\t// out\n        /* \"#utility.yul\":4904:5261   */\n    tag_171:\n        /* \"#utility.yul\":4982:4985   */\n      0x00\n        /* \"#utility.yul\":5010:5049   */\n      tag_257\n        /* \"#utility.yul\":5043:5048   */\n      dup3\n        /* \"#utility.yul\":5010:5049   */\n      tag_168\n      jump\t// in\n    tag_257:\n        /* \"#utility.yul\":5065:5126   */\n      tag_258\n        /* \"#utility.yul\":5119:5125   */\n      dup2\n        /* \"#utility.yul\":5114:5117   */\n      dup6\n        /* \"#utility.yul\":5065:5126   */\n      tag_169\n      jump\t// in\n    tag_258:\n        /* \"#utility.yul\":5058:5126   */\n      swap4\n      pop\n        /* \"#utility.yul\":5135:5200   */\n      tag_259\n        /* \"#utility.yul\":5193:5199   */\n      dup2\n        /* \"#utility.yul\":5188:5191   */\n      dup6\n        /* \"#utility.yul\":5181:5185   */\n      0x20\n        /* \"#utility.yul\":5174:5179   */\n      dup7\n        /* \"#utility.yul\":5170:5186   */\n      add\n        /* \"#utility.yul\":5135:5200   */\n      tag_170\n      jump\t// in\n    tag_259:\n        /* \"#utility.yul\":5225:5254   */\n      tag_260\n        /* \"#utility.yul\":5247:5253   */\n      dup2\n        /* \"#utility.yul\":5225:5254   */\n      tag_157\n      jump\t// in\n    tag_260:\n        /* \"#utility.yul\":5220:5223   */\n      dup5\n        /* \"#utility.yul\":5216:5255   */\n      add\n        /* \"#utility.yul\":5209:5255   */\n      swap2\n      pop\n        /* \"#utility.yul\":4986:5261   */\n      pop\n        /* \"#utility.yul\":4904:5261   */\n      swap3\n      swap2\n      pop\n      pop\n      jump\t// out\n        /* \"#utility.yul\":5267:5463   */\n    tag_172:\n        /* \"#utility.yul\":5356:5366   */\n      0x00\n        /* \"#utility.yul\":5391:5457   */\n      tag_262\n        /* \"#utility.yul\":5453:5456   */\n      dup4\n        /* \"#utility.yul\":5445:5451   */\n      dup4\n        /* \"#utility.yul\":5391:5457   */\n      tag_171\n      jump\t// in\n    tag_262:\n        /* \"#utility.yul\":5377:5457   */\n      swap1\n      pop\n        /* \"#utility.yul\":5267:5463   */\n      swap3\n      swap2\n      pop\n      pop\n      jump\t// out\n        /* \"#utility.yul\":5469:5592   */\n    tag_173:\n        /* \"#utility.yul\":5549:5553   */\n      0x00\n        /* \"#utility.yul\":5581:5585   */\n      0x20\n        /* \"#utility.yul\":5576:5579   */\n      dup3\n        /* \"#utility.yul\":5572:5586   */\n      add\n        /* \"#utility.yul\":5564:5586   */\n      swap1\n      pop\n        /* \"#utility.yul\":5469:5592   */\n      swap2\n      swap1\n      pop\n      jump\t// out\n        /* \"#utility.yul\":5626:6617   */\n    tag_174:\n        /* \"#utility.yul\":5765:5768   */\n      0x00\n        /* \"#utility.yul\":5794:5858   */\n      tag_265\n        /* \"#utility.yul\":5852:5857   */\n      dup3\n        /* \"#utility.yul\":5794:5858   */\n      tag_165\n      jump\t// in\n    tag_265:\n        /* \"#utility.yul\":5874:5970   */\n      tag_266\n        /* \"#utility.yul\":5963:5969   */\n      dup2\n        /* \"#utility.yul\":5958:5961   */\n      dup6\n        /* \"#utility.yul\":5874:5970   */\n      tag_166\n      jump\t// in\n    tag_266:\n        /* \"#utility.yul\":5867:5970   */\n      swap4\n      pop\n        /* \"#utility.yul\":5996:5999   */\n      dup4\n        /* \"#utility.yul\":6041:6045   */\n      0x20\n        /* \"#utility.yul\":6033:6039   */\n      dup3\n        /* \"#utility.yul\":6029:6046   */\n      mul\n        /* \"#utility.yul\":6024:6027   */\n      dup6\n        /* \"#utility.yul\":6020:6047   */\n      add\n        /* \"#utility.yul\":6071:6137   */\n      tag_267\n        /* \"#utility.yul\":6131:6136   */\n      dup6\n        /* \"#utility.yul\":6071:6137   */\n      tag_167\n      jump\t// in\n    tag_267:\n        /* \"#utility.yul\":6160:6167   */\n      dup1\n        /* \"#utility.yul\":6191:6192   */\n      0x00\n        /* \"#utility.yul\":6176:6572   */\n    tag_268:\n        /* \"#utility.yul\":6201:6207   */\n      dup6\n        /* \"#utility.yul\":6198:6199   */\n      dup2\n        /* \"#utility.yul\":6195:6208   */\n      lt\n        /* \"#utility.yul\":6176:6572   */\n      iszero\n      tag_270\n      jumpi\n        /* \"#utility.yul\":6272:6281   */\n      dup5\n        /* \"#utility.yul\":6266:6270   */\n      dup5\n        /* \"#utility.yul\":6262:6282   */\n      sub\n        /* \"#utility.yul\":6257:6260   */\n      dup10\n        /* \"#utility.yul\":6250:6283   */\n      mstore\n        /* \"#utility.yul\":6323:6329   */\n      dup2\n        /* \"#utility.yul\":6317:6330   */\n      mload\n        /* \"#utility.yul\":6351:6435   */\n      tag_271\n        /* \"#utility.yul\":6430:6434   */\n      dup6\n        /* \"#utility.yul\":6415:6428   */\n      dup3\n        /* \"#utility.yul\":6351:6435   */\n      tag_172\n      jump\t// in\n    tag_271:\n        /* \"#utility.yul\":6343:6435   */\n      swap5\n      pop\n        /* \"#utility.yul\":6458:6528   */\n      tag_272\n        /* \"#utility.yul\":6521:6527   */\n      dup4\n        /* \"#utility.yul\":6458:6528   */\n      tag_173\n      jump\t// in\n    tag_272:\n        /* \"#utility.yul\":6448:6528   */\n      swap3\n      pop\n        /* \"#utility.yul\":6557:6561   */\n      0x20\n        /* \"#utility.yul\":6552:6555   */\n      dup11\n        /* \"#utility.yul\":6548:6562   */\n      add\n        /* \"#utility.yul\":6541:6562   */\n      swap10\n      pop\n        /* \"#utility.yul\":6236:6572   */\n      pop\n        /* \"#utility.yul\":6223:6224   */\n      0x01\n        /* \"#utility.yul\":6220:6221   */\n      dup2\n        /* \"#utility.yul\":6216:6225   */\n      add\n        /* \"#utility.yul\":6211:6225   */\n      swap1\n      pop\n        /* \"#utility.yul\":6176:6572   */\n      jump(tag_268)\n    tag_270:\n        /* \"#utility.yul\":6180:6194   */\n      pop\n        /* \"#utility.yul\":6588:6592   */\n      dup3\n        /* \"#utility.yul\":6581:6592   */\n      swap8\n      pop\n        /* \"#utility.yul\":6608:6611   */\n      dup8\n        /* \"#utility.yul\":6601:6611   */\n      swap6\n      pop\n        /* \"#utility.yul\":5770:6617   */\n      pop\n      pop\n      pop\n      pop\n      pop\n        /* \"#utility.yul\":5626:6617   */\n      swap3\n      swap2\n      pop\n      pop\n      jump\t// out\n        /* \"#utility.yul\":6623:7036   */\n    tag_18:\n        /* \"#utility.yul\":6786:6790   */\n      0x00\n        /* \"#utility.yul\":6824:6826   */\n      0x20\n        /* \"#utility.yul\":6813:6822   */\n      dup3\n        /* \"#utility.yul\":6809:6827   */\n      add\n        /* \"#utility.yul\":6801:6827   */\n      swap1\n      pop\n        /* \"#utility.yul\":6873:6882   */\n      dup2\n        /* \"#utility.yul\":6867:6871   */\n      dup2\n        /* \"#utility.yul\":6863:6883   */\n      sub\n        /* \"#utility.yul\":6859:6860   */\n      0x00\n        /* \"#utility.yul\":6848:6857   */\n      dup4\n        /* \"#utility.yul\":6844:6861   */\n      add\n        /* \"#utility.yul\":6837:6884   */\n      mstore\n        /* \"#utility.yul\":6901:7029   */\n      tag_274\n        /* \"#utility.yul\":7024:7028   */\n      dup2\n        /* \"#utility.yul\":7015:7021   */\n      dup5\n        /* \"#utility.yul\":6901:7029   */\n      tag_174\n      jump\t// in\n    tag_274:\n        /* \"#utility.yul\":6893:7029   */\n      swap1\n      pop\n        /* \"#utility.yul\":6623:7036   */\n      swap3\n      swap2\n      pop\n      pop\n      jump\t// out\n        /* \"#utility.yul\":7042:7516   */\n    tag_21:\n        /* \"#utility.yul\":7110:7116   */\n      0x00\n        /* \"#utility.yul\":7118:7124   */\n      dup1\n        /* \"#utility.yul\":7167:7169   */\n      0x40\n        /* \"#utility.yul\":7155:7164   */\n      dup4\n        /* \"#utility.yul\":7146:7153   */\n      dup6\n        /* \"#utility.yul\":7142:7165   */\n      sub\n        /* \"#utility.yul\":7138:7170   */\n      slt\n        /* \"#utility.yul\":7135:7254   */\n      iszero\n      tag_276\n      jumpi\n        /* \"#utility.yul\":7173:7252   */\n      tag_277\n      tag_150\n      jump\t// in\n    tag_277:\n        /* \"#utility.yul\":7135:7254   */\n    tag_276:\n        /* \"#utility.yul\":7293:7294   */\n      0x00\n        /* \"#utility.yul\":7318:7371   */\n      tag_278\n        /* \"#utility.yul\":7363:7370   */\n      dup6\n        /* \"#utility.yul\":7354:7360   */\n      dup3\n        /* \"#utility.yul\":7343:7352   */\n      dup7\n        /* \"#utility.yul\":7339:7361   */\n      add\n        /* \"#utility.yul\":7318:7371   */\n      tag_154\n      jump\t// in\n    tag_278:\n        /* \"#utility.yul\":7308:7371   */\n      swap3\n      pop\n        /* \"#utility.yul\":7264:7381   */\n      pop\n        /* \"#utility.yul\":7420:7422   */\n      0x20\n        /* \"#utility.yul\":7446:7499   */\n      tag_279\n        /* \"#utility.yul\":7491:7498   */\n      dup6\n        /* \"#utility.yul\":7482:7488   */\n      dup3\n        /* \"#utility.yul\":7471:7480   */\n      dup7\n        /* \"#utility.yul\":7467:7489   */\n      add\n        /* \"#utility.yul\":7446:7499   */\n      tag_154\n      jump\t// in\n    tag_279:\n        /* \"#utility.yul\":7436:7499   */\n      swap2\n      pop\n        /* \"#utility.yul\":7391:7509   */\n      pop\n        /* \"#utility.yul\":7042:7516   */\n      swap3\n      pop\n      swap3\n      swap1\n      pop\n      jump\t// out\n        /* \"#utility.yul\":7522:7608   */\n    tag_175:\n        /* \"#utility.yul\":7557:7564   */\n      0x00\n        /* \"#utility.yul\":7597:7601   */\n      0xff\n        /* \"#utility.yul\":7590:7595   */\n      dup3\n        /* \"#utility.yul\":7586:7602   */\n      and\n        /* \"#utility.yul\":7575:7602   */\n      swap1\n      pop\n        /* \"#utility.yul\":7522:7608   */\n      swap2\n      swap1\n      pop\n      jump\t// out\n        /* \"#utility.yul\":7614:7726   */\n    tag_176:\n        /* \"#utility.yul\":7697:7719   */\n      tag_282\n        /* \"#utility.yul\":7713:7718   */\n      dup2\n        /* \"#utility.yul\":7697:7719   */\n      tag_175\n      jump\t// in\n    tag_282:\n        /* \"#utility.yul\":7692:7695   */\n      dup3\n        /* \"#utility.yul\":7685:7720   */\n      mstore\n        /* \"#utility.yul\":7614:7726   */\n      pop\n      pop\n      jump\t// out\n        /* \"#utility.yul\":7732:7901   */\n    tag_177:\n        /* \"#utility.yul\":7816:7827   */\n      0x00\n        /* \"#utility.yul\":7850:7856   */\n      dup3\n        /* \"#utility.yul\":7845:7848   */\n      dup3\n        /* \"#utility.yul\":7838:7857   */\n      mstore\n        /* \"#utility.yul\":7890:7894   */\n      0x20\n        /* \"#utility.yul\":7885:7888   */\n      dup3\n        /* \"#utility.yul\":7881:7895   */\n      add\n        /* \"#utility.yul\":7866:7895   */\n      swap1\n      pop\n        /* \"#utility.yul\":7732:7901   */\n      swap3\n      swap2\n      pop\n      pop\n      jump\t// out\n        /* \"#utility.yul\":7907:8284   */\n    tag_178:\n        /* \"#utility.yul\":7995:7998   */\n      0x00\n        /* \"#utility.yul\":8023:8062   */\n      tag_285\n        /* \"#utility.yul\":8056:8061   */\n      dup3\n        /* \"#utility.yul\":8023:8062   */\n      tag_168\n      jump\t// in\n    tag_285:\n        /* \"#utility.yul\":8078:8149   */\n      tag_286\n        /* \"#utility.yul\":8142:8148   */\n      dup2\n        /* \"#utility.yul\":8137:8140   */\n      dup6\n        /* \"#utility.yul\":8078:8149   */\n      tag_177\n      jump\t// in\n    tag_286:\n        /* \"#utility.yul\":8071:8149   */\n      swap4\n      pop\n        /* \"#utility.yul\":8158:8223   */\n      tag_287\n        /* \"#utility.yul\":8216:8222   */\n      dup2\n        /* \"#utility.yul\":8211:8214   */\n      dup6\n        /* \"#utility.yul\":8204:8208   */\n      0x20\n        /* \"#utility.yul\":8197:8202   */\n      dup7\n        /* \"#utility.yul\":8193:8209   */\n      add\n        /* \"#utility.yul\":8158:8223   */\n      tag_170\n      jump\t// in\n    tag_287:\n        /* \"#utility.yul\":8248:8277   */\n      tag_288\n        /* \"#utility.yul\":8270:8276   */\n      dup2\n        /* \"#utility.yul\":8248:8277   */\n      tag_157\n      jump\t// in\n    tag_288:\n        /* \"#utility.yul\":8243:8246   */\n      dup5\n        /* \"#utility.yul\":8239:8278   */\n      add\n        /* \"#utility.yul\":8232:8278   */\n      swap2\n      pop\n        /* \"#utility.yul\":7999:8284   */\n      pop\n        /* \"#utility.yul\":7907:8284   */\n      swap3\n      swap2\n      pop\n      pop\n      jump\t// out\n        /* \"#utility.yul\":8290:9006   */\n    tag_27:\n        /* \"#utility.yul\":8525:8529   */\n      0x00\n        /* \"#utility.yul\":8563:8565   */\n      0x60\n        /* \"#utility.yul\":8552:8561   */\n      dup3\n        /* \"#utility.yul\":8548:8566   */\n      add\n        /* \"#utility.yul\":8540:8566   */\n      swap1\n      pop\n        /* \"#utility.yul\":8576:8643   */\n      tag_290\n        /* \"#utility.yul\":8640:8641   */\n      0x00\n        /* \"#utility.yul\":8629:8638   */\n      dup4\n        /* \"#utility.yul\":8625:8642   */\n      add\n        /* \"#utility.yul\":8616:8622   */\n      dup7\n        /* \"#utility.yul\":8576:8643   */\n      tag_176\n      jump\t// in\n    tag_290:\n        /* \"#utility.yul\":8690:8699   */\n      dup2\n        /* \"#utility.yul\":8684:8688   */\n      dup2\n        /* \"#utility.yul\":8680:8700   */\n      sub\n        /* \"#utility.yul\":8675:8677   */\n      0x20\n        /* \"#utility.yul\":8664:8673   */\n      dup4\n        /* \"#utility.yul\":8660:8678   */\n      add\n        /* \"#utility.yul\":8653:8701   */\n      mstore\n        /* \"#utility.yul\":8718:8796   */\n      tag_291\n        /* \"#utility.yul\":8791:8795   */\n      dup2\n        /* \"#utility.yul\":8782:8788   */\n      dup6\n        /* \"#utility.yul\":8718:8796   */\n      tag_178\n      jump\t// in\n    tag_291:\n        /* \"#utility.yul\":8710:8796   */\n      swap1\n      pop\n        /* \"#utility.yul\":8843:8852   */\n      dup2\n        /* \"#utility.yul\":8837:8841   */\n      dup2\n        /* \"#utility.yul\":8833:8853   */\n      sub\n        /* \"#utility.yul\":8828:8830   */\n      0x40\n        /* \"#utility.yul\":8817:8826   */\n      dup4\n        /* \"#utility.yul\":8813:8831   */\n      add\n        /* \"#utility.yul\":8806:8854   */\n      mstore\n        /* \"#utility.yul\":8871:8999   */\n      tag_292\n        /* \"#utility.yul\":8994:8998   */\n      dup2\n        /* \"#utility.yul\":8985:8991   */\n      dup5\n        /* \"#utility.yul\":8871:8999   */\n      tag_174\n      jump\t// in\n    tag_292:\n        /* \"#utility.yul\":8863:8999   */\n      swap1\n      pop\n        /* \"#utility.yul\":8290:9006   */\n      swap5\n      swap4\n      pop\n      pop\n      pop\n      pop\n      jump\t// out\n        /* \"#utility.yul\":9012:9130   */\n    tag_179:\n        /* \"#utility.yul\":9083:9105   */\n      tag_294\n        /* \"#utility.yul\":9099:9104   */\n      dup2\n        /* \"#utility.yul\":9083:9105   */\n      tag_175\n      jump\t// in\n    tag_294:\n        /* \"#utility.yul\":9076:9081   */\n      dup2\n        /* \"#utility.yul\":9073:9106   */\n      eq\n        /* \"#utility.yul\":9063:9124   */\n      tag_295\n      jumpi\n        /* \"#utility.yul\":9120:9121   */\n      0x00\n        /* \"#utility.yul\":9117:9118   */\n      dup1\n        /* \"#utility.yul\":9110:9122   */\n      revert\n        /* \"#utility.yul\":9063:9124   */\n    tag_295:\n        /* \"#utility.yul\":9012:9130   */\n      pop\n      jump\t// out\n        /* \"#utility.yul\":9136:9271   */\n    tag_180:\n        /* \"#utility.yul\":9180:9185   */\n      0x00\n        /* \"#utility.yul\":9218:9224   */\n      dup2\n        /* \"#utility.yul\":9205:9225   */\n      calldataload\n        /* \"#utility.yul\":9196:9225   */\n      swap1\n      pop\n        /* \"#utility.yul\":9234:9265   */\n      tag_297\n        /* \"#utility.yul\":9259:9264   */\n      dup2\n        /* \"#utility.yul\":9234:9265   */\n      tag_179\n      jump\t// in\n    tag_297:\n        /* \"#utility.yul\":9136:9271   */\n      swap3\n      swap2\n      pop\n      pop\n      jump\t// out\n        /* \"#utility.yul\":9277:9927   */\n    tag_30:\n        /* \"#utility.yul\":9353:9359   */\n      0x00\n        /* \"#utility.yul\":9361:9367   */\n      dup1\n        /* \"#utility.yul\":9410:9412   */\n      0x40\n        /* \"#utility.yul\":9398:9407   */\n      dup4\n        /* \"#utility.yul\":9389:9396   */\n      dup6\n        /* \"#utility.yul\":9385:9408   */\n      sub\n        /* \"#utility.yul\":9381:9413   */\n      slt\n        /* \"#utility.yul\":9378:9497   */\n      iszero\n      tag_299\n      jumpi\n        /* \"#utility.yul\":9416:9495   */\n      tag_300\n      tag_150\n      jump\t// in\n    tag_300:\n        /* \"#utility.yul\":9378:9497   */\n    tag_299:\n        /* \"#utility.yul\":9536:9537   */\n      0x00\n        /* \"#utility.yul\":9561:9612   */\n      tag_301\n        /* \"#utility.yul\":9604:9611   */\n      dup6\n        /* \"#utility.yul\":9595:9601   */\n      dup3\n        /* \"#utility.yul\":9584:9593   */\n      dup7\n        /* \"#utility.yul\":9580:9602   */\n      add\n        /* \"#utility.yul\":9561:9612   */\n      tag_180\n      jump\t// in\n    tag_301:\n        /* \"#utility.yul\":9551:9612   */\n      swap3\n      pop\n        /* \"#utility.yul\":9507:9622   */\n      pop\n        /* \"#utility.yul\":9689:9691   */\n      0x20\n        /* \"#utility.yul\":9678:9687   */\n      dup4\n        /* \"#utility.yul\":9674:9692   */\n      add\n        /* \"#utility.yul\":9661:9693   */\n      calldataload\n        /* \"#utility.yul\":9720:9738   */\n      0xffffffffffffffff\n        /* \"#utility.yul\":9712:9718   */\n      dup2\n        /* \"#utility.yul\":9709:9739   */\n      gt\n        /* \"#utility.yul\":9706:9823   */\n      iszero\n      tag_302\n      jumpi\n        /* \"#utility.yul\":9742:9821   */\n      tag_303\n      tag_151\n      jump\t// in\n    tag_303:\n        /* \"#utility.yul\":9706:9823   */\n    tag_302:\n        /* \"#utility.yul\":9847:9910   */\n      tag_304\n        /* \"#utility.yul\":9902:9909   */\n      dup6\n        /* \"#utility.yul\":9893:9899   */\n      dup3\n        /* \"#utility.yul\":9882:9891   */\n      dup7\n        /* \"#utility.yul\":9878:9900   */\n      add\n        /* \"#utility.yul\":9847:9910   */\n      tag_164\n      jump\t// in\n    tag_304:\n        /* \"#utility.yul\":9837:9910   */\n      swap2\n      pop\n        /* \"#utility.yul\":9632:9920   */\n      pop\n        /* \"#utility.yul\":9277:9927   */\n      swap3\n      pop\n      swap3\n      swap1\n      pop\n      jump\t// out\n        /* \"#utility.yul\":9933:10348   */\n    tag_36:\n        /* \"#utility.yul\":10070:10074   */\n      0x00\n        /* \"#utility.yul\":10108:10110   */\n      0x40\n        /* \"#utility.yul\":10097:10106   */\n      dup3\n        /* \"#utility.yul\":10093:10111   */\n      add\n        /* \"#utility.yul\":10085:10111   */\n      swap1\n      pop\n        /* \"#utility.yul\":10121:10188   */\n      tag_306\n        /* \"#utility.yul\":10185:10186   */\n      0x00\n        /* \"#utility.yul\":10174:10183   */\n      dup4\n        /* \"#utility.yul\":10170:10187   */\n      add\n        /* \"#utility.yul\":10161:10167   */\n      dup6\n        /* \"#utility.yul\":10121:10188   */\n      tag_176\n      jump\t// in\n    tag_306:\n        /* \"#utility.yul\":10235:10244   */\n      dup2\n        /* \"#utility.yul\":10229:10233   */\n      dup2\n        /* \"#utility.yul\":10225:10245   */\n      sub\n        /* \"#utility.yul\":10220:10222   */\n      0x20\n        /* \"#utility.yul\":10209:10218   */\n      dup4\n        /* \"#utility.yul\":10205:10223   */\n      add\n        /* \"#utility.yul\":10198:10246   */\n      mstore\n        /* \"#utility.yul\":10263:10341   */\n      tag_307\n        /* \"#utility.yul\":10336:10340   */\n      dup2\n        /* \"#utility.yul\":10327:10333   */\n      dup5\n        /* \"#utility.yul\":10263:10341   */\n      tag_178\n      jump\t// in\n    tag_307:\n        /* \"#utility.yul\":10255:10341   */\n      swap1\n      pop\n        /* \"#utility.yul\":9933:10348   */\n      swap4\n      swap3\n      pop\n      pop\n      pop\n      jump\t// out\n        /* \"#utility.yul\":10354:10534   */\n    tag_40:\n        /* \"#utility.yul\":10402:10479   */\n      0x4e487b7100000000000000000000000000000000000000000000000000000000\n        /* \"#utility.yul\":10399:10400   */\n      0x00\n        /* \"#utility.yul\":10392:10480   */\n      mstore\n        /* \"#utility.yul\":10499:10503   */\n      0x32\n        /* \"#utility.yul\":10496:10497   */\n      0x04\n        /* \"#utility.yul\":10489:10504   */\n      mstore\n        /* \"#utility.yul\":10523:10527   */\n      0x24\n        /* \"#utility.yul\":10520:10521   */\n      0x00\n        /* \"#utility.yul\":10513:10528   */\n      revert\n        /* \"#utility.yul\":10540:10720   */\n    tag_181:\n        /* \"#utility.yul\":10588:10665   */\n      0x4e487b7100000000000000000000000000000000000000000000000000000000\n        /* \"#utility.yul\":10585:10586   */\n      0x00\n        /* \"#utility.yul\":10578:10666   */\n      mstore\n        /* \"#utility.yul\":10685:10689   */\n      0x22\n        /* \"#utility.yul\":10682:10683   */\n      0x04\n        /* \"#utility.yul\":10675:10690   */\n      mstore\n        /* \"#utility.yul\":10709:10713   */\n      0x24\n        /* \"#utility.yul\":10706:10707   */\n      0x00\n        /* \"#utility.yul\":10699:10714   */\n      revert\n        /* \"#utility.yul\":10726:11046   */\n    tag_53:\n        /* \"#utility.yul\":10770:10776   */\n      0x00\n        /* \"#utility.yul\":10807:10808   */\n      0x02\n        /* \"#utility.yul\":10801:10805   */\n      dup3\n        /* \"#utility.yul\":10797:10809   */\n      div\n        /* \"#utility.yul\":10787:10809   */\n      swap1\n      pop\n        /* \"#utility.yul\":10854:10855   */\n      0x01\n        /* \"#utility.yul\":10848:10852   */\n      dup3\n        /* \"#utility.yul\":10844:10856   */\n      and\n        /* \"#utility.yul\":10875:10893   */\n      dup1\n        /* \"#utility.yul\":10865:10946   */\n      tag_311\n      jumpi\n        /* \"#utility.yul\":10931:10935   */\n      0x7f\n        /* \"#utility.yul\":10923:10929   */\n      dup3\n        /* \"#utility.yul\":10919:10936   */\n      and\n        /* \"#utility.yul\":10909:10936   */\n      swap2\n      pop\n        /* \"#utility.yul\":10865:10946   */\n    tag_311:\n        /* \"#utility.yul\":10993:10995   */\n      0x20\n        /* \"#utility.yul\":10985:10991   */\n      dup3\n        /* \"#utility.yul\":10982:10996   */\n      lt\n        /* \"#utility.yul\":10962:10980   */\n      dup2\n        /* \"#utility.yul\":10959:10997   */\n      sub\n        /* \"#utility.yul\":10956:11040   */\n      tag_312\n      jumpi\n        /* \"#utility.yul\":11012:11030   */\n      tag_313\n      tag_181\n      jump\t// in\n    tag_313:\n        /* \"#utility.yul\":10956:11040   */\n    tag_312:\n        /* \"#utility.yul\":10777:11046   */\n      pop\n        /* \"#utility.yul\":10726:11046   */\n      swap2\n      swap1\n      pop\n      jump\t// out\n        /* \"#utility.yul\":11052:11193   */\n    tag_182:\n        /* \"#utility.yul\":11101:11105   */\n      0x00\n        /* \"#utility.yul\":11124:11127   */\n      dup2\n        /* \"#utility.yul\":11116:11127   */\n      swap1\n      pop\n        /* \"#utility.yul\":11147:11150   */\n      dup2\n        /* \"#utility.yul\":11144:11145   */\n      0x00\n        /* \"#utility.yul\":11137:11151   */\n      mstore\n        /* \"#utility.yul\":11181:11185   */\n      0x20\n        /* \"#utility.yul\":11178:11179   */\n      0x00\n        /* \"#utility.yul\":11168:11186   */\n      keccak256\n        /* \"#utility.yul\":11160:11186   */\n      swap1\n      pop\n        /* \"#utility.yul\":11052:11193   */\n      swap2\n      swap1\n      pop\n      jump\t// out\n        /* \"#utility.yul\":11199:11292   */\n    tag_183:\n        /* \"#utility.yul\":11236:11242   */\n      0x00\n        /* \"#utility.yul\":11283:11285   */\n      0x20\n        /* \"#utility.yul\":11278:11280   */\n      0x1f\n        /* \"#utility.yul\":11271:11276   */\n      dup4\n        /* \"#utility.yul\":11267:11281   */\n      add\n        /* \"#utility.yul\":11263:11286   */\n      div\n        /* \"#utility.yul\":11253:11286   */\n      swap1\n      pop\n        /* \"#utility.yul\":11199:11292   */\n      swap2\n      swap1\n      pop\n      jump\t// out\n        /* \"#utility.yul\":11298:11405   */\n    tag_184:\n        /* \"#utility.yul\":11342:11350   */\n      0x00\n        /* \"#utility.yul\":11392:11397   */\n      dup3\n        /* \"#utility.yul\":11386:11390   */\n      dup3\n        /* \"#utility.yul\":11382:11398   */\n      shl\n        /* \"#utility.yul\":11361:11398   */\n      swap1\n      pop\n        /* \"#utility.yul\":11298:11405   */\n      swap3\n      swap2\n      pop\n      pop\n      jump\t// out\n        /* \"#utility.yul\":11411:11804   */\n    tag_185:\n        /* \"#utility.yul\":11480:11486   */\n      0x00\n        /* \"#utility.yul\":11530:11531   */\n      0x08\n        /* \"#utility.yul\":11518:11528   */\n      dup4\n        /* \"#utility.yul\":11514:11532   */\n      mul\n        /* \"#utility.yul\":11553:11650   */\n      tag_318\n        /* \"#utility.yul\":11583:11649   */\n      0xffffffffffffffffffffffffffffffffffffffffffffffffffffffffffffffff\n        /* \"#utility.yul\":11572:11581   */\n      dup3\n        /* \"#utility.yul\":11553:11650   */\n      tag_184\n      jump\t// in\n    tag_318:\n        /* \"#utility.yul\":11671:11710   */\n      tag_319\n        /* \"#utility.yul\":11701:11709   */\n      dup7\n        /* \"#utility.yul\":11690:11699   */\n      dup4\n        /* \"#utility.yul\":11671:11710   */\n      tag_184\n      jump\t// in\n    tag_319:\n        /* \"#utility.yul\":11659:11710   */\n      swap6\n      pop\n        /* \"#utility.yul\":11743:11747   */\n      dup1\n        /* \"#utility.yul\":11739:11748   */\n      not\n        /* \"#utility.yul\":11732:11737   */\n      dup5\n        /* \"#utility.yul\":11728:11749   */\n      and\n        /* \"#utility.yul\":11719:11749   */\n      swap4\n      pop\n        /* \"#utility.yul\":11792:11796   */\n      dup1\n        /* \"#utility.yul\":11782:11790   */\n      dup7\n        /* \"#utility.yul\":11778:11797   */\n      and\n        /* \"#utility.yul\":11771:11776   */\n      dup5\n        /* \"#utility.yul\":11768:11798   */\n      or\n        /* \"#utility.yul\":11758:11798   */\n      swap3\n      pop\n        /* \"#utility.yul\":11487:11804   */\n      pop\n      pop\n        /* \"#utility.yul\":11411:11804   */\n      swap4\n      swap3\n      pop\n      pop\n      pop\n      jump\t// out\n        /* \"#utility.yul\":11810:11870   */\n    tag_186:\n        /* \"#utility.yul\":11838:11841   */\n      0x00\n        /* \"#utility.yul\":11859:11864   */\n      dup2\n        /* \"#utility.yul\":11852:11864   */\n      swap1\n      pop\n        /* \"#utility.yul\":11810:11870   */\n      swap2\n      swap1\n      pop\n      jump\t// out\n        /* \"#utility.yul\":11876:12018   */\n    tag_187:\n        /* \"#utility.yul\":11926:11935   */\n      0x00\n        /* \"#utility.yul\":11959:12012   */\n      tag_322\n        /* \"#utility.yul\":11977:12011   */\n      tag_323\n        /* \"#utility.yul\":11986:12010   */\n      tag_324\n        /* \"#utility.yul\":12004:12009   */\n      dup5\n        /* \"#utility.yul\":11986:12010   */\n      tag_152\n      jump\t// in\n    tag_324:\n        /* \"#utility.yul\":11977:12011   */\n      tag_186\n      jump\t// in\n    tag_323:\n        /* \"#utility.yul\":11959:12012   */\n      tag_152\n      jump\t// in\n    tag_322:\n        /* \"#utility.yul\":11946:12012   */\n      swap1\n      pop\n        /* \"#utility.yul\":11876:12018   */\n      swap2\n      swap1\n      pop\n      jump\t// out\n        /* \"#utility.yul\":12024:12099   */\n    tag_188:\n        /* \"#utility.yul\":12067:12070   */\n      0x00\n        /* \"#utility.yul\":12088:12093   */\n      dup2\n        /* \"#utility.yul\":12081:12093   */\n      swap1\n      pop\n        /* \"#utility.yul\":12024:12099   */\n      swap2\n      swap1\n      pop\n      jump\t// out\n        /* \"#utility.yul\":12105:12374   */\n    tag_189:\n        /* \"#utility.yul\":12215:12254   */\n      tag_327\n        /* \"#utility.yul\":12246:12253   */\n      dup4\n        /* \"#utility.yul\":12215:12254   */\n      tag_187\n      jump\t// in\n    tag_327:\n        /* \"#utility.yul\":12276:12367   */\n      tag_328\n        /* \"#utility.yul\":12325:12366   */\n      tag_329\n        /* \"#utility.yul\":12349:12365   */\n      dup3\n        /* \"#utility.yul\":12325:12366   */\n      tag_188\n      jump\t// in\n    tag_329:\n        /* \"#utility.yul\":12317:12323   */\n      dup5\n        /* \"#utility.yul\":12310:12314   */\n      dup5\n        /* \"#utility.yul\":12304:12315   */\n      sload\n        /* \"#utility.yul\":12276:12367   */\n      tag_185\n      jump\t// in\n    tag_328:\n        /* \"#utility.yul\":12270:12274   */\n      dup3\n        /* \"#utility.yul\":12263:12368   */\n      sstore\n        /* \"#utility.yul\":12181:12374   */\n      pop\n        /* \"#utility.yul\":12105:12374   */\n      pop\n      pop\n      pop\n      jump\t// out\n        /* \"#utility.yul\":12380:12453   */\n    tag_190:\n        /* \"#utility.yul\":12425:12428   */\n      0x00\n        /* \"#utility.yul\":12380:12453   */\n      swap1\n      jump\t// out\n        /* \"#utility.yul\":12459:12648   */\n    tag_191:\n        /* \"#utility.yul\":12536:12568   */\n      tag_332\n      tag_190\n      jump\t// in\n    tag_332:\n        /* \"#utility.yul\":12577:12642   */\n      tag_333\n        /* \"#utility.yul\":12635:12641   */\n      dup2\n        /* \"#utility.yul\":12627:12633   */\n      dup5\n        /* \"#utility.yul\":12621:12625   */\n      dup5\n        /* \"#utility.yul\":12577:12642   */\n      tag_189\n      jump\t// in\n    tag_333:\n        /* \"#utility.yul\":12512:12648   */\n      pop\n        /* \"#utility.yul\":12459:12648   */\n      pop\n      pop\n      jump\t// out\n        /* \"#utility.yul\":12654:12840   */\n    tag_192:\n        /* \"#utility.yul\":12714:12834   */\n    tag_335:\n        /* \"#utility.yul\":12731:12734   */\n      dup2\n        /* \"#utility.yul\":12724:12729   */\n      dup2\n        /* \"#utility.yul\":12721:12735   */\n      lt\n        /* \"#utility.yul\":12714:12834   */\n      iszero\n      tag_337\n      jumpi\n        /* \"#utility.yul\":12785:12824   */\n      tag_338\n        /* \"#utility.yul\":12822:12823   */\n      0x00\n        /* \"#utility.yul\":12815:12820   */\n      dup3\n        /* \"#utility.yul\":12785:12824   */\n      tag_191\n      jump\t// in\n    tag_338:\n        /* \"#utility.yul\":12758:12759   */\n      0x01\n        /* \"#utility.yul\":12751:12756   */\n      dup2\n        /* \"#utility.yul\":12747:12760   */\n      add\n        /* \"#utility.yul\":12738:12760   */\n      swap1\n      pop\n        /* \"#utility.yul\":12714:12834   */\n      jump(tag_335)\n    tag_337:\n        /* \"#utility.yul\":12654:12840   */\n      pop\n      pop\n      jump\t// out\n        /* \"#utility.yul\":12846:13389   */\n    tag_193:\n        /* \"#utility.yul\":12947:12949   */\n      0x1f\n        /* \"#utility.yul\":12942:12945   */\n      dup3\n        /* \"#utility.yul\":12939:12950   */\n      gt\n        /* \"#utility.yul\":12936:13382   */\n      iszero\n      tag_340\n      jumpi\n        /* \"#utility.yul\":12981:13019   */\n      tag_341\n        /* \"#utility.yul\":13013:13018   */\n      dup2\n        /* \"#utility.yul\":12981:13019   */\n      tag_182\n      jump\t// in\n    tag_341:\n        /* \"#utility.yul\":13065:13094   */\n      tag_342\n        /* \"#utility.yul\":13083:13093   */\n      dup5\n        /* \"#utility.yul\":13065:13094   */\n      tag_183\n      jump\t// in\n    tag_342:\n        /* \"#utility.yul\":13055:13063   */\n      dup2\n        /* \"#utility.yul\":13051:13095   */\n      add\n        /* \"#utility.yul\":13248:13250   */\n      0x20\n        /* \"#utility.yul\":13236:13246   */\n      dup6\n        /* \"#utility.yul\":13233:13251   */\n      lt\n        /* \"#utility.yul\":13230:13279   */\n      iszero\n      tag_343\n      jumpi\n        /* \"#utility.yul\":13269:13277   */\n      dup2\n        /* \"#utility.yul\":13254:13277   */\n      swap1\n      pop\n        /* \"#utility.yul\":13230:13279   */\n    tag_343:\n        /* \"#utility.yul\":13292:13372   */\n      tag_344\n        /* \"#utility.yul\":13348:13370   */\n      tag_345\n        /* \"#utility.yul\":13366:13369   */\n      dup6\n        /* \"#utility.yul\":13348:13370   */\n      tag_183\n      jump\t// in\n    tag_345:\n        /* \"#utility.yul\":13338:13346   */\n      dup4\n        /* \"#utility.yul\":13334:13371   */\n      add\n        /* \"#utility.yul\":13321:13332   */\n      dup3\n        /* \"#utility.yul\":13292:13372   */\n      tag_192\n      jump\t// in\n    tag_344:\n        /* \"#utility.yul\":12951:13382   */\n      pop\n      pop\n        /* \"#utility.yul\":12936:13382   */\n    tag_340:\n        /* \"#utility.yul\":12846:13389   */\n      pop\n      pop\n      pop\n      jump\t// out\n        /* \"#utility.yul\":13395:13512   */\n    tag_194:\n        /* \"#utility.yul\":13449:13457   */\n      0x00\n        /* \"#utility.yul\":13499:13504   */\n      dup3\n        /* \"#utility.yul\":13493:13497   */\n      dup3\n        /* \"#utility.yul\":13489:13505   */\n      shr\n        /* \"#utility.yul\":13468:13505   */\n      swap1\n      pop\n        /* \"#utility.yul\":13395:13512   */\n      swap3\n      swap2\n      pop\n      pop\n      jump\t// out\n        /* \"#utility.yul\":13518:13687   */\n    tag_195:\n        /* \"#utility.yul\":13562:13568   */\n      0x00\n        /* \"#utility.yul\":13595:13646   */\n      tag_348\n        /* \"#utility.yul\":13643:13644   */\n      0x00\n        /* \"#utility.yul\":13639:13645   */\n      not\n        /* \"#utility.yul\":13631:13636   */\n      dup5\n        /* \"#utility.yul\":13628:13629   */\n      0x08\n        /* \"#utility.yul\":13624:13637   */\n      mul\n        /* \"#utility.yul\":13595:13646   */\n      tag_194\n      jump\t// in\n    tag_348:\n        /* \"#utility.yul\":13591:13647   */\n      not\n        /* \"#utility.yul\":13676:13680   */\n      dup1\n        /* \"#utility.yul\":13670:13674   */\n      dup4\n        /* \"#utility.yul\":13666:13681   */\n      and\n        /* \"#utility.yul\":13656:13681   */\n      swap2\n      pop\n        /* \"#utility.yul\":13569:13687   */\n      pop\n        /* \"#utility.yul\":13518:13687   */\n      swap3\n      swap2\n      pop\n      pop\n      jump\t// out\n        /* \"#utility.yul\":13692:13987   */\n    tag_196:\n        /* \"#utility.yul\":13768:13772   */\n      0x00\n        /* \"#utility.yul\":13914:13943   */\n      tag_350\n        /* \"#utility.yul\":13939:13942   */\n      dup4\n        /* \"#utility.yul\":13933:13937   */\n      dup4\n        /* \"#utility.yul\":13914:13943   */\n      tag_195\n      jump\t// in\n    tag_350:\n        /* \"#utility.yul\":13906:13943   */\n      swap2\n      pop\n        /* \"#utility.yul\":13976:13979   */\n      dup3\n        /* \"#utility.yul\":13973:13974   */\n      0x02\n        /* \"#utility.yul\":13969:13980   */\n      mul\n        /* \"#utility.yul\":13963:13967   */\n      dup3\n        /* \"#utility.yul\":13960:13981   */\n      or\n        /* \"#utility.yul\":13952:13981   */\n      swap1\n      pop\n        /* \"#utility.yul\":13692:13987   */\n      swap3\n      swap2\n      pop\n      pop\n      jump\t// out\n        /* \"#utility.yul\":13992:15387   */\n    tag_44:\n        /* \"#utility.yul\":14109:14146   */\n      tag_352\n        /* \"#utility.yul\":14142:14145   */\n      dup3\n        /* \"#utility.yul\":14109:14146   */\n      tag_168\n      jump\t// in\n    tag_352:\n        /* \"#utility.yul\":14211:14229   */\n      0xffffffffffffffff\n        /* \"#utility.yul\":14203:14209   */\n      dup2\n        /* \"#utility.yul\":14200:14230   */\n      gt\n        /* \"#utility.yul\":14197:14253   */\n      iszero\n      tag_353\n      jumpi\n        /* \"#utility.yul\":14233:14251   */\n      tag_354\n      tag_158\n      jump\t// in\n    tag_354:\n        /* \"#utility.yul\":14197:14253   */\n    tag_353:\n        /* \"#utility.yul\":14277:14315   */\n      tag_355\n        /* \"#utility.yul\":14309:14313   */\n      dup3\n        /* \"#utility.yul\":14303:14314   */\n      sload\n        /* \"#utility.yul\":14277:14315   */\n      tag_53\n      jump\t// in\n    tag_355:\n        /* \"#utility.yul\":14362:14429   */\n      tag_356\n        /* \"#utility.yul\":14422:14428   */\n      dup3\n        /* \"#utility.yul\":14414:14420   */\n      dup3\n        /* \"#utility.yul\":14408:14412   */\n      dup6\n        /* \"#utility.yul\":14362:14429   */\n      tag_193\n      jump\t// in\n    tag_356:\n        /* \"#utility.yul\":14456:14457   */\n      0x00\n        /* \"#utility.yul\":14480:14484   */\n      0x20\n        /* \"#utility.yul\":14467:14484   */\n      swap1\n      pop\n        /* \"#utility.yul\":14512:14514   */\n      0x1f\n        /* \"#utility.yul\":14504:14510   */\n      dup4\n        /* \"#utility.yul\":14501:14515   */\n      gt\n        /* \"#utility.yul\":14529:14530   */\n      0x01\n        /* \"#utility.yul\":14524:15142   */\n      dup2\n      eq\n      tag_358\n      jumpi\n        /* \"#utility.yul\":15186:15187   */\n      0x00\n        /* \"#utility.yul\":15203:15209   */\n      dup5\n        /* \"#utility.yul\":15200:15277   */\n      iszero\n      tag_359\n      jumpi\n        /* \"#utility.yul\":15252:15261   */\n      dup3\n        /* \"#utility.yul\":15247:15250   */\n      dup8\n        /* \"#utility.yul\":15243:15262   */\n      add\n        /* \"#utility.yul\":15237:15263   */\n      mload\n        /* \"#utility.yul\":15228:15263   */\n      swap1\n      pop\n        /* \"#utility.yul\":15200:15277   */\n    tag_359:\n        /* \"#utility.yul\":15303:15370   */\n      tag_360\n        /* \"#utility.yul\":15363:15369   */\n      dup6\n        /* \"#utility.yul\":15356:15361   */\n      dup3\n        /* \"#utility.yul\":15303:15370   */\n      tag_196\n      jump\t// in\n    tag_360:\n        /* \"#utility.yul\":15297:15301   */\n      dup7\n        /* \"#utility.yul\":15290:15371   */\n      sstore\n        /* \"#utility.yul\":15159:15381   */\n      pop\n        /* \"#utility.yul\":14494:15381   */\n      jump(tag_357)\n        /* \"#utility.yul\":14524:15142   */\n    tag_358:\n        /* \"#utility.yul\":14576:14580   */\n      0x1f\n        /* \"#utility.yul\":14572:14581   */\n      not\n        /* \"#utility.yul\":14564:14570   */\n      dup5\n        /* \"#utility.yul\":14560:14582   */\n      and\n        /* \"#utility.yul\":14610:14647   */\n      tag_361\n        /* \"#utility.yul\":14642:14646   */\n      dup7\n        /* \"#utility.yul\":14610:14647   */\n      tag_182\n      jump\t// in\n    tag_361:\n        /* \"#utility.yul\":14669:14670   */\n      0x00\n        /* \"#utility.yul\":14683:14891   */\n    tag_362:\n        /* \"#utility.yul\":14697:14704   */\n      dup3\n        /* \"#utility.yul\":14694:14695   */\n      dup2\n        /* \"#utility.yul\":14691:14705   */\n      lt\n        /* \"#utility.yul\":14683:14891   */\n      iszero\n      tag_364\n      jumpi\n        /* \"#utility.yul\":14776:14785   */\n      dup5\n        /* \"#utility.yul\":14771:14774   */\n      dup10\n        /* \"#utility.yul\":14767:14786   */\n      add\n        /* \"#utility.yul\":14761:14787   */\n      mload\n        /* \"#utility.yul\":14753:14759   */\n      dup3\n        /* \"#utility.yul\":14746:14788   */\n      sstore\n        /* \"#utility.yul\":14827:14828   */\n      0x01\n        /* \"#utility.yul\":14819:14825   */\n      dup3\n        /* \"#utility.yul\":14815:14829   */\n      add\n        /* \"#utility.yul\":14805:14829   */\n      swap2\n      pop\n        /* \"#utility.yul\":14874:14876   */\n      0x20\n        /* \"#utility.yul\":14863:14872   */\n      dup6\n        /* \"#utility.yul\":14859:14877   */\n      add\n        /* \"#utility.yul\":14846:14877   */\n      swap5\n      pop\n        /* \"#utility.yul\":14720:14724   */\n      0x20\n        /* \"#utility.yul\":14717:14718   */\n      dup2\n        /* \"#utility.yul\":14713:14725   */\n      add\n        /* \"#utility.yul\":14708:14725   */\n      swap1\n      pop\n        /* \"#utility.yul\":14683:14891   */\n      jump(tag_362)\n    tag_364:\n        /* \"#utility.yul\":14919:14925   */\n      dup7\n        /* \"#utility.yul\":14910:14917   */\n      dup4\n        /* \"#utility.yul\":14907:14926   */\n      lt\n        /* \"#utility.yul\":14904:15083   */\n      iszero\n      tag_365\n      jumpi\n        /* \"#utility.yul\":14977:14986   */\n      dup5\n        /* \"#utility.yul\":14972:14975   */\n      dup10\n        /* \"#utility.yul\":14968:14987   */\n      add\n        /* \"#utility.yul\":14962:14988   */\n      mload\n        /* \"#utility.yul\":15020:15068   */\n      tag_366\n        /* \"#utility.yul\":15062:15066   */\n      0x1f\n        /* \"#utility.yul\":15054:15060   */\n      dup10\n        /* \"#utility.yul\":15050:15067   */\n      and\n        /* \"#utility.yul\":15039:15048   */\n      dup3\n        /* \"#utility.yul\":15020:15068   */\n      tag_195\n      jump\t// in\n    tag_366:\n        /* \"#utility.yul\":15012:15018   */\n      dup4\n        /* \"#utility.yul\":15005:15069   */\n      sstore\n        /* \"#utility.yul\":14927:15083   */\n      pop\n        /* \"#utility.yul\":14904:15083   */\n    tag_365:\n        /* \"#utility.yul\":15129:15130   */\n      0x01\n        /* \"#utility.yul\":15125:15126   */\n      0x02\n        /* \"#utility.yul\":15117:15123   */\n      dup9\n        /* \"#utility.yul\":15113:15127   */\n      mul\n        /* \"#utility.yul\":15109:15131   */\n      add\n        /* \"#utility.yul\":15103:15107   */\n      dup9\n        /* \"#utility.yul\":15096:15132   */\n      sstore\n        /* \"#utility.yul\":14531:15142   */\n      pop\n      pop\n      pop\n        /* \"#utility.yul\":14494:15381   */\n    tag_357:\n      pop\n        /* \"#utility.yul\":14084:15387   */\n      pop\n      pop\n      pop\n        /* \"#utility.yul\":13992:15387   */\n      pop\n      pop\n      jump\t// out\n        /* \"#utility.yul\":15393:15573   */\n    tag_197:\n        /* \"#utility.yul\":15441:15518   */\n      0x4e487b7100000000000000000000000000000000000000000000000000000000\n        /* \"#utility.yul\":15438:15439   */\n      0x00\n        /* \"#utility.yul\":15431:15519   */\n      mstore\n        /* \"#utility.yul\":15538:15542   */\n      0x11\n        /* \"#utility.yul\":15535:15536   */\n      0x04\n        /* \"#utility.yul\":15528:15543   */\n      mstore\n        /* \"#utility.yul\":15562:15566   */\n      0x24\n        /* \"#utility.yul\":15559:15560   */\n      0x00\n        /* \"#utility.yul\":15552:15567   */\n      revert\n        /* \"#utility.yul\":15579:15773   */\n    tag_67:\n        /* \"#utility.yul\":15619:15623   */\n      0x00\n        /* \"#utility.yul\":15639:15659   */\n      tag_369\n        /* \"#utility.yul\":15657:15658   */\n      dup3\n        /* \"#utility.yul\":15639:15659   */\n      tag_152\n      jump\t// in\n    tag_369:\n        /* \"#utility.yul\":15634:15659   */\n      swap2\n      pop\n        /* \"#utility.yul\":15673:15693   */\n      tag_370\n        /* \"#utility.yul\":15691:15692   */\n      dup4\n        /* \"#utility.yul\":15673:15693   */\n      tag_152\n      jump\t// in\n    tag_370:\n        /* \"#utility.yul\":15668:15693   */\n      swap3\n      pop\n        /* \"#utility.yul\":15717:15718   */\n      dup3\n        /* \"#utility.yul\":15714:15715   */\n      dup3\n        /* \"#utility.yul\":15710:15719   */\n      sub\n        /* \"#utility.yul\":15702:15719   */\n      swap1\n      pop\n        /* \"#utility.yul\":15741:15742   */\n      dup2\n        /* \"#utility.yul\":15735:15739   */\n      dup2\n        /* \"#utility.yul\":15732:15743   */\n      gt\n        /* \"#utility.yul\":15729:15766   */\n      iszero\n      tag_371\n      jumpi\n        /* \"#utility.yul\":15746:15764   */\n      tag_372\n      tag_197\n      jump\t// in\n    tag_372:\n        /* \"#utility.yul\":15729:15766   */\n    tag_371:\n        /* \"#utility.yul\":15579:15773   */\n      swap3\n      swap2\n      pop\n      pop\n      jump\t// out\n        /* \"#utility.yul\":15779:15959   */\n    tag_74:\n        /* \"#utility.yul\":15827:15904   */\n      0x4e487b7100000000000000000000000000000000000000000000000000000000\n        /* \"#utility.yul\":15824:15825   */\n      0x00\n        /* \"#utility.yul\":15817:15905   */\n      mstore\n        /* \"#utility.yul\":15924:15928   */\n      0x31\n        /* \"#utility.yul\":15921:15922   */\n      0x04\n        /* \"#utility.yul\":15914:15929   */\n      mstore\n        /* \"#utility.yul\":15948:15952   */\n      0x24\n        /* \"#utility.yul\":15945:15946   */\n      0x00\n        /* \"#utility.yul\":15938:15953   */\n      revert\n        /* \"#utility.yul\":15965:16118   */\n    tag_198:\n        /* \"#utility.yul\":16018:16024   */\n      0x00\n        /* \"#utility.yul\":16052:16057   */\n      dup2\n        /* \"#utility.yul\":16046:16058   */\n      sload\n        /* \"#utility.yul\":16036:16058   */\n      swap1\n      pop\n        /* \"#utility.yul\":16078:16111   */\n      tag_375\n        /* \"#utility.yul\":16104:16110   */\n      dup2\n        /* \"#utility.yul\":16078:16111   */\n      tag_53\n      jump\t// in\n    tag_375:\n        /* \"#utility.yul\":16068:16111   */\n      swap1\n      pop\n        /* \"#utility.yul\":15965:16118   */\n      swap2\n      swap1\n      pop\n      jump\t// out\n        /* \"#utility.yul\":16124:16269   */\n    tag_199:\n        /* \"#utility.yul\":16177:16181   */\n      0x00\n        /* \"#utility.yul\":16200:16203   */\n      dup2\n        /* \"#utility.yul\":16192:16203   */\n      swap1\n      pop\n        /* \"#utility.yul\":16223:16226   */\n      dup2\n        /* \"#utility.yul\":16220:16221   */\n      0x00\n        /* \"#utility.yul\":16213:16227   */\n      mstore\n        /* \"#utility.yul\":16257:16261   */\n      0x20\n        /* \"#utility.yul\":16254:16255   */\n      0x00\n        /* \"#utility.yul\":16244:16262   */\n      keccak256\n        /* \"#utility.yul\":16236:16262   */\n      swap1\n      pop\n        /* \"#utility.yul\":16124:16269   */\n      swap2\n      swap1\n      pop\n      jump\t// out\n        /* \"#utility.yul\":16275:17738   */\n    tag_96:\n        /* \"#utility.yul\":16390:16393   */\n      dup2\n        /* \"#utility.yul\":16384:16388   */\n      dup2\n        /* \"#utility.yul\":16381:16394   */\n      sub\n        /* \"#utility.yul\":16378:16404   */\n      tag_378\n      jumpi\n        /* \"#utility.yul\":16397:16402   */\n      pop\n      pop\n      jump(tag_377)\n        /* \"#utility.yul\":16378:16404   */\n    tag_378:\n        /* \"#utility.yul\":16428:16466   */\n      tag_379\n        /* \"#utility.yul\":16462:16465   */\n      dup3\n        /* \"#utility.yul\":16428:16466   */\n      tag_198\n      jump\t// in\n    tag_379:\n        /* \"#utility.yul\":16531:16549   */\n      0xffffffffffffffff\n        /* \"#utility.yul\":16523:16529   */\n      dup2\n        /* \"#utility.yul\":16520:16550   */\n      gt\n        /* \"#utility.yul\":16517:16573   */\n      iszero\n      tag_380\n      jumpi\n        /* \"#utility.yul\":16553:16571   */\n      tag_381\n      tag_158\n      jump\t// in\n    tag_381:\n        /* \"#utility.yul\":16517:16573   */\n    tag_380:\n        /* \"#utility.yul\":16597:16635   */\n      tag_382\n        /* \"#utility.yul\":16629:16633   */\n      dup3\n        /* \"#utility.yul\":16623:16634   */\n      sload\n        /* \"#utility.yul\":16597:16635   */\n      tag_53\n      jump\t// in\n    tag_382:\n        /* \"#utility.yul\":16682:16749   */\n      tag_383\n        /* \"#utility.yul\":16742:16748   */\n      dup3\n        /* \"#utility.yul\":16734:16740   */\n      dup3\n        /* \"#utility.yul\":16728:16732   */\n      dup6\n        /* \"#utility.yul\":16682:16749   */\n      tag_193\n      jump\t// in\n    tag_383:\n        /* \"#utility.yul\":16776:16777   */\n      0x00\n        /* \"#utility.yul\":16805:16807   */\n      0x1f\n        /* \"#utility.yul\":16797:16803   */\n      dup4\n        /* \"#utility.yul\":16794:16808   */\n      gt\n        /* \"#utility.yul\":16822:16823   */\n      0x01\n        /* \"#utility.yul\":16817:17493   */\n      dup2\n      eq\n      tag_385\n      jumpi\n        /* \"#utility.yul\":17537:17538   */\n      0x00\n        /* \"#utility.yul\":17554:17560   */\n      dup5\n        /* \"#utility.yul\":17551:17628   */\n      iszero\n      tag_386\n      jumpi\n        /* \"#utility.yul\":17603:17612   */\n      dup3\n        /* \"#utility.yul\":17598:17601   */\n      dup8\n        /* \"#utility.yul\":17594:17613   */\n      add\n        /* \"#utility.yul\":17588:17614   */\n      sload\n        /* \"#utility.yul\":17579:17614   */\n      swap1\n      pop\n        /* \"#utility.yul\":17551:17628   */\n    tag_386:\n        /* \"#utility.yul\":17654:17721   */\n      tag_387\n        /* \"#utility.yul\":17714:17720   */\n      dup6\n        /* \"#utility.yul\":17707:17712   */\n      dup3\n        /* \"#utility.yul\":17654:17721   */\n      tag_196\n      jump\t// in\n    tag_387:\n        /* \"#utility.yul\":17648:17652   */\n      dup7\n        /* \"#utility.yul\":17641:17722   */\n      sstore\n        /* \"#utility.yul\":17510:17732   */\n      pop\n        /* \"#utility.yul\":16787:17732   */\n      jump(tag_384)\n        /* \"#utility.yul\":16817:17493   */\n    tag_385:\n        /* \"#utility.yul\":16869:16873   */\n      0x1f\n        /* \"#utility.yul\":16865:16874   */\n      not\n        /* \"#utility.yul\":16857:16863   */\n      dup5\n        /* \"#utility.yul\":16853:16875   */\n      and\n        /* \"#utility.yul\":16895:16935   */\n      tag_388\n        /* \"#utility.yul\":16931:16934   */\n      dup8\n        /* \"#utility.yul\":16895:16935   */\n      tag_199\n      jump\t// in\n    tag_388:\n        /* \"#utility.yul\":16888:16935   */\n      swap7\n      pop\n        /* \"#utility.yul\":16962:16999   */\n      tag_389\n        /* \"#utility.yul\":16994:16998   */\n      dup7\n        /* \"#utility.yul\":16962:16999   */\n      tag_182\n      jump\t// in\n    tag_389:\n        /* \"#utility.yul\":17021:17022   */\n      0x00\n        /* \"#utility.yul\":17035:17242   */\n    tag_390:\n        /* \"#utility.yul\":17049:17056   */\n      dup3\n        /* \"#utility.yul\":17046:17047   */\n      dup2\n        /* \"#utility.yul\":17043:17057   */\n      lt\n        /* \"#utility.yul\":17035:17242   */\n      iszero\n      tag_392\n      jumpi\n        /* \"#utility.yul\":17128:17137   */\n      dup5\n        /* \"#utility.yul\":17123:17126   */\n      dup10\n        /* \"#utility.yul\":17119:17138   */\n      add\n        /* \"#utility.yul\":17113:17139   */\n      sload\n        /* \"#utility.yul\":17105:17111   */\n      dup3\n        /* \"#utility.yul\":17098:17140   */\n      sstore\n        /* \"#utility.yul\":17179:17180   */\n      0x01\n        /* \"#utility.yul\":17171:17177   */\n      dup3\n        /* \"#utility.yul\":17167:17181   */\n      add\n        /* \"#utility.yul\":17157:17181   */\n      swap2\n      pop\n        /* \"#utility.yul\":17226:17227   */\n      0x01\n        /* \"#utility.yul\":17215:17224   */\n      dup6\n        /* \"#utility.yul\":17211:17228   */\n      add\n        /* \"#utility.yul\":17198:17228   */\n      swap5\n      pop\n        /* \"#utility.yul\":17072:17076   */\n      0x20\n        /* \"#utility.yul\":17069:17070   */\n      dup2\n        /* \"#utility.yul\":17065:17077   */\n      add\n        /* \"#utility.yul\":17060:17077   */\n      swap1\n      pop\n        /* \"#utility.yul\":17035:17242   */\n      jump(tag_390)\n    tag_392:\n        /* \"#utility.yul\":17270:17276   */\n      dup7\n        /* \"#utility.yul\":17261:17268   */\n      dup4\n        /* \"#utility.yul\":17258:17277   */\n      lt\n        /* \"#utility.yul\":17255:17434   */\n      iszero\n      tag_393\n      jumpi\n        /* \"#utility.yul\":17328:17337   */\n      dup5\n        /* \"#utility.yul\":17323:17326   */\n      dup10\n        /* \"#utility.yul\":17319:17338   */\n      add\n        /* \"#utility.yul\":17313:17339   */\n      sload\n        /* \"#utility.yul\":17371:17419   */\n      tag_394\n        /* \"#utility.yul\":17413:17417   */\n      0x1f\n        /* \"#utility.yul\":17405:17411   */\n      dup10\n        /* \"#utility.yul\":17401:17418   */\n      and\n        /* \"#utility.yul\":17390:17399   */\n      dup3\n        /* \"#utility.yul\":17371:17419   */\n      tag_195\n      jump\t// in\n    tag_394:\n        /* \"#utility.yul\":17363:17369   */\n      dup4\n        /* \"#utility.yul\":17356:17420   */\n      sstore\n        /* \"#utility.yul\":17278:17434   */\n      pop\n        /* \"#utility.yul\":17255:17434   */\n    tag_393:\n        /* \"#utility.yul\":17480:17481   */\n      0x01\n        /* \"#utility.yul\":17476:17477   */\n      0x02\n        /* \"#utility.yul\":17468:17474   */\n      dup9\n        /* \"#utility.yul\":17464:17478   */\n      mul\n        /* \"#utility.yul\":17460:17482   */\n      add\n        /* \"#utility.yul\":17454:17458   */\n      dup9\n        /* \"#utility.yul\":17447:17483   */\n      sstore\n        /* \"#utility.yul\":16824:17493   */\n      pop\n      pop\n      pop\n        /* \"#utility.yul\":16787:17732   */\n    tag_384:\n      pop\n        /* \"#utility.yul\":16368:17738   */\n      pop\n      pop\n      pop\n        /* \"#utility.yul\":16275:17738   */\n      pop\n      pop\n    tag_377:\n      jump\t// out\n\n    auxdata: 0xa2646970667358221220e0cd192927e624f587a5d1b6226adef3ec00d4bd3152a724d5bb14347a088f6864736f6c63430008120033\n}\n",
				"bytecode": {
					"linkReferences": {},
					"object": "608060405234801561001057600080fd5b506112b4806100206000396000f3fe608060405234801561001057600080fd5b50600436106100625760003560e01c80630eed4e0a14610067578063299d6a6e146100835780634a136077146100b35780639253f734146100cf5780639338458114610101578063e8a9e04d1461011d575b600080fd5b610081600480360381019061007c9190610a3d565b61014e565b005b61009d60048036038101906100989190610a99565b6101aa565b6040516100aa9190610c07565b60405180910390f35b6100cd60048036038101906100c89190610c29565b6102a8565b005b6100e960048036038101906100e49190610a99565b61048a565b6040516100f893929190610ccf565b60405180910390f35b61011b60048036038101906101169190610d40565b610664565b005b61013760048036038101906101329190610a99565b61070a565b604051610145929190610d9c565b60405180910390f35b6000828154811061016257610161610dcc565b5b9060005260206000209060030201600201819080600181540180825580915050600190039060005260206000200160009091909190915090816101a59190611007565b505050565b6060600082815481106101c0576101bf610dcc565b5b9060005260206000209060030201600201805480602002602001604051908101604052809291908181526020016000905b8282101561029d57838290600052602060002001805461021090610e2a565b80601f016020809104026020016040519081016040528092919081815260200182805461023c90610e2a565b80156102895780601f1061025e57610100808354040283529160200191610289565b820191906000526020600020905b81548152906001019060200180831161026c57829003601f168201915b5050505050815260200190600101906101f1565b505050509050919050565b600082815481106102bc576102bb610dcc565b5b90600052602060002090600302016002018054905081106102dc57600080fd5b6001600083815481106102f2576102f1610dcc565b5b9060005260206000209060030201600201805490506103119190611108565b810361036f576000828154811061032b5761032a610dcc565b5b906000526020600020906003020160020180548061034c5761034b61113c565b5b60019003818190600052602060002001600061036891906107d3565b9055610486565b6000828154811061038357610382610dcc565b5b90600052602060002090600302016002016001600084815481106103aa576103a9610dcc565b5b9060005260206000209060030201600201805490506103c99190611108565b815481106103da576103d9610dcc565b5b90600052602060002001600083815481106103f8576103f7610dcc565b5b9060005260206000209060030201600201828154811061041b5761041a610dcc565b5b9060005260206000200190816104319190611196565b506000828154811061044657610445610dcc565b5b90600052602060002090600302016002018054806104675761046661113c565b5b60019003818190600052602060002001600061048391906107d3565b90555b5050565b600060608060008085815481106104a4576104a3610dcc565b5b90600052602060002090600302016040518060600160405290816000820160009054906101000a900460ff1660ff1660ff1681526020016001820180546104ea90610e2a565b80601f016020809104026020016040519081016040528092919081815260200182805461051690610e2a565b80156105635780601f1061053857610100808354040283529160200191610563565b820191906000526020600020905b81548152906001019060200180831161054657829003601f168201915b5050505050815260200160028201805480602002602001604051908101604052809291908181526020016000905b8282101561063d5783829060005260206000200180546105b090610e2a565b80601f01602080910402602001604051908101604052809291908181526020018280546105dc90610e2a565b80156106295780601f106105fe57610100808354040283529160200191610629565b820191906000526020600020905b81548152906001019060200180831161060c57829003601f168201915b505050505081526020019060010190610591565b50505050815250509050806000015181602001518260400151935093509350509193909250565b6060600060405180606001604052808560ff16815260200184815260200183815250908060018154018082558091505060019003906000526020600020906003020160009091909190915060008201518160000160006101000a81548160ff021916908360ff16021790555060208201518160010190816106e59190611007565b506040820151816002019080519060200190610702929190610813565b505050505050565b6000818154811061071a57600080fd5b90600052602060002090600302016000915090508060000160009054906101000a900460ff169080600101805461075090610e2a565b80601f016020809104026020016040519081016040528092919081815260200182805461077c90610e2a565b80156107c95780601f1061079e576101008083540402835291602001916107c9565b820191906000526020600020905b8154815290600101906020018083116107ac57829003601f168201915b5050505050905082565b5080546107df90610e2a565b6000825580601f106107f15750610810565b601f01602090049060005260206000209081019061080f919061086c565b5b50565b82805482825590600052602060002090810192821561085b579160200282015b8281111561085a57825182908161084a9190611007565b5091602001919060010190610833565b5b5090506108689190610889565b5090565b5b8082111561088557600081600090555060010161086d565b5090565b5b808211156108a957600081816108a091906107d3565b5060010161088a565b5090565b6000604051905090565b600080fd5b600080fd5b6000819050919050565b6108d4816108c1565b81146108df57600080fd5b50565b6000813590506108f1816108cb565b92915050565b600080fd5b600080fd5b6000601f19601f8301169050919050565b7f4e487b7100000000000000000000000000000000000000000000000000000000600052604160045260246000fd5b61094a82610901565b810181811067ffffffffffffffff8211171561096957610968610912565b5b80604052505050565b600061097c6108ad565b90506109888282610941565b919050565b600067ffffffffffffffff8211156109a8576109a7610912565b5b6109b182610901565b9050602081019050919050565b82818337600083830152505050565b60006109e06109db8461098d565b610972565b9050828152602081018484840111156109fc576109fb6108fc565b5b610a078482856109be565b509392505050565b600082601f830112610a2457610a236108f7565b5b8135610a348482602086016109cd565b91505092915050565b60008060408385031215610a5457610a536108b7565b5b6000610a62858286016108e2565b925050602083013567ffffffffffffffff811115610a8357610a826108bc565b5b610a8f85828601610a0f565b9150509250929050565b600060208284031215610aaf57610aae6108b7565b5b6000610abd848285016108e2565b91505092915050565b600081519050919050565b600082825260208201905092915050565b6000819050602082019050919050565b600081519050919050565b600082825260208201905092915050565b60005b83811015610b2c578082015181840152602081019050610b11565b60008484015250505050565b6000610b4382610af2565b610b4d8185610afd565b9350610b5d818560208601610b0e565b610b6681610901565b840191505092915050565b6000610b7d8383610b38565b905092915050565b6000602082019050919050565b6000610b9d82610ac6565b610ba78185610ad1565b935083602082028501610bb985610ae2565b8060005b85811015610bf55784840389528151610bd68582610b71565b9450610be183610b85565b925060208a01995050600181019050610bbd565b50829750879550505050505092915050565b60006020820190508181036000830152610c218184610b92565b905092915050565b60008060408385031215610c4057610c3f6108b7565b5b6000610c4e858286016108e2565b9250506020610c5f858286016108e2565b9150509250929050565b600060ff82169050919050565b610c7f81610c69565b82525050565b600082825260208201905092915050565b6000610ca182610af2565b610cab8185610c85565b9350610cbb818560208601610b0e565b610cc481610901565b840191505092915050565b6000606082019050610ce46000830186610c76565b8181036020830152610cf68185610c96565b90508181036040830152610d0a8184610b92565b9050949350505050565b610d1d81610c69565b8114610d2857600080fd5b50565b600081359050610d3a81610d14565b92915050565b60008060408385031215610d5757610d566108b7565b5b6000610d6585828601610d2b565b925050602083013567ffffffffffffffff811115610d8657610d856108bc565b5b610d9285828601610a0f565b9150509250929050565b6000604082019050610db16000830185610c76565b8181036020830152610dc38184610c96565b90509392505050565b7f4e487b7100000000000000000000000000000000000000000000000000000000600052603260045260246000fd5b7f4e487b7100000000000000000000000000000000000000000000000000000000600052602260045260246000fd5b60006002820490506001821680610e4257607f821691505b602082108103610e5557610e54610dfb565b5b50919050565b60008190508160005260206000209050919050565b60006020601f8301049050919050565b600082821b905092915050565b600060088302610ebd7fffffffffffffffffffffffffffffffffffffffffffffffffffffffffffffffff82610e80565b610ec78683610e80565b95508019841693508086168417925050509392505050565b6000819050919050565b6000610f04610eff610efa846108c1565b610edf565b6108c1565b9050919050565b6000819050919050565b610f1e83610ee9565b610f32610f2a82610f0b565b848454610e8d565b825550505050565b600090565b610f47610f3a565b610f52818484610f15565b505050565b5b81811015610f7657610f6b600082610f3f565b600181019050610f58565b5050565b601f821115610fbb57610f8c81610e5b565b610f9584610e70565b81016020851015610fa4578190505b610fb8610fb085610e70565b830182610f57565b50505b505050565b600082821c905092915050565b6000610fde60001984600802610fc0565b1980831691505092915050565b6000610ff78383610fcd565b9150826002028217905092915050565b61101082610af2565b67ffffffffffffffff81111561102957611028610912565b5b6110338254610e2a565b61103e828285610f7a565b600060209050601f831160018114611071576000841561105f578287015190505b6110698582610feb565b8655506110d1565b601f19841661107f86610e5b565b60005b828110156110a757848901518255600182019150602085019450602081019050611082565b868310156110c457848901516110c0601f891682610fcd565b8355505b6001600288020188555050505b505050505050565b7f4e487b7100000000000000000000000000000000000000000000000000000000600052601160045260246000fd5b6000611113826108c1565b915061111e836108c1565b9250828203905081811115611136576111356110d9565b5b92915050565b7f4e487b7100000000000000000000000000000000000000000000000000000000600052603160045260246000fd5b60008154905061117a81610e2a565b9050919050565b60008190508160005260206000209050919050565b8181036111a457505061127c565b6111ad8261116b565b67ffffffffffffffff8111156111c6576111c5610912565b5b6111d08254610e2a565b6111db828285610f7a565b6000601f83116001811461120a57600084156111f8578287015490505b6112028582610feb565b865550611275565b601f19841661121887611181565b965061122386610e5b565b60005b8281101561124b57848901548255600182019150600185019450602081019050611226565b868310156112685784890154611264601f891682610fcd565b8355505b6001600288020188555050505b5050505050505b56fea2646970667358221220e0cd192927e624f587a5d1b6226adef3ec00d4bd3152a724d5bb14347a088f6864736f6c63430008120033",
					"opcodes": "PUSH1 0x80 PUSH1 0x40 MSTORE CALLVALUE DUP1 ISZERO PUSH2 0x10 JUMPI PUSH1 0x0 DUP1 REVERT JUMPDEST POP PUSH2 0x12B4 DUP1 PUSH2 0x20 PUSH1 0x0 CODECOPY PUSH1 0x0 RETURN INVALID PUSH1 0x80 PUSH1 0x40 MSTORE CALLVALUE DUP1 ISZERO PUSH2 0x10 JUMPI PUSH1 0x0 DUP1 REVERT JUMPDEST POP PUSH1 0x4 CALLDATASIZE LT PUSH2 0x62 JUMPI PUSH1 0x0 CALLDATALOAD PUSH1 0xE0 SHR DUP1 PUSH4 0xEED4E0A EQ PUSH2 0x67 JUMPI DUP1 PUSH4 0x299D6A6E EQ PUSH2 0x83 JUMPI DUP1 PUSH4 0x4A136077 EQ PUSH2 0xB3 JUMPI DUP1 PUSH4 0x9253F734 EQ PUSH2 0xCF JUMPI DUP1 PUSH4 0x93384581 EQ PUSH2 0x101 JUMPI DUP1 PUSH4 0xE8A9E04D EQ PUSH2 0x11D JUMPI JUMPDEST PUSH1 0x0 DUP1 REVERT JUMPDEST PUSH2 0x81 PUSH1 0x4 DUP1 CALLDATASIZE SUB DUP2 ADD SWAP1 PUSH2 0x7C SWAP2 SWAP1 PUSH2 0xA3D JUMP JUMPDEST PUSH2 0x14E JUMP JUMPDEST STOP JUMPDEST PUSH2 0x9D PUSH1 0x4 DUP1 CALLDATASIZE SUB DUP2 ADD SWAP1 PUSH2 0x98 SWAP2 SWAP1 PUSH2 0xA99 JUMP JUMPDEST PUSH2 0x1AA JUMP JUMPDEST PUSH1 0x40 MLOAD PUSH2 0xAA SWAP2 SWAP1 PUSH2 0xC07 JUMP JUMPDEST PUSH1 0x40 MLOAD DUP1 SWAP2 SUB SWAP1 RETURN JUMPDEST PUSH2 0xCD PUSH1 0x4 DUP1 CALLDATASIZE SUB DUP2 ADD SWAP1 PUSH2 0xC8 SWAP2 SWAP1 PUSH2 0xC29 JUMP JUMPDEST PUSH2 0x2A8 JUMP JUMPDEST STOP JUMPDEST PUSH2 0xE9 PUSH1 0x4 DUP1 CALLDATASIZE SUB DUP2 ADD SWAP1 PUSH2 0xE4 SWAP2 SWAP1 PUSH2 0xA99 JUMP JUMPDEST PUSH2 0x48A JUMP JUMPDEST PUSH1 0x40 MLOAD PUSH2 0xF8 SWAP4 SWAP3 SWAP2 SWAP1 PUSH2 0xCCF JUMP JUMPDEST PUSH1 0x40 MLOAD DUP1 SWAP2 SUB SWAP1 RETURN JUMPDEST PUSH2 0x11B PUSH1 0x4 DUP1 CALLDATASIZE SUB DUP2 ADD SWAP1 PUSH2 0x116 SWAP2 SWAP1 PUSH2 0xD40 JUMP JUMPDEST PUSH2 0x664 JUMP JUMPDEST STOP JUMPDEST PUSH2 0x137 PUSH1 0x4 DUP1 CALLDATASIZE SUB DUP2 ADD SWAP1 PUSH2 0x132 SWAP2 SWAP1 PUSH2 0xA99 JUMP JUMPDEST PUSH2 0x70A JUMP JUMPDEST PUSH1 0x40 MLOAD PUSH2 0x145 SWAP3 SWAP2 SWAP1 PUSH2 0xD9C JUMP JUMPDEST PUSH1 0x40 MLOAD DUP1 SWAP2 SUB SWAP1 RETURN JUMPDEST PUSH1 0x0 DUP3 DUP2 SLOAD DUP2 LT PUSH2 0x162 JUMPI PUSH2 0x161 PUSH2 0xDCC JUMP JUMPDEST JUMPDEST SWAP1 PUSH1 0x0 MSTORE PUSH1 0x20 PUSH1 0x0 KECCAK256 SWAP1 PUSH1 0x3 MUL ADD PUSH1 0x2 ADD DUP2 SWAP1 DUP1 PUSH1 0x1 DUP2 SLOAD ADD DUP1 DUP3 SSTORE DUP1 SWAP2 POP POP PUSH1 0x1 SWAP1 SUB SWAP1 PUSH1 0x0 MSTORE PUSH1 0x20 PUSH1 0x0 KECCAK256 ADD PUSH1 0x0 SWAP1 SWAP2 SWAP1 SWAP2 SWAP1 SWAP2 POP SWAP1 DUP2 PUSH2 0x1A5 SWAP2 SWAP1 PUSH2 0x1007 JUMP JUMPDEST POP POP POP JUMP JUMPDEST PUSH1 0x60 PUSH1 0x0 DUP3 DUP2 SLOAD DUP2 LT PUSH2 0x1C0 JUMPI PUSH2 0x1BF PUSH2 0xDCC JUMP JUMPDEST JUMPDEST SWAP1 PUSH1 0x0 MSTORE PUSH1 0x20 PUSH1 0x0 KECCAK256 SWAP1 PUSH1 0x3 MUL ADD PUSH1 0x2 ADD DUP1 SLOAD DUP1 PUSH1 0x20 MUL PUSH1 0x20 ADD PUSH1 0x40 MLOAD SWAP1 DUP2 ADD PUSH1 0x40 MSTORE DUP1 SWAP3 SWAP2 SWAP1 DUP2 DUP2 MSTORE PUSH1 0x20 ADD PUSH1 0x0 SWAP1 JUMPDEST DUP3 DUP3 LT ISZERO PUSH2 0x29D JUMPI DUP4 DUP3 SWAP1 PUSH1 0x0 MSTORE PUSH1 0x20 PUSH1 0x0 KECCAK256 ADD DUP1 SLOAD PUSH2 0x210 SWAP1 PUSH2 0xE2A JUMP JUMPDEST DUP1 PUSH1 0x1F ADD PUSH1 0x20 DUP1 SWAP2 DIV MUL PUSH1 0x20 ADD PUSH1 0x40 MLOAD SWAP1 DUP2 ADD PUSH1 0x40 MSTORE DUP1 SWAP3 SWAP2 SWAP1 DUP2 DUP2 MSTORE PUSH1 0x20 ADD DUP3 DUP1 SLOAD PUSH2 0x23C SWAP1 PUSH2 0xE2A JUMP JUMPDEST DUP1 ISZERO PUSH2 0x289 JUMPI DUP1 PUSH1 0x1F LT PUSH2 0x25E JUMPI PUSH2 0x100 DUP1 DUP4 SLOAD DIV MUL DUP4 MSTORE SWAP2 PUSH1 0x20 ADD SWAP2 PUSH2 0x289 JUMP JUMPDEST DUP3 ADD SWAP2 SWAP1 PUSH1 0x0 MSTORE PUSH1 0x20 PUSH1 0x0 KECCAK256 SWAP1 JUMPDEST DUP2 SLOAD DUP2 MSTORE SWAP1 PUSH1 0x1 ADD SWAP1 PUSH1 0x20 ADD DUP1 DUP4 GT PUSH2 0x26C JUMPI DUP3 SWAP1 SUB PUSH1 0x1F AND DUP3 ADD SWAP2 JUMPDEST POP POP POP POP POP DUP2 MSTORE PUSH1 0x20 ADD SWAP1 PUSH1 0x1 ADD SWAP1 PUSH2 0x1F1 JUMP JUMPDEST POP POP POP POP SWAP1 POP SWAP2 SWAP1 POP JUMP JUMPDEST PUSH1 0x0 DUP3 DUP2 SLOAD DUP2 LT PUSH2 0x2BC JUMPI PUSH2 0x2BB PUSH2 0xDCC JUMP JUMPDEST JUMPDEST SWAP1 PUSH1 0x0 MSTORE PUSH1 0x20 PUSH1 0x0 KECCAK256 SWAP1 PUSH1 0x3 MUL ADD PUSH1 0x2 ADD DUP1 SLOAD SWAP1 POP DUP2 LT PUSH2 0x2DC JUMPI PUSH1 0x0 DUP1 REVERT JUMPDEST PUSH1 0x1 PUSH1 0x0 DUP4 DUP2 SLOAD DUP2 LT PUSH2 0x2F2 JUMPI PUSH2 0x2F1 PUSH2 0xDCC JUMP JUMPDEST JUMPDEST SWAP1 PUSH1 0x0 MSTORE PUSH1 0x20 PUSH1 0x0 KECCAK256 SWAP1 PUSH1 0x3 MUL ADD PUSH1 0x2 ADD DUP1 SLOAD SWAP1 POP PUSH2 0x311 SWAP2 SWAP1 PUSH2 0x1108 JUMP JUMPDEST DUP2 SUB PUSH2 0x36F JUMPI PUSH1 0x0 DUP3 DUP2 SLOAD DUP2 LT PUSH2 0x32B JUMPI PUSH2 0x32A PUSH2 0xDCC JUMP JUMPDEST JUMPDEST SWAP1 PUSH1 0x0 MSTORE PUSH1 0x20 PUSH1 0x0 KECCAK256 SWAP1 PUSH1 0x3 MUL ADD PUSH1 0x2 ADD DUP1 SLOAD DUP1 PUSH2 0x34C JUMPI PUSH2 0x34B PUSH2 0x113C JUMP JUMPDEST JUMPDEST PUSH1 0x1 SWAP1 SUB DUP2 DUP2 SWAP1 PUSH1 0x0 MSTORE PUSH1 0x20 PUSH1 0x0 KECCAK256 ADD PUSH1 0x0 PUSH2 0x368 SWAP2 SWAP1 PUSH2 0x7D3 JUMP JUMPDEST SWAP1 SSTORE PUSH2 0x486 JUMP JUMPDEST PUSH1 0x0 DUP3 DUP2 SLOAD DUP2 LT PUSH2 0x383 JUMPI PUSH2 0x382 PUSH2 0xDCC JUMP JUMPDEST JUMPDEST SWAP1 PUSH1 0x0 MSTORE PUSH1 0x20 PUSH1 0x0 KECCAK256 SWAP1 PUSH1 0x3 MUL ADD PUSH1 0x2 ADD PUSH1 0x1 PUSH1 0x0 DUP5 DUP2 SLOAD DUP2 LT PUSH2 0x3AA JUMPI PUSH2 0x3A9 PUSH2 0xDCC JUMP JUMPDEST JUMPDEST SWAP1 PUSH1 0x0 MSTORE PUSH1 0x20 PUSH1 0x0 KECCAK256 SWAP1 PUSH1 0x3 MUL ADD PUSH1 0x2 ADD DUP1 SLOAD SWAP1 POP PUSH2 0x3C9 SWAP2 SWAP1 PUSH2 0x1108 JUMP JUMPDEST DUP2 SLOAD DUP2 LT PUSH2 0x3DA JUMPI PUSH2 0x3D9 PUSH2 0xDCC JUMP JUMPDEST JUMPDEST SWAP1 PUSH1 0x0 MSTORE PUSH1 0x20 PUSH1 0x0 KECCAK256 ADD PUSH1 0x0 DUP4 DUP2 SLOAD DUP2 LT PUSH2 0x3F8 JUMPI PUSH2 0x3F7 PUSH2 0xDCC JUMP JUMPDEST JUMPDEST SWAP1 PUSH1 0x0 MSTORE PUSH1 0x20 PUSH1 0x0 KECCAK256 SWAP1 PUSH1 0x3 MUL ADD PUSH1 0x2 ADD DUP3 DUP2 SLOAD DUP2 LT PUSH2 0x41B JUMPI PUSH2 0x41A PUSH2 0xDCC JUMP JUMPDEST JUMPDEST SWAP1 PUSH1 0x0 MSTORE PUSH1 0x20 PUSH1 0x0 KECCAK256 ADD SWAP1 DUP2 PUSH2 0x431 SWAP2 SWAP1 PUSH2 0x1196 JUMP JUMPDEST POP PUSH1 0x0 DUP3 DUP2 SLOAD DUP2 LT PUSH2 0x446 JUMPI PUSH2 0x445 PUSH2 0xDCC JUMP JUMPDEST JUMPDEST SWAP1 PUSH1 0x0 MSTORE PUSH1 0x20 PUSH1 0x0 KECCAK256 SWAP1 PUSH1 0x3 MUL ADD PUSH1 0x2 ADD DUP1 SLOAD DUP1 PUSH2 0x467 JUMPI PUSH2 0x466 PUSH2 0x113C JUMP JUMPDEST JUMPDEST PUSH1 0x1 SWAP1 SUB DUP2 DUP2 SWAP1 PUSH1 0x0 MSTORE PUSH1 0x20 PUSH1 0x0 KECCAK256 ADD PUSH1 0x0 PUSH2 0x483 SWAP2 SWAP1 PUSH2 0x7D3 JUMP JUMPDEST SWAP1 SSTORE JUMPDEST POP POP JUMP JUMPDEST PUSH1 0x0 PUSH1 0x60 DUP1 PUSH1 0x0 DUP1 DUP6 DUP2 SLOAD DUP2 LT PUSH2 0x4A4 JUMPI PUSH2 0x4A3 PUSH2 0xDCC JUMP JUMPDEST JUMPDEST SWAP1 PUSH1 0x0 MSTORE PUSH1 0x20 PUSH1 0x0 KECCAK256 SWAP1 PUSH1 0x3 MUL ADD PUSH1 0x40 MLOAD DUP1 PUSH1 0x60 ADD PUSH1 0x40 MSTORE SWAP1 DUP2 PUSH1 0x0 DUP3 ADD PUSH1 0x0 SWAP1 SLOAD SWAP1 PUSH2 0x100 EXP SWAP1 DIV PUSH1 0xFF AND PUSH1 0xFF AND PUSH1 0xFF AND DUP2 MSTORE PUSH1 0x20 ADD PUSH1 0x1 DUP3 ADD DUP1 SLOAD PUSH2 0x4EA SWAP1 PUSH2 0xE2A JUMP JUMPDEST DUP1 PUSH1 0x1F ADD PUSH1 0x20 DUP1 SWAP2 DIV MUL PUSH1 0x20 ADD PUSH1 0x40 MLOAD SWAP1 DUP2 ADD PUSH1 0x40 MSTORE DUP1 SWAP3 SWAP2 SWAP1 DUP2 DUP2 MSTORE PUSH1 0x20 ADD DUP3 DUP1 SLOAD PUSH2 0x516 SWAP1 PUSH2 0xE2A JUMP JUMPDEST DUP1 ISZERO PUSH2 0x563 JUMPI DUP1 PUSH1 0x1F LT PUSH2 0x538 JUMPI PUSH2 0x100 DUP1 DUP4 SLOAD DIV MUL DUP4 MSTORE SWAP2 PUSH1 0x20 ADD SWAP2 PUSH2 0x563 JUMP JUMPDEST DUP3 ADD SWAP2 SWAP1 PUSH1 0x0 MSTORE PUSH1 0x20 PUSH1 0x0 KECCAK256 SWAP1 JUMPDEST DUP2 SLOAD DUP2 MSTORE SWAP1 PUSH1 0x1 ADD SWAP1 PUSH1 0x20 ADD DUP1 DUP4 GT PUSH2 0x546 JUMPI DUP3 SWAP1 SUB PUSH1 0x1F AND DUP3 ADD SWAP2 JUMPDEST POP POP POP POP POP DUP2 MSTORE PUSH1 0x20 ADD PUSH1 0x2 DUP3 ADD DUP1 SLOAD DUP1 PUSH1 0x20 MUL PUSH1 0x20 ADD PUSH1 0x40 MLOAD SWAP1 DUP2 ADD PUSH1 0x40 MSTORE DUP1 SWAP3 SWAP2 SWAP1 DUP2 DUP2 MSTORE PUSH1 0x20 ADD PUSH1 0x0 SWAP1 JUMPDEST DUP3 DUP3 LT ISZERO PUSH2 0x63D JUMPI DUP4 DUP3 SWAP1 PUSH1 0x0 MSTORE PUSH1 0x20 PUSH1 0x0 KECCAK256 ADD DUP1 SLOAD PUSH2 0x5B0 SWAP1 PUSH2 0xE2A JUMP JUMPDEST DUP1 PUSH1 0x1F ADD PUSH1 0x20 DUP1 SWAP2 DIV MUL PUSH1 0x20 ADD PUSH1 0x40 MLOAD SWAP1 DUP2 ADD PUSH1 0x40 MSTORE DUP1 SWAP3 SWAP2 SWAP1 DUP2 DUP2 MSTORE PUSH1 0x20 ADD DUP3 DUP1 SLOAD PUSH2 0x5DC SWAP1 PUSH2 0xE2A JUMP JUMPDEST DUP1 ISZERO PUSH2 0x629 JUMPI DUP1 PUSH1 0x1F LT PUSH2 0x5FE JUMPI PUSH2 0x100 DUP1 DUP4 SLOAD DIV MUL DUP4 MSTORE SWAP2 PUSH1 0x20 ADD SWAP2 PUSH2 0x629 JUMP JUMPDEST DUP3 ADD SWAP2 SWAP1 PUSH1 0x0 MSTORE PUSH1 0x20 PUSH1 0x0 KECCAK256 SWAP1 JUMPDEST DUP2 SLOAD DUP2 MSTORE SWAP1 PUSH1 0x1 ADD SWAP1 PUSH1 0x20 ADD DUP1 DUP4 GT PUSH2 0x60C JUMPI DUP3 SWAP1 SUB PUSH1 0x1F AND DUP3 ADD SWAP2 JUMPDEST POP POP POP POP POP DUP2 MSTORE PUSH1 0x20 ADD SWAP1 PUSH1 0x1 ADD SWAP1 PUSH2 0x591 JUMP JUMPDEST POP POP POP POP DUP2 MSTORE POP POP SWAP1 POP DUP1 PUSH1 0x0 ADD MLOAD DUP2 PUSH1 0x20 ADD MLOAD DUP3 PUSH1 0x40 ADD MLOAD SWAP4 POP SWAP4 POP SWAP4 POP POP SWAP2 SWAP4 SWAP1 SWAP3 POP JUMP JUMPDEST PUSH1 0x60 PUSH1 0x0 PUSH1 0x40 MLOAD DUP1 PUSH1 0x60 ADD PUSH1 0x40 MSTORE DUP1 DUP6 PUSH1 0xFF AND DUP2 MSTORE PUSH1 0x20 ADD DUP5 DUP2 MSTORE PUSH1 0x20 ADD DUP4 DUP2 MSTORE POP SWAP1 DUP1 PUSH1 0x1 DUP2 SLOAD ADD DUP1 DUP3 SSTORE DUP1 SWAP2 POP POP PUSH1 0x1 SWAP1 SUB SWAP1 PUSH1 0x0 MSTORE PUSH1 0x20 PUSH1 0x0 KECCAK256 SWAP1 PUSH1 0x3 MUL ADD PUSH1 0x0 SWAP1 SWAP2 SWAP1 SWAP2 SWAP1 SWAP2 POP PUSH1 0x0 DUP3 ADD MLOAD DUP2 PUSH1 0x0 ADD PUSH1 0x0 PUSH2 0x100 EXP DUP2 SLOAD DUP2 PUSH1 0xFF MUL NOT AND SWAP1 DUP4 PUSH1 0xFF AND MUL OR SWAP1 SSTORE POP PUSH1 0x20 DUP3 ADD MLOAD DUP2 PUSH1 0x1 ADD SWAP1 DUP2 PUSH2 0x6E5 SWAP2 SWAP1 PUSH2 0x1007 JUMP JUMPDEST POP PUSH1 0x40 DUP3 ADD MLOAD DUP2 PUSH1 0x2 ADD SWAP1 DUP1 MLOAD SWAP1 PUSH1 0x20 ADD SWAP1 PUSH2 0x702 SWAP3 SWAP2 SWAP1 PUSH2 0x813 JUMP JUMPDEST POP POP POP POP POP POP JUMP JUMPDEST PUSH1 0x0 DUP2 DUP2 SLOAD DUP2 LT PUSH2 0x71A JUMPI PUSH1 0x0 DUP1 REVERT JUMPDEST SWAP1 PUSH1 0x0 MSTORE PUSH1 0x20 PUSH1 0x0 KECCAK256 SWAP1 PUSH1 0x3 MUL ADD PUSH1 0x0 SWAP2 POP SWAP1 POP DUP1 PUSH1 0x0 ADD PUSH1 0x0 SWAP1 SLOAD SWAP1 PUSH2 0x100 EXP SWAP1 DIV PUSH1 0xFF AND SWAP1 DUP1 PUSH1 0x1 ADD DUP1 SLOAD PUSH2 0x750 SWAP1 PUSH2 0xE2A JUMP JUMPDEST DUP1 PUSH1 0x1F ADD PUSH1 0x20 DUP1 SWAP2 DIV MUL PUSH1 0x20 ADD PUSH1 0x40 MLOAD SWAP1 DUP2 ADD PUSH1 0x40 MSTORE DUP1 SWAP3 SWAP2 SWAP1 DUP2 DUP2 MSTORE PUSH1 0x20 ADD DUP3 DUP1 SLOAD PUSH2 0x77C SWAP1 PUSH2 0xE2A JUMP JUMPDEST DUP1 ISZERO PUSH2 0x7C9 JUMPI DUP1 PUSH1 0x1F LT PUSH2 0x79E JUMPI PUSH2 0x100 DUP1 DUP4 SLOAD DIV MUL DUP4 MSTORE SWAP2 PUSH1 0x20 ADD SWAP2 PUSH2 0x7C9 JUMP JUMPDEST DUP3 ADD SWAP2 SWAP1 PUSH1 0x0 MSTORE PUSH1 0x20 PUSH1 0x0 KECCAK256 SWAP1 JUMPDEST DUP2 SLOAD DUP2 MSTORE SWAP1 PUSH1 0x1 ADD SWAP1 PUSH1 0x20 ADD DUP1 DUP4 GT PUSH2 0x7AC JUMPI DUP3 SWAP1 SUB PUSH1 0x1F AND DUP3 ADD SWAP2 JUMPDEST POP POP POP POP POP SWAP1 POP DUP3 JUMP JUMPDEST POP DUP1 SLOAD PUSH2 0x7DF SWAP1 PUSH2 0xE2A JUMP JUMPDEST PUSH1 0x0 DUP3 SSTORE DUP1 PUSH1 0x1F LT PUSH2 0x7F1 JUMPI POP PUSH2 0x810 JUMP JUMPDEST PUSH1 0x1F ADD PUSH1 0x20 SWAP1 DIV SWAP1 PUSH1 0x0 MSTORE PUSH1 0x20 PUSH1 0x0 KECCAK256 SWAP1 DUP2 ADD SWAP1 PUSH2 0x80F SWAP2 SWAP1 PUSH2 0x86C JUMP JUMPDEST JUMPDEST POP JUMP JUMPDEST DUP3 DUP1 SLOAD DUP3 DUP3 SSTORE SWAP1 PUSH1 0x0 MSTORE PUSH1 0x20 PUSH1 0x0 KECCAK256 SWAP1 DUP2 ADD SWAP3 DUP3 ISZERO PUSH2 0x85B JUMPI SWAP2 PUSH1 0x20 MUL DUP3 ADD JUMPDEST DUP3 DUP2 GT ISZERO PUSH2 0x85A JUMPI DUP3 MLOAD DUP3 SWAP1 DUP2 PUSH2 0x84A SWAP2 SWAP1 PUSH2 0x1007 JUMP JUMPDEST POP SWAP2 PUSH1 0x20 ADD SWAP2 SWAP1 PUSH1 0x1 ADD SWAP1 PUSH2 0x833 JUMP JUMPDEST JUMPDEST POP SWAP1 POP PUSH2 0x868 SWAP2 SWAP1 PUSH2 0x889 JUMP JUMPDEST POP SWAP1 JUMP JUMPDEST JUMPDEST DUP1 DUP3 GT ISZERO PUSH2 0x885 JUMPI PUSH1 0x0 DUP2 PUSH1 0x0 SWAP1 SSTORE POP PUSH1 0x1 ADD PUSH2 0x86D JUMP JUMPDEST POP SWAP1 JUMP JUMPDEST JUMPDEST DUP1 DUP3 GT ISZERO PUSH2 0x8A9 JUMPI PUSH1 0x0 DUP2 DUP2 PUSH2 0x8A0 SWAP2 SWAP1 PUSH2 0x7D3 JUMP JUMPDEST POP PUSH1 0x1 ADD PUSH2 0x88A JUMP JUMPDEST POP SWAP1 JUMP JUMPDEST PUSH1 0x0 PUSH1 0x40 MLOAD SWAP1 POP SWAP1 JUMP JUMPDEST PUSH1 0x0 DUP1 REVERT JUMPDEST PUSH1 0x0 DUP1 REVERT JUMPDEST PUSH1 0x0 DUP2 SWAP1 POP SWAP2 SWAP1 POP JUMP JUMPDEST PUSH2 0x8D4 DUP2 PUSH2 0x8C1 JUMP JUMPDEST DUP2 EQ PUSH2 0x8DF JUMPI PUSH1 0x0 DUP1 REVERT JUMPDEST POP JUMP JUMPDEST PUSH1 0x0 DUP2 CALLDATALOAD SWAP1 POP PUSH2 0x8F1 DUP2 PUSH2 0x8CB JUMP JUMPDEST SWAP3 SWAP2 POP POP JUMP JUMPDEST PUSH1 0x0 DUP1 REVERT JUMPDEST PUSH1 0x0 DUP1 REVERT JUMPDEST PUSH1 0x0 PUSH1 0x1F NOT PUSH1 0x1F DUP4 ADD AND SWAP1 POP SWAP2 SWAP1 POP JUMP JUMPDEST PUSH32 0x4E487B7100000000000000000000000000000000000000000000000000000000 PUSH1 0x0 MSTORE PUSH1 0x41 PUSH1 0x4 MSTORE PUSH1 0x24 PUSH1 0x0 REVERT JUMPDEST PUSH2 0x94A DUP3 PUSH2 0x901 JUMP JUMPDEST DUP2 ADD DUP2 DUP2 LT PUSH8 0xFFFFFFFFFFFFFFFF DUP3 GT OR ISZERO PUSH2 0x969 JUMPI PUSH2 0x968 PUSH2 0x912 JUMP JUMPDEST JUMPDEST DUP1 PUSH1 0x40 MSTORE POP POP POP JUMP JUMPDEST PUSH1 0x0 PUSH2 0x97C PUSH2 0x8AD JUMP JUMPDEST SWAP1 POP PUSH2 0x988 DUP3 DUP3 PUSH2 0x941 JUMP JUMPDEST SWAP2 SWAP1 POP JUMP JUMPDEST PUSH1 0x0 PUSH8 0xFFFFFFFFFFFFFFFF DUP3 GT ISZERO PUSH2 0x9A8 JUMPI PUSH2 0x9A7 PUSH2 0x912 JUMP JUMPDEST JUMPDEST PUSH2 0x9B1 DUP3 PUSH2 0x901 JUMP JUMPDEST SWAP1 POP PUSH1 0x20 DUP2 ADD SWAP1 POP SWAP2 SWAP1 POP JUMP JUMPDEST DUP3 DUP2 DUP4 CALLDATACOPY PUSH1 0x0 DUP4 DUP4 ADD MSTORE POP POP POP JUMP JUMPDEST PUSH1 0x0 PUSH2 0x9E0 PUSH2 0x9DB DUP5 PUSH2 0x98D JUMP JUMPDEST PUSH2 0x972 JUMP JUMPDEST SWAP1 POP DUP3 DUP2 MSTORE PUSH1 0x20 DUP2 ADD DUP5 DUP5 DUP5 ADD GT ISZERO PUSH2 0x9FC JUMPI PUSH2 0x9FB PUSH2 0x8FC JUMP JUMPDEST JUMPDEST PUSH2 0xA07 DUP5 DUP3 DUP6 PUSH2 0x9BE JUMP JUMPDEST POP SWAP4 SWAP3 POP POP POP JUMP JUMPDEST PUSH1 0x0 DUP3 PUSH1 0x1F DUP4 ADD SLT PUSH2 0xA24 JUMPI PUSH2 0xA23 PUSH2 0x8F7 JUMP JUMPDEST JUMPDEST DUP2 CALLDATALOAD PUSH2 0xA34 DUP5 DUP3 PUSH1 0x20 DUP7 ADD PUSH2 0x9CD JUMP JUMPDEST SWAP2 POP POP SWAP3 SWAP2 POP POP JUMP JUMPDEST PUSH1 0x0 DUP1 PUSH1 0x40 DUP4 DUP6 SUB SLT ISZERO PUSH2 0xA54 JUMPI PUSH2 0xA53 PUSH2 0x8B7 JUMP JUMPDEST JUMPDEST PUSH1 0x0 PUSH2 0xA62 DUP6 DUP3 DUP7 ADD PUSH2 0x8E2 JUMP JUMPDEST SWAP3 POP POP PUSH1 0x20 DUP4 ADD CALLDATALOAD PUSH8 0xFFFFFFFFFFFFFFFF DUP2 GT ISZERO PUSH2 0xA83 JUMPI PUSH2 0xA82 PUSH2 0x8BC JUMP JUMPDEST JUMPDEST PUSH2 0xA8F DUP6 DUP3 DUP7 ADD PUSH2 0xA0F JUMP JUMPDEST SWAP2 POP POP SWAP3 POP SWAP3 SWAP1 POP JUMP JUMPDEST PUSH1 0x0 PUSH1 0x20 DUP3 DUP5 SUB SLT ISZERO PUSH2 0xAAF JUMPI PUSH2 0xAAE PUSH2 0x8B7 JUMP JUMPDEST JUMPDEST PUSH1 0x0 PUSH2 0xABD DUP5 DUP3 DUP6 ADD PUSH2 0x8E2 JUMP JUMPDEST SWAP2 POP POP SWAP3 SWAP2 POP POP JUMP JUMPDEST PUSH1 0x0 DUP2 MLOAD SWAP1 POP SWAP2 SWAP1 POP JUMP JUMPDEST PUSH1 0x0 DUP3 DUP3 MSTORE PUSH1 0x20 DUP3 ADD SWAP1 POP SWAP3 SWAP2 POP POP JUMP JUMPDEST PUSH1 0x0 DUP2 SWAP1 POP PUSH1 0x20 DUP3 ADD SWAP1 POP SWAP2 SWAP1 POP JUMP JUMPDEST PUSH1 0x0 DUP2 MLOAD SWAP1 POP SWAP2 SWAP1 POP JUMP JUMPDEST PUSH1 0x0 DUP3 DUP3 MSTORE PUSH1 0x20 DUP3 ADD SWAP1 POP SWAP3 SWAP2 POP POP JUMP JUMPDEST PUSH1 0x0 JUMPDEST DUP4 DUP2 LT ISZERO PUSH2 0xB2C JUMPI DUP1 DUP3 ADD MLOAD DUP2 DUP5 ADD MSTORE PUSH1 0x20 DUP2 ADD SWAP1 POP PUSH2 0xB11 JUMP JUMPDEST PUSH1 0x0 DUP5 DUP5 ADD MSTORE POP POP POP POP JUMP JUMPDEST PUSH1 0x0 PUSH2 0xB43 DUP3 PUSH2 0xAF2 JUMP JUMPDEST PUSH2 0xB4D DUP2 DUP6 PUSH2 0xAFD JUMP JUMPDEST SWAP4 POP PUSH2 0xB5D DUP2 DUP6 PUSH1 0x20 DUP7 ADD PUSH2 0xB0E JUMP JUMPDEST PUSH2 0xB66 DUP2 PUSH2 0x901 JUMP JUMPDEST DUP5 ADD SWAP2 POP POP SWAP3 SWAP2 POP POP JUMP JUMPDEST PUSH1 0x0 PUSH2 0xB7D DUP4 DUP4 PUSH2 0xB38 JUMP JUMPDEST SWAP1 POP SWAP3 SWAP2 POP POP JUMP JUMPDEST PUSH1 0x0 PUSH1 0x20 DUP3 ADD SWAP1 POP SWAP2 SWAP1 POP JUMP JUMPDEST PUSH1 0x0 PUSH2 0xB9D DUP3 PUSH2 0xAC6 JUMP JUMPDEST PUSH2 0xBA7 DUP2 DUP6 PUSH2 0xAD1 JUMP JUMPDEST SWAP4 POP DUP4 PUSH1 0x20 DUP3 MUL DUP6 ADD PUSH2 0xBB9 DUP6 PUSH2 0xAE2 JUMP JUMPDEST DUP1 PUSH1 0x0 JUMPDEST DUP6 DUP2 LT ISZERO PUSH2 0xBF5 JUMPI DUP5 DUP5 SUB DUP10 MSTORE DUP2 MLOAD PUSH2 0xBD6 DUP6 DUP3 PUSH2 0xB71 JUMP JUMPDEST SWAP5 POP PUSH2 0xBE1 DUP4 PUSH2 0xB85 JUMP JUMPDEST SWAP3 POP PUSH1 0x20 DUP11 ADD SWAP10 POP POP PUSH1 0x1 DUP2 ADD SWAP1 POP PUSH2 0xBBD JUMP JUMPDEST POP DUP3 SWAP8 POP DUP8 SWAP6 POP POP POP POP POP POP SWAP3 SWAP2 POP POP JUMP JUMPDEST PUSH1 0x0 PUSH1 0x20 DUP3 ADD SWAP1 POP DUP2 DUP2 SUB PUSH1 0x0 DUP4 ADD MSTORE PUSH2 0xC21 DUP2 DUP5 PUSH2 0xB92 JUMP JUMPDEST SWAP1 POP SWAP3 SWAP2 POP POP JUMP JUMPDEST PUSH1 0x0 DUP1 PUSH1 0x40 DUP4 DUP6 SUB SLT ISZERO PUSH2 0xC40 JUMPI PUSH2 0xC3F PUSH2 0x8B7 JUMP JUMPDEST JUMPDEST PUSH1 0x0 PUSH2 0xC4E DUP6 DUP3 DUP7 ADD PUSH2 0x8E2 JUMP JUMPDEST SWAP3 POP POP PUSH1 0x20 PUSH2 0xC5F DUP6 DUP3 DUP7 ADD PUSH2 0x8E2 JUMP JUMPDEST SWAP2 POP POP SWAP3 POP SWAP3 SWAP1 POP JUMP JUMPDEST PUSH1 0x0 PUSH1 0xFF DUP3 AND SWAP1 POP SWAP2 SWAP1 POP JUMP JUMPDEST PUSH2 0xC7F DUP2 PUSH2 0xC69 JUMP JUMPDEST DUP3 MSTORE POP POP JUMP JUMPDEST PUSH1 0x0 DUP3 DUP3 MSTORE PUSH1 0x20 DUP3 ADD SWAP1 POP SWAP3 SWAP2 POP POP JUMP JUMPDEST PUSH1 0x0 PUSH2 0xCA1 DUP3 PUSH2 0xAF2 JUMP JUMPDEST PUSH2 0xCAB DUP2 DUP6 PUSH2 0xC85 JUMP JUMPDEST SWAP4 POP PUSH2 0xCBB DUP2 DUP6 PUSH1 0x20 DUP7 ADD PUSH2 0xB0E JUMP JUMPDEST PUSH2 0xCC4 DUP2 PUSH2 0x901 JUMP JUMPDEST DUP5 ADD SWAP2 POP POP SWAP3 SWAP2 POP POP JUMP JUMPDEST PUSH1 0x0 PUSH1 0x60 DUP3 ADD SWAP1 POP PUSH2 0xCE4 PUSH1 0x0 DUP4 ADD DUP7 PUSH2 0xC76 JUMP JUMPDEST DUP2 DUP2 SUB PUSH1 0x20 DUP4 ADD MSTORE PUSH2 0xCF6 DUP2 DUP6 PUSH2 0xC96 JUMP JUMPDEST SWAP1 POP DUP2 DUP2 SUB PUSH1 0x40 DUP4 ADD MSTORE PUSH2 0xD0A DUP2 DUP5 PUSH2 0xB92 JUMP JUMPDEST SWAP1 POP SWAP5 SWAP4 POP POP POP POP JUMP JUMPDEST PUSH2 0xD1D DUP2 PUSH2 0xC69 JUMP JUMPDEST DUP2 EQ PUSH2 0xD28 JUMPI PUSH1 0x0 DUP1 REVERT JUMPDEST POP JUMP JUMPDEST PUSH1 0x0 DUP2 CALLDATALOAD SWAP1 POP PUSH2 0xD3A DUP2 PUSH2 0xD14 JUMP JUMPDEST SWAP3 SWAP2 POP POP JUMP JUMPDEST PUSH1 0x0 DUP1 PUSH1 0x40 DUP4 DUP6 SUB SLT ISZERO PUSH2 0xD57 JUMPI PUSH2 0xD56 PUSH2 0x8B7 JUMP JUMPDEST JUMPDEST PUSH1 0x0 PUSH2 0xD65 DUP6 DUP3 DUP7 ADD PUSH2 0xD2B JUMP JUMPDEST SWAP3 POP POP PUSH1 0x20 DUP4 ADD CALLDATALOAD PUSH8 0xFFFFFFFFFFFFFFFF DUP2 GT ISZERO PUSH2 0xD86 JUMPI PUSH2 0xD85 PUSH2 0x8BC JUMP JUMPDEST JUMPDEST PUSH2 0xD92 DUP6 DUP3 DUP7 ADD PUSH2 0xA0F JUMP JUMPDEST SWAP2 POP POP SWAP3 POP SWAP3 SWAP1 POP JUMP JUMPDEST PUSH1 0x0 PUSH1 0x40 DUP3 ADD SWAP1 POP PUSH2 0xDB1 PUSH1 0x0 DUP4 ADD DUP6 PUSH2 0xC76 JUMP JUMPDEST DUP2 DUP2 SUB PUSH1 0x20 DUP4 ADD MSTORE PUSH2 0xDC3 DUP2 DUP5 PUSH2 0xC96 JUMP JUMPDEST SWAP1 POP SWAP4 SWAP3 POP POP POP JUMP JUMPDEST PUSH32 0x4E487B7100000000000000000000000000000000000000000000000000000000 PUSH1 0x0 MSTORE PUSH1 0x32 PUSH1 0x4 MSTORE PUSH1 0x24 PUSH1 0x0 REVERT JUMPDEST PUSH32 0x4E487B7100000000000000000000000000000000000000000000000000000000 PUSH1 0x0 MSTORE PUSH1 0x22 PUSH1 0x4 MSTORE PUSH1 0x24 PUSH1 0x0 REVERT JUMPDEST PUSH1 0x0 PUSH1 0x2 DUP3 DIV SWAP1 POP PUSH1 0x1 DUP3 AND DUP1 PUSH2 0xE42 JUMPI PUSH1 0x7F DUP3 AND SWAP2 POP JUMPDEST PUSH1 0x20 DUP3 LT DUP2 SUB PUSH2 0xE55 JUMPI PUSH2 0xE54 PUSH2 0xDFB JUMP JUMPDEST JUMPDEST POP SWAP2 SWAP1 POP JUMP JUMPDEST PUSH1 0x0 DUP2 SWAP1 POP DUP2 PUSH1 0x0 MSTORE PUSH1 0x20 PUSH1 0x0 KECCAK256 SWAP1 POP SWAP2 SWAP1 POP JUMP JUMPDEST PUSH1 0x0 PUSH1 0x20 PUSH1 0x1F DUP4 ADD DIV SWAP1 POP SWAP2 SWAP1 POP JUMP JUMPDEST PUSH1 0x0 DUP3 DUP3 SHL SWAP1 POP SWAP3 SWAP2 POP POP JUMP JUMPDEST PUSH1 0x0 PUSH1 0x8 DUP4 MUL PUSH2 0xEBD PUSH32 0xFFFFFFFFFFFFFFFFFFFFFFFFFFFFFFFFFFFFFFFFFFFFFFFFFFFFFFFFFFFFFFFF DUP3 PUSH2 0xE80 JUMP JUMPDEST PUSH2 0xEC7 DUP7 DUP4 PUSH2 0xE80 JUMP JUMPDEST SWAP6 POP DUP1 NOT DUP5 AND SWAP4 POP DUP1 DUP7 AND DUP5 OR SWAP3 POP POP POP SWAP4 SWAP3 POP POP POP JUMP JUMPDEST PUSH1 0x0 DUP2 SWAP1 POP SWAP2 SWAP1 POP JUMP JUMPDEST PUSH1 0x0 PUSH2 0xF04 PUSH2 0xEFF PUSH2 0xEFA DUP5 PUSH2 0x8C1 JUMP JUMPDEST PUSH2 0xEDF JUMP JUMPDEST PUSH2 0x8C1 JUMP JUMPDEST SWAP1 POP SWAP2 SWAP1 POP JUMP JUMPDEST PUSH1 0x0 DUP2 SWAP1 POP SWAP2 SWAP1 POP JUMP JUMPDEST PUSH2 0xF1E DUP4 PUSH2 0xEE9 JUMP JUMPDEST PUSH2 0xF32 PUSH2 0xF2A DUP3 PUSH2 0xF0B JUMP JUMPDEST DUP5 DUP5 SLOAD PUSH2 0xE8D JUMP JUMPDEST DUP3 SSTORE POP POP POP POP JUMP JUMPDEST PUSH1 0x0 SWAP1 JUMP JUMPDEST PUSH2 0xF47 PUSH2 0xF3A JUMP JUMPDEST PUSH2 0xF52 DUP2 DUP5 DUP5 PUSH2 0xF15 JUMP JUMPDEST POP POP POP JUMP JUMPDEST JUMPDEST DUP2 DUP2 LT ISZERO PUSH2 0xF76 JUMPI PUSH2 0xF6B PUSH1 0x0 DUP3 PUSH2 0xF3F JUMP JUMPDEST PUSH1 0x1 DUP2 ADD SWAP1 POP PUSH2 0xF58 JUMP JUMPDEST POP POP JUMP JUMPDEST PUSH1 0x1F DUP3 GT ISZERO PUSH2 0xFBB JUMPI PUSH2 0xF8C DUP2 PUSH2 0xE5B JUMP JUMPDEST PUSH2 0xF95 DUP5 PUSH2 0xE70 JUMP JUMPDEST DUP2 ADD PUSH1 0x20 DUP6 LT ISZERO PUSH2 0xFA4 JUMPI DUP2 SWAP1 POP JUMPDEST PUSH2 0xFB8 PUSH2 0xFB0 DUP6 PUSH2 0xE70 JUMP JUMPDEST DUP4 ADD DUP3 PUSH2 0xF57 JUMP JUMPDEST POP POP JUMPDEST POP POP POP JUMP JUMPDEST PUSH1 0x0 DUP3 DUP3 SHR SWAP1 POP SWAP3 SWAP2 POP POP JUMP JUMPDEST PUSH1 0x0 PUSH2 0xFDE PUSH1 0x0 NOT DUP5 PUSH1 0x8 MUL PUSH2 0xFC0 JUMP JUMPDEST NOT DUP1 DUP4 AND SWAP2 POP POP SWAP3 SWAP2 POP POP JUMP JUMPDEST PUSH1 0x0 PUSH2 0xFF7 DUP4 DUP4 PUSH2 0xFCD JUMP JUMPDEST SWAP2 POP DUP3 PUSH1 0x2 MUL DUP3 OR SWAP1 POP SWAP3 SWAP2 POP POP JUMP JUMPDEST PUSH2 0x1010 DUP3 PUSH2 0xAF2 JUMP JUMPDEST PUSH8 0xFFFFFFFFFFFFFFFF DUP2 GT ISZERO PUSH2 0x1029 JUMPI PUSH2 0x1028 PUSH2 0x912 JUMP JUMPDEST JUMPDEST PUSH2 0x1033 DUP3 SLOAD PUSH2 0xE2A JUMP JUMPDEST PUSH2 0x103E DUP3 DUP3 DUP6 PUSH2 0xF7A JUMP JUMPDEST PUSH1 0x0 PUSH1 0x20 SWAP1 POP PUSH1 0x1F DUP4 GT PUSH1 0x1 DUP2 EQ PUSH2 0x1071 JUMPI PUSH1 0x0 DUP5 ISZERO PUSH2 0x105F JUMPI DUP3 DUP8 ADD MLOAD SWAP1 POP JUMPDEST PUSH2 0x1069 DUP6 DUP3 PUSH2 0xFEB JUMP JUMPDEST DUP7 SSTORE POP PUSH2 0x10D1 JUMP JUMPDEST PUSH1 0x1F NOT DUP5 AND PUSH2 0x107F DUP7 PUSH2 0xE5B JUMP JUMPDEST PUSH1 0x0 JUMPDEST DUP3 DUP2 LT ISZERO PUSH2 0x10A7 JUMPI DUP5 DUP10 ADD MLOAD DUP3 SSTORE PUSH1 0x1 DUP3 ADD SWAP2 POP PUSH1 0x20 DUP6 ADD SWAP5 POP PUSH1 0x20 DUP2 ADD SWAP1 POP PUSH2 0x1082 JUMP JUMPDEST DUP7 DUP4 LT ISZERO PUSH2 0x10C4 JUMPI DUP5 DUP10 ADD MLOAD PUSH2 0x10C0 PUSH1 0x1F DUP10 AND DUP3 PUSH2 0xFCD JUMP JUMPDEST DUP4 SSTORE POP JUMPDEST PUSH1 0x1 PUSH1 0x2 DUP9 MUL ADD DUP9 SSTORE POP POP POP JUMPDEST POP POP POP POP POP POP JUMP JUMPDEST PUSH32 0x4E487B7100000000000000000000000000000000000000000000000000000000 PUSH1 0x0 MSTORE PUSH1 0x11 PUSH1 0x4 MSTORE PUSH1 0x24 PUSH1 0x0 REVERT JUMPDEST PUSH1 0x0 PUSH2 0x1113 DUP3 PUSH2 0x8C1 JUMP JUMPDEST SWAP2 POP PUSH2 0x111E DUP4 PUSH2 0x8C1 JUMP JUMPDEST SWAP3 POP DUP3 DUP3 SUB SWAP1 POP DUP2 DUP2 GT ISZERO PUSH2 0x1136 JUMPI PUSH2 0x1135 PUSH2 0x10D9 JUMP JUMPDEST JUMPDEST SWAP3 SWAP2 POP POP JUMP JUMPDEST PUSH32 0x4E487B7100000000000000000000000000000000000000000000000000000000 PUSH1 0x0 MSTORE PUSH1 0x31 PUSH1 0x4 MSTORE PUSH1 0x24 PUSH1 0x0 REVERT JUMPDEST PUSH1 0x0 DUP2 SLOAD SWAP1 POP PUSH2 0x117A DUP2 PUSH2 0xE2A JUMP JUMPDEST SWAP1 POP SWAP2 SWAP1 POP JUMP JUMPDEST PUSH1 0x0 DUP2 SWAP1 POP DUP2 PUSH1 0x0 MSTORE PUSH1 0x20 PUSH1 0x0 KECCAK256 SWAP1 POP SWAP2 SWAP1 POP JUMP JUMPDEST DUP2 DUP2 SUB PUSH2 0x11A4 JUMPI POP POP PUSH2 0x127C JUMP JUMPDEST PUSH2 0x11AD DUP3 PUSH2 0x116B JUMP JUMPDEST PUSH8 0xFFFFFFFFFFFFFFFF DUP2 GT ISZERO PUSH2 0x11C6 JUMPI PUSH2 0x11C5 PUSH2 0x912 JUMP JUMPDEST JUMPDEST PUSH2 0x11D0 DUP3 SLOAD PUSH2 0xE2A JUMP JUMPDEST PUSH2 0x11DB DUP3 DUP3 DUP6 PUSH2 0xF7A JUMP JUMPDEST PUSH1 0x0 PUSH1 0x1F DUP4 GT PUSH1 0x1 DUP2 EQ PUSH2 0x120A JUMPI PUSH1 0x0 DUP5 ISZERO PUSH2 0x11F8 JUMPI DUP3 DUP8 ADD SLOAD SWAP1 POP JUMPDEST PUSH2 0x1202 DUP6 DUP3 PUSH2 0xFEB JUMP JUMPDEST DUP7 SSTORE POP PUSH2 0x1275 JUMP JUMPDEST PUSH1 0x1F NOT DUP5 AND PUSH2 0x1218 DUP8 PUSH2 0x1181 JUMP JUMPDEST SWAP7 POP PUSH2 0x1223 DUP7 PUSH2 0xE5B JUMP JUMPDEST PUSH1 0x0 JUMPDEST DUP3 DUP2 LT ISZERO PUSH2 0x124B JUMPI DUP5 DUP10 ADD SLOAD DUP3 SSTORE PUSH1 0x1 DUP3 ADD SWAP2 POP PUSH1 0x1 DUP6 ADD SWAP5 POP PUSH1 0x20 DUP2 ADD SWAP1 POP PUSH2 0x1226 JUMP JUMPDEST DUP7 DUP4 LT ISZERO PUSH2 0x1268 JUMPI DUP5 DUP10 ADD SLOAD PUSH2 0x1264 PUSH1 0x1F DUP10 AND DUP3 PUSH2 0xFCD JUMP JUMPDEST DUP4 SSTORE POP JUMPDEST PUSH1 0x1 PUSH1 0x2 DUP9 MUL ADD DUP9 SSTORE POP POP POP JUMPDEST POP POP POP POP POP POP JUMPDEST JUMP INVALID LOG2 PUSH5 0x6970667358 0x22 SLT KECCAK256 0xE0 0xCD NOT 0x29 0x27 0xE6 0x24 CREATE2 DUP8 0xA5 0xD1 0xB6 0x22 PUSH11 0xDEF3EC00D4BD3152A724D5 0xBB EQ CALLVALUE PUSH27 0x88F6864736F6C6343000812003300000000000000000000000000 "
				},
				"gasEstimates": {
					"creation": {
						"codeDepositCost": "957600",
						"executionCost": "994",
						"totalCost": "958594"
					},
					"external": {
						"addApadrinhado(uint256,string)": "infinite",
						"addPadrin(uint8,string)": "infinite",
						"delApadrinhado(uint256,uint256)": "infinite",
						"getApadrinhados(uint256)": "infinite",
						"getPadrin(uint256)": "infinite",
						"padrinhage(uint256)": "infinite"
					}
				},
				"methodIdentifiers": {
					"addApadrinhado(uint256,string)": "0eed4e0a",
					"addPadrin(uint8,string)": "93384581",
					"delApadrinhado(uint256,uint256)": "4a136077",
					"getApadrinhados(uint256)": "299d6a6e",
					"getPadrin(uint256)": "9253f734",
					"padrinhage(uint256)": "e8a9e04d"
				}
			},
			"storageLayout": {
				"storage": [
					{
						"astId": 13,
						"contract": "structs.sol:Structs",
						"label": "padrinhage",
						"offset": 0,
						"slot": "0",
						"type": "t_array(t_struct(Padrin)9_storage)dyn_storage"
					}
				],
				"types": {
					"t_array(t_string_storage)dyn_storage": {
						"base": "t_string_storage",
						"encoding": "dynamic_array",
						"label": "string[]",
						"numberOfBytes": "32"
					},
					"t_array(t_struct(Padrin)9_storage)dyn_storage": {
						"base": "t_struct(Padrin)9_storage",
						"encoding": "dynamic_array",
						"label": "struct Structs.Padrin[]",
						"numberOfBytes": "32"
					},
					"t_string_storage": {
						"encoding": "bytes",
						"label": "string",
						"numberOfBytes": "32"
					},
					"t_struct(Padrin)9_storage": {
						"encoding": "inplace",
						"label": "struct Structs.Padrin",
						"members": [
							{
								"astId": 3,
								"contract": "structs.sol:Structs",
								"label": "age",
								"offset": 0,
								"slot": "0",
								"type": "t_uint8"
							},
							{
								"astId": 5,
								"contract": "structs.sol:Structs",
								"label": "name",
								"offset": 0,
								"slot": "1",
								"type": "t_string_storage"
							},
							{
								"astId": 8,
								"contract": "structs.sol:Structs",
								"label": "apadrinhados",
								"offset": 0,
								"slot": "2",
								"type": "t_array(t_string_storage)dyn_storage"
							}
						],
						"numberOfBytes": "96"
					},
					"t_uint8": {
						"encoding": "inplace",
						"label": "uint8",
						"numberOfBytes": "1"
					}
				}
			},
			"userdoc": {
				"kind": "user",
				"methods": {},
				"version": 1
			}
		}
	}
}