{
	"mapping.sol": {
		"Mapping": {
			"abi": [
				{
					"inputs": [],
					"name": "getWallets",
					"outputs": [
						{
							"internalType": "uint8[]",
							"name": "",
							"type": "uint8[]"
						},
						{
							"internalType": "address[]",
							"name": "",
							"type": "address[]"
						}
					],
					"stateMutability": "view",
					"type": "function"
				},
				{
					"inputs": [
						{
							"internalType": "address",
							"name": "_address",
							"type": "address"
						}
					],
					"name": "setWallet",
					"outputs": [],
					"stateMutability": "nonpayable",
					"type": "function"
				},
				{
					"inputs": [
						{
							"internalType": "uint8",
							"name": "",
							"type": "uint8"
						}
					],
					"name": "wallets",
					"outputs": [
						{
							"internalType": "address",
							"name": "",
							"type": "address"
						}
					],
					"stateMutability": "view",
					"type": "function"
				}
			],
			"devdoc": {
				"kind": "dev",
				"methods": {},
				"version": 1
			},
			"evm": {
				"assembly": "    /* \"mapping.sol\":63:966  contract Mapping{... */\n  mstore(0x40, 0x80)\n  callvalue\n  dup1\n  iszero\n  tag_1\n  jumpi\n  0x00\n  dup1\n  revert\ntag_1:\n  pop\n  dataSize(sub_0)\n  dup1\n  dataOffset(sub_0)\n  0x00\n  codecopy\n  0x00\n  return\nstop\n\nsub_0: assembly {\n        /* \"mapping.sol\":63:966  contract Mapping{... */\n      mstore(0x40, 0x80)\n      callvalue\n      dup1\n      iszero\n      tag_1\n      jumpi\n      0x00\n      dup1\n      revert\n    tag_1:\n      pop\n      jumpi(tag_2, lt(calldatasize, 0x04))\n      shr(0xe0, calldataload(0x00))\n      dup1\n      0x733f28a8\n      eq\n      tag_3\n      jumpi\n      dup1\n      0xdb7a4605\n      eq\n      tag_4\n      jumpi\n      dup1\n      0xdeaa59df\n      eq\n      tag_5\n      jumpi\n    tag_2:\n      0x00\n      dup1\n      revert\n        /* \"mapping.sol\":92:130  mapping(uint8=>address) public wallets */\n    tag_3:\n      tag_6\n      0x04\n      dup1\n      calldatasize\n      sub\n      dup2\n      add\n      swap1\n      tag_7\n      swap2\n      swap1\n      tag_8\n      jump\t// in\n    tag_7:\n      tag_9\n      jump\t// in\n    tag_6:\n      mload(0x40)\n      tag_10\n      swap2\n      swap1\n      tag_11\n      jump\t// in\n    tag_10:\n      mload(0x40)\n      dup1\n      swap2\n      sub\n      swap1\n      return\n        /* \"mapping.sol\":593:961  function getWallets() public view returns(uint8[]memory,address[]memory){... */\n    tag_4:\n      tag_12\n      tag_13\n      jump\t// in\n    tag_12:\n      mload(0x40)\n      tag_14\n      swap3\n      swap2\n      swap1\n      tag_15\n      jump\t// in\n    tag_14:\n      mload(0x40)\n      dup1\n      swap2\n      sub\n      swap1\n      return\n        /* \"mapping.sol\":167:288  function setWallet(address _address) public{... */\n    tag_5:\n      tag_16\n      0x04\n      dup1\n      calldatasize\n      sub\n      dup2\n      add\n      swap1\n      tag_17\n      swap2\n      swap1\n      tag_18\n      jump\t// in\n    tag_17:\n      tag_19\n      jump\t// in\n    tag_16:\n      stop\n        /* \"mapping.sol\":92:130  mapping(uint8=>address) public wallets */\n    tag_9:\n      mstore(0x20, 0x00)\n      dup1\n      0x00\n      mstore\n      keccak256(0x00, 0x40)\n      0x00\n      swap2\n      pop\n      sload\n      swap1\n      0x0100\n      exp\n      swap1\n      div\n      0xffffffffffffffffffffffffffffffffffffffff\n      and\n      dup2\n      jump\t// out\n        /* \"mapping.sol\":593:961  function getWallets() public view returns(uint8[]memory,address[]memory){... */\n    tag_13:\n        /* \"mapping.sol\":635:648  uint8[]memory */\n      0x60\n        /* \"mapping.sol\":649:664  address[]memory */\n      dup1\n        /* \"mapping.sol\":676:698  uint8[] memory indexes */\n      0x00\n        /* \"mapping.sol\":713:726  walletAmmount */\n      0x01\n      0x00\n      swap1\n      sload\n      swap1\n      0x0100\n      exp\n      swap1\n      div\n      0xff\n      and\n        /* \"mapping.sol\":701:727  new uint8[](walletAmmount) */\n      0xff\n      and\n      0xffffffffffffffff\n      dup2\n      gt\n      iszero\n      tag_21\n      jumpi\n      tag_22\n      tag_23\n      jump\t// in\n    tag_22:\n    tag_21:\n      mload(0x40)\n      swap1\n      dup1\n      dup3\n      mstore\n      dup1\n      0x20\n      mul\n      0x20\n      add\n      dup3\n      add\n      0x40\n      mstore\n      dup1\n      iszero\n      tag_24\n      jumpi\n      dup2\n      0x20\n      add\n      0x20\n      dup3\n      mul\n      dup1\n      calldatasize\n      dup4\n      calldatacopy\n      dup1\n      dup3\n      add\n      swap2\n      pop\n      pop\n      swap1\n      pop\n    tag_24:\n      pop\n        /* \"mapping.sol\":676:727  uint8[] memory indexes = new uint8[](walletAmmount) */\n      swap1\n      pop\n        /* \"mapping.sol\":739:765  address[] memory addresses */\n      0x00\n        /* \"mapping.sol\":782:795  walletAmmount */\n      0x01\n      0x00\n      swap1\n      sload\n      swap1\n      0x0100\n      exp\n      swap1\n      div\n      0xff\n      and\n        /* \"mapping.sol\":768:796  new address[](walletAmmount) */\n      0xff\n      and\n      0xffffffffffffffff\n      dup2\n      gt\n      iszero\n      tag_25\n      jumpi\n      tag_26\n      tag_23\n      jump\t// in\n    tag_26:\n    tag_25:\n      mload(0x40)\n      swap1\n      dup1\n      dup3\n      mstore\n      dup1\n      0x20\n      mul\n      0x20\n      add\n      dup3\n      add\n      0x40\n      mstore\n      dup1\n      iszero\n      tag_27\n      jumpi\n      dup2\n      0x20\n      add\n      0x20\n      dup3\n      mul\n      dup1\n      calldatasize\n      dup4\n      calldatacopy\n      dup1\n      dup3\n      add\n      swap2\n      pop\n      pop\n      swap1\n      pop\n    tag_27:\n      pop\n        /* \"mapping.sol\":739:796  address[] memory addresses = new address[](walletAmmount) */\n      swap1\n      pop\n        /* \"mapping.sol\":811:818  uint8 i */\n      0x00\n        /* \"mapping.sol\":807:918  for(uint8 i=0;i<walletAmmount;++i){... */\n    tag_28:\n        /* \"mapping.sol\":823:836  walletAmmount */\n      0x01\n      0x00\n      swap1\n      sload\n      swap1\n      0x0100\n      exp\n      swap1\n      div\n      0xff\n      and\n        /* \"mapping.sol\":821:836  i<walletAmmount */\n      0xff\n      and\n        /* \"mapping.sol\":821:822  i */\n      dup2\n        /* \"mapping.sol\":821:836  i<walletAmmount */\n      0xff\n      and\n      lt\n        /* \"mapping.sol\":807:918  for(uint8 i=0;i<walletAmmount;++i){... */\n      iszero\n      tag_29\n      jumpi\n        /* \"mapping.sol\":867:868  i */\n      dup1\n        /* \"mapping.sol\":856:863  indexes */\n      dup4\n        /* \"mapping.sol\":864:865  i */\n      dup3\n        /* \"mapping.sol\":856:866  indexes[i] */\n      0xff\n      and\n      dup2\n      mload\n      dup2\n      lt\n      tag_31\n      jumpi\n      tag_32\n      tag_33\n      jump\t// in\n    tag_32:\n    tag_31:\n      0x20\n      mul\n      0x20\n      add\n      add\n        /* \"mapping.sol\":856:868  indexes[i]=i */\n      swap1\n      0xff\n      and\n      swap1\n      dup2\n      0xff\n      and\n      dup2\n      mstore\n      pop\n      pop\n        /* \"mapping.sol\":896:903  wallets */\n      0x00\n        /* \"mapping.sol\":896:906  wallets[i] */\n      dup1\n        /* \"mapping.sol\":904:905  i */\n      dup3\n        /* \"mapping.sol\":896:906  wallets[i] */\n      0xff\n      and\n      0xff\n      and\n      dup2\n      mstore\n      0x20\n      add\n      swap1\n      dup2\n      mstore\n      0x20\n      add\n      0x00\n      keccak256\n      0x00\n      swap1\n      sload\n      swap1\n      0x0100\n      exp\n      swap1\n      div\n      0xffffffffffffffffffffffffffffffffffffffff\n      and\n        /* \"mapping.sol\":883:892  addresses */\n      dup3\n        /* \"mapping.sol\":893:894  i */\n      dup3\n        /* \"mapping.sol\":883:895  addresses[i] */\n      0xff\n      and\n      dup2\n      mload\n      dup2\n      lt\n      tag_34\n      jumpi\n      tag_35\n      tag_33\n      jump\t// in\n    tag_35:\n    tag_34:\n      0x20\n      mul\n      0x20\n      add\n      add\n        /* \"mapping.sol\":883:906  addresses[i]=wallets[i] */\n      swap1\n      0xffffffffffffffffffffffffffffffffffffffff\n      and\n      swap1\n      dup2\n      0xffffffffffffffffffffffffffffffffffffffff\n      and\n      dup2\n      mstore\n      pop\n      pop\n        /* \"mapping.sol\":837:840  ++i */\n      dup1\n      tag_36\n      swap1\n      tag_37\n      jump\t// in\n    tag_36:\n      swap1\n      pop\n        /* \"mapping.sol\":807:918  for(uint8 i=0;i<walletAmmount;++i){... */\n      jump(tag_28)\n    tag_29:\n      pop\n        /* \"mapping.sol\":935:942  indexes */\n      dup2\n        /* \"mapping.sol\":943:952  addresses */\n      dup2\n        /* \"mapping.sol\":928:953  return(indexes,addresses) */\n      swap4\n      pop\n      swap4\n      pop\n      pop\n      pop\n        /* \"mapping.sol\":593:961  function getWallets() public view returns(uint8[]memory,address[]memory){... */\n      swap1\n      swap2\n      jump\t// out\n        /* \"mapping.sol\":167:288  function setWallet(address _address) public{... */\n    tag_19:\n        /* \"mapping.sol\":246:254  _address */\n      dup1\n        /* \"mapping.sol\":221:228  wallets */\n      0x00\n        /* \"mapping.sol\":221:243  wallets[walletAmmount] */\n      dup1\n        /* \"mapping.sol\":229:242  walletAmmount */\n      0x01\n      0x00\n      swap1\n      sload\n      swap1\n      0x0100\n      exp\n      swap1\n      div\n      0xff\n      and\n        /* \"mapping.sol\":221:243  wallets[walletAmmount] */\n      0xff\n      and\n      0xff\n      and\n      dup2\n      mstore\n      0x20\n      add\n      swap1\n      dup2\n      mstore\n      0x20\n      add\n      0x00\n      keccak256\n      0x00\n        /* \"mapping.sol\":221:254  wallets[walletAmmount] = _address */\n      0x0100\n      exp\n      dup2\n      sload\n      dup2\n      0xffffffffffffffffffffffffffffffffffffffff\n      mul\n      not\n      and\n      swap1\n      dup4\n      0xffffffffffffffffffffffffffffffffffffffff\n      and\n      mul\n      or\n      swap1\n      sstore\n      pop\n        /* \"mapping.sol\":267:280  walletAmmount */\n      0x01\n      0x00\n        /* \"mapping.sol\":265:280  ++walletAmmount */\n      dup2\n      dup2\n      swap1\n      sload\n      swap1\n      0x0100\n      exp\n      swap1\n      div\n      0xff\n      and\n      tag_39\n      swap1\n      tag_37\n      jump\t// in\n    tag_39:\n      swap2\n      swap1\n      0x0100\n      exp\n      dup2\n      sload\n      dup2\n      0xff\n      mul\n      not\n      and\n      swap1\n      dup4\n      0xff\n      and\n      mul\n      or\n      swap1\n      sstore\n      pop\n        /* \"mapping.sol\":167:288  function setWallet(address _address) public{... */\n      pop\n      jump\t// out\n        /* \"#utility.yul\":88:205   */\n    tag_41:\n        /* \"#utility.yul\":197:198   */\n      0x00\n        /* \"#utility.yul\":194:195   */\n      dup1\n        /* \"#utility.yul\":187:199   */\n      revert\n        /* \"#utility.yul\":334:420   */\n    tag_43:\n        /* \"#utility.yul\":369:376   */\n      0x00\n        /* \"#utility.yul\":409:413   */\n      0xff\n        /* \"#utility.yul\":402:407   */\n      dup3\n        /* \"#utility.yul\":398:414   */\n      and\n        /* \"#utility.yul\":387:414   */\n      swap1\n      pop\n        /* \"#utility.yul\":334:420   */\n      swap2\n      swap1\n      pop\n      jump\t// out\n        /* \"#utility.yul\":426:544   */\n    tag_44:\n        /* \"#utility.yul\":497:519   */\n      tag_72\n        /* \"#utility.yul\":513:518   */\n      dup2\n        /* \"#utility.yul\":497:519   */\n      tag_43\n      jump\t// in\n    tag_72:\n        /* \"#utility.yul\":490:495   */\n      dup2\n        /* \"#utility.yul\":487:520   */\n      eq\n        /* \"#utility.yul\":477:538   */\n      tag_73\n      jumpi\n        /* \"#utility.yul\":534:535   */\n      0x00\n        /* \"#utility.yul\":531:532   */\n      dup1\n        /* \"#utility.yul\":524:536   */\n      revert\n        /* \"#utility.yul\":477:538   */\n    tag_73:\n        /* \"#utility.yul\":426:544   */\n      pop\n      jump\t// out\n        /* \"#utility.yul\":550:685   */\n    tag_45:\n        /* \"#utility.yul\":594:599   */\n      0x00\n        /* \"#utility.yul\":632:638   */\n      dup2\n        /* \"#utility.yul\":619:639   */\n      calldataload\n        /* \"#utility.yul\":610:639   */\n      swap1\n      pop\n        /* \"#utility.yul\":648:679   */\n      tag_75\n        /* \"#utility.yul\":673:678   */\n      dup2\n        /* \"#utility.yul\":648:679   */\n      tag_44\n      jump\t// in\n    tag_75:\n        /* \"#utility.yul\":550:685   */\n      swap3\n      swap2\n      pop\n      pop\n      jump\t// out\n        /* \"#utility.yul\":691:1016   */\n    tag_8:\n        /* \"#utility.yul\":748:754   */\n      0x00\n        /* \"#utility.yul\":797:799   */\n      0x20\n        /* \"#utility.yul\":785:794   */\n      dup3\n        /* \"#utility.yul\":776:783   */\n      dup5\n        /* \"#utility.yul\":772:795   */\n      sub\n        /* \"#utility.yul\":768:800   */\n      slt\n        /* \"#utility.yul\":765:884   */\n      iszero\n      tag_77\n      jumpi\n        /* \"#utility.yul\":803:882   */\n      tag_78\n      tag_41\n      jump\t// in\n    tag_78:\n        /* \"#utility.yul\":765:884   */\n    tag_77:\n        /* \"#utility.yul\":923:924   */\n      0x00\n        /* \"#utility.yul\":948:999   */\n      tag_79\n        /* \"#utility.yul\":991:998   */\n      dup5\n        /* \"#utility.yul\":982:988   */\n      dup3\n        /* \"#utility.yul\":971:980   */\n      dup6\n        /* \"#utility.yul\":967:989   */\n      add\n        /* \"#utility.yul\":948:999   */\n      tag_45\n      jump\t// in\n    tag_79:\n        /* \"#utility.yul\":938:999   */\n      swap2\n      pop\n        /* \"#utility.yul\":894:1009   */\n      pop\n        /* \"#utility.yul\":691:1016   */\n      swap3\n      swap2\n      pop\n      pop\n      jump\t// out\n        /* \"#utility.yul\":1022:1148   */\n    tag_46:\n        /* \"#utility.yul\":1059:1066   */\n      0x00\n        /* \"#utility.yul\":1099:1141   */\n      0xffffffffffffffffffffffffffffffffffffffff\n        /* \"#utility.yul\":1092:1097   */\n      dup3\n        /* \"#utility.yul\":1088:1142   */\n      and\n        /* \"#utility.yul\":1077:1142   */\n      swap1\n      pop\n        /* \"#utility.yul\":1022:1148   */\n      swap2\n      swap1\n      pop\n      jump\t// out\n        /* \"#utility.yul\":1154:1250   */\n    tag_47:\n        /* \"#utility.yul\":1191:1198   */\n      0x00\n        /* \"#utility.yul\":1220:1244   */\n      tag_82\n        /* \"#utility.yul\":1238:1243   */\n      dup3\n        /* \"#utility.yul\":1220:1244   */\n      tag_46\n      jump\t// in\n    tag_82:\n        /* \"#utility.yul\":1209:1244   */\n      swap1\n      pop\n        /* \"#utility.yul\":1154:1250   */\n      swap2\n      swap1\n      pop\n      jump\t// out\n        /* \"#utility.yul\":1256:1374   */\n    tag_48:\n        /* \"#utility.yul\":1343:1367   */\n      tag_84\n        /* \"#utility.yul\":1361:1366   */\n      dup2\n        /* \"#utility.yul\":1343:1367   */\n      tag_47\n      jump\t// in\n    tag_84:\n        /* \"#utility.yul\":1338:1341   */\n      dup3\n        /* \"#utility.yul\":1331:1368   */\n      mstore\n        /* \"#utility.yul\":1256:1374   */\n      pop\n      pop\n      jump\t// out\n        /* \"#utility.yul\":1380:1602   */\n    tag_11:\n        /* \"#utility.yul\":1473:1477   */\n      0x00\n        /* \"#utility.yul\":1511:1513   */\n      0x20\n        /* \"#utility.yul\":1500:1509   */\n      dup3\n        /* \"#utility.yul\":1496:1514   */\n      add\n        /* \"#utility.yul\":1488:1514   */\n      swap1\n      pop\n        /* \"#utility.yul\":1524:1595   */\n      tag_86\n        /* \"#utility.yul\":1592:1593   */\n      0x00\n        /* \"#utility.yul\":1581:1590   */\n      dup4\n        /* \"#utility.yul\":1577:1594   */\n      add\n        /* \"#utility.yul\":1568:1574   */\n      dup5\n        /* \"#utility.yul\":1524:1595   */\n      tag_48\n      jump\t// in\n    tag_86:\n        /* \"#utility.yul\":1380:1602   */\n      swap3\n      swap2\n      pop\n      pop\n      jump\t// out\n        /* \"#utility.yul\":1608:1720   */\n    tag_49:\n        /* \"#utility.yul\":1673:1679   */\n      0x00\n        /* \"#utility.yul\":1707:1712   */\n      dup2\n        /* \"#utility.yul\":1701:1713   */\n      mload\n        /* \"#utility.yul\":1691:1713   */\n      swap1\n      pop\n        /* \"#utility.yul\":1608:1720   */\n      swap2\n      swap1\n      pop\n      jump\t// out\n        /* \"#utility.yul\":1726:1908   */\n    tag_50:\n        /* \"#utility.yul\":1823:1834   */\n      0x00\n        /* \"#utility.yul\":1857:1863   */\n      dup3\n        /* \"#utility.yul\":1852:1855   */\n      dup3\n        /* \"#utility.yul\":1845:1864   */\n      mstore\n        /* \"#utility.yul\":1897:1901   */\n      0x20\n        /* \"#utility.yul\":1892:1895   */\n      dup3\n        /* \"#utility.yul\":1888:1902   */\n      add\n        /* \"#utility.yul\":1873:1902   */\n      swap1\n      pop\n        /* \"#utility.yul\":1726:1908   */\n      swap3\n      swap2\n      pop\n      pop\n      jump\t// out\n        /* \"#utility.yul\":1914:2044   */\n    tag_51:\n        /* \"#utility.yul\":1979:1983   */\n      0x00\n        /* \"#utility.yul\":2002:2005   */\n      dup2\n        /* \"#utility.yul\":1994:2005   */\n      swap1\n      pop\n        /* \"#utility.yul\":2032:2036   */\n      0x20\n        /* \"#utility.yul\":2027:2030   */\n      dup3\n        /* \"#utility.yul\":2023:2037   */\n      add\n        /* \"#utility.yul\":2015:2037   */\n      swap1\n      pop\n        /* \"#utility.yul\":1914:2044   */\n      swap2\n      swap1\n      pop\n      jump\t// out\n        /* \"#utility.yul\":2050:2152   */\n    tag_52:\n        /* \"#utility.yul\":2123:2145   */\n      tag_91\n        /* \"#utility.yul\":2139:2144   */\n      dup2\n        /* \"#utility.yul\":2123:2145   */\n      tag_43\n      jump\t// in\n    tag_91:\n        /* \"#utility.yul\":2118:2121   */\n      dup3\n        /* \"#utility.yul\":2111:2146   */\n      mstore\n        /* \"#utility.yul\":2050:2152   */\n      pop\n      pop\n      jump\t// out\n        /* \"#utility.yul\":2158:2329   */\n    tag_53:\n        /* \"#utility.yul\":2223:2233   */\n      0x00\n        /* \"#utility.yul\":2244:2286   */\n      tag_93\n        /* \"#utility.yul\":2282:2285   */\n      dup4\n        /* \"#utility.yul\":2274:2280   */\n      dup4\n        /* \"#utility.yul\":2244:2286   */\n      tag_52\n      jump\t// in\n    tag_93:\n        /* \"#utility.yul\":2318:2322   */\n      0x20\n        /* \"#utility.yul\":2313:2316   */\n      dup4\n        /* \"#utility.yul\":2309:2323   */\n      add\n        /* \"#utility.yul\":2295:2323   */\n      swap1\n      pop\n        /* \"#utility.yul\":2158:2329   */\n      swap3\n      swap2\n      pop\n      pop\n      jump\t// out\n        /* \"#utility.yul\":2335:2446   */\n    tag_54:\n        /* \"#utility.yul\":2403:2407   */\n      0x00\n        /* \"#utility.yul\":2435:2439   */\n      0x20\n        /* \"#utility.yul\":2430:2433   */\n      dup3\n        /* \"#utility.yul\":2426:2440   */\n      add\n        /* \"#utility.yul\":2418:2440   */\n      swap1\n      pop\n        /* \"#utility.yul\":2335:2446   */\n      swap2\n      swap1\n      pop\n      jump\t// out\n        /* \"#utility.yul\":2478:3194   */\n    tag_55:\n        /* \"#utility.yul\":2593:2596   */\n      0x00\n        /* \"#utility.yul\":2622:2674   */\n      tag_96\n        /* \"#utility.yul\":2668:2673   */\n      dup3\n        /* \"#utility.yul\":2622:2674   */\n      tag_49\n      jump\t// in\n    tag_96:\n        /* \"#utility.yul\":2690:2774   */\n      tag_97\n        /* \"#utility.yul\":2767:2773   */\n      dup2\n        /* \"#utility.yul\":2762:2765   */\n      dup6\n        /* \"#utility.yul\":2690:2774   */\n      tag_50\n      jump\t// in\n    tag_97:\n        /* \"#utility.yul\":2683:2774   */\n      swap4\n      pop\n        /* \"#utility.yul\":2798:2852   */\n      tag_98\n        /* \"#utility.yul\":2846:2851   */\n      dup4\n        /* \"#utility.yul\":2798:2852   */\n      tag_51\n      jump\t// in\n    tag_98:\n        /* \"#utility.yul\":2875:2882   */\n      dup1\n        /* \"#utility.yul\":2906:2907   */\n      0x00\n        /* \"#utility.yul\":2891:3169   */\n    tag_99:\n        /* \"#utility.yul\":2916:2922   */\n      dup4\n        /* \"#utility.yul\":2913:2914   */\n      dup2\n        /* \"#utility.yul\":2910:2923   */\n      lt\n        /* \"#utility.yul\":2891:3169   */\n      iszero\n      tag_101\n      jumpi\n        /* \"#utility.yul\":2992:2998   */\n      dup2\n        /* \"#utility.yul\":2986:2999   */\n      mload\n        /* \"#utility.yul\":3019:3078   */\n      tag_102\n        /* \"#utility.yul\":3074:3077   */\n      dup9\n        /* \"#utility.yul\":3059:3072   */\n      dup3\n        /* \"#utility.yul\":3019:3078   */\n      tag_53\n      jump\t// in\n    tag_102:\n        /* \"#utility.yul\":3012:3078   */\n      swap8\n      pop\n        /* \"#utility.yul\":3101:3159   */\n      tag_103\n        /* \"#utility.yul\":3152:3158   */\n      dup4\n        /* \"#utility.yul\":3101:3159   */\n      tag_54\n      jump\t// in\n    tag_103:\n        /* \"#utility.yul\":3091:3159   */\n      swap3\n      pop\n        /* \"#utility.yul\":2951:3169   */\n      pop\n        /* \"#utility.yul\":2938:2939   */\n      0x01\n        /* \"#utility.yul\":2935:2936   */\n      dup2\n        /* \"#utility.yul\":2931:2940   */\n      add\n        /* \"#utility.yul\":2926:2940   */\n      swap1\n      pop\n        /* \"#utility.yul\":2891:3169   */\n      jump(tag_99)\n    tag_101:\n        /* \"#utility.yul\":2895:2909   */\n      pop\n        /* \"#utility.yul\":3185:3188   */\n      dup6\n        /* \"#utility.yul\":3178:3188   */\n      swap4\n      pop\n        /* \"#utility.yul\":2598:3194   */\n      pop\n      pop\n      pop\n        /* \"#utility.yul\":2478:3194   */\n      swap3\n      swap2\n      pop\n      pop\n      jump\t// out\n        /* \"#utility.yul\":3200:3314   */\n    tag_56:\n        /* \"#utility.yul\":3267:3273   */\n      0x00\n        /* \"#utility.yul\":3301:3306   */\n      dup2\n        /* \"#utility.yul\":3295:3307   */\n      mload\n        /* \"#utility.yul\":3285:3307   */\n      swap1\n      pop\n        /* \"#utility.yul\":3200:3314   */\n      swap2\n      swap1\n      pop\n      jump\t// out\n        /* \"#utility.yul\":3320:3504   */\n    tag_57:\n        /* \"#utility.yul\":3419:3430   */\n      0x00\n        /* \"#utility.yul\":3453:3459   */\n      dup3\n        /* \"#utility.yul\":3448:3451   */\n      dup3\n        /* \"#utility.yul\":3441:3460   */\n      mstore\n        /* \"#utility.yul\":3493:3497   */\n      0x20\n        /* \"#utility.yul\":3488:3491   */\n      dup3\n        /* \"#utility.yul\":3484:3498   */\n      add\n        /* \"#utility.yul\":3469:3498   */\n      swap1\n      pop\n        /* \"#utility.yul\":3320:3504   */\n      swap3\n      swap2\n      pop\n      pop\n      jump\t// out\n        /* \"#utility.yul\":3510:3642   */\n    tag_58:\n        /* \"#utility.yul\":3577:3581   */\n      0x00\n        /* \"#utility.yul\":3600:3603   */\n      dup2\n        /* \"#utility.yul\":3592:3603   */\n      swap1\n      pop\n        /* \"#utility.yul\":3630:3634   */\n      0x20\n        /* \"#utility.yul\":3625:3628   */\n      dup3\n        /* \"#utility.yul\":3621:3635   */\n      add\n        /* \"#utility.yul\":3613:3635   */\n      swap1\n      pop\n        /* \"#utility.yul\":3510:3642   */\n      swap2\n      swap1\n      pop\n      jump\t// out\n        /* \"#utility.yul\":3648:3756   */\n    tag_59:\n        /* \"#utility.yul\":3725:3749   */\n      tag_108\n        /* \"#utility.yul\":3743:3748   */\n      dup2\n        /* \"#utility.yul\":3725:3749   */\n      tag_47\n      jump\t// in\n    tag_108:\n        /* \"#utility.yul\":3720:3723   */\n      dup3\n        /* \"#utility.yul\":3713:3750   */\n      mstore\n        /* \"#utility.yul\":3648:3756   */\n      pop\n      pop\n      jump\t// out\n        /* \"#utility.yul\":3762:3941   */\n    tag_60:\n        /* \"#utility.yul\":3831:3841   */\n      0x00\n        /* \"#utility.yul\":3852:3898   */\n      tag_110\n        /* \"#utility.yul\":3894:3897   */\n      dup4\n        /* \"#utility.yul\":3886:3892   */\n      dup4\n        /* \"#utility.yul\":3852:3898   */\n      tag_59\n      jump\t// in\n    tag_110:\n        /* \"#utility.yul\":3930:3934   */\n      0x20\n        /* \"#utility.yul\":3925:3928   */\n      dup4\n        /* \"#utility.yul\":3921:3935   */\n      add\n        /* \"#utility.yul\":3907:3935   */\n      swap1\n      pop\n        /* \"#utility.yul\":3762:3941   */\n      swap3\n      swap2\n      pop\n      pop\n      jump\t// out\n        /* \"#utility.yul\":3947:4060   */\n    tag_61:\n        /* \"#utility.yul\":4017:4021   */\n      0x00\n        /* \"#utility.yul\":4049:4053   */\n      0x20\n        /* \"#utility.yul\":4044:4047   */\n      dup3\n        /* \"#utility.yul\":4040:4054   */\n      add\n        /* \"#utility.yul\":4032:4054   */\n      swap1\n      pop\n        /* \"#utility.yul\":3947:4060   */\n      swap2\n      swap1\n      pop\n      jump\t// out\n        /* \"#utility.yul\":4096:4828   */\n    tag_62:\n        /* \"#utility.yul\":4215:4218   */\n      0x00\n        /* \"#utility.yul\":4244:4298   */\n      tag_113\n        /* \"#utility.yul\":4292:4297   */\n      dup3\n        /* \"#utility.yul\":4244:4298   */\n      tag_56\n      jump\t// in\n    tag_113:\n        /* \"#utility.yul\":4314:4400   */\n      tag_114\n        /* \"#utility.yul\":4393:4399   */\n      dup2\n        /* \"#utility.yul\":4388:4391   */\n      dup6\n        /* \"#utility.yul\":4314:4400   */\n      tag_57\n      jump\t// in\n    tag_114:\n        /* \"#utility.yul\":4307:4400   */\n      swap4\n      pop\n        /* \"#utility.yul\":4424:4480   */\n      tag_115\n        /* \"#utility.yul\":4474:4479   */\n      dup4\n        /* \"#utility.yul\":4424:4480   */\n      tag_58\n      jump\t// in\n    tag_115:\n        /* \"#utility.yul\":4503:4510   */\n      dup1\n        /* \"#utility.yul\":4534:4535   */\n      0x00\n        /* \"#utility.yul\":4519:4803   */\n    tag_116:\n        /* \"#utility.yul\":4544:4550   */\n      dup4\n        /* \"#utility.yul\":4541:4542   */\n      dup2\n        /* \"#utility.yul\":4538:4551   */\n      lt\n        /* \"#utility.yul\":4519:4803   */\n      iszero\n      tag_118\n      jumpi\n        /* \"#utility.yul\":4620:4626   */\n      dup2\n        /* \"#utility.yul\":4614:4627   */\n      mload\n        /* \"#utility.yul\":4647:4710   */\n      tag_119\n        /* \"#utility.yul\":4706:4709   */\n      dup9\n        /* \"#utility.yul\":4691:4704   */\n      dup3\n        /* \"#utility.yul\":4647:4710   */\n      tag_60\n      jump\t// in\n    tag_119:\n        /* \"#utility.yul\":4640:4710   */\n      swap8\n      pop\n        /* \"#utility.yul\":4733:4793   */\n      tag_120\n        /* \"#utility.yul\":4786:4792   */\n      dup4\n        /* \"#utility.yul\":4733:4793   */\n      tag_61\n      jump\t// in\n    tag_120:\n        /* \"#utility.yul\":4723:4793   */\n      swap3\n      pop\n        /* \"#utility.yul\":4579:4803   */\n      pop\n        /* \"#utility.yul\":4566:4567   */\n      0x01\n        /* \"#utility.yul\":4563:4564   */\n      dup2\n        /* \"#utility.yul\":4559:4568   */\n      add\n        /* \"#utility.yul\":4554:4568   */\n      swap1\n      pop\n        /* \"#utility.yul\":4519:4803   */\n      jump(tag_116)\n    tag_118:\n        /* \"#utility.yul\":4523:4537   */\n      pop\n        /* \"#utility.yul\":4819:4822   */\n      dup6\n        /* \"#utility.yul\":4812:4822   */\n      swap4\n      pop\n        /* \"#utility.yul\":4220:4828   */\n      pop\n      pop\n      pop\n        /* \"#utility.yul\":4096:4828   */\n      swap3\n      swap2\n      pop\n      pop\n      jump\t// out\n        /* \"#utility.yul\":4834:5460   */\n    tag_15:\n        /* \"#utility.yul\":5051:5055   */\n      0x00\n        /* \"#utility.yul\":5089:5091   */\n      0x40\n        /* \"#utility.yul\":5078:5087   */\n      dup3\n        /* \"#utility.yul\":5074:5092   */\n      add\n        /* \"#utility.yul\":5066:5092   */\n      swap1\n      pop\n        /* \"#utility.yul\":5138:5147   */\n      dup2\n        /* \"#utility.yul\":5132:5136   */\n      dup2\n        /* \"#utility.yul\":5128:5148   */\n      sub\n        /* \"#utility.yul\":5124:5125   */\n      0x00\n        /* \"#utility.yul\":5113:5122   */\n      dup4\n        /* \"#utility.yul\":5109:5126   */\n      add\n        /* \"#utility.yul\":5102:5149   */\n      mstore\n        /* \"#utility.yul\":5166:5270   */\n      tag_122\n        /* \"#utility.yul\":5265:5269   */\n      dup2\n        /* \"#utility.yul\":5256:5262   */\n      dup6\n        /* \"#utility.yul\":5166:5270   */\n      tag_55\n      jump\t// in\n    tag_122:\n        /* \"#utility.yul\":5158:5270   */\n      swap1\n      pop\n        /* \"#utility.yul\":5317:5326   */\n      dup2\n        /* \"#utility.yul\":5311:5315   */\n      dup2\n        /* \"#utility.yul\":5307:5327   */\n      sub\n        /* \"#utility.yul\":5302:5304   */\n      0x20\n        /* \"#utility.yul\":5291:5300   */\n      dup4\n        /* \"#utility.yul\":5287:5305   */\n      add\n        /* \"#utility.yul\":5280:5328   */\n      mstore\n        /* \"#utility.yul\":5345:5453   */\n      tag_123\n        /* \"#utility.yul\":5448:5452   */\n      dup2\n        /* \"#utility.yul\":5439:5445   */\n      dup5\n        /* \"#utility.yul\":5345:5453   */\n      tag_62\n      jump\t// in\n    tag_123:\n        /* \"#utility.yul\":5337:5453   */\n      swap1\n      pop\n        /* \"#utility.yul\":4834:5460   */\n      swap4\n      swap3\n      pop\n      pop\n      pop\n      jump\t// out\n        /* \"#utility.yul\":5466:5588   */\n    tag_63:\n        /* \"#utility.yul\":5539:5563   */\n      tag_125\n        /* \"#utility.yul\":5557:5562   */\n      dup2\n        /* \"#utility.yul\":5539:5563   */\n      tag_47\n      jump\t// in\n    tag_125:\n        /* \"#utility.yul\":5532:5537   */\n      dup2\n        /* \"#utility.yul\":5529:5564   */\n      eq\n        /* \"#utility.yul\":5519:5582   */\n      tag_126\n      jumpi\n        /* \"#utility.yul\":5578:5579   */\n      0x00\n        /* \"#utility.yul\":5575:5576   */\n      dup1\n        /* \"#utility.yul\":5568:5580   */\n      revert\n        /* \"#utility.yul\":5519:5582   */\n    tag_126:\n        /* \"#utility.yul\":5466:5588   */\n      pop\n      jump\t// out\n        /* \"#utility.yul\":5594:5733   */\n    tag_64:\n        /* \"#utility.yul\":5640:5645   */\n      0x00\n        /* \"#utility.yul\":5678:5684   */\n      dup2\n        /* \"#utility.yul\":5665:5685   */\n      calldataload\n        /* \"#utility.yul\":5656:5685   */\n      swap1\n      pop\n        /* \"#utility.yul\":5694:5727   */\n      tag_128\n        /* \"#utility.yul\":5721:5726   */\n      dup2\n        /* \"#utility.yul\":5694:5727   */\n      tag_63\n      jump\t// in\n    tag_128:\n        /* \"#utility.yul\":5594:5733   */\n      swap3\n      swap2\n      pop\n      pop\n      jump\t// out\n        /* \"#utility.yul\":5739:6068   */\n    tag_18:\n        /* \"#utility.yul\":5798:5804   */\n      0x00\n        /* \"#utility.yul\":5847:5849   */\n      0x20\n        /* \"#utility.yul\":5835:5844   */\n      dup3\n        /* \"#utility.yul\":5826:5833   */\n      dup5\n        /* \"#utility.yul\":5822:5845   */\n      sub\n        /* \"#utility.yul\":5818:5850   */\n      slt\n        /* \"#utility.yul\":5815:5934   */\n      iszero\n      tag_130\n      jumpi\n        /* \"#utility.yul\":5853:5932   */\n      tag_131\n      tag_41\n      jump\t// in\n    tag_131:\n        /* \"#utility.yul\":5815:5934   */\n    tag_130:\n        /* \"#utility.yul\":5973:5974   */\n      0x00\n        /* \"#utility.yul\":5998:6051   */\n      tag_132\n        /* \"#utility.yul\":6043:6050   */\n      dup5\n        /* \"#utility.yul\":6034:6040   */\n      dup3\n        /* \"#utility.yul\":6023:6032   */\n      dup6\n        /* \"#utility.yul\":6019:6041   */\n      add\n        /* \"#utility.yul\":5998:6051   */\n      tag_64\n      jump\t// in\n    tag_132:\n        /* \"#utility.yul\":5988:6051   */\n      swap2\n      pop\n        /* \"#utility.yul\":5944:6061   */\n      pop\n        /* \"#utility.yul\":5739:6068   */\n      swap3\n      swap2\n      pop\n      pop\n      jump\t// out\n        /* \"#utility.yul\":6074:6254   */\n    tag_23:\n        /* \"#utility.yul\":6122:6199   */\n      0x4e487b7100000000000000000000000000000000000000000000000000000000\n        /* \"#utility.yul\":6119:6120   */\n      0x00\n        /* \"#utility.yul\":6112:6200   */\n      mstore\n        /* \"#utility.yul\":6219:6223   */\n      0x41\n        /* \"#utility.yul\":6216:6217   */\n      0x04\n        /* \"#utility.yul\":6209:6224   */\n      mstore\n        /* \"#utility.yul\":6243:6247   */\n      0x24\n        /* \"#utility.yul\":6240:6241   */\n      0x00\n        /* \"#utility.yul\":6233:6248   */\n      revert\n        /* \"#utility.yul\":6260:6440   */\n    tag_33:\n        /* \"#utility.yul\":6308:6385   */\n      0x4e487b7100000000000000000000000000000000000000000000000000000000\n        /* \"#utility.yul\":6305:6306   */\n      0x00\n        /* \"#utility.yul\":6298:6386   */\n      mstore\n        /* \"#utility.yul\":6405:6409   */\n      0x32\n        /* \"#utility.yul\":6402:6403   */\n      0x04\n        /* \"#utility.yul\":6395:6410   */\n      mstore\n        /* \"#utility.yul\":6429:6433   */\n      0x24\n        /* \"#utility.yul\":6426:6427   */\n      0x00\n        /* \"#utility.yul\":6419:6434   */\n      revert\n        /* \"#utility.yul\":6446:6626   */\n    tag_65:\n        /* \"#utility.yul\":6494:6571   */\n      0x4e487b7100000000000000000000000000000000000000000000000000000000\n        /* \"#utility.yul\":6491:6492   */\n      0x00\n        /* \"#utility.yul\":6484:6572   */\n      mstore\n        /* \"#utility.yul\":6591:6595   */\n      0x11\n        /* \"#utility.yul\":6588:6589   */\n      0x04\n        /* \"#utility.yul\":6581:6596   */\n      mstore\n        /* \"#utility.yul\":6615:6619   */\n      0x24\n        /* \"#utility.yul\":6612:6613   */\n      0x00\n        /* \"#utility.yul\":6605:6620   */\n      revert\n        /* \"#utility.yul\":6632:6799   */\n    tag_37:\n        /* \"#utility.yul\":6669:6672   */\n      0x00\n        /* \"#utility.yul\":6692:6714   */\n      tag_137\n        /* \"#utility.yul\":6708:6713   */\n      dup3\n        /* \"#utility.yul\":6692:6714   */\n      tag_43\n      jump\t// in\n    tag_137:\n        /* \"#utility.yul\":6683:6714   */\n      swap2\n      pop\n        /* \"#utility.yul\":6736:6740   */\n      0xff\n        /* \"#utility.yul\":6729:6734   */\n      dup3\n        /* \"#utility.yul\":6726:6741   */\n      sub\n        /* \"#utility.yul\":6723:6764   */\n      tag_138\n      jumpi\n        /* \"#utility.yul\":6744:6762   */\n      tag_139\n      tag_65\n      jump\t// in\n    tag_139:\n        /* \"#utility.yul\":6723:6764   */\n    tag_138:\n        /* \"#utility.yul\":6791:6792   */\n      0x01\n        /* \"#utility.yul\":6784:6789   */\n      dup3\n        /* \"#utility.yul\":6780:6793   */\n      add\n        /* \"#utility.yul\":6773:6793   */\n      swap1\n      pop\n        /* \"#utility.yul\":6632:6799   */\n      swap2\n      swap1\n      pop\n      jump\t// out\n\n    auxdata: 0xa2646970667358221220873f8ffb397b877249b87ea8be9e8e6a84a4d9d26d2138e354ca06c8636bebf164736f6c63430008120033\n}\n",
				"bytecode": {
					"linkReferences": {},
					"object": "608060405234801561001057600080fd5b506106f2806100206000396000f3fe608060405234801561001057600080fd5b50600436106100415760003560e01c8063733f28a814610046578063db7a460514610076578063deaa59df14610095575b600080fd5b610060600480360381019061005b9190610371565b6100b1565b60405161006d91906103df565b60405180910390f35b61007e6100e4565b60405161008c929190610576565b60405180910390f35b6100af60048036038101906100aa91906105d9565b610297565b005b60006020528060005260406000206000915054906101000a900473ffffffffffffffffffffffffffffffffffffffff1681565b6060806000600160009054906101000a900460ff1660ff1667ffffffffffffffff81111561011557610114610606565b5b6040519080825280602002602001820160405280156101435781602001602082028036833780820191505090505b5090506000600160009054906101000a900460ff1660ff1667ffffffffffffffff81111561017457610173610606565b5b6040519080825280602002602001820160405280156101a25781602001602082028036833780820191505090505b50905060005b600160009054906101000a900460ff1660ff168160ff16101561028a5780838260ff16815181106101dc576101db610635565b5b602002602001019060ff16908160ff16815250506000808260ff1660ff16815260200190815260200160002060009054906101000a900473ffffffffffffffffffffffffffffffffffffffff16828260ff168151811061023f5761023e610635565b5b602002602001019073ffffffffffffffffffffffffffffffffffffffff16908173ffffffffffffffffffffffffffffffffffffffff16815250508061028390610693565b90506101a8565b5081819350935050509091565b80600080600160009054906101000a900460ff1660ff1660ff16815260200190815260200160002060006101000a81548173ffffffffffffffffffffffffffffffffffffffff021916908373ffffffffffffffffffffffffffffffffffffffff1602179055506001600081819054906101000a900460ff1661031890610693565b91906101000a81548160ff021916908360ff16021790555050565b600080fd5b600060ff82169050919050565b61034e81610338565b811461035957600080fd5b50565b60008135905061036b81610345565b92915050565b60006020828403121561038757610386610333565b5b60006103958482850161035c565b91505092915050565b600073ffffffffffffffffffffffffffffffffffffffff82169050919050565b60006103c98261039e565b9050919050565b6103d9816103be565b82525050565b60006020820190506103f460008301846103d0565b92915050565b600081519050919050565b600082825260208201905092915050565b6000819050602082019050919050565b61042f81610338565b82525050565b60006104418383610426565b60208301905092915050565b6000602082019050919050565b6000610465826103fa565b61046f8185610405565b935061047a83610416565b8060005b838110156104ab5781516104928882610435565b975061049d8361044d565b92505060018101905061047e565b5085935050505092915050565b600081519050919050565b600082825260208201905092915050565b6000819050602082019050919050565b6104ed816103be565b82525050565b60006104ff83836104e4565b60208301905092915050565b6000602082019050919050565b6000610523826104b8565b61052d81856104c3565b9350610538836104d4565b8060005b8381101561056957815161055088826104f3565b975061055b8361050b565b92505060018101905061053c565b5085935050505092915050565b60006040820190508181036000830152610590818561045a565b905081810360208301526105a48184610518565b90509392505050565b6105b6816103be565b81146105c157600080fd5b50565b6000813590506105d3816105ad565b92915050565b6000602082840312156105ef576105ee610333565b5b60006105fd848285016105c4565b91505092915050565b7f4e487b7100000000000000000000000000000000000000000000000000000000600052604160045260246000fd5b7f4e487b7100000000000000000000000000000000000000000000000000000000600052603260045260246000fd5b7f4e487b7100000000000000000000000000000000000000000000000000000000600052601160045260246000fd5b600061069e82610338565b915060ff82036106b1576106b0610664565b5b60018201905091905056fea2646970667358221220873f8ffb397b877249b87ea8be9e8e6a84a4d9d26d2138e354ca06c8636bebf164736f6c63430008120033",
					"opcodes": "PUSH1 0x80 PUSH1 0x40 MSTORE CALLVALUE DUP1 ISZERO PUSH2 0x10 JUMPI PUSH1 0x0 DUP1 REVERT JUMPDEST POP PUSH2 0x6F2 DUP1 PUSH2 0x20 PUSH1 0x0 CODECOPY PUSH1 0x0 RETURN INVALID PUSH1 0x80 PUSH1 0x40 MSTORE CALLVALUE DUP1 ISZERO PUSH2 0x10 JUMPI PUSH1 0x0 DUP1 REVERT JUMPDEST POP PUSH1 0x4 CALLDATASIZE LT PUSH2 0x41 JUMPI PUSH1 0x0 CALLDATALOAD PUSH1 0xE0 SHR DUP1 PUSH4 0x733F28A8 EQ PUSH2 0x46 JUMPI DUP1 PUSH4 0xDB7A4605 EQ PUSH2 0x76 JUMPI DUP1 PUSH4 0xDEAA59DF EQ PUSH2 0x95 JUMPI JUMPDEST PUSH1 0x0 DUP1 REVERT JUMPDEST PUSH2 0x60 PUSH1 0x4 DUP1 CALLDATASIZE SUB DUP2 ADD SWAP1 PUSH2 0x5B SWAP2 SWAP1 PUSH2 0x371 JUMP JUMPDEST PUSH2 0xB1 JUMP JUMPDEST PUSH1 0x40 MLOAD PUSH2 0x6D SWAP2 SWAP1 PUSH2 0x3DF JUMP JUMPDEST PUSH1 0x40 MLOAD DUP1 SWAP2 SUB SWAP1 RETURN JUMPDEST PUSH2 0x7E PUSH2 0xE4 JUMP JUMPDEST PUSH1 0x40 MLOAD PUSH2 0x8C SWAP3 SWAP2 SWAP1 PUSH2 0x576 JUMP JUMPDEST PUSH1 0x40 MLOAD DUP1 SWAP2 SUB SWAP1 RETURN JUMPDEST PUSH2 0xAF PUSH1 0x4 DUP1 CALLDATASIZE SUB DUP2 ADD SWAP1 PUSH2 0xAA SWAP2 SWAP1 PUSH2 0x5D9 JUMP JUMPDEST PUSH2 0x297 JUMP JUMPDEST STOP JUMPDEST PUSH1 0x0 PUSH1 0x20 MSTORE DUP1 PUSH1 0x0 MSTORE PUSH1 0x40 PUSH1 0x0 KECCAK256 PUSH1 0x0 SWAP2 POP SLOAD SWAP1 PUSH2 0x100 EXP SWAP1 DIV PUSH20 0xFFFFFFFFFFFFFFFFFFFFFFFFFFFFFFFFFFFFFFFF AND DUP2 JUMP JUMPDEST PUSH1 0x60 DUP1 PUSH1 0x0 PUSH1 0x1 PUSH1 0x0 SWAP1 SLOAD SWAP1 PUSH2 0x100 EXP SWAP1 DIV PUSH1 0xFF AND PUSH1 0xFF AND PUSH8 0xFFFFFFFFFFFFFFFF DUP2 GT ISZERO PUSH2 0x115 JUMPI PUSH2 0x114 PUSH2 0x606 JUMP JUMPDEST JUMPDEST PUSH1 0x40 MLOAD SWAP1 DUP1 DUP3 MSTORE DUP1 PUSH1 0x20 MUL PUSH1 0x20 ADD DUP3 ADD PUSH1 0x40 MSTORE DUP1 ISZERO PUSH2 0x143 JUMPI DUP2 PUSH1 0x20 ADD PUSH1 0x20 DUP3 MUL DUP1 CALLDATASIZE DUP4 CALLDATACOPY DUP1 DUP3 ADD SWAP2 POP POP SWAP1 POP JUMPDEST POP SWAP1 POP PUSH1 0x0 PUSH1 0x1 PUSH1 0x0 SWAP1 SLOAD SWAP1 PUSH2 0x100 EXP SWAP1 DIV PUSH1 0xFF AND PUSH1 0xFF AND PUSH8 0xFFFFFFFFFFFFFFFF DUP2 GT ISZERO PUSH2 0x174 JUMPI PUSH2 0x173 PUSH2 0x606 JUMP JUMPDEST JUMPDEST PUSH1 0x40 MLOAD SWAP1 DUP1 DUP3 MSTORE DUP1 PUSH1 0x20 MUL PUSH1 0x20 ADD DUP3 ADD PUSH1 0x40 MSTORE DUP1 ISZERO PUSH2 0x1A2 JUMPI DUP2 PUSH1 0x20 ADD PUSH1 0x20 DUP3 MUL DUP1 CALLDATASIZE DUP4 CALLDATACOPY DUP1 DUP3 ADD SWAP2 POP POP SWAP1 POP JUMPDEST POP SWAP1 POP PUSH1 0x0 JUMPDEST PUSH1 0x1 PUSH1 0x0 SWAP1 SLOAD SWAP1 PUSH2 0x100 EXP SWAP1 DIV PUSH1 0xFF AND PUSH1 0xFF AND DUP2 PUSH1 0xFF AND LT ISZERO PUSH2 0x28A JUMPI DUP1 DUP4 DUP3 PUSH1 0xFF AND DUP2 MLOAD DUP2 LT PUSH2 0x1DC JUMPI PUSH2 0x1DB PUSH2 0x635 JUMP JUMPDEST JUMPDEST PUSH1 0x20 MUL PUSH1 0x20 ADD ADD SWAP1 PUSH1 0xFF AND SWAP1 DUP2 PUSH1 0xFF AND DUP2 MSTORE POP POP PUSH1 0x0 DUP1 DUP3 PUSH1 0xFF AND PUSH1 0xFF AND DUP2 MSTORE PUSH1 0x20 ADD SWAP1 DUP2 MSTORE PUSH1 0x20 ADD PUSH1 0x0 KECCAK256 PUSH1 0x0 SWAP1 SLOAD SWAP1 PUSH2 0x100 EXP SWAP1 DIV PUSH20 0xFFFFFFFFFFFFFFFFFFFFFFFFFFFFFFFFFFFFFFFF AND DUP3 DUP3 PUSH1 0xFF AND DUP2 MLOAD DUP2 LT PUSH2 0x23F JUMPI PUSH2 0x23E PUSH2 0x635 JUMP JUMPDEST JUMPDEST PUSH1 0x20 MUL PUSH1 0x20 ADD ADD SWAP1 PUSH20 0xFFFFFFFFFFFFFFFFFFFFFFFFFFFFFFFFFFFFFFFF AND SWAP1 DUP2 PUSH20 0xFFFFFFFFFFFFFFFFFFFFFFFFFFFFFFFFFFFFFFFF AND DUP2 MSTORE POP POP DUP1 PUSH2 0x283 SWAP1 PUSH2 0x693 JUMP JUMPDEST SWAP1 POP PUSH2 0x1A8 JUMP JUMPDEST POP DUP2 DUP2 SWAP4 POP SWAP4 POP POP POP SWAP1 SWAP2 JUMP JUMPDEST DUP1 PUSH1 0x0 DUP1 PUSH1 0x1 PUSH1 0x0 SWAP1 SLOAD SWAP1 PUSH2 0x100 EXP SWAP1 DIV PUSH1 0xFF AND PUSH1 0xFF AND PUSH1 0xFF AND DUP2 MSTORE PUSH1 0x20 ADD SWAP1 DUP2 MSTORE PUSH1 0x20 ADD PUSH1 0x0 KECCAK256 PUSH1 0x0 PUSH2 0x100 EXP DUP2 SLOAD DUP2 PUSH20 0xFFFFFFFFFFFFFFFFFFFFFFFFFFFFFFFFFFFFFFFF MUL NOT AND SWAP1 DUP4 PUSH20 0xFFFFFFFFFFFFFFFFFFFFFFFFFFFFFFFFFFFFFFFF AND MUL OR SWAP1 SSTORE POP PUSH1 0x1 PUSH1 0x0 DUP2 DUP2 SWAP1 SLOAD SWAP1 PUSH2 0x100 EXP SWAP1 DIV PUSH1 0xFF AND PUSH2 0x318 SWAP1 PUSH2 0x693 JUMP JUMPDEST SWAP2 SWAP1 PUSH2 0x100 EXP DUP2 SLOAD DUP2 PUSH1 0xFF MUL NOT AND SWAP1 DUP4 PUSH1 0xFF AND MUL OR SWAP1 SSTORE POP POP JUMP JUMPDEST PUSH1 0x0 DUP1 REVERT JUMPDEST PUSH1 0x0 PUSH1 0xFF DUP3 AND SWAP1 POP SWAP2 SWAP1 POP JUMP JUMPDEST PUSH2 0x34E DUP2 PUSH2 0x338 JUMP JUMPDEST DUP2 EQ PUSH2 0x359 JUMPI PUSH1 0x0 DUP1 REVERT JUMPDEST POP JUMP JUMPDEST PUSH1 0x0 DUP2 CALLDATALOAD SWAP1 POP PUSH2 0x36B DUP2 PUSH2 0x345 JUMP JUMPDEST SWAP3 SWAP2 POP POP JUMP JUMPDEST PUSH1 0x0 PUSH1 0x20 DUP3 DUP5 SUB SLT ISZERO PUSH2 0x387 JUMPI PUSH2 0x386 PUSH2 0x333 JUMP JUMPDEST JUMPDEST PUSH1 0x0 PUSH2 0x395 DUP5 DUP3 DUP6 ADD PUSH2 0x35C JUMP JUMPDEST SWAP2 POP POP SWAP3 SWAP2 POP POP JUMP JUMPDEST PUSH1 0x0 PUSH20 0xFFFFFFFFFFFFFFFFFFFFFFFFFFFFFFFFFFFFFFFF DUP3 AND SWAP1 POP SWAP2 SWAP1 POP JUMP JUMPDEST PUSH1 0x0 PUSH2 0x3C9 DUP3 PUSH2 0x39E JUMP JUMPDEST SWAP1 POP SWAP2 SWAP1 POP JUMP JUMPDEST PUSH2 0x3D9 DUP2 PUSH2 0x3BE JUMP JUMPDEST DUP3 MSTORE POP POP JUMP JUMPDEST PUSH1 0x0 PUSH1 0x20 DUP3 ADD SWAP1 POP PUSH2 0x3F4 PUSH1 0x0 DUP4 ADD DUP5 PUSH2 0x3D0 JUMP JUMPDEST SWAP3 SWAP2 POP POP JUMP JUMPDEST PUSH1 0x0 DUP2 MLOAD SWAP1 POP SWAP2 SWAP1 POP JUMP JUMPDEST PUSH1 0x0 DUP3 DUP3 MSTORE PUSH1 0x20 DUP3 ADD SWAP1 POP SWAP3 SWAP2 POP POP JUMP JUMPDEST PUSH1 0x0 DUP2 SWAP1 POP PUSH1 0x20 DUP3 ADD SWAP1 POP SWAP2 SWAP1 POP JUMP JUMPDEST PUSH2 0x42F DUP2 PUSH2 0x338 JUMP JUMPDEST DUP3 MSTORE POP POP JUMP JUMPDEST PUSH1 0x0 PUSH2 0x441 DUP4 DUP4 PUSH2 0x426 JUMP JUMPDEST PUSH1 0x20 DUP4 ADD SWAP1 POP SWAP3 SWAP2 POP POP JUMP JUMPDEST PUSH1 0x0 PUSH1 0x20 DUP3 ADD SWAP1 POP SWAP2 SWAP1 POP JUMP JUMPDEST PUSH1 0x0 PUSH2 0x465 DUP3 PUSH2 0x3FA JUMP JUMPDEST PUSH2 0x46F DUP2 DUP6 PUSH2 0x405 JUMP JUMPDEST SWAP4 POP PUSH2 0x47A DUP4 PUSH2 0x416 JUMP JUMPDEST DUP1 PUSH1 0x0 JUMPDEST DUP4 DUP2 LT ISZERO PUSH2 0x4AB JUMPI DUP2 MLOAD PUSH2 0x492 DUP9 DUP3 PUSH2 0x435 JUMP JUMPDEST SWAP8 POP PUSH2 0x49D DUP4 PUSH2 0x44D JUMP JUMPDEST SWAP3 POP POP PUSH1 0x1 DUP2 ADD SWAP1 POP PUSH2 0x47E JUMP JUMPDEST POP DUP6 SWAP4 POP POP POP POP SWAP3 SWAP2 POP POP JUMP JUMPDEST PUSH1 0x0 DUP2 MLOAD SWAP1 POP SWAP2 SWAP1 POP JUMP JUMPDEST PUSH1 0x0 DUP3 DUP3 MSTORE PUSH1 0x20 DUP3 ADD SWAP1 POP SWAP3 SWAP2 POP POP JUMP JUMPDEST PUSH1 0x0 DUP2 SWAP1 POP PUSH1 0x20 DUP3 ADD SWAP1 POP SWAP2 SWAP1 POP JUMP JUMPDEST PUSH2 0x4ED DUP2 PUSH2 0x3BE JUMP JUMPDEST DUP3 MSTORE POP POP JUMP JUMPDEST PUSH1 0x0 PUSH2 0x4FF DUP4 DUP4 PUSH2 0x4E4 JUMP JUMPDEST PUSH1 0x20 DUP4 ADD SWAP1 POP SWAP3 SWAP2 POP POP JUMP JUMPDEST PUSH1 0x0 PUSH1 0x20 DUP3 ADD SWAP1 POP SWAP2 SWAP1 POP JUMP JUMPDEST PUSH1 0x0 PUSH2 0x523 DUP3 PUSH2 0x4B8 JUMP JUMPDEST PUSH2 0x52D DUP2 DUP6 PUSH2 0x4C3 JUMP JUMPDEST SWAP4 POP PUSH2 0x538 DUP4 PUSH2 0x4D4 JUMP JUMPDEST DUP1 PUSH1 0x0 JUMPDEST DUP4 DUP2 LT ISZERO PUSH2 0x569 JUMPI DUP2 MLOAD PUSH2 0x550 DUP9 DUP3 PUSH2 0x4F3 JUMP JUMPDEST SWAP8 POP PUSH2 0x55B DUP4 PUSH2 0x50B JUMP JUMPDEST SWAP3 POP POP PUSH1 0x1 DUP2 ADD SWAP1 POP PUSH2 0x53C JUMP JUMPDEST POP DUP6 SWAP4 POP POP POP POP SWAP3 SWAP2 POP POP JUMP JUMPDEST PUSH1 0x0 PUSH1 0x40 DUP3 ADD SWAP1 POP DUP2 DUP2 SUB PUSH1 0x0 DUP4 ADD MSTORE PUSH2 0x590 DUP2 DUP6 PUSH2 0x45A JUMP JUMPDEST SWAP1 POP DUP2 DUP2 SUB PUSH1 0x20 DUP4 ADD MSTORE PUSH2 0x5A4 DUP2 DUP5 PUSH2 0x518 JUMP JUMPDEST SWAP1 POP SWAP4 SWAP3 POP POP POP JUMP JUMPDEST PUSH2 0x5B6 DUP2 PUSH2 0x3BE JUMP JUMPDEST DUP2 EQ PUSH2 0x5C1 JUMPI PUSH1 0x0 DUP1 REVERT JUMPDEST POP JUMP JUMPDEST PUSH1 0x0 DUP2 CALLDATALOAD SWAP1 POP PUSH2 0x5D3 DUP2 PUSH2 0x5AD JUMP JUMPDEST SWAP3 SWAP2 POP POP JUMP JUMPDEST PUSH1 0x0 PUSH1 0x20 DUP3 DUP5 SUB SLT ISZERO PUSH2 0x5EF JUMPI PUSH2 0x5EE PUSH2 0x333 JUMP JUMPDEST JUMPDEST PUSH1 0x0 PUSH2 0x5FD DUP5 DUP3 DUP6 ADD PUSH2 0x5C4 JUMP JUMPDEST SWAP2 POP POP SWAP3 SWAP2 POP POP JUMP JUMPDEST PUSH32 0x4E487B7100000000000000000000000000000000000000000000000000000000 PUSH1 0x0 MSTORE PUSH1 0x41 PUSH1 0x4 MSTORE PUSH1 0x24 PUSH1 0x0 REVERT JUMPDEST PUSH32 0x4E487B7100000000000000000000000000000000000000000000000000000000 PUSH1 0x0 MSTORE PUSH1 0x32 PUSH1 0x4 MSTORE PUSH1 0x24 PUSH1 0x0 REVERT JUMPDEST PUSH32 0x4E487B7100000000000000000000000000000000000000000000000000000000 PUSH1 0x0 MSTORE PUSH1 0x11 PUSH1 0x4 MSTORE PUSH1 0x24 PUSH1 0x0 REVERT JUMPDEST PUSH1 0x0 PUSH2 0x69E DUP3 PUSH2 0x338 JUMP JUMPDEST SWAP2 POP PUSH1 0xFF DUP3 SUB PUSH2 0x6B1 JUMPI PUSH2 0x6B0 PUSH2 0x664 JUMP JUMPDEST JUMPDEST PUSH1 0x1 DUP3 ADD SWAP1 POP SWAP2 SWAP1 POP JUMP INVALID LOG2 PUSH5 0x6970667358 0x22 SLT KECCAK256 DUP8 EXTCODEHASH DUP16 0xFB CODECOPY PUSH28 0x877249B87EA8BE9E8E6A84A4D9D26D2138E354CA06C8636BEBF16473 PUSH16 0x6C634300081200330000000000000000 "
				},
				"gasEstimates": {
					"creation": {
						"codeDepositCost": "355600",
						"executionCost": "393",
						"totalCost": "355993"
					},
					"external": {
						"getWallets()": "infinite",
						"setWallet(address)": "53511",
						"wallets(uint8)": "2823"
					}
				},
				"methodIdentifiers": {
					"getWallets()": "db7a4605",
					"setWallet(address)": "deaa59df",
					"wallets(uint8)": "733f28a8"
				}
			},
			"storageLayout": {
				"storage": [
					{
						"astId": 5,
						"contract": "mapping.sol:Mapping",
						"label": "wallets",
						"offset": 0,
						"slot": "0",
						"type": "t_mapping(t_uint8,t_address)"
					},
					{
						"astId": 7,
						"contract": "mapping.sol:Mapping",
						"label": "walletAmmount",
						"offset": 0,
						"slot": "1",
						"type": "t_uint8"
					}
				],
				"types": {
					"t_address": {
						"encoding": "inplace",
						"label": "address",
						"numberOfBytes": "20"
					},
					"t_mapping(t_uint8,t_address)": {
						"encoding": "mapping",
						"key": "t_uint8",
						"label": "mapping(uint8 => address)",
						"numberOfBytes": "32",
						"value": "t_address"
					},
					"t_uint8": {
						"encoding": "inplace",
						"label": "uint8",
						"numberOfBytes": "1"
					}
				}
			},
			"userdoc": {
				"kind": "user",
				"methods": {},
				"version": 1
			}
		}
	}
}