{
	"calling.sol": {
		"A": {
			"abi": [
				{
					"stateMutability": "payable",
					"type": "fallback"
				},
				{
					"inputs": [
						{
							"internalType": "uint8",
							"name": "_x",
							"type": "uint8"
						}
					],
					"name": "setValue",
					"outputs": [],
					"stateMutability": "nonpayable",
					"type": "function"
				},
				{
					"inputs": [],
					"name": "x",
					"outputs": [
						{
							"internalType": "uint8",
							"name": "",
							"type": "uint8"
						}
					],
					"stateMutability": "view",
					"type": "function"
				},
				{
					"stateMutability": "payable",
					"type": "receive"
				}
			],
			"devdoc": {
				"kind": "dev",
				"methods": {},
				"version": 1
			},
			"evm": {
				"assembly": "    /* \"calling.sol\":63:239  contract A{... */\n  mstore(0x40, 0x80)\n  callvalue\n  dup1\n  iszero\n  tag_1\n  jumpi\n  0x00\n  dup1\n  revert\ntag_1:\n  pop\n  dataSize(sub_0)\n  dup1\n  dataOffset(sub_0)\n  0x00\n  codecopy\n  0x00\n  return\nstop\n\nsub_0: assembly {\n        /* \"calling.sol\":63:239  contract A{... */\n      mstore(0x40, 0x80)\n      jumpi(tag_1, lt(calldatasize, 0x04))\n      shr(0xe0, calldataload(0x00))\n      dup1\n      0x0c55699c\n      eq\n      tag_3\n      jumpi\n      dup1\n      0x4c111ff8\n      eq\n      tag_4\n      jumpi\n      jump(tag_2)\n    tag_1:\n      jumpi(tag_2, calldatasize)\n      stop\n    tag_2:\n      stop\n        /* \"calling.sol\":82:96  uint8 public x */\n    tag_3:\n      callvalue\n      dup1\n      iszero\n      tag_9\n      jumpi\n      0x00\n      dup1\n      revert\n    tag_9:\n      pop\n      tag_10\n      tag_11\n      jump\t// in\n    tag_10:\n      mload(0x40)\n      tag_12\n      swap2\n      swap1\n      tag_13\n      jump\t// in\n    tag_12:\n      mload(0x40)\n      dup1\n      swap2\n      sub\n      swap1\n      return\n        /* \"calling.sol\":105:163  function setValue(uint8 _x) public {... */\n    tag_4:\n      callvalue\n      dup1\n      iszero\n      tag_14\n      jumpi\n      0x00\n      dup1\n      revert\n    tag_14:\n      pop\n      tag_15\n      0x04\n      dup1\n      calldatasize\n      sub\n      dup2\n      add\n      swap1\n      tag_16\n      swap2\n      swap1\n      tag_17\n      jump\t// in\n    tag_16:\n      tag_18\n      jump\t// in\n    tag_15:\n      stop\n        /* \"calling.sol\":82:96  uint8 public x */\n    tag_11:\n      0x00\n      dup1\n      sload\n      swap1\n      0x0100\n      exp\n      swap1\n      div\n      0xff\n      and\n      dup2\n      jump\t// out\n        /* \"calling.sol\":105:163  function setValue(uint8 _x) public {... */\n    tag_18:\n        /* \"calling.sol\":153:155  _x */\n      dup1\n        /* \"calling.sol\":151:152  x */\n      0x00\n      dup1\n        /* \"calling.sol\":151:155  x=_x */\n      0x0100\n      exp\n      dup2\n      sload\n      dup2\n      0xff\n      mul\n      not\n      and\n      swap1\n      dup4\n      0xff\n      and\n      mul\n      or\n      swap1\n      sstore\n      pop\n        /* \"calling.sol\":105:163  function setValue(uint8 _x) public {... */\n      pop\n      jump\t// out\n        /* \"#utility.yul\":7:93   */\n    tag_20:\n        /* \"#utility.yul\":42:49   */\n      0x00\n        /* \"#utility.yul\":82:86   */\n      0xff\n        /* \"#utility.yul\":75:80   */\n      dup3\n        /* \"#utility.yul\":71:87   */\n      and\n        /* \"#utility.yul\":60:87   */\n      swap1\n      pop\n        /* \"#utility.yul\":7:93   */\n      swap2\n      swap1\n      pop\n      jump\t// out\n        /* \"#utility.yul\":99:211   */\n    tag_21:\n        /* \"#utility.yul\":182:204   */\n      tag_30\n        /* \"#utility.yul\":198:203   */\n      dup2\n        /* \"#utility.yul\":182:204   */\n      tag_20\n      jump\t// in\n    tag_30:\n        /* \"#utility.yul\":177:180   */\n      dup3\n        /* \"#utility.yul\":170:205   */\n      mstore\n        /* \"#utility.yul\":99:211   */\n      pop\n      pop\n      jump\t// out\n        /* \"#utility.yul\":217:431   */\n    tag_13:\n        /* \"#utility.yul\":306:310   */\n      0x00\n        /* \"#utility.yul\":344:346   */\n      0x20\n        /* \"#utility.yul\":333:342   */\n      dup3\n        /* \"#utility.yul\":329:347   */\n      add\n        /* \"#utility.yul\":321:347   */\n      swap1\n      pop\n        /* \"#utility.yul\":357:424   */\n      tag_32\n        /* \"#utility.yul\":421:422   */\n      0x00\n        /* \"#utility.yul\":410:419   */\n      dup4\n        /* \"#utility.yul\":406:423   */\n      add\n        /* \"#utility.yul\":397:403   */\n      dup5\n        /* \"#utility.yul\":357:424   */\n      tag_21\n      jump\t// in\n    tag_32:\n        /* \"#utility.yul\":217:431   */\n      swap3\n      swap2\n      pop\n      pop\n      jump\t// out\n        /* \"#utility.yul\":518:635   */\n    tag_23:\n        /* \"#utility.yul\":627:628   */\n      0x00\n        /* \"#utility.yul\":624:625   */\n      dup1\n        /* \"#utility.yul\":617:629   */\n      revert\n        /* \"#utility.yul\":764:882   */\n    tag_25:\n        /* \"#utility.yul\":835:857   */\n      tag_37\n        /* \"#utility.yul\":851:856   */\n      dup2\n        /* \"#utility.yul\":835:857   */\n      tag_20\n      jump\t// in\n    tag_37:\n        /* \"#utility.yul\":828:833   */\n      dup2\n        /* \"#utility.yul\":825:858   */\n      eq\n        /* \"#utility.yul\":815:876   */\n      tag_38\n      jumpi\n        /* \"#utility.yul\":872:873   */\n      0x00\n        /* \"#utility.yul\":869:870   */\n      dup1\n        /* \"#utility.yul\":862:874   */\n      revert\n        /* \"#utility.yul\":815:876   */\n    tag_38:\n        /* \"#utility.yul\":764:882   */\n      pop\n      jump\t// out\n        /* \"#utility.yul\":888:1023   */\n    tag_26:\n        /* \"#utility.yul\":932:937   */\n      0x00\n        /* \"#utility.yul\":970:976   */\n      dup2\n        /* \"#utility.yul\":957:977   */\n      calldataload\n        /* \"#utility.yul\":948:977   */\n      swap1\n      pop\n        /* \"#utility.yul\":986:1017   */\n      tag_40\n        /* \"#utility.yul\":1011:1016   */\n      dup2\n        /* \"#utility.yul\":986:1017   */\n      tag_25\n      jump\t// in\n    tag_40:\n        /* \"#utility.yul\":888:1023   */\n      swap3\n      swap2\n      pop\n      pop\n      jump\t// out\n        /* \"#utility.yul\":1029:1354   */\n    tag_17:\n        /* \"#utility.yul\":1086:1092   */\n      0x00\n        /* \"#utility.yul\":1135:1137   */\n      0x20\n        /* \"#utility.yul\":1123:1132   */\n      dup3\n        /* \"#utility.yul\":1114:1121   */\n      dup5\n        /* \"#utility.yul\":1110:1133   */\n      sub\n        /* \"#utility.yul\":1106:1138   */\n      slt\n        /* \"#utility.yul\":1103:1222   */\n      iszero\n      tag_42\n      jumpi\n        /* \"#utility.yul\":1141:1220   */\n      tag_43\n      tag_23\n      jump\t// in\n    tag_43:\n        /* \"#utility.yul\":1103:1222   */\n    tag_42:\n        /* \"#utility.yul\":1261:1262   */\n      0x00\n        /* \"#utility.yul\":1286:1337   */\n      tag_44\n        /* \"#utility.yul\":1329:1336   */\n      dup5\n        /* \"#utility.yul\":1320:1326   */\n      dup3\n        /* \"#utility.yul\":1309:1318   */\n      dup6\n        /* \"#utility.yul\":1305:1327   */\n      add\n        /* \"#utility.yul\":1286:1337   */\n      tag_26\n      jump\t// in\n    tag_44:\n        /* \"#utility.yul\":1276:1337   */\n      swap2\n      pop\n        /* \"#utility.yul\":1232:1347   */\n      pop\n        /* \"#utility.yul\":1029:1354   */\n      swap3\n      swap2\n      pop\n      pop\n      jump\t// out\n\n    auxdata: 0xa2646970667358221220f84365da7c14019b3d8c488b7ff11bddae354b16155188ad6cc8bd117c3f494b64736f6c63430008120033\n}\n",
				"bytecode": {
					"linkReferences": {},
					"object": "608060405234801561001057600080fd5b50610183806100206000396000f3fe60806040526004361061002d5760003560e01c80630c55699c146100365780634c111ff81461006157610034565b3661003457005b005b34801561004257600080fd5b5061004b61008a565b60405161005891906100d4565b60405180910390f35b34801561006d57600080fd5b5061008860048036038101906100839190610120565b61009b565b005b60008054906101000a900460ff1681565b806000806101000a81548160ff021916908360ff16021790555050565b600060ff82169050919050565b6100ce816100b8565b82525050565b60006020820190506100e960008301846100c5565b92915050565b600080fd5b6100fd816100b8565b811461010857600080fd5b50565b60008135905061011a816100f4565b92915050565b600060208284031215610136576101356100ef565b5b60006101448482850161010b565b9150509291505056fea2646970667358221220f84365da7c14019b3d8c488b7ff11bddae354b16155188ad6cc8bd117c3f494b64736f6c63430008120033",
					"opcodes": "PUSH1 0x80 PUSH1 0x40 MSTORE CALLVALUE DUP1 ISZERO PUSH2 0x10 JUMPI PUSH1 0x0 DUP1 REVERT JUMPDEST POP PUSH2 0x183 DUP1 PUSH2 0x20 PUSH1 0x0 CODECOPY PUSH1 0x0 RETURN INVALID PUSH1 0x80 PUSH1 0x40 MSTORE PUSH1 0x4 CALLDATASIZE LT PUSH2 0x2D JUMPI PUSH1 0x0 CALLDATALOAD PUSH1 0xE0 SHR DUP1 PUSH4 0xC55699C EQ PUSH2 0x36 JUMPI DUP1 PUSH4 0x4C111FF8 EQ PUSH2 0x61 JUMPI PUSH2 0x34 JUMP JUMPDEST CALLDATASIZE PUSH2 0x34 JUMPI STOP JUMPDEST STOP JUMPDEST CALLVALUE DUP1 ISZERO PUSH2 0x42 JUMPI PUSH1 0x0 DUP1 REVERT JUMPDEST POP PUSH2 0x4B PUSH2 0x8A JUMP JUMPDEST PUSH1 0x40 MLOAD PUSH2 0x58 SWAP2 SWAP1 PUSH2 0xD4 JUMP JUMPDEST PUSH1 0x40 MLOAD DUP1 SWAP2 SUB SWAP1 RETURN JUMPDEST CALLVALUE DUP1 ISZERO PUSH2 0x6D JUMPI PUSH1 0x0 DUP1 REVERT JUMPDEST POP PUSH2 0x88 PUSH1 0x4 DUP1 CALLDATASIZE SUB DUP2 ADD SWAP1 PUSH2 0x83 SWAP2 SWAP1 PUSH2 0x120 JUMP JUMPDEST PUSH2 0x9B JUMP JUMPDEST STOP JUMPDEST PUSH1 0x0 DUP1 SLOAD SWAP1 PUSH2 0x100 EXP SWAP1 DIV PUSH1 0xFF AND DUP2 JUMP JUMPDEST DUP1 PUSH1 0x0 DUP1 PUSH2 0x100 EXP DUP2 SLOAD DUP2 PUSH1 0xFF MUL NOT AND SWAP1 DUP4 PUSH1 0xFF AND MUL OR SWAP1 SSTORE POP POP JUMP JUMPDEST PUSH1 0x0 PUSH1 0xFF DUP3 AND SWAP1 POP SWAP2 SWAP1 POP JUMP JUMPDEST PUSH2 0xCE DUP2 PUSH2 0xB8 JUMP JUMPDEST DUP3 MSTORE POP POP JUMP JUMPDEST PUSH1 0x0 PUSH1 0x20 DUP3 ADD SWAP1 POP PUSH2 0xE9 PUSH1 0x0 DUP4 ADD DUP5 PUSH2 0xC5 JUMP JUMPDEST SWAP3 SWAP2 POP POP JUMP JUMPDEST PUSH1 0x0 DUP1 REVERT JUMPDEST PUSH2 0xFD DUP2 PUSH2 0xB8 JUMP JUMPDEST DUP2 EQ PUSH2 0x108 JUMPI PUSH1 0x0 DUP1 REVERT JUMPDEST POP JUMP JUMPDEST PUSH1 0x0 DUP2 CALLDATALOAD SWAP1 POP PUSH2 0x11A DUP2 PUSH2 0xF4 JUMP JUMPDEST SWAP3 SWAP2 POP POP JUMP JUMPDEST PUSH1 0x0 PUSH1 0x20 DUP3 DUP5 SUB SLT ISZERO PUSH2 0x136 JUMPI PUSH2 0x135 PUSH2 0xEF JUMP JUMPDEST JUMPDEST PUSH1 0x0 PUSH2 0x144 DUP5 DUP3 DUP6 ADD PUSH2 0x10B JUMP JUMPDEST SWAP2 POP POP SWAP3 SWAP2 POP POP JUMP INVALID LOG2 PUSH5 0x6970667358 0x22 SLT KECCAK256 0xF8 NUMBER PUSH6 0xDA7C14019B3D DUP13 BASEFEE DUP12 PUSH32 0xF11BDDAE354B16155188AD6CC8BD117C3F494B64736F6C634300081200330000 "
				},
				"gasEstimates": {
					"creation": {
						"codeDepositCost": "77400",
						"executionCost": "129",
						"totalCost": "77529"
					},
					"external": {
						"": "107",
						"setValue(uint8)": "24679",
						"x()": "2446"
					}
				},
				"methodIdentifiers": {
					"setValue(uint8)": "4c111ff8",
					"x()": "0c55699c"
				}
			},
			"storageLayout": {
				"storage": [
					{
						"astId": 3,
						"contract": "calling.sol:A",
						"label": "x",
						"offset": 0,
						"slot": "0",
						"type": "t_uint8"
					}
				],
				"types": {
					"t_uint8": {
						"encoding": "inplace",
						"label": "uint8",
						"numberOfBytes": "1"
					}
				}
			},
			"userdoc": {
				"kind": "user",
				"methods": {},
				"version": 1
			}
		}
	}
}