{
	"enum.sol": {
		"Enum": {
			"abi": [
				{
					"inputs": [],
					"name": "cancel",
					"outputs": [],
					"stateMutability": "nonpayable",
					"type": "function"
				},
				{
					"inputs": [],
					"name": "ship",
					"outputs": [],
					"stateMutability": "nonpayable",
					"type": "function"
				},
				{
					"inputs": [],
					"name": "status",
					"outputs": [
						{
							"internalType": "enum Enum.Status",
							"name": "",
							"type": "uint8"
						}
					],
					"stateMutability": "view",
					"type": "function"
				},
				{
					"inputs": [],
					"name": "toDefault",
					"outputs": [],
					"stateMutability": "nonpayable",
					"type": "function"
				},
				{
					"inputs": [
						{
							"internalType": "uint8",
							"name": "_number",
							"type": "uint8"
						}
					],
					"name": "willFail",
					"outputs": [],
					"stateMutability": "nonpayable",
					"type": "function"
				}
			],
			"devdoc": {
				"kind": "dev",
				"methods": {},
				"version": 1
			},
			"evm": {
				"assembly": "    /* \"enum.sol\":63:565  contract Enum{... */\n  mstore(0x40, 0x80)\n  callvalue\n  dup1\n  iszero\n  tag_1\n  jumpi\n  0x00\n  dup1\n  revert\ntag_1:\n  pop\n  dataSize(sub_0)\n  dup1\n  dataOffset(sub_0)\n  0x00\n  codecopy\n  0x00\n  return\nstop\n\nsub_0: assembly {\n        /* \"enum.sol\":63:565  contract Enum{... */\n      mstore(0x40, 0x80)\n      callvalue\n      dup1\n      iszero\n      tag_1\n      jumpi\n      0x00\n      dup1\n      revert\n    tag_1:\n      pop\n      jumpi(tag_2, lt(calldatasize, 0x04))\n      shr(0xe0, calldataload(0x00))\n      dup1\n      0x200d2ed2\n      eq\n      tag_3\n      jumpi\n      dup1\n      0xb6bef7b3\n      eq\n      tag_4\n      jumpi\n      dup1\n      0xe8e012d9\n      eq\n      tag_5\n      jumpi\n      dup1\n      0xea8a1af0\n      eq\n      tag_6\n      jumpi\n      dup1\n      0xfa0b0aaa\n      eq\n      tag_7\n      jumpi\n    tag_2:\n      0x00\n      dup1\n      revert\n        /* \"enum.sol\":204:224  Status public status */\n    tag_3:\n      tag_8\n      tag_9\n      jump\t// in\n    tag_8:\n      mload(0x40)\n      tag_10\n      swap2\n      swap1\n      tag_11\n      jump\t// in\n    tag_10:\n      mload(0x40)\n      dup1\n      swap2\n      sub\n      swap1\n      return\n        /* \"enum.sol\":233:295  function ship() public{... */\n    tag_4:\n      tag_12\n      tag_13\n      jump\t// in\n    tag_12:\n      stop\n        /* \"enum.sol\":303:420  function willFail(uint8 _number) public{... */\n    tag_5:\n      tag_14\n      0x04\n      dup1\n      calldatasize\n      sub\n      dup2\n      add\n      swap1\n      tag_15\n      swap2\n      swap1\n      tag_16\n      jump\t// in\n    tag_15:\n      tag_17\n      jump\t// in\n    tag_14:\n      stop\n        /* \"enum.sol\":428:493  function cancel() public{... */\n    tag_6:\n      tag_18\n      tag_19\n      jump\t// in\n    tag_18:\n      stop\n        /* \"enum.sol\":501:560  function toDefault() public{... */\n    tag_7:\n      tag_20\n      tag_21\n      jump\t// in\n    tag_20:\n      stop\n        /* \"enum.sol\":204:224  Status public status */\n    tag_9:\n      0x00\n      dup1\n      sload\n      swap1\n      0x0100\n      exp\n      swap1\n      div\n      0xff\n      and\n      dup2\n      jump\t// out\n        /* \"enum.sol\":233:295  function ship() public{... */\n    tag_13:\n        /* \"enum.sol\":273:287  Status.Shipped */\n      0x01\n        /* \"enum.sol\":266:272  status */\n      0x00\n      dup1\n        /* \"enum.sol\":266:287  status=Status.Shipped */\n      0x0100\n      exp\n      dup2\n      sload\n      dup2\n      0xff\n      mul\n      not\n      and\n      swap1\n      dup4\n      0x04\n      dup2\n      gt\n      iszero\n      tag_23\n      jumpi\n      tag_24\n      tag_25\n      jump\t// in\n    tag_24:\n    tag_23:\n      mul\n      or\n      swap1\n      sstore\n      pop\n        /* \"enum.sol\":233:295  function ship() public{... */\n      jump\t// out\n        /* \"enum.sol\":303:420  function willFail(uint8 _number) public{... */\n    tag_17:\n        /* \"enum.sol\":364:365  3 */\n      0x03\n        /* \"enum.sol\":353:360  _number */\n      dup2\n        /* \"enum.sol\":353:365  _number == 3 */\n      0xff\n      and\n      eq\n        /* \"enum.sol\":353:412  _number == 3? status=Status.Accepted:status=Status.Rejected */\n      tag_27\n      jumpi\n        /* \"enum.sol\":397:412  Status.Rejected */\n      0x03\n        /* \"enum.sol\":390:396  status */\n      0x00\n      dup1\n        /* \"enum.sol\":390:412  status=Status.Rejected */\n      0x0100\n      exp\n      dup2\n      sload\n      dup2\n      0xff\n      mul\n      not\n      and\n      swap1\n      dup4\n      0x04\n      dup2\n      gt\n      iszero\n      tag_28\n      jumpi\n      tag_29\n      tag_25\n      jump\t// in\n    tag_29:\n    tag_28:\n      mul\n      or\n      swap1\n      sstore\n        /* \"enum.sol\":353:412  _number == 3? status=Status.Accepted:status=Status.Rejected */\n      jump(tag_30)\n    tag_27:\n        /* \"enum.sol\":374:389  Status.Accepted */\n      0x02\n        /* \"enum.sol\":367:373  status */\n      0x00\n      dup1\n        /* \"enum.sol\":367:389  status=Status.Accepted */\n      0x0100\n      exp\n      dup2\n      sload\n      dup2\n      0xff\n      mul\n      not\n      and\n      swap1\n      dup4\n      0x04\n      dup2\n      gt\n      iszero\n      tag_31\n      jumpi\n      tag_32\n      tag_25\n      jump\t// in\n    tag_32:\n    tag_31:\n      mul\n      or\n      swap1\n      sstore\n        /* \"enum.sol\":353:412  _number == 3? status=Status.Accepted:status=Status.Rejected */\n    tag_30:\n      pop\n        /* \"enum.sol\":303:420  function willFail(uint8 _number) public{... */\n      pop\n      jump\t// out\n        /* \"enum.sol\":428:493  function cancel() public{... */\n    tag_19:\n        /* \"enum.sol\":470:485  Status.Canceled */\n      0x04\n        /* \"enum.sol\":463:469  status */\n      0x00\n      dup1\n        /* \"enum.sol\":463:485  status=Status.Canceled */\n      0x0100\n      exp\n      dup2\n      sload\n      dup2\n      0xff\n      mul\n      not\n      and\n      swap1\n      dup4\n      0x04\n      dup2\n      gt\n      iszero\n      tag_34\n      jumpi\n      tag_35\n      tag_25\n      jump\t// in\n    tag_35:\n    tag_34:\n      mul\n      or\n      swap1\n      sstore\n      pop\n        /* \"enum.sol\":428:493  function cancel() public{... */\n      jump\t// out\n        /* \"enum.sol\":501:560  function toDefault() public{... */\n    tag_21:\n        /* \"enum.sol\":546:552  status */\n      0x00\n      dup1\n        /* \"enum.sol\":539:552  delete status */\n      0x0100\n      exp\n      dup2\n      sload\n      swap1\n      0xff\n      mul\n      not\n      and\n      swap1\n      sstore\n        /* \"enum.sol\":501:560  function toDefault() public{... */\n      jump\t// out\n        /* \"#utility.yul\":7:187   */\n    tag_25:\n        /* \"#utility.yul\":55:132   */\n      0x4e487b7100000000000000000000000000000000000000000000000000000000\n        /* \"#utility.yul\":52:53   */\n      0x00\n        /* \"#utility.yul\":45:133   */\n      mstore\n        /* \"#utility.yul\":152:156   */\n      0x21\n        /* \"#utility.yul\":149:150   */\n      0x04\n        /* \"#utility.yul\":142:157   */\n      mstore\n        /* \"#utility.yul\":176:180   */\n      0x24\n        /* \"#utility.yul\":173:174   */\n      0x00\n        /* \"#utility.yul\":166:181   */\n      revert\n        /* \"#utility.yul\":193:306   */\n    tag_37:\n        /* \"#utility.yul\":274:275   */\n      0x05\n        /* \"#utility.yul\":267:272   */\n      dup2\n        /* \"#utility.yul\":264:276   */\n      lt\n        /* \"#utility.yul\":254:300   */\n      tag_50\n      jumpi\n        /* \"#utility.yul\":280:298   */\n      tag_51\n      tag_25\n      jump\t// in\n    tag_51:\n        /* \"#utility.yul\":254:300   */\n    tag_50:\n        /* \"#utility.yul\":193:306   */\n      pop\n      jump\t// out\n        /* \"#utility.yul\":312:439   */\n    tag_38:\n        /* \"#utility.yul\":357:364   */\n      0x00\n        /* \"#utility.yul\":386:391   */\n      dup2\n        /* \"#utility.yul\":375:391   */\n      swap1\n      pop\n        /* \"#utility.yul\":392:433   */\n      tag_53\n        /* \"#utility.yul\":427:432   */\n      dup3\n        /* \"#utility.yul\":392:433   */\n      tag_37\n      jump\t// in\n    tag_53:\n        /* \"#utility.yul\":312:439   */\n      swap2\n      swap1\n      pop\n      jump\t// out\n        /* \"#utility.yul\":445:572   */\n    tag_39:\n        /* \"#utility.yul\":501:510   */\n      0x00\n        /* \"#utility.yul\":534:566   */\n      tag_55\n        /* \"#utility.yul\":560:565   */\n      dup3\n        /* \"#utility.yul\":534:566   */\n      tag_38\n      jump\t// in\n    tag_55:\n        /* \"#utility.yul\":521:566   */\n      swap1\n      pop\n        /* \"#utility.yul\":445:572   */\n      swap2\n      swap1\n      pop\n      jump\t// out\n        /* \"#utility.yul\":578:721   */\n    tag_40:\n        /* \"#utility.yul\":671:714   */\n      tag_57\n        /* \"#utility.yul\":708:713   */\n      dup2\n        /* \"#utility.yul\":671:714   */\n      tag_39\n      jump\t// in\n    tag_57:\n        /* \"#utility.yul\":666:669   */\n      dup3\n        /* \"#utility.yul\":659:715   */\n      mstore\n        /* \"#utility.yul\":578:721   */\n      pop\n      pop\n      jump\t// out\n        /* \"#utility.yul\":727:961   */\n    tag_11:\n        /* \"#utility.yul\":826:830   */\n      0x00\n        /* \"#utility.yul\":864:866   */\n      0x20\n        /* \"#utility.yul\":853:862   */\n      dup3\n        /* \"#utility.yul\":849:867   */\n      add\n        /* \"#utility.yul\":841:867   */\n      swap1\n      pop\n        /* \"#utility.yul\":877:954   */\n      tag_59\n        /* \"#utility.yul\":951:952   */\n      0x00\n        /* \"#utility.yul\":940:949   */\n      dup4\n        /* \"#utility.yul\":936:953   */\n      add\n        /* \"#utility.yul\":927:933   */\n      dup5\n        /* \"#utility.yul\":877:954   */\n      tag_40\n      jump\t// in\n    tag_59:\n        /* \"#utility.yul\":727:961   */\n      swap3\n      swap2\n      pop\n      pop\n      jump\t// out\n        /* \"#utility.yul\":1048:1165   */\n    tag_42:\n        /* \"#utility.yul\":1157:1158   */\n      0x00\n        /* \"#utility.yul\":1154:1155   */\n      dup1\n        /* \"#utility.yul\":1147:1159   */\n      revert\n        /* \"#utility.yul\":1294:1380   */\n    tag_44:\n        /* \"#utility.yul\":1329:1336   */\n      0x00\n        /* \"#utility.yul\":1369:1373   */\n      0xff\n        /* \"#utility.yul\":1362:1367   */\n      dup3\n        /* \"#utility.yul\":1358:1374   */\n      and\n        /* \"#utility.yul\":1347:1374   */\n      swap1\n      pop\n        /* \"#utility.yul\":1294:1380   */\n      swap2\n      swap1\n      pop\n      jump\t// out\n        /* \"#utility.yul\":1386:1504   */\n    tag_45:\n        /* \"#utility.yul\":1457:1479   */\n      tag_65\n        /* \"#utility.yul\":1473:1478   */\n      dup2\n        /* \"#utility.yul\":1457:1479   */\n      tag_44\n      jump\t// in\n    tag_65:\n        /* \"#utility.yul\":1450:1455   */\n      dup2\n        /* \"#utility.yul\":1447:1480   */\n      eq\n        /* \"#utility.yul\":1437:1498   */\n      tag_66\n      jumpi\n        /* \"#utility.yul\":1494:1495   */\n      0x00\n        /* \"#utility.yul\":1491:1492   */\n      dup1\n        /* \"#utility.yul\":1484:1496   */\n      revert\n        /* \"#utility.yul\":1437:1498   */\n    tag_66:\n        /* \"#utility.yul\":1386:1504   */\n      pop\n      jump\t// out\n        /* \"#utility.yul\":1510:1645   */\n    tag_46:\n        /* \"#utility.yul\":1554:1559   */\n      0x00\n        /* \"#utility.yul\":1592:1598   */\n      dup2\n        /* \"#utility.yul\":1579:1599   */\n      calldataload\n        /* \"#utility.yul\":1570:1599   */\n      swap1\n      pop\n        /* \"#utility.yul\":1608:1639   */\n      tag_68\n        /* \"#utility.yul\":1633:1638   */\n      dup2\n        /* \"#utility.yul\":1608:1639   */\n      tag_45\n      jump\t// in\n    tag_68:\n        /* \"#utility.yul\":1510:1645   */\n      swap3\n      swap2\n      pop\n      pop\n      jump\t// out\n        /* \"#utility.yul\":1651:1976   */\n    tag_16:\n        /* \"#utility.yul\":1708:1714   */\n      0x00\n        /* \"#utility.yul\":1757:1759   */\n      0x20\n        /* \"#utility.yul\":1745:1754   */\n      dup3\n        /* \"#utility.yul\":1736:1743   */\n      dup5\n        /* \"#utility.yul\":1732:1755   */\n      sub\n        /* \"#utility.yul\":1728:1760   */\n      slt\n        /* \"#utility.yul\":1725:1844   */\n      iszero\n      tag_70\n      jumpi\n        /* \"#utility.yul\":1763:1842   */\n      tag_71\n      tag_42\n      jump\t// in\n    tag_71:\n        /* \"#utility.yul\":1725:1844   */\n    tag_70:\n        /* \"#utility.yul\":1883:1884   */\n      0x00\n        /* \"#utility.yul\":1908:1959   */\n      tag_72\n        /* \"#utility.yul\":1951:1958   */\n      dup5\n        /* \"#utility.yul\":1942:1948   */\n      dup3\n        /* \"#utility.yul\":1931:1940   */\n      dup6\n        /* \"#utility.yul\":1927:1949   */\n      add\n        /* \"#utility.yul\":1908:1959   */\n      tag_46\n      jump\t// in\n    tag_72:\n        /* \"#utility.yul\":1898:1959   */\n      swap2\n      pop\n        /* \"#utility.yul\":1854:1969   */\n      pop\n        /* \"#utility.yul\":1651:1976   */\n      swap3\n      swap2\n      pop\n      pop\n      jump\t// out\n\n    auxdata: 0xa2646970667358221220f508614d674f604fde4d9a2f9d7ef74fb4232129c70b324de1bccc0fddbf3b0564736f6c63430008120033\n}\n",
				"bytecode": {
					"linkReferences": {},
					"object": "608060405234801561001057600080fd5b506102ca806100206000396000f3fe608060405234801561001057600080fd5b50600436106100575760003560e01c8063200d2ed21461005c578063b6bef7b31461007a578063e8e012d914610084578063ea8a1af0146100a0578063fa0b0aaa146100aa575b600080fd5b6100646100b4565b604051610071919061020e565b60405180910390f35b6100826100c5565b005b61009e60048036038101906100999190610267565b6100f1565b005b6100a8610158565b005b6100b2610184565b005b60008054906101000a900460ff1681565b60016000806101000a81548160ff021916908360048111156100ea576100e9610197565b5b0217905550565b60038160ff161461012a5760036000806101000a81548160ff0219169083600481111561012157610120610197565b5b02179055610154565b60026000806101000a81548160ff0219169083600481111561014f5761014e610197565b5b021790555b5050565b60046000806101000a81548160ff0219169083600481111561017d5761017c610197565b5b0217905550565b6000806101000a81549060ff0219169055565b7f4e487b7100000000000000000000000000000000000000000000000000000000600052602160045260246000fd5b600581106101d7576101d6610197565b5b50565b60008190506101e8826101c6565b919050565b60006101f8826101da565b9050919050565b610208816101ed565b82525050565b600060208201905061022360008301846101ff565b92915050565b600080fd5b600060ff82169050919050565b6102448161022e565b811461024f57600080fd5b50565b6000813590506102618161023b565b92915050565b60006020828403121561027d5761027c610229565b5b600061028b84828501610252565b9150509291505056fea2646970667358221220f508614d674f604fde4d9a2f9d7ef74fb4232129c70b324de1bccc0fddbf3b0564736f6c63430008120033",
					"opcodes": "PUSH1 0x80 PUSH1 0x40 MSTORE CALLVALUE DUP1 ISZERO PUSH2 0x10 JUMPI PUSH1 0x0 DUP1 REVERT JUMPDEST POP PUSH2 0x2CA DUP1 PUSH2 0x20 PUSH1 0x0 CODECOPY PUSH1 0x0 RETURN INVALID PUSH1 0x80 PUSH1 0x40 MSTORE CALLVALUE DUP1 ISZERO PUSH2 0x10 JUMPI PUSH1 0x0 DUP1 REVERT JUMPDEST POP PUSH1 0x4 CALLDATASIZE LT PUSH2 0x57 JUMPI PUSH1 0x0 CALLDATALOAD PUSH1 0xE0 SHR DUP1 PUSH4 0x200D2ED2 EQ PUSH2 0x5C JUMPI DUP1 PUSH4 0xB6BEF7B3 EQ PUSH2 0x7A JUMPI DUP1 PUSH4 0xE8E012D9 EQ PUSH2 0x84 JUMPI DUP1 PUSH4 0xEA8A1AF0 EQ PUSH2 0xA0 JUMPI DUP1 PUSH4 0xFA0B0AAA EQ PUSH2 0xAA JUMPI JUMPDEST PUSH1 0x0 DUP1 REVERT JUMPDEST PUSH2 0x64 PUSH2 0xB4 JUMP JUMPDEST PUSH1 0x40 MLOAD PUSH2 0x71 SWAP2 SWAP1 PUSH2 0x20E JUMP JUMPDEST PUSH1 0x40 MLOAD DUP1 SWAP2 SUB SWAP1 RETURN JUMPDEST PUSH2 0x82 PUSH2 0xC5 JUMP JUMPDEST STOP JUMPDEST PUSH2 0x9E PUSH1 0x4 DUP1 CALLDATASIZE SUB DUP2 ADD SWAP1 PUSH2 0x99 SWAP2 SWAP1 PUSH2 0x267 JUMP JUMPDEST PUSH2 0xF1 JUMP JUMPDEST STOP JUMPDEST PUSH2 0xA8 PUSH2 0x158 JUMP JUMPDEST STOP JUMPDEST PUSH2 0xB2 PUSH2 0x184 JUMP JUMPDEST STOP JUMPDEST PUSH1 0x0 DUP1 SLOAD SWAP1 PUSH2 0x100 EXP SWAP1 DIV PUSH1 0xFF AND DUP2 JUMP JUMPDEST PUSH1 0x1 PUSH1 0x0 DUP1 PUSH2 0x100 EXP DUP2 SLOAD DUP2 PUSH1 0xFF MUL NOT AND SWAP1 DUP4 PUSH1 0x4 DUP2 GT ISZERO PUSH2 0xEA JUMPI PUSH2 0xE9 PUSH2 0x197 JUMP JUMPDEST JUMPDEST MUL OR SWAP1 SSTORE POP JUMP JUMPDEST PUSH1 0x3 DUP2 PUSH1 0xFF AND EQ PUSH2 0x12A JUMPI PUSH1 0x3 PUSH1 0x0 DUP1 PUSH2 0x100 EXP DUP2 SLOAD DUP2 PUSH1 0xFF MUL NOT AND SWAP1 DUP4 PUSH1 0x4 DUP2 GT ISZERO PUSH2 0x121 JUMPI PUSH2 0x120 PUSH2 0x197 JUMP JUMPDEST JUMPDEST MUL OR SWAP1 SSTORE PUSH2 0x154 JUMP JUMPDEST PUSH1 0x2 PUSH1 0x0 DUP1 PUSH2 0x100 EXP DUP2 SLOAD DUP2 PUSH1 0xFF MUL NOT AND SWAP1 DUP4 PUSH1 0x4 DUP2 GT ISZERO PUSH2 0x14F JUMPI PUSH2 0x14E PUSH2 0x197 JUMP JUMPDEST JUMPDEST MUL OR SWAP1 SSTORE JUMPDEST POP POP JUMP JUMPDEST PUSH1 0x4 PUSH1 0x0 DUP1 PUSH2 0x100 EXP DUP2 SLOAD DUP2 PUSH1 0xFF MUL NOT AND SWAP1 DUP4 PUSH1 0x4 DUP2 GT ISZERO PUSH2 0x17D JUMPI PUSH2 0x17C PUSH2 0x197 JUMP JUMPDEST JUMPDEST MUL OR SWAP1 SSTORE POP JUMP JUMPDEST PUSH1 0x0 DUP1 PUSH2 0x100 EXP DUP2 SLOAD SWAP1 PUSH1 0xFF MUL NOT AND SWAP1 SSTORE JUMP JUMPDEST PUSH32 0x4E487B7100000000000000000000000000000000000000000000000000000000 PUSH1 0x0 MSTORE PUSH1 0x21 PUSH1 0x4 MSTORE PUSH1 0x24 PUSH1 0x0 REVERT JUMPDEST PUSH1 0x5 DUP2 LT PUSH2 0x1D7 JUMPI PUSH2 0x1D6 PUSH2 0x197 JUMP JUMPDEST JUMPDEST POP JUMP JUMPDEST PUSH1 0x0 DUP2 SWAP1 POP PUSH2 0x1E8 DUP3 PUSH2 0x1C6 JUMP JUMPDEST SWAP2 SWAP1 POP JUMP JUMPDEST PUSH1 0x0 PUSH2 0x1F8 DUP3 PUSH2 0x1DA JUMP JUMPDEST SWAP1 POP SWAP2 SWAP1 POP JUMP JUMPDEST PUSH2 0x208 DUP2 PUSH2 0x1ED JUMP JUMPDEST DUP3 MSTORE POP POP JUMP JUMPDEST PUSH1 0x0 PUSH1 0x20 DUP3 ADD SWAP1 POP PUSH2 0x223 PUSH1 0x0 DUP4 ADD DUP5 PUSH2 0x1FF JUMP JUMPDEST SWAP3 SWAP2 POP POP JUMP JUMPDEST PUSH1 0x0 DUP1 REVERT JUMPDEST PUSH1 0x0 PUSH1 0xFF DUP3 AND SWAP1 POP SWAP2 SWAP1 POP JUMP JUMPDEST PUSH2 0x244 DUP2 PUSH2 0x22E JUMP JUMPDEST DUP2 EQ PUSH2 0x24F JUMPI PUSH1 0x0 DUP1 REVERT JUMPDEST POP JUMP JUMPDEST PUSH1 0x0 DUP2 CALLDATALOAD SWAP1 POP PUSH2 0x261 DUP2 PUSH2 0x23B JUMP JUMPDEST SWAP3 SWAP2 POP POP JUMP JUMPDEST PUSH1 0x0 PUSH1 0x20 DUP3 DUP5 SUB SLT ISZERO PUSH2 0x27D JUMPI PUSH2 0x27C PUSH2 0x229 JUMP JUMPDEST JUMPDEST PUSH1 0x0 PUSH2 0x28B DUP5 DUP3 DUP6 ADD PUSH2 0x252 JUMP JUMPDEST SWAP2 POP POP SWAP3 SWAP2 POP POP JUMP INVALID LOG2 PUSH5 0x6970667358 0x22 SLT KECCAK256 CREATE2 ADDMOD PUSH2 0x4D67 0x4F PUSH1 0x4F 0xDE 0x4D SWAP11 0x2F SWAP14 PUSH31 0xF74FB4232129C70B324DE1BCCC0FDDBF3B0564736F6C634300081200330000 "
				},
				"gasEstimates": {
					"creation": {
						"codeDepositCost": "142800",
						"executionCost": "190",
						"totalCost": "142990"
					},
					"external": {
						"cancel()": "24475",
						"ship()": "24431",
						"status()": "2535",
						"toDefault()": "24452",
						"willFail(uint8)": "24761"
					}
				},
				"methodIdentifiers": {
					"cancel()": "ea8a1af0",
					"ship()": "b6bef7b3",
					"status()": "200d2ed2",
					"toDefault()": "fa0b0aaa",
					"willFail(uint8)": "e8e012d9"
				}
			},
			"storageLayout": {
				"storage": [
					{
						"astId": 10,
						"contract": "enum.sol:Enum",
						"label": "status",
						"offset": 0,
						"slot": "0",
						"type": "t_enum(Status)7"
					}
				],
				"types": {
					"t_enum(Status)7": {
						"encoding": "inplace",
						"label": "enum Enum.Status",
						"numberOfBytes": "1"
					}
				}
			},
			"userdoc": {
				"kind": "user",
				"methods": {},
				"version": 1
			}
		}
	}
}