{
	"hello.sol": {
		"MyFirstContract": {
			"abi": [
				{
					"inputs": [
						{
							"internalType": "string",
							"name": "_hey",
							"type": "string"
						},
						{
							"internalType": "uint256",
							"name": "_number",
							"type": "uint256"
						}
					],
					"name": "addInfo",
					"outputs": [],
					"stateMutability": "nonpayable",
					"type": "function"
				},
				{
					"inputs": [],
					"name": "hey",
					"outputs": [
						{
							"internalType": "string",
							"name": "",
							"type": "string"
						}
					],
					"stateMutability": "view",
					"type": "function"
				},
				{
					"inputs": [],
					"name": "number",
					"outputs": [
						{
							"internalType": "uint256",
							"name": "",
							"type": "uint256"
						}
					],
					"stateMutability": "view",
					"type": "function"
				}
			],
			"devdoc": {
				"kind": "dev",
				"methods": {},
				"version": 1
			},
			"evm": {
				"assembly": "    /* \"hello.sol\":60:580  contract MyFirstContract{... */\n  mstore(0x40, 0x80)\n  callvalue\n  dup1\n  iszero\n  tag_1\n  jumpi\n  0x00\n  dup1\n  revert\ntag_1:\n  pop\n  dataSize(sub_0)\n  dup1\n  dataOffset(sub_0)\n  0x00\n  codecopy\n  0x00\n  return\nstop\n\nsub_0: assembly {\n        /* \"hello.sol\":60:580  contract MyFirstContract{... */\n      mstore(0x40, 0x80)\n      callvalue\n      dup1\n      iszero\n      tag_1\n      jumpi\n      0x00\n      dup1\n      revert\n    tag_1:\n      pop\n      jumpi(tag_2, lt(calldatasize, 0x04))\n      shr(0xe0, calldataload(0x00))\n      dup1\n      0x8381f58a\n      eq\n      tag_3\n      jumpi\n      dup1\n      0xbde2b573\n      eq\n      tag_4\n      jumpi\n      dup1\n      0xcd6bc3dd\n      eq\n      tag_5\n      jumpi\n    tag_2:\n      0x00\n      dup1\n      revert\n        /* \"hello.sol\":184:202  uint public number */\n    tag_3:\n      tag_6\n      tag_7\n      jump\t// in\n    tag_6:\n      mload(0x40)\n      tag_8\n      swap2\n      swap1\n      tag_9\n      jump\t// in\n    tag_8:\n      mload(0x40)\n      dup1\n      swap2\n      sub\n      swap1\n      return\n        /* \"hello.sol\":160:177  string public hey */\n    tag_4:\n      tag_10\n      tag_11\n      jump\t// in\n    tag_10:\n      mload(0x40)\n      tag_12\n      swap2\n      swap1\n      tag_13\n      jump\t// in\n    tag_12:\n      mload(0x40)\n      dup1\n      swap2\n      sub\n      swap1\n      return\n        /* \"hello.sol\":463:577  function addInfo(string memory _hey, uint _number) public {... */\n    tag_5:\n      tag_14\n      0x04\n      dup1\n      calldatasize\n      sub\n      dup2\n      add\n      swap1\n      tag_15\n      swap2\n      swap1\n      tag_16\n      jump\t// in\n    tag_15:\n      tag_17\n      jump\t// in\n    tag_14:\n      stop\n        /* \"hello.sol\":184:202  uint public number */\n    tag_7:\n      sload(0x01)\n      dup2\n      jump\t// out\n        /* \"hello.sol\":160:177  string public hey */\n    tag_11:\n      0x00\n      dup1\n      sload\n      tag_18\n      swap1\n      tag_19\n      jump\t// in\n    tag_18:\n      dup1\n      0x1f\n      add\n      0x20\n      dup1\n      swap2\n      div\n      mul\n      0x20\n      add\n      mload(0x40)\n      swap1\n      dup2\n      add\n      0x40\n      mstore\n      dup1\n      swap3\n      swap2\n      swap1\n      dup2\n      dup2\n      mstore\n      0x20\n      add\n      dup3\n      dup1\n      sload\n      tag_20\n      swap1\n      tag_19\n      jump\t// in\n    tag_20:\n      dup1\n      iszero\n      tag_21\n      jumpi\n      dup1\n      0x1f\n      lt\n      tag_22\n      jumpi\n      0x0100\n      dup1\n      dup4\n      sload\n      div\n      mul\n      dup4\n      mstore\n      swap2\n      0x20\n      add\n      swap2\n      jump(tag_21)\n    tag_22:\n      dup3\n      add\n      swap2\n      swap1\n      0x00\n      mstore\n      keccak256(0x00, 0x20)\n      swap1\n    tag_23:\n      dup2\n      sload\n      dup2\n      mstore\n      swap1\n      0x01\n      add\n      swap1\n      0x20\n      add\n      dup1\n      dup4\n      gt\n      tag_23\n      jumpi\n      dup3\n      swap1\n      sub\n      0x1f\n      and\n      dup3\n      add\n      swap2\n    tag_21:\n      pop\n      pop\n      pop\n      pop\n      pop\n      dup2\n      jump\t// out\n        /* \"hello.sol\":463:577  function addInfo(string memory _hey, uint _number) public {... */\n    tag_17:\n        /* \"hello.sol\":538:542  _hey */\n      dup2\n        /* \"hello.sol\":532:535  hey */\n      0x00\n        /* \"hello.sol\":532:542  hey = _hey */\n      swap1\n      dup2\n      tag_25\n      swap2\n      swap1\n      tag_26\n      jump\t// in\n    tag_25:\n      pop\n        /* \"hello.sol\":562:569  _number */\n      dup1\n        /* \"hello.sol\":553:559  number */\n      0x01\n        /* \"hello.sol\":553:569  number = _number */\n      dup2\n      swap1\n      sstore\n      pop\n        /* \"hello.sol\":463:577  function addInfo(string memory _hey, uint _number) public {... */\n      pop\n      pop\n      jump\t// out\n        /* \"#utility.yul\":7:84   */\n    tag_27:\n        /* \"#utility.yul\":44:51   */\n      0x00\n        /* \"#utility.yul\":73:78   */\n      dup2\n        /* \"#utility.yul\":62:78   */\n      swap1\n      pop\n        /* \"#utility.yul\":7:84   */\n      swap2\n      swap1\n      pop\n      jump\t// out\n        /* \"#utility.yul\":90:208   */\n    tag_28:\n        /* \"#utility.yul\":177:201   */\n      tag_67\n        /* \"#utility.yul\":195:200   */\n      dup2\n        /* \"#utility.yul\":177:201   */\n      tag_27\n      jump\t// in\n    tag_67:\n        /* \"#utility.yul\":172:175   */\n      dup3\n        /* \"#utility.yul\":165:202   */\n      mstore\n        /* \"#utility.yul\":90:208   */\n      pop\n      pop\n      jump\t// out\n        /* \"#utility.yul\":214:436   */\n    tag_9:\n        /* \"#utility.yul\":307:311   */\n      0x00\n        /* \"#utility.yul\":345:347   */\n      0x20\n        /* \"#utility.yul\":334:343   */\n      dup3\n        /* \"#utility.yul\":330:348   */\n      add\n        /* \"#utility.yul\":322:348   */\n      swap1\n      pop\n        /* \"#utility.yul\":358:429   */\n      tag_69\n        /* \"#utility.yul\":426:427   */\n      0x00\n        /* \"#utility.yul\":415:424   */\n      dup4\n        /* \"#utility.yul\":411:428   */\n      add\n        /* \"#utility.yul\":402:408   */\n      dup5\n        /* \"#utility.yul\":358:429   */\n      tag_28\n      jump\t// in\n    tag_69:\n        /* \"#utility.yul\":214:436   */\n      swap3\n      swap2\n      pop\n      pop\n      jump\t// out\n        /* \"#utility.yul\":442:541   */\n    tag_29:\n        /* \"#utility.yul\":494:500   */\n      0x00\n        /* \"#utility.yul\":528:533   */\n      dup2\n        /* \"#utility.yul\":522:534   */\n      mload\n        /* \"#utility.yul\":512:534   */\n      swap1\n      pop\n        /* \"#utility.yul\":442:541   */\n      swap2\n      swap1\n      pop\n      jump\t// out\n        /* \"#utility.yul\":547:716   */\n    tag_30:\n        /* \"#utility.yul\":631:642   */\n      0x00\n        /* \"#utility.yul\":665:671   */\n      dup3\n        /* \"#utility.yul\":660:663   */\n      dup3\n        /* \"#utility.yul\":653:672   */\n      mstore\n        /* \"#utility.yul\":705:709   */\n      0x20\n        /* \"#utility.yul\":700:703   */\n      dup3\n        /* \"#utility.yul\":696:710   */\n      add\n        /* \"#utility.yul\":681:710   */\n      swap1\n      pop\n        /* \"#utility.yul\":547:716   */\n      swap3\n      swap2\n      pop\n      pop\n      jump\t// out\n        /* \"#utility.yul\":722:968   */\n    tag_31:\n        /* \"#utility.yul\":803:804   */\n      0x00\n        /* \"#utility.yul\":813:926   */\n    tag_73:\n        /* \"#utility.yul\":827:833   */\n      dup4\n        /* \"#utility.yul\":824:825   */\n      dup2\n        /* \"#utility.yul\":821:834   */\n      lt\n        /* \"#utility.yul\":813:926   */\n      iszero\n      tag_75\n      jumpi\n        /* \"#utility.yul\":912:913   */\n      dup1\n        /* \"#utility.yul\":907:910   */\n      dup3\n        /* \"#utility.yul\":903:914   */\n      add\n        /* \"#utility.yul\":897:915   */\n      mload\n        /* \"#utility.yul\":893:894   */\n      dup2\n        /* \"#utility.yul\":888:891   */\n      dup5\n        /* \"#utility.yul\":884:895   */\n      add\n        /* \"#utility.yul\":877:916   */\n      mstore\n        /* \"#utility.yul\":849:851   */\n      0x20\n        /* \"#utility.yul\":846:847   */\n      dup2\n        /* \"#utility.yul\":842:852   */\n      add\n        /* \"#utility.yul\":837:852   */\n      swap1\n      pop\n        /* \"#utility.yul\":813:926   */\n      jump(tag_73)\n    tag_75:\n        /* \"#utility.yul\":960:961   */\n      0x00\n        /* \"#utility.yul\":951:957   */\n      dup5\n        /* \"#utility.yul\":946:949   */\n      dup5\n        /* \"#utility.yul\":942:958   */\n      add\n        /* \"#utility.yul\":935:962   */\n      mstore\n        /* \"#utility.yul\":784:968   */\n      pop\n        /* \"#utility.yul\":722:968   */\n      pop\n      pop\n      pop\n      jump\t// out\n        /* \"#utility.yul\":974:1076   */\n    tag_32:\n        /* \"#utility.yul\":1015:1021   */\n      0x00\n        /* \"#utility.yul\":1066:1068   */\n      0x1f\n        /* \"#utility.yul\":1062:1069   */\n      not\n        /* \"#utility.yul\":1057:1059   */\n      0x1f\n        /* \"#utility.yul\":1050:1055   */\n      dup4\n        /* \"#utility.yul\":1046:1060   */\n      add\n        /* \"#utility.yul\":1042:1070   */\n      and\n        /* \"#utility.yul\":1032:1070   */\n      swap1\n      pop\n        /* \"#utility.yul\":974:1076   */\n      swap2\n      swap1\n      pop\n      jump\t// out\n        /* \"#utility.yul\":1082:1459   */\n    tag_33:\n        /* \"#utility.yul\":1170:1173   */\n      0x00\n        /* \"#utility.yul\":1198:1237   */\n      tag_78\n        /* \"#utility.yul\":1231:1236   */\n      dup3\n        /* \"#utility.yul\":1198:1237   */\n      tag_29\n      jump\t// in\n    tag_78:\n        /* \"#utility.yul\":1253:1324   */\n      tag_79\n        /* \"#utility.yul\":1317:1323   */\n      dup2\n        /* \"#utility.yul\":1312:1315   */\n      dup6\n        /* \"#utility.yul\":1253:1324   */\n      tag_30\n      jump\t// in\n    tag_79:\n        /* \"#utility.yul\":1246:1324   */\n      swap4\n      pop\n        /* \"#utility.yul\":1333:1398   */\n      tag_80\n        /* \"#utility.yul\":1391:1397   */\n      dup2\n        /* \"#utility.yul\":1386:1389   */\n      dup6\n        /* \"#utility.yul\":1379:1383   */\n      0x20\n        /* \"#utility.yul\":1372:1377   */\n      dup7\n        /* \"#utility.yul\":1368:1384   */\n      add\n        /* \"#utility.yul\":1333:1398   */\n      tag_31\n      jump\t// in\n    tag_80:\n        /* \"#utility.yul\":1423:1452   */\n      tag_81\n        /* \"#utility.yul\":1445:1451   */\n      dup2\n        /* \"#utility.yul\":1423:1452   */\n      tag_32\n      jump\t// in\n    tag_81:\n        /* \"#utility.yul\":1418:1421   */\n      dup5\n        /* \"#utility.yul\":1414:1453   */\n      add\n        /* \"#utility.yul\":1407:1453   */\n      swap2\n      pop\n        /* \"#utility.yul\":1174:1459   */\n      pop\n        /* \"#utility.yul\":1082:1459   */\n      swap3\n      swap2\n      pop\n      pop\n      jump\t// out\n        /* \"#utility.yul\":1465:1778   */\n    tag_13:\n        /* \"#utility.yul\":1578:1582   */\n      0x00\n        /* \"#utility.yul\":1616:1618   */\n      0x20\n        /* \"#utility.yul\":1605:1614   */\n      dup3\n        /* \"#utility.yul\":1601:1619   */\n      add\n        /* \"#utility.yul\":1593:1619   */\n      swap1\n      pop\n        /* \"#utility.yul\":1665:1674   */\n      dup2\n        /* \"#utility.yul\":1659:1663   */\n      dup2\n        /* \"#utility.yul\":1655:1675   */\n      sub\n        /* \"#utility.yul\":1651:1652   */\n      0x00\n        /* \"#utility.yul\":1640:1649   */\n      dup4\n        /* \"#utility.yul\":1636:1653   */\n      add\n        /* \"#utility.yul\":1629:1676   */\n      mstore\n        /* \"#utility.yul\":1693:1771   */\n      tag_83\n        /* \"#utility.yul\":1766:1770   */\n      dup2\n        /* \"#utility.yul\":1757:1763   */\n      dup5\n        /* \"#utility.yul\":1693:1771   */\n      tag_33\n      jump\t// in\n    tag_83:\n        /* \"#utility.yul\":1685:1771   */\n      swap1\n      pop\n        /* \"#utility.yul\":1465:1778   */\n      swap3\n      swap2\n      pop\n      pop\n      jump\t// out\n        /* \"#utility.yul\":1784:1859   */\n    tag_34:\n        /* \"#utility.yul\":1817:1823   */\n      0x00\n        /* \"#utility.yul\":1850:1852   */\n      0x40\n        /* \"#utility.yul\":1844:1853   */\n      mload\n        /* \"#utility.yul\":1834:1853   */\n      swap1\n      pop\n        /* \"#utility.yul\":1784:1859   */\n      swap1\n      jump\t// out\n        /* \"#utility.yul\":1865:1982   */\n    tag_35:\n        /* \"#utility.yul\":1974:1975   */\n      0x00\n        /* \"#utility.yul\":1971:1972   */\n      dup1\n        /* \"#utility.yul\":1964:1976   */\n      revert\n        /* \"#utility.yul\":1988:2105   */\n    tag_36:\n        /* \"#utility.yul\":2097:2098   */\n      0x00\n        /* \"#utility.yul\":2094:2095   */\n      dup1\n        /* \"#utility.yul\":2087:2099   */\n      revert\n        /* \"#utility.yul\":2111:2228   */\n    tag_37:\n        /* \"#utility.yul\":2220:2221   */\n      0x00\n        /* \"#utility.yul\":2217:2218   */\n      dup1\n        /* \"#utility.yul\":2210:2222   */\n      revert\n        /* \"#utility.yul\":2234:2351   */\n    tag_38:\n        /* \"#utility.yul\":2343:2344   */\n      0x00\n        /* \"#utility.yul\":2340:2341   */\n      dup1\n        /* \"#utility.yul\":2333:2345   */\n      revert\n        /* \"#utility.yul\":2357:2537   */\n    tag_39:\n        /* \"#utility.yul\":2405:2482   */\n      0x4e487b7100000000000000000000000000000000000000000000000000000000\n        /* \"#utility.yul\":2402:2403   */\n      0x00\n        /* \"#utility.yul\":2395:2483   */\n      mstore\n        /* \"#utility.yul\":2502:2506   */\n      0x41\n        /* \"#utility.yul\":2499:2500   */\n      0x04\n        /* \"#utility.yul\":2492:2507   */\n      mstore\n        /* \"#utility.yul\":2526:2530   */\n      0x24\n        /* \"#utility.yul\":2523:2524   */\n      0x00\n        /* \"#utility.yul\":2516:2531   */\n      revert\n        /* \"#utility.yul\":2543:2824   */\n    tag_40:\n        /* \"#utility.yul\":2626:2653   */\n      tag_91\n        /* \"#utility.yul\":2648:2652   */\n      dup3\n        /* \"#utility.yul\":2626:2653   */\n      tag_32\n      jump\t// in\n    tag_91:\n        /* \"#utility.yul\":2618:2624   */\n      dup2\n        /* \"#utility.yul\":2614:2654   */\n      add\n        /* \"#utility.yul\":2756:2762   */\n      dup2\n        /* \"#utility.yul\":2744:2754   */\n      dup2\n        /* \"#utility.yul\":2741:2763   */\n      lt\n        /* \"#utility.yul\":2720:2738   */\n      0xffffffffffffffff\n        /* \"#utility.yul\":2708:2718   */\n      dup3\n        /* \"#utility.yul\":2705:2739   */\n      gt\n        /* \"#utility.yul\":2702:2764   */\n      or\n        /* \"#utility.yul\":2699:2787   */\n      iszero\n      tag_92\n      jumpi\n        /* \"#utility.yul\":2767:2785   */\n      tag_93\n      tag_39\n      jump\t// in\n    tag_93:\n        /* \"#utility.yul\":2699:2787   */\n    tag_92:\n        /* \"#utility.yul\":2807:2817   */\n      dup1\n        /* \"#utility.yul\":2803:2805   */\n      0x40\n        /* \"#utility.yul\":2796:2818   */\n      mstore\n        /* \"#utility.yul\":2586:2824   */\n      pop\n        /* \"#utility.yul\":2543:2824   */\n      pop\n      pop\n      jump\t// out\n        /* \"#utility.yul\":2830:2959   */\n    tag_41:\n        /* \"#utility.yul\":2864:2870   */\n      0x00\n        /* \"#utility.yul\":2891:2911   */\n      tag_95\n      tag_34\n      jump\t// in\n    tag_95:\n        /* \"#utility.yul\":2881:2911   */\n      swap1\n      pop\n        /* \"#utility.yul\":2920:2953   */\n      tag_96\n        /* \"#utility.yul\":2948:2952   */\n      dup3\n        /* \"#utility.yul\":2940:2946   */\n      dup3\n        /* \"#utility.yul\":2920:2953   */\n      tag_40\n      jump\t// in\n    tag_96:\n        /* \"#utility.yul\":2830:2959   */\n      swap2\n      swap1\n      pop\n      jump\t// out\n        /* \"#utility.yul\":2965:3273   */\n    tag_42:\n        /* \"#utility.yul\":3027:3031   */\n      0x00\n        /* \"#utility.yul\":3117:3135   */\n      0xffffffffffffffff\n        /* \"#utility.yul\":3109:3115   */\n      dup3\n        /* \"#utility.yul\":3106:3136   */\n      gt\n        /* \"#utility.yul\":3103:3159   */\n      iszero\n      tag_98\n      jumpi\n        /* \"#utility.yul\":3139:3157   */\n      tag_99\n      tag_39\n      jump\t// in\n    tag_99:\n        /* \"#utility.yul\":3103:3159   */\n    tag_98:\n        /* \"#utility.yul\":3177:3206   */\n      tag_100\n        /* \"#utility.yul\":3199:3205   */\n      dup3\n        /* \"#utility.yul\":3177:3206   */\n      tag_32\n      jump\t// in\n    tag_100:\n        /* \"#utility.yul\":3169:3206   */\n      swap1\n      pop\n        /* \"#utility.yul\":3261:3265   */\n      0x20\n        /* \"#utility.yul\":3255:3259   */\n      dup2\n        /* \"#utility.yul\":3251:3266   */\n      add\n        /* \"#utility.yul\":3243:3266   */\n      swap1\n      pop\n        /* \"#utility.yul\":2965:3273   */\n      swap2\n      swap1\n      pop\n      jump\t// out\n        /* \"#utility.yul\":3279:3425   */\n    tag_43:\n        /* \"#utility.yul\":3376:3382   */\n      dup3\n        /* \"#utility.yul\":3371:3374   */\n      dup2\n        /* \"#utility.yul\":3366:3369   */\n      dup4\n        /* \"#utility.yul\":3353:3383   */\n      calldatacopy\n        /* \"#utility.yul\":3417:3418   */\n      0x00\n        /* \"#utility.yul\":3408:3414   */\n      dup4\n        /* \"#utility.yul\":3403:3406   */\n      dup4\n        /* \"#utility.yul\":3399:3415   */\n      add\n        /* \"#utility.yul\":3392:3419   */\n      mstore\n        /* \"#utility.yul\":3279:3425   */\n      pop\n      pop\n      pop\n      jump\t// out\n        /* \"#utility.yul\":3431:3856   */\n    tag_44:\n        /* \"#utility.yul\":3509:3514   */\n      0x00\n        /* \"#utility.yul\":3534:3600   */\n      tag_103\n        /* \"#utility.yul\":3550:3599   */\n      tag_104\n        /* \"#utility.yul\":3592:3598   */\n      dup5\n        /* \"#utility.yul\":3550:3599   */\n      tag_42\n      jump\t// in\n    tag_104:\n        /* \"#utility.yul\":3534:3600   */\n      tag_41\n      jump\t// in\n    tag_103:\n        /* \"#utility.yul\":3525:3600   */\n      swap1\n      pop\n        /* \"#utility.yul\":3623:3629   */\n      dup3\n        /* \"#utility.yul\":3616:3621   */\n      dup2\n        /* \"#utility.yul\":3609:3630   */\n      mstore\n        /* \"#utility.yul\":3661:3665   */\n      0x20\n        /* \"#utility.yul\":3654:3659   */\n      dup2\n        /* \"#utility.yul\":3650:3666   */\n      add\n        /* \"#utility.yul\":3699:3702   */\n      dup5\n        /* \"#utility.yul\":3690:3696   */\n      dup5\n        /* \"#utility.yul\":3685:3688   */\n      dup5\n        /* \"#utility.yul\":3681:3697   */\n      add\n        /* \"#utility.yul\":3678:3703   */\n      gt\n        /* \"#utility.yul\":3675:3787   */\n      iszero\n      tag_105\n      jumpi\n        /* \"#utility.yul\":3706:3785   */\n      tag_106\n      tag_38\n      jump\t// in\n    tag_106:\n        /* \"#utility.yul\":3675:3787   */\n    tag_105:\n        /* \"#utility.yul\":3796:3850   */\n      tag_107\n        /* \"#utility.yul\":3843:3849   */\n      dup5\n        /* \"#utility.yul\":3838:3841   */\n      dup3\n        /* \"#utility.yul\":3833:3836   */\n      dup6\n        /* \"#utility.yul\":3796:3850   */\n      tag_43\n      jump\t// in\n    tag_107:\n        /* \"#utility.yul\":3515:3856   */\n      pop\n        /* \"#utility.yul\":3431:3856   */\n      swap4\n      swap3\n      pop\n      pop\n      pop\n      jump\t// out\n        /* \"#utility.yul\":3876:4216   */\n    tag_45:\n        /* \"#utility.yul\":3932:3937   */\n      0x00\n        /* \"#utility.yul\":3981:3984   */\n      dup3\n        /* \"#utility.yul\":3974:3978   */\n      0x1f\n        /* \"#utility.yul\":3966:3972   */\n      dup4\n        /* \"#utility.yul\":3962:3979   */\n      add\n        /* \"#utility.yul\":3958:3985   */\n      slt\n        /* \"#utility.yul\":3948:4070   */\n      tag_109\n      jumpi\n        /* \"#utility.yul\":3989:4068   */\n      tag_110\n      tag_37\n      jump\t// in\n    tag_110:\n        /* \"#utility.yul\":3948:4070   */\n    tag_109:\n        /* \"#utility.yul\":4106:4112   */\n      dup2\n        /* \"#utility.yul\":4093:4113   */\n      calldataload\n        /* \"#utility.yul\":4131:4210   */\n      tag_111\n        /* \"#utility.yul\":4206:4209   */\n      dup5\n        /* \"#utility.yul\":4198:4204   */\n      dup3\n        /* \"#utility.yul\":4191:4195   */\n      0x20\n        /* \"#utility.yul\":4183:4189   */\n      dup7\n        /* \"#utility.yul\":4179:4196   */\n      add\n        /* \"#utility.yul\":4131:4210   */\n      tag_44\n      jump\t// in\n    tag_111:\n        /* \"#utility.yul\":4122:4210   */\n      swap2\n      pop\n        /* \"#utility.yul\":3938:4216   */\n      pop\n        /* \"#utility.yul\":3876:4216   */\n      swap3\n      swap2\n      pop\n      pop\n      jump\t// out\n        /* \"#utility.yul\":4222:4344   */\n    tag_46:\n        /* \"#utility.yul\":4295:4319   */\n      tag_113\n        /* \"#utility.yul\":4313:4318   */\n      dup2\n        /* \"#utility.yul\":4295:4319   */\n      tag_27\n      jump\t// in\n    tag_113:\n        /* \"#utility.yul\":4288:4293   */\n      dup2\n        /* \"#utility.yul\":4285:4320   */\n      eq\n        /* \"#utility.yul\":4275:4338   */\n      tag_114\n      jumpi\n        /* \"#utility.yul\":4334:4335   */\n      0x00\n        /* \"#utility.yul\":4331:4332   */\n      dup1\n        /* \"#utility.yul\":4324:4336   */\n      revert\n        /* \"#utility.yul\":4275:4338   */\n    tag_114:\n        /* \"#utility.yul\":4222:4344   */\n      pop\n      jump\t// out\n        /* \"#utility.yul\":4350:4489   */\n    tag_47:\n        /* \"#utility.yul\":4396:4401   */\n      0x00\n        /* \"#utility.yul\":4434:4440   */\n      dup2\n        /* \"#utility.yul\":4421:4441   */\n      calldataload\n        /* \"#utility.yul\":4412:4441   */\n      swap1\n      pop\n        /* \"#utility.yul\":4450:4483   */\n      tag_116\n        /* \"#utility.yul\":4477:4482   */\n      dup2\n        /* \"#utility.yul\":4450:4483   */\n      tag_46\n      jump\t// in\n    tag_116:\n        /* \"#utility.yul\":4350:4489   */\n      swap3\n      swap2\n      pop\n      pop\n      jump\t// out\n        /* \"#utility.yul\":4495:5149   */\n    tag_16:\n        /* \"#utility.yul\":4573:4579   */\n      0x00\n        /* \"#utility.yul\":4581:4587   */\n      dup1\n        /* \"#utility.yul\":4630:4632   */\n      0x40\n        /* \"#utility.yul\":4618:4627   */\n      dup4\n        /* \"#utility.yul\":4609:4616   */\n      dup6\n        /* \"#utility.yul\":4605:4628   */\n      sub\n        /* \"#utility.yul\":4601:4633   */\n      slt\n        /* \"#utility.yul\":4598:4717   */\n      iszero\n      tag_118\n      jumpi\n        /* \"#utility.yul\":4636:4715   */\n      tag_119\n      tag_35\n      jump\t// in\n    tag_119:\n        /* \"#utility.yul\":4598:4717   */\n    tag_118:\n        /* \"#utility.yul\":4784:4785   */\n      0x00\n        /* \"#utility.yul\":4773:4782   */\n      dup4\n        /* \"#utility.yul\":4769:4786   */\n      add\n        /* \"#utility.yul\":4756:4787   */\n      calldataload\n        /* \"#utility.yul\":4814:4832   */\n      0xffffffffffffffff\n        /* \"#utility.yul\":4806:4812   */\n      dup2\n        /* \"#utility.yul\":4803:4833   */\n      gt\n        /* \"#utility.yul\":4800:4917   */\n      iszero\n      tag_120\n      jumpi\n        /* \"#utility.yul\":4836:4915   */\n      tag_121\n      tag_36\n      jump\t// in\n    tag_121:\n        /* \"#utility.yul\":4800:4917   */\n    tag_120:\n        /* \"#utility.yul\":4941:5004   */\n      tag_122\n        /* \"#utility.yul\":4996:5003   */\n      dup6\n        /* \"#utility.yul\":4987:4993   */\n      dup3\n        /* \"#utility.yul\":4976:4985   */\n      dup7\n        /* \"#utility.yul\":4972:4994   */\n      add\n        /* \"#utility.yul\":4941:5004   */\n      tag_45\n      jump\t// in\n    tag_122:\n        /* \"#utility.yul\":4931:5004   */\n      swap3\n      pop\n        /* \"#utility.yul\":4727:5014   */\n      pop\n        /* \"#utility.yul\":5053:5055   */\n      0x20\n        /* \"#utility.yul\":5079:5132   */\n      tag_123\n        /* \"#utility.yul\":5124:5131   */\n      dup6\n        /* \"#utility.yul\":5115:5121   */\n      dup3\n        /* \"#utility.yul\":5104:5113   */\n      dup7\n        /* \"#utility.yul\":5100:5122   */\n      add\n        /* \"#utility.yul\":5079:5132   */\n      tag_47\n      jump\t// in\n    tag_123:\n        /* \"#utility.yul\":5069:5132   */\n      swap2\n      pop\n        /* \"#utility.yul\":5024:5142   */\n      pop\n        /* \"#utility.yul\":4495:5149   */\n      swap3\n      pop\n      swap3\n      swap1\n      pop\n      jump\t// out\n        /* \"#utility.yul\":5155:5335   */\n    tag_48:\n        /* \"#utility.yul\":5203:5280   */\n      0x4e487b7100000000000000000000000000000000000000000000000000000000\n        /* \"#utility.yul\":5200:5201   */\n      0x00\n        /* \"#utility.yul\":5193:5281   */\n      mstore\n        /* \"#utility.yul\":5300:5304   */\n      0x22\n        /* \"#utility.yul\":5297:5298   */\n      0x04\n        /* \"#utility.yul\":5290:5305   */\n      mstore\n        /* \"#utility.yul\":5324:5328   */\n      0x24\n        /* \"#utility.yul\":5321:5322   */\n      0x00\n        /* \"#utility.yul\":5314:5329   */\n      revert\n        /* \"#utility.yul\":5341:5661   */\n    tag_19:\n        /* \"#utility.yul\":5385:5391   */\n      0x00\n        /* \"#utility.yul\":5422:5423   */\n      0x02\n        /* \"#utility.yul\":5416:5420   */\n      dup3\n        /* \"#utility.yul\":5412:5424   */\n      div\n        /* \"#utility.yul\":5402:5424   */\n      swap1\n      pop\n        /* \"#utility.yul\":5469:5470   */\n      0x01\n        /* \"#utility.yul\":5463:5467   */\n      dup3\n        /* \"#utility.yul\":5459:5471   */\n      and\n        /* \"#utility.yul\":5490:5508   */\n      dup1\n        /* \"#utility.yul\":5480:5561   */\n      tag_126\n      jumpi\n        /* \"#utility.yul\":5546:5550   */\n      0x7f\n        /* \"#utility.yul\":5538:5544   */\n      dup3\n        /* \"#utility.yul\":5534:5551   */\n      and\n        /* \"#utility.yul\":5524:5551   */\n      swap2\n      pop\n        /* \"#utility.yul\":5480:5561   */\n    tag_126:\n        /* \"#utility.yul\":5608:5610   */\n      0x20\n        /* \"#utility.yul\":5600:5606   */\n      dup3\n        /* \"#utility.yul\":5597:5611   */\n      lt\n        /* \"#utility.yul\":5577:5595   */\n      dup2\n        /* \"#utility.yul\":5574:5612   */\n      sub\n        /* \"#utility.yul\":5571:5655   */\n      tag_127\n      jumpi\n        /* \"#utility.yul\":5627:5645   */\n      tag_128\n      tag_48\n      jump\t// in\n    tag_128:\n        /* \"#utility.yul\":5571:5655   */\n    tag_127:\n        /* \"#utility.yul\":5392:5661   */\n      pop\n        /* \"#utility.yul\":5341:5661   */\n      swap2\n      swap1\n      pop\n      jump\t// out\n        /* \"#utility.yul\":5667:5808   */\n    tag_49:\n        /* \"#utility.yul\":5716:5720   */\n      0x00\n        /* \"#utility.yul\":5739:5742   */\n      dup2\n        /* \"#utility.yul\":5731:5742   */\n      swap1\n      pop\n        /* \"#utility.yul\":5762:5765   */\n      dup2\n        /* \"#utility.yul\":5759:5760   */\n      0x00\n        /* \"#utility.yul\":5752:5766   */\n      mstore\n        /* \"#utility.yul\":5796:5800   */\n      0x20\n        /* \"#utility.yul\":5793:5794   */\n      0x00\n        /* \"#utility.yul\":5783:5801   */\n      keccak256\n        /* \"#utility.yul\":5775:5801   */\n      swap1\n      pop\n        /* \"#utility.yul\":5667:5808   */\n      swap2\n      swap1\n      pop\n      jump\t// out\n        /* \"#utility.yul\":5814:5907   */\n    tag_50:\n        /* \"#utility.yul\":5851:5857   */\n      0x00\n        /* \"#utility.yul\":5898:5900   */\n      0x20\n        /* \"#utility.yul\":5893:5895   */\n      0x1f\n        /* \"#utility.yul\":5886:5891   */\n      dup4\n        /* \"#utility.yul\":5882:5896   */\n      add\n        /* \"#utility.yul\":5878:5901   */\n      div\n        /* \"#utility.yul\":5868:5901   */\n      swap1\n      pop\n        /* \"#utility.yul\":5814:5907   */\n      swap2\n      swap1\n      pop\n      jump\t// out\n        /* \"#utility.yul\":5913:6020   */\n    tag_51:\n        /* \"#utility.yul\":5957:5965   */\n      0x00\n        /* \"#utility.yul\":6007:6012   */\n      dup3\n        /* \"#utility.yul\":6001:6005   */\n      dup3\n        /* \"#utility.yul\":5997:6013   */\n      shl\n        /* \"#utility.yul\":5976:6013   */\n      swap1\n      pop\n        /* \"#utility.yul\":5913:6020   */\n      swap3\n      swap2\n      pop\n      pop\n      jump\t// out\n        /* \"#utility.yul\":6026:6419   */\n    tag_52:\n        /* \"#utility.yul\":6095:6101   */\n      0x00\n        /* \"#utility.yul\":6145:6146   */\n      0x08\n        /* \"#utility.yul\":6133:6143   */\n      dup4\n        /* \"#utility.yul\":6129:6147   */\n      mul\n        /* \"#utility.yul\":6168:6265   */\n      tag_133\n        /* \"#utility.yul\":6198:6264   */\n      0xffffffffffffffffffffffffffffffffffffffffffffffffffffffffffffffff\n        /* \"#utility.yul\":6187:6196   */\n      dup3\n        /* \"#utility.yul\":6168:6265   */\n      tag_51\n      jump\t// in\n    tag_133:\n        /* \"#utility.yul\":6286:6325   */\n      tag_134\n        /* \"#utility.yul\":6316:6324   */\n      dup7\n        /* \"#utility.yul\":6305:6314   */\n      dup4\n        /* \"#utility.yul\":6286:6325   */\n      tag_51\n      jump\t// in\n    tag_134:\n        /* \"#utility.yul\":6274:6325   */\n      swap6\n      pop\n        /* \"#utility.yul\":6358:6362   */\n      dup1\n        /* \"#utility.yul\":6354:6363   */\n      not\n        /* \"#utility.yul\":6347:6352   */\n      dup5\n        /* \"#utility.yul\":6343:6364   */\n      and\n        /* \"#utility.yul\":6334:6364   */\n      swap4\n      pop\n        /* \"#utility.yul\":6407:6411   */\n      dup1\n        /* \"#utility.yul\":6397:6405   */\n      dup7\n        /* \"#utility.yul\":6393:6412   */\n      and\n        /* \"#utility.yul\":6386:6391   */\n      dup5\n        /* \"#utility.yul\":6383:6413   */\n      or\n        /* \"#utility.yul\":6373:6413   */\n      swap3\n      pop\n        /* \"#utility.yul\":6102:6419   */\n      pop\n      pop\n        /* \"#utility.yul\":6026:6419   */\n      swap4\n      swap3\n      pop\n      pop\n      pop\n      jump\t// out\n        /* \"#utility.yul\":6425:6485   */\n    tag_53:\n        /* \"#utility.yul\":6453:6456   */\n      0x00\n        /* \"#utility.yul\":6474:6479   */\n      dup2\n        /* \"#utility.yul\":6467:6479   */\n      swap1\n      pop\n        /* \"#utility.yul\":6425:6485   */\n      swap2\n      swap1\n      pop\n      jump\t// out\n        /* \"#utility.yul\":6491:6633   */\n    tag_54:\n        /* \"#utility.yul\":6541:6550   */\n      0x00\n        /* \"#utility.yul\":6574:6627   */\n      tag_137\n        /* \"#utility.yul\":6592:6626   */\n      tag_138\n        /* \"#utility.yul\":6601:6625   */\n      tag_139\n        /* \"#utility.yul\":6619:6624   */\n      dup5\n        /* \"#utility.yul\":6601:6625   */\n      tag_27\n      jump\t// in\n    tag_139:\n        /* \"#utility.yul\":6592:6626   */\n      tag_53\n      jump\t// in\n    tag_138:\n        /* \"#utility.yul\":6574:6627   */\n      tag_27\n      jump\t// in\n    tag_137:\n        /* \"#utility.yul\":6561:6627   */\n      swap1\n      pop\n        /* \"#utility.yul\":6491:6633   */\n      swap2\n      swap1\n      pop\n      jump\t// out\n        /* \"#utility.yul\":6639:6714   */\n    tag_55:\n        /* \"#utility.yul\":6682:6685   */\n      0x00\n        /* \"#utility.yul\":6703:6708   */\n      dup2\n        /* \"#utility.yul\":6696:6708   */\n      swap1\n      pop\n        /* \"#utility.yul\":6639:6714   */\n      swap2\n      swap1\n      pop\n      jump\t// out\n        /* \"#utility.yul\":6720:6989   */\n    tag_56:\n        /* \"#utility.yul\":6830:6869   */\n      tag_142\n        /* \"#utility.yul\":6861:6868   */\n      dup4\n        /* \"#utility.yul\":6830:6869   */\n      tag_54\n      jump\t// in\n    tag_142:\n        /* \"#utility.yul\":6891:6982   */\n      tag_143\n        /* \"#utility.yul\":6940:6981   */\n      tag_144\n        /* \"#utility.yul\":6964:6980   */\n      dup3\n        /* \"#utility.yul\":6940:6981   */\n      tag_55\n      jump\t// in\n    tag_144:\n        /* \"#utility.yul\":6932:6938   */\n      dup5\n        /* \"#utility.yul\":6925:6929   */\n      dup5\n        /* \"#utility.yul\":6919:6930   */\n      sload\n        /* \"#utility.yul\":6891:6982   */\n      tag_52\n      jump\t// in\n    tag_143:\n        /* \"#utility.yul\":6885:6889   */\n      dup3\n        /* \"#utility.yul\":6878:6983   */\n      sstore\n        /* \"#utility.yul\":6796:6989   */\n      pop\n        /* \"#utility.yul\":6720:6989   */\n      pop\n      pop\n      pop\n      jump\t// out\n        /* \"#utility.yul\":6995:7068   */\n    tag_57:\n        /* \"#utility.yul\":7040:7043   */\n      0x00\n        /* \"#utility.yul\":6995:7068   */\n      swap1\n      jump\t// out\n        /* \"#utility.yul\":7074:7263   */\n    tag_58:\n        /* \"#utility.yul\":7151:7183   */\n      tag_147\n      tag_57\n      jump\t// in\n    tag_147:\n        /* \"#utility.yul\":7192:7257   */\n      tag_148\n        /* \"#utility.yul\":7250:7256   */\n      dup2\n        /* \"#utility.yul\":7242:7248   */\n      dup5\n        /* \"#utility.yul\":7236:7240   */\n      dup5\n        /* \"#utility.yul\":7192:7257   */\n      tag_56\n      jump\t// in\n    tag_148:\n        /* \"#utility.yul\":7127:7263   */\n      pop\n        /* \"#utility.yul\":7074:7263   */\n      pop\n      pop\n      jump\t// out\n        /* \"#utility.yul\":7269:7455   */\n    tag_59:\n        /* \"#utility.yul\":7329:7449   */\n    tag_150:\n        /* \"#utility.yul\":7346:7349   */\n      dup2\n        /* \"#utility.yul\":7339:7344   */\n      dup2\n        /* \"#utility.yul\":7336:7350   */\n      lt\n        /* \"#utility.yul\":7329:7449   */\n      iszero\n      tag_152\n      jumpi\n        /* \"#utility.yul\":7400:7439   */\n      tag_153\n        /* \"#utility.yul\":7437:7438   */\n      0x00\n        /* \"#utility.yul\":7430:7435   */\n      dup3\n        /* \"#utility.yul\":7400:7439   */\n      tag_58\n      jump\t// in\n    tag_153:\n        /* \"#utility.yul\":7373:7374   */\n      0x01\n        /* \"#utility.yul\":7366:7371   */\n      dup2\n        /* \"#utility.yul\":7362:7375   */\n      add\n        /* \"#utility.yul\":7353:7375   */\n      swap1\n      pop\n        /* \"#utility.yul\":7329:7449   */\n      jump(tag_150)\n    tag_152:\n        /* \"#utility.yul\":7269:7455   */\n      pop\n      pop\n      jump\t// out\n        /* \"#utility.yul\":7461:8004   */\n    tag_60:\n        /* \"#utility.yul\":7562:7564   */\n      0x1f\n        /* \"#utility.yul\":7557:7560   */\n      dup3\n        /* \"#utility.yul\":7554:7565   */\n      gt\n        /* \"#utility.yul\":7551:7997   */\n      iszero\n      tag_155\n      jumpi\n        /* \"#utility.yul\":7596:7634   */\n      tag_156\n        /* \"#utility.yul\":7628:7633   */\n      dup2\n        /* \"#utility.yul\":7596:7634   */\n      tag_49\n      jump\t// in\n    tag_156:\n        /* \"#utility.yul\":7680:7709   */\n      tag_157\n        /* \"#utility.yul\":7698:7708   */\n      dup5\n        /* \"#utility.yul\":7680:7709   */\n      tag_50\n      jump\t// in\n    tag_157:\n        /* \"#utility.yul\":7670:7678   */\n      dup2\n        /* \"#utility.yul\":7666:7710   */\n      add\n        /* \"#utility.yul\":7863:7865   */\n      0x20\n        /* \"#utility.yul\":7851:7861   */\n      dup6\n        /* \"#utility.yul\":7848:7866   */\n      lt\n        /* \"#utility.yul\":7845:7894   */\n      iszero\n      tag_158\n      jumpi\n        /* \"#utility.yul\":7884:7892   */\n      dup2\n        /* \"#utility.yul\":7869:7892   */\n      swap1\n      pop\n        /* \"#utility.yul\":7845:7894   */\n    tag_158:\n        /* \"#utility.yul\":7907:7987   */\n      tag_159\n        /* \"#utility.yul\":7963:7985   */\n      tag_160\n        /* \"#utility.yul\":7981:7984   */\n      dup6\n        /* \"#utility.yul\":7963:7985   */\n      tag_50\n      jump\t// in\n    tag_160:\n        /* \"#utility.yul\":7953:7961   */\n      dup4\n        /* \"#utility.yul\":7949:7986   */\n      add\n        /* \"#utility.yul\":7936:7947   */\n      dup3\n        /* \"#utility.yul\":7907:7987   */\n      tag_59\n      jump\t// in\n    tag_159:\n        /* \"#utility.yul\":7566:7997   */\n      pop\n      pop\n        /* \"#utility.yul\":7551:7997   */\n    tag_155:\n        /* \"#utility.yul\":7461:8004   */\n      pop\n      pop\n      pop\n      jump\t// out\n        /* \"#utility.yul\":8010:8127   */\n    tag_61:\n        /* \"#utility.yul\":8064:8072   */\n      0x00\n        /* \"#utility.yul\":8114:8119   */\n      dup3\n        /* \"#utility.yul\":8108:8112   */\n      dup3\n        /* \"#utility.yul\":8104:8120   */\n      shr\n        /* \"#utility.yul\":8083:8120   */\n      swap1\n      pop\n        /* \"#utility.yul\":8010:8127   */\n      swap3\n      swap2\n      pop\n      pop\n      jump\t// out\n        /* \"#utility.yul\":8133:8302   */\n    tag_62:\n        /* \"#utility.yul\":8177:8183   */\n      0x00\n        /* \"#utility.yul\":8210:8261   */\n      tag_163\n        /* \"#utility.yul\":8258:8259   */\n      0x00\n        /* \"#utility.yul\":8254:8260   */\n      not\n        /* \"#utility.yul\":8246:8251   */\n      dup5\n        /* \"#utility.yul\":8243:8244   */\n      0x08\n        /* \"#utility.yul\":8239:8252   */\n      mul\n        /* \"#utility.yul\":8210:8261   */\n      tag_61\n      jump\t// in\n    tag_163:\n        /* \"#utility.yul\":8206:8262   */\n      not\n        /* \"#utility.yul\":8291:8295   */\n      dup1\n        /* \"#utility.yul\":8285:8289   */\n      dup4\n        /* \"#utility.yul\":8281:8296   */\n      and\n        /* \"#utility.yul\":8271:8296   */\n      swap2\n      pop\n        /* \"#utility.yul\":8184:8302   */\n      pop\n        /* \"#utility.yul\":8133:8302   */\n      swap3\n      swap2\n      pop\n      pop\n      jump\t// out\n        /* \"#utility.yul\":8307:8602   */\n    tag_63:\n        /* \"#utility.yul\":8383:8387   */\n      0x00\n        /* \"#utility.yul\":8529:8558   */\n      tag_165\n        /* \"#utility.yul\":8554:8557   */\n      dup4\n        /* \"#utility.yul\":8548:8552   */\n      dup4\n        /* \"#utility.yul\":8529:8558   */\n      tag_62\n      jump\t// in\n    tag_165:\n        /* \"#utility.yul\":8521:8558   */\n      swap2\n      pop\n        /* \"#utility.yul\":8591:8594   */\n      dup3\n        /* \"#utility.yul\":8588:8589   */\n      0x02\n        /* \"#utility.yul\":8584:8595   */\n      mul\n        /* \"#utility.yul\":8578:8582   */\n      dup3\n        /* \"#utility.yul\":8575:8596   */\n      or\n        /* \"#utility.yul\":8567:8596   */\n      swap1\n      pop\n        /* \"#utility.yul\":8307:8602   */\n      swap3\n      swap2\n      pop\n      pop\n      jump\t// out\n        /* \"#utility.yul\":8607:10002   */\n    tag_26:\n        /* \"#utility.yul\":8724:8761   */\n      tag_167\n        /* \"#utility.yul\":8757:8760   */\n      dup3\n        /* \"#utility.yul\":8724:8761   */\n      tag_29\n      jump\t// in\n    tag_167:\n        /* \"#utility.yul\":8826:8844   */\n      0xffffffffffffffff\n        /* \"#utility.yul\":8818:8824   */\n      dup2\n        /* \"#utility.yul\":8815:8845   */\n      gt\n        /* \"#utility.yul\":8812:8868   */\n      iszero\n      tag_168\n      jumpi\n        /* \"#utility.yul\":8848:8866   */\n      tag_169\n      tag_39\n      jump\t// in\n    tag_169:\n        /* \"#utility.yul\":8812:8868   */\n    tag_168:\n        /* \"#utility.yul\":8892:8930   */\n      tag_170\n        /* \"#utility.yul\":8924:8928   */\n      dup3\n        /* \"#utility.yul\":8918:8929   */\n      sload\n        /* \"#utility.yul\":8892:8930   */\n      tag_19\n      jump\t// in\n    tag_170:\n        /* \"#utility.yul\":8977:9044   */\n      tag_171\n        /* \"#utility.yul\":9037:9043   */\n      dup3\n        /* \"#utility.yul\":9029:9035   */\n      dup3\n        /* \"#utility.yul\":9023:9027   */\n      dup6\n        /* \"#utility.yul\":8977:9044   */\n      tag_60\n      jump\t// in\n    tag_171:\n        /* \"#utility.yul\":9071:9072   */\n      0x00\n        /* \"#utility.yul\":9095:9099   */\n      0x20\n        /* \"#utility.yul\":9082:9099   */\n      swap1\n      pop\n        /* \"#utility.yul\":9127:9129   */\n      0x1f\n        /* \"#utility.yul\":9119:9125   */\n      dup4\n        /* \"#utility.yul\":9116:9130   */\n      gt\n        /* \"#utility.yul\":9144:9145   */\n      0x01\n        /* \"#utility.yul\":9139:9757   */\n      dup2\n      eq\n      tag_173\n      jumpi\n        /* \"#utility.yul\":9801:9802   */\n      0x00\n        /* \"#utility.yul\":9818:9824   */\n      dup5\n        /* \"#utility.yul\":9815:9892   */\n      iszero\n      tag_174\n      jumpi\n        /* \"#utility.yul\":9867:9876   */\n      dup3\n        /* \"#utility.yul\":9862:9865   */\n      dup8\n        /* \"#utility.yul\":9858:9877   */\n      add\n        /* \"#utility.yul\":9852:9878   */\n      mload\n        /* \"#utility.yul\":9843:9878   */\n      swap1\n      pop\n        /* \"#utility.yul\":9815:9892   */\n    tag_174:\n        /* \"#utility.yul\":9918:9985   */\n      tag_175\n        /* \"#utility.yul\":9978:9984   */\n      dup6\n        /* \"#utility.yul\":9971:9976   */\n      dup3\n        /* \"#utility.yul\":9918:9985   */\n      tag_63\n      jump\t// in\n    tag_175:\n        /* \"#utility.yul\":9912:9916   */\n      dup7\n        /* \"#utility.yul\":9905:9986   */\n      sstore\n        /* \"#utility.yul\":9774:9996   */\n      pop\n        /* \"#utility.yul\":9109:9996   */\n      jump(tag_172)\n        /* \"#utility.yul\":9139:9757   */\n    tag_173:\n        /* \"#utility.yul\":9191:9195   */\n      0x1f\n        /* \"#utility.yul\":9187:9196   */\n      not\n        /* \"#utility.yul\":9179:9185   */\n      dup5\n        /* \"#utility.yul\":9175:9197   */\n      and\n        /* \"#utility.yul\":9225:9262   */\n      tag_176\n        /* \"#utility.yul\":9257:9261   */\n      dup7\n        /* \"#utility.yul\":9225:9262   */\n      tag_49\n      jump\t// in\n    tag_176:\n        /* \"#utility.yul\":9284:9285   */\n      0x00\n        /* \"#utility.yul\":9298:9506   */\n    tag_177:\n        /* \"#utility.yul\":9312:9319   */\n      dup3\n        /* \"#utility.yul\":9309:9310   */\n      dup2\n        /* \"#utility.yul\":9306:9320   */\n      lt\n        /* \"#utility.yul\":9298:9506   */\n      iszero\n      tag_179\n      jumpi\n        /* \"#utility.yul\":9391:9400   */\n      dup5\n        /* \"#utility.yul\":9386:9389   */\n      dup10\n        /* \"#utility.yul\":9382:9401   */\n      add\n        /* \"#utility.yul\":9376:9402   */\n      mload\n        /* \"#utility.yul\":9368:9374   */\n      dup3\n        /* \"#utility.yul\":9361:9403   */\n      sstore\n        /* \"#utility.yul\":9442:9443   */\n      0x01\n        /* \"#utility.yul\":9434:9440   */\n      dup3\n        /* \"#utility.yul\":9430:9444   */\n      add\n        /* \"#utility.yul\":9420:9444   */\n      swap2\n      pop\n        /* \"#utility.yul\":9489:9491   */\n      0x20\n        /* \"#utility.yul\":9478:9487   */\n      dup6\n        /* \"#utility.yul\":9474:9492   */\n      add\n        /* \"#utility.yul\":9461:9492   */\n      swap5\n      pop\n        /* \"#utility.yul\":9335:9339   */\n      0x20\n        /* \"#utility.yul\":9332:9333   */\n      dup2\n        /* \"#utility.yul\":9328:9340   */\n      add\n        /* \"#utility.yul\":9323:9340   */\n      swap1\n      pop\n        /* \"#utility.yul\":9298:9506   */\n      jump(tag_177)\n    tag_179:\n        /* \"#utility.yul\":9534:9540   */\n      dup7\n        /* \"#utility.yul\":9525:9532   */\n      dup4\n        /* \"#utility.yul\":9522:9541   */\n      lt\n        /* \"#utility.yul\":9519:9698   */\n      iszero\n      tag_180\n      jumpi\n        /* \"#utility.yul\":9592:9601   */\n      dup5\n        /* \"#utility.yul\":9587:9590   */\n      dup10\n        /* \"#utility.yul\":9583:9602   */\n      add\n        /* \"#utility.yul\":9577:9603   */\n      mload\n        /* \"#utility.yul\":9635:9683   */\n      tag_181\n        /* \"#utility.yul\":9677:9681   */\n      0x1f\n        /* \"#utility.yul\":9669:9675   */\n      dup10\n        /* \"#utility.yul\":9665:9682   */\n      and\n        /* \"#utility.yul\":9654:9663   */\n      dup3\n        /* \"#utility.yul\":9635:9683   */\n      tag_62\n      jump\t// in\n    tag_181:\n        /* \"#utility.yul\":9627:9633   */\n      dup4\n        /* \"#utility.yul\":9620:9684   */\n      sstore\n        /* \"#utility.yul\":9542:9698   */\n      pop\n        /* \"#utility.yul\":9519:9698   */\n    tag_180:\n        /* \"#utility.yul\":9744:9745   */\n      0x01\n        /* \"#utility.yul\":9740:9741   */\n      0x02\n        /* \"#utility.yul\":9732:9738   */\n      dup9\n        /* \"#utility.yul\":9728:9742   */\n      mul\n        /* \"#utility.yul\":9724:9746   */\n      add\n        /* \"#utility.yul\":9718:9722   */\n      dup9\n        /* \"#utility.yul\":9711:9747   */\n      sstore\n        /* \"#utility.yul\":9146:9757   */\n      pop\n      pop\n      pop\n        /* \"#utility.yul\":9109:9996   */\n    tag_172:\n      pop\n        /* \"#utility.yul\":8699:10002   */\n      pop\n      pop\n      pop\n        /* \"#utility.yul\":8607:10002   */\n      pop\n      pop\n      jump\t// out\n\n    auxdata: 0xa26469706673582212204d63cc9b51ad02124b94b1a30057efde98c3061788699e521daa76e06463be9d64736f6c63430008120033\n}\n",
				"bytecode": {
					"linkReferences": {},
					"object": "608060405234801561001057600080fd5b50610718806100206000396000f3fe608060405234801561001057600080fd5b50600436106100415760003560e01c80638381f58a14610046578063bde2b57314610064578063cd6bc3dd14610082575b600080fd5b61004e61009e565b60405161005b9190610166565b60405180910390f35b61006c6100a4565b6040516100799190610211565b60405180910390f35b61009c600480360381019061009791906103a8565b610132565b005b60015481565b600080546100b190610433565b80601f01602080910402602001604051908101604052809291908181526020018280546100dd90610433565b801561012a5780601f106100ff5761010080835404028352916020019161012a565b820191906000526020600020905b81548152906001019060200180831161010d57829003601f168201915b505050505081565b81600090816101419190610610565b50806001819055505050565b6000819050919050565b6101608161014d565b82525050565b600060208201905061017b6000830184610157565b92915050565b600081519050919050565b600082825260208201905092915050565b60005b838110156101bb5780820151818401526020810190506101a0565b60008484015250505050565b6000601f19601f8301169050919050565b60006101e382610181565b6101ed818561018c565b93506101fd81856020860161019d565b610206816101c7565b840191505092915050565b6000602082019050818103600083015261022b81846101d8565b905092915050565b6000604051905090565b600080fd5b600080fd5b600080fd5b600080fd5b7f4e487b7100000000000000000000000000000000000000000000000000000000600052604160045260246000fd5b610289826101c7565b810181811067ffffffffffffffff821117156102a8576102a7610251565b5b80604052505050565b60006102bb610233565b90506102c78282610280565b919050565b600067ffffffffffffffff8211156102e7576102e6610251565b5b6102f0826101c7565b9050602081019050919050565b82818337600083830152505050565b600061031f61031a846102cc565b6102b1565b90508281526020810184848401111561033b5761033a61024c565b5b6103468482856102fd565b509392505050565b600082601f83011261036357610362610247565b5b813561037384826020860161030c565b91505092915050565b6103858161014d565b811461039057600080fd5b50565b6000813590506103a28161037c565b92915050565b600080604083850312156103bf576103be61023d565b5b600083013567ffffffffffffffff8111156103dd576103dc610242565b5b6103e98582860161034e565b92505060206103fa85828601610393565b9150509250929050565b7f4e487b7100000000000000000000000000000000000000000000000000000000600052602260045260246000fd5b6000600282049050600182168061044b57607f821691505b60208210810361045e5761045d610404565b5b50919050565b60008190508160005260206000209050919050565b60006020601f8301049050919050565b600082821b905092915050565b6000600883026104c67fffffffffffffffffffffffffffffffffffffffffffffffffffffffffffffffff82610489565b6104d08683610489565b95508019841693508086168417925050509392505050565b6000819050919050565b600061050d6105086105038461014d565b6104e8565b61014d565b9050919050565b6000819050919050565b610527836104f2565b61053b61053382610514565b848454610496565b825550505050565b600090565b610550610543565b61055b81848461051e565b505050565b5b8181101561057f57610574600082610548565b600181019050610561565b5050565b601f8211156105c45761059581610464565b61059e84610479565b810160208510156105ad578190505b6105c16105b985610479565b830182610560565b50505b505050565b600082821c905092915050565b60006105e7600019846008026105c9565b1980831691505092915050565b600061060083836105d6565b9150826002028217905092915050565b61061982610181565b67ffffffffffffffff81111561063257610631610251565b5b61063c8254610433565b610647828285610583565b600060209050601f83116001811461067a5760008415610668578287015190505b61067285826105f4565b8655506106da565b601f19841661068886610464565b60005b828110156106b05784890151825560018201915060208501945060208101905061068b565b868310156106cd57848901516106c9601f8916826105d6565b8355505b6001600288020188555050505b50505050505056fea26469706673582212204d63cc9b51ad02124b94b1a30057efde98c3061788699e521daa76e06463be9d64736f6c63430008120033",
					"opcodes": "PUSH1 0x80 PUSH1 0x40 MSTORE CALLVALUE DUP1 ISZERO PUSH2 0x10 JUMPI PUSH1 0x0 DUP1 REVERT JUMPDEST POP PUSH2 0x718 DUP1 PUSH2 0x20 PUSH1 0x0 CODECOPY PUSH1 0x0 RETURN INVALID PUSH1 0x80 PUSH1 0x40 MSTORE CALLVALUE DUP1 ISZERO PUSH2 0x10 JUMPI PUSH1 0x0 DUP1 REVERT JUMPDEST POP PUSH1 0x4 CALLDATASIZE LT PUSH2 0x41 JUMPI PUSH1 0x0 CALLDATALOAD PUSH1 0xE0 SHR DUP1 PUSH4 0x8381F58A EQ PUSH2 0x46 JUMPI DUP1 PUSH4 0xBDE2B573 EQ PUSH2 0x64 JUMPI DUP1 PUSH4 0xCD6BC3DD EQ PUSH2 0x82 JUMPI JUMPDEST PUSH1 0x0 DUP1 REVERT JUMPDEST PUSH2 0x4E PUSH2 0x9E JUMP JUMPDEST PUSH1 0x40 MLOAD PUSH2 0x5B SWAP2 SWAP1 PUSH2 0x166 JUMP JUMPDEST PUSH1 0x40 MLOAD DUP1 SWAP2 SUB SWAP1 RETURN JUMPDEST PUSH2 0x6C PUSH2 0xA4 JUMP JUMPDEST PUSH1 0x40 MLOAD PUSH2 0x79 SWAP2 SWAP1 PUSH2 0x211 JUMP JUMPDEST PUSH1 0x40 MLOAD DUP1 SWAP2 SUB SWAP1 RETURN JUMPDEST PUSH2 0x9C PUSH1 0x4 DUP1 CALLDATASIZE SUB DUP2 ADD SWAP1 PUSH2 0x97 SWAP2 SWAP1 PUSH2 0x3A8 JUMP JUMPDEST PUSH2 0x132 JUMP JUMPDEST STOP JUMPDEST PUSH1 0x1 SLOAD DUP2 JUMP JUMPDEST PUSH1 0x0 DUP1 SLOAD PUSH2 0xB1 SWAP1 PUSH2 0x433 JUMP JUMPDEST DUP1 PUSH1 0x1F ADD PUSH1 0x20 DUP1 SWAP2 DIV MUL PUSH1 0x20 ADD PUSH1 0x40 MLOAD SWAP1 DUP2 ADD PUSH1 0x40 MSTORE DUP1 SWAP3 SWAP2 SWAP1 DUP2 DUP2 MSTORE PUSH1 0x20 ADD DUP3 DUP1 SLOAD PUSH2 0xDD SWAP1 PUSH2 0x433 JUMP JUMPDEST DUP1 ISZERO PUSH2 0x12A JUMPI DUP1 PUSH1 0x1F LT PUSH2 0xFF JUMPI PUSH2 0x100 DUP1 DUP4 SLOAD DIV MUL DUP4 MSTORE SWAP2 PUSH1 0x20 ADD SWAP2 PUSH2 0x12A JUMP JUMPDEST DUP3 ADD SWAP2 SWAP1 PUSH1 0x0 MSTORE PUSH1 0x20 PUSH1 0x0 KECCAK256 SWAP1 JUMPDEST DUP2 SLOAD DUP2 MSTORE SWAP1 PUSH1 0x1 ADD SWAP1 PUSH1 0x20 ADD DUP1 DUP4 GT PUSH2 0x10D JUMPI DUP3 SWAP1 SUB PUSH1 0x1F AND DUP3 ADD SWAP2 JUMPDEST POP POP POP POP POP DUP2 JUMP JUMPDEST DUP2 PUSH1 0x0 SWAP1 DUP2 PUSH2 0x141 SWAP2 SWAP1 PUSH2 0x610 JUMP JUMPDEST POP DUP1 PUSH1 0x1 DUP2 SWAP1 SSTORE POP POP POP JUMP JUMPDEST PUSH1 0x0 DUP2 SWAP1 POP SWAP2 SWAP1 POP JUMP JUMPDEST PUSH2 0x160 DUP2 PUSH2 0x14D JUMP JUMPDEST DUP3 MSTORE POP POP JUMP JUMPDEST PUSH1 0x0 PUSH1 0x20 DUP3 ADD SWAP1 POP PUSH2 0x17B PUSH1 0x0 DUP4 ADD DUP5 PUSH2 0x157 JUMP JUMPDEST SWAP3 SWAP2 POP POP JUMP JUMPDEST PUSH1 0x0 DUP2 MLOAD SWAP1 POP SWAP2 SWAP1 POP JUMP JUMPDEST PUSH1 0x0 DUP3 DUP3 MSTORE PUSH1 0x20 DUP3 ADD SWAP1 POP SWAP3 SWAP2 POP POP JUMP JUMPDEST PUSH1 0x0 JUMPDEST DUP4 DUP2 LT ISZERO PUSH2 0x1BB JUMPI DUP1 DUP3 ADD MLOAD DUP2 DUP5 ADD MSTORE PUSH1 0x20 DUP2 ADD SWAP1 POP PUSH2 0x1A0 JUMP JUMPDEST PUSH1 0x0 DUP5 DUP5 ADD MSTORE POP POP POP POP JUMP JUMPDEST PUSH1 0x0 PUSH1 0x1F NOT PUSH1 0x1F DUP4 ADD AND SWAP1 POP SWAP2 SWAP1 POP JUMP JUMPDEST PUSH1 0x0 PUSH2 0x1E3 DUP3 PUSH2 0x181 JUMP JUMPDEST PUSH2 0x1ED DUP2 DUP6 PUSH2 0x18C JUMP JUMPDEST SWAP4 POP PUSH2 0x1FD DUP2 DUP6 PUSH1 0x20 DUP7 ADD PUSH2 0x19D JUMP JUMPDEST PUSH2 0x206 DUP2 PUSH2 0x1C7 JUMP JUMPDEST DUP5 ADD SWAP2 POP POP SWAP3 SWAP2 POP POP JUMP JUMPDEST PUSH1 0x0 PUSH1 0x20 DUP3 ADD SWAP1 POP DUP2 DUP2 SUB PUSH1 0x0 DUP4 ADD MSTORE PUSH2 0x22B DUP2 DUP5 PUSH2 0x1D8 JUMP JUMPDEST SWAP1 POP SWAP3 SWAP2 POP POP JUMP JUMPDEST PUSH1 0x0 PUSH1 0x40 MLOAD SWAP1 POP SWAP1 JUMP JUMPDEST PUSH1 0x0 DUP1 REVERT JUMPDEST PUSH1 0x0 DUP1 REVERT JUMPDEST PUSH1 0x0 DUP1 REVERT JUMPDEST PUSH1 0x0 DUP1 REVERT JUMPDEST PUSH32 0x4E487B7100000000000000000000000000000000000000000000000000000000 PUSH1 0x0 MSTORE PUSH1 0x41 PUSH1 0x4 MSTORE PUSH1 0x24 PUSH1 0x0 REVERT JUMPDEST PUSH2 0x289 DUP3 PUSH2 0x1C7 JUMP JUMPDEST DUP2 ADD DUP2 DUP2 LT PUSH8 0xFFFFFFFFFFFFFFFF DUP3 GT OR ISZERO PUSH2 0x2A8 JUMPI PUSH2 0x2A7 PUSH2 0x251 JUMP JUMPDEST JUMPDEST DUP1 PUSH1 0x40 MSTORE POP POP POP JUMP JUMPDEST PUSH1 0x0 PUSH2 0x2BB PUSH2 0x233 JUMP JUMPDEST SWAP1 POP PUSH2 0x2C7 DUP3 DUP3 PUSH2 0x280 JUMP JUMPDEST SWAP2 SWAP1 POP JUMP JUMPDEST PUSH1 0x0 PUSH8 0xFFFFFFFFFFFFFFFF DUP3 GT ISZERO PUSH2 0x2E7 JUMPI PUSH2 0x2E6 PUSH2 0x251 JUMP JUMPDEST JUMPDEST PUSH2 0x2F0 DUP3 PUSH2 0x1C7 JUMP JUMPDEST SWAP1 POP PUSH1 0x20 DUP2 ADD SWAP1 POP SWAP2 SWAP1 POP JUMP JUMPDEST DUP3 DUP2 DUP4 CALLDATACOPY PUSH1 0x0 DUP4 DUP4 ADD MSTORE POP POP POP JUMP JUMPDEST PUSH1 0x0 PUSH2 0x31F PUSH2 0x31A DUP5 PUSH2 0x2CC JUMP JUMPDEST PUSH2 0x2B1 JUMP JUMPDEST SWAP1 POP DUP3 DUP2 MSTORE PUSH1 0x20 DUP2 ADD DUP5 DUP5 DUP5 ADD GT ISZERO PUSH2 0x33B JUMPI PUSH2 0x33A PUSH2 0x24C JUMP JUMPDEST JUMPDEST PUSH2 0x346 DUP5 DUP3 DUP6 PUSH2 0x2FD JUMP JUMPDEST POP SWAP4 SWAP3 POP POP POP JUMP JUMPDEST PUSH1 0x0 DUP3 PUSH1 0x1F DUP4 ADD SLT PUSH2 0x363 JUMPI PUSH2 0x362 PUSH2 0x247 JUMP JUMPDEST JUMPDEST DUP2 CALLDATALOAD PUSH2 0x373 DUP5 DUP3 PUSH1 0x20 DUP7 ADD PUSH2 0x30C JUMP JUMPDEST SWAP2 POP POP SWAP3 SWAP2 POP POP JUMP JUMPDEST PUSH2 0x385 DUP2 PUSH2 0x14D JUMP JUMPDEST DUP2 EQ PUSH2 0x390 JUMPI PUSH1 0x0 DUP1 REVERT JUMPDEST POP JUMP JUMPDEST PUSH1 0x0 DUP2 CALLDATALOAD SWAP1 POP PUSH2 0x3A2 DUP2 PUSH2 0x37C JUMP JUMPDEST SWAP3 SWAP2 POP POP JUMP JUMPDEST PUSH1 0x0 DUP1 PUSH1 0x40 DUP4 DUP6 SUB SLT ISZERO PUSH2 0x3BF JUMPI PUSH2 0x3BE PUSH2 0x23D JUMP JUMPDEST JUMPDEST PUSH1 0x0 DUP4 ADD CALLDATALOAD PUSH8 0xFFFFFFFFFFFFFFFF DUP2 GT ISZERO PUSH2 0x3DD JUMPI PUSH2 0x3DC PUSH2 0x242 JUMP JUMPDEST JUMPDEST PUSH2 0x3E9 DUP6 DUP3 DUP7 ADD PUSH2 0x34E JUMP JUMPDEST SWAP3 POP POP PUSH1 0x20 PUSH2 0x3FA DUP6 DUP3 DUP7 ADD PUSH2 0x393 JUMP JUMPDEST SWAP2 POP POP SWAP3 POP SWAP3 SWAP1 POP JUMP JUMPDEST PUSH32 0x4E487B7100000000000000000000000000000000000000000000000000000000 PUSH1 0x0 MSTORE PUSH1 0x22 PUSH1 0x4 MSTORE PUSH1 0x24 PUSH1 0x0 REVERT JUMPDEST PUSH1 0x0 PUSH1 0x2 DUP3 DIV SWAP1 POP PUSH1 0x1 DUP3 AND DUP1 PUSH2 0x44B JUMPI PUSH1 0x7F DUP3 AND SWAP2 POP JUMPDEST PUSH1 0x20 DUP3 LT DUP2 SUB PUSH2 0x45E JUMPI PUSH2 0x45D PUSH2 0x404 JUMP JUMPDEST JUMPDEST POP SWAP2 SWAP1 POP JUMP JUMPDEST PUSH1 0x0 DUP2 SWAP1 POP DUP2 PUSH1 0x0 MSTORE PUSH1 0x20 PUSH1 0x0 KECCAK256 SWAP1 POP SWAP2 SWAP1 POP JUMP JUMPDEST PUSH1 0x0 PUSH1 0x20 PUSH1 0x1F DUP4 ADD DIV SWAP1 POP SWAP2 SWAP1 POP JUMP JUMPDEST PUSH1 0x0 DUP3 DUP3 SHL SWAP1 POP SWAP3 SWAP2 POP POP JUMP JUMPDEST PUSH1 0x0 PUSH1 0x8 DUP4 MUL PUSH2 0x4C6 PUSH32 0xFFFFFFFFFFFFFFFFFFFFFFFFFFFFFFFFFFFFFFFFFFFFFFFFFFFFFFFFFFFFFFFF DUP3 PUSH2 0x489 JUMP JUMPDEST PUSH2 0x4D0 DUP7 DUP4 PUSH2 0x489 JUMP JUMPDEST SWAP6 POP DUP1 NOT DUP5 AND SWAP4 POP DUP1 DUP7 AND DUP5 OR SWAP3 POP POP POP SWAP4 SWAP3 POP POP POP JUMP JUMPDEST PUSH1 0x0 DUP2 SWAP1 POP SWAP2 SWAP1 POP JUMP JUMPDEST PUSH1 0x0 PUSH2 0x50D PUSH2 0x508 PUSH2 0x503 DUP5 PUSH2 0x14D JUMP JUMPDEST PUSH2 0x4E8 JUMP JUMPDEST PUSH2 0x14D JUMP JUMPDEST SWAP1 POP SWAP2 SWAP1 POP JUMP JUMPDEST PUSH1 0x0 DUP2 SWAP1 POP SWAP2 SWAP1 POP JUMP JUMPDEST PUSH2 0x527 DUP4 PUSH2 0x4F2 JUMP JUMPDEST PUSH2 0x53B PUSH2 0x533 DUP3 PUSH2 0x514 JUMP JUMPDEST DUP5 DUP5 SLOAD PUSH2 0x496 JUMP JUMPDEST DUP3 SSTORE POP POP POP POP JUMP JUMPDEST PUSH1 0x0 SWAP1 JUMP JUMPDEST PUSH2 0x550 PUSH2 0x543 JUMP JUMPDEST PUSH2 0x55B DUP2 DUP5 DUP5 PUSH2 0x51E JUMP JUMPDEST POP POP POP JUMP JUMPDEST JUMPDEST DUP2 DUP2 LT ISZERO PUSH2 0x57F JUMPI PUSH2 0x574 PUSH1 0x0 DUP3 PUSH2 0x548 JUMP JUMPDEST PUSH1 0x1 DUP2 ADD SWAP1 POP PUSH2 0x561 JUMP JUMPDEST POP POP JUMP JUMPDEST PUSH1 0x1F DUP3 GT ISZERO PUSH2 0x5C4 JUMPI PUSH2 0x595 DUP2 PUSH2 0x464 JUMP JUMPDEST PUSH2 0x59E DUP5 PUSH2 0x479 JUMP JUMPDEST DUP2 ADD PUSH1 0x20 DUP6 LT ISZERO PUSH2 0x5AD JUMPI DUP2 SWAP1 POP JUMPDEST PUSH2 0x5C1 PUSH2 0x5B9 DUP6 PUSH2 0x479 JUMP JUMPDEST DUP4 ADD DUP3 PUSH2 0x560 JUMP JUMPDEST POP POP JUMPDEST POP POP POP JUMP JUMPDEST PUSH1 0x0 DUP3 DUP3 SHR SWAP1 POP SWAP3 SWAP2 POP POP JUMP JUMPDEST PUSH1 0x0 PUSH2 0x5E7 PUSH1 0x0 NOT DUP5 PUSH1 0x8 MUL PUSH2 0x5C9 JUMP JUMPDEST NOT DUP1 DUP4 AND SWAP2 POP POP SWAP3 SWAP2 POP POP JUMP JUMPDEST PUSH1 0x0 PUSH2 0x600 DUP4 DUP4 PUSH2 0x5D6 JUMP JUMPDEST SWAP2 POP DUP3 PUSH1 0x2 MUL DUP3 OR SWAP1 POP SWAP3 SWAP2 POP POP JUMP JUMPDEST PUSH2 0x619 DUP3 PUSH2 0x181 JUMP JUMPDEST PUSH8 0xFFFFFFFFFFFFFFFF DUP2 GT ISZERO PUSH2 0x632 JUMPI PUSH2 0x631 PUSH2 0x251 JUMP JUMPDEST JUMPDEST PUSH2 0x63C DUP3 SLOAD PUSH2 0x433 JUMP JUMPDEST PUSH2 0x647 DUP3 DUP3 DUP6 PUSH2 0x583 JUMP JUMPDEST PUSH1 0x0 PUSH1 0x20 SWAP1 POP PUSH1 0x1F DUP4 GT PUSH1 0x1 DUP2 EQ PUSH2 0x67A JUMPI PUSH1 0x0 DUP5 ISZERO PUSH2 0x668 JUMPI DUP3 DUP8 ADD MLOAD SWAP1 POP JUMPDEST PUSH2 0x672 DUP6 DUP3 PUSH2 0x5F4 JUMP JUMPDEST DUP7 SSTORE POP PUSH2 0x6DA JUMP JUMPDEST PUSH1 0x1F NOT DUP5 AND PUSH2 0x688 DUP7 PUSH2 0x464 JUMP JUMPDEST PUSH1 0x0 JUMPDEST DUP3 DUP2 LT ISZERO PUSH2 0x6B0 JUMPI DUP5 DUP10 ADD MLOAD DUP3 SSTORE PUSH1 0x1 DUP3 ADD SWAP2 POP PUSH1 0x20 DUP6 ADD SWAP5 POP PUSH1 0x20 DUP2 ADD SWAP1 POP PUSH2 0x68B JUMP JUMPDEST DUP7 DUP4 LT ISZERO PUSH2 0x6CD JUMPI DUP5 DUP10 ADD MLOAD PUSH2 0x6C9 PUSH1 0x1F DUP10 AND DUP3 PUSH2 0x5D6 JUMP JUMPDEST DUP4 SSTORE POP JUMPDEST PUSH1 0x1 PUSH1 0x2 DUP9 MUL ADD DUP9 SSTORE POP POP POP JUMPDEST POP POP POP POP POP POP JUMP INVALID LOG2 PUSH5 0x6970667358 0x22 SLT KECCAK256 0x4D PUSH4 0xCC9B51AD MUL SLT 0x4B SWAP5 0xB1 LOG3 STOP JUMPI 0xEF 0xDE SWAP9 0xC3 MOD OR DUP9 PUSH10 0x9E521DAA76E06463BE9D PUSH5 0x736F6C6343 STOP ADDMOD SLT STOP CALLER "
				},
				"gasEstimates": {
					"creation": {
						"codeDepositCost": "363200",
						"executionCost": "399",
						"totalCost": "363599"
					},
					"external": {
						"addInfo(string,uint256)": "infinite",
						"hey()": "infinite",
						"number()": "2407"
					}
				},
				"methodIdentifiers": {
					"addInfo(string,uint256)": "cd6bc3dd",
					"hey()": "bde2b573",
					"number()": "8381f58a"
				}
			},
			"storageLayout": {
				"storage": [
					{
						"astId": 3,
						"contract": "hello.sol:MyFirstContract",
						"label": "hey",
						"offset": 0,
						"slot": "0",
						"type": "t_string_storage"
					},
					{
						"astId": 5,
						"contract": "hello.sol:MyFirstContract",
						"label": "number",
						"offset": 0,
						"slot": "1",
						"type": "t_uint256"
					}
				],
				"types": {
					"t_string_storage": {
						"encoding": "bytes",
						"label": "string",
						"numberOfBytes": "32"
					},
					"t_uint256": {
						"encoding": "inplace",
						"label": "uint256",
						"numberOfBytes": "32"
					}
				}
			},
			"userdoc": {
				"kind": "user",
				"methods": {},
				"version": 1
			}
		}
	}
}