{
	"conditionalWhileFor.sol": {
		"conditionalWhileFor": {
			"abi": [
				{
					"inputs": [],
					"name": "simpleFor",
					"outputs": [
						{
							"internalType": "uint8[]",
							"name": "",
							"type": "uint8[]"
						}
					],
					"stateMutability": "nonpayable",
					"type": "function"
				},
				{
					"inputs": [],
					"name": "simpleWhile",
					"outputs": [
						{
							"internalType": "uint8[]",
							"name": "",
							"type": "uint8[]"
						}
					],
					"stateMutability": "nonpayable",
					"type": "function"
				},
				{
					"inputs": [
						{
							"internalType": "string",
							"name": "_entrada",
							"type": "string"
						}
					],
					"name": "testX",
					"outputs": [
						{
							"internalType": "bool",
							"name": "",
							"type": "bool"
						}
					],
					"stateMutability": "pure",
					"type": "function"
				},
				{
					"inputs": [
						{
							"internalType": "string",
							"name": "_entrada",
							"type": "string"
						}
					],
					"name": "testY",
					"outputs": [
						{
							"internalType": "bool",
							"name": "",
							"type": "bool"
						}
					],
					"stateMutability": "pure",
					"type": "function"
				}
			],
			"devdoc": {
				"kind": "dev",
				"methods": {},
				"version": 1
			},
			"evm": {
				"assembly": "    /* \"conditionalWhileFor.sol\":63:1070  contract conditionalWhileFor{... */\n  mstore(0x40, 0x80)\n  callvalue\n  dup1\n  iszero\n  tag_1\n  jumpi\n  0x00\n  dup1\n  revert\ntag_1:\n  pop\n  dataSize(sub_0)\n  dup1\n  dataOffset(sub_0)\n  0x00\n  codecopy\n  0x00\n  return\nstop\n\nsub_0: assembly {\n        /* \"conditionalWhileFor.sol\":63:1070  contract conditionalWhileFor{... */\n      mstore(0x40, 0x80)\n      callvalue\n      dup1\n      iszero\n      tag_1\n      jumpi\n      0x00\n      dup1\n      revert\n    tag_1:\n      pop\n      jumpi(tag_2, lt(calldatasize, 0x04))\n      shr(0xe0, calldataload(0x00))\n      dup1\n      0x3aba7a6a\n      eq\n      tag_3\n      jumpi\n      dup1\n      0x6f5a3c1c\n      eq\n      tag_4\n      jumpi\n      dup1\n      0x982386c7\n      eq\n      tag_5\n      jumpi\n      dup1\n      0xe6c2894a\n      eq\n      tag_6\n      jumpi\n    tag_2:\n      0x00\n      dup1\n      revert\n        /* \"conditionalWhileFor.sol\":878:1065  function simpleFor() public returns(uint8[] memory){... */\n    tag_3:\n      tag_7\n      tag_8\n      jump\t// in\n    tag_7:\n      mload(0x40)\n      tag_9\n      swap2\n      swap1\n      tag_10\n      jump\t// in\n    tag_9:\n      mload(0x40)\n      dup1\n      swap2\n      sub\n      swap1\n      return\n        /* \"conditionalWhileFor.sol\":179:405  function testX(string memory _entrada) public pure returns(bool){... */\n    tag_4:\n      tag_11\n      0x04\n      dup1\n      calldatasize\n      sub\n      dup2\n      add\n      swap1\n      tag_12\n      swap2\n      swap1\n      tag_13\n      jump\t// in\n    tag_12:\n      tag_14\n      jump\t// in\n    tag_11:\n      mload(0x40)\n      tag_15\n      swap2\n      swap1\n      tag_16\n      jump\t// in\n    tag_15:\n      mload(0x40)\n      dup1\n      swap2\n      sub\n      swap1\n      return\n        /* \"conditionalWhileFor.sol\":413:636  function testY(string memory _entrada) public pure returns(bool){... */\n    tag_5:\n      tag_17\n      0x04\n      dup1\n      calldatasize\n      sub\n      dup2\n      add\n      swap1\n      tag_18\n      swap2\n      swap1\n      tag_13\n      jump\t// in\n    tag_18:\n      tag_19\n      jump\t// in\n    tag_17:\n      mload(0x40)\n      tag_20\n      swap2\n      swap1\n      tag_16\n      jump\t// in\n    tag_20:\n      mload(0x40)\n      dup1\n      swap2\n      sub\n      swap1\n      return\n        /* \"conditionalWhileFor.sol\":664:870  function simpleWhile() public returns(uint8[] memory){... */\n    tag_6:\n      tag_21\n      tag_22\n      jump\t// in\n    tag_21:\n      mload(0x40)\n      tag_23\n      swap2\n      swap1\n      tag_10\n      jump\t// in\n    tag_23:\n      mload(0x40)\n      dup1\n      swap2\n      sub\n      swap1\n      return\n        /* \"conditionalWhileFor.sol\":878:1065  function simpleFor() public returns(uint8[] memory){... */\n    tag_8:\n        /* \"conditionalWhileFor.sol\":914:928  uint8[] memory */\n      0x60\n        /* \"conditionalWhileFor.sol\":940:952  uint8 numbah */\n      0x00\n        /* \"conditionalWhileFor.sol\":963:1037  for(numbah=0;numbah<5;++numbah){... */\n    tag_25:\n        /* \"conditionalWhileFor.sol\":983:984  5 */\n      0x05\n        /* \"conditionalWhileFor.sol\":976:982  numbah */\n      dup2\n        /* \"conditionalWhileFor.sol\":976:984  numbah<5 */\n      0xff\n      and\n      lt\n        /* \"conditionalWhileFor.sol\":963:1037  for(numbah=0;numbah<5;++numbah){... */\n      iszero\n      tag_26\n      jumpi\n        /* \"conditionalWhileFor.sol\":1009:1012  ray */\n      0x00\n        /* \"conditionalWhileFor.sol\":1018:1024  numbah */\n      dup2\n        /* \"conditionalWhileFor.sol\":1009:1025  ray.push(numbah) */\n      swap1\n      dup1\n      0x01\n      dup2\n      sload\n      add\n      dup1\n      dup3\n      sstore\n      dup1\n      swap2\n      pop\n      pop\n      0x01\n      swap1\n      sub\n      swap1\n      0x00\n      mstore\n      keccak256(0x00, 0x20)\n      swap1\n      0x20\n      swap2\n      dup3\n      dup3\n      div\n      add\n      swap2\n      swap1\n      mod\n      swap1\n      swap2\n      swap1\n      swap2\n      swap1\n      swap2\n      0x0100\n      exp\n      dup2\n      sload\n      dup2\n      0xff\n      mul\n      not\n      and\n      swap1\n      dup4\n      0xff\n      and\n      mul\n      or\n      swap1\n      sstore\n      pop\n        /* \"conditionalWhileFor.sol\":985:993  ++numbah */\n      dup1\n      tag_29\n      swap1\n      tag_30\n      jump\t// in\n    tag_29:\n      swap1\n      pop\n        /* \"conditionalWhileFor.sol\":963:1037  for(numbah=0;numbah<5;++numbah){... */\n      jump(tag_25)\n    tag_26:\n        /* \"conditionalWhileFor.sol\":1054:1057  ray */\n      0x00\n        /* \"conditionalWhileFor.sol\":1047:1057  return ray */\n      dup1\n      sload\n      dup1\n      0x20\n      mul\n      0x20\n      add\n      mload(0x40)\n      swap1\n      dup2\n      add\n      0x40\n      mstore\n      dup1\n      swap3\n      swap2\n      swap1\n      dup2\n      dup2\n      mstore\n      0x20\n      add\n      dup3\n      dup1\n      sload\n      dup1\n      iszero\n      tag_31\n      jumpi\n      0x20\n      mul\n      dup3\n      add\n      swap2\n      swap1\n      0x00\n      mstore\n      keccak256(0x00, 0x20)\n      swap1\n      0x00\n      swap1\n    tag_32:\n      dup3\n      dup3\n      swap1\n      sload\n      swap1\n      0x0100\n      exp\n      swap1\n      div\n      0xff\n      and\n      0xff\n      and\n      dup2\n      mstore\n      0x20\n      add\n      swap1\n      0x01\n      add\n      swap1\n      0x20\n      dup3\n      0x00\n      add\n      div\n      swap3\n      dup4\n      add\n      swap3\n      0x01\n      sub\n      dup3\n      mul\n      swap2\n      pop\n      dup1\n      dup5\n      gt\n      tag_32\n      jumpi\n      swap1\n      pop\n    tag_31:\n      pop\n      pop\n      pop\n      pop\n      pop\n      swap2\n      pop\n      pop\n        /* \"conditionalWhileFor.sol\":878:1065  function simpleFor() public returns(uint8[] memory){... */\n      swap1\n      jump\t// out\n        /* \"conditionalWhileFor.sol\":179:405  function testX(string memory _entrada) public pure returns(bool){... */\n    tag_14:\n        /* \"conditionalWhileFor.sol\":238:242  bool */\n      0x00\n        /* \"conditionalWhileFor.sol\":306:314  _entrada */\n      dup2\n        /* \"conditionalWhileFor.sol\":295:315  abi.encode(_entrada) */\n      add(0x20, mload(0x40))\n      tag_34\n      swap2\n      swap1\n      tag_35\n      jump\t// in\n    tag_34:\n      mload(0x40)\n      0x20\n      dup2\n      dup4\n      sub\n      sub\n      dup2\n      mstore\n      swap1\n      0x40\n      mstore\n        /* \"conditionalWhileFor.sol\":285:316  keccak256(abi.encode(_entrada)) */\n      dup1\n      mload\n      swap1\n      0x20\n      add\n      keccak256\n        /* \"conditionalWhileFor.sol\":267:282  abi.encode('x') */\n      add(0x20, mload(0x40))\n      tag_36\n      swap1\n      tag_37\n      jump\t// in\n    tag_36:\n      mload(0x40)\n      0x20\n      dup2\n      dup4\n      sub\n      sub\n      dup2\n      mstore\n      swap1\n      0x40\n      mstore\n        /* \"conditionalWhileFor.sol\":257:283  keccak256(abi.encode('x')) */\n      dup1\n      mload\n      swap1\n      0x20\n      add\n      keccak256\n        /* \"conditionalWhileFor.sol\":257:316  keccak256(abi.encode('x'))==keccak256(abi.encode(_entrada)) */\n      sub\n        /* \"conditionalWhileFor.sol\":254:398  if(keccak256(abi.encode('x'))==keccak256(abi.encode(_entrada))){... */\n      tag_38\n      jumpi\n        /* \"conditionalWhileFor.sol\":339:343  true */\n      0x01\n        /* \"conditionalWhileFor.sol\":332:343  return true */\n      swap1\n      pop\n      jump(tag_33)\n        /* \"conditionalWhileFor.sol\":254:398  if(keccak256(abi.encode('x'))==keccak256(abi.encode(_entrada))){... */\n    tag_38:\n        /* \"conditionalWhileFor.sol\":381:386  false */\n      0x00\n        /* \"conditionalWhileFor.sol\":374:386  return false */\n      swap1\n      pop\n        /* \"conditionalWhileFor.sol\":179:405  function testX(string memory _entrada) public pure returns(bool){... */\n    tag_33:\n      swap2\n      swap1\n      pop\n      jump\t// out\n        /* \"conditionalWhileFor.sol\":413:636  function testY(string memory _entrada) public pure returns(bool){... */\n    tag_19:\n        /* \"conditionalWhileFor.sol\":472:476  bool */\n      0x00\n        /* \"conditionalWhileFor.sol\":488:499  bool answer */\n      dup1\n        /* \"conditionalWhileFor.sol\":555:570  abi.encode('y') */\n      add(0x20, mload(0x40))\n      tag_41\n      swap1\n      tag_42\n      jump\t// in\n    tag_41:\n      mload(0x40)\n      0x20\n      dup2\n      dup4\n      sub\n      sub\n      dup2\n      mstore\n      swap1\n      0x40\n      mstore\n        /* \"conditionalWhileFor.sol\":545:571  keccak256(abi.encode('y')) */\n      dup1\n      mload\n      swap1\n      0x20\n      add\n      keccak256\n        /* \"conditionalWhileFor.sol\":531:539  _entrada */\n      dup4\n        /* \"conditionalWhileFor.sol\":520:540  abi.encode(_entrada) */\n      add(0x20, mload(0x40))\n      tag_43\n      swap2\n      swap1\n      tag_35\n      jump\t// in\n    tag_43:\n      mload(0x40)\n      0x20\n      dup2\n      dup4\n      sub\n      sub\n      dup2\n      mstore\n      swap1\n      0x40\n      mstore\n        /* \"conditionalWhileFor.sol\":510:541  keccak256(abi.encode(_entrada)) */\n      dup1\n      mload\n      swap1\n      0x20\n      add\n      keccak256\n        /* \"conditionalWhileFor.sol\":510:571  keccak256(abi.encode(_entrada)) == keccak256(abi.encode('y')) */\n      eq\n        /* \"conditionalWhileFor.sol\":510:604  keccak256(abi.encode(_entrada)) == keccak256(abi.encode('y')) ? answer = true : answer = false */\n      tag_44\n      jumpi\n        /* \"conditionalWhileFor.sol\":599:604  false */\n      0x00\n        /* \"conditionalWhileFor.sol\":590:604  answer = false */\n      swap1\n      pop\n      dup1\n        /* \"conditionalWhileFor.sol\":510:604  keccak256(abi.encode(_entrada)) == keccak256(abi.encode('y')) ? answer = true : answer = false */\n      jump(tag_45)\n    tag_44:\n        /* \"conditionalWhileFor.sol\":583:587  true */\n      0x01\n        /* \"conditionalWhileFor.sol\":574:587  answer = true */\n      swap1\n      pop\n      dup1\n        /* \"conditionalWhileFor.sol\":510:604  keccak256(abi.encode(_entrada)) == keccak256(abi.encode('y')) ? answer = true : answer = false */\n    tag_45:\n      pop\n        /* \"conditionalWhileFor.sol\":622:628  answer */\n      dup1\n        /* \"conditionalWhileFor.sol\":615:628  return answer */\n      swap2\n      pop\n      pop\n        /* \"conditionalWhileFor.sol\":413:636  function testY(string memory _entrada) public pure returns(bool){... */\n      swap2\n      swap1\n      pop\n      jump\t// out\n        /* \"conditionalWhileFor.sol\":664:870  function simpleWhile() public returns(uint8[] memory){... */\n    tag_22:\n        /* \"conditionalWhileFor.sol\":702:716  uint8[] memory */\n      0x60\n        /* \"conditionalWhileFor.sol\":728:740  uint8 numbah */\n      0x00\n        /* \"conditionalWhileFor.sol\":761:842  while(numbah<5){... */\n    tag_47:\n        /* \"conditionalWhileFor.sol\":774:775  5 */\n      0x05\n        /* \"conditionalWhileFor.sol\":767:773  numbah */\n      dup2\n        /* \"conditionalWhileFor.sol\":767:775  numbah<5 */\n      0xff\n      and\n      lt\n        /* \"conditionalWhileFor.sol\":761:842  while(numbah<5){... */\n      iszero\n      tag_48\n      jumpi\n        /* \"conditionalWhileFor.sol\":791:794  ray */\n      0x00\n        /* \"conditionalWhileFor.sol\":800:806  numbah */\n      dup2\n        /* \"conditionalWhileFor.sol\":791:807  ray.push(numbah) */\n      swap1\n      dup1\n      0x01\n      dup2\n      sload\n      add\n      dup1\n      dup3\n      sstore\n      dup1\n      swap2\n      pop\n      pop\n      0x01\n      swap1\n      sub\n      swap1\n      0x00\n      mstore\n      keccak256(0x00, 0x20)\n      swap1\n      0x20\n      swap2\n      dup3\n      dup3\n      div\n      add\n      swap2\n      swap1\n      mod\n      swap1\n      swap2\n      swap1\n      swap2\n      swap1\n      swap2\n      0x0100\n      exp\n      dup2\n      sload\n      dup2\n      0xff\n      mul\n      not\n      and\n      swap1\n      dup4\n      0xff\n      and\n      mul\n      or\n      swap1\n      sstore\n      pop\n        /* \"conditionalWhileFor.sol\":822:830  ++numbah */\n      dup1\n      tag_50\n      swap1\n      tag_30\n      jump\t// in\n    tag_50:\n      swap1\n      pop\n        /* \"conditionalWhileFor.sol\":761:842  while(numbah<5){... */\n      jump(tag_47)\n    tag_48:\n        /* \"conditionalWhileFor.sol\":859:862  ray */\n      0x00\n        /* \"conditionalWhileFor.sol\":852:862  return ray */\n      dup1\n      sload\n      dup1\n      0x20\n      mul\n      0x20\n      add\n      mload(0x40)\n      swap1\n      dup2\n      add\n      0x40\n      mstore\n      dup1\n      swap3\n      swap2\n      swap1\n      dup2\n      dup2\n      mstore\n      0x20\n      add\n      dup3\n      dup1\n      sload\n      dup1\n      iszero\n      tag_51\n      jumpi\n      0x20\n      mul\n      dup3\n      add\n      swap2\n      swap1\n      0x00\n      mstore\n      keccak256(0x00, 0x20)\n      swap1\n      0x00\n      swap1\n    tag_52:\n      dup3\n      dup3\n      swap1\n      sload\n      swap1\n      0x0100\n      exp\n      swap1\n      div\n      0xff\n      and\n      0xff\n      and\n      dup2\n      mstore\n      0x20\n      add\n      swap1\n      0x01\n      add\n      swap1\n      0x20\n      dup3\n      0x00\n      add\n      div\n      swap3\n      dup4\n      add\n      swap3\n      0x01\n      sub\n      dup3\n      mul\n      swap2\n      pop\n      dup1\n      dup5\n      gt\n      tag_52\n      jumpi\n      swap1\n      pop\n    tag_51:\n      pop\n      pop\n      pop\n      pop\n      pop\n      swap2\n      pop\n      pop\n        /* \"conditionalWhileFor.sol\":664:870  function simpleWhile() public returns(uint8[] memory){... */\n      swap1\n      jump\t// out\n        /* \"#utility.yul\":7:119   */\n    tag_53:\n        /* \"#utility.yul\":72:78   */\n      0x00\n        /* \"#utility.yul\":106:111   */\n      dup2\n        /* \"#utility.yul\":100:112   */\n      mload\n        /* \"#utility.yul\":90:112   */\n      swap1\n      pop\n        /* \"#utility.yul\":7:119   */\n      swap2\n      swap1\n      pop\n      jump\t// out\n        /* \"#utility.yul\":125:307   */\n    tag_54:\n        /* \"#utility.yul\":222:233   */\n      0x00\n        /* \"#utility.yul\":256:262   */\n      dup3\n        /* \"#utility.yul\":251:254   */\n      dup3\n        /* \"#utility.yul\":244:263   */\n      mstore\n        /* \"#utility.yul\":296:300   */\n      0x20\n        /* \"#utility.yul\":291:294   */\n      dup3\n        /* \"#utility.yul\":287:301   */\n      add\n        /* \"#utility.yul\":272:301   */\n      swap1\n      pop\n        /* \"#utility.yul\":125:307   */\n      swap3\n      swap2\n      pop\n      pop\n      jump\t// out\n        /* \"#utility.yul\":313:443   */\n    tag_55:\n        /* \"#utility.yul\":378:382   */\n      0x00\n        /* \"#utility.yul\":401:404   */\n      dup2\n        /* \"#utility.yul\":393:404   */\n      swap1\n      pop\n        /* \"#utility.yul\":431:435   */\n      0x20\n        /* \"#utility.yul\":426:429   */\n      dup3\n        /* \"#utility.yul\":422:436   */\n      add\n        /* \"#utility.yul\":414:436   */\n      swap1\n      pop\n        /* \"#utility.yul\":313:443   */\n      swap2\n      swap1\n      pop\n      jump\t// out\n        /* \"#utility.yul\":449:535   */\n    tag_56:\n        /* \"#utility.yul\":484:491   */\n      0x00\n        /* \"#utility.yul\":524:528   */\n      0xff\n        /* \"#utility.yul\":517:522   */\n      dup3\n        /* \"#utility.yul\":513:529   */\n      and\n        /* \"#utility.yul\":502:529   */\n      swap1\n      pop\n        /* \"#utility.yul\":449:535   */\n      swap2\n      swap1\n      pop\n      jump\t// out\n        /* \"#utility.yul\":541:643   */\n    tag_57:\n        /* \"#utility.yul\":614:636   */\n      tag_91\n        /* \"#utility.yul\":630:635   */\n      dup2\n        /* \"#utility.yul\":614:636   */\n      tag_56\n      jump\t// in\n    tag_91:\n        /* \"#utility.yul\":609:612   */\n      dup3\n        /* \"#utility.yul\":602:637   */\n      mstore\n        /* \"#utility.yul\":541:643   */\n      pop\n      pop\n      jump\t// out\n        /* \"#utility.yul\":649:820   */\n    tag_58:\n        /* \"#utility.yul\":714:724   */\n      0x00\n        /* \"#utility.yul\":735:777   */\n      tag_93\n        /* \"#utility.yul\":773:776   */\n      dup4\n        /* \"#utility.yul\":765:771   */\n      dup4\n        /* \"#utility.yul\":735:777   */\n      tag_57\n      jump\t// in\n    tag_93:\n        /* \"#utility.yul\":809:813   */\n      0x20\n        /* \"#utility.yul\":804:807   */\n      dup4\n        /* \"#utility.yul\":800:814   */\n      add\n        /* \"#utility.yul\":786:814   */\n      swap1\n      pop\n        /* \"#utility.yul\":649:820   */\n      swap3\n      swap2\n      pop\n      pop\n      jump\t// out\n        /* \"#utility.yul\":826:937   */\n    tag_59:\n        /* \"#utility.yul\":894:898   */\n      0x00\n        /* \"#utility.yul\":926:930   */\n      0x20\n        /* \"#utility.yul\":921:924   */\n      dup3\n        /* \"#utility.yul\":917:931   */\n      add\n        /* \"#utility.yul\":909:931   */\n      swap1\n      pop\n        /* \"#utility.yul\":826:937   */\n      swap2\n      swap1\n      pop\n      jump\t// out\n        /* \"#utility.yul\":969:1685   */\n    tag_60:\n        /* \"#utility.yul\":1084:1087   */\n      0x00\n        /* \"#utility.yul\":1113:1165   */\n      tag_96\n        /* \"#utility.yul\":1159:1164   */\n      dup3\n        /* \"#utility.yul\":1113:1165   */\n      tag_53\n      jump\t// in\n    tag_96:\n        /* \"#utility.yul\":1181:1265   */\n      tag_97\n        /* \"#utility.yul\":1258:1264   */\n      dup2\n        /* \"#utility.yul\":1253:1256   */\n      dup6\n        /* \"#utility.yul\":1181:1265   */\n      tag_54\n      jump\t// in\n    tag_97:\n        /* \"#utility.yul\":1174:1265   */\n      swap4\n      pop\n        /* \"#utility.yul\":1289:1343   */\n      tag_98\n        /* \"#utility.yul\":1337:1342   */\n      dup4\n        /* \"#utility.yul\":1289:1343   */\n      tag_55\n      jump\t// in\n    tag_98:\n        /* \"#utility.yul\":1366:1373   */\n      dup1\n        /* \"#utility.yul\":1397:1398   */\n      0x00\n        /* \"#utility.yul\":1382:1660   */\n    tag_99:\n        /* \"#utility.yul\":1407:1413   */\n      dup4\n        /* \"#utility.yul\":1404:1405   */\n      dup2\n        /* \"#utility.yul\":1401:1414   */\n      lt\n        /* \"#utility.yul\":1382:1660   */\n      iszero\n      tag_101\n      jumpi\n        /* \"#utility.yul\":1483:1489   */\n      dup2\n        /* \"#utility.yul\":1477:1490   */\n      mload\n        /* \"#utility.yul\":1510:1569   */\n      tag_102\n        /* \"#utility.yul\":1565:1568   */\n      dup9\n        /* \"#utility.yul\":1550:1563   */\n      dup3\n        /* \"#utility.yul\":1510:1569   */\n      tag_58\n      jump\t// in\n    tag_102:\n        /* \"#utility.yul\":1503:1569   */\n      swap8\n      pop\n        /* \"#utility.yul\":1592:1650   */\n      tag_103\n        /* \"#utility.yul\":1643:1649   */\n      dup4\n        /* \"#utility.yul\":1592:1650   */\n      tag_59\n      jump\t// in\n    tag_103:\n        /* \"#utility.yul\":1582:1650   */\n      swap3\n      pop\n        /* \"#utility.yul\":1442:1660   */\n      pop\n        /* \"#utility.yul\":1429:1430   */\n      0x01\n        /* \"#utility.yul\":1426:1427   */\n      dup2\n        /* \"#utility.yul\":1422:1431   */\n      add\n        /* \"#utility.yul\":1417:1431   */\n      swap1\n      pop\n        /* \"#utility.yul\":1382:1660   */\n      jump(tag_99)\n    tag_101:\n        /* \"#utility.yul\":1386:1400   */\n      pop\n        /* \"#utility.yul\":1676:1679   */\n      dup6\n        /* \"#utility.yul\":1669:1679   */\n      swap4\n      pop\n        /* \"#utility.yul\":1089:1685   */\n      pop\n      pop\n      pop\n        /* \"#utility.yul\":969:1685   */\n      swap3\n      swap2\n      pop\n      pop\n      jump\t// out\n        /* \"#utility.yul\":1691:2056   */\n    tag_10:\n        /* \"#utility.yul\":1830:1834   */\n      0x00\n        /* \"#utility.yul\":1868:1870   */\n      0x20\n        /* \"#utility.yul\":1857:1866   */\n      dup3\n        /* \"#utility.yul\":1853:1871   */\n      add\n        /* \"#utility.yul\":1845:1871   */\n      swap1\n      pop\n        /* \"#utility.yul\":1917:1926   */\n      dup2\n        /* \"#utility.yul\":1911:1915   */\n      dup2\n        /* \"#utility.yul\":1907:1927   */\n      sub\n        /* \"#utility.yul\":1903:1904   */\n      0x00\n        /* \"#utility.yul\":1892:1901   */\n      dup4\n        /* \"#utility.yul\":1888:1905   */\n      add\n        /* \"#utility.yul\":1881:1928   */\n      mstore\n        /* \"#utility.yul\":1945:2049   */\n      tag_105\n        /* \"#utility.yul\":2044:2048   */\n      dup2\n        /* \"#utility.yul\":2035:2041   */\n      dup5\n        /* \"#utility.yul\":1945:2049   */\n      tag_60\n      jump\t// in\n    tag_105:\n        /* \"#utility.yul\":1937:2049   */\n      swap1\n      pop\n        /* \"#utility.yul\":1691:2056   */\n      swap3\n      swap2\n      pop\n      pop\n      jump\t// out\n        /* \"#utility.yul\":2062:2137   */\n    tag_61:\n        /* \"#utility.yul\":2095:2101   */\n      0x00\n        /* \"#utility.yul\":2128:2130   */\n      0x40\n        /* \"#utility.yul\":2122:2131   */\n      mload\n        /* \"#utility.yul\":2112:2131   */\n      swap1\n      pop\n        /* \"#utility.yul\":2062:2137   */\n      swap1\n      jump\t// out\n        /* \"#utility.yul\":2143:2260   */\n    tag_62:\n        /* \"#utility.yul\":2252:2253   */\n      0x00\n        /* \"#utility.yul\":2249:2250   */\n      dup1\n        /* \"#utility.yul\":2242:2254   */\n      revert\n        /* \"#utility.yul\":2266:2383   */\n    tag_63:\n        /* \"#utility.yul\":2375:2376   */\n      0x00\n        /* \"#utility.yul\":2372:2373   */\n      dup1\n        /* \"#utility.yul\":2365:2377   */\n      revert\n        /* \"#utility.yul\":2389:2506   */\n    tag_64:\n        /* \"#utility.yul\":2498:2499   */\n      0x00\n        /* \"#utility.yul\":2495:2496   */\n      dup1\n        /* \"#utility.yul\":2488:2500   */\n      revert\n        /* \"#utility.yul\":2512:2629   */\n    tag_65:\n        /* \"#utility.yul\":2621:2622   */\n      0x00\n        /* \"#utility.yul\":2618:2619   */\n      dup1\n        /* \"#utility.yul\":2611:2623   */\n      revert\n        /* \"#utility.yul\":2635:2737   */\n    tag_66:\n        /* \"#utility.yul\":2676:2682   */\n      0x00\n        /* \"#utility.yul\":2727:2729   */\n      0x1f\n        /* \"#utility.yul\":2723:2730   */\n      not\n        /* \"#utility.yul\":2718:2720   */\n      0x1f\n        /* \"#utility.yul\":2711:2716   */\n      dup4\n        /* \"#utility.yul\":2707:2721   */\n      add\n        /* \"#utility.yul\":2703:2731   */\n      and\n        /* \"#utility.yul\":2693:2731   */\n      swap1\n      pop\n        /* \"#utility.yul\":2635:2737   */\n      swap2\n      swap1\n      pop\n      jump\t// out\n        /* \"#utility.yul\":2743:2923   */\n    tag_67:\n        /* \"#utility.yul\":2791:2868   */\n      0x4e487b7100000000000000000000000000000000000000000000000000000000\n        /* \"#utility.yul\":2788:2789   */\n      0x00\n        /* \"#utility.yul\":2781:2869   */\n      mstore\n        /* \"#utility.yul\":2888:2892   */\n      0x41\n        /* \"#utility.yul\":2885:2886   */\n      0x04\n        /* \"#utility.yul\":2878:2893   */\n      mstore\n        /* \"#utility.yul\":2912:2916   */\n      0x24\n        /* \"#utility.yul\":2909:2910   */\n      0x00\n        /* \"#utility.yul\":2902:2917   */\n      revert\n        /* \"#utility.yul\":2929:3210   */\n    tag_68:\n        /* \"#utility.yul\":3012:3039   */\n      tag_114\n        /* \"#utility.yul\":3034:3038   */\n      dup3\n        /* \"#utility.yul\":3012:3039   */\n      tag_66\n      jump\t// in\n    tag_114:\n        /* \"#utility.yul\":3004:3010   */\n      dup2\n        /* \"#utility.yul\":3000:3040   */\n      add\n        /* \"#utility.yul\":3142:3148   */\n      dup2\n        /* \"#utility.yul\":3130:3140   */\n      dup2\n        /* \"#utility.yul\":3127:3149   */\n      lt\n        /* \"#utility.yul\":3106:3124   */\n      0xffffffffffffffff\n        /* \"#utility.yul\":3094:3104   */\n      dup3\n        /* \"#utility.yul\":3091:3125   */\n      gt\n        /* \"#utility.yul\":3088:3150   */\n      or\n        /* \"#utility.yul\":3085:3173   */\n      iszero\n      tag_115\n      jumpi\n        /* \"#utility.yul\":3153:3171   */\n      tag_116\n      tag_67\n      jump\t// in\n    tag_116:\n        /* \"#utility.yul\":3085:3173   */\n    tag_115:\n        /* \"#utility.yul\":3193:3203   */\n      dup1\n        /* \"#utility.yul\":3189:3191   */\n      0x40\n        /* \"#utility.yul\":3182:3204   */\n      mstore\n        /* \"#utility.yul\":2972:3210   */\n      pop\n        /* \"#utility.yul\":2929:3210   */\n      pop\n      pop\n      jump\t// out\n        /* \"#utility.yul\":3216:3345   */\n    tag_69:\n        /* \"#utility.yul\":3250:3256   */\n      0x00\n        /* \"#utility.yul\":3277:3297   */\n      tag_118\n      tag_61\n      jump\t// in\n    tag_118:\n        /* \"#utility.yul\":3267:3297   */\n      swap1\n      pop\n        /* \"#utility.yul\":3306:3339   */\n      tag_119\n        /* \"#utility.yul\":3334:3338   */\n      dup3\n        /* \"#utility.yul\":3326:3332   */\n      dup3\n        /* \"#utility.yul\":3306:3339   */\n      tag_68\n      jump\t// in\n    tag_119:\n        /* \"#utility.yul\":3216:3345   */\n      swap2\n      swap1\n      pop\n      jump\t// out\n        /* \"#utility.yul\":3351:3659   */\n    tag_70:\n        /* \"#utility.yul\":3413:3417   */\n      0x00\n        /* \"#utility.yul\":3503:3521   */\n      0xffffffffffffffff\n        /* \"#utility.yul\":3495:3501   */\n      dup3\n        /* \"#utility.yul\":3492:3522   */\n      gt\n        /* \"#utility.yul\":3489:3545   */\n      iszero\n      tag_121\n      jumpi\n        /* \"#utility.yul\":3525:3543   */\n      tag_122\n      tag_67\n      jump\t// in\n    tag_122:\n        /* \"#utility.yul\":3489:3545   */\n    tag_121:\n        /* \"#utility.yul\":3563:3592   */\n      tag_123\n        /* \"#utility.yul\":3585:3591   */\n      dup3\n        /* \"#utility.yul\":3563:3592   */\n      tag_66\n      jump\t// in\n    tag_123:\n        /* \"#utility.yul\":3555:3592   */\n      swap1\n      pop\n        /* \"#utility.yul\":3647:3651   */\n      0x20\n        /* \"#utility.yul\":3641:3645   */\n      dup2\n        /* \"#utility.yul\":3637:3652   */\n      add\n        /* \"#utility.yul\":3629:3652   */\n      swap1\n      pop\n        /* \"#utility.yul\":3351:3659   */\n      swap2\n      swap1\n      pop\n      jump\t// out\n        /* \"#utility.yul\":3665:3811   */\n    tag_71:\n        /* \"#utility.yul\":3762:3768   */\n      dup3\n        /* \"#utility.yul\":3757:3760   */\n      dup2\n        /* \"#utility.yul\":3752:3755   */\n      dup4\n        /* \"#utility.yul\":3739:3769   */\n      calldatacopy\n        /* \"#utility.yul\":3803:3804   */\n      0x00\n        /* \"#utility.yul\":3794:3800   */\n      dup4\n        /* \"#utility.yul\":3789:3792   */\n      dup4\n        /* \"#utility.yul\":3785:3801   */\n      add\n        /* \"#utility.yul\":3778:3805   */\n      mstore\n        /* \"#utility.yul\":3665:3811   */\n      pop\n      pop\n      pop\n      jump\t// out\n        /* \"#utility.yul\":3817:4242   */\n    tag_72:\n        /* \"#utility.yul\":3895:3900   */\n      0x00\n        /* \"#utility.yul\":3920:3986   */\n      tag_126\n        /* \"#utility.yul\":3936:3985   */\n      tag_127\n        /* \"#utility.yul\":3978:3984   */\n      dup5\n        /* \"#utility.yul\":3936:3985   */\n      tag_70\n      jump\t// in\n    tag_127:\n        /* \"#utility.yul\":3920:3986   */\n      tag_69\n      jump\t// in\n    tag_126:\n        /* \"#utility.yul\":3911:3986   */\n      swap1\n      pop\n        /* \"#utility.yul\":4009:4015   */\n      dup3\n        /* \"#utility.yul\":4002:4007   */\n      dup2\n        /* \"#utility.yul\":3995:4016   */\n      mstore\n        /* \"#utility.yul\":4047:4051   */\n      0x20\n        /* \"#utility.yul\":4040:4045   */\n      dup2\n        /* \"#utility.yul\":4036:4052   */\n      add\n        /* \"#utility.yul\":4085:4088   */\n      dup5\n        /* \"#utility.yul\":4076:4082   */\n      dup5\n        /* \"#utility.yul\":4071:4074   */\n      dup5\n        /* \"#utility.yul\":4067:4083   */\n      add\n        /* \"#utility.yul\":4064:4089   */\n      gt\n        /* \"#utility.yul\":4061:4173   */\n      iszero\n      tag_128\n      jumpi\n        /* \"#utility.yul\":4092:4171   */\n      tag_129\n      tag_65\n      jump\t// in\n    tag_129:\n        /* \"#utility.yul\":4061:4173   */\n    tag_128:\n        /* \"#utility.yul\":4182:4236   */\n      tag_130\n        /* \"#utility.yul\":4229:4235   */\n      dup5\n        /* \"#utility.yul\":4224:4227   */\n      dup3\n        /* \"#utility.yul\":4219:4222   */\n      dup6\n        /* \"#utility.yul\":4182:4236   */\n      tag_71\n      jump\t// in\n    tag_130:\n        /* \"#utility.yul\":3901:4242   */\n      pop\n        /* \"#utility.yul\":3817:4242   */\n      swap4\n      swap3\n      pop\n      pop\n      pop\n      jump\t// out\n        /* \"#utility.yul\":4262:4602   */\n    tag_73:\n        /* \"#utility.yul\":4318:4323   */\n      0x00\n        /* \"#utility.yul\":4367:4370   */\n      dup3\n        /* \"#utility.yul\":4360:4364   */\n      0x1f\n        /* \"#utility.yul\":4352:4358   */\n      dup4\n        /* \"#utility.yul\":4348:4365   */\n      add\n        /* \"#utility.yul\":4344:4371   */\n      slt\n        /* \"#utility.yul\":4334:4456   */\n      tag_132\n      jumpi\n        /* \"#utility.yul\":4375:4454   */\n      tag_133\n      tag_64\n      jump\t// in\n    tag_133:\n        /* \"#utility.yul\":4334:4456   */\n    tag_132:\n        /* \"#utility.yul\":4492:4498   */\n      dup2\n        /* \"#utility.yul\":4479:4499   */\n      calldataload\n        /* \"#utility.yul\":4517:4596   */\n      tag_134\n        /* \"#utility.yul\":4592:4595   */\n      dup5\n        /* \"#utility.yul\":4584:4590   */\n      dup3\n        /* \"#utility.yul\":4577:4581   */\n      0x20\n        /* \"#utility.yul\":4569:4575   */\n      dup7\n        /* \"#utility.yul\":4565:4582   */\n      add\n        /* \"#utility.yul\":4517:4596   */\n      tag_72\n      jump\t// in\n    tag_134:\n        /* \"#utility.yul\":4508:4596   */\n      swap2\n      pop\n        /* \"#utility.yul\":4324:4602   */\n      pop\n        /* \"#utility.yul\":4262:4602   */\n      swap3\n      swap2\n      pop\n      pop\n      jump\t// out\n        /* \"#utility.yul\":4608:5117   */\n    tag_13:\n        /* \"#utility.yul\":4677:4683   */\n      0x00\n        /* \"#utility.yul\":4726:4728   */\n      0x20\n        /* \"#utility.yul\":4714:4723   */\n      dup3\n        /* \"#utility.yul\":4705:4712   */\n      dup5\n        /* \"#utility.yul\":4701:4724   */\n      sub\n        /* \"#utility.yul\":4697:4729   */\n      slt\n        /* \"#utility.yul\":4694:4813   */\n      iszero\n      tag_136\n      jumpi\n        /* \"#utility.yul\":4732:4811   */\n      tag_137\n      tag_62\n      jump\t// in\n    tag_137:\n        /* \"#utility.yul\":4694:4813   */\n    tag_136:\n        /* \"#utility.yul\":4880:4881   */\n      0x00\n        /* \"#utility.yul\":4869:4878   */\n      dup3\n        /* \"#utility.yul\":4865:4882   */\n      add\n        /* \"#utility.yul\":4852:4883   */\n      calldataload\n        /* \"#utility.yul\":4910:4928   */\n      0xffffffffffffffff\n        /* \"#utility.yul\":4902:4908   */\n      dup2\n        /* \"#utility.yul\":4899:4929   */\n      gt\n        /* \"#utility.yul\":4896:5013   */\n      iszero\n      tag_138\n      jumpi\n        /* \"#utility.yul\":4932:5011   */\n      tag_139\n      tag_63\n      jump\t// in\n    tag_139:\n        /* \"#utility.yul\":4896:5013   */\n    tag_138:\n        /* \"#utility.yul\":5037:5100   */\n      tag_140\n        /* \"#utility.yul\":5092:5099   */\n      dup5\n        /* \"#utility.yul\":5083:5089   */\n      dup3\n        /* \"#utility.yul\":5072:5081   */\n      dup6\n        /* \"#utility.yul\":5068:5090   */\n      add\n        /* \"#utility.yul\":5037:5100   */\n      tag_73\n      jump\t// in\n    tag_140:\n        /* \"#utility.yul\":5027:5100   */\n      swap2\n      pop\n        /* \"#utility.yul\":4823:5110   */\n      pop\n        /* \"#utility.yul\":4608:5117   */\n      swap3\n      swap2\n      pop\n      pop\n      jump\t// out\n        /* \"#utility.yul\":5123:5213   */\n    tag_74:\n        /* \"#utility.yul\":5157:5164   */\n      0x00\n        /* \"#utility.yul\":5200:5205   */\n      dup2\n        /* \"#utility.yul\":5193:5206   */\n      iszero\n        /* \"#utility.yul\":5186:5207   */\n      iszero\n        /* \"#utility.yul\":5175:5207   */\n      swap1\n      pop\n        /* \"#utility.yul\":5123:5213   */\n      swap2\n      swap1\n      pop\n      jump\t// out\n        /* \"#utility.yul\":5219:5328   */\n    tag_75:\n        /* \"#utility.yul\":5300:5321   */\n      tag_143\n        /* \"#utility.yul\":5315:5320   */\n      dup2\n        /* \"#utility.yul\":5300:5321   */\n      tag_74\n      jump\t// in\n    tag_143:\n        /* \"#utility.yul\":5295:5298   */\n      dup3\n        /* \"#utility.yul\":5288:5322   */\n      mstore\n        /* \"#utility.yul\":5219:5328   */\n      pop\n      pop\n      jump\t// out\n        /* \"#utility.yul\":5334:5544   */\n    tag_16:\n        /* \"#utility.yul\":5421:5425   */\n      0x00\n        /* \"#utility.yul\":5459:5461   */\n      0x20\n        /* \"#utility.yul\":5448:5457   */\n      dup3\n        /* \"#utility.yul\":5444:5462   */\n      add\n        /* \"#utility.yul\":5436:5462   */\n      swap1\n      pop\n        /* \"#utility.yul\":5472:5537   */\n      tag_145\n        /* \"#utility.yul\":5534:5535   */\n      0x00\n        /* \"#utility.yul\":5523:5532   */\n      dup4\n        /* \"#utility.yul\":5519:5536   */\n      add\n        /* \"#utility.yul\":5510:5516   */\n      dup5\n        /* \"#utility.yul\":5472:5537   */\n      tag_75\n      jump\t// in\n    tag_145:\n        /* \"#utility.yul\":5334:5544   */\n      swap3\n      swap2\n      pop\n      pop\n      jump\t// out\n        /* \"#utility.yul\":5550:5730   */\n    tag_76:\n        /* \"#utility.yul\":5598:5675   */\n      0x4e487b7100000000000000000000000000000000000000000000000000000000\n        /* \"#utility.yul\":5595:5596   */\n      0x00\n        /* \"#utility.yul\":5588:5676   */\n      mstore\n        /* \"#utility.yul\":5695:5699   */\n      0x11\n        /* \"#utility.yul\":5692:5693   */\n      0x04\n        /* \"#utility.yul\":5685:5700   */\n      mstore\n        /* \"#utility.yul\":5719:5723   */\n      0x24\n        /* \"#utility.yul\":5716:5717   */\n      0x00\n        /* \"#utility.yul\":5709:5724   */\n      revert\n        /* \"#utility.yul\":5736:5903   */\n    tag_30:\n        /* \"#utility.yul\":5773:5776   */\n      0x00\n        /* \"#utility.yul\":5796:5818   */\n      tag_148\n        /* \"#utility.yul\":5812:5817   */\n      dup3\n        /* \"#utility.yul\":5796:5818   */\n      tag_56\n      jump\t// in\n    tag_148:\n        /* \"#utility.yul\":5787:5818   */\n      swap2\n      pop\n        /* \"#utility.yul\":5840:5844   */\n      0xff\n        /* \"#utility.yul\":5833:5838   */\n      dup3\n        /* \"#utility.yul\":5830:5845   */\n      sub\n        /* \"#utility.yul\":5827:5868   */\n      tag_149\n      jumpi\n        /* \"#utility.yul\":5848:5866   */\n      tag_150\n      tag_76\n      jump\t// in\n    tag_150:\n        /* \"#utility.yul\":5827:5868   */\n    tag_149:\n        /* \"#utility.yul\":5895:5896   */\n      0x01\n        /* \"#utility.yul\":5888:5893   */\n      dup3\n        /* \"#utility.yul\":5884:5897   */\n      add\n        /* \"#utility.yul\":5877:5897   */\n      swap1\n      pop\n        /* \"#utility.yul\":5736:5903   */\n      swap2\n      swap1\n      pop\n      jump\t// out\n        /* \"#utility.yul\":5909:6008   */\n    tag_77:\n        /* \"#utility.yul\":5961:5967   */\n      0x00\n        /* \"#utility.yul\":5995:6000   */\n      dup2\n        /* \"#utility.yul\":5989:6001   */\n      mload\n        /* \"#utility.yul\":5979:6001   */\n      swap1\n      pop\n        /* \"#utility.yul\":5909:6008   */\n      swap2\n      swap1\n      pop\n      jump\t// out\n        /* \"#utility.yul\":6014:6183   */\n    tag_78:\n        /* \"#utility.yul\":6098:6109   */\n      0x00\n        /* \"#utility.yul\":6132:6138   */\n      dup3\n        /* \"#utility.yul\":6127:6130   */\n      dup3\n        /* \"#utility.yul\":6120:6139   */\n      mstore\n        /* \"#utility.yul\":6172:6176   */\n      0x20\n        /* \"#utility.yul\":6167:6170   */\n      dup3\n        /* \"#utility.yul\":6163:6177   */\n      add\n        /* \"#utility.yul\":6148:6177   */\n      swap1\n      pop\n        /* \"#utility.yul\":6014:6183   */\n      swap3\n      swap2\n      pop\n      pop\n      jump\t// out\n        /* \"#utility.yul\":6189:6435   */\n    tag_79:\n        /* \"#utility.yul\":6270:6271   */\n      0x00\n        /* \"#utility.yul\":6280:6393   */\n    tag_154:\n        /* \"#utility.yul\":6294:6300   */\n      dup4\n        /* \"#utility.yul\":6291:6292   */\n      dup2\n        /* \"#utility.yul\":6288:6301   */\n      lt\n        /* \"#utility.yul\":6280:6393   */\n      iszero\n      tag_156\n      jumpi\n        /* \"#utility.yul\":6379:6380   */\n      dup1\n        /* \"#utility.yul\":6374:6377   */\n      dup3\n        /* \"#utility.yul\":6370:6381   */\n      add\n        /* \"#utility.yul\":6364:6382   */\n      mload\n        /* \"#utility.yul\":6360:6361   */\n      dup2\n        /* \"#utility.yul\":6355:6358   */\n      dup5\n        /* \"#utility.yul\":6351:6362   */\n      add\n        /* \"#utility.yul\":6344:6383   */\n      mstore\n        /* \"#utility.yul\":6316:6318   */\n      0x20\n        /* \"#utility.yul\":6313:6314   */\n      dup2\n        /* \"#utility.yul\":6309:6319   */\n      add\n        /* \"#utility.yul\":6304:6319   */\n      swap1\n      pop\n        /* \"#utility.yul\":6280:6393   */\n      jump(tag_154)\n    tag_156:\n        /* \"#utility.yul\":6427:6428   */\n      0x00\n        /* \"#utility.yul\":6418:6424   */\n      dup5\n        /* \"#utility.yul\":6413:6416   */\n      dup5\n        /* \"#utility.yul\":6409:6425   */\n      add\n        /* \"#utility.yul\":6402:6429   */\n      mstore\n        /* \"#utility.yul\":6251:6435   */\n      pop\n        /* \"#utility.yul\":6189:6435   */\n      pop\n      pop\n      pop\n      jump\t// out\n        /* \"#utility.yul\":6441:6818   */\n    tag_80:\n        /* \"#utility.yul\":6529:6532   */\n      0x00\n        /* \"#utility.yul\":6557:6596   */\n      tag_158\n        /* \"#utility.yul\":6590:6595   */\n      dup3\n        /* \"#utility.yul\":6557:6596   */\n      tag_77\n      jump\t// in\n    tag_158:\n        /* \"#utility.yul\":6612:6683   */\n      tag_159\n        /* \"#utility.yul\":6676:6682   */\n      dup2\n        /* \"#utility.yul\":6671:6674   */\n      dup6\n        /* \"#utility.yul\":6612:6683   */\n      tag_78\n      jump\t// in\n    tag_159:\n        /* \"#utility.yul\":6605:6683   */\n      swap4\n      pop\n        /* \"#utility.yul\":6692:6757   */\n      tag_160\n        /* \"#utility.yul\":6750:6756   */\n      dup2\n        /* \"#utility.yul\":6745:6748   */\n      dup6\n        /* \"#utility.yul\":6738:6742   */\n      0x20\n        /* \"#utility.yul\":6731:6736   */\n      dup7\n        /* \"#utility.yul\":6727:6743   */\n      add\n        /* \"#utility.yul\":6692:6757   */\n      tag_79\n      jump\t// in\n    tag_160:\n        /* \"#utility.yul\":6782:6811   */\n      tag_161\n        /* \"#utility.yul\":6804:6810   */\n      dup2\n        /* \"#utility.yul\":6782:6811   */\n      tag_66\n      jump\t// in\n    tag_161:\n        /* \"#utility.yul\":6777:6780   */\n      dup5\n        /* \"#utility.yul\":6773:6812   */\n      add\n        /* \"#utility.yul\":6766:6812   */\n      swap2\n      pop\n        /* \"#utility.yul\":6533:6818   */\n      pop\n        /* \"#utility.yul\":6441:6818   */\n      swap3\n      swap2\n      pop\n      pop\n      jump\t// out\n        /* \"#utility.yul\":6824:7137   */\n    tag_35:\n        /* \"#utility.yul\":6937:6941   */\n      0x00\n        /* \"#utility.yul\":6975:6977   */\n      0x20\n        /* \"#utility.yul\":6964:6973   */\n      dup3\n        /* \"#utility.yul\":6960:6978   */\n      add\n        /* \"#utility.yul\":6952:6978   */\n      swap1\n      pop\n        /* \"#utility.yul\":7024:7033   */\n      dup2\n        /* \"#utility.yul\":7018:7022   */\n      dup2\n        /* \"#utility.yul\":7014:7034   */\n      sub\n        /* \"#utility.yul\":7010:7011   */\n      0x00\n        /* \"#utility.yul\":6999:7008   */\n      dup4\n        /* \"#utility.yul\":6995:7012   */\n      add\n        /* \"#utility.yul\":6988:7035   */\n      mstore\n        /* \"#utility.yul\":7052:7130   */\n      tag_163\n        /* \"#utility.yul\":7125:7129   */\n      dup2\n        /* \"#utility.yul\":7116:7122   */\n      dup5\n        /* \"#utility.yul\":7052:7130   */\n      tag_80\n      jump\t// in\n    tag_163:\n        /* \"#utility.yul\":7044:7130   */\n      swap1\n      pop\n        /* \"#utility.yul\":6824:7137   */\n      swap3\n      swap2\n      pop\n      pop\n      jump\t// out\n        /* \"#utility.yul\":7143:7294   */\n    tag_81:\n        /* \"#utility.yul\":7283:7286   */\n      0x7800000000000000000000000000000000000000000000000000000000000000\n        /* \"#utility.yul\":7279:7280   */\n      0x00\n        /* \"#utility.yul\":7271:7277   */\n      dup3\n        /* \"#utility.yul\":7267:7281   */\n      add\n        /* \"#utility.yul\":7260:7287   */\n      mstore\n        /* \"#utility.yul\":7143:7294   */\n      pop\n      jump\t// out\n        /* \"#utility.yul\":7300:7665   */\n    tag_82:\n        /* \"#utility.yul\":7442:7445   */\n      0x00\n        /* \"#utility.yul\":7463:7529   */\n      tag_166\n        /* \"#utility.yul\":7527:7528   */\n      0x01\n        /* \"#utility.yul\":7522:7525   */\n      dup4\n        /* \"#utility.yul\":7463:7529   */\n      tag_78\n      jump\t// in\n    tag_166:\n        /* \"#utility.yul\":7456:7529   */\n      swap2\n      pop\n        /* \"#utility.yul\":7538:7631   */\n      tag_167\n        /* \"#utility.yul\":7627:7630   */\n      dup3\n        /* \"#utility.yul\":7538:7631   */\n      tag_81\n      jump\t// in\n    tag_167:\n        /* \"#utility.yul\":7656:7658   */\n      0x20\n        /* \"#utility.yul\":7651:7654   */\n      dup3\n        /* \"#utility.yul\":7647:7659   */\n      add\n        /* \"#utility.yul\":7640:7659   */\n      swap1\n      pop\n        /* \"#utility.yul\":7300:7665   */\n      swap2\n      swap1\n      pop\n      jump\t// out\n        /* \"#utility.yul\":7671:8090   */\n    tag_37:\n        /* \"#utility.yul\":7837:7841   */\n      0x00\n        /* \"#utility.yul\":7875:7877   */\n      0x20\n        /* \"#utility.yul\":7864:7873   */\n      dup3\n        /* \"#utility.yul\":7860:7878   */\n      add\n        /* \"#utility.yul\":7852:7878   */\n      swap1\n      pop\n        /* \"#utility.yul\":7924:7933   */\n      dup2\n        /* \"#utility.yul\":7918:7922   */\n      dup2\n        /* \"#utility.yul\":7914:7934   */\n      sub\n        /* \"#utility.yul\":7910:7911   */\n      0x00\n        /* \"#utility.yul\":7899:7908   */\n      dup4\n        /* \"#utility.yul\":7895:7912   */\n      add\n        /* \"#utility.yul\":7888:7935   */\n      mstore\n        /* \"#utility.yul\":7952:8083   */\n      tag_169\n        /* \"#utility.yul\":8078:8082   */\n      dup2\n        /* \"#utility.yul\":7952:8083   */\n      tag_82\n      jump\t// in\n    tag_169:\n        /* \"#utility.yul\":7944:8083   */\n      swap1\n      pop\n        /* \"#utility.yul\":7671:8090   */\n      swap2\n      swap1\n      pop\n      jump\t// out\n        /* \"#utility.yul\":8096:8247   */\n    tag_83:\n        /* \"#utility.yul\":8236:8239   */\n      0x7900000000000000000000000000000000000000000000000000000000000000\n        /* \"#utility.yul\":8232:8233   */\n      0x00\n        /* \"#utility.yul\":8224:8230   */\n      dup3\n        /* \"#utility.yul\":8220:8234   */\n      add\n        /* \"#utility.yul\":8213:8240   */\n      mstore\n        /* \"#utility.yul\":8096:8247   */\n      pop\n      jump\t// out\n        /* \"#utility.yul\":8253:8618   */\n    tag_84:\n        /* \"#utility.yul\":8395:8398   */\n      0x00\n        /* \"#utility.yul\":8416:8482   */\n      tag_172\n        /* \"#utility.yul\":8480:8481   */\n      0x01\n        /* \"#utility.yul\":8475:8478   */\n      dup4\n        /* \"#utility.yul\":8416:8482   */\n      tag_78\n      jump\t// in\n    tag_172:\n        /* \"#utility.yul\":8409:8482   */\n      swap2\n      pop\n        /* \"#utility.yul\":8491:8584   */\n      tag_173\n        /* \"#utility.yul\":8580:8583   */\n      dup3\n        /* \"#utility.yul\":8491:8584   */\n      tag_83\n      jump\t// in\n    tag_173:\n        /* \"#utility.yul\":8609:8611   */\n      0x20\n        /* \"#utility.yul\":8604:8607   */\n      dup3\n        /* \"#utility.yul\":8600:8612   */\n      add\n        /* \"#utility.yul\":8593:8612   */\n      swap1\n      pop\n        /* \"#utility.yul\":8253:8618   */\n      swap2\n      swap1\n      pop\n      jump\t// out\n        /* \"#utility.yul\":8624:9043   */\n    tag_42:\n        /* \"#utility.yul\":8790:8794   */\n      0x00\n        /* \"#utility.yul\":8828:8830   */\n      0x20\n        /* \"#utility.yul\":8817:8826   */\n      dup3\n        /* \"#utility.yul\":8813:8831   */\n      add\n        /* \"#utility.yul\":8805:8831   */\n      swap1\n      pop\n        /* \"#utility.yul\":8877:8886   */\n      dup2\n        /* \"#utility.yul\":8871:8875   */\n      dup2\n        /* \"#utility.yul\":8867:8887   */\n      sub\n        /* \"#utility.yul\":8863:8864   */\n      0x00\n        /* \"#utility.yul\":8852:8861   */\n      dup4\n        /* \"#utility.yul\":8848:8865   */\n      add\n        /* \"#utility.yul\":8841:8888   */\n      mstore\n        /* \"#utility.yul\":8905:9036   */\n      tag_175\n        /* \"#utility.yul\":9031:9035   */\n      dup2\n        /* \"#utility.yul\":8905:9036   */\n      tag_84\n      jump\t// in\n    tag_175:\n        /* \"#utility.yul\":8897:9036   */\n      swap1\n      pop\n        /* \"#utility.yul\":8624:9043   */\n      swap2\n      swap1\n      pop\n      jump\t// out\n\n    auxdata: 0xa2646970667358221220025f08d44116a42af8922be10e90f12c447ec12cffa89c7af5660569d4fe624d64736f6c63430008120033\n}\n",
				"bytecode": {
					"linkReferences": {},
					"object": "608060405234801561001057600080fd5b50610856806100206000396000f3fe608060405234801561001057600080fd5b506004361061004c5760003560e01c80633aba7a6a146100515780636f5a3c1c1461006f578063982386c71461009f578063e6c2894a146100cf575b600080fd5b6100596100ed565b6040516100669190610454565b60405180910390f35b610089600480360381019061008491906105d0565b6101d1565b6040516100969190610634565b60405180910390f35b6100b960048036038101906100b491906105d0565b610237565b6040516100c69190610634565b60405180910390f35b6100d76102a5565b6040516100e49190610454565b60405180910390f35b606060005b60058160ff1610156101545760008190806001815401808255809150506001900390600052602060002090602091828204019190069091909190916101000a81548160ff021916908360ff1602179055508061014d9061067e565b90506100f2565b60008054806020026020016040519081016040528092919081815260200182805480156101c657602002820191906000526020600020906000905b82829054906101000a900460ff1660ff168152602001906001019060208260000104928301926001038202915080841161018f5790505b505050505091505090565b6000816040516020016101e49190610726565b6040516020818303038152906040528051906020012060405160200161020990610794565b604051602081830303815290604052805190602001200361022d5760019050610232565b600090505b919050565b60008060405160200161024990610800565b60405160208183030381529060405280519060200120836040516020016102709190610726565b604051602081830303815290604052805190602001201461029557600090508061029b565b60019050805b5080915050919050565b606060005b60058160ff16101561030c5760008190806001815401808255809150506001900390600052602060002090602091828204019190069091909190916101000a81548160ff021916908360ff160217905550806103059061067e565b90506102aa565b600080548060200260200160405190810160405280929190818152602001828054801561037e57602002820191906000526020600020906000905b82829054906101000a900460ff1660ff16815260200190600101906020826000010492830192600103820291508084116103475790505b505050505091505090565b600081519050919050565b600082825260208201905092915050565b6000819050602082019050919050565b600060ff82169050919050565b6103cb816103b5565b82525050565b60006103dd83836103c2565b60208301905092915050565b6000602082019050919050565b600061040182610389565b61040b8185610394565b9350610416836103a5565b8060005b8381101561044757815161042e88826103d1565b9750610439836103e9565b92505060018101905061041a565b5085935050505092915050565b6000602082019050818103600083015261046e81846103f6565b905092915050565b6000604051905090565b600080fd5b600080fd5b600080fd5b600080fd5b6000601f19601f8301169050919050565b7f4e487b7100000000000000000000000000000000000000000000000000000000600052604160045260246000fd5b6104dd82610494565b810181811067ffffffffffffffff821117156104fc576104fb6104a5565b5b80604052505050565b600061050f610476565b905061051b82826104d4565b919050565b600067ffffffffffffffff82111561053b5761053a6104a5565b5b61054482610494565b9050602081019050919050565b82818337600083830152505050565b600061057361056e84610520565b610505565b90508281526020810184848401111561058f5761058e61048f565b5b61059a848285610551565b509392505050565b600082601f8301126105b7576105b661048a565b5b81356105c7848260208601610560565b91505092915050565b6000602082840312156105e6576105e5610480565b5b600082013567ffffffffffffffff81111561060457610603610485565b5b610610848285016105a2565b91505092915050565b60008115159050919050565b61062e81610619565b82525050565b60006020820190506106496000830184610625565b92915050565b7f4e487b7100000000000000000000000000000000000000000000000000000000600052601160045260246000fd5b6000610689826103b5565b915060ff820361069c5761069b61064f565b5b600182019050919050565b600081519050919050565b600082825260208201905092915050565b60005b838110156106e15780820151818401526020810190506106c6565b60008484015250505050565b60006106f8826106a7565b61070281856106b2565b93506107128185602086016106c3565b61071b81610494565b840191505092915050565b6000602082019050818103600083015261074081846106ed565b905092915050565b7f7800000000000000000000000000000000000000000000000000000000000000600082015250565b600061077e6001836106b2565b915061078982610748565b602082019050919050565b600060208201905081810360008301526107ad81610771565b9050919050565b7f7900000000000000000000000000000000000000000000000000000000000000600082015250565b60006107ea6001836106b2565b91506107f5826107b4565b602082019050919050565b60006020820190508181036000830152610819816107dd565b905091905056fea2646970667358221220025f08d44116a42af8922be10e90f12c447ec12cffa89c7af5660569d4fe624d64736f6c63430008120033",
					"opcodes": "PUSH1 0x80 PUSH1 0x40 MSTORE CALLVALUE DUP1 ISZERO PUSH2 0x10 JUMPI PUSH1 0x0 DUP1 REVERT JUMPDEST POP PUSH2 0x856 DUP1 PUSH2 0x20 PUSH1 0x0 CODECOPY PUSH1 0x0 RETURN INVALID PUSH1 0x80 PUSH1 0x40 MSTORE CALLVALUE DUP1 ISZERO PUSH2 0x10 JUMPI PUSH1 0x0 DUP1 REVERT JUMPDEST POP PUSH1 0x4 CALLDATASIZE LT PUSH2 0x4C JUMPI PUSH1 0x0 CALLDATALOAD PUSH1 0xE0 SHR DUP1 PUSH4 0x3ABA7A6A EQ PUSH2 0x51 JUMPI DUP1 PUSH4 0x6F5A3C1C EQ PUSH2 0x6F JUMPI DUP1 PUSH4 0x982386C7 EQ PUSH2 0x9F JUMPI DUP1 PUSH4 0xE6C2894A EQ PUSH2 0xCF JUMPI JUMPDEST PUSH1 0x0 DUP1 REVERT JUMPDEST PUSH2 0x59 PUSH2 0xED JUMP JUMPDEST PUSH1 0x40 MLOAD PUSH2 0x66 SWAP2 SWAP1 PUSH2 0x454 JUMP JUMPDEST PUSH1 0x40 MLOAD DUP1 SWAP2 SUB SWAP1 RETURN JUMPDEST PUSH2 0x89 PUSH1 0x4 DUP1 CALLDATASIZE SUB DUP2 ADD SWAP1 PUSH2 0x84 SWAP2 SWAP1 PUSH2 0x5D0 JUMP JUMPDEST PUSH2 0x1D1 JUMP JUMPDEST PUSH1 0x40 MLOAD PUSH2 0x96 SWAP2 SWAP1 PUSH2 0x634 JUMP JUMPDEST PUSH1 0x40 MLOAD DUP1 SWAP2 SUB SWAP1 RETURN JUMPDEST PUSH2 0xB9 PUSH1 0x4 DUP1 CALLDATASIZE SUB DUP2 ADD SWAP1 PUSH2 0xB4 SWAP2 SWAP1 PUSH2 0x5D0 JUMP JUMPDEST PUSH2 0x237 JUMP JUMPDEST PUSH1 0x40 MLOAD PUSH2 0xC6 SWAP2 SWAP1 PUSH2 0x634 JUMP JUMPDEST PUSH1 0x40 MLOAD DUP1 SWAP2 SUB SWAP1 RETURN JUMPDEST PUSH2 0xD7 PUSH2 0x2A5 JUMP JUMPDEST PUSH1 0x40 MLOAD PUSH2 0xE4 SWAP2 SWAP1 PUSH2 0x454 JUMP JUMPDEST PUSH1 0x40 MLOAD DUP1 SWAP2 SUB SWAP1 RETURN JUMPDEST PUSH1 0x60 PUSH1 0x0 JUMPDEST PUSH1 0x5 DUP2 PUSH1 0xFF AND LT ISZERO PUSH2 0x154 JUMPI PUSH1 0x0 DUP2 SWAP1 DUP1 PUSH1 0x1 DUP2 SLOAD ADD DUP1 DUP3 SSTORE DUP1 SWAP2 POP POP PUSH1 0x1 SWAP1 SUB SWAP1 PUSH1 0x0 MSTORE PUSH1 0x20 PUSH1 0x0 KECCAK256 SWAP1 PUSH1 0x20 SWAP2 DUP3 DUP3 DIV ADD SWAP2 SWAP1 MOD SWAP1 SWAP2 SWAP1 SWAP2 SWAP1 SWAP2 PUSH2 0x100 EXP DUP2 SLOAD DUP2 PUSH1 0xFF MUL NOT AND SWAP1 DUP4 PUSH1 0xFF AND MUL OR SWAP1 SSTORE POP DUP1 PUSH2 0x14D SWAP1 PUSH2 0x67E JUMP JUMPDEST SWAP1 POP PUSH2 0xF2 JUMP JUMPDEST PUSH1 0x0 DUP1 SLOAD DUP1 PUSH1 0x20 MUL PUSH1 0x20 ADD PUSH1 0x40 MLOAD SWAP1 DUP2 ADD PUSH1 0x40 MSTORE DUP1 SWAP3 SWAP2 SWAP1 DUP2 DUP2 MSTORE PUSH1 0x20 ADD DUP3 DUP1 SLOAD DUP1 ISZERO PUSH2 0x1C6 JUMPI PUSH1 0x20 MUL DUP3 ADD SWAP2 SWAP1 PUSH1 0x0 MSTORE PUSH1 0x20 PUSH1 0x0 KECCAK256 SWAP1 PUSH1 0x0 SWAP1 JUMPDEST DUP3 DUP3 SWAP1 SLOAD SWAP1 PUSH2 0x100 EXP SWAP1 DIV PUSH1 0xFF AND PUSH1 0xFF AND DUP2 MSTORE PUSH1 0x20 ADD SWAP1 PUSH1 0x1 ADD SWAP1 PUSH1 0x20 DUP3 PUSH1 0x0 ADD DIV SWAP3 DUP4 ADD SWAP3 PUSH1 0x1 SUB DUP3 MUL SWAP2 POP DUP1 DUP5 GT PUSH2 0x18F JUMPI SWAP1 POP JUMPDEST POP POP POP POP POP SWAP2 POP POP SWAP1 JUMP JUMPDEST PUSH1 0x0 DUP2 PUSH1 0x40 MLOAD PUSH1 0x20 ADD PUSH2 0x1E4 SWAP2 SWAP1 PUSH2 0x726 JUMP JUMPDEST PUSH1 0x40 MLOAD PUSH1 0x20 DUP2 DUP4 SUB SUB DUP2 MSTORE SWAP1 PUSH1 0x40 MSTORE DUP1 MLOAD SWAP1 PUSH1 0x20 ADD KECCAK256 PUSH1 0x40 MLOAD PUSH1 0x20 ADD PUSH2 0x209 SWAP1 PUSH2 0x794 JUMP JUMPDEST PUSH1 0x40 MLOAD PUSH1 0x20 DUP2 DUP4 SUB SUB DUP2 MSTORE SWAP1 PUSH1 0x40 MSTORE DUP1 MLOAD SWAP1 PUSH1 0x20 ADD KECCAK256 SUB PUSH2 0x22D JUMPI PUSH1 0x1 SWAP1 POP PUSH2 0x232 JUMP JUMPDEST PUSH1 0x0 SWAP1 POP JUMPDEST SWAP2 SWAP1 POP JUMP JUMPDEST PUSH1 0x0 DUP1 PUSH1 0x40 MLOAD PUSH1 0x20 ADD PUSH2 0x249 SWAP1 PUSH2 0x800 JUMP JUMPDEST PUSH1 0x40 MLOAD PUSH1 0x20 DUP2 DUP4 SUB SUB DUP2 MSTORE SWAP1 PUSH1 0x40 MSTORE DUP1 MLOAD SWAP1 PUSH1 0x20 ADD KECCAK256 DUP4 PUSH1 0x40 MLOAD PUSH1 0x20 ADD PUSH2 0x270 SWAP2 SWAP1 PUSH2 0x726 JUMP JUMPDEST PUSH1 0x40 MLOAD PUSH1 0x20 DUP2 DUP4 SUB SUB DUP2 MSTORE SWAP1 PUSH1 0x40 MSTORE DUP1 MLOAD SWAP1 PUSH1 0x20 ADD KECCAK256 EQ PUSH2 0x295 JUMPI PUSH1 0x0 SWAP1 POP DUP1 PUSH2 0x29B JUMP JUMPDEST PUSH1 0x1 SWAP1 POP DUP1 JUMPDEST POP DUP1 SWAP2 POP POP SWAP2 SWAP1 POP JUMP JUMPDEST PUSH1 0x60 PUSH1 0x0 JUMPDEST PUSH1 0x5 DUP2 PUSH1 0xFF AND LT ISZERO PUSH2 0x30C JUMPI PUSH1 0x0 DUP2 SWAP1 DUP1 PUSH1 0x1 DUP2 SLOAD ADD DUP1 DUP3 SSTORE DUP1 SWAP2 POP POP PUSH1 0x1 SWAP1 SUB SWAP1 PUSH1 0x0 MSTORE PUSH1 0x20 PUSH1 0x0 KECCAK256 SWAP1 PUSH1 0x20 SWAP2 DUP3 DUP3 DIV ADD SWAP2 SWAP1 MOD SWAP1 SWAP2 SWAP1 SWAP2 SWAP1 SWAP2 PUSH2 0x100 EXP DUP2 SLOAD DUP2 PUSH1 0xFF MUL NOT AND SWAP1 DUP4 PUSH1 0xFF AND MUL OR SWAP1 SSTORE POP DUP1 PUSH2 0x305 SWAP1 PUSH2 0x67E JUMP JUMPDEST SWAP1 POP PUSH2 0x2AA JUMP JUMPDEST PUSH1 0x0 DUP1 SLOAD DUP1 PUSH1 0x20 MUL PUSH1 0x20 ADD PUSH1 0x40 MLOAD SWAP1 DUP2 ADD PUSH1 0x40 MSTORE DUP1 SWAP3 SWAP2 SWAP1 DUP2 DUP2 MSTORE PUSH1 0x20 ADD DUP3 DUP1 SLOAD DUP1 ISZERO PUSH2 0x37E JUMPI PUSH1 0x20 MUL DUP3 ADD SWAP2 SWAP1 PUSH1 0x0 MSTORE PUSH1 0x20 PUSH1 0x0 KECCAK256 SWAP1 PUSH1 0x0 SWAP1 JUMPDEST DUP3 DUP3 SWAP1 SLOAD SWAP1 PUSH2 0x100 EXP SWAP1 DIV PUSH1 0xFF AND PUSH1 0xFF AND DUP2 MSTORE PUSH1 0x20 ADD SWAP1 PUSH1 0x1 ADD SWAP1 PUSH1 0x20 DUP3 PUSH1 0x0 ADD DIV SWAP3 DUP4 ADD SWAP3 PUSH1 0x1 SUB DUP3 MUL SWAP2 POP DUP1 DUP5 GT PUSH2 0x347 JUMPI SWAP1 POP JUMPDEST POP POP POP POP POP SWAP2 POP POP SWAP1 JUMP JUMPDEST PUSH1 0x0 DUP2 MLOAD SWAP1 POP SWAP2 SWAP1 POP JUMP JUMPDEST PUSH1 0x0 DUP3 DUP3 MSTORE PUSH1 0x20 DUP3 ADD SWAP1 POP SWAP3 SWAP2 POP POP JUMP JUMPDEST PUSH1 0x0 DUP2 SWAP1 POP PUSH1 0x20 DUP3 ADD SWAP1 POP SWAP2 SWAP1 POP JUMP JUMPDEST PUSH1 0x0 PUSH1 0xFF DUP3 AND SWAP1 POP SWAP2 SWAP1 POP JUMP JUMPDEST PUSH2 0x3CB DUP2 PUSH2 0x3B5 JUMP JUMPDEST DUP3 MSTORE POP POP JUMP JUMPDEST PUSH1 0x0 PUSH2 0x3DD DUP4 DUP4 PUSH2 0x3C2 JUMP JUMPDEST PUSH1 0x20 DUP4 ADD SWAP1 POP SWAP3 SWAP2 POP POP JUMP JUMPDEST PUSH1 0x0 PUSH1 0x20 DUP3 ADD SWAP1 POP SWAP2 SWAP1 POP JUMP JUMPDEST PUSH1 0x0 PUSH2 0x401 DUP3 PUSH2 0x389 JUMP JUMPDEST PUSH2 0x40B DUP2 DUP6 PUSH2 0x394 JUMP JUMPDEST SWAP4 POP PUSH2 0x416 DUP4 PUSH2 0x3A5 JUMP JUMPDEST DUP1 PUSH1 0x0 JUMPDEST DUP4 DUP2 LT ISZERO PUSH2 0x447 JUMPI DUP2 MLOAD PUSH2 0x42E DUP9 DUP3 PUSH2 0x3D1 JUMP JUMPDEST SWAP8 POP PUSH2 0x439 DUP4 PUSH2 0x3E9 JUMP JUMPDEST SWAP3 POP POP PUSH1 0x1 DUP2 ADD SWAP1 POP PUSH2 0x41A JUMP JUMPDEST POP DUP6 SWAP4 POP POP POP POP SWAP3 SWAP2 POP POP JUMP JUMPDEST PUSH1 0x0 PUSH1 0x20 DUP3 ADD SWAP1 POP DUP2 DUP2 SUB PUSH1 0x0 DUP4 ADD MSTORE PUSH2 0x46E DUP2 DUP5 PUSH2 0x3F6 JUMP JUMPDEST SWAP1 POP SWAP3 SWAP2 POP POP JUMP JUMPDEST PUSH1 0x0 PUSH1 0x40 MLOAD SWAP1 POP SWAP1 JUMP JUMPDEST PUSH1 0x0 DUP1 REVERT JUMPDEST PUSH1 0x0 DUP1 REVERT JUMPDEST PUSH1 0x0 DUP1 REVERT JUMPDEST PUSH1 0x0 DUP1 REVERT JUMPDEST PUSH1 0x0 PUSH1 0x1F NOT PUSH1 0x1F DUP4 ADD AND SWAP1 POP SWAP2 SWAP1 POP JUMP JUMPDEST PUSH32 0x4E487B7100000000000000000000000000000000000000000000000000000000 PUSH1 0x0 MSTORE PUSH1 0x41 PUSH1 0x4 MSTORE PUSH1 0x24 PUSH1 0x0 REVERT JUMPDEST PUSH2 0x4DD DUP3 PUSH2 0x494 JUMP JUMPDEST DUP2 ADD DUP2 DUP2 LT PUSH8 0xFFFFFFFFFFFFFFFF DUP3 GT OR ISZERO PUSH2 0x4FC JUMPI PUSH2 0x4FB PUSH2 0x4A5 JUMP JUMPDEST JUMPDEST DUP1 PUSH1 0x40 MSTORE POP POP POP JUMP JUMPDEST PUSH1 0x0 PUSH2 0x50F PUSH2 0x476 JUMP JUMPDEST SWAP1 POP PUSH2 0x51B DUP3 DUP3 PUSH2 0x4D4 JUMP JUMPDEST SWAP2 SWAP1 POP JUMP JUMPDEST PUSH1 0x0 PUSH8 0xFFFFFFFFFFFFFFFF DUP3 GT ISZERO PUSH2 0x53B JUMPI PUSH2 0x53A PUSH2 0x4A5 JUMP JUMPDEST JUMPDEST PUSH2 0x544 DUP3 PUSH2 0x494 JUMP JUMPDEST SWAP1 POP PUSH1 0x20 DUP2 ADD SWAP1 POP SWAP2 SWAP1 POP JUMP JUMPDEST DUP3 DUP2 DUP4 CALLDATACOPY PUSH1 0x0 DUP4 DUP4 ADD MSTORE POP POP POP JUMP JUMPDEST PUSH1 0x0 PUSH2 0x573 PUSH2 0x56E DUP5 PUSH2 0x520 JUMP JUMPDEST PUSH2 0x505 JUMP JUMPDEST SWAP1 POP DUP3 DUP2 MSTORE PUSH1 0x20 DUP2 ADD DUP5 DUP5 DUP5 ADD GT ISZERO PUSH2 0x58F JUMPI PUSH2 0x58E PUSH2 0x48F JUMP JUMPDEST JUMPDEST PUSH2 0x59A DUP5 DUP3 DUP6 PUSH2 0x551 JUMP JUMPDEST POP SWAP4 SWAP3 POP POP POP JUMP JUMPDEST PUSH1 0x0 DUP3 PUSH1 0x1F DUP4 ADD SLT PUSH2 0x5B7 JUMPI PUSH2 0x5B6 PUSH2 0x48A JUMP JUMPDEST JUMPDEST DUP2 CALLDATALOAD PUSH2 0x5C7 DUP5 DUP3 PUSH1 0x20 DUP7 ADD PUSH2 0x560 JUMP JUMPDEST SWAP2 POP POP SWAP3 SWAP2 POP POP JUMP JUMPDEST PUSH1 0x0 PUSH1 0x20 DUP3 DUP5 SUB SLT ISZERO PUSH2 0x5E6 JUMPI PUSH2 0x5E5 PUSH2 0x480 JUMP JUMPDEST JUMPDEST PUSH1 0x0 DUP3 ADD CALLDATALOAD PUSH8 0xFFFFFFFFFFFFFFFF DUP2 GT ISZERO PUSH2 0x604 JUMPI PUSH2 0x603 PUSH2 0x485 JUMP JUMPDEST JUMPDEST PUSH2 0x610 DUP5 DUP3 DUP6 ADD PUSH2 0x5A2 JUMP JUMPDEST SWAP2 POP POP SWAP3 SWAP2 POP POP JUMP JUMPDEST PUSH1 0x0 DUP2 ISZERO ISZERO SWAP1 POP SWAP2 SWAP1 POP JUMP JUMPDEST PUSH2 0x62E DUP2 PUSH2 0x619 JUMP JUMPDEST DUP3 MSTORE POP POP JUMP JUMPDEST PUSH1 0x0 PUSH1 0x20 DUP3 ADD SWAP1 POP PUSH2 0x649 PUSH1 0x0 DUP4 ADD DUP5 PUSH2 0x625 JUMP JUMPDEST SWAP3 SWAP2 POP POP JUMP JUMPDEST PUSH32 0x4E487B7100000000000000000000000000000000000000000000000000000000 PUSH1 0x0 MSTORE PUSH1 0x11 PUSH1 0x4 MSTORE PUSH1 0x24 PUSH1 0x0 REVERT JUMPDEST PUSH1 0x0 PUSH2 0x689 DUP3 PUSH2 0x3B5 JUMP JUMPDEST SWAP2 POP PUSH1 0xFF DUP3 SUB PUSH2 0x69C JUMPI PUSH2 0x69B PUSH2 0x64F JUMP JUMPDEST JUMPDEST PUSH1 0x1 DUP3 ADD SWAP1 POP SWAP2 SWAP1 POP JUMP JUMPDEST PUSH1 0x0 DUP2 MLOAD SWAP1 POP SWAP2 SWAP1 POP JUMP JUMPDEST PUSH1 0x0 DUP3 DUP3 MSTORE PUSH1 0x20 DUP3 ADD SWAP1 POP SWAP3 SWAP2 POP POP JUMP JUMPDEST PUSH1 0x0 JUMPDEST DUP4 DUP2 LT ISZERO PUSH2 0x6E1 JUMPI DUP1 DUP3 ADD MLOAD DUP2 DUP5 ADD MSTORE PUSH1 0x20 DUP2 ADD SWAP1 POP PUSH2 0x6C6 JUMP JUMPDEST PUSH1 0x0 DUP5 DUP5 ADD MSTORE POP POP POP POP JUMP JUMPDEST PUSH1 0x0 PUSH2 0x6F8 DUP3 PUSH2 0x6A7 JUMP JUMPDEST PUSH2 0x702 DUP2 DUP6 PUSH2 0x6B2 JUMP JUMPDEST SWAP4 POP PUSH2 0x712 DUP2 DUP6 PUSH1 0x20 DUP7 ADD PUSH2 0x6C3 JUMP JUMPDEST PUSH2 0x71B DUP2 PUSH2 0x494 JUMP JUMPDEST DUP5 ADD SWAP2 POP POP SWAP3 SWAP2 POP POP JUMP JUMPDEST PUSH1 0x0 PUSH1 0x20 DUP3 ADD SWAP1 POP DUP2 DUP2 SUB PUSH1 0x0 DUP4 ADD MSTORE PUSH2 0x740 DUP2 DUP5 PUSH2 0x6ED JUMP JUMPDEST SWAP1 POP SWAP3 SWAP2 POP POP JUMP JUMPDEST PUSH32 0x7800000000000000000000000000000000000000000000000000000000000000 PUSH1 0x0 DUP3 ADD MSTORE POP JUMP JUMPDEST PUSH1 0x0 PUSH2 0x77E PUSH1 0x1 DUP4 PUSH2 0x6B2 JUMP JUMPDEST SWAP2 POP PUSH2 0x789 DUP3 PUSH2 0x748 JUMP JUMPDEST PUSH1 0x20 DUP3 ADD SWAP1 POP SWAP2 SWAP1 POP JUMP JUMPDEST PUSH1 0x0 PUSH1 0x20 DUP3 ADD SWAP1 POP DUP2 DUP2 SUB PUSH1 0x0 DUP4 ADD MSTORE PUSH2 0x7AD DUP2 PUSH2 0x771 JUMP JUMPDEST SWAP1 POP SWAP2 SWAP1 POP JUMP JUMPDEST PUSH32 0x7900000000000000000000000000000000000000000000000000000000000000 PUSH1 0x0 DUP3 ADD MSTORE POP JUMP JUMPDEST PUSH1 0x0 PUSH2 0x7EA PUSH1 0x1 DUP4 PUSH2 0x6B2 JUMP JUMPDEST SWAP2 POP PUSH2 0x7F5 DUP3 PUSH2 0x7B4 JUMP JUMPDEST PUSH1 0x20 DUP3 ADD SWAP1 POP SWAP2 SWAP1 POP JUMP JUMPDEST PUSH1 0x0 PUSH1 0x20 DUP3 ADD SWAP1 POP DUP2 DUP2 SUB PUSH1 0x0 DUP4 ADD MSTORE PUSH2 0x819 DUP2 PUSH2 0x7DD JUMP JUMPDEST SWAP1 POP SWAP2 SWAP1 POP JUMP INVALID LOG2 PUSH5 0x6970667358 0x22 SLT KECCAK256 MUL 0x5F ADDMOD 0xD4 COINBASE AND LOG4 0x2A 0xF8 SWAP3 0x2B 0xE1 0xE SWAP1 CALL 0x2C PREVRANDAO PUSH31 0xC12CFFA89C7AF5660569D4FE624D64736F6C63430008120033000000000000 "
				},
				"gasEstimates": {
					"creation": {
						"codeDepositCost": "426800",
						"executionCost": "461",
						"totalCost": "427261"
					},
					"external": {
						"simpleFor()": "infinite",
						"simpleWhile()": "infinite",
						"testX(string)": "infinite",
						"testY(string)": "infinite"
					}
				},
				"methodIdentifiers": {
					"simpleFor()": "3aba7a6a",
					"simpleWhile()": "e6c2894a",
					"testX(string)": "6f5a3c1c",
					"testY(string)": "982386c7"
				}
			},
			"storageLayout": {
				"storage": [
					{
						"astId": 4,
						"contract": "conditionalWhileFor.sol:conditionalWhileFor",
						"label": "ray",
						"offset": 0,
						"slot": "0",
						"type": "t_array(t_uint8)dyn_storage"
					}
				],
				"types": {
					"t_array(t_uint8)dyn_storage": {
						"base": "t_uint8",
						"encoding": "dynamic_array",
						"label": "uint8[]",
						"numberOfBytes": "32"
					},
					"t_uint8": {
						"encoding": "inplace",
						"label": "uint8",
						"numberOfBytes": "1"
					}
				}
			},
			"userdoc": {
				"kind": "user",
				"methods": {},
				"version": 1
			}
		}
	}
}