{
	"super.sol": {
		"C": {
			"abi": [
				{
					"anonymous": false,
					"inputs": [
						{
							"indexed": false,
							"internalType": "string",
							"name": "message",
							"type": "string"
						}
					],
					"name": "Log",
					"type": "event"
				},
				{
					"inputs": [],
					"name": "callA",
					"outputs": [],
					"stateMutability": "nonpayable",
					"type": "function"
				},
				{
					"inputs": [],
					"name": "callB",
					"outputs": [],
					"stateMutability": "nonpayable",
					"type": "function"
				},
				{
					"inputs": [],
					"name": "getName",
					"outputs": [],
					"stateMutability": "nonpayable",
					"type": "function"
				}
			],
			"devdoc": {
				"kind": "dev",
				"methods": {},
				"version": 1
			},
			"evm": {
				"assembly": "    /* \"super.sol\":435:551  contract C is B{... */\n  mstore(0x40, 0x80)\n  callvalue\n  dup1\n  iszero\n  tag_1\n  jumpi\n  0x00\n  dup1\n  revert\ntag_1:\n  pop\n  dataSize(sub_0)\n  dup1\n  dataOffset(sub_0)\n  0x00\n  codecopy\n  0x00\n  return\nstop\n\nsub_0: assembly {\n        /* \"super.sol\":435:551  contract C is B{... */\n      mstore(0x40, 0x80)\n      callvalue\n      dup1\n      iszero\n      tag_1\n      jumpi\n      0x00\n      dup1\n      revert\n    tag_1:\n      pop\n      jumpi(tag_2, lt(calldatasize, 0x04))\n      shr(0xe0, calldataload(0x00))\n      dup1\n      0x17d7de7c\n      eq\n      tag_3\n      jumpi\n      dup1\n      0x44fd4fa0\n      eq\n      tag_4\n      jumpi\n      dup1\n      0xe7f09e05\n      eq\n      tag_5\n      jumpi\n    tag_2:\n      0x00\n      dup1\n      revert\n        /* \"super.sol\":165:238  function getName() public virtual{... */\n    tag_3:\n      tag_6\n      tag_7\n      jump\t// in\n    tag_6:\n      stop\n        /* \"super.sol\":459:546  function callB() public{... */\n    tag_4:\n      tag_8\n      tag_9\n      jump\t// in\n    tag_8:\n      stop\n        /* \"super.sol\":303:392  function callA() public{... */\n    tag_5:\n      tag_10\n      tag_11\n      jump\t// in\n    tag_10:\n      stop\n        /* \"super.sol\":165:238  function getName() public virtual{... */\n    tag_7:\n        /* \"super.sol\":214:230  Log(\"This is A\") */\n      0xcf34ef537ac33ee1ac626ca1587a0a7e8e51561e5514f8cb36afa1c5102b3bab\n      mload(0x40)\n      tag_13\n      swap1\n      tag_14\n      jump\t// in\n    tag_13:\n      mload(0x40)\n      dup1\n      swap2\n      sub\n      swap1\n      log1\n        /* \"super.sol\":165:238  function getName() public virtual{... */\n      jump\t// out\n        /* \"super.sol\":459:546  function callB() public{... */\n    tag_9:\n        /* \"super.sol\":498:514  Log(\"This is C\") */\n      0xcf34ef537ac33ee1ac626ca1587a0a7e8e51561e5514f8cb36afa1c5102b3bab\n      mload(0x40)\n      tag_16\n      swap1\n      tag_17\n      jump\t// in\n    tag_16:\n      mload(0x40)\n      dup1\n      swap2\n      sub\n      swap1\n      log1\n        /* \"super.sol\":525:538  super.callA() */\n      tag_18\n        /* \"super.sol\":525:536  super.callA */\n      tag_11\n        /* \"super.sol\":525:538  super.callA() */\n      jump\t// in\n    tag_18:\n        /* \"super.sol\":459:546  function callB() public{... */\n      jump\t// out\n        /* \"super.sol\":303:392  function callA() public{... */\n    tag_11:\n        /* \"super.sol\":342:358  Log(\"This is B\") */\n      0xcf34ef537ac33ee1ac626ca1587a0a7e8e51561e5514f8cb36afa1c5102b3bab\n      mload(0x40)\n      tag_20\n      swap1\n      tag_21\n      jump\t// in\n    tag_20:\n      mload(0x40)\n      dup1\n      swap2\n      sub\n      swap1\n      log1\n        /* \"super.sol\":369:384  super.getName() */\n      tag_22\n        /* \"super.sol\":369:382  super.getName */\n      tag_7\n        /* \"super.sol\":369:384  super.getName() */\n      jump\t// in\n    tag_22:\n        /* \"super.sol\":303:392  function callA() public{... */\n      jump\t// out\n        /* \"#utility.yul\":7:176   */\n    tag_23:\n        /* \"#utility.yul\":91:102   */\n      0x00\n        /* \"#utility.yul\":125:131   */\n      dup3\n        /* \"#utility.yul\":120:123   */\n      dup3\n        /* \"#utility.yul\":113:132   */\n      mstore\n        /* \"#utility.yul\":165:169   */\n      0x20\n        /* \"#utility.yul\":160:163   */\n      dup3\n        /* \"#utility.yul\":156:170   */\n      add\n        /* \"#utility.yul\":141:170   */\n      swap1\n      pop\n        /* \"#utility.yul\":7:176   */\n      swap3\n      swap2\n      pop\n      pop\n      jump\t// out\n        /* \"#utility.yul\":182:341   */\n    tag_24:\n        /* \"#utility.yul\":322:333   */\n      0x5468697320697320410000000000000000000000000000000000000000000000\n        /* \"#utility.yul\":318:319   */\n      0x00\n        /* \"#utility.yul\":310:316   */\n      dup3\n        /* \"#utility.yul\":306:320   */\n      add\n        /* \"#utility.yul\":299:334   */\n      mstore\n        /* \"#utility.yul\":182:341   */\n      pop\n      jump\t// out\n        /* \"#utility.yul\":347:712   */\n    tag_25:\n        /* \"#utility.yul\":489:492   */\n      0x00\n        /* \"#utility.yul\":510:576   */\n      tag_34\n        /* \"#utility.yul\":574:575   */\n      0x09\n        /* \"#utility.yul\":569:572   */\n      dup4\n        /* \"#utility.yul\":510:576   */\n      tag_23\n      jump\t// in\n    tag_34:\n        /* \"#utility.yul\":503:576   */\n      swap2\n      pop\n        /* \"#utility.yul\":585:678   */\n      tag_35\n        /* \"#utility.yul\":674:677   */\n      dup3\n        /* \"#utility.yul\":585:678   */\n      tag_24\n      jump\t// in\n    tag_35:\n        /* \"#utility.yul\":703:705   */\n      0x20\n        /* \"#utility.yul\":698:701   */\n      dup3\n        /* \"#utility.yul\":694:706   */\n      add\n        /* \"#utility.yul\":687:706   */\n      swap1\n      pop\n        /* \"#utility.yul\":347:712   */\n      swap2\n      swap1\n      pop\n      jump\t// out\n        /* \"#utility.yul\":718:1137   */\n    tag_14:\n        /* \"#utility.yul\":884:888   */\n      0x00\n        /* \"#utility.yul\":922:924   */\n      0x20\n        /* \"#utility.yul\":911:920   */\n      dup3\n        /* \"#utility.yul\":907:925   */\n      add\n        /* \"#utility.yul\":899:925   */\n      swap1\n      pop\n        /* \"#utility.yul\":971:980   */\n      dup2\n        /* \"#utility.yul\":965:969   */\n      dup2\n        /* \"#utility.yul\":961:981   */\n      sub\n        /* \"#utility.yul\":957:958   */\n      0x00\n        /* \"#utility.yul\":946:955   */\n      dup4\n        /* \"#utility.yul\":942:959   */\n      add\n        /* \"#utility.yul\":935:982   */\n      mstore\n        /* \"#utility.yul\":999:1130   */\n      tag_37\n        /* \"#utility.yul\":1125:1129   */\n      dup2\n        /* \"#utility.yul\":999:1130   */\n      tag_25\n      jump\t// in\n    tag_37:\n        /* \"#utility.yul\":991:1130   */\n      swap1\n      pop\n        /* \"#utility.yul\":718:1137   */\n      swap2\n      swap1\n      pop\n      jump\t// out\n        /* \"#utility.yul\":1143:1302   */\n    tag_26:\n        /* \"#utility.yul\":1283:1294   */\n      0x5468697320697320430000000000000000000000000000000000000000000000\n        /* \"#utility.yul\":1279:1280   */\n      0x00\n        /* \"#utility.yul\":1271:1277   */\n      dup3\n        /* \"#utility.yul\":1267:1281   */\n      add\n        /* \"#utility.yul\":1260:1295   */\n      mstore\n        /* \"#utility.yul\":1143:1302   */\n      pop\n      jump\t// out\n        /* \"#utility.yul\":1308:1673   */\n    tag_27:\n        /* \"#utility.yul\":1450:1453   */\n      0x00\n        /* \"#utility.yul\":1471:1537   */\n      tag_40\n        /* \"#utility.yul\":1535:1536   */\n      0x09\n        /* \"#utility.yul\":1530:1533   */\n      dup4\n        /* \"#utility.yul\":1471:1537   */\n      tag_23\n      jump\t// in\n    tag_40:\n        /* \"#utility.yul\":1464:1537   */\n      swap2\n      pop\n        /* \"#utility.yul\":1546:1639   */\n      tag_41\n        /* \"#utility.yul\":1635:1638   */\n      dup3\n        /* \"#utility.yul\":1546:1639   */\n      tag_26\n      jump\t// in\n    tag_41:\n        /* \"#utility.yul\":1664:1666   */\n      0x20\n        /* \"#utility.yul\":1659:1662   */\n      dup3\n        /* \"#utility.yul\":1655:1667   */\n      add\n        /* \"#utility.yul\":1648:1667   */\n      swap1\n      pop\n        /* \"#utility.yul\":1308:1673   */\n      swap2\n      swap1\n      pop\n      jump\t// out\n        /* \"#utility.yul\":1679:2098   */\n    tag_17:\n        /* \"#utility.yul\":1845:1849   */\n      0x00\n        /* \"#utility.yul\":1883:1885   */\n      0x20\n        /* \"#utility.yul\":1872:1881   */\n      dup3\n        /* \"#utility.yul\":1868:1886   */\n      add\n        /* \"#utility.yul\":1860:1886   */\n      swap1\n      pop\n        /* \"#utility.yul\":1932:1941   */\n      dup2\n        /* \"#utility.yul\":1926:1930   */\n      dup2\n        /* \"#utility.yul\":1922:1942   */\n      sub\n        /* \"#utility.yul\":1918:1919   */\n      0x00\n        /* \"#utility.yul\":1907:1916   */\n      dup4\n        /* \"#utility.yul\":1903:1920   */\n      add\n        /* \"#utility.yul\":1896:1943   */\n      mstore\n        /* \"#utility.yul\":1960:2091   */\n      tag_43\n        /* \"#utility.yul\":2086:2090   */\n      dup2\n        /* \"#utility.yul\":1960:2091   */\n      tag_27\n      jump\t// in\n    tag_43:\n        /* \"#utility.yul\":1952:2091   */\n      swap1\n      pop\n        /* \"#utility.yul\":1679:2098   */\n      swap2\n      swap1\n      pop\n      jump\t// out\n        /* \"#utility.yul\":2104:2263   */\n    tag_28:\n        /* \"#utility.yul\":2244:2255   */\n      0x5468697320697320420000000000000000000000000000000000000000000000\n        /* \"#utility.yul\":2240:2241   */\n      0x00\n        /* \"#utility.yul\":2232:2238   */\n      dup3\n        /* \"#utility.yul\":2228:2242   */\n      add\n        /* \"#utility.yul\":2221:2256   */\n      mstore\n        /* \"#utility.yul\":2104:2263   */\n      pop\n      jump\t// out\n        /* \"#utility.yul\":2269:2634   */\n    tag_29:\n        /* \"#utility.yul\":2411:2414   */\n      0x00\n        /* \"#utility.yul\":2432:2498   */\n      tag_46\n        /* \"#utility.yul\":2496:2497   */\n      0x09\n        /* \"#utility.yul\":2491:2494   */\n      dup4\n        /* \"#utility.yul\":2432:2498   */\n      tag_23\n      jump\t// in\n    tag_46:\n        /* \"#utility.yul\":2425:2498   */\n      swap2\n      pop\n        /* \"#utility.yul\":2507:2600   */\n      tag_47\n        /* \"#utility.yul\":2596:2599   */\n      dup3\n        /* \"#utility.yul\":2507:2600   */\n      tag_28\n      jump\t// in\n    tag_47:\n        /* \"#utility.yul\":2625:2627   */\n      0x20\n        /* \"#utility.yul\":2620:2623   */\n      dup3\n        /* \"#utility.yul\":2616:2628   */\n      add\n        /* \"#utility.yul\":2609:2628   */\n      swap1\n      pop\n        /* \"#utility.yul\":2269:2634   */\n      swap2\n      swap1\n      pop\n      jump\t// out\n        /* \"#utility.yul\":2640:3059   */\n    tag_21:\n        /* \"#utility.yul\":2806:2810   */\n      0x00\n        /* \"#utility.yul\":2844:2846   */\n      0x20\n        /* \"#utility.yul\":2833:2842   */\n      dup3\n        /* \"#utility.yul\":2829:2847   */\n      add\n        /* \"#utility.yul\":2821:2847   */\n      swap1\n      pop\n        /* \"#utility.yul\":2893:2902   */\n      dup2\n        /* \"#utility.yul\":2887:2891   */\n      dup2\n        /* \"#utility.yul\":2883:2903   */\n      sub\n        /* \"#utility.yul\":2879:2880   */\n      0x00\n        /* \"#utility.yul\":2868:2877   */\n      dup4\n        /* \"#utility.yul\":2864:2881   */\n      add\n        /* \"#utility.yul\":2857:2904   */\n      mstore\n        /* \"#utility.yul\":2921:3052   */\n      tag_49\n        /* \"#utility.yul\":3047:3051   */\n      dup2\n        /* \"#utility.yul\":2921:3052   */\n      tag_29\n      jump\t// in\n    tag_49:\n        /* \"#utility.yul\":2913:3052   */\n      swap1\n      pop\n        /* \"#utility.yul\":2640:3059   */\n      swap2\n      swap1\n      pop\n      jump\t// out\n\n    auxdata: 0xa2646970667358221220533273fa9278430e56e8c9a326038d6b1debe4dbcaa30f47946bbc30f5d0247a64736f6c63430008120033\n}\n",
				"bytecode": {
					"linkReferences": {},
					"object": "608060405234801561001057600080fd5b506102a4806100206000396000f3fe608060405234801561001057600080fd5b50600436106100415760003560e01c806317d7de7c1461004657806344fd4fa014610050578063e7f09e051461005a575b600080fd5b61004e610064565b005b61005861009b565b005b6100626100da565b005b7fcf34ef537ac33ee1ac626ca1587a0a7e8e51561e5514f8cb36afa1c5102b3bab60405161009190610176565b60405180910390a1565b7fcf34ef537ac33ee1ac626ca1587a0a7e8e51561e5514f8cb36afa1c5102b3bab6040516100c8906101e2565b60405180910390a16100d86100da565b565b7fcf34ef537ac33ee1ac626ca1587a0a7e8e51561e5514f8cb36afa1c5102b3bab6040516101079061024e565b60405180910390a1610117610064565b565b600082825260208201905092915050565b7f5468697320697320410000000000000000000000000000000000000000000000600082015250565b6000610160600983610119565b915061016b8261012a565b602082019050919050565b6000602082019050818103600083015261018f81610153565b9050919050565b7f5468697320697320430000000000000000000000000000000000000000000000600082015250565b60006101cc600983610119565b91506101d782610196565b602082019050919050565b600060208201905081810360008301526101fb816101bf565b9050919050565b7f5468697320697320420000000000000000000000000000000000000000000000600082015250565b6000610238600983610119565b915061024382610202565b602082019050919050565b600060208201905081810360008301526102678161022b565b905091905056fea2646970667358221220533273fa9278430e56e8c9a326038d6b1debe4dbcaa30f47946bbc30f5d0247a64736f6c63430008120033",
					"opcodes": "PUSH1 0x80 PUSH1 0x40 MSTORE CALLVALUE DUP1 ISZERO PUSH2 0x10 JUMPI PUSH1 0x0 DUP1 REVERT JUMPDEST POP PUSH2 0x2A4 DUP1 PUSH2 0x20 PUSH1 0x0 CODECOPY PUSH1 0x0 RETURN INVALID PUSH1 0x80 PUSH1 0x40 MSTORE CALLVALUE DUP1 ISZERO PUSH2 0x10 JUMPI PUSH1 0x0 DUP1 REVERT JUMPDEST POP PUSH1 0x4 CALLDATASIZE LT PUSH2 0x41 JUMPI PUSH1 0x0 CALLDATALOAD PUSH1 0xE0 SHR DUP1 PUSH4 0x17D7DE7C EQ PUSH2 0x46 JUMPI DUP1 PUSH4 0x44FD4FA0 EQ PUSH2 0x50 JUMPI DUP1 PUSH4 0xE7F09E05 EQ PUSH2 0x5A JUMPI JUMPDEST PUSH1 0x0 DUP1 REVERT JUMPDEST PUSH2 0x4E PUSH2 0x64 JUMP JUMPDEST STOP JUMPDEST PUSH2 0x58 PUSH2 0x9B JUMP JUMPDEST STOP JUMPDEST PUSH2 0x62 PUSH2 0xDA JUMP JUMPDEST STOP JUMPDEST PUSH32 0xCF34EF537AC33EE1AC626CA1587A0A7E8E51561E5514F8CB36AFA1C5102B3BAB PUSH1 0x40 MLOAD PUSH2 0x91 SWAP1 PUSH2 0x176 JUMP JUMPDEST PUSH1 0x40 MLOAD DUP1 SWAP2 SUB SWAP1 LOG1 JUMP JUMPDEST PUSH32 0xCF34EF537AC33EE1AC626CA1587A0A7E8E51561E5514F8CB36AFA1C5102B3BAB PUSH1 0x40 MLOAD PUSH2 0xC8 SWAP1 PUSH2 0x1E2 JUMP JUMPDEST PUSH1 0x40 MLOAD DUP1 SWAP2 SUB SWAP1 LOG1 PUSH2 0xD8 PUSH2 0xDA JUMP JUMPDEST JUMP JUMPDEST PUSH32 0xCF34EF537AC33EE1AC626CA1587A0A7E8E51561E5514F8CB36AFA1C5102B3BAB PUSH1 0x40 MLOAD PUSH2 0x107 SWAP1 PUSH2 0x24E JUMP JUMPDEST PUSH1 0x40 MLOAD DUP1 SWAP2 SUB SWAP1 LOG1 PUSH2 0x117 PUSH2 0x64 JUMP JUMPDEST JUMP JUMPDEST PUSH1 0x0 DUP3 DUP3 MSTORE PUSH1 0x20 DUP3 ADD SWAP1 POP SWAP3 SWAP2 POP POP JUMP JUMPDEST PUSH32 0x5468697320697320410000000000000000000000000000000000000000000000 PUSH1 0x0 DUP3 ADD MSTORE POP JUMP JUMPDEST PUSH1 0x0 PUSH2 0x160 PUSH1 0x9 DUP4 PUSH2 0x119 JUMP JUMPDEST SWAP2 POP PUSH2 0x16B DUP3 PUSH2 0x12A JUMP JUMPDEST PUSH1 0x20 DUP3 ADD SWAP1 POP SWAP2 SWAP1 POP JUMP JUMPDEST PUSH1 0x0 PUSH1 0x20 DUP3 ADD SWAP1 POP DUP2 DUP2 SUB PUSH1 0x0 DUP4 ADD MSTORE PUSH2 0x18F DUP2 PUSH2 0x153 JUMP JUMPDEST SWAP1 POP SWAP2 SWAP1 POP JUMP JUMPDEST PUSH32 0x5468697320697320430000000000000000000000000000000000000000000000 PUSH1 0x0 DUP3 ADD MSTORE POP JUMP JUMPDEST PUSH1 0x0 PUSH2 0x1CC PUSH1 0x9 DUP4 PUSH2 0x119 JUMP JUMPDEST SWAP2 POP PUSH2 0x1D7 DUP3 PUSH2 0x196 JUMP JUMPDEST PUSH1 0x20 DUP3 ADD SWAP1 POP SWAP2 SWAP1 POP JUMP JUMPDEST PUSH1 0x0 PUSH1 0x20 DUP3 ADD SWAP1 POP DUP2 DUP2 SUB PUSH1 0x0 DUP4 ADD MSTORE PUSH2 0x1FB DUP2 PUSH2 0x1BF JUMP JUMPDEST SWAP1 POP SWAP2 SWAP1 POP JUMP JUMPDEST PUSH32 0x5468697320697320420000000000000000000000000000000000000000000000 PUSH1 0x0 DUP3 ADD MSTORE POP JUMP JUMPDEST PUSH1 0x0 PUSH2 0x238 PUSH1 0x9 DUP4 PUSH2 0x119 JUMP JUMPDEST SWAP2 POP PUSH2 0x243 DUP3 PUSH2 0x202 JUMP JUMPDEST PUSH1 0x20 DUP3 ADD SWAP1 POP SWAP2 SWAP1 POP JUMP JUMPDEST PUSH1 0x0 PUSH1 0x20 DUP3 ADD SWAP1 POP DUP2 DUP2 SUB PUSH1 0x0 DUP4 ADD MSTORE PUSH2 0x267 DUP2 PUSH2 0x22B JUMP JUMPDEST SWAP1 POP SWAP2 SWAP1 POP JUMP INVALID LOG2 PUSH5 0x6970667358 0x22 SLT KECCAK256 MSTORE8 ORIGIN PUSH20 0xFA9278430E56E8C9A326038D6B1DEBE4DBCAA30F SELFBALANCE SWAP5 PUSH12 0xBC30F5D0247A64736F6C6343 STOP ADDMOD SLT STOP CALLER "
				},
				"gasEstimates": {
					"creation": {
						"codeDepositCost": "135200",
						"executionCost": "183",
						"totalCost": "135383"
					},
					"external": {
						"callA()": "infinite",
						"callB()": "infinite",
						"getName()": "1924"
					}
				},
				"methodIdentifiers": {
					"callA()": "e7f09e05",
					"callB()": "44fd4fa0",
					"getName()": "17d7de7c"
				}
			},
			"storageLayout": {
				"storage": [],
				"types": null
			},
			"userdoc": {
				"kind": "user",
				"methods": {},
				"version": 1
			}
		}
	}
}