{
	"library.sol": {
		"Math": {
			"abi": [
				{
					"inputs": [
						{
							"internalType": "uint256",
							"name": "x",
							"type": "uint256"
						}
					],
					"name": "squared",
					"outputs": [
						{
							"internalType": "uint256",
							"name": "",
							"type": "uint256"
						}
					],
					"stateMutability": "pure",
					"type": "function"
				}
			],
			"devdoc": {
				"kind": "dev",
				"methods": {},
				"version": 1
			},
			"evm": {
				"assembly": "    /* \"library.sol\":63:169  library Math{... */\n  dataSize(sub_0)\n  dataOffset(sub_0)\n  0x0b\n  dup3\n  dup3\n  dup3\n  codecopy\n  dup1\n  mload\n  0x00\n  byte\n  0x73\n  eq\n  tag_1\n  jumpi\n  mstore(0x00, 0x4e487b7100000000000000000000000000000000000000000000000000000000)\n  mstore(0x04, 0x00)\n  revert(0x00, 0x24)\ntag_1:\n  mstore(0x00, address)\n  0x73\n  dup2\n  mstore8\n  dup3\n  dup2\n  return\nstop\n\nsub_0: assembly {\n        /* \"library.sol\":63:169  library Math{... */\n      eq(address, deployTimeAddress())\n      mstore(0x40, 0x80)\n      jumpi(tag_1, lt(calldatasize, 0x04))\n      shr(0xe0, calldataload(0x00))\n      dup1\n      0x11a1d3e8\n      eq\n      tag_2\n      jumpi\n    tag_1:\n      0x00\n      dup1\n      revert\n        /* \"library.sol\":84:164  function squared(uint x) pure public returns(uint){... */\n    tag_2:\n      tag_3\n      0x04\n      dup1\n      calldatasize\n      sub\n      dup2\n      add\n      swap1\n      tag_4\n      swap2\n      swap1\n      tag_5\n      jump\t// in\n    tag_4:\n      tag_6\n      jump\t// in\n    tag_3:\n      mload(0x40)\n      tag_7\n      swap2\n      swap1\n      tag_8\n      jump\t// in\n    tag_7:\n      mload(0x40)\n      dup1\n      swap2\n      sub\n      swap1\n      return\n    tag_6:\n        /* \"library.sol\":129:133  uint */\n      0x00\n        /* \"library.sol\":155:156  2 */\n      0x02\n        /* \"library.sol\":152:153  x */\n      dup3\n        /* \"library.sol\":152:156  x**2 */\n      tag_10\n      swap2\n      swap1\n      tag_11\n      jump\t// in\n    tag_10:\n        /* \"library.sol\":145:156  return x**2 */\n      swap1\n      pop\n        /* \"library.sol\":84:164  function squared(uint x) pure public returns(uint){... */\n      swap2\n      swap1\n      pop\n      jump\t// out\n        /* \"#utility.yul\":88:205   */\n    tag_13:\n        /* \"#utility.yul\":197:198   */\n      0x00\n        /* \"#utility.yul\":194:195   */\n      dup1\n        /* \"#utility.yul\":187:199   */\n      revert\n        /* \"#utility.yul\":334:411   */\n    tag_15:\n        /* \"#utility.yul\":371:378   */\n      0x00\n        /* \"#utility.yul\":400:405   */\n      dup2\n        /* \"#utility.yul\":389:405   */\n      swap1\n      pop\n        /* \"#utility.yul\":334:411   */\n      swap2\n      swap1\n      pop\n      jump\t// out\n        /* \"#utility.yul\":417:539   */\n    tag_16:\n        /* \"#utility.yul\":490:514   */\n      tag_30\n        /* \"#utility.yul\":508:513   */\n      dup2\n        /* \"#utility.yul\":490:514   */\n      tag_15\n      jump\t// in\n    tag_30:\n        /* \"#utility.yul\":483:488   */\n      dup2\n        /* \"#utility.yul\":480:515   */\n      eq\n        /* \"#utility.yul\":470:533   */\n      tag_31\n      jumpi\n        /* \"#utility.yul\":529:530   */\n      0x00\n        /* \"#utility.yul\":526:527   */\n      dup1\n        /* \"#utility.yul\":519:531   */\n      revert\n        /* \"#utility.yul\":470:533   */\n    tag_31:\n        /* \"#utility.yul\":417:539   */\n      pop\n      jump\t// out\n        /* \"#utility.yul\":545:684   */\n    tag_17:\n        /* \"#utility.yul\":591:596   */\n      0x00\n        /* \"#utility.yul\":629:635   */\n      dup2\n        /* \"#utility.yul\":616:636   */\n      calldataload\n        /* \"#utility.yul\":607:636   */\n      swap1\n      pop\n        /* \"#utility.yul\":645:678   */\n      tag_33\n        /* \"#utility.yul\":672:677   */\n      dup2\n        /* \"#utility.yul\":645:678   */\n      tag_16\n      jump\t// in\n    tag_33:\n        /* \"#utility.yul\":545:684   */\n      swap3\n      swap2\n      pop\n      pop\n      jump\t// out\n        /* \"#utility.yul\":690:1019   */\n    tag_5:\n        /* \"#utility.yul\":749:755   */\n      0x00\n        /* \"#utility.yul\":798:800   */\n      0x20\n        /* \"#utility.yul\":786:795   */\n      dup3\n        /* \"#utility.yul\":777:784   */\n      dup5\n        /* \"#utility.yul\":773:796   */\n      sub\n        /* \"#utility.yul\":769:801   */\n      slt\n        /* \"#utility.yul\":766:885   */\n      iszero\n      tag_35\n      jumpi\n        /* \"#utility.yul\":804:883   */\n      tag_36\n      tag_13\n      jump\t// in\n    tag_36:\n        /* \"#utility.yul\":766:885   */\n    tag_35:\n        /* \"#utility.yul\":924:925   */\n      0x00\n        /* \"#utility.yul\":949:1002   */\n      tag_37\n        /* \"#utility.yul\":994:1001   */\n      dup5\n        /* \"#utility.yul\":985:991   */\n      dup3\n        /* \"#utility.yul\":974:983   */\n      dup6\n        /* \"#utility.yul\":970:992   */\n      add\n        /* \"#utility.yul\":949:1002   */\n      tag_17\n      jump\t// in\n    tag_37:\n        /* \"#utility.yul\":939:1002   */\n      swap2\n      pop\n        /* \"#utility.yul\":895:1012   */\n      pop\n        /* \"#utility.yul\":690:1019   */\n      swap3\n      swap2\n      pop\n      pop\n      jump\t// out\n        /* \"#utility.yul\":1025:1151   */\n    tag_18:\n        /* \"#utility.yul\":1120:1144   */\n      tag_39\n        /* \"#utility.yul\":1138:1143   */\n      dup2\n        /* \"#utility.yul\":1120:1144   */\n      tag_15\n      jump\t// in\n    tag_39:\n        /* \"#utility.yul\":1115:1118   */\n      dup3\n        /* \"#utility.yul\":1108:1145   */\n      mstore\n        /* \"#utility.yul\":1025:1151   */\n      pop\n      pop\n      jump\t// out\n        /* \"#utility.yul\":1157:1395   */\n    tag_8:\n        /* \"#utility.yul\":1258:1262   */\n      0x00\n        /* \"#utility.yul\":1296:1298   */\n      0x20\n        /* \"#utility.yul\":1285:1294   */\n      dup3\n        /* \"#utility.yul\":1281:1299   */\n      add\n        /* \"#utility.yul\":1273:1299   */\n      swap1\n      pop\n        /* \"#utility.yul\":1309:1388   */\n      tag_41\n        /* \"#utility.yul\":1385:1386   */\n      0x00\n        /* \"#utility.yul\":1374:1383   */\n      dup4\n        /* \"#utility.yul\":1370:1387   */\n      add\n        /* \"#utility.yul\":1361:1367   */\n      dup5\n        /* \"#utility.yul\":1309:1388   */\n      tag_18\n      jump\t// in\n    tag_41:\n        /* \"#utility.yul\":1157:1395   */\n      swap3\n      swap2\n      pop\n      pop\n      jump\t// out\n        /* \"#utility.yul\":1401:1581   */\n    tag_19:\n        /* \"#utility.yul\":1449:1526   */\n      0x4e487b7100000000000000000000000000000000000000000000000000000000\n        /* \"#utility.yul\":1446:1447   */\n      0x00\n        /* \"#utility.yul\":1439:1527   */\n      mstore\n        /* \"#utility.yul\":1546:1550   */\n      0x11\n        /* \"#utility.yul\":1543:1544   */\n      0x04\n        /* \"#utility.yul\":1536:1551   */\n      mstore\n        /* \"#utility.yul\":1570:1574   */\n      0x24\n        /* \"#utility.yul\":1567:1568   */\n      0x00\n        /* \"#utility.yul\":1560:1575   */\n      revert\n        /* \"#utility.yul\":1587:1689   */\n    tag_20:\n        /* \"#utility.yul\":1629:1637   */\n      0x00\n        /* \"#utility.yul\":1676:1681   */\n      dup2\n        /* \"#utility.yul\":1673:1674   */\n      0x01\n        /* \"#utility.yul\":1669:1682   */\n      shr\n        /* \"#utility.yul\":1648:1682   */\n      swap1\n      pop\n        /* \"#utility.yul\":1587:1689   */\n      swap2\n      swap1\n      pop\n      jump\t// out\n        /* \"#utility.yul\":1695:2543   */\n    tag_21:\n        /* \"#utility.yul\":1756:1761   */\n      0x00\n        /* \"#utility.yul\":1763:1767   */\n      dup1\n        /* \"#utility.yul\":1787:1793   */\n      dup3\n        /* \"#utility.yul\":1778:1793   */\n      swap2\n      pop\n        /* \"#utility.yul\":1811:1816   */\n      dup4\n        /* \"#utility.yul\":1802:1816   */\n      swap1\n      pop\n        /* \"#utility.yul\":1825:2537   */\n    tag_45:\n        /* \"#utility.yul\":1846:1847   */\n      0x01\n        /* \"#utility.yul\":1836:1844   */\n      dup6\n        /* \"#utility.yul\":1833:1848   */\n      gt\n        /* \"#utility.yul\":1825:2537   */\n      iszero\n      tag_47\n      jumpi\n        /* \"#utility.yul\":1941:1945   */\n      dup1\n        /* \"#utility.yul\":1936:1939   */\n      dup7\n        /* \"#utility.yul\":1932:1946   */\n      div\n        /* \"#utility.yul\":1926:1930   */\n      dup2\n        /* \"#utility.yul\":1923:1947   */\n      gt\n        /* \"#utility.yul\":1920:1970   */\n      iszero\n      tag_48\n      jumpi\n        /* \"#utility.yul\":1950:1968   */\n      tag_49\n      tag_19\n      jump\t// in\n    tag_49:\n        /* \"#utility.yul\":1920:1970   */\n    tag_48:\n        /* \"#utility.yul\":2000:2001   */\n      0x01\n        /* \"#utility.yul\":1990:1998   */\n      dup6\n        /* \"#utility.yul\":1986:2002   */\n      and\n        /* \"#utility.yul\":1983:2434   */\n      iszero\n      tag_50\n      jumpi\n        /* \"#utility.yul\":2415:2419   */\n      dup1\n        /* \"#utility.yul\":2408:2413   */\n      dup3\n        /* \"#utility.yul\":2404:2420   */\n      mul\n        /* \"#utility.yul\":2395:2420   */\n      swap2\n      pop\n        /* \"#utility.yul\":1983:2434   */\n    tag_50:\n        /* \"#utility.yul\":2465:2469   */\n      dup1\n        /* \"#utility.yul\":2459:2463   */\n      dup2\n        /* \"#utility.yul\":2455:2470   */\n      mul\n        /* \"#utility.yul\":2447:2470   */\n      swap1\n      pop\n        /* \"#utility.yul\":2495:2527   */\n      tag_51\n        /* \"#utility.yul\":2518:2526   */\n      dup6\n        /* \"#utility.yul\":2495:2527   */\n      tag_20\n      jump\t// in\n    tag_51:\n        /* \"#utility.yul\":2483:2527   */\n      swap5\n      pop\n        /* \"#utility.yul\":1825:2537   */\n      jump(tag_45)\n    tag_47:\n        /* \"#utility.yul\":1695:2543   */\n      swap5\n      pop\n      swap5\n      swap3\n      pop\n      pop\n      pop\n      jump\t// out\n        /* \"#utility.yul\":2549:3622   */\n    tag_22:\n        /* \"#utility.yul\":2603:2608   */\n      0x00\n        /* \"#utility.yul\":2794:2802   */\n      dup3\n        /* \"#utility.yul\":2784:2824   */\n      tag_53\n      jumpi\n        /* \"#utility.yul\":2815:2816   */\n      0x01\n        /* \"#utility.yul\":2806:2816   */\n      swap1\n      pop\n        /* \"#utility.yul\":2817:2822   */\n      jump(tag_52)\n        /* \"#utility.yul\":2784:2824   */\n    tag_53:\n        /* \"#utility.yul\":2843:2847   */\n      dup2\n        /* \"#utility.yul\":2833:2869   */\n      tag_54\n      jumpi\n        /* \"#utility.yul\":2860:2861   */\n      0x00\n        /* \"#utility.yul\":2851:2861   */\n      swap1\n      pop\n        /* \"#utility.yul\":2862:2867   */\n      jump(tag_52)\n        /* \"#utility.yul\":2833:2869   */\n    tag_54:\n        /* \"#utility.yul\":2929:2933   */\n      dup2\n        /* \"#utility.yul\":2977:2978   */\n      0x01\n        /* \"#utility.yul\":2972:2999   */\n      dup2\n      eq\n      tag_56\n      jumpi\n        /* \"#utility.yul\":3013:3014   */\n      0x02\n        /* \"#utility.yul\":3008:3199   */\n      dup2\n      eq\n      tag_57\n      jumpi\n        /* \"#utility.yul\":2922:3199   */\n      jump(tag_55)\n        /* \"#utility.yul\":2972:2999   */\n    tag_56:\n        /* \"#utility.yul\":2990:2991   */\n      0x01\n        /* \"#utility.yul\":2981:2991   */\n      swap2\n      pop\n        /* \"#utility.yul\":2992:2997   */\n      pop\n      jump(tag_52)\n        /* \"#utility.yul\":3008:3199   */\n    tag_57:\n        /* \"#utility.yul\":3053:3056   */\n      0xff\n        /* \"#utility.yul\":3043:3051   */\n      dup5\n        /* \"#utility.yul\":3040:3057   */\n      gt\n        /* \"#utility.yul\":3037:3080   */\n      iszero\n      tag_58\n      jumpi\n        /* \"#utility.yul\":3060:3078   */\n      tag_59\n      tag_19\n      jump\t// in\n    tag_59:\n        /* \"#utility.yul\":3037:3080   */\n    tag_58:\n        /* \"#utility.yul\":3109:3117   */\n      dup4\n        /* \"#utility.yul\":3106:3107   */\n      0x02\n        /* \"#utility.yul\":3102:3118   */\n      exp\n        /* \"#utility.yul\":3093:3118   */\n      swap2\n      pop\n        /* \"#utility.yul\":3144:3147   */\n      dup5\n        /* \"#utility.yul\":3137:3142   */\n      dup3\n        /* \"#utility.yul\":3134:3148   */\n      gt\n        /* \"#utility.yul\":3131:3171   */\n      iszero\n      tag_60\n      jumpi\n        /* \"#utility.yul\":3151:3169   */\n      tag_61\n      tag_19\n      jump\t// in\n    tag_61:\n        /* \"#utility.yul\":3131:3171   */\n    tag_60:\n        /* \"#utility.yul\":3184:3189   */\n      pop\n      jump(tag_52)\n        /* \"#utility.yul\":2922:3199   */\n    tag_55:\n      pop\n        /* \"#utility.yul\":3308:3310   */\n      0x20\n        /* \"#utility.yul\":3298:3306   */\n      dup4\n        /* \"#utility.yul\":3295:3311   */\n      lt\n        /* \"#utility.yul\":3289:3292   */\n      0x0133\n        /* \"#utility.yul\":3283:3287   */\n      dup4\n        /* \"#utility.yul\":3280:3293   */\n      lt\n        /* \"#utility.yul\":3276:3312   */\n      and\n        /* \"#utility.yul\":3258:3260   */\n      0x4e\n        /* \"#utility.yul\":3248:3256   */\n      dup5\n        /* \"#utility.yul\":3245:3261   */\n      lt\n        /* \"#utility.yul\":3240:3242   */\n      0x0b\n        /* \"#utility.yul\":3234:3238   */\n      dup5\n        /* \"#utility.yul\":3231:3243   */\n      lt\n        /* \"#utility.yul\":3227:3262   */\n      and\n        /* \"#utility.yul\":3211:3322   */\n      or\n        /* \"#utility.yul\":3208:3454   */\n      iszero\n      tag_62\n      jumpi\n        /* \"#utility.yul\":3364:3372   */\n      dup3\n        /* \"#utility.yul\":3358:3362   */\n      dup3\n        /* \"#utility.yul\":3354:3373   */\n      exp\n        /* \"#utility.yul\":3345:3373   */\n      swap1\n      pop\n        /* \"#utility.yul\":3399:3402   */\n      dup4\n        /* \"#utility.yul\":3392:3397   */\n      dup2\n        /* \"#utility.yul\":3389:3403   */\n      gt\n        /* \"#utility.yul\":3386:3426   */\n      iszero\n      tag_63\n      jumpi\n        /* \"#utility.yul\":3406:3424   */\n      tag_64\n      tag_19\n      jump\t// in\n    tag_64:\n        /* \"#utility.yul\":3386:3426   */\n    tag_63:\n        /* \"#utility.yul\":3439:3444   */\n      jump(tag_52)\n        /* \"#utility.yul\":3208:3454   */\n    tag_62:\n        /* \"#utility.yul\":3479:3521   */\n      tag_65\n        /* \"#utility.yul\":3517:3520   */\n      dup5\n        /* \"#utility.yul\":3507:3515   */\n      dup5\n        /* \"#utility.yul\":3501:3505   */\n      dup5\n        /* \"#utility.yul\":3498:3499   */\n      0x01\n        /* \"#utility.yul\":3479:3521   */\n      tag_21\n      jump\t// in\n    tag_65:\n        /* \"#utility.yul\":3464:3521   */\n      swap3\n      pop\n      swap1\n      pop\n        /* \"#utility.yul\":3553:3557   */\n      dup2\n        /* \"#utility.yul\":3548:3551   */\n      dup5\n        /* \"#utility.yul\":3544:3558   */\n      div\n        /* \"#utility.yul\":3537:3542   */\n      dup2\n        /* \"#utility.yul\":3534:3559   */\n      gt\n        /* \"#utility.yul\":3531:3582   */\n      iszero\n      tag_66\n      jumpi\n        /* \"#utility.yul\":3562:3580   */\n      tag_67\n      tag_19\n      jump\t// in\n    tag_67:\n        /* \"#utility.yul\":3531:3582   */\n    tag_66:\n        /* \"#utility.yul\":3611:3615   */\n      dup2\n        /* \"#utility.yul\":3604:3609   */\n      dup2\n        /* \"#utility.yul\":3600:3616   */\n      mul\n        /* \"#utility.yul\":3591:3616   */\n      swap1\n      pop\n        /* \"#utility.yul\":2549:3622   */\n    tag_52:\n      swap4\n      swap3\n      pop\n      pop\n      pop\n      jump\t// out\n        /* \"#utility.yul\":3628:3714   */\n    tag_23:\n        /* \"#utility.yul\":3663:3670   */\n      0x00\n        /* \"#utility.yul\":3703:3707   */\n      0xff\n        /* \"#utility.yul\":3696:3701   */\n      dup3\n        /* \"#utility.yul\":3692:3708   */\n      and\n        /* \"#utility.yul\":3681:3708   */\n      swap1\n      pop\n        /* \"#utility.yul\":3628:3714   */\n      swap2\n      swap1\n      pop\n      jump\t// out\n        /* \"#utility.yul\":3720:4001   */\n    tag_11:\n        /* \"#utility.yul\":3778:3783   */\n      0x00\n        /* \"#utility.yul\":3802:3825   */\n      tag_70\n        /* \"#utility.yul\":3820:3824   */\n      dup3\n        /* \"#utility.yul\":3802:3825   */\n      tag_15\n      jump\t// in\n    tag_70:\n        /* \"#utility.yul\":3794:3825   */\n      swap2\n      pop\n        /* \"#utility.yul\":3846:3871   */\n      tag_71\n        /* \"#utility.yul\":3862:3870   */\n      dup4\n        /* \"#utility.yul\":3846:3871   */\n      tag_23\n      jump\t// in\n    tag_71:\n        /* \"#utility.yul\":3834:3871   */\n      swap3\n      pop\n        /* \"#utility.yul\":3890:3994   */\n      tag_72\n        /* \"#utility.yul\":3927:3993   */\n      0xffffffffffffffffffffffffffffffffffffffffffffffffffffffffffffffff\n        /* \"#utility.yul\":3917:3925   */\n      dup5\n        /* \"#utility.yul\":3911:3915   */\n      dup5\n        /* \"#utility.yul\":3890:3994   */\n      tag_22\n      jump\t// in\n    tag_72:\n        /* \"#utility.yul\":3881:3994   */\n      swap1\n      pop\n        /* \"#utility.yul\":3720:4001   */\n      swap3\n      swap2\n      pop\n      pop\n      jump\t// out\n\n    auxdata: 0xa2646970667358221220313a1214446a674948d7cc2b4e5e30ea60e5430cf35f6de1d6d7410811e307a964736f6c63430008120033\n}\n",
				"bytecode": {
					"linkReferences": {},
					"object": "610302610053600b82828239805160001a607314610046577f4e487b7100000000000000000000000000000000000000000000000000000000600052600060045260246000fd5b30600052607381538281f3fe73000000000000000000000000000000000000000030146080604052600436106100355760003560e01c806311a1d3e81461003a575b600080fd5b610054600480360381019061004f91906100bb565b61006a565b60405161006191906100f7565b60405180910390f35b60006002826100799190610281565b9050919050565b600080fd5b6000819050919050565b61009881610085565b81146100a357600080fd5b50565b6000813590506100b58161008f565b92915050565b6000602082840312156100d1576100d0610080565b5b60006100df848285016100a6565b91505092915050565b6100f181610085565b82525050565b600060208201905061010c60008301846100e8565b92915050565b7f4e487b7100000000000000000000000000000000000000000000000000000000600052601160045260246000fd5b60008160011c9050919050565b6000808291508390505b60018511156101985780860481111561017457610173610112565b5b60018516156101835780820291505b808102905061019185610141565b9450610158565b94509492505050565b6000826101b1576001905061026d565b816101bf576000905061026d565b81600181146101d557600281146101df5761020e565b600191505061026d565b60ff8411156101f1576101f0610112565b5b8360020a91508482111561020857610207610112565b5b5061026d565b5060208310610133831016604e8410600b84101617156102435782820a90508381111561023e5761023d610112565b5b61026d565b610250848484600161014e565b9250905081840481111561026757610266610112565b5b81810290505b9392505050565b600060ff82169050919050565b600061028c82610085565b915061029783610274565b92506102c47fffffffffffffffffffffffffffffffffffffffffffffffffffffffffffffffff84846101a1565b90509291505056fea2646970667358221220313a1214446a674948d7cc2b4e5e30ea60e5430cf35f6de1d6d7410811e307a964736f6c63430008120033",
					"opcodes": "PUSH2 0x302 PUSH2 0x53 PUSH1 0xB DUP3 DUP3 DUP3 CODECOPY DUP1 MLOAD PUSH1 0x0 BYTE PUSH1 0x73 EQ PUSH2 0x46 JUMPI PUSH32 0x4E487B7100000000000000000000000000000000000000000000000000000000 PUSH1 0x0 MSTORE PUSH1 0x0 PUSH1 0x4 MSTORE PUSH1 0x24 PUSH1 0x0 REVERT JUMPDEST ADDRESS PUSH1 0x0 MSTORE PUSH1 0x73 DUP2 MSTORE8 DUP3 DUP2 RETURN INVALID PUSH20 0x0 ADDRESS EQ PUSH1 0x80 PUSH1 0x40 MSTORE PUSH1 0x4 CALLDATASIZE LT PUSH2 0x35 JUMPI PUSH1 0x0 CALLDATALOAD PUSH1 0xE0 SHR DUP1 PUSH4 0x11A1D3E8 EQ PUSH2 0x3A JUMPI JUMPDEST PUSH1 0x0 DUP1 REVERT JUMPDEST PUSH2 0x54 PUSH1 0x4 DUP1 CALLDATASIZE SUB DUP2 ADD SWAP1 PUSH2 0x4F SWAP2 SWAP1 PUSH2 0xBB JUMP JUMPDEST PUSH2 0x6A JUMP JUMPDEST PUSH1 0x40 MLOAD PUSH2 0x61 SWAP2 SWAP1 PUSH2 0xF7 JUMP JUMPDEST PUSH1 0x40 MLOAD DUP1 SWAP2 SUB SWAP1 RETURN JUMPDEST PUSH1 0x0 PUSH1 0x2 DUP3 PUSH2 0x79 SWAP2 SWAP1 PUSH2 0x281 JUMP JUMPDEST SWAP1 POP SWAP2 SWAP1 POP JUMP JUMPDEST PUSH1 0x0 DUP1 REVERT JUMPDEST PUSH1 0x0 DUP2 SWAP1 POP SWAP2 SWAP1 POP JUMP JUMPDEST PUSH2 0x98 DUP2 PUSH2 0x85 JUMP JUMPDEST DUP2 EQ PUSH2 0xA3 JUMPI PUSH1 0x0 DUP1 REVERT JUMPDEST POP JUMP JUMPDEST PUSH1 0x0 DUP2 CALLDATALOAD SWAP1 POP PUSH2 0xB5 DUP2 PUSH2 0x8F JUMP JUMPDEST SWAP3 SWAP2 POP POP JUMP JUMPDEST PUSH1 0x0 PUSH1 0x20 DUP3 DUP5 SUB SLT ISZERO PUSH2 0xD1 JUMPI PUSH2 0xD0 PUSH2 0x80 JUMP JUMPDEST JUMPDEST PUSH1 0x0 PUSH2 0xDF DUP5 DUP3 DUP6 ADD PUSH2 0xA6 JUMP JUMPDEST SWAP2 POP POP SWAP3 SWAP2 POP POP JUMP JUMPDEST PUSH2 0xF1 DUP2 PUSH2 0x85 JUMP JUMPDEST DUP3 MSTORE POP POP JUMP JUMPDEST PUSH1 0x0 PUSH1 0x20 DUP3 ADD SWAP1 POP PUSH2 0x10C PUSH1 0x0 DUP4 ADD DUP5 PUSH2 0xE8 JUMP JUMPDEST SWAP3 SWAP2 POP POP JUMP JUMPDEST PUSH32 0x4E487B7100000000000000000000000000000000000000000000000000000000 PUSH1 0x0 MSTORE PUSH1 0x11 PUSH1 0x4 MSTORE PUSH1 0x24 PUSH1 0x0 REVERT JUMPDEST PUSH1 0x0 DUP2 PUSH1 0x1 SHR SWAP1 POP SWAP2 SWAP1 POP JUMP JUMPDEST PUSH1 0x0 DUP1 DUP3 SWAP2 POP DUP4 SWAP1 POP JUMPDEST PUSH1 0x1 DUP6 GT ISZERO PUSH2 0x198 JUMPI DUP1 DUP7 DIV DUP2 GT ISZERO PUSH2 0x174 JUMPI PUSH2 0x173 PUSH2 0x112 JUMP JUMPDEST JUMPDEST PUSH1 0x1 DUP6 AND ISZERO PUSH2 0x183 JUMPI DUP1 DUP3 MUL SWAP2 POP JUMPDEST DUP1 DUP2 MUL SWAP1 POP PUSH2 0x191 DUP6 PUSH2 0x141 JUMP JUMPDEST SWAP5 POP PUSH2 0x158 JUMP JUMPDEST SWAP5 POP SWAP5 SWAP3 POP POP POP JUMP JUMPDEST PUSH1 0x0 DUP3 PUSH2 0x1B1 JUMPI PUSH1 0x1 SWAP1 POP PUSH2 0x26D JUMP JUMPDEST DUP2 PUSH2 0x1BF JUMPI PUSH1 0x0 SWAP1 POP PUSH2 0x26D JUMP JUMPDEST DUP2 PUSH1 0x1 DUP2 EQ PUSH2 0x1D5 JUMPI PUSH1 0x2 DUP2 EQ PUSH2 0x1DF JUMPI PUSH2 0x20E JUMP JUMPDEST PUSH1 0x1 SWAP2 POP POP PUSH2 0x26D JUMP JUMPDEST PUSH1 0xFF DUP5 GT ISZERO PUSH2 0x1F1 JUMPI PUSH2 0x1F0 PUSH2 0x112 JUMP JUMPDEST JUMPDEST DUP4 PUSH1 0x2 EXP SWAP2 POP DUP5 DUP3 GT ISZERO PUSH2 0x208 JUMPI PUSH2 0x207 PUSH2 0x112 JUMP JUMPDEST JUMPDEST POP PUSH2 0x26D JUMP JUMPDEST POP PUSH1 0x20 DUP4 LT PUSH2 0x133 DUP4 LT AND PUSH1 0x4E DUP5 LT PUSH1 0xB DUP5 LT AND OR ISZERO PUSH2 0x243 JUMPI DUP3 DUP3 EXP SWAP1 POP DUP4 DUP2 GT ISZERO PUSH2 0x23E JUMPI PUSH2 0x23D PUSH2 0x112 JUMP JUMPDEST JUMPDEST PUSH2 0x26D JUMP JUMPDEST PUSH2 0x250 DUP5 DUP5 DUP5 PUSH1 0x1 PUSH2 0x14E JUMP JUMPDEST SWAP3 POP SWAP1 POP DUP2 DUP5 DIV DUP2 GT ISZERO PUSH2 0x267 JUMPI PUSH2 0x266 PUSH2 0x112 JUMP JUMPDEST JUMPDEST DUP2 DUP2 MUL SWAP1 POP JUMPDEST SWAP4 SWAP3 POP POP POP JUMP JUMPDEST PUSH1 0x0 PUSH1 0xFF DUP3 AND SWAP1 POP SWAP2 SWAP1 POP JUMP JUMPDEST PUSH1 0x0 PUSH2 0x28C DUP3 PUSH2 0x85 JUMP JUMPDEST SWAP2 POP PUSH2 0x297 DUP4 PUSH2 0x274 JUMP JUMPDEST SWAP3 POP PUSH2 0x2C4 PUSH32 0xFFFFFFFFFFFFFFFFFFFFFFFFFFFFFFFFFFFFFFFFFFFFFFFFFFFFFFFFFFFFFFFF DUP5 DUP5 PUSH2 0x1A1 JUMP JUMPDEST SWAP1 POP SWAP3 SWAP2 POP POP JUMP INVALID LOG2 PUSH5 0x6970667358 0x22 SLT KECCAK256 BALANCE GASPRICE SLT EQ PREVRANDAO PUSH11 0x674948D7CC2B4E5E30EA60 0xE5 NUMBER 0xC RETURN 0x5F PUSH14 0xE1D6D7410811E307A964736F6C63 NUMBER STOP ADDMOD SLT STOP CALLER "
				},
				"gasEstimates": {
					"creation": {
						"codeDepositCost": "154000",
						"executionCost": "227",
						"totalCost": "154227"
					},
					"external": {
						"squared(uint256)": "infinite"
					}
				},
				"methodIdentifiers": {
					"squared(uint256)": "11a1d3e8"
				}
			},
			"storageLayout": {
				"storage": [],
				"types": null
			},
			"userdoc": {
				"kind": "user",
				"methods": {},
				"version": 1
			}
		}
	}
}