{
	"trycatch.sol": {
		"Functions": {
			"abi": [
				{
					"inputs": [
						{
							"internalType": "uint8",
							"name": "_num",
							"type": "uint8"
						}
					],
					"name": "squaredFunc",
					"outputs": [
						{
							"internalType": "uint8",
							"name": "",
							"type": "uint8"
						}
					],
					"stateMutability": "pure",
					"type": "function"
				}
			],
			"devdoc": {
				"kind": "dev",
				"methods": {},
				"version": 1
			},
			"evm": {
				"assembly": "    /* \"trycatch.sol\":63:264  contract Functions{... */\n  mstore(0x40, 0x80)\n  callvalue\n  dup1\n  iszero\n  tag_1\n  jumpi\n  0x00\n  dup1\n  revert\ntag_1:\n  pop\n  dataSize(sub_0)\n  dup1\n  dataOffset(sub_0)\n  0x00\n  codecopy\n  0x00\n  return\nstop\n\nsub_0: assembly {\n        /* \"trycatch.sol\":63:264  contract Functions{... */\n      mstore(0x40, 0x80)\n      callvalue\n      dup1\n      iszero\n      tag_1\n      jumpi\n      0x00\n      dup1\n      revert\n    tag_1:\n      pop\n      jumpi(tag_2, lt(calldatasize, 0x04))\n      shr(0xe0, calldataload(0x00))\n      dup1\n      0x12eda0be\n      eq\n      tag_3\n      jumpi\n    tag_2:\n      0x00\n      dup1\n      revert\n        /* \"trycatch.sol\":90:259  function squaredFunc(uint8 _num) public pure returns(uint8){... */\n    tag_3:\n      tag_4\n      0x04\n      dup1\n      calldatasize\n      sub\n      dup2\n      add\n      swap1\n      tag_5\n      swap2\n      swap1\n      tag_6\n      jump\t// in\n    tag_5:\n      tag_7\n      jump\t// in\n    tag_4:\n      mload(0x40)\n      tag_8\n      swap2\n      swap1\n      tag_9\n      jump\t// in\n    tag_8:\n      mload(0x40)\n      dup1\n      swap2\n      sub\n      swap1\n      return\n    tag_7:\n        /* \"trycatch.sol\":143:148  uint8 */\n      0x00\n        /* \"trycatch.sol\":170:174  _num */\n      dup2\n        /* \"trycatch.sol\":168:174  1<_num */\n      0xff\n      and\n        /* \"trycatch.sol\":168:169  1 */\n      0x01\n        /* \"trycatch.sol\":168:174  1<_num */\n      lt\n        /* \"trycatch.sol\":168:185  1<_num && _num<11 */\n      dup1\n      iszero\n      tag_11\n      jumpi\n      pop\n        /* \"trycatch.sol\":183:185  11 */\n      0x0b\n        /* \"trycatch.sol\":178:182  _num */\n      dup3\n        /* \"trycatch.sol\":178:185  _num<11 */\n      0xff\n      and\n      lt\n        /* \"trycatch.sol\":168:185  1<_num && _num<11 */\n    tag_11:\n        /* \"trycatch.sol\":160:226  require(1<_num && _num<11,\"The number should be between 2 and 10\") */\n      tag_12\n      jumpi\n      mload(0x40)\n      0x08c379a000000000000000000000000000000000000000000000000000000000\n      dup2\n      mstore\n      0x04\n      add\n      tag_13\n      swap1\n      tag_14\n      jump\t// in\n    tag_13:\n      mload(0x40)\n      dup1\n      swap2\n      sub\n      swap1\n      revert\n    tag_12:\n        /* \"trycatch.sol\":250:251  2 */\n      0x02\n        /* \"trycatch.sol\":244:248  _num */\n      dup3\n        /* \"trycatch.sol\":244:251  _num**2 */\n      tag_15\n      swap2\n      swap1\n      tag_16\n      jump\t// in\n    tag_15:\n        /* \"trycatch.sol\":237:251  return _num**2 */\n      swap1\n      pop\n        /* \"trycatch.sol\":90:259  function squaredFunc(uint8 _num) public pure returns(uint8){... */\n      swap2\n      swap1\n      pop\n      jump\t// out\n        /* \"#utility.yul\":88:205   */\n    tag_18:\n        /* \"#utility.yul\":197:198   */\n      0x00\n        /* \"#utility.yul\":194:195   */\n      dup1\n        /* \"#utility.yul\":187:199   */\n      revert\n        /* \"#utility.yul\":334:420   */\n    tag_20:\n        /* \"#utility.yul\":369:376   */\n      0x00\n        /* \"#utility.yul\":409:413   */\n      0xff\n        /* \"#utility.yul\":402:407   */\n      dup3\n        /* \"#utility.yul\":398:414   */\n      and\n        /* \"#utility.yul\":387:414   */\n      swap1\n      pop\n        /* \"#utility.yul\":334:420   */\n      swap2\n      swap1\n      pop\n      jump\t// out\n        /* \"#utility.yul\":426:544   */\n    tag_21:\n        /* \"#utility.yul\":497:519   */\n      tag_37\n        /* \"#utility.yul\":513:518   */\n      dup2\n        /* \"#utility.yul\":497:519   */\n      tag_20\n      jump\t// in\n    tag_37:\n        /* \"#utility.yul\":490:495   */\n      dup2\n        /* \"#utility.yul\":487:520   */\n      eq\n        /* \"#utility.yul\":477:538   */\n      tag_38\n      jumpi\n        /* \"#utility.yul\":534:535   */\n      0x00\n        /* \"#utility.yul\":531:532   */\n      dup1\n        /* \"#utility.yul\":524:536   */\n      revert\n        /* \"#utility.yul\":477:538   */\n    tag_38:\n        /* \"#utility.yul\":426:544   */\n      pop\n      jump\t// out\n        /* \"#utility.yul\":550:685   */\n    tag_22:\n        /* \"#utility.yul\":594:599   */\n      0x00\n        /* \"#utility.yul\":632:638   */\n      dup2\n        /* \"#utility.yul\":619:639   */\n      calldataload\n        /* \"#utility.yul\":610:639   */\n      swap1\n      pop\n        /* \"#utility.yul\":648:679   */\n      tag_40\n        /* \"#utility.yul\":673:678   */\n      dup2\n        /* \"#utility.yul\":648:679   */\n      tag_21\n      jump\t// in\n    tag_40:\n        /* \"#utility.yul\":550:685   */\n      swap3\n      swap2\n      pop\n      pop\n      jump\t// out\n        /* \"#utility.yul\":691:1016   */\n    tag_6:\n        /* \"#utility.yul\":748:754   */\n      0x00\n        /* \"#utility.yul\":797:799   */\n      0x20\n        /* \"#utility.yul\":785:794   */\n      dup3\n        /* \"#utility.yul\":776:783   */\n      dup5\n        /* \"#utility.yul\":772:795   */\n      sub\n        /* \"#utility.yul\":768:800   */\n      slt\n        /* \"#utility.yul\":765:884   */\n      iszero\n      tag_42\n      jumpi\n        /* \"#utility.yul\":803:882   */\n      tag_43\n      tag_18\n      jump\t// in\n    tag_43:\n        /* \"#utility.yul\":765:884   */\n    tag_42:\n        /* \"#utility.yul\":923:924   */\n      0x00\n        /* \"#utility.yul\":948:999   */\n      tag_44\n        /* \"#utility.yul\":991:998   */\n      dup5\n        /* \"#utility.yul\":982:988   */\n      dup3\n        /* \"#utility.yul\":971:980   */\n      dup6\n        /* \"#utility.yul\":967:989   */\n      add\n        /* \"#utility.yul\":948:999   */\n      tag_22\n      jump\t// in\n    tag_44:\n        /* \"#utility.yul\":938:999   */\n      swap2\n      pop\n        /* \"#utility.yul\":894:1009   */\n      pop\n        /* \"#utility.yul\":691:1016   */\n      swap3\n      swap2\n      pop\n      pop\n      jump\t// out\n        /* \"#utility.yul\":1022:1134   */\n    tag_23:\n        /* \"#utility.yul\":1105:1127   */\n      tag_46\n        /* \"#utility.yul\":1121:1126   */\n      dup2\n        /* \"#utility.yul\":1105:1127   */\n      tag_20\n      jump\t// in\n    tag_46:\n        /* \"#utility.yul\":1100:1103   */\n      dup3\n        /* \"#utility.yul\":1093:1128   */\n      mstore\n        /* \"#utility.yul\":1022:1134   */\n      pop\n      pop\n      jump\t// out\n        /* \"#utility.yul\":1140:1354   */\n    tag_9:\n        /* \"#utility.yul\":1229:1233   */\n      0x00\n        /* \"#utility.yul\":1267:1269   */\n      0x20\n        /* \"#utility.yul\":1256:1265   */\n      dup3\n        /* \"#utility.yul\":1252:1270   */\n      add\n        /* \"#utility.yul\":1244:1270   */\n      swap1\n      pop\n        /* \"#utility.yul\":1280:1347   */\n      tag_48\n        /* \"#utility.yul\":1344:1345   */\n      0x00\n        /* \"#utility.yul\":1333:1342   */\n      dup4\n        /* \"#utility.yul\":1329:1346   */\n      add\n        /* \"#utility.yul\":1320:1326   */\n      dup5\n        /* \"#utility.yul\":1280:1347   */\n      tag_23\n      jump\t// in\n    tag_48:\n        /* \"#utility.yul\":1140:1354   */\n      swap3\n      swap2\n      pop\n      pop\n      jump\t// out\n        /* \"#utility.yul\":1360:1529   */\n    tag_24:\n        /* \"#utility.yul\":1444:1455   */\n      0x00\n        /* \"#utility.yul\":1478:1484   */\n      dup3\n        /* \"#utility.yul\":1473:1476   */\n      dup3\n        /* \"#utility.yul\":1466:1485   */\n      mstore\n        /* \"#utility.yul\":1518:1522   */\n      0x20\n        /* \"#utility.yul\":1513:1516   */\n      dup3\n        /* \"#utility.yul\":1509:1523   */\n      add\n        /* \"#utility.yul\":1494:1523   */\n      swap1\n      pop\n        /* \"#utility.yul\":1360:1529   */\n      swap3\n      swap2\n      pop\n      pop\n      jump\t// out\n        /* \"#utility.yul\":1535:1759   */\n    tag_25:\n        /* \"#utility.yul\":1675:1709   */\n      0x546865206e756d6265722073686f756c64206265206265747765656e20322061\n        /* \"#utility.yul\":1671:1672   */\n      0x00\n        /* \"#utility.yul\":1663:1669   */\n      dup3\n        /* \"#utility.yul\":1659:1673   */\n      add\n        /* \"#utility.yul\":1652:1710   */\n      mstore\n        /* \"#utility.yul\":1744:1751   */\n      0x6e64203130000000000000000000000000000000000000000000000000000000\n        /* \"#utility.yul\":1739:1741   */\n      0x20\n        /* \"#utility.yul\":1731:1737   */\n      dup3\n        /* \"#utility.yul\":1727:1742   */\n      add\n        /* \"#utility.yul\":1720:1752   */\n      mstore\n        /* \"#utility.yul\":1535:1759   */\n      pop\n      jump\t// out\n        /* \"#utility.yul\":1765:2131   */\n    tag_26:\n        /* \"#utility.yul\":1907:1910   */\n      0x00\n        /* \"#utility.yul\":1928:1995   */\n      tag_52\n        /* \"#utility.yul\":1992:1994   */\n      0x25\n        /* \"#utility.yul\":1987:1990   */\n      dup4\n        /* \"#utility.yul\":1928:1995   */\n      tag_24\n      jump\t// in\n    tag_52:\n        /* \"#utility.yul\":1921:1995   */\n      swap2\n      pop\n        /* \"#utility.yul\":2004:2097   */\n      tag_53\n        /* \"#utility.yul\":2093:2096   */\n      dup3\n        /* \"#utility.yul\":2004:2097   */\n      tag_25\n      jump\t// in\n    tag_53:\n        /* \"#utility.yul\":2122:2124   */\n      0x40\n        /* \"#utility.yul\":2117:2120   */\n      dup3\n        /* \"#utility.yul\":2113:2125   */\n      add\n        /* \"#utility.yul\":2106:2125   */\n      swap1\n      pop\n        /* \"#utility.yul\":1765:2131   */\n      swap2\n      swap1\n      pop\n      jump\t// out\n        /* \"#utility.yul\":2137:2556   */\n    tag_14:\n        /* \"#utility.yul\":2303:2307   */\n      0x00\n        /* \"#utility.yul\":2341:2343   */\n      0x20\n        /* \"#utility.yul\":2330:2339   */\n      dup3\n        /* \"#utility.yul\":2326:2344   */\n      add\n        /* \"#utility.yul\":2318:2344   */\n      swap1\n      pop\n        /* \"#utility.yul\":2390:2399   */\n      dup2\n        /* \"#utility.yul\":2384:2388   */\n      dup2\n        /* \"#utility.yul\":2380:2400   */\n      sub\n        /* \"#utility.yul\":2376:2377   */\n      0x00\n        /* \"#utility.yul\":2365:2374   */\n      dup4\n        /* \"#utility.yul\":2361:2378   */\n      add\n        /* \"#utility.yul\":2354:2401   */\n      mstore\n        /* \"#utility.yul\":2418:2549   */\n      tag_55\n        /* \"#utility.yul\":2544:2548   */\n      dup2\n        /* \"#utility.yul\":2418:2549   */\n      tag_26\n      jump\t// in\n    tag_55:\n        /* \"#utility.yul\":2410:2549   */\n      swap1\n      pop\n        /* \"#utility.yul\":2137:2556   */\n      swap2\n      swap1\n      pop\n      jump\t// out\n        /* \"#utility.yul\":2562:2742   */\n    tag_27:\n        /* \"#utility.yul\":2610:2687   */\n      0x4e487b7100000000000000000000000000000000000000000000000000000000\n        /* \"#utility.yul\":2607:2608   */\n      0x00\n        /* \"#utility.yul\":2600:2688   */\n      mstore\n        /* \"#utility.yul\":2707:2711   */\n      0x11\n        /* \"#utility.yul\":2704:2705   */\n      0x04\n        /* \"#utility.yul\":2697:2712   */\n      mstore\n        /* \"#utility.yul\":2731:2735   */\n      0x24\n        /* \"#utility.yul\":2728:2729   */\n      0x00\n        /* \"#utility.yul\":2721:2736   */\n      revert\n        /* \"#utility.yul\":2748:2850   */\n    tag_28:\n        /* \"#utility.yul\":2790:2798   */\n      0x00\n        /* \"#utility.yul\":2837:2842   */\n      dup2\n        /* \"#utility.yul\":2834:2835   */\n      0x01\n        /* \"#utility.yul\":2830:2843   */\n      shr\n        /* \"#utility.yul\":2809:2843   */\n      swap1\n      pop\n        /* \"#utility.yul\":2748:2850   */\n      swap2\n      swap1\n      pop\n      jump\t// out\n        /* \"#utility.yul\":2856:3704   */\n    tag_29:\n        /* \"#utility.yul\":2917:2922   */\n      0x00\n        /* \"#utility.yul\":2924:2928   */\n      dup1\n        /* \"#utility.yul\":2948:2954   */\n      dup3\n        /* \"#utility.yul\":2939:2954   */\n      swap2\n      pop\n        /* \"#utility.yul\":2972:2977   */\n      dup4\n        /* \"#utility.yul\":2963:2977   */\n      swap1\n      pop\n        /* \"#utility.yul\":2986:3698   */\n    tag_59:\n        /* \"#utility.yul\":3007:3008   */\n      0x01\n        /* \"#utility.yul\":2997:3005   */\n      dup6\n        /* \"#utility.yul\":2994:3009   */\n      gt\n        /* \"#utility.yul\":2986:3698   */\n      iszero\n      tag_61\n      jumpi\n        /* \"#utility.yul\":3102:3106   */\n      dup1\n        /* \"#utility.yul\":3097:3100   */\n      dup7\n        /* \"#utility.yul\":3093:3107   */\n      div\n        /* \"#utility.yul\":3087:3091   */\n      dup2\n        /* \"#utility.yul\":3084:3108   */\n      gt\n        /* \"#utility.yul\":3081:3131   */\n      iszero\n      tag_62\n      jumpi\n        /* \"#utility.yul\":3111:3129   */\n      tag_63\n      tag_27\n      jump\t// in\n    tag_63:\n        /* \"#utility.yul\":3081:3131   */\n    tag_62:\n        /* \"#utility.yul\":3161:3162   */\n      0x01\n        /* \"#utility.yul\":3151:3159   */\n      dup6\n        /* \"#utility.yul\":3147:3163   */\n      and\n        /* \"#utility.yul\":3144:3595   */\n      iszero\n      tag_64\n      jumpi\n        /* \"#utility.yul\":3576:3580   */\n      dup1\n        /* \"#utility.yul\":3569:3574   */\n      dup3\n        /* \"#utility.yul\":3565:3581   */\n      mul\n        /* \"#utility.yul\":3556:3581   */\n      swap2\n      pop\n        /* \"#utility.yul\":3144:3595   */\n    tag_64:\n        /* \"#utility.yul\":3626:3630   */\n      dup1\n        /* \"#utility.yul\":3620:3624   */\n      dup2\n        /* \"#utility.yul\":3616:3631   */\n      mul\n        /* \"#utility.yul\":3608:3631   */\n      swap1\n      pop\n        /* \"#utility.yul\":3656:3688   */\n      tag_65\n        /* \"#utility.yul\":3679:3687   */\n      dup6\n        /* \"#utility.yul\":3656:3688   */\n      tag_28\n      jump\t// in\n    tag_65:\n        /* \"#utility.yul\":3644:3688   */\n      swap5\n      pop\n        /* \"#utility.yul\":2986:3698   */\n      jump(tag_59)\n    tag_61:\n        /* \"#utility.yul\":2856:3704   */\n      swap5\n      pop\n      swap5\n      swap3\n      pop\n      pop\n      pop\n      jump\t// out\n        /* \"#utility.yul\":3710:4783   */\n    tag_30:\n        /* \"#utility.yul\":3764:3769   */\n      0x00\n        /* \"#utility.yul\":3955:3963   */\n      dup3\n        /* \"#utility.yul\":3945:3985   */\n      tag_67\n      jumpi\n        /* \"#utility.yul\":3976:3977   */\n      0x01\n        /* \"#utility.yul\":3967:3977   */\n      swap1\n      pop\n        /* \"#utility.yul\":3978:3983   */\n      jump(tag_66)\n        /* \"#utility.yul\":3945:3985   */\n    tag_67:\n        /* \"#utility.yul\":4004:4008   */\n      dup2\n        /* \"#utility.yul\":3994:4030   */\n      tag_68\n      jumpi\n        /* \"#utility.yul\":4021:4022   */\n      0x00\n        /* \"#utility.yul\":4012:4022   */\n      swap1\n      pop\n        /* \"#utility.yul\":4023:4028   */\n      jump(tag_66)\n        /* \"#utility.yul\":3994:4030   */\n    tag_68:\n        /* \"#utility.yul\":4090:4094   */\n      dup2\n        /* \"#utility.yul\":4138:4139   */\n      0x01\n        /* \"#utility.yul\":4133:4160   */\n      dup2\n      eq\n      tag_70\n      jumpi\n        /* \"#utility.yul\":4174:4175   */\n      0x02\n        /* \"#utility.yul\":4169:4360   */\n      dup2\n      eq\n      tag_71\n      jumpi\n        /* \"#utility.yul\":4083:4360   */\n      jump(tag_69)\n        /* \"#utility.yul\":4133:4160   */\n    tag_70:\n        /* \"#utility.yul\":4151:4152   */\n      0x01\n        /* \"#utility.yul\":4142:4152   */\n      swap2\n      pop\n        /* \"#utility.yul\":4153:4158   */\n      pop\n      jump(tag_66)\n        /* \"#utility.yul\":4169:4360   */\n    tag_71:\n        /* \"#utility.yul\":4214:4217   */\n      0xff\n        /* \"#utility.yul\":4204:4212   */\n      dup5\n        /* \"#utility.yul\":4201:4218   */\n      gt\n        /* \"#utility.yul\":4198:4241   */\n      iszero\n      tag_72\n      jumpi\n        /* \"#utility.yul\":4221:4239   */\n      tag_73\n      tag_27\n      jump\t// in\n    tag_73:\n        /* \"#utility.yul\":4198:4241   */\n    tag_72:\n        /* \"#utility.yul\":4270:4278   */\n      dup4\n        /* \"#utility.yul\":4267:4268   */\n      0x02\n        /* \"#utility.yul\":4263:4279   */\n      exp\n        /* \"#utility.yul\":4254:4279   */\n      swap2\n      pop\n        /* \"#utility.yul\":4305:4308   */\n      dup5\n        /* \"#utility.yul\":4298:4303   */\n      dup3\n        /* \"#utility.yul\":4295:4309   */\n      gt\n        /* \"#utility.yul\":4292:4332   */\n      iszero\n      tag_74\n      jumpi\n        /* \"#utility.yul\":4312:4330   */\n      tag_75\n      tag_27\n      jump\t// in\n    tag_75:\n        /* \"#utility.yul\":4292:4332   */\n    tag_74:\n        /* \"#utility.yul\":4345:4350   */\n      pop\n      jump(tag_66)\n        /* \"#utility.yul\":4083:4360   */\n    tag_69:\n      pop\n        /* \"#utility.yul\":4469:4471   */\n      0x20\n        /* \"#utility.yul\":4459:4467   */\n      dup4\n        /* \"#utility.yul\":4456:4472   */\n      lt\n        /* \"#utility.yul\":4450:4453   */\n      0x0133\n        /* \"#utility.yul\":4444:4448   */\n      dup4\n        /* \"#utility.yul\":4441:4454   */\n      lt\n        /* \"#utility.yul\":4437:4473   */\n      and\n        /* \"#utility.yul\":4419:4421   */\n      0x4e\n        /* \"#utility.yul\":4409:4417   */\n      dup5\n        /* \"#utility.yul\":4406:4422   */\n      lt\n        /* \"#utility.yul\":4401:4403   */\n      0x0b\n        /* \"#utility.yul\":4395:4399   */\n      dup5\n        /* \"#utility.yul\":4392:4404   */\n      lt\n        /* \"#utility.yul\":4388:4423   */\n      and\n        /* \"#utility.yul\":4372:4483   */\n      or\n        /* \"#utility.yul\":4369:4615   */\n      iszero\n      tag_76\n      jumpi\n        /* \"#utility.yul\":4525:4533   */\n      dup3\n        /* \"#utility.yul\":4519:4523   */\n      dup3\n        /* \"#utility.yul\":4515:4534   */\n      exp\n        /* \"#utility.yul\":4506:4534   */\n      swap1\n      pop\n        /* \"#utility.yul\":4560:4563   */\n      dup4\n        /* \"#utility.yul\":4553:4558   */\n      dup2\n        /* \"#utility.yul\":4550:4564   */\n      gt\n        /* \"#utility.yul\":4547:4587   */\n      iszero\n      tag_77\n      jumpi\n        /* \"#utility.yul\":4567:4585   */\n      tag_78\n      tag_27\n      jump\t// in\n    tag_78:\n        /* \"#utility.yul\":4547:4587   */\n    tag_77:\n        /* \"#utility.yul\":4600:4605   */\n      jump(tag_66)\n        /* \"#utility.yul\":4369:4615   */\n    tag_76:\n        /* \"#utility.yul\":4640:4682   */\n      tag_79\n        /* \"#utility.yul\":4678:4681   */\n      dup5\n        /* \"#utility.yul\":4668:4676   */\n      dup5\n        /* \"#utility.yul\":4662:4666   */\n      dup5\n        /* \"#utility.yul\":4659:4660   */\n      0x01\n        /* \"#utility.yul\":4640:4682   */\n      tag_29\n      jump\t// in\n    tag_79:\n        /* \"#utility.yul\":4625:4682   */\n      swap3\n      pop\n      swap1\n      pop\n        /* \"#utility.yul\":4714:4718   */\n      dup2\n        /* \"#utility.yul\":4709:4712   */\n      dup5\n        /* \"#utility.yul\":4705:4719   */\n      div\n        /* \"#utility.yul\":4698:4703   */\n      dup2\n        /* \"#utility.yul\":4695:4720   */\n      gt\n        /* \"#utility.yul\":4692:4743   */\n      iszero\n      tag_80\n      jumpi\n        /* \"#utility.yul\":4723:4741   */\n      tag_81\n      tag_27\n      jump\t// in\n    tag_81:\n        /* \"#utility.yul\":4692:4743   */\n    tag_80:\n        /* \"#utility.yul\":4772:4776   */\n      dup2\n        /* \"#utility.yul\":4765:4770   */\n      dup2\n        /* \"#utility.yul\":4761:4777   */\n      mul\n        /* \"#utility.yul\":4752:4777   */\n      swap1\n      pop\n        /* \"#utility.yul\":3710:4783   */\n    tag_66:\n      swap4\n      swap3\n      pop\n      pop\n      pop\n      jump\t// out\n        /* \"#utility.yul\":4789:5004   */\n    tag_16:\n        /* \"#utility.yul\":4845:4850   */\n      0x00\n        /* \"#utility.yul\":4869:4890   */\n      tag_83\n        /* \"#utility.yul\":4885:4889   */\n      dup3\n        /* \"#utility.yul\":4869:4890   */\n      tag_20\n      jump\t// in\n    tag_83:\n        /* \"#utility.yul\":4861:4890   */\n      swap2\n      pop\n        /* \"#utility.yul\":4911:4936   */\n      tag_84\n        /* \"#utility.yul\":4927:4935   */\n      dup4\n        /* \"#utility.yul\":4911:4936   */\n      tag_20\n      jump\t// in\n    tag_84:\n        /* \"#utility.yul\":4899:4936   */\n      swap3\n      pop\n        /* \"#utility.yul\":4955:4997   */\n      tag_85\n        /* \"#utility.yul\":4992:4996   */\n      0xff\n        /* \"#utility.yul\":4982:4990   */\n      dup5\n        /* \"#utility.yul\":4976:4980   */\n      dup5\n        /* \"#utility.yul\":4955:4997   */\n      tag_30\n      jump\t// in\n    tag_85:\n        /* \"#utility.yul\":4946:4997   */\n      swap1\n      pop\n        /* \"#utility.yul\":4789:5004   */\n      swap3\n      swap2\n      pop\n      pop\n      jump\t// out\n\n    auxdata: 0xa2646970667358221220036d6cbf40c0ad4aff0fda55cbdcaf97b610fa6f0961bc822a20ddd773b9328564736f6c63430008120033\n}\n",
				"bytecode": {
					"linkReferences": {},
					"object": "608060405234801561001057600080fd5b506103c7806100206000396000f3fe608060405234801561001057600080fd5b506004361061002b5760003560e01c806312eda0be14610030575b600080fd5b61004a60048036038101906100459190610109565b610060565b6040516100579190610145565b60405180910390f35b60008160ff1660011080156100785750600b8260ff16105b6100b7576040517f08c379a00000000000000000000000000000000000000000000000000000000081526004016100ae906101e3565b60405180910390fd5b6002826100c49190610365565b9050919050565b600080fd5b600060ff82169050919050565b6100e6816100d0565b81146100f157600080fd5b50565b600081359050610103816100dd565b92915050565b60006020828403121561011f5761011e6100cb565b5b600061012d848285016100f4565b91505092915050565b61013f816100d0565b82525050565b600060208201905061015a6000830184610136565b92915050565b600082825260208201905092915050565b7f546865206e756d6265722073686f756c64206265206265747765656e2032206160008201527f6e64203130000000000000000000000000000000000000000000000000000000602082015250565b60006101cd602583610160565b91506101d882610171565b604082019050919050565b600060208201905081810360008301526101fc816101c0565b9050919050565b7f4e487b7100000000000000000000000000000000000000000000000000000000600052601160045260246000fd5b60008160011c9050919050565b6000808291508390505b60018511156102895780860481111561026557610264610203565b5b60018516156102745780820291505b808102905061028285610232565b9450610249565b94509492505050565b6000826102a2576001905061035e565b816102b0576000905061035e565b81600181146102c657600281146102d0576102ff565b600191505061035e565b60ff8411156102e2576102e1610203565b5b8360020a9150848211156102f9576102f8610203565b5b5061035e565b5060208310610133831016604e8410600b84101617156103345782820a90508381111561032f5761032e610203565b5b61035e565b610341848484600161023f565b9250905081840481111561035857610357610203565b5b81810290505b9392505050565b6000610370826100d0565b915061037b836100d0565b925061038960ff8484610292565b90509291505056fea2646970667358221220036d6cbf40c0ad4aff0fda55cbdcaf97b610fa6f0961bc822a20ddd773b9328564736f6c63430008120033",
					"opcodes": "PUSH1 0x80 PUSH1 0x40 MSTORE CALLVALUE DUP1 ISZERO PUSH2 0x10 JUMPI PUSH1 0x0 DUP1 REVERT JUMPDEST POP PUSH2 0x3C7 DUP1 PUSH2 0x20 PUSH1 0x0 CODECOPY PUSH1 0x0 RETURN INVALID PUSH1 0x80 PUSH1 0x40 MSTORE CALLVALUE DUP1 ISZERO PUSH2 0x10 JUMPI PUSH1 0x0 DUP1 REVERT JUMPDEST POP PUSH1 0x4 CALLDATASIZE LT PUSH2 0x2B JUMPI PUSH1 0x0 CALLDATALOAD PUSH1 0xE0 SHR DUP1 PUSH4 0x12EDA0BE EQ PUSH2 0x30 JUMPI JUMPDEST PUSH1 0x0 DUP1 REVERT JUMPDEST PUSH2 0x4A PUSH1 0x4 DUP1 CALLDATASIZE SUB DUP2 ADD SWAP1 PUSH2 0x45 SWAP2 SWAP1 PUSH2 0x109 JUMP JUMPDEST PUSH2 0x60 JUMP JUMPDEST PUSH1 0x40 MLOAD PUSH2 0x57 SWAP2 SWAP1 PUSH2 0x145 JUMP JUMPDEST PUSH1 0x40 MLOAD DUP1 SWAP2 SUB SWAP1 RETURN JUMPDEST PUSH1 0x0 DUP2 PUSH1 0xFF AND PUSH1 0x1 LT DUP1 ISZERO PUSH2 0x78 JUMPI POP PUSH1 0xB DUP3 PUSH1 0xFF AND LT JUMPDEST PUSH2 0xB7 JUMPI PUSH1 0x40 MLOAD PUSH32 0x8C379A000000000000000000000000000000000000000000000000000000000 DUP2 MSTORE PUSH1 0x4 ADD PUSH2 0xAE SWAP1 PUSH2 0x1E3 JUMP JUMPDEST PUSH1 0x40 MLOAD DUP1 SWAP2 SUB SWAP1 REVERT JUMPDEST PUSH1 0x2 DUP3 PUSH2 0xC4 SWAP2 SWAP1 PUSH2 0x365 JUMP JUMPDEST SWAP1 POP SWAP2 SWAP1 POP JUMP JUMPDEST PUSH1 0x0 DUP1 REVERT JUMPDEST PUSH1 0x0 PUSH1 0xFF DUP3 AND SWAP1 POP SWAP2 SWAP1 POP JUMP JUMPDEST PUSH2 0xE6 DUP2 PUSH2 0xD0 JUMP JUMPDEST DUP2 EQ PUSH2 0xF1 JUMPI PUSH1 0x0 DUP1 REVERT JUMPDEST POP JUMP JUMPDEST PUSH1 0x0 DUP2 CALLDATALOAD SWAP1 POP PUSH2 0x103 DUP2 PUSH2 0xDD JUMP JUMPDEST SWAP3 SWAP2 POP POP JUMP JUMPDEST PUSH1 0x0 PUSH1 0x20 DUP3 DUP5 SUB SLT ISZERO PUSH2 0x11F JUMPI PUSH2 0x11E PUSH2 0xCB JUMP JUMPDEST JUMPDEST PUSH1 0x0 PUSH2 0x12D DUP5 DUP3 DUP6 ADD PUSH2 0xF4 JUMP JUMPDEST SWAP2 POP POP SWAP3 SWAP2 POP POP JUMP JUMPDEST PUSH2 0x13F DUP2 PUSH2 0xD0 JUMP JUMPDEST DUP3 MSTORE POP POP JUMP JUMPDEST PUSH1 0x0 PUSH1 0x20 DUP3 ADD SWAP1 POP PUSH2 0x15A PUSH1 0x0 DUP4 ADD DUP5 PUSH2 0x136 JUMP JUMPDEST SWAP3 SWAP2 POP POP JUMP JUMPDEST PUSH1 0x0 DUP3 DUP3 MSTORE PUSH1 0x20 DUP3 ADD SWAP1 POP SWAP3 SWAP2 POP POP JUMP JUMPDEST PUSH32 0x546865206E756D6265722073686F756C64206265206265747765656E20322061 PUSH1 0x0 DUP3 ADD MSTORE PUSH32 0x6E64203130000000000000000000000000000000000000000000000000000000 PUSH1 0x20 DUP3 ADD MSTORE POP JUMP JUMPDEST PUSH1 0x0 PUSH2 0x1CD PUSH1 0x25 DUP4 PUSH2 0x160 JUMP JUMPDEST SWAP2 POP PUSH2 0x1D8 DUP3 PUSH2 0x171 JUMP JUMPDEST PUSH1 0x40 DUP3 ADD SWAP1 POP SWAP2 SWAP1 POP JUMP JUMPDEST PUSH1 0x0 PUSH1 0x20 DUP3 ADD SWAP1 POP DUP2 DUP2 SUB PUSH1 0x0 DUP4 ADD MSTORE PUSH2 0x1FC DUP2 PUSH2 0x1C0 JUMP JUMPDEST SWAP1 POP SWAP2 SWAP1 POP JUMP JUMPDEST PUSH32 0x4E487B7100000000000000000000000000000000000000000000000000000000 PUSH1 0x0 MSTORE PUSH1 0x11 PUSH1 0x4 MSTORE PUSH1 0x24 PUSH1 0x0 REVERT JUMPDEST PUSH1 0x0 DUP2 PUSH1 0x1 SHR SWAP1 POP SWAP2 SWAP1 POP JUMP JUMPDEST PUSH1 0x0 DUP1 DUP3 SWAP2 POP DUP4 SWAP1 POP JUMPDEST PUSH1 0x1 DUP6 GT ISZERO PUSH2 0x289 JUMPI DUP1 DUP7 DIV DUP2 GT ISZERO PUSH2 0x265 JUMPI PUSH2 0x264 PUSH2 0x203 JUMP JUMPDEST JUMPDEST PUSH1 0x1 DUP6 AND ISZERO PUSH2 0x274 JUMPI DUP1 DUP3 MUL SWAP2 POP JUMPDEST DUP1 DUP2 MUL SWAP1 POP PUSH2 0x282 DUP6 PUSH2 0x232 JUMP JUMPDEST SWAP5 POP PUSH2 0x249 JUMP JUMPDEST SWAP5 POP SWAP5 SWAP3 POP POP POP JUMP JUMPDEST PUSH1 0x0 DUP3 PUSH2 0x2A2 JUMPI PUSH1 0x1 SWAP1 POP PUSH2 0x35E JUMP JUMPDEST DUP2 PUSH2 0x2B0 JUMPI PUSH1 0x0 SWAP1 POP PUSH2 0x35E JUMP JUMPDEST DUP2 PUSH1 0x1 DUP2 EQ PUSH2 0x2C6 JUMPI PUSH1 0x2 DUP2 EQ PUSH2 0x2D0 JUMPI PUSH2 0x2FF JUMP JUMPDEST PUSH1 0x1 SWAP2 POP POP PUSH2 0x35E JUMP JUMPDEST PUSH1 0xFF DUP5 GT ISZERO PUSH2 0x2E2 JUMPI PUSH2 0x2E1 PUSH2 0x203 JUMP JUMPDEST JUMPDEST DUP4 PUSH1 0x2 EXP SWAP2 POP DUP5 DUP3 GT ISZERO PUSH2 0x2F9 JUMPI PUSH2 0x2F8 PUSH2 0x203 JUMP JUMPDEST JUMPDEST POP PUSH2 0x35E JUMP JUMPDEST POP PUSH1 0x20 DUP4 LT PUSH2 0x133 DUP4 LT AND PUSH1 0x4E DUP5 LT PUSH1 0xB DUP5 LT AND OR ISZERO PUSH2 0x334 JUMPI DUP3 DUP3 EXP SWAP1 POP DUP4 DUP2 GT ISZERO PUSH2 0x32F JUMPI PUSH2 0x32E PUSH2 0x203 JUMP JUMPDEST JUMPDEST PUSH2 0x35E JUMP JUMPDEST PUSH2 0x341 DUP5 DUP5 DUP5 PUSH1 0x1 PUSH2 0x23F JUMP JUMPDEST SWAP3 POP SWAP1 POP DUP2 DUP5 DIV DUP2 GT ISZERO PUSH2 0x358 JUMPI PUSH2 0x357 PUSH2 0x203 JUMP JUMPDEST JUMPDEST DUP2 DUP2 MUL SWAP1 POP JUMPDEST SWAP4 SWAP3 POP POP POP JUMP JUMPDEST PUSH1 0x0 PUSH2 0x370 DUP3 PUSH2 0xD0 JUMP JUMPDEST SWAP2 POP PUSH2 0x37B DUP4 PUSH2 0xD0 JUMP JUMPDEST SWAP3 POP PUSH2 0x389 PUSH1 0xFF DUP5 DUP5 PUSH2 0x292 JUMP JUMPDEST SWAP1 POP SWAP3 SWAP2 POP POP JUMP INVALID LOG2 PUSH5 0x6970667358 0x22 SLT KECCAK256 SUB PUSH14 0x6CBF40C0AD4AFF0FDA55CBDCAF97 0xB6 LT STATICCALL PUSH16 0x961BC822A20DDD773B9328564736F6C PUSH4 0x43000812 STOP CALLER "
				},
				"gasEstimates": {
					"creation": {
						"codeDepositCost": "193400",
						"executionCost": "238",
						"totalCost": "193638"
					},
					"external": {
						"squaredFunc(uint8)": "infinite"
					}
				},
				"methodIdentifiers": {
					"squaredFunc(uint8)": "12eda0be"
				}
			},
			"storageLayout": {
				"storage": [],
				"types": null
			},
			"userdoc": {
				"kind": "user",
				"methods": {},
				"version": 1
			}
		}
	}
}