{
	"trycatch.sol": {
		"Caller": {
			"abi": [
				{
					"inputs": [
						{
							"internalType": "address",
							"name": "_func",
							"type": "address"
						}
					],
					"stateMutability": "nonpayable",
					"type": "constructor"
				},
				{
					"anonymous": false,
					"inputs": [
						{
							"indexed": false,
							"internalType": "uint8",
							"name": "result",
							"type": "uint8"
						},
						{
							"indexed": false,
							"internalType": "string",
							"name": "message",
							"type": "string"
						}
					],
					"name": "Log",
					"type": "event"
				},
				{
					"inputs": [
						{
							"internalType": "uint8",
							"name": "_num",
							"type": "uint8"
						}
					],
					"name": "tryCatch",
					"outputs": [],
					"stateMutability": "nonpayable",
					"type": "function"
				}
			],
			"devdoc": {
				"kind": "dev",
				"methods": {},
				"version": 1
			},
			"evm": {
				"assembly": "    /* \"trycatch.sol\":268:683  contract Caller{... */\n  mstore(0x40, 0x80)\n    /* \"trycatch.sol\":315:383  constructor(address _func){... */\n  callvalue\n  dup1\n  iszero\n  tag_1\n  jumpi\n  0x00\n  dup1\n  revert\ntag_1:\n  pop\n  mload(0x40)\n  sub(codesize, bytecodeSize)\n  dup1\n  bytecodeSize\n  dup4\n  codecopy\n  dup2\n  dup2\n  add\n  0x40\n  mstore\n  dup2\n  add\n  swap1\n  tag_2\n  swap2\n  swap1\n  tag_3\n  jump\t// in\ntag_2:\n    /* \"trycatch.sol\":369:374  _func */\n  dup1\n    /* \"trycatch.sol\":352:356  func */\n  0x00\n  dup1\n    /* \"trycatch.sol\":352:375  func = Functions(_func) */\n  0x0100\n  exp\n  dup2\n  sload\n  dup2\n  0xffffffffffffffffffffffffffffffffffffffff\n  mul\n  not\n  and\n  swap1\n  dup4\n  0xffffffffffffffffffffffffffffffffffffffff\n  and\n  mul\n  or\n  swap1\n  sstore\n  pop\n    /* \"trycatch.sol\":315:383  constructor(address _func){... */\n  pop\n    /* \"trycatch.sol\":268:683  contract Caller{... */\n  jump(tag_6)\n    /* \"#utility.yul\":88:205   */\ntag_8:\n    /* \"#utility.yul\":197:198   */\n  0x00\n    /* \"#utility.yul\":194:195   */\n  dup1\n    /* \"#utility.yul\":187:199   */\n  revert\n    /* \"#utility.yul\":334:460   */\ntag_10:\n    /* \"#utility.yul\":371:378   */\n  0x00\n    /* \"#utility.yul\":411:453   */\n  0xffffffffffffffffffffffffffffffffffffffff\n    /* \"#utility.yul\":404:409   */\n  dup3\n    /* \"#utility.yul\":400:454   */\n  and\n    /* \"#utility.yul\":389:454   */\n  swap1\n  pop\n    /* \"#utility.yul\":334:460   */\n  swap2\n  swap1\n  pop\n  jump\t// out\n    /* \"#utility.yul\":466:562   */\ntag_11:\n    /* \"#utility.yul\":503:510   */\n  0x00\n    /* \"#utility.yul\":532:556   */\n  tag_20\n    /* \"#utility.yul\":550:555   */\n  dup3\n    /* \"#utility.yul\":532:556   */\n  tag_10\n  jump\t// in\ntag_20:\n    /* \"#utility.yul\":521:556   */\n  swap1\n  pop\n    /* \"#utility.yul\":466:562   */\n  swap2\n  swap1\n  pop\n  jump\t// out\n    /* \"#utility.yul\":568:690   */\ntag_12:\n    /* \"#utility.yul\":641:665   */\n  tag_22\n    /* \"#utility.yul\":659:664   */\n  dup2\n    /* \"#utility.yul\":641:665   */\n  tag_11\n  jump\t// in\ntag_22:\n    /* \"#utility.yul\":634:639   */\n  dup2\n    /* \"#utility.yul\":631:666   */\n  eq\n    /* \"#utility.yul\":621:684   */\n  tag_23\n  jumpi\n    /* \"#utility.yul\":680:681   */\n  0x00\n    /* \"#utility.yul\":677:678   */\n  dup1\n    /* \"#utility.yul\":670:682   */\n  revert\n    /* \"#utility.yul\":621:684   */\ntag_23:\n    /* \"#utility.yul\":568:690   */\n  pop\n  jump\t// out\n    /* \"#utility.yul\":696:839   */\ntag_13:\n    /* \"#utility.yul\":753:758   */\n  0x00\n    /* \"#utility.yul\":784:790   */\n  dup2\n    /* \"#utility.yul\":778:791   */\n  mload\n    /* \"#utility.yul\":769:791   */\n  swap1\n  pop\n    /* \"#utility.yul\":800:833   */\n  tag_25\n    /* \"#utility.yul\":827:832   */\n  dup2\n    /* \"#utility.yul\":800:833   */\n  tag_12\n  jump\t// in\ntag_25:\n    /* \"#utility.yul\":696:839   */\n  swap3\n  swap2\n  pop\n  pop\n  jump\t// out\n    /* \"#utility.yul\":845:1196   */\ntag_3:\n    /* \"#utility.yul\":915:921   */\n  0x00\n    /* \"#utility.yul\":964:966   */\n  0x20\n    /* \"#utility.yul\":952:961   */\n  dup3\n    /* \"#utility.yul\":943:950   */\n  dup5\n    /* \"#utility.yul\":939:962   */\n  sub\n    /* \"#utility.yul\":935:967   */\n  slt\n    /* \"#utility.yul\":932:1051   */\n  iszero\n  tag_27\n  jumpi\n    /* \"#utility.yul\":970:1049   */\n  tag_28\n  tag_8\n  jump\t// in\ntag_28:\n    /* \"#utility.yul\":932:1051   */\ntag_27:\n    /* \"#utility.yul\":1090:1091   */\n  0x00\n    /* \"#utility.yul\":1115:1179   */\n  tag_29\n    /* \"#utility.yul\":1171:1178   */\n  dup5\n    /* \"#utility.yul\":1162:1168   */\n  dup3\n    /* \"#utility.yul\":1151:1160   */\n  dup6\n    /* \"#utility.yul\":1147:1169   */\n  add\n    /* \"#utility.yul\":1115:1179   */\n  tag_13\n  jump\t// in\ntag_29:\n    /* \"#utility.yul\":1105:1179   */\n  swap2\n  pop\n    /* \"#utility.yul\":1061:1189   */\n  pop\n    /* \"#utility.yul\":845:1196   */\n  swap3\n  swap2\n  pop\n  pop\n  jump\t// out\n    /* \"trycatch.sol\":268:683  contract Caller{... */\ntag_6:\n  dataSize(sub_0)\n  dup1\n  dataOffset(sub_0)\n  0x00\n  codecopy\n  0x00\n  return\nstop\n\nsub_0: assembly {\n        /* \"trycatch.sol\":268:683  contract Caller{... */\n      mstore(0x40, 0x80)\n      callvalue\n      dup1\n      iszero\n      tag_1\n      jumpi\n      0x00\n      dup1\n      revert\n    tag_1:\n      pop\n      jumpi(tag_2, lt(calldatasize, 0x04))\n      shr(0xe0, calldataload(0x00))\n      dup1\n      0x7da3165f\n      eq\n      tag_3\n      jumpi\n    tag_2:\n      0x00\n      dup1\n      revert\n        /* \"trycatch.sol\":438:678  function tryCatch(uint8 _num) public{... */\n    tag_3:\n      tag_4\n      0x04\n      dup1\n      calldatasize\n      sub\n      dup2\n      add\n      swap1\n      tag_5\n      swap2\n      swap1\n      tag_6\n      jump\t// in\n    tag_5:\n      tag_7\n      jump\t// in\n    tag_4:\n      stop\n    tag_7:\n        /* \"trycatch.sol\":489:493  func */\n      0x00\n      dup1\n      sload\n      swap1\n      0x0100\n      exp\n      swap1\n      div\n      0xffffffffffffffffffffffffffffffffffffffff\n      and\n        /* \"trycatch.sol\":489:505  func.squaredFunc */\n      0xffffffffffffffffffffffffffffffffffffffff\n      and\n      0x12eda0be\n        /* \"trycatch.sol\":506:510  _num */\n      dup3\n        /* \"trycatch.sol\":489:511  func.squaredFunc(_num) */\n      mload(0x40)\n      dup3\n      0xffffffff\n      and\n      0xe0\n      shl\n      dup2\n      mstore\n      0x04\n      add\n      tag_9\n      swap2\n      swap1\n      tag_10\n      jump\t// in\n    tag_9:\n      0x20\n      mload(0x40)\n      dup1\n      dup4\n      sub\n      dup2\n      dup7\n      gas\n      staticcall\n      swap3\n      pop\n      pop\n      pop\n      dup1\n      iszero\n      tag_11\n      jumpi\n      pop\n      mload(0x40)\n      returndatasize\n      not(0x1f)\n      0x1f\n      dup3\n      add\n      and\n      dup3\n      add\n      dup1\n      0x40\n      mstore\n      pop\n      dup2\n      add\n      swap1\n      tag_12\n      swap2\n      swap1\n      tag_13\n      jump\t// in\n    tag_12:\n      0x01\n    tag_11:\n        /* \"trycatch.sol\":485:671  try func.squaredFunc(_num) returns(uint8 result){... */\n      tag_14\n      jumpi\n      tag_18\n      tag_19\n      jump\t// in\n    tag_18:\n      dup1\n      0x08c379a0\n      sub\n      tag_17\n      jumpi\n      pop\n      tag_20\n      tag_21\n      jump\t// in\n    tag_20:\n      dup1\n      tag_22\n      jumpi\n      pop\n      jump(tag_16)\n    tag_22:\n        /* \"trycatch.sol\":640:659  Log(0,errorMessage) */\n      0x65e40f25ac92211a0992a34efd5daa3e9518b7dbce75ac8f5060ca856982a3f8\n        /* \"trycatch.sol\":644:645  0 */\n      0x00\n        /* \"trycatch.sol\":646:658  errorMessage */\n      dup3\n        /* \"trycatch.sol\":640:659  Log(0,errorMessage) */\n      mload(0x40)\n      tag_23\n      swap3\n      swap2\n      swap1\n      tag_24\n      jump\t// in\n    tag_23:\n      mload(0x40)\n      dup1\n      swap2\n      sub\n      swap1\n      log1\n        /* \"trycatch.sol\":580:671  catch Error (string memory errorMessage){... */\n      pop\n        /* \"trycatch.sol\":485:671  try func.squaredFunc(_num) returns(uint8 result){... */\n      jump(tag_15)\n    tag_17:\n      pop\n    tag_16:\n      returndatasize\n      0x00\n      dup1\n      returndatacopy\n      revert(0x00, returndatasize)\n    tag_15:\n      jump(tag_25)\n    tag_14:\n        /* \"trycatch.sol\":553:567  Log(result,\"\") */\n      0x65e40f25ac92211a0992a34efd5daa3e9518b7dbce75ac8f5060ca856982a3f8\n        /* \"trycatch.sol\":557:563  result */\n      dup2\n        /* \"trycatch.sol\":553:567  Log(result,\"\") */\n      mload(0x40)\n      tag_26\n      swap2\n      swap1\n      tag_27\n      jump\t// in\n    tag_26:\n      mload(0x40)\n      dup1\n      swap2\n      sub\n      swap1\n      log1\n        /* \"trycatch.sol\":512:579  returns(uint8 result){... */\n      pop\n        /* \"trycatch.sol\":485:671  try func.squaredFunc(_num) returns(uint8 result){... */\n    tag_25:\n        /* \"trycatch.sol\":438:678  function tryCatch(uint8 _num) public{... */\n      pop\n      jump\t// out\n        /* \"#utility.yul\":7:82   */\n    tag_28:\n        /* \"#utility.yul\":40:46   */\n      0x00\n        /* \"#utility.yul\":73:75   */\n      0x40\n        /* \"#utility.yul\":67:76   */\n      mload\n        /* \"#utility.yul\":57:76   */\n      swap1\n      pop\n        /* \"#utility.yul\":7:82   */\n      swap1\n      jump\t// out\n        /* \"#utility.yul\":88:205   */\n    tag_29:\n        /* \"#utility.yul\":197:198   */\n      0x00\n        /* \"#utility.yul\":194:195   */\n      dup1\n        /* \"#utility.yul\":187:199   */\n      revert\n        /* \"#utility.yul\":334:420   */\n    tag_31:\n        /* \"#utility.yul\":369:376   */\n      0x00\n        /* \"#utility.yul\":409:413   */\n      0xff\n        /* \"#utility.yul\":402:407   */\n      dup3\n        /* \"#utility.yul\":398:414   */\n      and\n        /* \"#utility.yul\":387:414   */\n      swap1\n      pop\n        /* \"#utility.yul\":334:420   */\n      swap2\n      swap1\n      pop\n      jump\t// out\n        /* \"#utility.yul\":426:544   */\n    tag_32:\n        /* \"#utility.yul\":497:519   */\n      tag_56\n        /* \"#utility.yul\":513:518   */\n      dup2\n        /* \"#utility.yul\":497:519   */\n      tag_31\n      jump\t// in\n    tag_56:\n        /* \"#utility.yul\":490:495   */\n      dup2\n        /* \"#utility.yul\":487:520   */\n      eq\n        /* \"#utility.yul\":477:538   */\n      tag_57\n      jumpi\n        /* \"#utility.yul\":534:535   */\n      0x00\n        /* \"#utility.yul\":531:532   */\n      dup1\n        /* \"#utility.yul\":524:536   */\n      revert\n        /* \"#utility.yul\":477:538   */\n    tag_57:\n        /* \"#utility.yul\":426:544   */\n      pop\n      jump\t// out\n        /* \"#utility.yul\":550:685   */\n    tag_33:\n        /* \"#utility.yul\":594:599   */\n      0x00\n        /* \"#utility.yul\":632:638   */\n      dup2\n        /* \"#utility.yul\":619:639   */\n      calldataload\n        /* \"#utility.yul\":610:639   */\n      swap1\n      pop\n        /* \"#utility.yul\":648:679   */\n      tag_59\n        /* \"#utility.yul\":673:678   */\n      dup2\n        /* \"#utility.yul\":648:679   */\n      tag_32\n      jump\t// in\n    tag_59:\n        /* \"#utility.yul\":550:685   */\n      swap3\n      swap2\n      pop\n      pop\n      jump\t// out\n        /* \"#utility.yul\":691:1016   */\n    tag_6:\n        /* \"#utility.yul\":748:754   */\n      0x00\n        /* \"#utility.yul\":797:799   */\n      0x20\n        /* \"#utility.yul\":785:794   */\n      dup3\n        /* \"#utility.yul\":776:783   */\n      dup5\n        /* \"#utility.yul\":772:795   */\n      sub\n        /* \"#utility.yul\":768:800   */\n      slt\n        /* \"#utility.yul\":765:884   */\n      iszero\n      tag_61\n      jumpi\n        /* \"#utility.yul\":803:882   */\n      tag_62\n      tag_29\n      jump\t// in\n    tag_62:\n        /* \"#utility.yul\":765:884   */\n    tag_61:\n        /* \"#utility.yul\":923:924   */\n      0x00\n        /* \"#utility.yul\":948:999   */\n      tag_63\n        /* \"#utility.yul\":991:998   */\n      dup5\n        /* \"#utility.yul\":982:988   */\n      dup3\n        /* \"#utility.yul\":971:980   */\n      dup6\n        /* \"#utility.yul\":967:989   */\n      add\n        /* \"#utility.yul\":948:999   */\n      tag_33\n      jump\t// in\n    tag_63:\n        /* \"#utility.yul\":938:999   */\n      swap2\n      pop\n        /* \"#utility.yul\":894:1009   */\n      pop\n        /* \"#utility.yul\":691:1016   */\n      swap3\n      swap2\n      pop\n      pop\n      jump\t// out\n        /* \"#utility.yul\":1022:1134   */\n    tag_34:\n        /* \"#utility.yul\":1105:1127   */\n      tag_65\n        /* \"#utility.yul\":1121:1126   */\n      dup2\n        /* \"#utility.yul\":1105:1127   */\n      tag_31\n      jump\t// in\n    tag_65:\n        /* \"#utility.yul\":1100:1103   */\n      dup3\n        /* \"#utility.yul\":1093:1128   */\n      mstore\n        /* \"#utility.yul\":1022:1134   */\n      pop\n      pop\n      jump\t// out\n        /* \"#utility.yul\":1140:1354   */\n    tag_10:\n        /* \"#utility.yul\":1229:1233   */\n      0x00\n        /* \"#utility.yul\":1267:1269   */\n      0x20\n        /* \"#utility.yul\":1256:1265   */\n      dup3\n        /* \"#utility.yul\":1252:1270   */\n      add\n        /* \"#utility.yul\":1244:1270   */\n      swap1\n      pop\n        /* \"#utility.yul\":1280:1347   */\n      tag_67\n        /* \"#utility.yul\":1344:1345   */\n      0x00\n        /* \"#utility.yul\":1333:1342   */\n      dup4\n        /* \"#utility.yul\":1329:1346   */\n      add\n        /* \"#utility.yul\":1320:1326   */\n      dup5\n        /* \"#utility.yul\":1280:1347   */\n      tag_34\n      jump\t// in\n    tag_67:\n        /* \"#utility.yul\":1140:1354   */\n      swap3\n      swap2\n      pop\n      pop\n      jump\t// out\n        /* \"#utility.yul\":1360:1499   */\n    tag_35:\n        /* \"#utility.yul\":1415:1420   */\n      0x00\n        /* \"#utility.yul\":1446:1452   */\n      dup2\n        /* \"#utility.yul\":1440:1453   */\n      mload\n        /* \"#utility.yul\":1431:1453   */\n      swap1\n      pop\n        /* \"#utility.yul\":1462:1493   */\n      tag_69\n        /* \"#utility.yul\":1487:1492   */\n      dup2\n        /* \"#utility.yul\":1462:1493   */\n      tag_32\n      jump\t// in\n    tag_69:\n        /* \"#utility.yul\":1360:1499   */\n      swap3\n      swap2\n      pop\n      pop\n      jump\t// out\n        /* \"#utility.yul\":1505:1852   */\n    tag_13:\n        /* \"#utility.yul\":1573:1579   */\n      0x00\n        /* \"#utility.yul\":1622:1624   */\n      0x20\n        /* \"#utility.yul\":1610:1619   */\n      dup3\n        /* \"#utility.yul\":1601:1608   */\n      dup5\n        /* \"#utility.yul\":1597:1620   */\n      sub\n        /* \"#utility.yul\":1593:1625   */\n      slt\n        /* \"#utility.yul\":1590:1709   */\n      iszero\n      tag_71\n      jumpi\n        /* \"#utility.yul\":1628:1707   */\n      tag_72\n      tag_29\n      jump\t// in\n    tag_72:\n        /* \"#utility.yul\":1590:1709   */\n    tag_71:\n        /* \"#utility.yul\":1748:1749   */\n      0x00\n        /* \"#utility.yul\":1773:1835   */\n      tag_73\n        /* \"#utility.yul\":1827:1834   */\n      dup5\n        /* \"#utility.yul\":1818:1824   */\n      dup3\n        /* \"#utility.yul\":1807:1816   */\n      dup6\n        /* \"#utility.yul\":1803:1825   */\n      add\n        /* \"#utility.yul\":1773:1835   */\n      tag_35\n      jump\t// in\n    tag_73:\n        /* \"#utility.yul\":1763:1835   */\n      swap2\n      pop\n        /* \"#utility.yul\":1719:1845   */\n      pop\n        /* \"#utility.yul\":1505:1852   */\n      swap3\n      swap2\n      pop\n      pop\n      jump\t// out\n        /* \"#utility.yul\":1858:1964   */\n    tag_36:\n        /* \"#utility.yul\":1902:1910   */\n      0x00\n        /* \"#utility.yul\":1951:1956   */\n      dup2\n        /* \"#utility.yul\":1946:1949   */\n      0xe0\n        /* \"#utility.yul\":1942:1957   */\n      shr\n        /* \"#utility.yul\":1921:1957   */\n      swap1\n      pop\n        /* \"#utility.yul\":1858:1964   */\n      swap2\n      swap1\n      pop\n      jump\t// out\n        /* \"#utility.yul\":1970:2153   */\n    tag_19:\n        /* \"#utility.yul\":2005:2008   */\n      0x00\n        /* \"#utility.yul\":2043:2044   */\n      0x03\n        /* \"#utility.yul\":2025:2041   */\n      returndatasize\n        /* \"#utility.yul\":2022:2045   */\n      gt\n        /* \"#utility.yul\":2019:2147   */\n      iszero\n      tag_76\n      jumpi\n        /* \"#utility.yul\":2081:2082   */\n      0x04\n        /* \"#utility.yul\":2078:2079   */\n      0x00\n        /* \"#utility.yul\":2075:2076   */\n      dup1\n        /* \"#utility.yul\":2060:2083   */\n      returndatacopy\n        /* \"#utility.yul\":2103:2137   */\n      tag_77\n        /* \"#utility.yul\":2134:2135   */\n      0x00\n        /* \"#utility.yul\":2128:2136   */\n      mload\n        /* \"#utility.yul\":2103:2137   */\n      tag_36\n      jump\t// in\n    tag_77:\n        /* \"#utility.yul\":2096:2137   */\n      swap1\n      pop\n        /* \"#utility.yul\":2019:2147   */\n    tag_76:\n        /* \"#utility.yul\":1970:2153   */\n      swap1\n      jump\t// out\n        /* \"#utility.yul\":2159:2261   */\n    tag_37:\n        /* \"#utility.yul\":2200:2206   */\n      0x00\n        /* \"#utility.yul\":2251:2253   */\n      0x1f\n        /* \"#utility.yul\":2247:2254   */\n      not\n        /* \"#utility.yul\":2242:2244   */\n      0x1f\n        /* \"#utility.yul\":2235:2240   */\n      dup4\n        /* \"#utility.yul\":2231:2245   */\n      add\n        /* \"#utility.yul\":2227:2255   */\n      and\n        /* \"#utility.yul\":2217:2255   */\n      swap1\n      pop\n        /* \"#utility.yul\":2159:2261   */\n      swap2\n      swap1\n      pop\n      jump\t// out\n        /* \"#utility.yul\":2267:2447   */\n    tag_38:\n        /* \"#utility.yul\":2315:2392   */\n      0x4e487b7100000000000000000000000000000000000000000000000000000000\n        /* \"#utility.yul\":2312:2313   */\n      0x00\n        /* \"#utility.yul\":2305:2393   */\n      mstore\n        /* \"#utility.yul\":2412:2416   */\n      0x41\n        /* \"#utility.yul\":2409:2410   */\n      0x04\n        /* \"#utility.yul\":2402:2417   */\n      mstore\n        /* \"#utility.yul\":2436:2440   */\n      0x24\n        /* \"#utility.yul\":2433:2434   */\n      0x00\n        /* \"#utility.yul\":2426:2441   */\n      revert\n        /* \"#utility.yul\":2453:2734   */\n    tag_39:\n        /* \"#utility.yul\":2536:2563   */\n      tag_81\n        /* \"#utility.yul\":2558:2562   */\n      dup3\n        /* \"#utility.yul\":2536:2563   */\n      tag_37\n      jump\t// in\n    tag_81:\n        /* \"#utility.yul\":2528:2534   */\n      dup2\n        /* \"#utility.yul\":2524:2564   */\n      add\n        /* \"#utility.yul\":2666:2672   */\n      dup2\n        /* \"#utility.yul\":2654:2664   */\n      dup2\n        /* \"#utility.yul\":2651:2673   */\n      lt\n        /* \"#utility.yul\":2630:2648   */\n      0xffffffffffffffff\n        /* \"#utility.yul\":2618:2628   */\n      dup3\n        /* \"#utility.yul\":2615:2649   */\n      gt\n        /* \"#utility.yul\":2612:2674   */\n      or\n        /* \"#utility.yul\":2609:2697   */\n      iszero\n      tag_82\n      jumpi\n        /* \"#utility.yul\":2677:2695   */\n      tag_83\n      tag_38\n      jump\t// in\n    tag_83:\n        /* \"#utility.yul\":2609:2697   */\n    tag_82:\n        /* \"#utility.yul\":2717:2727   */\n      dup1\n        /* \"#utility.yul\":2713:2715   */\n      0x40\n        /* \"#utility.yul\":2706:2728   */\n      mstore\n        /* \"#utility.yul\":2496:2734   */\n      pop\n        /* \"#utility.yul\":2453:2734   */\n      pop\n      pop\n      jump\t// out\n        /* \"#utility.yul\":2740:3451   */\n    tag_21:\n        /* \"#utility.yul\":2779:2782   */\n      0x00\n        /* \"#utility.yul\":2817:2821   */\n      0x44\n        /* \"#utility.yul\":2799:2815   */\n      returndatasize\n        /* \"#utility.yul\":2796:2822   */\n      lt\n        /* \"#utility.yul\":2825:2830   */\n      tag_84\n        /* \"#utility.yul\":2793:2832   */\n      jumpi\n        /* \"#utility.yul\":2854:2874   */\n      tag_86\n      tag_28\n      jump\t// in\n    tag_86:\n        /* \"#utility.yul\":2929:2930   */\n      0x04\n        /* \"#utility.yul\":2911:2927   */\n      returndatasize\n        /* \"#utility.yul\":2907:2931   */\n      sub\n        /* \"#utility.yul\":2904:2905   */\n      0x04\n        /* \"#utility.yul\":2898:2902   */\n      dup3\n        /* \"#utility.yul\":2883:2932   */\n      returndatacopy\n        /* \"#utility.yul\":2962:2966   */\n      dup1\n        /* \"#utility.yul\":2956:2967   */\n      mload\n        /* \"#utility.yul\":3061:3077   */\n      returndatasize\n        /* \"#utility.yul\":3054:3058   */\n      0x24\n        /* \"#utility.yul\":3046:3052   */\n      dup3\n        /* \"#utility.yul\":3042:3059   */\n      add\n        /* \"#utility.yul\":3039:3078   */\n      gt\n        /* \"#utility.yul\":3006:3024   */\n      0xffffffffffffffff\n        /* \"#utility.yul\":2998:3004   */\n      dup3\n        /* \"#utility.yul\":2995:3025   */\n      gt\n        /* \"#utility.yul\":2979:3092   */\n      or\n        /* \"#utility.yul\":2976:3122   */\n      iszero\n      tag_87\n      jumpi\n        /* \"#utility.yul\":3107:3112   */\n      pop\n      pop\n      jump(tag_84)\n        /* \"#utility.yul\":2976:3122   */\n    tag_87:\n        /* \"#utility.yul\":3153:3159   */\n      dup1\n        /* \"#utility.yul\":3147:3151   */\n      dup3\n        /* \"#utility.yul\":3143:3160   */\n      add\n        /* \"#utility.yul\":3189:3192   */\n      dup1\n        /* \"#utility.yul\":3183:3193   */\n      mload\n        /* \"#utility.yul\":3216:3234   */\n      0xffffffffffffffff\n        /* \"#utility.yul\":3208:3214   */\n      dup2\n        /* \"#utility.yul\":3205:3235   */\n      gt\n        /* \"#utility.yul\":3202:3245   */\n      iszero\n      tag_88\n      jumpi\n        /* \"#utility.yul\":3238:3243   */\n      pop\n      pop\n      pop\n      pop\n      jump(tag_84)\n        /* \"#utility.yul\":3202:3245   */\n    tag_88:\n        /* \"#utility.yul\":3286:3292   */\n      dup1\n        /* \"#utility.yul\":3279:3283   */\n      0x20\n        /* \"#utility.yul\":3274:3277   */\n      dup4\n        /* \"#utility.yul\":3270:3284   */\n      add\n        /* \"#utility.yul\":3266:3293   */\n      add\n        /* \"#utility.yul\":3345:3346   */\n      0x04\n        /* \"#utility.yul\":3327:3343   */\n      returndatasize\n        /* \"#utility.yul\":3323:3347   */\n      sub\n        /* \"#utility.yul\":3317:3321   */\n      dup6\n        /* \"#utility.yul\":3313:3348   */\n      add\n        /* \"#utility.yul\":3308:3311   */\n      dup2\n        /* \"#utility.yul\":3305:3349   */\n      gt\n        /* \"#utility.yul\":3302:3359   */\n      iszero\n      tag_89\n      jumpi\n        /* \"#utility.yul\":3352:3357   */\n      pop\n      pop\n      pop\n      pop\n      pop\n      jump(tag_84)\n        /* \"#utility.yul\":3302:3359   */\n    tag_89:\n        /* \"#utility.yul\":3369:3426   */\n      tag_90\n        /* \"#utility.yul\":3417:3423   */\n      dup3\n        /* \"#utility.yul\":3411:3415   */\n      0x20\n        /* \"#utility.yul\":3407:3424   */\n      add\n        /* \"#utility.yul\":3399:3405   */\n      dup6\n        /* \"#utility.yul\":3395:3425   */\n      add\n        /* \"#utility.yul\":3389:3393   */\n      dup7\n        /* \"#utility.yul\":3369:3426   */\n      tag_39\n      jump\t// in\n    tag_90:\n        /* \"#utility.yul\":3442:3445   */\n      dup3\n        /* \"#utility.yul\":3435:3445   */\n      swap6\n      pop\n        /* \"#utility.yul\":2783:3451   */\n      pop\n      pop\n      pop\n      pop\n      pop\n        /* \"#utility.yul\":2740:3451   */\n    tag_84:\n      swap1\n      jump\t// out\n        /* \"#utility.yul\":3457:3542   */\n    tag_40:\n        /* \"#utility.yul\":3502:3509   */\n      0x00\n        /* \"#utility.yul\":3531:3536   */\n      dup2\n        /* \"#utility.yul\":3520:3536   */\n      swap1\n      pop\n        /* \"#utility.yul\":3457:3542   */\n      swap2\n      swap1\n      pop\n      jump\t// out\n        /* \"#utility.yul\":3548:3608   */\n    tag_41:\n        /* \"#utility.yul\":3576:3579   */\n      0x00\n        /* \"#utility.yul\":3597:3602   */\n      dup2\n        /* \"#utility.yul\":3590:3602   */\n      swap1\n      pop\n        /* \"#utility.yul\":3548:3608   */\n      swap2\n      swap1\n      pop\n      jump\t// out\n        /* \"#utility.yul\":3614:3768   */\n    tag_42:\n        /* \"#utility.yul\":3670:3679   */\n      0x00\n        /* \"#utility.yul\":3703:3762   */\n      tag_94\n        /* \"#utility.yul\":3719:3761   */\n      tag_95\n        /* \"#utility.yul\":3728:3760   */\n      tag_96\n        /* \"#utility.yul\":3754:3759   */\n      dup5\n        /* \"#utility.yul\":3728:3760   */\n      tag_40\n      jump\t// in\n    tag_96:\n        /* \"#utility.yul\":3719:3761   */\n      tag_41\n      jump\t// in\n    tag_95:\n        /* \"#utility.yul\":3703:3762   */\n      tag_31\n      jump\t// in\n    tag_94:\n        /* \"#utility.yul\":3690:3762   */\n      swap1\n      pop\n        /* \"#utility.yul\":3614:3768   */\n      swap2\n      swap1\n      pop\n      jump\t// out\n        /* \"#utility.yul\":3774:3917   */\n    tag_43:\n        /* \"#utility.yul\":3867:3910   */\n      tag_98\n        /* \"#utility.yul\":3904:3909   */\n      dup2\n        /* \"#utility.yul\":3867:3910   */\n      tag_42\n      jump\t// in\n    tag_98:\n        /* \"#utility.yul\":3862:3865   */\n      dup3\n        /* \"#utility.yul\":3855:3911   */\n      mstore\n        /* \"#utility.yul\":3774:3917   */\n      pop\n      pop\n      jump\t// out\n        /* \"#utility.yul\":3923:4022   */\n    tag_44:\n        /* \"#utility.yul\":3975:3981   */\n      0x00\n        /* \"#utility.yul\":4009:4014   */\n      dup2\n        /* \"#utility.yul\":4003:4015   */\n      mload\n        /* \"#utility.yul\":3993:4015   */\n      swap1\n      pop\n        /* \"#utility.yul\":3923:4022   */\n      swap2\n      swap1\n      pop\n      jump\t// out\n        /* \"#utility.yul\":4028:4197   */\n    tag_45:\n        /* \"#utility.yul\":4112:4123   */\n      0x00\n        /* \"#utility.yul\":4146:4152   */\n      dup3\n        /* \"#utility.yul\":4141:4144   */\n      dup3\n        /* \"#utility.yul\":4134:4153   */\n      mstore\n        /* \"#utility.yul\":4186:4190   */\n      0x20\n        /* \"#utility.yul\":4181:4184   */\n      dup3\n        /* \"#utility.yul\":4177:4191   */\n      add\n        /* \"#utility.yul\":4162:4191   */\n      swap1\n      pop\n        /* \"#utility.yul\":4028:4197   */\n      swap3\n      swap2\n      pop\n      pop\n      jump\t// out\n        /* \"#utility.yul\":4203:4449   */\n    tag_46:\n        /* \"#utility.yul\":4284:4285   */\n      0x00\n        /* \"#utility.yul\":4294:4407   */\n    tag_102:\n        /* \"#utility.yul\":4308:4314   */\n      dup4\n        /* \"#utility.yul\":4305:4306   */\n      dup2\n        /* \"#utility.yul\":4302:4315   */\n      lt\n        /* \"#utility.yul\":4294:4407   */\n      iszero\n      tag_104\n      jumpi\n        /* \"#utility.yul\":4393:4394   */\n      dup1\n        /* \"#utility.yul\":4388:4391   */\n      dup3\n        /* \"#utility.yul\":4384:4395   */\n      add\n        /* \"#utility.yul\":4378:4396   */\n      mload\n        /* \"#utility.yul\":4374:4375   */\n      dup2\n        /* \"#utility.yul\":4369:4372   */\n      dup5\n        /* \"#utility.yul\":4365:4376   */\n      add\n        /* \"#utility.yul\":4358:4397   */\n      mstore\n        /* \"#utility.yul\":4330:4332   */\n      0x20\n        /* \"#utility.yul\":4327:4328   */\n      dup2\n        /* \"#utility.yul\":4323:4333   */\n      add\n        /* \"#utility.yul\":4318:4333   */\n      swap1\n      pop\n        /* \"#utility.yul\":4294:4407   */\n      jump(tag_102)\n    tag_104:\n        /* \"#utility.yul\":4441:4442   */\n      0x00\n        /* \"#utility.yul\":4432:4438   */\n      dup5\n        /* \"#utility.yul\":4427:4430   */\n      dup5\n        /* \"#utility.yul\":4423:4439   */\n      add\n        /* \"#utility.yul\":4416:4443   */\n      mstore\n        /* \"#utility.yul\":4265:4449   */\n      pop\n        /* \"#utility.yul\":4203:4449   */\n      pop\n      pop\n      pop\n      jump\t// out\n        /* \"#utility.yul\":4455:4832   */\n    tag_47:\n        /* \"#utility.yul\":4543:4546   */\n      0x00\n        /* \"#utility.yul\":4571:4610   */\n      tag_106\n        /* \"#utility.yul\":4604:4609   */\n      dup3\n        /* \"#utility.yul\":4571:4610   */\n      tag_44\n      jump\t// in\n    tag_106:\n        /* \"#utility.yul\":4626:4697   */\n      tag_107\n        /* \"#utility.yul\":4690:4696   */\n      dup2\n        /* \"#utility.yul\":4685:4688   */\n      dup6\n        /* \"#utility.yul\":4626:4697   */\n      tag_45\n      jump\t// in\n    tag_107:\n        /* \"#utility.yul\":4619:4697   */\n      swap4\n      pop\n        /* \"#utility.yul\":4706:4771   */\n      tag_108\n        /* \"#utility.yul\":4764:4770   */\n      dup2\n        /* \"#utility.yul\":4759:4762   */\n      dup6\n        /* \"#utility.yul\":4752:4756   */\n      0x20\n        /* \"#utility.yul\":4745:4750   */\n      dup7\n        /* \"#utility.yul\":4741:4757   */\n      add\n        /* \"#utility.yul\":4706:4771   */\n      tag_46\n      jump\t// in\n    tag_108:\n        /* \"#utility.yul\":4796:4825   */\n      tag_109\n        /* \"#utility.yul\":4818:4824   */\n      dup2\n        /* \"#utility.yul\":4796:4825   */\n      tag_37\n      jump\t// in\n    tag_109:\n        /* \"#utility.yul\":4791:4794   */\n      dup5\n        /* \"#utility.yul\":4787:4826   */\n      add\n        /* \"#utility.yul\":4780:4826   */\n      swap2\n      pop\n        /* \"#utility.yul\":4547:4832   */\n      pop\n        /* \"#utility.yul\":4455:4832   */\n      swap3\n      swap2\n      pop\n      pop\n      jump\t// out\n        /* \"#utility.yul\":4838:5273   */\n    tag_24:\n        /* \"#utility.yul\":4985:4989   */\n      0x00\n        /* \"#utility.yul\":5023:5025   */\n      0x40\n        /* \"#utility.yul\":5012:5021   */\n      dup3\n        /* \"#utility.yul\":5008:5026   */\n      add\n        /* \"#utility.yul\":5000:5026   */\n      swap1\n      pop\n        /* \"#utility.yul\":5036:5113   */\n      tag_111\n        /* \"#utility.yul\":5110:5111   */\n      0x00\n        /* \"#utility.yul\":5099:5108   */\n      dup4\n        /* \"#utility.yul\":5095:5112   */\n      add\n        /* \"#utility.yul\":5086:5092   */\n      dup6\n        /* \"#utility.yul\":5036:5113   */\n      tag_43\n      jump\t// in\n    tag_111:\n        /* \"#utility.yul\":5160:5169   */\n      dup2\n        /* \"#utility.yul\":5154:5158   */\n      dup2\n        /* \"#utility.yul\":5150:5170   */\n      sub\n        /* \"#utility.yul\":5145:5147   */\n      0x20\n        /* \"#utility.yul\":5134:5143   */\n      dup4\n        /* \"#utility.yul\":5130:5148   */\n      add\n        /* \"#utility.yul\":5123:5171   */\n      mstore\n        /* \"#utility.yul\":5188:5266   */\n      tag_112\n        /* \"#utility.yul\":5261:5265   */\n      dup2\n        /* \"#utility.yul\":5252:5258   */\n      dup5\n        /* \"#utility.yul\":5188:5266   */\n      tag_47\n      jump\t// in\n    tag_112:\n        /* \"#utility.yul\":5180:5266   */\n      swap1\n      pop\n        /* \"#utility.yul\":4838:5273   */\n      swap4\n      swap3\n      pop\n      pop\n      pop\n      jump\t// out\n        /* \"#utility.yul\":5279:5393   */\n    tag_48:\n      pop\n      jump\t// out\n        /* \"#utility.yul\":5399:5763   */\n    tag_49:\n        /* \"#utility.yul\":5541:5544   */\n      0x00\n        /* \"#utility.yul\":5562:5628   */\n      tag_115\n        /* \"#utility.yul\":5626:5627   */\n      0x00\n        /* \"#utility.yul\":5621:5624   */\n      dup4\n        /* \"#utility.yul\":5562:5628   */\n      tag_45\n      jump\t// in\n    tag_115:\n        /* \"#utility.yul\":5555:5628   */\n      swap2\n      pop\n        /* \"#utility.yul\":5637:5730   */\n      tag_116\n        /* \"#utility.yul\":5726:5729   */\n      dup3\n        /* \"#utility.yul\":5637:5730   */\n      tag_48\n      jump\t// in\n    tag_116:\n        /* \"#utility.yul\":5755:5756   */\n      0x00\n        /* \"#utility.yul\":5750:5753   */\n      dup3\n        /* \"#utility.yul\":5746:5757   */\n      add\n        /* \"#utility.yul\":5739:5757   */\n      swap1\n      pop\n        /* \"#utility.yul\":5399:5763   */\n      swap2\n      swap1\n      pop\n      jump\t// out\n        /* \"#utility.yul\":5769:6290   */\n    tag_27:\n        /* \"#utility.yul\":5959:5963   */\n      0x00\n        /* \"#utility.yul\":5997:5999   */\n      0x40\n        /* \"#utility.yul\":5986:5995   */\n      dup3\n        /* \"#utility.yul\":5982:6000   */\n      add\n        /* \"#utility.yul\":5974:6000   */\n      swap1\n      pop\n        /* \"#utility.yul\":6010:6077   */\n      tag_118\n        /* \"#utility.yul\":6074:6075   */\n      0x00\n        /* \"#utility.yul\":6063:6072   */\n      dup4\n        /* \"#utility.yul\":6059:6076   */\n      add\n        /* \"#utility.yul\":6050:6056   */\n      dup5\n        /* \"#utility.yul\":6010:6077   */\n      tag_34\n      jump\t// in\n    tag_118:\n        /* \"#utility.yul\":6124:6133   */\n      dup2\n        /* \"#utility.yul\":6118:6122   */\n      dup2\n        /* \"#utility.yul\":6114:6134   */\n      sub\n        /* \"#utility.yul\":6109:6111   */\n      0x20\n        /* \"#utility.yul\":6098:6107   */\n      dup4\n        /* \"#utility.yul\":6094:6112   */\n      add\n        /* \"#utility.yul\":6087:6135   */\n      mstore\n        /* \"#utility.yul\":6152:6283   */\n      tag_119\n        /* \"#utility.yul\":6278:6282   */\n      dup2\n        /* \"#utility.yul\":6152:6283   */\n      tag_49\n      jump\t// in\n    tag_119:\n        /* \"#utility.yul\":6144:6283   */\n      swap1\n      pop\n        /* \"#utility.yul\":5769:6290   */\n      swap3\n      swap2\n      pop\n      pop\n      jump\t// out\n\n    auxdata: 0xa264697066735822122062558002d07feb22343f74be82609579fd8634c53d35ed8934034e918e52950764736f6c63430008120033\n}\n",
				"bytecode": {
					"linkReferences": {},
					"object": "608060405234801561001057600080fd5b5060405161063d38038061063d833981810160405281019061003291906100db565b806000806101000a81548173ffffffffffffffffffffffffffffffffffffffff021916908373ffffffffffffffffffffffffffffffffffffffff16021790555050610108565b600080fd5b600073ffffffffffffffffffffffffffffffffffffffff82169050919050565b60006100a88261007d565b9050919050565b6100b88161009d565b81146100c357600080fd5b50565b6000815190506100d5816100af565b92915050565b6000602082840312156100f1576100f0610078565b5b60006100ff848285016100c6565b91505092915050565b610526806101176000396000f3fe608060405234801561001057600080fd5b506004361061002b5760003560e01c80637da3165f14610030575b600080fd5b61004a600480360381019061004591906101df565b61004c565b005b60008054906101000a900473ffffffffffffffffffffffffffffffffffffffff1673ffffffffffffffffffffffffffffffffffffffff166312eda0be826040518263ffffffff1660e01b81526004016100a5919061021b565b602060405180830381865afa9250505080156100df57506040513d601f19601f820116820180604052508101906100dc919061024b565b60015b61015b576100eb610285565b806308c379a00361014a57506100ff610318565b8061010a575061014c565b7f65e40f25ac92211a0992a34efd5daa3e9518b7dbce75ac8f5060ca856982a3f860008260405161013c92919061046c565b60405180910390a150610156565b505b3d6000803e3d6000fd5b610194565b7f65e40f25ac92211a0992a34efd5daa3e9518b7dbce75ac8f5060ca856982a3f88160405161018a91906104c2565b60405180910390a1505b50565b6000604051905090565b600080fd5b600060ff82169050919050565b6101bc816101a6565b81146101c757600080fd5b50565b6000813590506101d9816101b3565b92915050565b6000602082840312156101f5576101f46101a1565b5b6000610203848285016101ca565b91505092915050565b610215816101a6565b82525050565b6000602082019050610230600083018461020c565b92915050565b600081519050610245816101b3565b92915050565b600060208284031215610261576102606101a1565b5b600061026f84828501610236565b91505092915050565b60008160e01c9050919050565b600060033d11156102a45760046000803e6102a1600051610278565b90505b90565b6000601f19601f8301169050919050565b7f4e487b7100000000000000000000000000000000000000000000000000000000600052604160045260246000fd5b6102f0826102a7565b810181811067ffffffffffffffff8211171561030f5761030e6102b8565b5b80604052505050565b600060443d106103a55761032a610197565b60043d036004823e80513d602482011167ffffffffffffffff821117156103525750506103a5565b808201805167ffffffffffffffff81111561037057505050506103a5565b80602083010160043d03850181111561038d5750505050506103a5565b61039c826020018501866102e7565b82955050505050505b90565b6000819050919050565b6000819050919050565b60006103d76103d26103cd846103a8565b6103b2565b6101a6565b9050919050565b6103e7816103bc565b82525050565b600081519050919050565b600082825260208201905092915050565b60005b8381101561042757808201518184015260208101905061040c565b60008484015250505050565b600061043e826103ed565b61044881856103f8565b9350610458818560208601610409565b610461816102a7565b840191505092915050565b600060408201905061048160008301856103de565b81810360208301526104938184610433565b90509392505050565b50565b60006104ac6000836103f8565b91506104b78261049c565b600082019050919050565b60006040820190506104d7600083018461020c565b81810360208301526104e88161049f565b90509291505056fea264697066735822122062558002d07feb22343f74be82609579fd8634c53d35ed8934034e918e52950764736f6c63430008120033",
					"opcodes": "PUSH1 0x80 PUSH1 0x40 MSTORE CALLVALUE DUP1 ISZERO PUSH2 0x10 JUMPI PUSH1 0x0 DUP1 REVERT JUMPDEST POP PUSH1 0x40 MLOAD PUSH2 0x63D CODESIZE SUB DUP1 PUSH2 0x63D DUP4 CODECOPY DUP2 DUP2 ADD PUSH1 0x40 MSTORE DUP2 ADD SWAP1 PUSH2 0x32 SWAP2 SWAP1 PUSH2 0xDB JUMP JUMPDEST DUP1 PUSH1 0x0 DUP1 PUSH2 0x100 EXP DUP2 SLOAD DUP2 PUSH20 0xFFFFFFFFFFFFFFFFFFFFFFFFFFFFFFFFFFFFFFFF MUL NOT AND SWAP1 DUP4 PUSH20 0xFFFFFFFFFFFFFFFFFFFFFFFFFFFFFFFFFFFFFFFF AND MUL OR SWAP1 SSTORE POP POP PUSH2 0x108 JUMP JUMPDEST PUSH1 0x0 DUP1 REVERT JUMPDEST PUSH1 0x0 PUSH20 0xFFFFFFFFFFFFFFFFFFFFFFFFFFFFFFFFFFFFFFFF DUP3 AND SWAP1 POP SWAP2 SWAP1 POP JUMP JUMPDEST PUSH1 0x0 PUSH2 0xA8 DUP3 PUSH2 0x7D JUMP JUMPDEST SWAP1 POP SWAP2 SWAP1 POP JUMP JUMPDEST PUSH2 0xB8 DUP2 PUSH2 0x9D JUMP JUMPDEST DUP2 EQ PUSH2 0xC3 JUMPI PUSH1 0x0 DUP1 REVERT JUMPDEST POP JUMP JUMPDEST PUSH1 0x0 DUP2 MLOAD SWAP1 POP PUSH2 0xD5 DUP2 PUSH2 0xAF JUMP JUMPDEST SWAP3 SWAP2 POP POP JUMP JUMPDEST PUSH1 0x0 PUSH1 0x20 DUP3 DUP5 SUB SLT ISZERO PUSH2 0xF1 JUMPI PUSH2 0xF0 PUSH2 0x78 JUMP JUMPDEST JUMPDEST PUSH1 0x0 PUSH2 0xFF DUP5 DUP3 DUP6 ADD PUSH2 0xC6 JUMP JUMPDEST SWAP2 POP POP SWAP3 SWAP2 POP POP JUMP JUMPDEST PUSH2 0x526 DUP1 PUSH2 0x117 PUSH1 0x0 CODECOPY PUSH1 0x0 RETURN INVALID PUSH1 0x80 PUSH1 0x40 MSTORE CALLVALUE DUP1 ISZERO PUSH2 0x10 JUMPI PUSH1 0x0 DUP1 REVERT JUMPDEST POP PUSH1 0x4 CALLDATASIZE LT PUSH2 0x2B JUMPI PUSH1 0x0 CALLDATALOAD PUSH1 0xE0 SHR DUP1 PUSH4 0x7DA3165F EQ PUSH2 0x30 JUMPI JUMPDEST PUSH1 0x0 DUP1 REVERT JUMPDEST PUSH2 0x4A PUSH1 0x4 DUP1 CALLDATASIZE SUB DUP2 ADD SWAP1 PUSH2 0x45 SWAP2 SWAP1 PUSH2 0x1DF JUMP JUMPDEST PUSH2 0x4C JUMP JUMPDEST STOP JUMPDEST PUSH1 0x0 DUP1 SLOAD SWAP1 PUSH2 0x100 EXP SWAP1 DIV PUSH20 0xFFFFFFFFFFFFFFFFFFFFFFFFFFFFFFFFFFFFFFFF AND PUSH20 0xFFFFFFFFFFFFFFFFFFFFFFFFFFFFFFFFFFFFFFFF AND PUSH4 0x12EDA0BE DUP3 PUSH1 0x40 MLOAD DUP3 PUSH4 0xFFFFFFFF AND PUSH1 0xE0 SHL DUP2 MSTORE PUSH1 0x4 ADD PUSH2 0xA5 SWAP2 SWAP1 PUSH2 0x21B JUMP JUMPDEST PUSH1 0x20 PUSH1 0x40 MLOAD DUP1 DUP4 SUB DUP2 DUP7 GAS STATICCALL SWAP3 POP POP POP DUP1 ISZERO PUSH2 0xDF JUMPI POP PUSH1 0x40 MLOAD RETURNDATASIZE PUSH1 0x1F NOT PUSH1 0x1F DUP3 ADD AND DUP3 ADD DUP1 PUSH1 0x40 MSTORE POP DUP2 ADD SWAP1 PUSH2 0xDC SWAP2 SWAP1 PUSH2 0x24B JUMP JUMPDEST PUSH1 0x1 JUMPDEST PUSH2 0x15B JUMPI PUSH2 0xEB PUSH2 0x285 JUMP JUMPDEST DUP1 PUSH4 0x8C379A0 SUB PUSH2 0x14A JUMPI POP PUSH2 0xFF PUSH2 0x318 JUMP JUMPDEST DUP1 PUSH2 0x10A JUMPI POP PUSH2 0x14C JUMP JUMPDEST PUSH32 0x65E40F25AC92211A0992A34EFD5DAA3E9518B7DBCE75AC8F5060CA856982A3F8 PUSH1 0x0 DUP3 PUSH1 0x40 MLOAD PUSH2 0x13C SWAP3 SWAP2 SWAP1 PUSH2 0x46C JUMP JUMPDEST PUSH1 0x40 MLOAD DUP1 SWAP2 SUB SWAP1 LOG1 POP PUSH2 0x156 JUMP JUMPDEST POP JUMPDEST RETURNDATASIZE PUSH1 0x0 DUP1 RETURNDATACOPY RETURNDATASIZE PUSH1 0x0 REVERT JUMPDEST PUSH2 0x194 JUMP JUMPDEST PUSH32 0x65E40F25AC92211A0992A34EFD5DAA3E9518B7DBCE75AC8F5060CA856982A3F8 DUP2 PUSH1 0x40 MLOAD PUSH2 0x18A SWAP2 SWAP1 PUSH2 0x4C2 JUMP JUMPDEST PUSH1 0x40 MLOAD DUP1 SWAP2 SUB SWAP1 LOG1 POP JUMPDEST POP JUMP JUMPDEST PUSH1 0x0 PUSH1 0x40 MLOAD SWAP1 POP SWAP1 JUMP JUMPDEST PUSH1 0x0 DUP1 REVERT JUMPDEST PUSH1 0x0 PUSH1 0xFF DUP3 AND SWAP1 POP SWAP2 SWAP1 POP JUMP JUMPDEST PUSH2 0x1BC DUP2 PUSH2 0x1A6 JUMP JUMPDEST DUP2 EQ PUSH2 0x1C7 JUMPI PUSH1 0x0 DUP1 REVERT JUMPDEST POP JUMP JUMPDEST PUSH1 0x0 DUP2 CALLDATALOAD SWAP1 POP PUSH2 0x1D9 DUP2 PUSH2 0x1B3 JUMP JUMPDEST SWAP3 SWAP2 POP POP JUMP JUMPDEST PUSH1 0x0 PUSH1 0x20 DUP3 DUP5 SUB SLT ISZERO PUSH2 0x1F5 JUMPI PUSH2 0x1F4 PUSH2 0x1A1 JUMP JUMPDEST JUMPDEST PUSH1 0x0 PUSH2 0x203 DUP5 DUP3 DUP6 ADD PUSH2 0x1CA JUMP JUMPDEST SWAP2 POP POP SWAP3 SWAP2 POP POP JUMP JUMPDEST PUSH2 0x215 DUP2 PUSH2 0x1A6 JUMP JUMPDEST DUP3 MSTORE POP POP JUMP JUMPDEST PUSH1 0x0 PUSH1 0x20 DUP3 ADD SWAP1 POP PUSH2 0x230 PUSH1 0x0 DUP4 ADD DUP5 PUSH2 0x20C JUMP JUMPDEST SWAP3 SWAP2 POP POP JUMP JUMPDEST PUSH1 0x0 DUP2 MLOAD SWAP1 POP PUSH2 0x245 DUP2 PUSH2 0x1B3 JUMP JUMPDEST SWAP3 SWAP2 POP POP JUMP JUMPDEST PUSH1 0x0 PUSH1 0x20 DUP3 DUP5 SUB SLT ISZERO PUSH2 0x261 JUMPI PUSH2 0x260 PUSH2 0x1A1 JUMP JUMPDEST JUMPDEST PUSH1 0x0 PUSH2 0x26F DUP5 DUP3 DUP6 ADD PUSH2 0x236 JUMP JUMPDEST SWAP2 POP POP SWAP3 SWAP2 POP POP JUMP JUMPDEST PUSH1 0x0 DUP2 PUSH1 0xE0 SHR SWAP1 POP SWAP2 SWAP1 POP JUMP JUMPDEST PUSH1 0x0 PUSH1 0x3 RETURNDATASIZE GT ISZERO PUSH2 0x2A4 JUMPI PUSH1 0x4 PUSH1 0x0 DUP1 RETURNDATACOPY PUSH2 0x2A1 PUSH1 0x0 MLOAD PUSH2 0x278 JUMP JUMPDEST SWAP1 POP JUMPDEST SWAP1 JUMP JUMPDEST PUSH1 0x0 PUSH1 0x1F NOT PUSH1 0x1F DUP4 ADD AND SWAP1 POP SWAP2 SWAP1 POP JUMP JUMPDEST PUSH32 0x4E487B7100000000000000000000000000000000000000000000000000000000 PUSH1 0x0 MSTORE PUSH1 0x41 PUSH1 0x4 MSTORE PUSH1 0x24 PUSH1 0x0 REVERT JUMPDEST PUSH2 0x2F0 DUP3 PUSH2 0x2A7 JUMP JUMPDEST DUP2 ADD DUP2 DUP2 LT PUSH8 0xFFFFFFFFFFFFFFFF DUP3 GT OR ISZERO PUSH2 0x30F JUMPI PUSH2 0x30E PUSH2 0x2B8 JUMP JUMPDEST JUMPDEST DUP1 PUSH1 0x40 MSTORE POP POP POP JUMP JUMPDEST PUSH1 0x0 PUSH1 0x44 RETURNDATASIZE LT PUSH2 0x3A5 JUMPI PUSH2 0x32A PUSH2 0x197 JUMP JUMPDEST PUSH1 0x4 RETURNDATASIZE SUB PUSH1 0x4 DUP3 RETURNDATACOPY DUP1 MLOAD RETURNDATASIZE PUSH1 0x24 DUP3 ADD GT PUSH8 0xFFFFFFFFFFFFFFFF DUP3 GT OR ISZERO PUSH2 0x352 JUMPI POP POP PUSH2 0x3A5 JUMP JUMPDEST DUP1 DUP3 ADD DUP1 MLOAD PUSH8 0xFFFFFFFFFFFFFFFF DUP2 GT ISZERO PUSH2 0x370 JUMPI POP POP POP POP PUSH2 0x3A5 JUMP JUMPDEST DUP1 PUSH1 0x20 DUP4 ADD ADD PUSH1 0x4 RETURNDATASIZE SUB DUP6 ADD DUP2 GT ISZERO PUSH2 0x38D JUMPI POP POP POP POP POP PUSH2 0x3A5 JUMP JUMPDEST PUSH2 0x39C DUP3 PUSH1 0x20 ADD DUP6 ADD DUP7 PUSH2 0x2E7 JUMP JUMPDEST DUP3 SWAP6 POP POP POP POP POP POP JUMPDEST SWAP1 JUMP JUMPDEST PUSH1 0x0 DUP2 SWAP1 POP SWAP2 SWAP1 POP JUMP JUMPDEST PUSH1 0x0 DUP2 SWAP1 POP SWAP2 SWAP1 POP JUMP JUMPDEST PUSH1 0x0 PUSH2 0x3D7 PUSH2 0x3D2 PUSH2 0x3CD DUP5 PUSH2 0x3A8 JUMP JUMPDEST PUSH2 0x3B2 JUMP JUMPDEST PUSH2 0x1A6 JUMP JUMPDEST SWAP1 POP SWAP2 SWAP1 POP JUMP JUMPDEST PUSH2 0x3E7 DUP2 PUSH2 0x3BC JUMP JUMPDEST DUP3 MSTORE POP POP JUMP JUMPDEST PUSH1 0x0 DUP2 MLOAD SWAP1 POP SWAP2 SWAP1 POP JUMP JUMPDEST PUSH1 0x0 DUP3 DUP3 MSTORE PUSH1 0x20 DUP3 ADD SWAP1 POP SWAP3 SWAP2 POP POP JUMP JUMPDEST PUSH1 0x0 JUMPDEST DUP4 DUP2 LT ISZERO PUSH2 0x427 JUMPI DUP1 DUP3 ADD MLOAD DUP2 DUP5 ADD MSTORE PUSH1 0x20 DUP2 ADD SWAP1 POP PUSH2 0x40C JUMP JUMPDEST PUSH1 0x0 DUP5 DUP5 ADD MSTORE POP POP POP POP JUMP JUMPDEST PUSH1 0x0 PUSH2 0x43E DUP3 PUSH2 0x3ED JUMP JUMPDEST PUSH2 0x448 DUP2 DUP6 PUSH2 0x3F8 JUMP JUMPDEST SWAP4 POP PUSH2 0x458 DUP2 DUP6 PUSH1 0x20 DUP7 ADD PUSH2 0x409 JUMP JUMPDEST PUSH2 0x461 DUP2 PUSH2 0x2A7 JUMP JUMPDEST DUP5 ADD SWAP2 POP POP SWAP3 SWAP2 POP POP JUMP JUMPDEST PUSH1 0x0 PUSH1 0x40 DUP3 ADD SWAP1 POP PUSH2 0x481 PUSH1 0x0 DUP4 ADD DUP6 PUSH2 0x3DE JUMP JUMPDEST DUP2 DUP2 SUB PUSH1 0x20 DUP4 ADD MSTORE PUSH2 0x493 DUP2 DUP5 PUSH2 0x433 JUMP JUMPDEST SWAP1 POP SWAP4 SWAP3 POP POP POP JUMP JUMPDEST POP JUMP JUMPDEST PUSH1 0x0 PUSH2 0x4AC PUSH1 0x0 DUP4 PUSH2 0x3F8 JUMP JUMPDEST SWAP2 POP PUSH2 0x4B7 DUP3 PUSH2 0x49C JUMP JUMPDEST PUSH1 0x0 DUP3 ADD SWAP1 POP SWAP2 SWAP1 POP JUMP JUMPDEST PUSH1 0x0 PUSH1 0x40 DUP3 ADD SWAP1 POP PUSH2 0x4D7 PUSH1 0x0 DUP4 ADD DUP5 PUSH2 0x20C JUMP JUMPDEST DUP2 DUP2 SUB PUSH1 0x20 DUP4 ADD MSTORE PUSH2 0x4E8 DUP2 PUSH2 0x49F JUMP JUMPDEST SWAP1 POP SWAP3 SWAP2 POP POP JUMP INVALID LOG2 PUSH5 0x6970667358 0x22 SLT KECCAK256 PUSH3 0x558002 0xD0 PUSH32 0xEB22343F74BE82609579FD8634C53D35ED8934034E918E52950764736F6C6343 STOP ADDMOD SLT STOP CALLER "
				},
				"gasEstimates": {
					"creation": {
						"codeDepositCost": "263600",
						"executionCost": "infinite",
						"totalCost": "infinite"
					},
					"external": {
						"tryCatch(uint8)": "infinite"
					}
				},
				"methodIdentifiers": {
					"tryCatch(uint8)": "7da3165f"
				}
			},
			"storageLayout": {
				"storage": [
					{
						"astId": 28,
						"contract": "trycatch.sol:Caller",
						"label": "func",
						"offset": 0,
						"slot": "0",
						"type": "t_contract(Functions)25"
					}
				],
				"types": {
					"t_contract(Functions)25": {
						"encoding": "inplace",
						"label": "contract Functions",
						"numberOfBytes": "20"
					}
				}
			},
			"userdoc": {
				"kind": "user",
				"methods": {},
				"version": 1
			}
		}
	}
}