{
	"abiEncodedCall.sol": {
		"Transfer": {
			"abi": [
				{
					"inputs": [
						{
							"internalType": "uint256",
							"name": "amount",
							"type": "uint256"
						},
						{
							"internalType": "address",
							"name": "targetAddress",
							"type": "address"
						}
					],
					"name": "transfer",
					"outputs": [
						{
							"internalType": "string",
							"name": "",
							"type": "string"
						},
						{
							"internalType": "uint256",
							"name": "",
							"type": "uint256"
						},
						{
							"internalType": "address",
							"name": "",
							"type": "address"
						}
					],
					"stateMutability": "pure",
					"type": "function"
				}
			],
			"devdoc": {
				"kind": "dev",
				"methods": {},
				"version": 1
			},
			"evm": {
				"assembly": "    /* \"abiEncodedCall.sol\":63:264  contract Transfer{... */\n  mstore(0x40, 0x80)\n  callvalue\n  dup1\n  iszero\n  tag_1\n  jumpi\n  0x00\n  dup1\n  revert\ntag_1:\n  pop\n  dataSize(sub_0)\n  dup1\n  dataOffset(sub_0)\n  0x00\n  codecopy\n  0x00\n  return\nstop\n\nsub_0: assembly {\n        /* \"abiEncodedCall.sol\":63:264  contract Transfer{... */\n      mstore(0x40, 0x80)\n      callvalue\n      dup1\n      iszero\n      tag_1\n      jumpi\n      0x00\n      dup1\n      revert\n    tag_1:\n      pop\n      jumpi(tag_2, lt(calldatasize, 0x04))\n      shr(0xe0, calldataload(0x00))\n      dup1\n      0xb7760c8f\n      eq\n      tag_3\n      jumpi\n    tag_2:\n      0x00\n      dup1\n      revert\n        /* \"abiEncodedCall.sol\":87:261  function transfer(uint256 amount, address targetAddress) pure public returns(string memory,uint256,address){... */\n    tag_3:\n      tag_4\n      0x04\n      dup1\n      calldatasize\n      sub\n      dup2\n      add\n      swap1\n      tag_5\n      swap2\n      swap1\n      tag_6\n      jump\t// in\n    tag_5:\n      tag_7\n      jump\t// in\n    tag_4:\n      mload(0x40)\n      tag_8\n      swap4\n      swap3\n      swap2\n      swap1\n      tag_9\n      jump\t// in\n    tag_8:\n      mload(0x40)\n      dup1\n      swap2\n      sub\n      swap1\n      return\n    tag_7:\n        /* \"abiEncodedCall.sol\":164:177  string memory */\n      0x60\n        /* \"abiEncodedCall.sol\":178:185  uint256 */\n      0x00\n        /* \"abiEncodedCall.sol\":186:193  address */\n      dup1\n        /* \"abiEncodedCall.sol\":232:238  amount */\n      dup5\n        /* \"abiEncodedCall.sol\":239:252  targetAddress */\n      dup5\n        /* \"abiEncodedCall.sol\":205:253  return(\"Transfer complete\",amount,targetAddress) */\n      mload(0x40)\n      dup1\n      0x40\n      add\n      0x40\n      mstore\n      dup1\n      0x11\n      dup2\n      mstore\n      0x20\n      add\n      0x5472616e7366657220636f6d706c657465000000000000000000000000000000\n      dup2\n      mstore\n      pop\n      swap2\n      swap1\n      swap3\n      pop\n      swap3\n      pop\n      swap3\n      pop\n        /* \"abiEncodedCall.sol\":87:261  function transfer(uint256 amount, address targetAddress) pure public returns(string memory,uint256,address){... */\n      swap3\n      pop\n      swap3\n      pop\n      swap3\n      jump\t// out\n        /* \"#utility.yul\":88:205   */\n    tag_12:\n        /* \"#utility.yul\":197:198   */\n      0x00\n        /* \"#utility.yul\":194:195   */\n      dup1\n        /* \"#utility.yul\":187:199   */\n      revert\n        /* \"#utility.yul\":334:411   */\n    tag_14:\n        /* \"#utility.yul\":371:378   */\n      0x00\n        /* \"#utility.yul\":400:405   */\n      dup2\n        /* \"#utility.yul\":389:405   */\n      swap1\n      pop\n        /* \"#utility.yul\":334:411   */\n      swap2\n      swap1\n      pop\n      jump\t// out\n        /* \"#utility.yul\":417:539   */\n    tag_15:\n        /* \"#utility.yul\":490:514   */\n      tag_34\n        /* \"#utility.yul\":508:513   */\n      dup2\n        /* \"#utility.yul\":490:514   */\n      tag_14\n      jump\t// in\n    tag_34:\n        /* \"#utility.yul\":483:488   */\n      dup2\n        /* \"#utility.yul\":480:515   */\n      eq\n        /* \"#utility.yul\":470:533   */\n      tag_35\n      jumpi\n        /* \"#utility.yul\":529:530   */\n      0x00\n        /* \"#utility.yul\":526:527   */\n      dup1\n        /* \"#utility.yul\":519:531   */\n      revert\n        /* \"#utility.yul\":470:533   */\n    tag_35:\n        /* \"#utility.yul\":417:539   */\n      pop\n      jump\t// out\n        /* \"#utility.yul\":545:684   */\n    tag_16:\n        /* \"#utility.yul\":591:596   */\n      0x00\n        /* \"#utility.yul\":629:635   */\n      dup2\n        /* \"#utility.yul\":616:636   */\n      calldataload\n        /* \"#utility.yul\":607:636   */\n      swap1\n      pop\n        /* \"#utility.yul\":645:678   */\n      tag_37\n        /* \"#utility.yul\":672:677   */\n      dup2\n        /* \"#utility.yul\":645:678   */\n      tag_15\n      jump\t// in\n    tag_37:\n        /* \"#utility.yul\":545:684   */\n      swap3\n      swap2\n      pop\n      pop\n      jump\t// out\n        /* \"#utility.yul\":690:816   */\n    tag_17:\n        /* \"#utility.yul\":727:734   */\n      0x00\n        /* \"#utility.yul\":767:809   */\n      0xffffffffffffffffffffffffffffffffffffffff\n        /* \"#utility.yul\":760:765   */\n      dup3\n        /* \"#utility.yul\":756:810   */\n      and\n        /* \"#utility.yul\":745:810   */\n      swap1\n      pop\n        /* \"#utility.yul\":690:816   */\n      swap2\n      swap1\n      pop\n      jump\t// out\n        /* \"#utility.yul\":822:918   */\n    tag_18:\n        /* \"#utility.yul\":859:866   */\n      0x00\n        /* \"#utility.yul\":888:912   */\n      tag_40\n        /* \"#utility.yul\":906:911   */\n      dup3\n        /* \"#utility.yul\":888:912   */\n      tag_17\n      jump\t// in\n    tag_40:\n        /* \"#utility.yul\":877:912   */\n      swap1\n      pop\n        /* \"#utility.yul\":822:918   */\n      swap2\n      swap1\n      pop\n      jump\t// out\n        /* \"#utility.yul\":924:1046   */\n    tag_19:\n        /* \"#utility.yul\":997:1021   */\n      tag_42\n        /* \"#utility.yul\":1015:1020   */\n      dup2\n        /* \"#utility.yul\":997:1021   */\n      tag_18\n      jump\t// in\n    tag_42:\n        /* \"#utility.yul\":990:995   */\n      dup2\n        /* \"#utility.yul\":987:1022   */\n      eq\n        /* \"#utility.yul\":977:1040   */\n      tag_43\n      jumpi\n        /* \"#utility.yul\":1036:1037   */\n      0x00\n        /* \"#utility.yul\":1033:1034   */\n      dup1\n        /* \"#utility.yul\":1026:1038   */\n      revert\n        /* \"#utility.yul\":977:1040   */\n    tag_43:\n        /* \"#utility.yul\":924:1046   */\n      pop\n      jump\t// out\n        /* \"#utility.yul\":1052:1191   */\n    tag_20:\n        /* \"#utility.yul\":1098:1103   */\n      0x00\n        /* \"#utility.yul\":1136:1142   */\n      dup2\n        /* \"#utility.yul\":1123:1143   */\n      calldataload\n        /* \"#utility.yul\":1114:1143   */\n      swap1\n      pop\n        /* \"#utility.yul\":1152:1185   */\n      tag_45\n        /* \"#utility.yul\":1179:1184   */\n      dup2\n        /* \"#utility.yul\":1152:1185   */\n      tag_19\n      jump\t// in\n    tag_45:\n        /* \"#utility.yul\":1052:1191   */\n      swap3\n      swap2\n      pop\n      pop\n      jump\t// out\n        /* \"#utility.yul\":1197:1671   */\n    tag_6:\n        /* \"#utility.yul\":1265:1271   */\n      0x00\n        /* \"#utility.yul\":1273:1279   */\n      dup1\n        /* \"#utility.yul\":1322:1324   */\n      0x40\n        /* \"#utility.yul\":1310:1319   */\n      dup4\n        /* \"#utility.yul\":1301:1308   */\n      dup6\n        /* \"#utility.yul\":1297:1320   */\n      sub\n        /* \"#utility.yul\":1293:1325   */\n      slt\n        /* \"#utility.yul\":1290:1409   */\n      iszero\n      tag_47\n      jumpi\n        /* \"#utility.yul\":1328:1407   */\n      tag_48\n      tag_12\n      jump\t// in\n    tag_48:\n        /* \"#utility.yul\":1290:1409   */\n    tag_47:\n        /* \"#utility.yul\":1448:1449   */\n      0x00\n        /* \"#utility.yul\":1473:1526   */\n      tag_49\n        /* \"#utility.yul\":1518:1525   */\n      dup6\n        /* \"#utility.yul\":1509:1515   */\n      dup3\n        /* \"#utility.yul\":1498:1507   */\n      dup7\n        /* \"#utility.yul\":1494:1516   */\n      add\n        /* \"#utility.yul\":1473:1526   */\n      tag_16\n      jump\t// in\n    tag_49:\n        /* \"#utility.yul\":1463:1526   */\n      swap3\n      pop\n        /* \"#utility.yul\":1419:1536   */\n      pop\n        /* \"#utility.yul\":1575:1577   */\n      0x20\n        /* \"#utility.yul\":1601:1654   */\n      tag_50\n        /* \"#utility.yul\":1646:1653   */\n      dup6\n        /* \"#utility.yul\":1637:1643   */\n      dup3\n        /* \"#utility.yul\":1626:1635   */\n      dup7\n        /* \"#utility.yul\":1622:1644   */\n      add\n        /* \"#utility.yul\":1601:1654   */\n      tag_20\n      jump\t// in\n    tag_50:\n        /* \"#utility.yul\":1591:1654   */\n      swap2\n      pop\n        /* \"#utility.yul\":1546:1664   */\n      pop\n        /* \"#utility.yul\":1197:1671   */\n      swap3\n      pop\n      swap3\n      swap1\n      pop\n      jump\t// out\n        /* \"#utility.yul\":1677:1776   */\n    tag_21:\n        /* \"#utility.yul\":1729:1735   */\n      0x00\n        /* \"#utility.yul\":1763:1768   */\n      dup2\n        /* \"#utility.yul\":1757:1769   */\n      mload\n        /* \"#utility.yul\":1747:1769   */\n      swap1\n      pop\n        /* \"#utility.yul\":1677:1776   */\n      swap2\n      swap1\n      pop\n      jump\t// out\n        /* \"#utility.yul\":1782:1951   */\n    tag_22:\n        /* \"#utility.yul\":1866:1877   */\n      0x00\n        /* \"#utility.yul\":1900:1906   */\n      dup3\n        /* \"#utility.yul\":1895:1898   */\n      dup3\n        /* \"#utility.yul\":1888:1907   */\n      mstore\n        /* \"#utility.yul\":1940:1944   */\n      0x20\n        /* \"#utility.yul\":1935:1938   */\n      dup3\n        /* \"#utility.yul\":1931:1945   */\n      add\n        /* \"#utility.yul\":1916:1945   */\n      swap1\n      pop\n        /* \"#utility.yul\":1782:1951   */\n      swap3\n      swap2\n      pop\n      pop\n      jump\t// out\n        /* \"#utility.yul\":1957:2203   */\n    tag_23:\n        /* \"#utility.yul\":2038:2039   */\n      0x00\n        /* \"#utility.yul\":2048:2161   */\n    tag_54:\n        /* \"#utility.yul\":2062:2068   */\n      dup4\n        /* \"#utility.yul\":2059:2060   */\n      dup2\n        /* \"#utility.yul\":2056:2069   */\n      lt\n        /* \"#utility.yul\":2048:2161   */\n      iszero\n      tag_56\n      jumpi\n        /* \"#utility.yul\":2147:2148   */\n      dup1\n        /* \"#utility.yul\":2142:2145   */\n      dup3\n        /* \"#utility.yul\":2138:2149   */\n      add\n        /* \"#utility.yul\":2132:2150   */\n      mload\n        /* \"#utility.yul\":2128:2129   */\n      dup2\n        /* \"#utility.yul\":2123:2126   */\n      dup5\n        /* \"#utility.yul\":2119:2130   */\n      add\n        /* \"#utility.yul\":2112:2151   */\n      mstore\n        /* \"#utility.yul\":2084:2086   */\n      0x20\n        /* \"#utility.yul\":2081:2082   */\n      dup2\n        /* \"#utility.yul\":2077:2087   */\n      add\n        /* \"#utility.yul\":2072:2087   */\n      swap1\n      pop\n        /* \"#utility.yul\":2048:2161   */\n      jump(tag_54)\n    tag_56:\n        /* \"#utility.yul\":2195:2196   */\n      0x00\n        /* \"#utility.yul\":2186:2192   */\n      dup5\n        /* \"#utility.yul\":2181:2184   */\n      dup5\n        /* \"#utility.yul\":2177:2193   */\n      add\n        /* \"#utility.yul\":2170:2197   */\n      mstore\n        /* \"#utility.yul\":2019:2203   */\n      pop\n        /* \"#utility.yul\":1957:2203   */\n      pop\n      pop\n      pop\n      jump\t// out\n        /* \"#utility.yul\":2209:2311   */\n    tag_24:\n        /* \"#utility.yul\":2250:2256   */\n      0x00\n        /* \"#utility.yul\":2301:2303   */\n      0x1f\n        /* \"#utility.yul\":2297:2304   */\n      not\n        /* \"#utility.yul\":2292:2294   */\n      0x1f\n        /* \"#utility.yul\":2285:2290   */\n      dup4\n        /* \"#utility.yul\":2281:2295   */\n      add\n        /* \"#utility.yul\":2277:2305   */\n      and\n        /* \"#utility.yul\":2267:2305   */\n      swap1\n      pop\n        /* \"#utility.yul\":2209:2311   */\n      swap2\n      swap1\n      pop\n      jump\t// out\n        /* \"#utility.yul\":2317:2694   */\n    tag_25:\n        /* \"#utility.yul\":2405:2408   */\n      0x00\n        /* \"#utility.yul\":2433:2472   */\n      tag_59\n        /* \"#utility.yul\":2466:2471   */\n      dup3\n        /* \"#utility.yul\":2433:2472   */\n      tag_21\n      jump\t// in\n    tag_59:\n        /* \"#utility.yul\":2488:2559   */\n      tag_60\n        /* \"#utility.yul\":2552:2558   */\n      dup2\n        /* \"#utility.yul\":2547:2550   */\n      dup6\n        /* \"#utility.yul\":2488:2559   */\n      tag_22\n      jump\t// in\n    tag_60:\n        /* \"#utility.yul\":2481:2559   */\n      swap4\n      pop\n        /* \"#utility.yul\":2568:2633   */\n      tag_61\n        /* \"#utility.yul\":2626:2632   */\n      dup2\n        /* \"#utility.yul\":2621:2624   */\n      dup6\n        /* \"#utility.yul\":2614:2618   */\n      0x20\n        /* \"#utility.yul\":2607:2612   */\n      dup7\n        /* \"#utility.yul\":2603:2619   */\n      add\n        /* \"#utility.yul\":2568:2633   */\n      tag_23\n      jump\t// in\n    tag_61:\n        /* \"#utility.yul\":2658:2687   */\n      tag_62\n        /* \"#utility.yul\":2680:2686   */\n      dup2\n        /* \"#utility.yul\":2658:2687   */\n      tag_24\n      jump\t// in\n    tag_62:\n        /* \"#utility.yul\":2653:2656   */\n      dup5\n        /* \"#utility.yul\":2649:2688   */\n      add\n        /* \"#utility.yul\":2642:2688   */\n      swap2\n      pop\n        /* \"#utility.yul\":2409:2694   */\n      pop\n        /* \"#utility.yul\":2317:2694   */\n      swap3\n      swap2\n      pop\n      pop\n      jump\t// out\n        /* \"#utility.yul\":2700:2818   */\n    tag_26:\n        /* \"#utility.yul\":2787:2811   */\n      tag_64\n        /* \"#utility.yul\":2805:2810   */\n      dup2\n        /* \"#utility.yul\":2787:2811   */\n      tag_14\n      jump\t// in\n    tag_64:\n        /* \"#utility.yul\":2782:2785   */\n      dup3\n        /* \"#utility.yul\":2775:2812   */\n      mstore\n        /* \"#utility.yul\":2700:2818   */\n      pop\n      pop\n      jump\t// out\n        /* \"#utility.yul\":2824:2942   */\n    tag_27:\n        /* \"#utility.yul\":2911:2935   */\n      tag_66\n        /* \"#utility.yul\":2929:2934   */\n      dup2\n        /* \"#utility.yul\":2911:2935   */\n      tag_18\n      jump\t// in\n    tag_66:\n        /* \"#utility.yul\":2906:2909   */\n      dup3\n        /* \"#utility.yul\":2899:2936   */\n      mstore\n        /* \"#utility.yul\":2824:2942   */\n      pop\n      pop\n      jump\t// out\n        /* \"#utility.yul\":2948:3481   */\n    tag_9:\n        /* \"#utility.yul\":3117:3121   */\n      0x00\n        /* \"#utility.yul\":3155:3157   */\n      0x60\n        /* \"#utility.yul\":3144:3153   */\n      dup3\n        /* \"#utility.yul\":3140:3158   */\n      add\n        /* \"#utility.yul\":3132:3158   */\n      swap1\n      pop\n        /* \"#utility.yul\":3204:3213   */\n      dup2\n        /* \"#utility.yul\":3198:3202   */\n      dup2\n        /* \"#utility.yul\":3194:3214   */\n      sub\n        /* \"#utility.yul\":3190:3191   */\n      0x00\n        /* \"#utility.yul\":3179:3188   */\n      dup4\n        /* \"#utility.yul\":3175:3192   */\n      add\n        /* \"#utility.yul\":3168:3215   */\n      mstore\n        /* \"#utility.yul\":3232:3310   */\n      tag_68\n        /* \"#utility.yul\":3305:3309   */\n      dup2\n        /* \"#utility.yul\":3296:3302   */\n      dup7\n        /* \"#utility.yul\":3232:3310   */\n      tag_25\n      jump\t// in\n    tag_68:\n        /* \"#utility.yul\":3224:3310   */\n      swap1\n      pop\n        /* \"#utility.yul\":3320:3392   */\n      tag_69\n        /* \"#utility.yul\":3388:3390   */\n      0x20\n        /* \"#utility.yul\":3377:3386   */\n      dup4\n        /* \"#utility.yul\":3373:3391   */\n      add\n        /* \"#utility.yul\":3364:3370   */\n      dup6\n        /* \"#utility.yul\":3320:3392   */\n      tag_26\n      jump\t// in\n    tag_69:\n        /* \"#utility.yul\":3402:3474   */\n      tag_70\n        /* \"#utility.yul\":3470:3472   */\n      0x40\n        /* \"#utility.yul\":3459:3468   */\n      dup4\n        /* \"#utility.yul\":3455:3473   */\n      add\n        /* \"#utility.yul\":3446:3452   */\n      dup5\n        /* \"#utility.yul\":3402:3474   */\n      tag_27\n      jump\t// in\n    tag_70:\n        /* \"#utility.yul\":2948:3481   */\n      swap5\n      swap4\n      pop\n      pop\n      pop\n      pop\n      jump\t// out\n\n    auxdata: 0xa2646970667358221220ff2b6e33ffbcba97be025184b5720d2205df6c4f5617dc22d74a35d935fb87b664736f6c63430008120033\n}\n",
				"bytecode": {
					"linkReferences": {},
					"object": "608060405234801561001057600080fd5b506102a9806100206000396000f3fe608060405234801561001057600080fd5b506004361061002b5760003560e01c8063b7760c8f14610030575b600080fd5b61004a60048036038101906100459190610147565b610062565b60405161005993929190610235565b60405180910390f35b606060008084846040518060400160405280601181526020017f5472616e7366657220636f6d706c65746500000000000000000000000000000081525091909250925092509250925092565b600080fd5b6000819050919050565b6100c6816100b3565b81146100d157600080fd5b50565b6000813590506100e3816100bd565b92915050565b600073ffffffffffffffffffffffffffffffffffffffff82169050919050565b6000610114826100e9565b9050919050565b61012481610109565b811461012f57600080fd5b50565b6000813590506101418161011b565b92915050565b6000806040838503121561015e5761015d6100ae565b5b600061016c858286016100d4565b925050602061017d85828601610132565b9150509250929050565b600081519050919050565b600082825260208201905092915050565b60005b838110156101c15780820151818401526020810190506101a6565b60008484015250505050565b6000601f19601f8301169050919050565b60006101e982610187565b6101f38185610192565b93506102038185602086016101a3565b61020c816101cd565b840191505092915050565b610220816100b3565b82525050565b61022f81610109565b82525050565b6000606082019050818103600083015261024f81866101de565b905061025e6020830185610217565b61026b6040830184610226565b94935050505056fea2646970667358221220ff2b6e33ffbcba97be025184b5720d2205df6c4f5617dc22d74a35d935fb87b664736f6c63430008120033",
					"opcodes": "PUSH1 0x80 PUSH1 0x40 MSTORE CALLVALUE DUP1 ISZERO PUSH2 0x10 JUMPI PUSH1 0x0 DUP1 REVERT JUMPDEST POP PUSH2 0x2A9 DUP1 PUSH2 0x20 PUSH1 0x0 CODECOPY PUSH1 0x0 RETURN INVALID PUSH1 0x80 PUSH1 0x40 MSTORE CALLVALUE DUP1 ISZERO PUSH2 0x10 JUMPI PUSH1 0x0 DUP1 REVERT JUMPDEST POP PUSH1 0x4 CALLDATASIZE LT PUSH2 0x2B JUMPI PUSH1 0x0 CALLDATALOAD PUSH1 0xE0 SHR DUP1 PUSH4 0xB7760C8F EQ PUSH2 0x30 JUMPI JUMPDEST PUSH1 0x0 DUP1 REVERT JUMPDEST PUSH2 0x4A PUSH1 0x4 DUP1 CALLDATASIZE SUB DUP2 ADD SWAP1 PUSH2 0x45 SWAP2 SWAP1 PUSH2 0x147 JUMP JUMPDEST PUSH2 0x62 JUMP JUMPDEST PUSH1 0x40 MLOAD PUSH2 0x59 SWAP4 SWAP3 SWAP2 SWAP1 PUSH2 0x235 JUMP JUMPDEST PUSH1 0x40 MLOAD DUP1 SWAP2 SUB SWAP1 RETURN JUMPDEST PUSH1 0x60 PUSH1 0x0 DUP1 DUP5 DUP5 PUSH1 0x40 MLOAD DUP1 PUSH1 0x40 ADD PUSH1 0x40 MSTORE DUP1 PUSH1 0x11 DUP2 MSTORE PUSH1 0x20 ADD PUSH32 0x5472616E7366657220636F6D706C657465000000000000000000000000000000 DUP2 MSTORE POP SWAP2 SWAP1 SWAP3 POP SWAP3 POP SWAP3 POP SWAP3 POP SWAP3 POP SWAP3 JUMP JUMPDEST PUSH1 0x0 DUP1 REVERT JUMPDEST PUSH1 0x0 DUP2 SWAP1 POP SWAP2 SWAP1 POP JUMP JUMPDEST PUSH2 0xC6 DUP2 PUSH2 0xB3 JUMP JUMPDEST DUP2 EQ PUSH2 0xD1 JUMPI PUSH1 0x0 DUP1 REVERT JUMPDEST POP JUMP JUMPDEST PUSH1 0x0 DUP2 CALLDATALOAD SWAP1 POP PUSH2 0xE3 DUP2 PUSH2 0xBD JUMP JUMPDEST SWAP3 SWAP2 POP POP JUMP JUMPDEST PUSH1 0x0 PUSH20 0xFFFFFFFFFFFFFFFFFFFFFFFFFFFFFFFFFFFFFFFF DUP3 AND SWAP1 POP SWAP2 SWAP1 POP JUMP JUMPDEST PUSH1 0x0 PUSH2 0x114 DUP3 PUSH2 0xE9 JUMP JUMPDEST SWAP1 POP SWAP2 SWAP1 POP JUMP JUMPDEST PUSH2 0x124 DUP2 PUSH2 0x109 JUMP JUMPDEST DUP2 EQ PUSH2 0x12F JUMPI PUSH1 0x0 DUP1 REVERT JUMPDEST POP JUMP JUMPDEST PUSH1 0x0 DUP2 CALLDATALOAD SWAP1 POP PUSH2 0x141 DUP2 PUSH2 0x11B JUMP JUMPDEST SWAP3 SWAP2 POP POP JUMP JUMPDEST PUSH1 0x0 DUP1 PUSH1 0x40 DUP4 DUP6 SUB SLT ISZERO PUSH2 0x15E JUMPI PUSH2 0x15D PUSH2 0xAE JUMP JUMPDEST JUMPDEST PUSH1 0x0 PUSH2 0x16C DUP6 DUP3 DUP7 ADD PUSH2 0xD4 JUMP JUMPDEST SWAP3 POP POP PUSH1 0x20 PUSH2 0x17D DUP6 DUP3 DUP7 ADD PUSH2 0x132 JUMP JUMPDEST SWAP2 POP POP SWAP3 POP SWAP3 SWAP1 POP JUMP JUMPDEST PUSH1 0x0 DUP2 MLOAD SWAP1 POP SWAP2 SWAP1 POP JUMP JUMPDEST PUSH1 0x0 DUP3 DUP3 MSTORE PUSH1 0x20 DUP3 ADD SWAP1 POP SWAP3 SWAP2 POP POP JUMP JUMPDEST PUSH1 0x0 JUMPDEST DUP4 DUP2 LT ISZERO PUSH2 0x1C1 JUMPI DUP1 DUP3 ADD MLOAD DUP2 DUP5 ADD MSTORE PUSH1 0x20 DUP2 ADD SWAP1 POP PUSH2 0x1A6 JUMP JUMPDEST PUSH1 0x0 DUP5 DUP5 ADD MSTORE POP POP POP POP JUMP JUMPDEST PUSH1 0x0 PUSH1 0x1F NOT PUSH1 0x1F DUP4 ADD AND SWAP1 POP SWAP2 SWAP1 POP JUMP JUMPDEST PUSH1 0x0 PUSH2 0x1E9 DUP3 PUSH2 0x187 JUMP JUMPDEST PUSH2 0x1F3 DUP2 DUP6 PUSH2 0x192 JUMP JUMPDEST SWAP4 POP PUSH2 0x203 DUP2 DUP6 PUSH1 0x20 DUP7 ADD PUSH2 0x1A3 JUMP JUMPDEST PUSH2 0x20C DUP2 PUSH2 0x1CD JUMP JUMPDEST DUP5 ADD SWAP2 POP POP SWAP3 SWAP2 POP POP JUMP JUMPDEST PUSH2 0x220 DUP2 PUSH2 0xB3 JUMP JUMPDEST DUP3 MSTORE POP POP JUMP JUMPDEST PUSH2 0x22F DUP2 PUSH2 0x109 JUMP JUMPDEST DUP3 MSTORE POP POP JUMP JUMPDEST PUSH1 0x0 PUSH1 0x60 DUP3 ADD SWAP1 POP DUP2 DUP2 SUB PUSH1 0x0 DUP4 ADD MSTORE PUSH2 0x24F DUP2 DUP7 PUSH2 0x1DE JUMP JUMPDEST SWAP1 POP PUSH2 0x25E PUSH1 0x20 DUP4 ADD DUP6 PUSH2 0x217 JUMP JUMPDEST PUSH2 0x26B PUSH1 0x40 DUP4 ADD DUP5 PUSH2 0x226 JUMP JUMPDEST SWAP5 SWAP4 POP POP POP POP JUMP INVALID LOG2 PUSH5 0x6970667358 0x22 SLT KECCAK256 SELFDESTRUCT 0x2B PUSH15 0x33FFBCBA97BE025184B5720D2205DF PUSH13 0x4F5617DC22D74A35D935FB87B6 PUSH5 0x736F6C6343 STOP ADDMOD SLT STOP CALLER "
				},
				"gasEstimates": {
					"creation": {
						"codeDepositCost": "136200",
						"executionCost": "183",
						"totalCost": "136383"
					},
					"external": {
						"transfer(uint256,address)": "infinite"
					}
				},
				"methodIdentifiers": {
					"transfer(uint256,address)": "b7760c8f"
				}
			},
			"storageLayout": {
				"storage": [],
				"types": null
			},
			"userdoc": {
				"kind": "user",
				"methods": {},
				"version": 1
			}
		}
	}
}