{
	"abiEncodedCall.sol": {
		"ABICall": {
			"abi": [
				{
					"inputs": [
						{
							"internalType": "address",
							"name": "_address",
							"type": "address"
						}
					],
					"stateMutability": "nonpayable",
					"type": "constructor"
				},
				{
					"inputs": [
						{
							"internalType": "uint256",
							"name": "_num",
							"type": "uint256"
						},
						{
							"internalType": "address",
							"name": "_targAddress",
							"type": "address"
						}
					],
					"name": "call",
					"outputs": [
						{
							"internalType": "string",
							"name": "",
							"type": "string"
						},
						{
							"internalType": "uint256",
							"name": "",
							"type": "uint256"
						},
						{
							"internalType": "address",
							"name": "",
							"type": "address"
						}
					],
					"stateMutability": "view",
					"type": "function"
				},
				{
					"inputs": [
						{
							"internalType": "uint256",
							"name": "_num",
							"type": "uint256"
						},
						{
							"internalType": "address",
							"name": "_targAddress",
							"type": "address"
						}
					],
					"name": "callWithLasers",
					"outputs": [
						{
							"internalType": "string",
							"name": "",
							"type": "string"
						},
						{
							"internalType": "uint256",
							"name": "",
							"type": "uint256"
						},
						{
							"internalType": "address",
							"name": "",
							"type": "address"
						}
					],
					"stateMutability": "view",
					"type": "function"
				},
				{
					"inputs": [],
					"name": "transfer",
					"outputs": [
						{
							"internalType": "contract Transfer",
							"name": "",
							"type": "address"
						}
					],
					"stateMutability": "view",
					"type": "function"
				}
			],
			"devdoc": {
				"kind": "dev",
				"methods": {},
				"version": 1
			},
			"evm": {
				"assembly": "    /* \"abiEncodedCall.sol\":268:1142  contract ABICall{... */\n  mstore(0x40, 0x80)\n    /* \"abiEncodedCall.sol\":326:403  constructor(address _address){... */\n  callvalue\n  dup1\n  iszero\n  tag_1\n  jumpi\n  0x00\n  dup1\n  revert\ntag_1:\n  pop\n  mload(0x40)\n  sub(codesize, bytecodeSize)\n  dup1\n  bytecodeSize\n  dup4\n  codecopy\n  dup2\n  dup2\n  add\n  0x40\n  mstore\n  dup2\n  add\n  swap1\n  tag_2\n  swap2\n  swap1\n  tag_3\n  jump\t// in\ntag_2:\n    /* \"abiEncodedCall.sol\":386:394  _address */\n  dup1\n    /* \"abiEncodedCall.sol\":366:374  transfer */\n  0x00\n  dup1\n    /* \"abiEncodedCall.sol\":366:395  transfer = Transfer(_address) */\n  0x0100\n  exp\n  dup2\n  sload\n  dup2\n  0xffffffffffffffffffffffffffffffffffffffff\n  mul\n  not\n  and\n  swap1\n  dup4\n  0xffffffffffffffffffffffffffffffffffffffff\n  and\n  mul\n  or\n  swap1\n  sstore\n  pop\n    /* \"abiEncodedCall.sol\":326:403  constructor(address _address){... */\n  pop\n    /* \"abiEncodedCall.sol\":268:1142  contract ABICall{... */\n  jump(tag_6)\n    /* \"#utility.yul\":88:205   */\ntag_8:\n    /* \"#utility.yul\":197:198   */\n  0x00\n    /* \"#utility.yul\":194:195   */\n  dup1\n    /* \"#utility.yul\":187:199   */\n  revert\n    /* \"#utility.yul\":334:460   */\ntag_10:\n    /* \"#utility.yul\":371:378   */\n  0x00\n    /* \"#utility.yul\":411:453   */\n  0xffffffffffffffffffffffffffffffffffffffff\n    /* \"#utility.yul\":404:409   */\n  dup3\n    /* \"#utility.yul\":400:454   */\n  and\n    /* \"#utility.yul\":389:454   */\n  swap1\n  pop\n    /* \"#utility.yul\":334:460   */\n  swap2\n  swap1\n  pop\n  jump\t// out\n    /* \"#utility.yul\":466:562   */\ntag_11:\n    /* \"#utility.yul\":503:510   */\n  0x00\n    /* \"#utility.yul\":532:556   */\n  tag_20\n    /* \"#utility.yul\":550:555   */\n  dup3\n    /* \"#utility.yul\":532:556   */\n  tag_10\n  jump\t// in\ntag_20:\n    /* \"#utility.yul\":521:556   */\n  swap1\n  pop\n    /* \"#utility.yul\":466:562   */\n  swap2\n  swap1\n  pop\n  jump\t// out\n    /* \"#utility.yul\":568:690   */\ntag_12:\n    /* \"#utility.yul\":641:665   */\n  tag_22\n    /* \"#utility.yul\":659:664   */\n  dup2\n    /* \"#utility.yul\":641:665   */\n  tag_11\n  jump\t// in\ntag_22:\n    /* \"#utility.yul\":634:639   */\n  dup2\n    /* \"#utility.yul\":631:666   */\n  eq\n    /* \"#utility.yul\":621:684   */\n  tag_23\n  jumpi\n    /* \"#utility.yul\":680:681   */\n  0x00\n    /* \"#utility.yul\":677:678   */\n  dup1\n    /* \"#utility.yul\":670:682   */\n  revert\n    /* \"#utility.yul\":621:684   */\ntag_23:\n    /* \"#utility.yul\":568:690   */\n  pop\n  jump\t// out\n    /* \"#utility.yul\":696:839   */\ntag_13:\n    /* \"#utility.yul\":753:758   */\n  0x00\n    /* \"#utility.yul\":784:790   */\n  dup2\n    /* \"#utility.yul\":778:791   */\n  mload\n    /* \"#utility.yul\":769:791   */\n  swap1\n  pop\n    /* \"#utility.yul\":800:833   */\n  tag_25\n    /* \"#utility.yul\":827:832   */\n  dup2\n    /* \"#utility.yul\":800:833   */\n  tag_12\n  jump\t// in\ntag_25:\n    /* \"#utility.yul\":696:839   */\n  swap3\n  swap2\n  pop\n  pop\n  jump\t// out\n    /* \"#utility.yul\":845:1196   */\ntag_3:\n    /* \"#utility.yul\":915:921   */\n  0x00\n    /* \"#utility.yul\":964:966   */\n  0x20\n    /* \"#utility.yul\":952:961   */\n  dup3\n    /* \"#utility.yul\":943:950   */\n  dup5\n    /* \"#utility.yul\":939:962   */\n  sub\n    /* \"#utility.yul\":935:967   */\n  slt\n    /* \"#utility.yul\":932:1051   */\n  iszero\n  tag_27\n  jumpi\n    /* \"#utility.yul\":970:1049   */\n  tag_28\n  tag_8\n  jump\t// in\ntag_28:\n    /* \"#utility.yul\":932:1051   */\ntag_27:\n    /* \"#utility.yul\":1090:1091   */\n  0x00\n    /* \"#utility.yul\":1115:1179   */\n  tag_29\n    /* \"#utility.yul\":1171:1178   */\n  dup5\n    /* \"#utility.yul\":1162:1168   */\n  dup3\n    /* \"#utility.yul\":1151:1160   */\n  dup6\n    /* \"#utility.yul\":1147:1169   */\n  add\n    /* \"#utility.yul\":1115:1179   */\n  tag_13\n  jump\t// in\ntag_29:\n    /* \"#utility.yul\":1105:1179   */\n  swap2\n  pop\n    /* \"#utility.yul\":1061:1189   */\n  pop\n    /* \"#utility.yul\":845:1196   */\n  swap3\n  swap2\n  pop\n  pop\n  jump\t// out\n    /* \"abiEncodedCall.sol\":268:1142  contract ABICall{... */\ntag_6:\n  dataSize(sub_0)\n  dup1\n  dataOffset(sub_0)\n  0x00\n  codecopy\n  0x00\n  return\nstop\n\nsub_0: assembly {\n        /* \"abiEncodedCall.sol\":268:1142  contract ABICall{... */\n      mstore(0x40, 0x80)\n      callvalue\n      dup1\n      iszero\n      tag_1\n      jumpi\n      0x00\n      dup1\n      revert\n    tag_1:\n      pop\n      jumpi(tag_2, lt(calldatasize, 0x04))\n      shr(0xe0, calldataload(0x00))\n      dup1\n      0x2d459bb8\n      eq\n      tag_3\n      jumpi\n      dup1\n      0x8a4068dd\n      eq\n      tag_4\n      jumpi\n      dup1\n      0xe73afabf\n      eq\n      tag_5\n      jumpi\n    tag_2:\n      0x00\n      dup1\n      revert\n        /* \"abiEncodedCall.sol\":411:657  function call(uint256 _num,address _targAddress) public view returns(string memory,uint256,address){... */\n    tag_3:\n      tag_6\n      0x04\n      dup1\n      calldatasize\n      sub\n      dup2\n      add\n      swap1\n      tag_7\n      swap2\n      swap1\n      tag_8\n      jump\t// in\n    tag_7:\n      tag_9\n      jump\t// in\n    tag_6:\n      mload(0x40)\n      tag_10\n      swap4\n      swap3\n      swap2\n      swap1\n      tag_11\n      jump\t// in\n    tag_10:\n      mload(0x40)\n      dup1\n      swap2\n      sub\n      swap1\n      return\n        /* \"abiEncodedCall.sol\":293:317  Transfer public transfer */\n    tag_4:\n      tag_12\n      tag_13\n      jump\t// in\n    tag_12:\n      mload(0x40)\n      tag_14\n      swap2\n      swap1\n      tag_15\n      jump\t// in\n    tag_14:\n      mload(0x40)\n      dup1\n      swap2\n      sub\n      swap1\n      return\n        /* \"abiEncodedCall.sol\":665:1137  function callWithLasers(uint256 _num, address _targAddress) public view returns(string memory, uint256,address){... */\n    tag_5:\n      tag_16\n      0x04\n      dup1\n      calldatasize\n      sub\n      dup2\n      add\n      swap1\n      tag_17\n      swap2\n      swap1\n      tag_8\n      jump\t// in\n    tag_17:\n      tag_18\n      jump\t// in\n    tag_16:\n      mload(0x40)\n      tag_19\n      swap4\n      swap3\n      swap2\n      swap1\n      tag_11\n      jump\t// in\n    tag_19:\n      mload(0x40)\n      dup1\n      swap2\n      sub\n      swap1\n      return\n        /* \"abiEncodedCall.sol\":411:657  function call(uint256 _num,address _targAddress) public view returns(string memory,uint256,address){... */\n    tag_9:\n        /* \"abiEncodedCall.sol\":480:493  string memory */\n      0x60\n        /* \"abiEncodedCall.sol\":494:501  uint256 */\n      0x00\n        /* \"abiEncodedCall.sol\":502:509  address */\n      dup1\n        /* \"abiEncodedCall.sol\":522:538  string memory ok */\n      0x00\n        /* \"abiEncodedCall.sol\":540:551  uint256 num */\n      dup1\n        /* \"abiEncodedCall.sol\":553:572  address targAddress */\n      0x00\n        /* \"abiEncodedCall.sol\":576:584  transfer */\n      dup1\n      0x00\n      swap1\n      sload\n      swap1\n      0x0100\n      exp\n      swap1\n      div\n      0xffffffffffffffffffffffffffffffffffffffff\n      and\n        /* \"abiEncodedCall.sol\":576:593  transfer.transfer */\n      0xffffffffffffffffffffffffffffffffffffffff\n      and\n      0xb7760c8f\n        /* \"abiEncodedCall.sol\":594:598  _num */\n      dup10\n        /* \"abiEncodedCall.sol\":599:611  _targAddress */\n      dup10\n        /* \"abiEncodedCall.sol\":576:612  transfer.transfer(_num,_targAddress) */\n      mload(0x40)\n      dup4\n      0xffffffff\n      and\n      0xe0\n      shl\n      dup2\n      mstore\n      0x04\n      add\n      tag_21\n      swap3\n      swap2\n      swap1\n      tag_22\n      jump\t// in\n    tag_21:\n      0x00\n      mload(0x40)\n      dup1\n      dup4\n      sub\n      dup2\n      dup7\n      gas\n      staticcall\n      iszero\n      dup1\n      iszero\n      tag_24\n      jumpi\n      returndatasize\n      0x00\n      dup1\n      returndatacopy\n      revert(0x00, returndatasize)\n    tag_24:\n      pop\n      pop\n      pop\n      pop\n      mload(0x40)\n      returndatasize\n      0x00\n      dup3\n      returndatacopy\n      returndatasize\n      not(0x1f)\n      0x1f\n      dup3\n      add\n      and\n      dup3\n      add\n      dup1\n      0x40\n      mstore\n      pop\n      dup2\n      add\n      swap1\n      tag_25\n      swap2\n      swap1\n      tag_26\n      jump\t// in\n    tag_25:\n        /* \"abiEncodedCall.sol\":521:612  (string memory ok, uint256 num, address targAddress) = transfer.transfer(_num,_targAddress) */\n      swap3\n      pop\n      swap3\n      pop\n      swap3\n      pop\n        /* \"abiEncodedCall.sol\":630:632  ok */\n      dup3\n        /* \"abiEncodedCall.sol\":633:636  num */\n      dup3\n        /* \"abiEncodedCall.sol\":637:648  targAddress */\n      dup3\n        /* \"abiEncodedCall.sol\":623:649  return(ok,num,targAddress) */\n      swap6\n      pop\n      swap6\n      pop\n      swap6\n      pop\n      pop\n      pop\n      pop\n        /* \"abiEncodedCall.sol\":411:657  function call(uint256 _num,address _targAddress) public view returns(string memory,uint256,address){... */\n      swap3\n      pop\n      swap3\n      pop\n      swap3\n      jump\t// out\n        /* \"abiEncodedCall.sol\":293:317  Transfer public transfer */\n    tag_13:\n      0x00\n      dup1\n      sload\n      swap1\n      0x0100\n      exp\n      swap1\n      div\n      0xffffffffffffffffffffffffffffffffffffffff\n      and\n      dup2\n      jump\t// out\n        /* \"abiEncodedCall.sol\":665:1137  function callWithLasers(uint256 _num, address _targAddress) public view returns(string memory, uint256,address){... */\n    tag_18:\n        /* \"abiEncodedCall.sol\":745:758  string memory */\n      0x60\n        /* \"abiEncodedCall.sol\":760:767  uint256 */\n      0x00\n        /* \"abiEncodedCall.sol\":768:775  address */\n      dup1\n        /* \"abiEncodedCall.sol\":788:800  bool success */\n      0x00\n        /* \"abiEncodedCall.sol\":802:825  bytes memory returnData */\n      dup1\n        /* \"abiEncodedCall.sol\":835:843  transfer */\n      0x00\n      dup1\n      sload\n      swap1\n      0x0100\n      exp\n      swap1\n      div\n      0xffffffffffffffffffffffffffffffffffffffff\n      and\n        /* \"abiEncodedCall.sol\":827:855  address(transfer).staticcall */\n      0xffffffffffffffffffffffffffffffffffffffff\n      and\n        /* \"abiEncodedCall.sol\":909:913  _num */\n      dup8\n        /* \"abiEncodedCall.sol\":914:926  _targAddress */\n      dup8\n        /* \"abiEncodedCall.sol\":856:927  abi.encodeWithSignature(\"transfer(uint256,address)\", _num,_targAddress) */\n      add(0x24, mload(0x40))\n      tag_28\n      swap3\n      swap2\n      swap1\n      tag_22\n      jump\t// in\n    tag_28:\n      mload(0x40)\n      0x20\n      dup2\n      dup4\n      sub\n      sub\n      dup2\n      mstore\n      swap1\n      0x40\n      mstore\n      and(not(0xffffffffffffffffffffffffffffffffffffffffffffffffffffffff), 0xb7760c8f00000000000000000000000000000000000000000000000000000000)\n      0x20\n      dup3\n      add\n      dup1\n      mload\n      0xffffffffffffffffffffffffffffffffffffffffffffffffffffffff\n      dup4\n      dup2\n      dup4\n      and\n      or\n      dup4\n      mstore\n      pop\n      pop\n      pop\n      pop\n        /* \"abiEncodedCall.sol\":827:928  address(transfer).staticcall(abi.encodeWithSignature(\"transfer(uint256,address)\", _num,_targAddress)) */\n      mload(0x40)\n      tag_29\n      swap2\n      swap1\n      tag_30\n      jump\t// in\n    tag_29:\n      0x00\n      mload(0x40)\n      dup1\n      dup4\n      sub\n      dup2\n      dup6\n      gas\n      staticcall\n      swap2\n      pop\n      pop\n      returndatasize\n      dup1\n      0x00\n      dup2\n      eq\n      tag_33\n      jumpi\n      mload(0x40)\n      swap2\n      pop\n      and(add(returndatasize, 0x3f), not(0x1f))\n      dup3\n      add\n      0x40\n      mstore\n      returndatasize\n      dup3\n      mstore\n      returndatasize\n      0x00\n      0x20\n      dup5\n      add\n      returndatacopy\n      jump(tag_32)\n    tag_33:\n      0x60\n      swap2\n      pop\n    tag_32:\n      pop\n        /* \"abiEncodedCall.sol\":787:928  (bool success, bytes memory returnData)=address(transfer).staticcall(abi.encodeWithSignature(\"transfer(uint256,address)\", _num,_targAddress)) */\n      swap2\n      pop\n      swap2\n      pop\n        /* \"abiEncodedCall.sol\":947:954  success */\n      dup2\n        /* \"abiEncodedCall.sol\":939:961  require(success,\"ops\") */\n      tag_34\n      jumpi\n      mload(0x40)\n      0x08c379a000000000000000000000000000000000000000000000000000000000\n      dup2\n      mstore\n      0x04\n      add\n      tag_35\n      swap1\n      tag_36\n      jump\t// in\n    tag_35:\n      mload(0x40)\n      dup1\n      swap2\n      sub\n      swap1\n      revert\n    tag_34:\n        /* \"abiEncodedCall.sol\":973:994  string memory message */\n      0x00\n        /* \"abiEncodedCall.sol\":996:1010  uint256 amount */\n      dup1\n        /* \"abiEncodedCall.sol\":1012:1031  address targAddress */\n      0x00\n        /* \"abiEncodedCall.sol\":1046:1056  returnData */\n      dup4\n        /* \"abiEncodedCall.sol\":1035:1083  abi.decode(returnData,(string, uint256,address)) */\n      dup1\n      0x20\n      add\n      swap1\n      mload\n      dup2\n      add\n      swap1\n      tag_37\n      swap2\n      swap1\n      tag_38\n      jump\t// in\n    tag_37:\n        /* \"abiEncodedCall.sol\":972:1083  (string memory message, uint256 amount, address targAddress) = abi.decode(returnData,(string, uint256,address)) */\n      swap3\n      pop\n      swap3\n      pop\n      swap3\n      pop\n        /* \"abiEncodedCall.sol\":1102:1109  message */\n      dup3\n        /* \"abiEncodedCall.sol\":1110:1116  amount */\n      dup3\n        /* \"abiEncodedCall.sol\":1117:1128  targAddress */\n      dup3\n        /* \"abiEncodedCall.sol\":1094:1129  return (message,amount,targAddress) */\n      swap8\n      pop\n      swap8\n      pop\n      swap8\n      pop\n      pop\n      pop\n      pop\n      pop\n      pop\n        /* \"abiEncodedCall.sol\":665:1137  function callWithLasers(uint256 _num, address _targAddress) public view returns(string memory, uint256,address){... */\n      swap3\n      pop\n      swap3\n      pop\n      swap3\n      jump\t// out\n        /* \"#utility.yul\":7:82   */\n    tag_39:\n        /* \"#utility.yul\":40:46   */\n      0x00\n        /* \"#utility.yul\":73:75   */\n      0x40\n        /* \"#utility.yul\":67:76   */\n      mload\n        /* \"#utility.yul\":57:76   */\n      swap1\n      pop\n        /* \"#utility.yul\":7:82   */\n      swap1\n      jump\t// out\n        /* \"#utility.yul\":88:205   */\n    tag_40:\n        /* \"#utility.yul\":197:198   */\n      0x00\n        /* \"#utility.yul\":194:195   */\n      dup1\n        /* \"#utility.yul\":187:199   */\n      revert\n        /* \"#utility.yul\":211:328   */\n    tag_41:\n        /* \"#utility.yul\":320:321   */\n      0x00\n        /* \"#utility.yul\":317:318   */\n      dup1\n        /* \"#utility.yul\":310:322   */\n      revert\n        /* \"#utility.yul\":334:411   */\n    tag_42:\n        /* \"#utility.yul\":371:378   */\n      0x00\n        /* \"#utility.yul\":400:405   */\n      dup2\n        /* \"#utility.yul\":389:405   */\n      swap1\n      pop\n        /* \"#utility.yul\":334:411   */\n      swap2\n      swap1\n      pop\n      jump\t// out\n        /* \"#utility.yul\":417:539   */\n    tag_43:\n        /* \"#utility.yul\":490:514   */\n      tag_85\n        /* \"#utility.yul\":508:513   */\n      dup2\n        /* \"#utility.yul\":490:514   */\n      tag_42\n      jump\t// in\n    tag_85:\n        /* \"#utility.yul\":483:488   */\n      dup2\n        /* \"#utility.yul\":480:515   */\n      eq\n        /* \"#utility.yul\":470:533   */\n      tag_86\n      jumpi\n        /* \"#utility.yul\":529:530   */\n      0x00\n        /* \"#utility.yul\":526:527   */\n      dup1\n        /* \"#utility.yul\":519:531   */\n      revert\n        /* \"#utility.yul\":470:533   */\n    tag_86:\n        /* \"#utility.yul\":417:539   */\n      pop\n      jump\t// out\n        /* \"#utility.yul\":545:684   */\n    tag_44:\n        /* \"#utility.yul\":591:596   */\n      0x00\n        /* \"#utility.yul\":629:635   */\n      dup2\n        /* \"#utility.yul\":616:636   */\n      calldataload\n        /* \"#utility.yul\":607:636   */\n      swap1\n      pop\n        /* \"#utility.yul\":645:678   */\n      tag_88\n        /* \"#utility.yul\":672:677   */\n      dup2\n        /* \"#utility.yul\":645:678   */\n      tag_43\n      jump\t// in\n    tag_88:\n        /* \"#utility.yul\":545:684   */\n      swap3\n      swap2\n      pop\n      pop\n      jump\t// out\n        /* \"#utility.yul\":690:816   */\n    tag_45:\n        /* \"#utility.yul\":727:734   */\n      0x00\n        /* \"#utility.yul\":767:809   */\n      0xffffffffffffffffffffffffffffffffffffffff\n        /* \"#utility.yul\":760:765   */\n      dup3\n        /* \"#utility.yul\":756:810   */\n      and\n        /* \"#utility.yul\":745:810   */\n      swap1\n      pop\n        /* \"#utility.yul\":690:816   */\n      swap2\n      swap1\n      pop\n      jump\t// out\n        /* \"#utility.yul\":822:918   */\n    tag_46:\n        /* \"#utility.yul\":859:866   */\n      0x00\n        /* \"#utility.yul\":888:912   */\n      tag_91\n        /* \"#utility.yul\":906:911   */\n      dup3\n        /* \"#utility.yul\":888:912   */\n      tag_45\n      jump\t// in\n    tag_91:\n        /* \"#utility.yul\":877:912   */\n      swap1\n      pop\n        /* \"#utility.yul\":822:918   */\n      swap2\n      swap1\n      pop\n      jump\t// out\n        /* \"#utility.yul\":924:1046   */\n    tag_47:\n        /* \"#utility.yul\":997:1021   */\n      tag_93\n        /* \"#utility.yul\":1015:1020   */\n      dup2\n        /* \"#utility.yul\":997:1021   */\n      tag_46\n      jump\t// in\n    tag_93:\n        /* \"#utility.yul\":990:995   */\n      dup2\n        /* \"#utility.yul\":987:1022   */\n      eq\n        /* \"#utility.yul\":977:1040   */\n      tag_94\n      jumpi\n        /* \"#utility.yul\":1036:1037   */\n      0x00\n        /* \"#utility.yul\":1033:1034   */\n      dup1\n        /* \"#utility.yul\":1026:1038   */\n      revert\n        /* \"#utility.yul\":977:1040   */\n    tag_94:\n        /* \"#utility.yul\":924:1046   */\n      pop\n      jump\t// out\n        /* \"#utility.yul\":1052:1191   */\n    tag_48:\n        /* \"#utility.yul\":1098:1103   */\n      0x00\n        /* \"#utility.yul\":1136:1142   */\n      dup2\n        /* \"#utility.yul\":1123:1143   */\n      calldataload\n        /* \"#utility.yul\":1114:1143   */\n      swap1\n      pop\n        /* \"#utility.yul\":1152:1185   */\n      tag_96\n        /* \"#utility.yul\":1179:1184   */\n      dup2\n        /* \"#utility.yul\":1152:1185   */\n      tag_47\n      jump\t// in\n    tag_96:\n        /* \"#utility.yul\":1052:1191   */\n      swap3\n      swap2\n      pop\n      pop\n      jump\t// out\n        /* \"#utility.yul\":1197:1671   */\n    tag_8:\n        /* \"#utility.yul\":1265:1271   */\n      0x00\n        /* \"#utility.yul\":1273:1279   */\n      dup1\n        /* \"#utility.yul\":1322:1324   */\n      0x40\n        /* \"#utility.yul\":1310:1319   */\n      dup4\n        /* \"#utility.yul\":1301:1308   */\n      dup6\n        /* \"#utility.yul\":1297:1320   */\n      sub\n        /* \"#utility.yul\":1293:1325   */\n      slt\n        /* \"#utility.yul\":1290:1409   */\n      iszero\n      tag_98\n      jumpi\n        /* \"#utility.yul\":1328:1407   */\n      tag_99\n      tag_40\n      jump\t// in\n    tag_99:\n        /* \"#utility.yul\":1290:1409   */\n    tag_98:\n        /* \"#utility.yul\":1448:1449   */\n      0x00\n        /* \"#utility.yul\":1473:1526   */\n      tag_100\n        /* \"#utility.yul\":1518:1525   */\n      dup6\n        /* \"#utility.yul\":1509:1515   */\n      dup3\n        /* \"#utility.yul\":1498:1507   */\n      dup7\n        /* \"#utility.yul\":1494:1516   */\n      add\n        /* \"#utility.yul\":1473:1526   */\n      tag_44\n      jump\t// in\n    tag_100:\n        /* \"#utility.yul\":1463:1526   */\n      swap3\n      pop\n        /* \"#utility.yul\":1419:1536   */\n      pop\n        /* \"#utility.yul\":1575:1577   */\n      0x20\n        /* \"#utility.yul\":1601:1654   */\n      tag_101\n        /* \"#utility.yul\":1646:1653   */\n      dup6\n        /* \"#utility.yul\":1637:1643   */\n      dup3\n        /* \"#utility.yul\":1626:1635   */\n      dup7\n        /* \"#utility.yul\":1622:1644   */\n      add\n        /* \"#utility.yul\":1601:1654   */\n      tag_48\n      jump\t// in\n    tag_101:\n        /* \"#utility.yul\":1591:1654   */\n      swap2\n      pop\n        /* \"#utility.yul\":1546:1664   */\n      pop\n        /* \"#utility.yul\":1197:1671   */\n      swap3\n      pop\n      swap3\n      swap1\n      pop\n      jump\t// out\n        /* \"#utility.yul\":1677:1776   */\n    tag_49:\n        /* \"#utility.yul\":1729:1735   */\n      0x00\n        /* \"#utility.yul\":1763:1768   */\n      dup2\n        /* \"#utility.yul\":1757:1769   */\n      mload\n        /* \"#utility.yul\":1747:1769   */\n      swap1\n      pop\n        /* \"#utility.yul\":1677:1776   */\n      swap2\n      swap1\n      pop\n      jump\t// out\n        /* \"#utility.yul\":1782:1951   */\n    tag_50:\n        /* \"#utility.yul\":1866:1877   */\n      0x00\n        /* \"#utility.yul\":1900:1906   */\n      dup3\n        /* \"#utility.yul\":1895:1898   */\n      dup3\n        /* \"#utility.yul\":1888:1907   */\n      mstore\n        /* \"#utility.yul\":1940:1944   */\n      0x20\n        /* \"#utility.yul\":1935:1938   */\n      dup3\n        /* \"#utility.yul\":1931:1945   */\n      add\n        /* \"#utility.yul\":1916:1945   */\n      swap1\n      pop\n        /* \"#utility.yul\":1782:1951   */\n      swap3\n      swap2\n      pop\n      pop\n      jump\t// out\n        /* \"#utility.yul\":1957:2203   */\n    tag_51:\n        /* \"#utility.yul\":2038:2039   */\n      0x00\n        /* \"#utility.yul\":2048:2161   */\n    tag_105:\n        /* \"#utility.yul\":2062:2068   */\n      dup4\n        /* \"#utility.yul\":2059:2060   */\n      dup2\n        /* \"#utility.yul\":2056:2069   */\n      lt\n        /* \"#utility.yul\":2048:2161   */\n      iszero\n      tag_107\n      jumpi\n        /* \"#utility.yul\":2147:2148   */\n      dup1\n        /* \"#utility.yul\":2142:2145   */\n      dup3\n        /* \"#utility.yul\":2138:2149   */\n      add\n        /* \"#utility.yul\":2132:2150   */\n      mload\n        /* \"#utility.yul\":2128:2129   */\n      dup2\n        /* \"#utility.yul\":2123:2126   */\n      dup5\n        /* \"#utility.yul\":2119:2130   */\n      add\n        /* \"#utility.yul\":2112:2151   */\n      mstore\n        /* \"#utility.yul\":2084:2086   */\n      0x20\n        /* \"#utility.yul\":2081:2082   */\n      dup2\n        /* \"#utility.yul\":2077:2087   */\n      add\n        /* \"#utility.yul\":2072:2087   */\n      swap1\n      pop\n        /* \"#utility.yul\":2048:2161   */\n      jump(tag_105)\n    tag_107:\n        /* \"#utility.yul\":2195:2196   */\n      0x00\n        /* \"#utility.yul\":2186:2192   */\n      dup5\n        /* \"#utility.yul\":2181:2184   */\n      dup5\n        /* \"#utility.yul\":2177:2193   */\n      add\n        /* \"#utility.yul\":2170:2197   */\n      mstore\n        /* \"#utility.yul\":2019:2203   */\n      pop\n        /* \"#utility.yul\":1957:2203   */\n      pop\n      pop\n      pop\n      jump\t// out\n        /* \"#utility.yul\":2209:2311   */\n    tag_52:\n        /* \"#utility.yul\":2250:2256   */\n      0x00\n        /* \"#utility.yul\":2301:2303   */\n      0x1f\n        /* \"#utility.yul\":2297:2304   */\n      not\n        /* \"#utility.yul\":2292:2294   */\n      0x1f\n        /* \"#utility.yul\":2285:2290   */\n      dup4\n        /* \"#utility.yul\":2281:2295   */\n      add\n        /* \"#utility.yul\":2277:2305   */\n      and\n        /* \"#utility.yul\":2267:2305   */\n      swap1\n      pop\n        /* \"#utility.yul\":2209:2311   */\n      swap2\n      swap1\n      pop\n      jump\t// out\n        /* \"#utility.yul\":2317:2694   */\n    tag_53:\n        /* \"#utility.yul\":2405:2408   */\n      0x00\n        /* \"#utility.yul\":2433:2472   */\n      tag_110\n        /* \"#utility.yul\":2466:2471   */\n      dup3\n        /* \"#utility.yul\":2433:2472   */\n      tag_49\n      jump\t// in\n    tag_110:\n        /* \"#utility.yul\":2488:2559   */\n      tag_111\n        /* \"#utility.yul\":2552:2558   */\n      dup2\n        /* \"#utility.yul\":2547:2550   */\n      dup6\n        /* \"#utility.yul\":2488:2559   */\n      tag_50\n      jump\t// in\n    tag_111:\n        /* \"#utility.yul\":2481:2559   */\n      swap4\n      pop\n        /* \"#utility.yul\":2568:2633   */\n      tag_112\n        /* \"#utility.yul\":2626:2632   */\n      dup2\n        /* \"#utility.yul\":2621:2624   */\n      dup6\n        /* \"#utility.yul\":2614:2618   */\n      0x20\n        /* \"#utility.yul\":2607:2612   */\n      dup7\n        /* \"#utility.yul\":2603:2619   */\n      add\n        /* \"#utility.yul\":2568:2633   */\n      tag_51\n      jump\t// in\n    tag_112:\n        /* \"#utility.yul\":2658:2687   */\n      tag_113\n        /* \"#utility.yul\":2680:2686   */\n      dup2\n        /* \"#utility.yul\":2658:2687   */\n      tag_52\n      jump\t// in\n    tag_113:\n        /* \"#utility.yul\":2653:2656   */\n      dup5\n        /* \"#utility.yul\":2649:2688   */\n      add\n        /* \"#utility.yul\":2642:2688   */\n      swap2\n      pop\n        /* \"#utility.yul\":2409:2694   */\n      pop\n        /* \"#utility.yul\":2317:2694   */\n      swap3\n      swap2\n      pop\n      pop\n      jump\t// out\n        /* \"#utility.yul\":2700:2818   */\n    tag_54:\n        /* \"#utility.yul\":2787:2811   */\n      tag_115\n        /* \"#utility.yul\":2805:2810   */\n      dup2\n        /* \"#utility.yul\":2787:2811   */\n      tag_42\n      jump\t// in\n    tag_115:\n        /* \"#utility.yul\":2782:2785   */\n      dup3\n        /* \"#utility.yul\":2775:2812   */\n      mstore\n        /* \"#utility.yul\":2700:2818   */\n      pop\n      pop\n      jump\t// out\n        /* \"#utility.yul\":2824:2942   */\n    tag_55:\n        /* \"#utility.yul\":2911:2935   */\n      tag_117\n        /* \"#utility.yul\":2929:2934   */\n      dup2\n        /* \"#utility.yul\":2911:2935   */\n      tag_46\n      jump\t// in\n    tag_117:\n        /* \"#utility.yul\":2906:2909   */\n      dup3\n        /* \"#utility.yul\":2899:2936   */\n      mstore\n        /* \"#utility.yul\":2824:2942   */\n      pop\n      pop\n      jump\t// out\n        /* \"#utility.yul\":2948:3481   */\n    tag_11:\n        /* \"#utility.yul\":3117:3121   */\n      0x00\n        /* \"#utility.yul\":3155:3157   */\n      0x60\n        /* \"#utility.yul\":3144:3153   */\n      dup3\n        /* \"#utility.yul\":3140:3158   */\n      add\n        /* \"#utility.yul\":3132:3158   */\n      swap1\n      pop\n        /* \"#utility.yul\":3204:3213   */\n      dup2\n        /* \"#utility.yul\":3198:3202   */\n      dup2\n        /* \"#utility.yul\":3194:3214   */\n      sub\n        /* \"#utility.yul\":3190:3191   */\n      0x00\n        /* \"#utility.yul\":3179:3188   */\n      dup4\n        /* \"#utility.yul\":3175:3192   */\n      add\n        /* \"#utility.yul\":3168:3215   */\n      mstore\n        /* \"#utility.yul\":3232:3310   */\n      tag_119\n        /* \"#utility.yul\":3305:3309   */\n      dup2\n        /* \"#utility.yul\":3296:3302   */\n      dup7\n        /* \"#utility.yul\":3232:3310   */\n      tag_53\n      jump\t// in\n    tag_119:\n        /* \"#utility.yul\":3224:3310   */\n      swap1\n      pop\n        /* \"#utility.yul\":3320:3392   */\n      tag_120\n        /* \"#utility.yul\":3388:3390   */\n      0x20\n        /* \"#utility.yul\":3377:3386   */\n      dup4\n        /* \"#utility.yul\":3373:3391   */\n      add\n        /* \"#utility.yul\":3364:3370   */\n      dup6\n        /* \"#utility.yul\":3320:3392   */\n      tag_54\n      jump\t// in\n    tag_120:\n        /* \"#utility.yul\":3402:3474   */\n      tag_121\n        /* \"#utility.yul\":3470:3472   */\n      0x40\n        /* \"#utility.yul\":3459:3468   */\n      dup4\n        /* \"#utility.yul\":3455:3473   */\n      add\n        /* \"#utility.yul\":3446:3452   */\n      dup5\n        /* \"#utility.yul\":3402:3474   */\n      tag_55\n      jump\t// in\n    tag_121:\n        /* \"#utility.yul\":2948:3481   */\n      swap5\n      swap4\n      pop\n      pop\n      pop\n      pop\n      jump\t// out\n        /* \"#utility.yul\":3487:3547   */\n    tag_56:\n        /* \"#utility.yul\":3515:3518   */\n      0x00\n        /* \"#utility.yul\":3536:3541   */\n      dup2\n        /* \"#utility.yul\":3529:3541   */\n      swap1\n      pop\n        /* \"#utility.yul\":3487:3547   */\n      swap2\n      swap1\n      pop\n      jump\t// out\n        /* \"#utility.yul\":3553:3695   */\n    tag_57:\n        /* \"#utility.yul\":3603:3612   */\n      0x00\n        /* \"#utility.yul\":3636:3689   */\n      tag_124\n        /* \"#utility.yul\":3654:3688   */\n      tag_125\n        /* \"#utility.yul\":3663:3687   */\n      tag_126\n        /* \"#utility.yul\":3681:3686   */\n      dup5\n        /* \"#utility.yul\":3663:3687   */\n      tag_45\n      jump\t// in\n    tag_126:\n        /* \"#utility.yul\":3654:3688   */\n      tag_56\n      jump\t// in\n    tag_125:\n        /* \"#utility.yul\":3636:3689   */\n      tag_45\n      jump\t// in\n    tag_124:\n        /* \"#utility.yul\":3623:3689   */\n      swap1\n      pop\n        /* \"#utility.yul\":3553:3695   */\n      swap2\n      swap1\n      pop\n      jump\t// out\n        /* \"#utility.yul\":3701:3827   */\n    tag_58:\n        /* \"#utility.yul\":3751:3760   */\n      0x00\n        /* \"#utility.yul\":3784:3821   */\n      tag_128\n        /* \"#utility.yul\":3815:3820   */\n      dup3\n        /* \"#utility.yul\":3784:3821   */\n      tag_57\n      jump\t// in\n    tag_128:\n        /* \"#utility.yul\":3771:3821   */\n      swap1\n      pop\n        /* \"#utility.yul\":3701:3827   */\n      swap2\n      swap1\n      pop\n      jump\t// out\n        /* \"#utility.yul\":3833:3974   */\n    tag_59:\n        /* \"#utility.yul\":3898:3907   */\n      0x00\n        /* \"#utility.yul\":3931:3968   */\n      tag_130\n        /* \"#utility.yul\":3962:3967   */\n      dup3\n        /* \"#utility.yul\":3931:3968   */\n      tag_58\n      jump\t// in\n    tag_130:\n        /* \"#utility.yul\":3918:3968   */\n      swap1\n      pop\n        /* \"#utility.yul\":3833:3974   */\n      swap2\n      swap1\n      pop\n      jump\t// out\n        /* \"#utility.yul\":3980:4141   */\n    tag_60:\n        /* \"#utility.yul\":4082:4134   */\n      tag_132\n        /* \"#utility.yul\":4128:4133   */\n      dup2\n        /* \"#utility.yul\":4082:4134   */\n      tag_59\n      jump\t// in\n    tag_132:\n        /* \"#utility.yul\":4077:4080   */\n      dup3\n        /* \"#utility.yul\":4070:4135   */\n      mstore\n        /* \"#utility.yul\":3980:4141   */\n      pop\n      pop\n      jump\t// out\n        /* \"#utility.yul\":4147:4399   */\n    tag_15:\n        /* \"#utility.yul\":4255:4259   */\n      0x00\n        /* \"#utility.yul\":4293:4295   */\n      0x20\n        /* \"#utility.yul\":4282:4291   */\n      dup3\n        /* \"#utility.yul\":4278:4296   */\n      add\n        /* \"#utility.yul\":4270:4296   */\n      swap1\n      pop\n        /* \"#utility.yul\":4306:4392   */\n      tag_134\n        /* \"#utility.yul\":4389:4390   */\n      0x00\n        /* \"#utility.yul\":4378:4387   */\n      dup4\n        /* \"#utility.yul\":4374:4391   */\n      add\n        /* \"#utility.yul\":4365:4371   */\n      dup5\n        /* \"#utility.yul\":4306:4392   */\n      tag_60\n      jump\t// in\n    tag_134:\n        /* \"#utility.yul\":4147:4399   */\n      swap3\n      swap2\n      pop\n      pop\n      jump\t// out\n        /* \"#utility.yul\":4405:4737   */\n    tag_22:\n        /* \"#utility.yul\":4526:4530   */\n      0x00\n        /* \"#utility.yul\":4564:4566   */\n      0x40\n        /* \"#utility.yul\":4553:4562   */\n      dup3\n        /* \"#utility.yul\":4549:4567   */\n      add\n        /* \"#utility.yul\":4541:4567   */\n      swap1\n      pop\n        /* \"#utility.yul\":4577:4648   */\n      tag_136\n        /* \"#utility.yul\":4645:4646   */\n      0x00\n        /* \"#utility.yul\":4634:4643   */\n      dup4\n        /* \"#utility.yul\":4630:4647   */\n      add\n        /* \"#utility.yul\":4621:4627   */\n      dup6\n        /* \"#utility.yul\":4577:4648   */\n      tag_54\n      jump\t// in\n    tag_136:\n        /* \"#utility.yul\":4658:4730   */\n      tag_137\n        /* \"#utility.yul\":4726:4728   */\n      0x20\n        /* \"#utility.yul\":4715:4724   */\n      dup4\n        /* \"#utility.yul\":4711:4729   */\n      add\n        /* \"#utility.yul\":4702:4708   */\n      dup5\n        /* \"#utility.yul\":4658:4730   */\n      tag_55\n      jump\t// in\n    tag_137:\n        /* \"#utility.yul\":4405:4737   */\n      swap4\n      swap3\n      pop\n      pop\n      pop\n      jump\t// out\n        /* \"#utility.yul\":4743:4860   */\n    tag_61:\n        /* \"#utility.yul\":4852:4853   */\n      0x00\n        /* \"#utility.yul\":4849:4850   */\n      dup1\n        /* \"#utility.yul\":4842:4854   */\n      revert\n        /* \"#utility.yul\":4866:4983   */\n    tag_62:\n        /* \"#utility.yul\":4975:4976   */\n      0x00\n        /* \"#utility.yul\":4972:4973   */\n      dup1\n        /* \"#utility.yul\":4965:4977   */\n      revert\n        /* \"#utility.yul\":4989:5169   */\n    tag_63:\n        /* \"#utility.yul\":5037:5114   */\n      0x4e487b7100000000000000000000000000000000000000000000000000000000\n        /* \"#utility.yul\":5034:5035   */\n      0x00\n        /* \"#utility.yul\":5027:5115   */\n      mstore\n        /* \"#utility.yul\":5134:5138   */\n      0x41\n        /* \"#utility.yul\":5131:5132   */\n      0x04\n        /* \"#utility.yul\":5124:5139   */\n      mstore\n        /* \"#utility.yul\":5158:5162   */\n      0x24\n        /* \"#utility.yul\":5155:5156   */\n      0x00\n        /* \"#utility.yul\":5148:5163   */\n      revert\n        /* \"#utility.yul\":5175:5456   */\n    tag_64:\n        /* \"#utility.yul\":5258:5285   */\n      tag_142\n        /* \"#utility.yul\":5280:5284   */\n      dup3\n        /* \"#utility.yul\":5258:5285   */\n      tag_52\n      jump\t// in\n    tag_142:\n        /* \"#utility.yul\":5250:5256   */\n      dup2\n        /* \"#utility.yul\":5246:5286   */\n      add\n        /* \"#utility.yul\":5388:5394   */\n      dup2\n        /* \"#utility.yul\":5376:5386   */\n      dup2\n        /* \"#utility.yul\":5373:5395   */\n      lt\n        /* \"#utility.yul\":5352:5370   */\n      0xffffffffffffffff\n        /* \"#utility.yul\":5340:5350   */\n      dup3\n        /* \"#utility.yul\":5337:5371   */\n      gt\n        /* \"#utility.yul\":5334:5396   */\n      or\n        /* \"#utility.yul\":5331:5419   */\n      iszero\n      tag_143\n      jumpi\n        /* \"#utility.yul\":5399:5417   */\n      tag_144\n      tag_63\n      jump\t// in\n    tag_144:\n        /* \"#utility.yul\":5331:5419   */\n    tag_143:\n        /* \"#utility.yul\":5439:5449   */\n      dup1\n        /* \"#utility.yul\":5435:5437   */\n      0x40\n        /* \"#utility.yul\":5428:5450   */\n      mstore\n        /* \"#utility.yul\":5218:5456   */\n      pop\n        /* \"#utility.yul\":5175:5456   */\n      pop\n      pop\n      jump\t// out\n        /* \"#utility.yul\":5462:5591   */\n    tag_65:\n        /* \"#utility.yul\":5496:5502   */\n      0x00\n        /* \"#utility.yul\":5523:5543   */\n      tag_146\n      tag_39\n      jump\t// in\n    tag_146:\n        /* \"#utility.yul\":5513:5543   */\n      swap1\n      pop\n        /* \"#utility.yul\":5552:5585   */\n      tag_147\n        /* \"#utility.yul\":5580:5584   */\n      dup3\n        /* \"#utility.yul\":5572:5578   */\n      dup3\n        /* \"#utility.yul\":5552:5585   */\n      tag_64\n      jump\t// in\n    tag_147:\n        /* \"#utility.yul\":5462:5591   */\n      swap2\n      swap1\n      pop\n      jump\t// out\n        /* \"#utility.yul\":5597:5905   */\n    tag_66:\n        /* \"#utility.yul\":5659:5663   */\n      0x00\n        /* \"#utility.yul\":5749:5767   */\n      0xffffffffffffffff\n        /* \"#utility.yul\":5741:5747   */\n      dup3\n        /* \"#utility.yul\":5738:5768   */\n      gt\n        /* \"#utility.yul\":5735:5791   */\n      iszero\n      tag_149\n      jumpi\n        /* \"#utility.yul\":5771:5789   */\n      tag_150\n      tag_63\n      jump\t// in\n    tag_150:\n        /* \"#utility.yul\":5735:5791   */\n    tag_149:\n        /* \"#utility.yul\":5809:5838   */\n      tag_151\n        /* \"#utility.yul\":5831:5837   */\n      dup3\n        /* \"#utility.yul\":5809:5838   */\n      tag_52\n      jump\t// in\n    tag_151:\n        /* \"#utility.yul\":5801:5838   */\n      swap1\n      pop\n        /* \"#utility.yul\":5893:5897   */\n      0x20\n        /* \"#utility.yul\":5887:5891   */\n      dup2\n        /* \"#utility.yul\":5883:5898   */\n      add\n        /* \"#utility.yul\":5875:5898   */\n      swap1\n      pop\n        /* \"#utility.yul\":5597:5905   */\n      swap2\n      swap1\n      pop\n      jump\t// out\n        /* \"#utility.yul\":5911:6345   */\n    tag_67:\n        /* \"#utility.yul\":6000:6005   */\n      0x00\n        /* \"#utility.yul\":6025:6091   */\n      tag_153\n        /* \"#utility.yul\":6041:6090   */\n      tag_154\n        /* \"#utility.yul\":6083:6089   */\n      dup5\n        /* \"#utility.yul\":6041:6090   */\n      tag_66\n      jump\t// in\n    tag_154:\n        /* \"#utility.yul\":6025:6091   */\n      tag_65\n      jump\t// in\n    tag_153:\n        /* \"#utility.yul\":6016:6091   */\n      swap1\n      pop\n        /* \"#utility.yul\":6114:6120   */\n      dup3\n        /* \"#utility.yul\":6107:6112   */\n      dup2\n        /* \"#utility.yul\":6100:6121   */\n      mstore\n        /* \"#utility.yul\":6152:6156   */\n      0x20\n        /* \"#utility.yul\":6145:6150   */\n      dup2\n        /* \"#utility.yul\":6141:6157   */\n      add\n        /* \"#utility.yul\":6190:6193   */\n      dup5\n        /* \"#utility.yul\":6181:6187   */\n      dup5\n        /* \"#utility.yul\":6176:6179   */\n      dup5\n        /* \"#utility.yul\":6172:6188   */\n      add\n        /* \"#utility.yul\":6169:6194   */\n      gt\n        /* \"#utility.yul\":6166:6278   */\n      iszero\n      tag_155\n      jumpi\n        /* \"#utility.yul\":6197:6276   */\n      tag_156\n      tag_62\n      jump\t// in\n    tag_156:\n        /* \"#utility.yul\":6166:6278   */\n    tag_155:\n        /* \"#utility.yul\":6287:6339   */\n      tag_157\n        /* \"#utility.yul\":6332:6338   */\n      dup5\n        /* \"#utility.yul\":6327:6330   */\n      dup3\n        /* \"#utility.yul\":6322:6325   */\n      dup6\n        /* \"#utility.yul\":6287:6339   */\n      tag_51\n      jump\t// in\n    tag_157:\n        /* \"#utility.yul\":6006:6345   */\n      pop\n        /* \"#utility.yul\":5911:6345   */\n      swap4\n      swap3\n      pop\n      pop\n      pop\n      jump\t// out\n        /* \"#utility.yul\":6365:6720   */\n    tag_68:\n        /* \"#utility.yul\":6432:6437   */\n      0x00\n        /* \"#utility.yul\":6481:6484   */\n      dup3\n        /* \"#utility.yul\":6474:6478   */\n      0x1f\n        /* \"#utility.yul\":6466:6472   */\n      dup4\n        /* \"#utility.yul\":6462:6479   */\n      add\n        /* \"#utility.yul\":6458:6485   */\n      slt\n        /* \"#utility.yul\":6448:6570   */\n      tag_159\n      jumpi\n        /* \"#utility.yul\":6489:6568   */\n      tag_160\n      tag_61\n      jump\t// in\n    tag_160:\n        /* \"#utility.yul\":6448:6570   */\n    tag_159:\n        /* \"#utility.yul\":6599:6605   */\n      dup2\n        /* \"#utility.yul\":6593:6606   */\n      mload\n        /* \"#utility.yul\":6624:6714   */\n      tag_161\n        /* \"#utility.yul\":6710:6713   */\n      dup5\n        /* \"#utility.yul\":6702:6708   */\n      dup3\n        /* \"#utility.yul\":6695:6699   */\n      0x20\n        /* \"#utility.yul\":6687:6693   */\n      dup7\n        /* \"#utility.yul\":6683:6700   */\n      add\n        /* \"#utility.yul\":6624:6714   */\n      tag_67\n      jump\t// in\n    tag_161:\n        /* \"#utility.yul\":6615:6714   */\n      swap2\n      pop\n        /* \"#utility.yul\":6438:6720   */\n      pop\n        /* \"#utility.yul\":6365:6720   */\n      swap3\n      swap2\n      pop\n      pop\n      jump\t// out\n        /* \"#utility.yul\":6726:6869   */\n    tag_69:\n        /* \"#utility.yul\":6783:6788   */\n      0x00\n        /* \"#utility.yul\":6814:6820   */\n      dup2\n        /* \"#utility.yul\":6808:6821   */\n      mload\n        /* \"#utility.yul\":6799:6821   */\n      swap1\n      pop\n        /* \"#utility.yul\":6830:6863   */\n      tag_163\n        /* \"#utility.yul\":6857:6862   */\n      dup2\n        /* \"#utility.yul\":6830:6863   */\n      tag_43\n      jump\t// in\n    tag_163:\n        /* \"#utility.yul\":6726:6869   */\n      swap3\n      swap2\n      pop\n      pop\n      jump\t// out\n        /* \"#utility.yul\":6875:7018   */\n    tag_70:\n        /* \"#utility.yul\":6932:6937   */\n      0x00\n        /* \"#utility.yul\":6963:6969   */\n      dup2\n        /* \"#utility.yul\":6957:6970   */\n      mload\n        /* \"#utility.yul\":6948:6970   */\n      swap1\n      pop\n        /* \"#utility.yul\":6979:7012   */\n      tag_165\n        /* \"#utility.yul\":7006:7011   */\n      dup2\n        /* \"#utility.yul\":6979:7012   */\n      tag_47\n      jump\t// in\n    tag_165:\n        /* \"#utility.yul\":6875:7018   */\n      swap3\n      swap2\n      pop\n      pop\n      jump\t// out\n        /* \"#utility.yul\":7024:7860   */\n    tag_26:\n        /* \"#utility.yul\":7122:7128   */\n      0x00\n        /* \"#utility.yul\":7130:7136   */\n      dup1\n        /* \"#utility.yul\":7138:7144   */\n      0x00\n        /* \"#utility.yul\":7187:7189   */\n      0x60\n        /* \"#utility.yul\":7175:7184   */\n      dup5\n        /* \"#utility.yul\":7166:7173   */\n      dup7\n        /* \"#utility.yul\":7162:7185   */\n      sub\n        /* \"#utility.yul\":7158:7190   */\n      slt\n        /* \"#utility.yul\":7155:7274   */\n      iszero\n      tag_167\n      jumpi\n        /* \"#utility.yul\":7193:7272   */\n      tag_168\n      tag_40\n      jump\t// in\n    tag_168:\n        /* \"#utility.yul\":7155:7274   */\n    tag_167:\n        /* \"#utility.yul\":7334:7335   */\n      0x00\n        /* \"#utility.yul\":7323:7332   */\n      dup5\n        /* \"#utility.yul\":7319:7336   */\n      add\n        /* \"#utility.yul\":7313:7337   */\n      mload\n        /* \"#utility.yul\":7364:7382   */\n      0xffffffffffffffff\n        /* \"#utility.yul\":7356:7362   */\n      dup2\n        /* \"#utility.yul\":7353:7383   */\n      gt\n        /* \"#utility.yul\":7350:7467   */\n      iszero\n      tag_169\n      jumpi\n        /* \"#utility.yul\":7386:7465   */\n      tag_170\n      tag_41\n      jump\t// in\n    tag_170:\n        /* \"#utility.yul\":7350:7467   */\n    tag_169:\n        /* \"#utility.yul\":7491:7565   */\n      tag_171\n        /* \"#utility.yul\":7557:7564   */\n      dup7\n        /* \"#utility.yul\":7548:7554   */\n      dup3\n        /* \"#utility.yul\":7537:7546   */\n      dup8\n        /* \"#utility.yul\":7533:7555   */\n      add\n        /* \"#utility.yul\":7491:7565   */\n      tag_68\n      jump\t// in\n    tag_171:\n        /* \"#utility.yul\":7481:7565   */\n      swap4\n      pop\n        /* \"#utility.yul\":7284:7575   */\n      pop\n        /* \"#utility.yul\":7614:7616   */\n      0x20\n        /* \"#utility.yul\":7640:7704   */\n      tag_172\n        /* \"#utility.yul\":7696:7703   */\n      dup7\n        /* \"#utility.yul\":7687:7693   */\n      dup3\n        /* \"#utility.yul\":7676:7685   */\n      dup8\n        /* \"#utility.yul\":7672:7694   */\n      add\n        /* \"#utility.yul\":7640:7704   */\n      tag_69\n      jump\t// in\n    tag_172:\n        /* \"#utility.yul\":7630:7704   */\n      swap3\n      pop\n        /* \"#utility.yul\":7585:7714   */\n      pop\n        /* \"#utility.yul\":7753:7755   */\n      0x40\n        /* \"#utility.yul\":7779:7843   */\n      tag_173\n        /* \"#utility.yul\":7835:7842   */\n      dup7\n        /* \"#utility.yul\":7826:7832   */\n      dup3\n        /* \"#utility.yul\":7815:7824   */\n      dup8\n        /* \"#utility.yul\":7811:7833   */\n      add\n        /* \"#utility.yul\":7779:7843   */\n      tag_70\n      jump\t// in\n    tag_173:\n        /* \"#utility.yul\":7769:7843   */\n      swap2\n      pop\n        /* \"#utility.yul\":7724:7853   */\n      pop\n        /* \"#utility.yul\":7024:7860   */\n      swap3\n      pop\n      swap3\n      pop\n      swap3\n      jump\t// out\n        /* \"#utility.yul\":7866:7964   */\n    tag_71:\n        /* \"#utility.yul\":7917:7923   */\n      0x00\n        /* \"#utility.yul\":7951:7956   */\n      dup2\n        /* \"#utility.yul\":7945:7957   */\n      mload\n        /* \"#utility.yul\":7935:7957   */\n      swap1\n      pop\n        /* \"#utility.yul\":7866:7964   */\n      swap2\n      swap1\n      pop\n      jump\t// out\n        /* \"#utility.yul\":7970:8117   */\n    tag_72:\n        /* \"#utility.yul\":8071:8082   */\n      0x00\n        /* \"#utility.yul\":8108:8111   */\n      dup2\n        /* \"#utility.yul\":8093:8111   */\n      swap1\n      pop\n        /* \"#utility.yul\":7970:8117   */\n      swap3\n      swap2\n      pop\n      pop\n      jump\t// out\n        /* \"#utility.yul\":8123:8509   */\n    tag_73:\n        /* \"#utility.yul\":8227:8230   */\n      0x00\n        /* \"#utility.yul\":8255:8293   */\n      tag_177\n        /* \"#utility.yul\":8287:8292   */\n      dup3\n        /* \"#utility.yul\":8255:8293   */\n      tag_71\n      jump\t// in\n    tag_177:\n        /* \"#utility.yul\":8309:8397   */\n      tag_178\n        /* \"#utility.yul\":8390:8396   */\n      dup2\n        /* \"#utility.yul\":8385:8388   */\n      dup6\n        /* \"#utility.yul\":8309:8397   */\n      tag_72\n      jump\t// in\n    tag_178:\n        /* \"#utility.yul\":8302:8397   */\n      swap4\n      pop\n        /* \"#utility.yul\":8406:8471   */\n      tag_179\n        /* \"#utility.yul\":8464:8470   */\n      dup2\n        /* \"#utility.yul\":8459:8462   */\n      dup6\n        /* \"#utility.yul\":8452:8456   */\n      0x20\n        /* \"#utility.yul\":8445:8450   */\n      dup7\n        /* \"#utility.yul\":8441:8457   */\n      add\n        /* \"#utility.yul\":8406:8471   */\n      tag_51\n      jump\t// in\n    tag_179:\n        /* \"#utility.yul\":8496:8502   */\n      dup1\n        /* \"#utility.yul\":8491:8494   */\n      dup5\n        /* \"#utility.yul\":8487:8503   */\n      add\n        /* \"#utility.yul\":8480:8503   */\n      swap2\n      pop\n        /* \"#utility.yul\":8231:8509   */\n      pop\n        /* \"#utility.yul\":8123:8509   */\n      swap3\n      swap2\n      pop\n      pop\n      jump\t// out\n        /* \"#utility.yul\":8515:8786   */\n    tag_30:\n        /* \"#utility.yul\":8645:8648   */\n      0x00\n        /* \"#utility.yul\":8667:8760   */\n      tag_181\n        /* \"#utility.yul\":8756:8759   */\n      dup3\n        /* \"#utility.yul\":8747:8753   */\n      dup5\n        /* \"#utility.yul\":8667:8760   */\n      tag_73\n      jump\t// in\n    tag_181:\n        /* \"#utility.yul\":8660:8760   */\n      swap2\n      pop\n        /* \"#utility.yul\":8777:8780   */\n      dup2\n        /* \"#utility.yul\":8770:8780   */\n      swap1\n      pop\n        /* \"#utility.yul\":8515:8786   */\n      swap3\n      swap2\n      pop\n      pop\n      jump\t// out\n        /* \"#utility.yul\":8792:8945   */\n    tag_74:\n        /* \"#utility.yul\":8932:8937   */\n      0x6f70730000000000000000000000000000000000000000000000000000000000\n        /* \"#utility.yul\":8928:8929   */\n      0x00\n        /* \"#utility.yul\":8920:8926   */\n      dup3\n        /* \"#utility.yul\":8916:8930   */\n      add\n        /* \"#utility.yul\":8909:8938   */\n      mstore\n        /* \"#utility.yul\":8792:8945   */\n      pop\n      jump\t// out\n        /* \"#utility.yul\":8951:9316   */\n    tag_75:\n        /* \"#utility.yul\":9093:9096   */\n      0x00\n        /* \"#utility.yul\":9114:9180   */\n      tag_184\n        /* \"#utility.yul\":9178:9179   */\n      0x03\n        /* \"#utility.yul\":9173:9176   */\n      dup4\n        /* \"#utility.yul\":9114:9180   */\n      tag_50\n      jump\t// in\n    tag_184:\n        /* \"#utility.yul\":9107:9180   */\n      swap2\n      pop\n        /* \"#utility.yul\":9189:9282   */\n      tag_185\n        /* \"#utility.yul\":9278:9281   */\n      dup3\n        /* \"#utility.yul\":9189:9282   */\n      tag_74\n      jump\t// in\n    tag_185:\n        /* \"#utility.yul\":9307:9309   */\n      0x20\n        /* \"#utility.yul\":9302:9305   */\n      dup3\n        /* \"#utility.yul\":9298:9310   */\n      add\n        /* \"#utility.yul\":9291:9310   */\n      swap1\n      pop\n        /* \"#utility.yul\":8951:9316   */\n      swap2\n      swap1\n      pop\n      jump\t// out\n        /* \"#utility.yul\":9322:9741   */\n    tag_36:\n        /* \"#utility.yul\":9488:9492   */\n      0x00\n        /* \"#utility.yul\":9526:9528   */\n      0x20\n        /* \"#utility.yul\":9515:9524   */\n      dup3\n        /* \"#utility.yul\":9511:9529   */\n      add\n        /* \"#utility.yul\":9503:9529   */\n      swap1\n      pop\n        /* \"#utility.yul\":9575:9584   */\n      dup2\n        /* \"#utility.yul\":9569:9573   */\n      dup2\n        /* \"#utility.yul\":9565:9585   */\n      sub\n        /* \"#utility.yul\":9561:9562   */\n      0x00\n        /* \"#utility.yul\":9550:9559   */\n      dup4\n        /* \"#utility.yul\":9546:9563   */\n      add\n        /* \"#utility.yul\":9539:9586   */\n      mstore\n        /* \"#utility.yul\":9603:9734   */\n      tag_187\n        /* \"#utility.yul\":9729:9733   */\n      dup2\n        /* \"#utility.yul\":9603:9734   */\n      tag_75\n      jump\t// in\n    tag_187:\n        /* \"#utility.yul\":9595:9734   */\n      swap1\n      pop\n        /* \"#utility.yul\":9322:9741   */\n      swap2\n      swap1\n      pop\n      jump\t// out\n        /* \"#utility.yul\":9747:9851   */\n    tag_76:\n        /* \"#utility.yul\":9792:9799   */\n      0x00\n        /* \"#utility.yul\":9821:9845   */\n      tag_189\n        /* \"#utility.yul\":9839:9844   */\n      dup3\n        /* \"#utility.yul\":9821:9845   */\n      tag_45\n      jump\t// in\n    tag_189:\n        /* \"#utility.yul\":9810:9845   */\n      swap1\n      pop\n        /* \"#utility.yul\":9747:9851   */\n      swap2\n      swap1\n      pop\n      jump\t// out\n        /* \"#utility.yul\":9857:9995   */\n    tag_77:\n        /* \"#utility.yul\":9938:9970   */\n      tag_191\n        /* \"#utility.yul\":9964:9969   */\n      dup2\n        /* \"#utility.yul\":9938:9970   */\n      tag_76\n      jump\t// in\n    tag_191:\n        /* \"#utility.yul\":9931:9936   */\n      dup2\n        /* \"#utility.yul\":9928:9971   */\n      eq\n        /* \"#utility.yul\":9918:9989   */\n      tag_192\n      jumpi\n        /* \"#utility.yul\":9985:9986   */\n      0x00\n        /* \"#utility.yul\":9982:9983   */\n      dup1\n        /* \"#utility.yul\":9975:9987   */\n      revert\n        /* \"#utility.yul\":9918:9989   */\n    tag_192:\n        /* \"#utility.yul\":9857:9995   */\n      pop\n      jump\t// out\n        /* \"#utility.yul\":10001:10160   */\n    tag_78:\n        /* \"#utility.yul\":10066:10071   */\n      0x00\n        /* \"#utility.yul\":10097:10103   */\n      dup2\n        /* \"#utility.yul\":10091:10104   */\n      mload\n        /* \"#utility.yul\":10082:10104   */\n      swap1\n      pop\n        /* \"#utility.yul\":10113:10154   */\n      tag_194\n        /* \"#utility.yul\":10148:10153   */\n      dup2\n        /* \"#utility.yul\":10113:10154   */\n      tag_77\n      jump\t// in\n    tag_194:\n        /* \"#utility.yul\":10001:10160   */\n      swap3\n      swap2\n      pop\n      pop\n      jump\t// out\n        /* \"#utility.yul\":10166:11018   */\n    tag_38:\n        /* \"#utility.yul\":10272:10278   */\n      0x00\n        /* \"#utility.yul\":10280:10286   */\n      dup1\n        /* \"#utility.yul\":10288:10294   */\n      0x00\n        /* \"#utility.yul\":10337:10339   */\n      0x60\n        /* \"#utility.yul\":10325:10334   */\n      dup5\n        /* \"#utility.yul\":10316:10323   */\n      dup7\n        /* \"#utility.yul\":10312:10335   */\n      sub\n        /* \"#utility.yul\":10308:10340   */\n      slt\n        /* \"#utility.yul\":10305:10424   */\n      iszero\n      tag_196\n      jumpi\n        /* \"#utility.yul\":10343:10422   */\n      tag_197\n      tag_40\n      jump\t// in\n    tag_197:\n        /* \"#utility.yul\":10305:10424   */\n    tag_196:\n        /* \"#utility.yul\":10484:10485   */\n      0x00\n        /* \"#utility.yul\":10473:10482   */\n      dup5\n        /* \"#utility.yul\":10469:10486   */\n      add\n        /* \"#utility.yul\":10463:10487   */\n      mload\n        /* \"#utility.yul\":10514:10532   */\n      0xffffffffffffffff\n        /* \"#utility.yul\":10506:10512   */\n      dup2\n        /* \"#utility.yul\":10503:10533   */\n      gt\n        /* \"#utility.yul\":10500:10617   */\n      iszero\n      tag_198\n      jumpi\n        /* \"#utility.yul\":10536:10615   */\n      tag_199\n      tag_41\n      jump\t// in\n    tag_199:\n        /* \"#utility.yul\":10500:10617   */\n    tag_198:\n        /* \"#utility.yul\":10641:10715   */\n      tag_200\n        /* \"#utility.yul\":10707:10714   */\n      dup7\n        /* \"#utility.yul\":10698:10704   */\n      dup3\n        /* \"#utility.yul\":10687:10696   */\n      dup8\n        /* \"#utility.yul\":10683:10705   */\n      add\n        /* \"#utility.yul\":10641:10715   */\n      tag_68\n      jump\t// in\n    tag_200:\n        /* \"#utility.yul\":10631:10715   */\n      swap4\n      pop\n        /* \"#utility.yul\":10434:10725   */\n      pop\n        /* \"#utility.yul\":10764:10766   */\n      0x20\n        /* \"#utility.yul\":10790:10854   */\n      tag_201\n        /* \"#utility.yul\":10846:10853   */\n      dup7\n        /* \"#utility.yul\":10837:10843   */\n      dup3\n        /* \"#utility.yul\":10826:10835   */\n      dup8\n        /* \"#utility.yul\":10822:10844   */\n      add\n        /* \"#utility.yul\":10790:10854   */\n      tag_69\n      jump\t// in\n    tag_201:\n        /* \"#utility.yul\":10780:10854   */\n      swap3\n      pop\n        /* \"#utility.yul\":10735:10864   */\n      pop\n        /* \"#utility.yul\":10903:10905   */\n      0x40\n        /* \"#utility.yul\":10929:11001   */\n      tag_202\n        /* \"#utility.yul\":10993:11000   */\n      dup7\n        /* \"#utility.yul\":10984:10990   */\n      dup3\n        /* \"#utility.yul\":10973:10982   */\n      dup8\n        /* \"#utility.yul\":10969:10991   */\n      add\n        /* \"#utility.yul\":10929:11001   */\n      tag_78\n      jump\t// in\n    tag_202:\n        /* \"#utility.yul\":10919:11001   */\n      swap2\n      pop\n        /* \"#utility.yul\":10874:11011   */\n      pop\n        /* \"#utility.yul\":10166:11018   */\n      swap3\n      pop\n      swap3\n      pop\n      swap3\n      jump\t// out\n\n    auxdata: 0xa2646970667358221220ff745b81c283337d76197e86470fd9e8ebca31f2a00976a1796676b2f9ae2b2c64736f6c63430008120033\n}\n",
				"bytecode": {
					"linkReferences": {},
					"object": "608060405234801561001057600080fd5b50604051610a40380380610a40833981810160405281019061003291906100db565b806000806101000a81548173ffffffffffffffffffffffffffffffffffffffff021916908373ffffffffffffffffffffffffffffffffffffffff16021790555050610108565b600080fd5b600073ffffffffffffffffffffffffffffffffffffffff82169050919050565b60006100a88261007d565b9050919050565b6100b88161009d565b81146100c357600080fd5b50565b6000815190506100d5816100af565b92915050565b6000602082840312156100f1576100f0610078565b5b60006100ff848285016100c6565b91505092915050565b610929806101176000396000f3fe608060405234801561001057600080fd5b50600436106100415760003560e01c80632d459bb8146100465780638a4068dd14610078578063e73afabf14610096575b600080fd5b610060600480360381019061005b91906103ee565b6100c8565b60405161006f939291906104dc565b60405180910390f35b61008061018d565b60405161008d9190610579565b60405180910390f35b6100b060048036038101906100ab91906103ee565b6101b1565b6040516100bf939291906104dc565b60405180910390f35b606060008060008060008060009054906101000a900473ffffffffffffffffffffffffffffffffffffffff1673ffffffffffffffffffffffffffffffffffffffff1663b7760c8f89896040518363ffffffff1660e01b815260040161012e929190610594565b600060405180830381865afa15801561014b573d6000803e3d6000fd5b505050506040513d6000823e3d601f19601f82011682018060405250810190610174919061070d565b9250925092508282829550955095505050509250925092565b60008054906101000a900473ffffffffffffffffffffffffffffffffffffffff1681565b606060008060008060008054906101000a900473ffffffffffffffffffffffffffffffffffffffff1673ffffffffffffffffffffffffffffffffffffffff168787604051602401610203929190610594565b6040516020818303038152906040527fb7760c8f000000000000000000000000000000000000000000000000000000007bffffffffffffffffffffffffffffffffffffffffffffffffffffffff19166020820180517bffffffffffffffffffffffffffffffffffffffffffffffffffffffff838183161783525050505060405161028d91906107c3565b600060405180830381855afa9150503d80600081146102c8576040519150601f19603f3d011682016040523d82523d6000602084013e6102cd565b606091505b509150915081610312576040517f08c379a000000000000000000000000000000000000000000000000000000000815260040161030990610826565b60405180910390fd5b60008060008380602001905181019061032b9190610884565b92509250925082828297509750975050505050509250925092565b6000604051905090565b600080fd5b600080fd5b6000819050919050565b61036d8161035a565b811461037857600080fd5b50565b60008135905061038a81610364565b92915050565b600073ffffffffffffffffffffffffffffffffffffffff82169050919050565b60006103bb82610390565b9050919050565b6103cb816103b0565b81146103d657600080fd5b50565b6000813590506103e8816103c2565b92915050565b6000806040838503121561040557610404610350565b5b60006104138582860161037b565b9250506020610424858286016103d9565b9150509250929050565b600081519050919050565b600082825260208201905092915050565b60005b8381101561046857808201518184015260208101905061044d565b60008484015250505050565b6000601f19601f8301169050919050565b60006104908261042e565b61049a8185610439565b93506104aa81856020860161044a565b6104b381610474565b840191505092915050565b6104c78161035a565b82525050565b6104d6816103b0565b82525050565b600060608201905081810360008301526104f68186610485565b905061050560208301856104be565b61051260408301846104cd565b949350505050565b6000819050919050565b600061053f61053a61053584610390565b61051a565b610390565b9050919050565b600061055182610524565b9050919050565b600061056382610546565b9050919050565b61057381610558565b82525050565b600060208201905061058e600083018461056a565b92915050565b60006040820190506105a960008301856104be565b6105b660208301846104cd565b9392505050565b600080fd5b600080fd5b7f4e487b7100000000000000000000000000000000000000000000000000000000600052604160045260246000fd5b6105ff82610474565b810181811067ffffffffffffffff8211171561061e5761061d6105c7565b5b80604052505050565b6000610631610346565b905061063d82826105f6565b919050565b600067ffffffffffffffff82111561065d5761065c6105c7565b5b61066682610474565b9050602081019050919050565b600061068661068184610642565b610627565b9050828152602081018484840111156106a2576106a16105c2565b5b6106ad84828561044a565b509392505050565b600082601f8301126106ca576106c96105bd565b5b81516106da848260208601610673565b91505092915050565b6000815190506106f281610364565b92915050565b600081519050610707816103c2565b92915050565b60008060006060848603121561072657610725610350565b5b600084015167ffffffffffffffff81111561074457610743610355565b5b610750868287016106b5565b9350506020610761868287016106e3565b9250506040610772868287016106f8565b9150509250925092565b600081519050919050565b600081905092915050565b600061079d8261077c565b6107a78185610787565b93506107b781856020860161044a565b80840191505092915050565b60006107cf8284610792565b915081905092915050565b7f6f70730000000000000000000000000000000000000000000000000000000000600082015250565b6000610810600383610439565b915061081b826107da565b602082019050919050565b6000602082019050818103600083015261083f81610803565b9050919050565b600061085182610390565b9050919050565b61086181610846565b811461086c57600080fd5b50565b60008151905061087e81610858565b92915050565b60008060006060848603121561089d5761089c610350565b5b600084015167ffffffffffffffff8111156108bb576108ba610355565b5b6108c7868287016106b5565b93505060206108d8868287016106e3565b92505060406108e98682870161086f565b915050925092509256fea2646970667358221220ff745b81c283337d76197e86470fd9e8ebca31f2a00976a1796676b2f9ae2b2c64736f6c63430008120033",
					"opcodes": "PUSH1 0x80 PUSH1 0x40 MSTORE CALLVALUE DUP1 ISZERO PUSH2 0x10 JUMPI PUSH1 0x0 DUP1 REVERT JUMPDEST POP PUSH1 0x40 MLOAD PUSH2 0xA40 CODESIZE SUB DUP1 PUSH2 0xA40 DUP4 CODECOPY DUP2 DUP2 ADD PUSH1 0x40 MSTORE DUP2 ADD SWAP1 PUSH2 0x32 SWAP2 SWAP1 PUSH2 0xDB JUMP JUMPDEST DUP1 PUSH1 0x0 DUP1 PUSH2 0x100 EXP DUP2 SLOAD DUP2 PUSH20 0xFFFFFFFFFFFFFFFFFFFFFFFFFFFFFFFFFFFFFFFF MUL NOT AND SWAP1 DUP4 PUSH20 0xFFFFFFFFFFFFFFFFFFFFFFFFFFFFFFFFFFFFFFFF AND MUL OR SWAP1 SSTORE POP POP PUSH2 0x108 JUMP JUMPDEST PUSH1 0x0 DUP1 REVERT JUMPDEST PUSH1 0x0 PUSH20 0xFFFFFFFFFFFFFFFFFFFFFFFFFFFFFFFFFFFFFFFF DUP3 AND SWAP1 POP SWAP2 SWAP1 POP JUMP JUMPDEST PUSH1 0x0 PUSH2 0xA8 DUP3 PUSH2 0x7D JUMP JUMPDEST SWAP1 POP SWAP2 SWAP1 POP JUMP JUMPDEST PUSH2 0xB8 DUP2 PUSH2 0x9D JUMP JUMPDEST DUP2 EQ PUSH2 0xC3 JUMPI PUSH1 0x0 DUP1 REVERT JUMPDEST POP JUMP JUMPDEST PUSH1 0x0 DUP2 MLOAD SWAP1 POP PUSH2 0xD5 DUP2 PUSH2 0xAF JUMP JUMPDEST SWAP3 SWAP2 POP POP JUMP JUMPDEST PUSH1 0x0 PUSH1 0x20 DUP3 DUP5 SUB SLT ISZERO PUSH2 0xF1 JUMPI PUSH2 0xF0 PUSH2 0x78 JUMP JUMPDEST JUMPDEST PUSH1 0x0 PUSH2 0xFF DUP5 DUP3 DUP6 ADD PUSH2 0xC6 JUMP JUMPDEST SWAP2 POP POP SWAP3 SWAP2 POP POP JUMP JUMPDEST PUSH2 0x929 DUP1 PUSH2 0x117 PUSH1 0x0 CODECOPY PUSH1 0x0 RETURN INVALID PUSH1 0x80 PUSH1 0x40 MSTORE CALLVALUE DUP1 ISZERO PUSH2 0x10 JUMPI PUSH1 0x0 DUP1 REVERT JUMPDEST POP PUSH1 0x4 CALLDATASIZE LT PUSH2 0x41 JUMPI PUSH1 0x0 CALLDATALOAD PUSH1 0xE0 SHR DUP1 PUSH4 0x2D459BB8 EQ PUSH2 0x46 JUMPI DUP1 PUSH4 0x8A4068DD EQ PUSH2 0x78 JUMPI DUP1 PUSH4 0xE73AFABF EQ PUSH2 0x96 JUMPI JUMPDEST PUSH1 0x0 DUP1 REVERT JUMPDEST PUSH2 0x60 PUSH1 0x4 DUP1 CALLDATASIZE SUB DUP2 ADD SWAP1 PUSH2 0x5B SWAP2 SWAP1 PUSH2 0x3EE JUMP JUMPDEST PUSH2 0xC8 JUMP JUMPDEST PUSH1 0x40 MLOAD PUSH2 0x6F SWAP4 SWAP3 SWAP2 SWAP1 PUSH2 0x4DC JUMP JUMPDEST PUSH1 0x40 MLOAD DUP1 SWAP2 SUB SWAP1 RETURN JUMPDEST PUSH2 0x80 PUSH2 0x18D JUMP JUMPDEST PUSH1 0x40 MLOAD PUSH2 0x8D SWAP2 SWAP1 PUSH2 0x579 JUMP JUMPDEST PUSH1 0x40 MLOAD DUP1 SWAP2 SUB SWAP1 RETURN JUMPDEST PUSH2 0xB0 PUSH1 0x4 DUP1 CALLDATASIZE SUB DUP2 ADD SWAP1 PUSH2 0xAB SWAP2 SWAP1 PUSH2 0x3EE JUMP JUMPDEST PUSH2 0x1B1 JUMP JUMPDEST PUSH1 0x40 MLOAD PUSH2 0xBF SWAP4 SWAP3 SWAP2 SWAP1 PUSH2 0x4DC JUMP JUMPDEST PUSH1 0x40 MLOAD DUP1 SWAP2 SUB SWAP1 RETURN JUMPDEST PUSH1 0x60 PUSH1 0x0 DUP1 PUSH1 0x0 DUP1 PUSH1 0x0 DUP1 PUSH1 0x0 SWAP1 SLOAD SWAP1 PUSH2 0x100 EXP SWAP1 DIV PUSH20 0xFFFFFFFFFFFFFFFFFFFFFFFFFFFFFFFFFFFFFFFF AND PUSH20 0xFFFFFFFFFFFFFFFFFFFFFFFFFFFFFFFFFFFFFFFF AND PUSH4 0xB7760C8F DUP10 DUP10 PUSH1 0x40 MLOAD DUP4 PUSH4 0xFFFFFFFF AND PUSH1 0xE0 SHL DUP2 MSTORE PUSH1 0x4 ADD PUSH2 0x12E SWAP3 SWAP2 SWAP1 PUSH2 0x594 JUMP JUMPDEST PUSH1 0x0 PUSH1 0x40 MLOAD DUP1 DUP4 SUB DUP2 DUP7 GAS STATICCALL ISZERO DUP1 ISZERO PUSH2 0x14B JUMPI RETURNDATASIZE PUSH1 0x0 DUP1 RETURNDATACOPY RETURNDATASIZE PUSH1 0x0 REVERT JUMPDEST POP POP POP POP PUSH1 0x40 MLOAD RETURNDATASIZE PUSH1 0x0 DUP3 RETURNDATACOPY RETURNDATASIZE PUSH1 0x1F NOT PUSH1 0x1F DUP3 ADD AND DUP3 ADD DUP1 PUSH1 0x40 MSTORE POP DUP2 ADD SWAP1 PUSH2 0x174 SWAP2 SWAP1 PUSH2 0x70D JUMP JUMPDEST SWAP3 POP SWAP3 POP SWAP3 POP DUP3 DUP3 DUP3 SWAP6 POP SWAP6 POP SWAP6 POP POP POP POP SWAP3 POP SWAP3 POP SWAP3 JUMP JUMPDEST PUSH1 0x0 DUP1 SLOAD SWAP1 PUSH2 0x100 EXP SWAP1 DIV PUSH20 0xFFFFFFFFFFFFFFFFFFFFFFFFFFFFFFFFFFFFFFFF AND DUP2 JUMP JUMPDEST PUSH1 0x60 PUSH1 0x0 DUP1 PUSH1 0x0 DUP1 PUSH1 0x0 DUP1 SLOAD SWAP1 PUSH2 0x100 EXP SWAP1 DIV PUSH20 0xFFFFFFFFFFFFFFFFFFFFFFFFFFFFFFFFFFFFFFFF AND PUSH20 0xFFFFFFFFFFFFFFFFFFFFFFFFFFFFFFFFFFFFFFFF AND DUP8 DUP8 PUSH1 0x40 MLOAD PUSH1 0x24 ADD PUSH2 0x203 SWAP3 SWAP2 SWAP1 PUSH2 0x594 JUMP JUMPDEST PUSH1 0x40 MLOAD PUSH1 0x20 DUP2 DUP4 SUB SUB DUP2 MSTORE SWAP1 PUSH1 0x40 MSTORE PUSH32 0xB7760C8F00000000000000000000000000000000000000000000000000000000 PUSH28 0xFFFFFFFFFFFFFFFFFFFFFFFFFFFFFFFFFFFFFFFFFFFFFFFFFFFFFFFF NOT AND PUSH1 0x20 DUP3 ADD DUP1 MLOAD PUSH28 0xFFFFFFFFFFFFFFFFFFFFFFFFFFFFFFFFFFFFFFFFFFFFFFFFFFFFFFFF DUP4 DUP2 DUP4 AND OR DUP4 MSTORE POP POP POP POP PUSH1 0x40 MLOAD PUSH2 0x28D SWAP2 SWAP1 PUSH2 0x7C3 JUMP JUMPDEST PUSH1 0x0 PUSH1 0x40 MLOAD DUP1 DUP4 SUB DUP2 DUP6 GAS STATICCALL SWAP2 POP POP RETURNDATASIZE DUP1 PUSH1 0x0 DUP2 EQ PUSH2 0x2C8 JUMPI PUSH1 0x40 MLOAD SWAP2 POP PUSH1 0x1F NOT PUSH1 0x3F RETURNDATASIZE ADD AND DUP3 ADD PUSH1 0x40 MSTORE RETURNDATASIZE DUP3 MSTORE RETURNDATASIZE PUSH1 0x0 PUSH1 0x20 DUP5 ADD RETURNDATACOPY PUSH2 0x2CD JUMP JUMPDEST PUSH1 0x60 SWAP2 POP JUMPDEST POP SWAP2 POP SWAP2 POP DUP2 PUSH2 0x312 JUMPI PUSH1 0x40 MLOAD PUSH32 0x8C379A000000000000000000000000000000000000000000000000000000000 DUP2 MSTORE PUSH1 0x4 ADD PUSH2 0x309 SWAP1 PUSH2 0x826 JUMP JUMPDEST PUSH1 0x40 MLOAD DUP1 SWAP2 SUB SWAP1 REVERT JUMPDEST PUSH1 0x0 DUP1 PUSH1 0x0 DUP4 DUP1 PUSH1 0x20 ADD SWAP1 MLOAD DUP2 ADD SWAP1 PUSH2 0x32B SWAP2 SWAP1 PUSH2 0x884 JUMP JUMPDEST SWAP3 POP SWAP3 POP SWAP3 POP DUP3 DUP3 DUP3 SWAP8 POP SWAP8 POP SWAP8 POP POP POP POP POP POP SWAP3 POP SWAP3 POP SWAP3 JUMP JUMPDEST PUSH1 0x0 PUSH1 0x40 MLOAD SWAP1 POP SWAP1 JUMP JUMPDEST PUSH1 0x0 DUP1 REVERT JUMPDEST PUSH1 0x0 DUP1 REVERT JUMPDEST PUSH1 0x0 DUP2 SWAP1 POP SWAP2 SWAP1 POP JUMP JUMPDEST PUSH2 0x36D DUP2 PUSH2 0x35A JUMP JUMPDEST DUP2 EQ PUSH2 0x378 JUMPI PUSH1 0x0 DUP1 REVERT JUMPDEST POP JUMP JUMPDEST PUSH1 0x0 DUP2 CALLDATALOAD SWAP1 POP PUSH2 0x38A DUP2 PUSH2 0x364 JUMP JUMPDEST SWAP3 SWAP2 POP POP JUMP JUMPDEST PUSH1 0x0 PUSH20 0xFFFFFFFFFFFFFFFFFFFFFFFFFFFFFFFFFFFFFFFF DUP3 AND SWAP1 POP SWAP2 SWAP1 POP JUMP JUMPDEST PUSH1 0x0 PUSH2 0x3BB DUP3 PUSH2 0x390 JUMP JUMPDEST SWAP1 POP SWAP2 SWAP1 POP JUMP JUMPDEST PUSH2 0x3CB DUP2 PUSH2 0x3B0 JUMP JUMPDEST DUP2 EQ PUSH2 0x3D6 JUMPI PUSH1 0x0 DUP1 REVERT JUMPDEST POP JUMP JUMPDEST PUSH1 0x0 DUP2 CALLDATALOAD SWAP1 POP PUSH2 0x3E8 DUP2 PUSH2 0x3C2 JUMP JUMPDEST SWAP3 SWAP2 POP POP JUMP JUMPDEST PUSH1 0x0 DUP1 PUSH1 0x40 DUP4 DUP6 SUB SLT ISZERO PUSH2 0x405 JUMPI PUSH2 0x404 PUSH2 0x350 JUMP JUMPDEST JUMPDEST PUSH1 0x0 PUSH2 0x413 DUP6 DUP3 DUP7 ADD PUSH2 0x37B JUMP JUMPDEST SWAP3 POP POP PUSH1 0x20 PUSH2 0x424 DUP6 DUP3 DUP7 ADD PUSH2 0x3D9 JUMP JUMPDEST SWAP2 POP POP SWAP3 POP SWAP3 SWAP1 POP JUMP JUMPDEST PUSH1 0x0 DUP2 MLOAD SWAP1 POP SWAP2 SWAP1 POP JUMP JUMPDEST PUSH1 0x0 DUP3 DUP3 MSTORE PUSH1 0x20 DUP3 ADD SWAP1 POP SWAP3 SWAP2 POP POP JUMP JUMPDEST PUSH1 0x0 JUMPDEST DUP4 DUP2 LT ISZERO PUSH2 0x468 JUMPI DUP1 DUP3 ADD MLOAD DUP2 DUP5 ADD MSTORE PUSH1 0x20 DUP2 ADD SWAP1 POP PUSH2 0x44D JUMP JUMPDEST PUSH1 0x0 DUP5 DUP5 ADD MSTORE POP POP POP POP JUMP JUMPDEST PUSH1 0x0 PUSH1 0x1F NOT PUSH1 0x1F DUP4 ADD AND SWAP1 POP SWAP2 SWAP1 POP JUMP JUMPDEST PUSH1 0x0 PUSH2 0x490 DUP3 PUSH2 0x42E JUMP JUMPDEST PUSH2 0x49A DUP2 DUP6 PUSH2 0x439 JUMP JUMPDEST SWAP4 POP PUSH2 0x4AA DUP2 DUP6 PUSH1 0x20 DUP7 ADD PUSH2 0x44A JUMP JUMPDEST PUSH2 0x4B3 DUP2 PUSH2 0x474 JUMP JUMPDEST DUP5 ADD SWAP2 POP POP SWAP3 SWAP2 POP POP JUMP JUMPDEST PUSH2 0x4C7 DUP2 PUSH2 0x35A JUMP JUMPDEST DUP3 MSTORE POP POP JUMP JUMPDEST PUSH2 0x4D6 DUP2 PUSH2 0x3B0 JUMP JUMPDEST DUP3 MSTORE POP POP JUMP JUMPDEST PUSH1 0x0 PUSH1 0x60 DUP3 ADD SWAP1 POP DUP2 DUP2 SUB PUSH1 0x0 DUP4 ADD MSTORE PUSH2 0x4F6 DUP2 DUP7 PUSH2 0x485 JUMP JUMPDEST SWAP1 POP PUSH2 0x505 PUSH1 0x20 DUP4 ADD DUP6 PUSH2 0x4BE JUMP JUMPDEST PUSH2 0x512 PUSH1 0x40 DUP4 ADD DUP5 PUSH2 0x4CD JUMP JUMPDEST SWAP5 SWAP4 POP POP POP POP JUMP JUMPDEST PUSH1 0x0 DUP2 SWAP1 POP SWAP2 SWAP1 POP JUMP JUMPDEST PUSH1 0x0 PUSH2 0x53F PUSH2 0x53A PUSH2 0x535 DUP5 PUSH2 0x390 JUMP JUMPDEST PUSH2 0x51A JUMP JUMPDEST PUSH2 0x390 JUMP JUMPDEST SWAP1 POP SWAP2 SWAP1 POP JUMP JUMPDEST PUSH1 0x0 PUSH2 0x551 DUP3 PUSH2 0x524 JUMP JUMPDEST SWAP1 POP SWAP2 SWAP1 POP JUMP JUMPDEST PUSH1 0x0 PUSH2 0x563 DUP3 PUSH2 0x546 JUMP JUMPDEST SWAP1 POP SWAP2 SWAP1 POP JUMP JUMPDEST PUSH2 0x573 DUP2 PUSH2 0x558 JUMP JUMPDEST DUP3 MSTORE POP POP JUMP JUMPDEST PUSH1 0x0 PUSH1 0x20 DUP3 ADD SWAP1 POP PUSH2 0x58E PUSH1 0x0 DUP4 ADD DUP5 PUSH2 0x56A JUMP JUMPDEST SWAP3 SWAP2 POP POP JUMP JUMPDEST PUSH1 0x0 PUSH1 0x40 DUP3 ADD SWAP1 POP PUSH2 0x5A9 PUSH1 0x0 DUP4 ADD DUP6 PUSH2 0x4BE JUMP JUMPDEST PUSH2 0x5B6 PUSH1 0x20 DUP4 ADD DUP5 PUSH2 0x4CD JUMP JUMPDEST SWAP4 SWAP3 POP POP POP JUMP JUMPDEST PUSH1 0x0 DUP1 REVERT JUMPDEST PUSH1 0x0 DUP1 REVERT JUMPDEST PUSH32 0x4E487B7100000000000000000000000000000000000000000000000000000000 PUSH1 0x0 MSTORE PUSH1 0x41 PUSH1 0x4 MSTORE PUSH1 0x24 PUSH1 0x0 REVERT JUMPDEST PUSH2 0x5FF DUP3 PUSH2 0x474 JUMP JUMPDEST DUP2 ADD DUP2 DUP2 LT PUSH8 0xFFFFFFFFFFFFFFFF DUP3 GT OR ISZERO PUSH2 0x61E JUMPI PUSH2 0x61D PUSH2 0x5C7 JUMP JUMPDEST JUMPDEST DUP1 PUSH1 0x40 MSTORE POP POP POP JUMP JUMPDEST PUSH1 0x0 PUSH2 0x631 PUSH2 0x346 JUMP JUMPDEST SWAP1 POP PUSH2 0x63D DUP3 DUP3 PUSH2 0x5F6 JUMP JUMPDEST SWAP2 SWAP1 POP JUMP JUMPDEST PUSH1 0x0 PUSH8 0xFFFFFFFFFFFFFFFF DUP3 GT ISZERO PUSH2 0x65D JUMPI PUSH2 0x65C PUSH2 0x5C7 JUMP JUMPDEST JUMPDEST PUSH2 0x666 DUP3 PUSH2 0x474 JUMP JUMPDEST SWAP1 POP PUSH1 0x20 DUP2 ADD SWAP1 POP SWAP2 SWAP1 POP JUMP JUMPDEST PUSH1 0x0 PUSH2 0x686 PUSH2 0x681 DUP5 PUSH2 0x642 JUMP JUMPDEST PUSH2 0x627 JUMP JUMPDEST SWAP1 POP DUP3 DUP2 MSTORE PUSH1 0x20 DUP2 ADD DUP5 DUP5 DUP5 ADD GT ISZERO PUSH2 0x6A2 JUMPI PUSH2 0x6A1 PUSH2 0x5C2 JUMP JUMPDEST JUMPDEST PUSH2 0x6AD DUP5 DUP3 DUP6 PUSH2 0x44A JUMP JUMPDEST POP SWAP4 SWAP3 POP POP POP JUMP JUMPDEST PUSH1 0x0 DUP3 PUSH1 0x1F DUP4 ADD SLT PUSH2 0x6CA JUMPI PUSH2 0x6C9 PUSH2 0x5BD JUMP JUMPDEST JUMPDEST DUP2 MLOAD PUSH2 0x6DA DUP5 DUP3 PUSH1 0x20 DUP7 ADD PUSH2 0x673 JUMP JUMPDEST SWAP2 POP POP SWAP3 SWAP2 POP POP JUMP JUMPDEST PUSH1 0x0 DUP2 MLOAD SWAP1 POP PUSH2 0x6F2 DUP2 PUSH2 0x364 JUMP JUMPDEST SWAP3 SWAP2 POP POP JUMP JUMPDEST PUSH1 0x0 DUP2 MLOAD SWAP1 POP PUSH2 0x707 DUP2 PUSH2 0x3C2 JUMP JUMPDEST SWAP3 SWAP2 POP POP JUMP JUMPDEST PUSH1 0x0 DUP1 PUSH1 0x0 PUSH1 0x60 DUP5 DUP7 SUB SLT ISZERO PUSH2 0x726 JUMPI PUSH2 0x725 PUSH2 0x350 JUMP JUMPDEST JUMPDEST PUSH1 0x0 DUP5 ADD MLOAD PUSH8 0xFFFFFFFFFFFFFFFF DUP2 GT ISZERO PUSH2 0x744 JUMPI PUSH2 0x743 PUSH2 0x355 JUMP JUMPDEST JUMPDEST PUSH2 0x750 DUP7 DUP3 DUP8 ADD PUSH2 0x6B5 JUMP JUMPDEST SWAP4 POP POP PUSH1 0x20 PUSH2 0x761 DUP7 DUP3 DUP8 ADD PUSH2 0x6E3 JUMP JUMPDEST SWAP3 POP POP PUSH1 0x40 PUSH2 0x772 DUP7 DUP3 DUP8 ADD PUSH2 0x6F8 JUMP JUMPDEST SWAP2 POP POP SWAP3 POP SWAP3 POP SWAP3 JUMP JUMPDEST PUSH1 0x0 DUP2 MLOAD SWAP1 POP SWAP2 SWAP1 POP JUMP JUMPDEST PUSH1 0x0 DUP2 SWAP1 POP SWAP3 SWAP2 POP POP JUMP JUMPDEST PUSH1 0x0 PUSH2 0x79D DUP3 PUSH2 0x77C JUMP JUMPDEST PUSH2 0x7A7 DUP2 DUP6 PUSH2 0x787 JUMP JUMPDEST SWAP4 POP PUSH2 0x7B7 DUP2 DUP6 PUSH1 0x20 DUP7 ADD PUSH2 0x44A JUMP JUMPDEST DUP1 DUP5 ADD SWAP2 POP POP SWAP3 SWAP2 POP POP JUMP JUMPDEST PUSH1 0x0 PUSH2 0x7CF DUP3 DUP5 PUSH2 0x792 JUMP JUMPDEST SWAP2 POP DUP2 SWAP1 POP SWAP3 SWAP2 POP POP JUMP JUMPDEST PUSH32 0x6F70730000000000000000000000000000000000000000000000000000000000 PUSH1 0x0 DUP3 ADD MSTORE POP JUMP JUMPDEST PUSH1 0x0 PUSH2 0x810 PUSH1 0x3 DUP4 PUSH2 0x439 JUMP JUMPDEST SWAP2 POP PUSH2 0x81B DUP3 PUSH2 0x7DA JUMP JUMPDEST PUSH1 0x20 DUP3 ADD SWAP1 POP SWAP2 SWAP1 POP JUMP JUMPDEST PUSH1 0x0 PUSH1 0x20 DUP3 ADD SWAP1 POP DUP2 DUP2 SUB PUSH1 0x0 DUP4 ADD MSTORE PUSH2 0x83F DUP2 PUSH2 0x803 JUMP JUMPDEST SWAP1 POP SWAP2 SWAP1 POP JUMP JUMPDEST PUSH1 0x0 PUSH2 0x851 DUP3 PUSH2 0x390 JUMP JUMPDEST SWAP1 POP SWAP2 SWAP1 POP JUMP JUMPDEST PUSH2 0x861 DUP2 PUSH2 0x846 JUMP JUMPDEST DUP2 EQ PUSH2 0x86C JUMPI PUSH1 0x0 DUP1 REVERT JUMPDEST POP JUMP JUMPDEST PUSH1 0x0 DUP2 MLOAD SWAP1 POP PUSH2 0x87E DUP2 PUSH2 0x858 JUMP JUMPDEST SWAP3 SWAP2 POP POP JUMP JUMPDEST PUSH1 0x0 DUP1 PUSH1 0x0 PUSH1 0x60 DUP5 DUP7 SUB SLT ISZERO PUSH2 0x89D JUMPI PUSH2 0x89C PUSH2 0x350 JUMP JUMPDEST JUMPDEST PUSH1 0x0 DUP5 ADD MLOAD PUSH8 0xFFFFFFFFFFFFFFFF DUP2 GT ISZERO PUSH2 0x8BB JUMPI PUSH2 0x8BA PUSH2 0x355 JUMP JUMPDEST JUMPDEST PUSH2 0x8C7 DUP7 DUP3 DUP8 ADD PUSH2 0x6B5 JUMP JUMPDEST SWAP4 POP POP PUSH1 0x20 PUSH2 0x8D8 DUP7 DUP3 DUP8 ADD PUSH2 0x6E3 JUMP JUMPDEST SWAP3 POP POP PUSH1 0x40 PUSH2 0x8E9 DUP7 DUP3 DUP8 ADD PUSH2 0x86F JUMP JUMPDEST SWAP2 POP POP SWAP3 POP SWAP3 POP SWAP3 JUMP INVALID LOG2 PUSH5 0x6970667358 0x22 SLT KECCAK256 SELFDESTRUCT PUSH21 0x5B81C283337D76197E86470FD9E8EBCA31F2A00976 LOG1 PUSH26 0x6676B2F9AE2B2C64736F6C634300081200330000000000000000 "
				},
				"gasEstimates": {
					"creation": {
						"codeDepositCost": "469000",
						"executionCost": "infinite",
						"totalCost": "infinite"
					},
					"external": {
						"call(uint256,address)": "infinite",
						"callWithLasers(uint256,address)": "infinite",
						"transfer()": "infinite"
					}
				},
				"methodIdentifiers": {
					"call(uint256,address)": "2d459bb8",
					"callWithLasers(uint256,address)": "e73afabf",
					"transfer()": "8a4068dd"
				}
			},
			"storageLayout": {
				"storage": [
					{
						"astId": 24,
						"contract": "abiEncodedCall.sol:ABICall",
						"label": "transfer",
						"offset": 0,
						"slot": "0",
						"type": "t_contract(Transfer)21"
					}
				],
				"types": {
					"t_contract(Transfer)21": {
						"encoding": "inplace",
						"label": "contract Transfer",
						"numberOfBytes": "20"
					}
				}
			},
			"userdoc": {
				"kind": "user",
				"methods": {},
				"version": 1
			}
		}
	}
}