{
	"data": {
		"bytecode": {
			"linkReferences": {},
			"object": "608060405234801561001057600080fd5b50610435806100206000396000f3fe6080604052600436106100295760003560e01c8063ad7526291461002e578063cdf70a571461004a575b600080fd5b610048600480360381019061004391906102ac565b610073565b005b34801561005657600080fd5b50610071600480360381019061006c91906102ac565b61018f565b005b8173ffffffffffffffffffffffffffffffffffffffff16634c111ff8826040518263ffffffff1660e01b81526004016100ac91906102fb565b600060405180830381600087803b1580156100c657600080fd5b505af11580156100da573d6000803e3d6000fd5b5050505060008273ffffffffffffffffffffffffffffffffffffffff16346040516101049061036d565b60006040518083038185875af1925050503d8060008114610141576040519150601f19603f3d011682016040523d82523d6000602084013e610146565b606091505b505090508061018a576040517f08c379a0000000000000000000000000000000000000000000000000000000008152600401610181906103df565b60405180910390fd5b505050565b8173ffffffffffffffffffffffffffffffffffffffff16634c111ff8826040518263ffffffff1660e01b81526004016101c891906102fb565b600060405180830381600087803b1580156101e257600080fd5b505af11580156101f6573d6000803e3d6000fd5b505050505050565b600080fd5b600073ffffffffffffffffffffffffffffffffffffffff82169050919050565b600061022e82610203565b9050919050565b600061024082610223565b9050919050565b61025081610235565b811461025b57600080fd5b50565b60008135905061026d81610247565b92915050565b600060ff82169050919050565b61028981610273565b811461029457600080fd5b50565b6000813590506102a681610280565b92915050565b600080604083850312156102c3576102c26101fe565b5b60006102d18582860161025e565b92505060206102e285828601610297565b9150509250929050565b6102f581610273565b82525050565b600060208201905061031060008301846102ec565b92915050565b600081905092915050565b7f6100000000000000000000000000000000000000000000000000000000000000600082015250565b6000610357600183610316565b915061036282610321565b600182019050919050565b60006103788261034a565b9150819050919050565b600082825260208201905092915050565b7f4f68206e6f000000000000000000000000000000000000000000000000000000600082015250565b60006103c9600583610382565b91506103d482610393565b602082019050919050565b600060208201905081810360008301526103f8816103bc565b905091905056fea2646970667358221220395ae5ebc65cf6ae3f22e50a79b27859b6e6d0924bef84517b7f69b9734e267764736f6c63430008120033",
			"opcodes": "PUSH1 0x80 PUSH1 0x40 MSTORE CALLVALUE DUP1 ISZERO PUSH2 0x10 JUMPI PUSH1 0x0 DUP1 REVERT JUMPDEST POP PUSH2 0x435 DUP1 PUSH2 0x20 PUSH1 0x0 CODECOPY PUSH1 0x0 RETURN INVALID PUSH1 0x80 PUSH1 0x40 MSTORE PUSH1 0x4 CALLDATASIZE LT PUSH2 0x29 JUMPI PUSH1 0x0 CALLDATALOAD PUSH1 0xE0 SHR DUP1 PUSH4 0xAD752629 EQ PUSH2 0x2E JUMPI DUP1 PUSH4 0xCDF70A57 EQ PUSH2 0x4A JUMPI JUMPDEST PUSH1 0x0 DUP1 REVERT JUMPDEST PUSH2 0x48 PUSH1 0x4 DUP1 CALLDATASIZE SUB DUP2 ADD SWAP1 PUSH2 0x43 SWAP2 SWAP1 PUSH2 0x2AC JUMP JUMPDEST PUSH2 0x73 JUMP JUMPDEST STOP JUMPDEST CALLVALUE DUP1 ISZERO PUSH2 0x56 JUMPI PUSH1 0x0 DUP1 REVERT JUMPDEST POP PUSH2 0x71 PUSH1 0x4 DUP1 CALLDATASIZE SUB DUP2 ADD SWAP1 PUSH2 0x6C SWAP2 SWAP1 PUSH2 0x2AC JUMP JUMPDEST PUSH2 0x18F JUMP JUMPDEST STOP JUMPDEST DUP2 PUSH20 0xFFFFFFFFFFFFFFFFFFFFFFFFFFFFFFFFFFFFFFFF AND PUSH4 0x4C111FF8 DUP3 PUSH1 0x40 MLOAD DUP3 PUSH4 0xFFFFFFFF AND PUSH1 0xE0 SHL DUP2 MSTORE PUSH1 0x4 ADD PUSH2 0xAC SWAP2 SWAP1 PUSH2 0x2FB JUMP JUMPDEST PUSH1 0x0 PUSH1 0x40 MLOAD DUP1 DUP4 SUB DUP2 PUSH1 0x0 DUP8 DUP1 EXTCODESIZE ISZERO DUP1 ISZERO PUSH2 0xC6 JUMPI PUSH1 0x0 DUP1 REVERT JUMPDEST POP GAS CALL ISZERO DUP1 ISZERO PUSH2 0xDA JUMPI RETURNDATASIZE PUSH1 0x0 DUP1 RETURNDATACOPY RETURNDATASIZE PUSH1 0x0 REVERT JUMPDEST POP POP POP POP PUSH1 0x0 DUP3 PUSH20 0xFFFFFFFFFFFFFFFFFFFFFFFFFFFFFFFFFFFFFFFF AND CALLVALUE PUSH1 0x40 MLOAD PUSH2 0x104 SWAP1 PUSH2 0x36D JUMP JUMPDEST PUSH1 0x0 PUSH1 0x40 MLOAD DUP1 DUP4 SUB DUP2 DUP6 DUP8 GAS CALL SWAP3 POP POP POP RETURNDATASIZE DUP1 PUSH1 0x0 DUP2 EQ PUSH2 0x141 JUMPI PUSH1 0x40 MLOAD SWAP2 POP PUSH1 0x1F NOT PUSH1 0x3F RETURNDATASIZE ADD AND DUP3 ADD PUSH1 0x40 MSTORE RETURNDATASIZE DUP3 MSTORE RETURNDATASIZE PUSH1 0x0 PUSH1 0x20 DUP5 ADD RETURNDATACOPY PUSH2 0x146 JUMP JUMPDEST PUSH1 0x60 SWAP2 POP JUMPDEST POP POP SWAP1 POP DUP1 PUSH2 0x18A JUMPI PUSH1 0x40 MLOAD PUSH32 0x8C379A000000000000000000000000000000000000000000000000000000000 DUP2 MSTORE PUSH1 0x4 ADD PUSH2 0x181 SWAP1 PUSH2 0x3DF JUMP JUMPDEST PUSH1 0x40 MLOAD DUP1 SWAP2 SUB SWAP1 REVERT JUMPDEST POP POP POP JUMP JUMPDEST DUP2 PUSH20 0xFFFFFFFFFFFFFFFFFFFFFFFFFFFFFFFFFFFFFFFF AND PUSH4 0x4C111FF8 DUP3 PUSH1 0x40 MLOAD DUP3 PUSH4 0xFFFFFFFF AND PUSH1 0xE0 SHL DUP2 MSTORE PUSH1 0x4 ADD PUSH2 0x1C8 SWAP2 SWAP1 PUSH2 0x2FB JUMP JUMPDEST PUSH1 0x0 PUSH1 0x40 MLOAD DUP1 DUP4 SUB DUP2 PUSH1 0x0 DUP8 DUP1 EXTCODESIZE ISZERO DUP1 ISZERO PUSH2 0x1E2 JUMPI PUSH1 0x0 DUP1 REVERT JUMPDEST POP GAS CALL ISZERO DUP1 ISZERO PUSH2 0x1F6 JUMPI RETURNDATASIZE PUSH1 0x0 DUP1 RETURNDATACOPY RETURNDATASIZE PUSH1 0x0 REVERT JUMPDEST POP POP POP POP POP POP JUMP JUMPDEST PUSH1 0x0 DUP1 REVERT JUMPDEST PUSH1 0x0 PUSH20 0xFFFFFFFFFFFFFFFFFFFFFFFFFFFFFFFFFFFFFFFF DUP3 AND SWAP1 POP SWAP2 SWAP1 POP JUMP JUMPDEST PUSH1 0x0 PUSH2 0x22E DUP3 PUSH2 0x203 JUMP JUMPDEST SWAP1 POP SWAP2 SWAP1 POP JUMP JUMPDEST PUSH1 0x0 PUSH2 0x240 DUP3 PUSH2 0x223 JUMP JUMPDEST SWAP1 POP SWAP2 SWAP1 POP JUMP JUMPDEST PUSH2 0x250 DUP2 PUSH2 0x235 JUMP JUMPDEST DUP2 EQ PUSH2 0x25B JUMPI PUSH1 0x0 DUP1 REVERT JUMPDEST POP JUMP JUMPDEST PUSH1 0x0 DUP2 CALLDATALOAD SWAP1 POP PUSH2 0x26D DUP2 PUSH2 0x247 JUMP JUMPDEST SWAP3 SWAP2 POP POP JUMP JUMPDEST PUSH1 0x0 PUSH1 0xFF DUP3 AND SWAP1 POP SWAP2 SWAP1 POP JUMP JUMPDEST PUSH2 0x289 DUP2 PUSH2 0x273 JUMP JUMPDEST DUP2 EQ PUSH2 0x294 JUMPI PUSH1 0x0 DUP1 REVERT JUMPDEST POP JUMP JUMPDEST PUSH1 0x0 DUP2 CALLDATALOAD SWAP1 POP PUSH2 0x2A6 DUP2 PUSH2 0x280 JUMP JUMPDEST SWAP3 SWAP2 POP POP JUMP JUMPDEST PUSH1 0x0 DUP1 PUSH1 0x40 DUP4 DUP6 SUB SLT ISZERO PUSH2 0x2C3 JUMPI PUSH2 0x2C2 PUSH2 0x1FE JUMP JUMPDEST JUMPDEST PUSH1 0x0 PUSH2 0x2D1 DUP6 DUP3 DUP7 ADD PUSH2 0x25E JUMP JUMPDEST SWAP3 POP POP PUSH1 0x20 PUSH2 0x2E2 DUP6 DUP3 DUP7 ADD PUSH2 0x297 JUMP JUMPDEST SWAP2 POP POP SWAP3 POP SWAP3 SWAP1 POP JUMP JUMPDEST PUSH2 0x2F5 DUP2 PUSH2 0x273 JUMP JUMPDEST DUP3 MSTORE POP POP JUMP JUMPDEST PUSH1 0x0 PUSH1 0x20 DUP3 ADD SWAP1 POP PUSH2 0x310 PUSH1 0x0 DUP4 ADD DUP5 PUSH2 0x2EC JUMP JUMPDEST SWAP3 SWAP2 POP POP JUMP JUMPDEST PUSH1 0x0 DUP2 SWAP1 POP SWAP3 SWAP2 POP POP JUMP JUMPDEST PUSH32 0x6100000000000000000000000000000000000000000000000000000000000000 PUSH1 0x0 DUP3 ADD MSTORE POP JUMP JUMPDEST PUSH1 0x0 PUSH2 0x357 PUSH1 0x1 DUP4 PUSH2 0x316 JUMP JUMPDEST SWAP2 POP PUSH2 0x362 DUP3 PUSH2 0x321 JUMP JUMPDEST PUSH1 0x1 DUP3 ADD SWAP1 POP SWAP2 SWAP1 POP JUMP JUMPDEST PUSH1 0x0 PUSH2 0x378 DUP3 PUSH2 0x34A JUMP JUMPDEST SWAP2 POP DUP2 SWAP1 POP SWAP2 SWAP1 POP JUMP JUMPDEST PUSH1 0x0 DUP3 DUP3 MSTORE PUSH1 0x20 DUP3 ADD SWAP1 POP SWAP3 SWAP2 POP POP JUMP JUMPDEST PUSH32 0x4F68206E6F000000000000000000000000000000000000000000000000000000 PUSH1 0x0 DUP3 ADD MSTORE POP JUMP JUMPDEST PUSH1 0x0 PUSH2 0x3C9 PUSH1 0x5 DUP4 PUSH2 0x382 JUMP JUMPDEST SWAP2 POP PUSH2 0x3D4 DUP3 PUSH2 0x393 JUMP JUMPDEST PUSH1 0x20 DUP3 ADD SWAP1 POP SWAP2 SWAP1 POP JUMP JUMPDEST PUSH1 0x0 PUSH1 0x20 DUP3 ADD SWAP1 POP DUP2 DUP2 SUB PUSH1 0x0 DUP4 ADD MSTORE PUSH2 0x3F8 DUP2 PUSH2 0x3BC JUMP JUMPDEST SWAP1 POP SWAP2 SWAP1 POP JUMP INVALID LOG2 PUSH5 0x6970667358 0x22 SLT KECCAK256 CODECOPY GAS 0xE5 0xEB 0xC6 0x5C 0xF6 0xAE EXTCODEHASH 0x22 0xE5 EXP PUSH26 0xB27859B6E6D0924BEF84517B7F69B9734E267764736F6C634300 ADDMOD SLT STOP CALLER "
		},
		"gasEstimates": {
			"creation": {
				"codeDepositCost": "215400",
				"executionCost": "257",
				"totalCost": "215657"
			},
			"external": {
				"payAndUpdateA(address,uint8)": "infinite",
				"upA(address,uint8)": "infinite"
			}
		},
		"methodIdentifiers": {
			"payAndUpdateA(address,uint8)": "ad752629",
			"upA(address,uint8)": "cdf70a57"
		}
	},
	"abi": [
		{
			"inputs": [
				{
					"internalType": "contract A",
					"name": "_a",
					"type": "address"
				},
				{
					"internalType": "uint8",
					"name": "_x",
					"type": "uint8"
				}
			],
			"name": "payAndUpdateA",
			"outputs": [],
			"stateMutability": "payable",
			"type": "function"
		},
		{
			"inputs": [
				{
					"internalType": "contract A",
					"name": "_a",
					"type": "address"
				},
				{
					"internalType": "uint8",
					"name": "_x",
					"type": "uint8"
				}
			],
			"name": "upA",
			"outputs": [],
			"stateMutability": "nonpayable",
			"type": "function"
		}
	]
}