{
	"data": {
		"bytecode": {
			"linkReferences": {},
			"object": "608060405234801561001057600080fd5b50611237806100206000396000f3fe6080604052600436106200002c5760003560e01c80635df2c86414620000315780635e8be1901462000051575b600080fd5b6200004f600480360381019062000049919062000534565b62000096565b005b3480156200005e57600080fd5b506200007d6004803603810190620000779190620005d5565b6200018a565b6040516200008d929190620006a1565b60405180910390f35b6706f05b59d3b200003414620000e3576040517f08c379a0000000000000000000000000000000000000000000000000000000008152600401620000da9062000725565b60405180910390fd5b60008183604051620000f5906200034b565b62000102929190620006a1565b604051809103906000f0801580156200011f573d6000803e3d6000fd5b5090506000819080600181540180825580915050600190039060005260206000200160009091909190916101000a81548173ffffffffffffffffffffffffffffffffffffffff021916908373ffffffffffffffffffffffffffffffffffffffff160217905550505050565b6060600080805490508310620001d7576040517f08c379a0000000000000000000000000000000000000000000000000000000008152600401620001ce9062000797565b60405180910390fd5b60008381548110620001ee57620001ed620007b9565b5b9060005260206000200160009054906101000a900473ffffffffffffffffffffffffffffffffffffffff1673ffffffffffffffffffffffffffffffffffffffff16630ad9d0526040518163ffffffff1660e01b8152600401600060405180830381865afa15801562000264573d6000803e3d6000fd5b505050506040513d6000823e3d601f19601f820116820180604052508101906200028f919062000866565b60008481548110620002a657620002a5620007b9565b5b9060005260206000200160009054906101000a900473ffffffffffffffffffffffffffffffffffffffff1673ffffffffffffffffffffffffffffffffffffffff16632e88ab0b6040518163ffffffff1660e01b8152600401602060405180830381865afa1580156200031c573d6000803e3d6000fd5b505050506040513d601f19601f82011682018060405250810190620003429190620008ce565b91509150915091565b610901806200090183390190565b6000604051905090565b600080fd5b600080fd5b600073ffffffffffffffffffffffffffffffffffffffff82169050919050565b60006200039a826200036d565b9050919050565b620003ac816200038d565b8114620003b857600080fd5b50565b600081359050620003cc81620003a1565b92915050565b600080fd5b600080fd5b6000601f19601f8301169050919050565b7f4e487b7100000000000000000000000000000000000000000000000000000000600052604160045260246000fd5b6200042782620003dc565b810181811067ffffffffffffffff82111715620004495762000448620003ed565b5b80604052505050565b60006200045e62000359565b90506200046c82826200041c565b919050565b600067ffffffffffffffff8211156200048f576200048e620003ed565b5b6200049a82620003dc565b9050602081019050919050565b82818337600083830152505050565b6000620004cd620004c78462000471565b62000452565b905082815260208101848484011115620004ec57620004eb620003d7565b5b620004f9848285620004a7565b509392505050565b600082601f830112620005195762000518620003d2565b5b81356200052b848260208601620004b6565b91505092915050565b600080604083850312156200054e576200054d62000363565b5b60006200055e85828601620003bb565b925050602083013567ffffffffffffffff81111562000582576200058162000368565b5b620005908582860162000501565b9150509250929050565b6000819050919050565b620005af816200059a565b8114620005bb57600080fd5b50565b600081359050620005cf81620005a4565b92915050565b600060208284031215620005ee57620005ed62000363565b5b6000620005fe84828501620005be565b91505092915050565b600081519050919050565b600082825260208201905092915050565b60005b838110156200064357808201518184015260208101905062000626565b60008484015250505050565b60006200065c8262000607565b62000668818562000612565b93506200067a81856020860162000623565b6200068581620003dc565b840191505092915050565b6200069b816200038d565b82525050565b60006040820190508181036000830152620006bd81856200064f565b9050620006ce602083018462000690565b9392505050565b7f5061792074686520657468657221000000000000000000000000000000000000600082015250565b60006200070d600e8362000612565b91506200071a82620006d5565b602082019050919050565b600060208201905081810360008301526200074081620006fe565b9050919050565b7f4f7574206f6620696e6465780000000000000000000000000000000000000000600082015250565b60006200077f600c8362000612565b91506200078c8262000747565b602082019050919050565b60006020820190508181036000830152620007b28162000770565b9050919050565b7f4e487b7100000000000000000000000000000000000000000000000000000000600052603260045260246000fd5b6000620007ff620007f98462000471565b62000452565b9050828152602081018484840111156200081e576200081d620003d7565b5b6200082b84828562000623565b509392505050565b600082601f8301126200084b576200084a620003d2565b5b81516200085d848260208601620007e8565b91505092915050565b6000602082840312156200087f576200087e62000363565b5b600082015167ffffffffffffffff811115620008a0576200089f62000368565b5b620008ae8482850162000833565b91505092915050565b600081519050620008c881620003a1565b92915050565b600060208284031215620008e757620008e662000363565b5b6000620008f784828501620008b7565b9150509291505056fe60806040523480156200001157600080fd5b50604051620009013803806200090183398181016040528101906200003791906200028a565b81600090816200004891906200053b565b5080600160006101000a81548173ffffffffffffffffffffffffffffffffffffffff021916908373ffffffffffffffffffffffffffffffffffffffff160217905550505062000622565b6000604051905090565b600080fd5b600080fd5b600080fd5b600080fd5b6000601f19601f8301169050919050565b7f4e487b7100000000000000000000000000000000000000000000000000000000600052604160045260246000fd5b620000fb82620000b0565b810181811067ffffffffffffffff821117156200011d576200011c620000c1565b5b80604052505050565b60006200013262000092565b9050620001408282620000f0565b919050565b600067ffffffffffffffff821115620001635762000162620000c1565b5b6200016e82620000b0565b9050602081019050919050565b60005b838110156200019b5780820151818401526020810190506200017e565b60008484015250505050565b6000620001be620001b88462000145565b62000126565b905082815260208101848484011115620001dd57620001dc620000ab565b5b620001ea8482856200017b565b509392505050565b600082601f8301126200020a5762000209620000a6565b5b81516200021c848260208601620001a7565b91505092915050565b600073ffffffffffffffffffffffffffffffffffffffff82169050919050565b6000620002528262000225565b9050919050565b620002648162000245565b81146200027057600080fd5b50565b600081519050620002848162000259565b92915050565b60008060408385031215620002a457620002a36200009c565b5b600083015167ffffffffffffffff811115620002c557620002c4620000a1565b5b620002d385828601620001f2565b9250506020620002e68582860162000273565b9150509250929050565b600081519050919050565b7f4e487b7100000000000000000000000000000000000000000000000000000000600052602260045260246000fd5b600060028204905060018216806200034357607f821691505b602082108103620003595762000358620002fb565b5b50919050565b60008190508160005260206000209050919050565b60006020601f8301049050919050565b600082821b905092915050565b600060088302620003c37fffffffffffffffffffffffffffffffffffffffffffffffffffffffffffffffff8262000384565b620003cf868362000384565b95508019841693508086168417925050509392505050565b6000819050919050565b6000819050919050565b60006200041c620004166200041084620003e7565b620003f1565b620003e7565b9050919050565b6000819050919050565b6200043883620003fb565b62000450620004478262000423565b84845462000391565b825550505050565b600090565b6200046762000458565b620004748184846200042d565b505050565b5b818110156200049c57620004906000826200045d565b6001810190506200047a565b5050565b601f821115620004eb57620004b5816200035f565b620004c08462000374565b81016020851015620004d0578190505b620004e8620004df8562000374565b83018262000479565b50505b505050565b600082821c905092915050565b60006200051060001984600802620004f0565b1980831691505092915050565b60006200052b8383620004fd565b9150826002028217905092915050565b6200054682620002f0565b67ffffffffffffffff811115620005625762000561620000c1565b5b6200056e82546200032a565b6200057b828285620004a0565b600060209050601f831160018114620005b357600084156200059e578287015190505b620005aa85826200051d565b8655506200061a565b601f198416620005c3866200035f565b60005b82811015620005ed57848901518255600182019150602085019450602081019050620005c6565b868310156200060d578489015162000609601f891682620004fd565b8355505b6001600288020188555050505b505050505050565b6102cf80620006326000396000f3fe608060405234801561001057600080fd5b50600436106100365760003560e01c80630ad9d0521461003b5780632e88ab0b14610059575b600080fd5b610043610077565b60405161005091906101bb565b60405180910390f35b610061610105565b60405161006e919061021e565b60405180910390f35b6000805461008490610268565b80601f01602080910402602001604051908101604052809291908181526020018280546100b090610268565b80156100fd5780601f106100d2576101008083540402835291602001916100fd565b820191906000526020600020905b8154815290600101906020018083116100e057829003601f168201915b505050505081565b600160009054906101000a900473ffffffffffffffffffffffffffffffffffffffff1681565b600081519050919050565b600082825260208201905092915050565b60005b8381101561016557808201518184015260208101905061014a565b60008484015250505050565b6000601f19601f8301169050919050565b600061018d8261012b565b6101978185610136565b93506101a7818560208601610147565b6101b081610171565b840191505092915050565b600060208201905081810360008301526101d58184610182565b905092915050565b600073ffffffffffffffffffffffffffffffffffffffff82169050919050565b6000610208826101dd565b9050919050565b610218816101fd565b82525050565b6000602082019050610233600083018461020f565b92915050565b7f4e487b7100000000000000000000000000000000000000000000000000000000600052602260045260246000fd5b6000600282049050600182168061028057607f821691505b60208210810361029357610292610239565b5b5091905056fea26469706673582212202b2e72ed741320e15bcd0026818a1af2650a7ce3f06efd37627a8f1609a8dd1b64736f6c63430008120033a2646970667358221220812fbb8b65b57af832a6ba1ac2a48dadfe917f24ffba74cb31eaefc67e13f4d564736f6c63430008120033",
			"opcodes": "PUSH1 0x80 PUSH1 0x40 MSTORE CALLVALUE DUP1 ISZERO PUSH2 0x10 JUMPI PUSH1 0x0 DUP1 REVERT JUMPDEST POP PUSH2 0x1237 DUP1 PUSH2 0x20 PUSH1 0x0 CODECOPY PUSH1 0x0 RETURN INVALID PUSH1 0x80 PUSH1 0x40 MSTORE PUSH1 0x4 CALLDATASIZE LT PUSH3 0x2C JUMPI PUSH1 0x0 CALLDATALOAD PUSH1 0xE0 SHR DUP1 PUSH4 0x5DF2C864 EQ PUSH3 0x31 JUMPI DUP1 PUSH4 0x5E8BE190 EQ PUSH3 0x51 JUMPI JUMPDEST PUSH1 0x0 DUP1 REVERT JUMPDEST PUSH3 0x4F PUSH1 0x4 DUP1 CALLDATASIZE SUB DUP2 ADD SWAP1 PUSH3 0x49 SWAP2 SWAP1 PUSH3 0x534 JUMP JUMPDEST PUSH3 0x96 JUMP JUMPDEST STOP JUMPDEST CALLVALUE DUP1 ISZERO PUSH3 0x5E JUMPI PUSH1 0x0 DUP1 REVERT JUMPDEST POP PUSH3 0x7D PUSH1 0x4 DUP1 CALLDATASIZE SUB DUP2 ADD SWAP1 PUSH3 0x77 SWAP2 SWAP1 PUSH3 0x5D5 JUMP JUMPDEST PUSH3 0x18A JUMP JUMPDEST PUSH1 0x40 MLOAD PUSH3 0x8D SWAP3 SWAP2 SWAP1 PUSH3 0x6A1 JUMP JUMPDEST PUSH1 0x40 MLOAD DUP1 SWAP2 SUB SWAP1 RETURN JUMPDEST PUSH8 0x6F05B59D3B20000 CALLVALUE EQ PUSH3 0xE3 JUMPI PUSH1 0x40 MLOAD PUSH32 0x8C379A000000000000000000000000000000000000000000000000000000000 DUP2 MSTORE PUSH1 0x4 ADD PUSH3 0xDA SWAP1 PUSH3 0x725 JUMP JUMPDEST PUSH1 0x40 MLOAD DUP1 SWAP2 SUB SWAP1 REVERT JUMPDEST PUSH1 0x0 DUP2 DUP4 PUSH1 0x40 MLOAD PUSH3 0xF5 SWAP1 PUSH3 0x34B JUMP JUMPDEST PUSH3 0x102 SWAP3 SWAP2 SWAP1 PUSH3 0x6A1 JUMP JUMPDEST PUSH1 0x40 MLOAD DUP1 SWAP2 SUB SWAP1 PUSH1 0x0 CREATE DUP1 ISZERO DUP1 ISZERO PUSH3 0x11F JUMPI RETURNDATASIZE PUSH1 0x0 DUP1 RETURNDATACOPY RETURNDATASIZE PUSH1 0x0 REVERT JUMPDEST POP SWAP1 POP PUSH1 0x0 DUP2 SWAP1 DUP1 PUSH1 0x1 DUP2 SLOAD ADD DUP1 DUP3 SSTORE DUP1 SWAP2 POP POP PUSH1 0x1 SWAP1 SUB SWAP1 PUSH1 0x0 MSTORE PUSH1 0x20 PUSH1 0x0 KECCAK256 ADD PUSH1 0x0 SWAP1 SWAP2 SWAP1 SWAP2 SWAP1 SWAP2 PUSH2 0x100 EXP DUP2 SLOAD DUP2 PUSH20 0xFFFFFFFFFFFFFFFFFFFFFFFFFFFFFFFFFFFFFFFF MUL NOT AND SWAP1 DUP4 PUSH20 0xFFFFFFFFFFFFFFFFFFFFFFFFFFFFFFFFFFFFFFFF AND MUL OR SWAP1 SSTORE POP POP POP POP JUMP JUMPDEST PUSH1 0x60 PUSH1 0x0 DUP1 DUP1 SLOAD SWAP1 POP DUP4 LT PUSH3 0x1D7 JUMPI PUSH1 0x40 MLOAD PUSH32 0x8C379A000000000000000000000000000000000000000000000000000000000 DUP2 MSTORE PUSH1 0x4 ADD PUSH3 0x1CE SWAP1 PUSH3 0x797 JUMP JUMPDEST PUSH1 0x40 MLOAD DUP1 SWAP2 SUB SWAP1 REVERT JUMPDEST PUSH1 0x0 DUP4 DUP2 SLOAD DUP2 LT PUSH3 0x1EE JUMPI PUSH3 0x1ED PUSH3 0x7B9 JUMP JUMPDEST JUMPDEST SWAP1 PUSH1 0x0 MSTORE PUSH1 0x20 PUSH1 0x0 KECCAK256 ADD PUSH1 0x0 SWAP1 SLOAD SWAP1 PUSH2 0x100 EXP SWAP1 DIV PUSH20 0xFFFFFFFFFFFFFFFFFFFFFFFFFFFFFFFFFFFFFFFF AND PUSH20 0xFFFFFFFFFFFFFFFFFFFFFFFFFFFFFFFFFFFFFFFF AND PUSH4 0xAD9D052 PUSH1 0x40 MLOAD DUP2 PUSH4 0xFFFFFFFF AND PUSH1 0xE0 SHL DUP2 MSTORE PUSH1 0x4 ADD PUSH1 0x0 PUSH1 0x40 MLOAD DUP1 DUP4 SUB DUP2 DUP7 GAS STATICCALL ISZERO DUP1 ISZERO PUSH3 0x264 JUMPI RETURNDATASIZE PUSH1 0x0 DUP1 RETURNDATACOPY RETURNDATASIZE PUSH1 0x0 REVERT JUMPDEST POP POP POP POP PUSH1 0x40 MLOAD RETURNDATASIZE PUSH1 0x0 DUP3 RETURNDATACOPY RETURNDATASIZE PUSH1 0x1F NOT PUSH1 0x1F DUP3 ADD AND DUP3 ADD DUP1 PUSH1 0x40 MSTORE POP DUP2 ADD SWAP1 PUSH3 0x28F SWAP2 SWAP1 PUSH3 0x866 JUMP JUMPDEST PUSH1 0x0 DUP5 DUP2 SLOAD DUP2 LT PUSH3 0x2A6 JUMPI PUSH3 0x2A5 PUSH3 0x7B9 JUMP JUMPDEST JUMPDEST SWAP1 PUSH1 0x0 MSTORE PUSH1 0x20 PUSH1 0x0 KECCAK256 ADD PUSH1 0x0 SWAP1 SLOAD SWAP1 PUSH2 0x100 EXP SWAP1 DIV PUSH20 0xFFFFFFFFFFFFFFFFFFFFFFFFFFFFFFFFFFFFFFFF AND PUSH20 0xFFFFFFFFFFFFFFFFFFFFFFFFFFFFFFFFFFFFFFFF AND PUSH4 0x2E88AB0B PUSH1 0x40 MLOAD DUP2 PUSH4 0xFFFFFFFF AND PUSH1 0xE0 SHL DUP2 MSTORE PUSH1 0x4 ADD PUSH1 0x20 PUSH1 0x40 MLOAD DUP1 DUP4 SUB DUP2 DUP7 GAS STATICCALL ISZERO DUP1 ISZERO PUSH3 0x31C JUMPI RETURNDATASIZE PUSH1 0x0 DUP1 RETURNDATACOPY RETURNDATASIZE PUSH1 0x0 REVERT JUMPDEST POP POP POP POP PUSH1 0x40 MLOAD RETURNDATASIZE PUSH1 0x1F NOT PUSH1 0x1F DUP3 ADD AND DUP3 ADD DUP1 PUSH1 0x40 MSTORE POP DUP2 ADD SWAP1 PUSH3 0x342 SWAP2 SWAP1 PUSH3 0x8CE JUMP JUMPDEST SWAP2 POP SWAP2 POP SWAP2 POP SWAP2 JUMP JUMPDEST PUSH2 0x901 DUP1 PUSH3 0x901 DUP4 CODECOPY ADD SWAP1 JUMP JUMPDEST PUSH1 0x0 PUSH1 0x40 MLOAD SWAP1 POP SWAP1 JUMP JUMPDEST PUSH1 0x0 DUP1 REVERT JUMPDEST PUSH1 0x0 DUP1 REVERT JUMPDEST PUSH1 0x0 PUSH20 0xFFFFFFFFFFFFFFFFFFFFFFFFFFFFFFFFFFFFFFFF DUP3 AND SWAP1 POP SWAP2 SWAP1 POP JUMP JUMPDEST PUSH1 0x0 PUSH3 0x39A DUP3 PUSH3 0x36D JUMP JUMPDEST SWAP1 POP SWAP2 SWAP1 POP JUMP JUMPDEST PUSH3 0x3AC DUP2 PUSH3 0x38D JUMP JUMPDEST DUP2 EQ PUSH3 0x3B8 JUMPI PUSH1 0x0 DUP1 REVERT JUMPDEST POP JUMP JUMPDEST PUSH1 0x0 DUP2 CALLDATALOAD SWAP1 POP PUSH3 0x3CC DUP2 PUSH3 0x3A1 JUMP JUMPDEST SWAP3 SWAP2 POP POP JUMP JUMPDEST PUSH1 0x0 DUP1 REVERT JUMPDEST PUSH1 0x0 DUP1 REVERT JUMPDEST PUSH1 0x0 PUSH1 0x1F NOT PUSH1 0x1F DUP4 ADD AND SWAP1 POP SWAP2 SWAP1 POP JUMP JUMPDEST PUSH32 0x4E487B7100000000000000000000000000000000000000000000000000000000 PUSH1 0x0 MSTORE PUSH1 0x41 PUSH1 0x4 MSTORE PUSH1 0x24 PUSH1 0x0 REVERT JUMPDEST PUSH3 0x427 DUP3 PUSH3 0x3DC JUMP JUMPDEST DUP2 ADD DUP2 DUP2 LT PUSH8 0xFFFFFFFFFFFFFFFF DUP3 GT OR ISZERO PUSH3 0x449 JUMPI PUSH3 0x448 PUSH3 0x3ED JUMP JUMPDEST JUMPDEST DUP1 PUSH1 0x40 MSTORE POP POP POP JUMP JUMPDEST PUSH1 0x0 PUSH3 0x45E PUSH3 0x359 JUMP JUMPDEST SWAP1 POP PUSH3 0x46C DUP3 DUP3 PUSH3 0x41C JUMP JUMPDEST SWAP2 SWAP1 POP JUMP JUMPDEST PUSH1 0x0 PUSH8 0xFFFFFFFFFFFFFFFF DUP3 GT ISZERO PUSH3 0x48F JUMPI PUSH3 0x48E PUSH3 0x3ED JUMP JUMPDEST JUMPDEST PUSH3 0x49A DUP3 PUSH3 0x3DC JUMP JUMPDEST SWAP1 POP PUSH1 0x20 DUP2 ADD SWAP1 POP SWAP2 SWAP1 POP JUMP JUMPDEST DUP3 DUP2 DUP4 CALLDATACOPY PUSH1 0x0 DUP4 DUP4 ADD MSTORE POP POP POP JUMP JUMPDEST PUSH1 0x0 PUSH3 0x4CD PUSH3 0x4C7 DUP5 PUSH3 0x471 JUMP JUMPDEST PUSH3 0x452 JUMP JUMPDEST SWAP1 POP DUP3 DUP2 MSTORE PUSH1 0x20 DUP2 ADD DUP5 DUP5 DUP5 ADD GT ISZERO PUSH3 0x4EC JUMPI PUSH3 0x4EB PUSH3 0x3D7 JUMP JUMPDEST JUMPDEST PUSH3 0x4F9 DUP5 DUP3 DUP6 PUSH3 0x4A7 JUMP JUMPDEST POP SWAP4 SWAP3 POP POP POP JUMP JUMPDEST PUSH1 0x0 DUP3 PUSH1 0x1F DUP4 ADD SLT PUSH3 0x519 JUMPI PUSH3 0x518 PUSH3 0x3D2 JUMP JUMPDEST JUMPDEST DUP2 CALLDATALOAD PUSH3 0x52B DUP5 DUP3 PUSH1 0x20 DUP7 ADD PUSH3 0x4B6 JUMP JUMPDEST SWAP2 POP POP SWAP3 SWAP2 POP POP JUMP JUMPDEST PUSH1 0x0 DUP1 PUSH1 0x40 DUP4 DUP6 SUB SLT ISZERO PUSH3 0x54E JUMPI PUSH3 0x54D PUSH3 0x363 JUMP JUMPDEST JUMPDEST PUSH1 0x0 PUSH3 0x55E DUP6 DUP3 DUP7 ADD PUSH3 0x3BB JUMP JUMPDEST SWAP3 POP POP PUSH1 0x20 DUP4 ADD CALLDATALOAD PUSH8 0xFFFFFFFFFFFFFFFF DUP2 GT ISZERO PUSH3 0x582 JUMPI PUSH3 0x581 PUSH3 0x368 JUMP JUMPDEST JUMPDEST PUSH3 0x590 DUP6 DUP3 DUP7 ADD PUSH3 0x501 JUMP JUMPDEST SWAP2 POP POP SWAP3 POP SWAP3 SWAP1 POP JUMP JUMPDEST PUSH1 0x0 DUP2 SWAP1 POP SWAP2 SWAP1 POP JUMP JUMPDEST PUSH3 0x5AF DUP2 PUSH3 0x59A JUMP JUMPDEST DUP2 EQ PUSH3 0x5BB JUMPI PUSH1 0x0 DUP1 REVERT JUMPDEST POP JUMP JUMPDEST PUSH1 0x0 DUP2 CALLDATALOAD SWAP1 POP PUSH3 0x5CF DUP2 PUSH3 0x5A4 JUMP JUMPDEST SWAP3 SWAP2 POP POP JUMP JUMPDEST PUSH1 0x0 PUSH1 0x20 DUP3 DUP5 SUB SLT ISZERO PUSH3 0x5EE JUMPI PUSH3 0x5ED PUSH3 0x363 JUMP JUMPDEST JUMPDEST PUSH1 0x0 PUSH3 0x5FE DUP5 DUP3 DUP6 ADD PUSH3 0x5BE JUMP JUMPDEST SWAP2 POP POP SWAP3 SWAP2 POP POP JUMP JUMPDEST PUSH1 0x0 DUP2 MLOAD SWAP1 POP SWAP2 SWAP1 POP JUMP JUMPDEST PUSH1 0x0 DUP3 DUP3 MSTORE PUSH1 0x20 DUP3 ADD SWAP1 POP SWAP3 SWAP2 POP POP JUMP JUMPDEST PUSH1 0x0 JUMPDEST DUP4 DUP2 LT ISZERO PUSH3 0x643 JUMPI DUP1 DUP3 ADD MLOAD DUP2 DUP5 ADD MSTORE PUSH1 0x20 DUP2 ADD SWAP1 POP PUSH3 0x626 JUMP JUMPDEST PUSH1 0x0 DUP5 DUP5 ADD MSTORE POP POP POP POP JUMP JUMPDEST PUSH1 0x0 PUSH3 0x65C DUP3 PUSH3 0x607 JUMP JUMPDEST PUSH3 0x668 DUP2 DUP6 PUSH3 0x612 JUMP JUMPDEST SWAP4 POP PUSH3 0x67A DUP2 DUP6 PUSH1 0x20 DUP7 ADD PUSH3 0x623 JUMP JUMPDEST PUSH3 0x685 DUP2 PUSH3 0x3DC JUMP JUMPDEST DUP5 ADD SWAP2 POP POP SWAP3 SWAP2 POP POP JUMP JUMPDEST PUSH3 0x69B DUP2 PUSH3 0x38D JUMP JUMPDEST DUP3 MSTORE POP POP JUMP JUMPDEST PUSH1 0x0 PUSH1 0x40 DUP3 ADD SWAP1 POP DUP2 DUP2 SUB PUSH1 0x0 DUP4 ADD MSTORE PUSH3 0x6BD DUP2 DUP6 PUSH3 0x64F JUMP JUMPDEST SWAP1 POP PUSH3 0x6CE PUSH1 0x20 DUP4 ADD DUP5 PUSH3 0x690 JUMP JUMPDEST SWAP4 SWAP3 POP POP POP JUMP JUMPDEST PUSH32 0x5061792074686520657468657221000000000000000000000000000000000000 PUSH1 0x0 DUP3 ADD MSTORE POP JUMP JUMPDEST PUSH1 0x0 PUSH3 0x70D PUSH1 0xE DUP4 PUSH3 0x612 JUMP JUMPDEST SWAP2 POP PUSH3 0x71A DUP3 PUSH3 0x6D5 JUMP JUMPDEST PUSH1 0x20 DUP3 ADD SWAP1 POP SWAP2 SWAP1 POP JUMP JUMPDEST PUSH1 0x0 PUSH1 0x20 DUP3 ADD SWAP1 POP DUP2 DUP2 SUB PUSH1 0x0 DUP4 ADD MSTORE PUSH3 0x740 DUP2 PUSH3 0x6FE JUMP JUMPDEST SWAP1 POP SWAP2 SWAP1 POP JUMP JUMPDEST PUSH32 0x4F7574206F6620696E6465780000000000000000000000000000000000000000 PUSH1 0x0 DUP3 ADD MSTORE POP JUMP JUMPDEST PUSH1 0x0 PUSH3 0x77F PUSH1 0xC DUP4 PUSH3 0x612 JUMP JUMPDEST SWAP2 POP PUSH3 0x78C DUP3 PUSH3 0x747 JUMP JUMPDEST PUSH1 0x20 DUP3 ADD SWAP1 POP SWAP2 SWAP1 POP JUMP JUMPDEST PUSH1 0x0 PUSH1 0x20 DUP3 ADD SWAP1 POP DUP2 DUP2 SUB PUSH1 0x0 DUP4 ADD MSTORE PUSH3 0x7B2 DUP2 PUSH3 0x770 JUMP JUMPDEST SWAP1 POP SWAP2 SWAP1 POP JUMP JUMPDEST PUSH32 0x4E487B7100000000000000000000000000000000000000000000000000000000 PUSH1 0x0 MSTORE PUSH1 0x32 PUSH1 0x4 MSTORE PUSH1 0x24 PUSH1 0x0 REVERT JUMPDEST PUSH1 0x0 PUSH3 0x7FF PUSH3 0x7F9 DUP5 PUSH3 0x471 JUMP JUMPDEST PUSH3 0x452 JUMP JUMPDEST SWAP1 POP DUP3 DUP2 MSTORE PUSH1 0x20 DUP2 ADD DUP5 DUP5 DUP5 ADD GT ISZERO PUSH3 0x81E JUMPI PUSH3 0x81D PUSH3 0x3D7 JUMP JUMPDEST JUMPDEST PUSH3 0x82B DUP5 DUP3 DUP6 PUSH3 0x623 JUMP JUMPDEST POP SWAP4 SWAP3 POP POP POP JUMP JUMPDEST PUSH1 0x0 DUP3 PUSH1 0x1F DUP4 ADD SLT PUSH3 0x84B JUMPI PUSH3 0x84A PUSH3 0x3D2 JUMP JUMPDEST JUMPDEST DUP2 MLOAD PUSH3 0x85D DUP5 DUP3 PUSH1 0x20 DUP7 ADD PUSH3 0x7E8 JUMP JUMPDEST SWAP2 POP POP SWAP3 SWAP2 POP POP JUMP JUMPDEST PUSH1 0x0 PUSH1 0x20 DUP3 DUP5 SUB SLT ISZERO PUSH3 0x87F JUMPI PUSH3 0x87E PUSH3 0x363 JUMP JUMPDEST JUMPDEST PUSH1 0x0 DUP3 ADD MLOAD PUSH8 0xFFFFFFFFFFFFFFFF DUP2 GT ISZERO PUSH3 0x8A0 JUMPI PUSH3 0x89F PUSH3 0x368 JUMP JUMPDEST JUMPDEST PUSH3 0x8AE DUP5 DUP3 DUP6 ADD PUSH3 0x833 JUMP JUMPDEST SWAP2 POP POP SWAP3 SWAP2 POP POP JUMP JUMPDEST PUSH1 0x0 DUP2 MLOAD SWAP1 POP PUSH3 0x8C8 DUP2 PUSH3 0x3A1 JUMP JUMPDEST SWAP3 SWAP2 POP POP JUMP JUMPDEST PUSH1 0x0 PUSH1 0x20 DUP3 DUP5 SUB SLT ISZERO PUSH3 0x8E7 JUMPI PUSH3 0x8E6 PUSH3 0x363 JUMP JUMPDEST JUMPDEST PUSH1 0x0 PUSH3 0x8F7 DUP5 DUP3 DUP6 ADD PUSH3 0x8B7 JUMP JUMPDEST SWAP2 POP POP SWAP3 SWAP2 POP POP JUMP INVALID PUSH1 0x80 PUSH1 0x40 MSTORE CALLVALUE DUP1 ISZERO PUSH3 0x11 JUMPI PUSH1 0x0 DUP1 REVERT JUMPDEST POP PUSH1 0x40 MLOAD PUSH3 0x901 CODESIZE SUB DUP1 PUSH3 0x901 DUP4 CODECOPY DUP2 DUP2 ADD PUSH1 0x40 MSTORE DUP2 ADD SWAP1 PUSH3 0x37 SWAP2 SWAP1 PUSH3 0x28A JUMP JUMPDEST DUP2 PUSH1 0x0 SWAP1 DUP2 PUSH3 0x48 SWAP2 SWAP1 PUSH3 0x53B JUMP JUMPDEST POP DUP1 PUSH1 0x1 PUSH1 0x0 PUSH2 0x100 EXP DUP2 SLOAD DUP2 PUSH20 0xFFFFFFFFFFFFFFFFFFFFFFFFFFFFFFFFFFFFFFFF MUL NOT AND SWAP1 DUP4 PUSH20 0xFFFFFFFFFFFFFFFFFFFFFFFFFFFFFFFFFFFFFFFF AND MUL OR SWAP1 SSTORE POP POP POP PUSH3 0x622 JUMP JUMPDEST PUSH1 0x0 PUSH1 0x40 MLOAD SWAP1 POP SWAP1 JUMP JUMPDEST PUSH1 0x0 DUP1 REVERT JUMPDEST PUSH1 0x0 DUP1 REVERT JUMPDEST PUSH1 0x0 DUP1 REVERT JUMPDEST PUSH1 0x0 DUP1 REVERT JUMPDEST PUSH1 0x0 PUSH1 0x1F NOT PUSH1 0x1F DUP4 ADD AND SWAP1 POP SWAP2 SWAP1 POP JUMP JUMPDEST PUSH32 0x4E487B7100000000000000000000000000000000000000000000000000000000 PUSH1 0x0 MSTORE PUSH1 0x41 PUSH1 0x4 MSTORE PUSH1 0x24 PUSH1 0x0 REVERT JUMPDEST PUSH3 0xFB DUP3 PUSH3 0xB0 JUMP JUMPDEST DUP2 ADD DUP2 DUP2 LT PUSH8 0xFFFFFFFFFFFFFFFF DUP3 GT OR ISZERO PUSH3 0x11D JUMPI PUSH3 0x11C PUSH3 0xC1 JUMP JUMPDEST JUMPDEST DUP1 PUSH1 0x40 MSTORE POP POP POP JUMP JUMPDEST PUSH1 0x0 PUSH3 0x132 PUSH3 0x92 JUMP JUMPDEST SWAP1 POP PUSH3 0x140 DUP3 DUP3 PUSH3 0xF0 JUMP JUMPDEST SWAP2 SWAP1 POP JUMP JUMPDEST PUSH1 0x0 PUSH8 0xFFFFFFFFFFFFFFFF DUP3 GT ISZERO PUSH3 0x163 JUMPI PUSH3 0x162 PUSH3 0xC1 JUMP JUMPDEST JUMPDEST PUSH3 0x16E DUP3 PUSH3 0xB0 JUMP JUMPDEST SWAP1 POP PUSH1 0x20 DUP2 ADD SWAP1 POP SWAP2 SWAP1 POP JUMP JUMPDEST PUSH1 0x0 JUMPDEST DUP4 DUP2 LT ISZERO PUSH3 0x19B JUMPI DUP1 DUP3 ADD MLOAD DUP2 DUP5 ADD MSTORE PUSH1 0x20 DUP2 ADD SWAP1 POP PUSH3 0x17E JUMP JUMPDEST PUSH1 0x0 DUP5 DUP5 ADD MSTORE POP POP POP POP JUMP JUMPDEST PUSH1 0x0 PUSH3 0x1BE PUSH3 0x1B8 DUP5 PUSH3 0x145 JUMP JUMPDEST PUSH3 0x126 JUMP JUMPDEST SWAP1 POP DUP3 DUP2 MSTORE PUSH1 0x20 DUP2 ADD DUP5 DUP5 DUP5 ADD GT ISZERO PUSH3 0x1DD JUMPI PUSH3 0x1DC PUSH3 0xAB JUMP JUMPDEST JUMPDEST PUSH3 0x1EA DUP5 DUP3 DUP6 PUSH3 0x17B JUMP JUMPDEST POP SWAP4 SWAP3 POP POP POP JUMP JUMPDEST PUSH1 0x0 DUP3 PUSH1 0x1F DUP4 ADD SLT PUSH3 0x20A JUMPI PUSH3 0x209 PUSH3 0xA6 JUMP JUMPDEST JUMPDEST DUP2 MLOAD PUSH3 0x21C DUP5 DUP3 PUSH1 0x20 DUP7 ADD PUSH3 0x1A7 JUMP JUMPDEST SWAP2 POP POP SWAP3 SWAP2 POP POP JUMP JUMPDEST PUSH1 0x0 PUSH20 0xFFFFFFFFFFFFFFFFFFFFFFFFFFFFFFFFFFFFFFFF DUP3 AND SWAP1 POP SWAP2 SWAP1 POP JUMP JUMPDEST PUSH1 0x0 PUSH3 0x252 DUP3 PUSH3 0x225 JUMP JUMPDEST SWAP1 POP SWAP2 SWAP1 POP JUMP JUMPDEST PUSH3 0x264 DUP2 PUSH3 0x245 JUMP JUMPDEST DUP2 EQ PUSH3 0x270 JUMPI PUSH1 0x0 DUP1 REVERT JUMPDEST POP JUMP JUMPDEST PUSH1 0x0 DUP2 MLOAD SWAP1 POP PUSH3 0x284 DUP2 PUSH3 0x259 JUMP JUMPDEST SWAP3 SWAP2 POP POP JUMP JUMPDEST PUSH1 0x0 DUP1 PUSH1 0x40 DUP4 DUP6 SUB SLT ISZERO PUSH3 0x2A4 JUMPI PUSH3 0x2A3 PUSH3 0x9C JUMP JUMPDEST JUMPDEST PUSH1 0x0 DUP4 ADD MLOAD PUSH8 0xFFFFFFFFFFFFFFFF DUP2 GT ISZERO PUSH3 0x2C5 JUMPI PUSH3 0x2C4 PUSH3 0xA1 JUMP JUMPDEST JUMPDEST PUSH3 0x2D3 DUP6 DUP3 DUP7 ADD PUSH3 0x1F2 JUMP JUMPDEST SWAP3 POP POP PUSH1 0x20 PUSH3 0x2E6 DUP6 DUP3 DUP7 ADD PUSH3 0x273 JUMP JUMPDEST SWAP2 POP POP SWAP3 POP SWAP3 SWAP1 POP JUMP JUMPDEST PUSH1 0x0 DUP2 MLOAD SWAP1 POP SWAP2 SWAP1 POP JUMP JUMPDEST PUSH32 0x4E487B7100000000000000000000000000000000000000000000000000000000 PUSH1 0x0 MSTORE PUSH1 0x22 PUSH1 0x4 MSTORE PUSH1 0x24 PUSH1 0x0 REVERT JUMPDEST PUSH1 0x0 PUSH1 0x2 DUP3 DIV SWAP1 POP PUSH1 0x1 DUP3 AND DUP1 PUSH3 0x343 JUMPI PUSH1 0x7F DUP3 AND SWAP2 POP JUMPDEST PUSH1 0x20 DUP3 LT DUP2 SUB PUSH3 0x359 JUMPI PUSH3 0x358 PUSH3 0x2FB JUMP JUMPDEST JUMPDEST POP SWAP2 SWAP1 POP JUMP JUMPDEST PUSH1 0x0 DUP2 SWAP1 POP DUP2 PUSH1 0x0 MSTORE PUSH1 0x20 PUSH1 0x0 KECCAK256 SWAP1 POP SWAP2 SWAP1 POP JUMP JUMPDEST PUSH1 0x0 PUSH1 0x20 PUSH1 0x1F DUP4 ADD DIV SWAP1 POP SWAP2 SWAP1 POP JUMP JUMPDEST PUSH1 0x0 DUP3 DUP3 SHL SWAP1 POP SWAP3 SWAP2 POP POP JUMP JUMPDEST PUSH1 0x0 PUSH1 0x8 DUP4 MUL PUSH3 0x3C3 PUSH32 0xFFFFFFFFFFFFFFFFFFFFFFFFFFFFFFFFFFFFFFFFFFFFFFFFFFFFFFFFFFFFFFFF DUP3 PUSH3 0x384 JUMP JUMPDEST PUSH3 0x3CF DUP7 DUP4 PUSH3 0x384 JUMP JUMPDEST SWAP6 POP DUP1 NOT DUP5 AND SWAP4 POP DUP1 DUP7 AND DUP5 OR SWAP3 POP POP POP SWAP4 SWAP3 POP POP POP JUMP JUMPDEST PUSH1 0x0 DUP2 SWAP1 POP SWAP2 SWAP1 POP JUMP JUMPDEST PUSH1 0x0 DUP2 SWAP1 POP SWAP2 SWAP1 POP JUMP JUMPDEST PUSH1 0x0 PUSH3 0x41C PUSH3 0x416 PUSH3 0x410 DUP5 PUSH3 0x3E7 JUMP JUMPDEST PUSH3 0x3F1 JUMP JUMPDEST PUSH3 0x3E7 JUMP JUMPDEST SWAP1 POP SWAP2 SWAP1 POP JUMP JUMPDEST PUSH1 0x0 DUP2 SWAP1 POP SWAP2 SWAP1 POP JUMP JUMPDEST PUSH3 0x438 DUP4 PUSH3 0x3FB JUMP JUMPDEST PUSH3 0x450 PUSH3 0x447 DUP3 PUSH3 0x423 JUMP JUMPDEST DUP5 DUP5 SLOAD PUSH3 0x391 JUMP JUMPDEST DUP3 SSTORE POP POP POP POP JUMP JUMPDEST PUSH1 0x0 SWAP1 JUMP JUMPDEST PUSH3 0x467 PUSH3 0x458 JUMP JUMPDEST PUSH3 0x474 DUP2 DUP5 DUP5 PUSH3 0x42D JUMP JUMPDEST POP POP POP JUMP JUMPDEST JUMPDEST DUP2 DUP2 LT ISZERO PUSH3 0x49C JUMPI PUSH3 0x490 PUSH1 0x0 DUP3 PUSH3 0x45D JUMP JUMPDEST PUSH1 0x1 DUP2 ADD SWAP1 POP PUSH3 0x47A JUMP JUMPDEST POP POP JUMP JUMPDEST PUSH1 0x1F DUP3 GT ISZERO PUSH3 0x4EB JUMPI PUSH3 0x4B5 DUP2 PUSH3 0x35F JUMP JUMPDEST PUSH3 0x4C0 DUP5 PUSH3 0x374 JUMP JUMPDEST DUP2 ADD PUSH1 0x20 DUP6 LT ISZERO PUSH3 0x4D0 JUMPI DUP2 SWAP1 POP JUMPDEST PUSH3 0x4E8 PUSH3 0x4DF DUP6 PUSH3 0x374 JUMP JUMPDEST DUP4 ADD DUP3 PUSH3 0x479 JUMP JUMPDEST POP POP JUMPDEST POP POP POP JUMP JUMPDEST PUSH1 0x0 DUP3 DUP3 SHR SWAP1 POP SWAP3 SWAP2 POP POP JUMP JUMPDEST PUSH1 0x0 PUSH3 0x510 PUSH1 0x0 NOT DUP5 PUSH1 0x8 MUL PUSH3 0x4F0 JUMP JUMPDEST NOT DUP1 DUP4 AND SWAP2 POP POP SWAP3 SWAP2 POP POP JUMP JUMPDEST PUSH1 0x0 PUSH3 0x52B DUP4 DUP4 PUSH3 0x4FD JUMP JUMPDEST SWAP2 POP DUP3 PUSH1 0x2 MUL DUP3 OR SWAP1 POP SWAP3 SWAP2 POP POP JUMP JUMPDEST PUSH3 0x546 DUP3 PUSH3 0x2F0 JUMP JUMPDEST PUSH8 0xFFFFFFFFFFFFFFFF DUP2 GT ISZERO PUSH3 0x562 JUMPI PUSH3 0x561 PUSH3 0xC1 JUMP JUMPDEST JUMPDEST PUSH3 0x56E DUP3 SLOAD PUSH3 0x32A JUMP JUMPDEST PUSH3 0x57B DUP3 DUP3 DUP6 PUSH3 0x4A0 JUMP JUMPDEST PUSH1 0x0 PUSH1 0x20 SWAP1 POP PUSH1 0x1F DUP4 GT PUSH1 0x1 DUP2 EQ PUSH3 0x5B3 JUMPI PUSH1 0x0 DUP5 ISZERO PUSH3 0x59E JUMPI DUP3 DUP8 ADD MLOAD SWAP1 POP JUMPDEST PUSH3 0x5AA DUP6 DUP3 PUSH3 0x51D JUMP JUMPDEST DUP7 SSTORE POP PUSH3 0x61A JUMP JUMPDEST PUSH1 0x1F NOT DUP5 AND PUSH3 0x5C3 DUP7 PUSH3 0x35F JUMP JUMPDEST PUSH1 0x0 JUMPDEST DUP3 DUP2 LT ISZERO PUSH3 0x5ED JUMPI DUP5 DUP10 ADD MLOAD DUP3 SSTORE PUSH1 0x1 DUP3 ADD SWAP2 POP PUSH1 0x20 DUP6 ADD SWAP5 POP PUSH1 0x20 DUP2 ADD SWAP1 POP PUSH3 0x5C6 JUMP JUMPDEST DUP7 DUP4 LT ISZERO PUSH3 0x60D JUMPI DUP5 DUP10 ADD MLOAD PUSH3 0x609 PUSH1 0x1F DUP10 AND DUP3 PUSH3 0x4FD JUMP JUMPDEST DUP4 SSTORE POP JUMPDEST PUSH1 0x1 PUSH1 0x2 DUP9 MUL ADD DUP9 SSTORE POP POP POP JUMPDEST POP POP POP POP POP POP JUMP JUMPDEST PUSH2 0x2CF DUP1 PUSH3 0x632 PUSH1 0x0 CODECOPY PUSH1 0x0 RETURN INVALID PUSH1 0x80 PUSH1 0x40 MSTORE CALLVALUE DUP1 ISZERO PUSH2 0x10 JUMPI PUSH1 0x0 DUP1 REVERT JUMPDEST POP PUSH1 0x4 CALLDATASIZE LT PUSH2 0x36 JUMPI PUSH1 0x0 CALLDATALOAD PUSH1 0xE0 SHR DUP1 PUSH4 0xAD9D052 EQ PUSH2 0x3B JUMPI DUP1 PUSH4 0x2E88AB0B EQ PUSH2 0x59 JUMPI JUMPDEST PUSH1 0x0 DUP1 REVERT JUMPDEST PUSH2 0x43 PUSH2 0x77 JUMP JUMPDEST PUSH1 0x40 MLOAD PUSH2 0x50 SWAP2 SWAP1 PUSH2 0x1BB JUMP JUMPDEST PUSH1 0x40 MLOAD DUP1 SWAP2 SUB SWAP1 RETURN JUMPDEST PUSH2 0x61 PUSH2 0x105 JUMP JUMPDEST PUSH1 0x40 MLOAD PUSH2 0x6E SWAP2 SWAP1 PUSH2 0x21E JUMP JUMPDEST PUSH1 0x40 MLOAD DUP1 SWAP2 SUB SWAP1 RETURN JUMPDEST PUSH1 0x0 DUP1 SLOAD PUSH2 0x84 SWAP1 PUSH2 0x268 JUMP JUMPDEST DUP1 PUSH1 0x1F ADD PUSH1 0x20 DUP1 SWAP2 DIV MUL PUSH1 0x20 ADD PUSH1 0x40 MLOAD SWAP1 DUP2 ADD PUSH1 0x40 MSTORE DUP1 SWAP3 SWAP2 SWAP1 DUP2 DUP2 MSTORE PUSH1 0x20 ADD DUP3 DUP1 SLOAD PUSH2 0xB0 SWAP1 PUSH2 0x268 JUMP JUMPDEST DUP1 ISZERO PUSH2 0xFD JUMPI DUP1 PUSH1 0x1F LT PUSH2 0xD2 JUMPI PUSH2 0x100 DUP1 DUP4 SLOAD DIV MUL DUP4 MSTORE SWAP2 PUSH1 0x20 ADD SWAP2 PUSH2 0xFD JUMP JUMPDEST DUP3 ADD SWAP2 SWAP1 PUSH1 0x0 MSTORE PUSH1 0x20 PUSH1 0x0 KECCAK256 SWAP1 JUMPDEST DUP2 SLOAD DUP2 MSTORE SWAP1 PUSH1 0x1 ADD SWAP1 PUSH1 0x20 ADD DUP1 DUP4 GT PUSH2 0xE0 JUMPI DUP3 SWAP1 SUB PUSH1 0x1F AND DUP3 ADD SWAP2 JUMPDEST POP POP POP POP POP DUP2 JUMP JUMPDEST PUSH1 0x1 PUSH1 0x0 SWAP1 SLOAD SWAP1 PUSH2 0x100 EXP SWAP1 DIV PUSH20 0xFFFFFFFFFFFFFFFFFFFFFFFFFFFFFFFFFFFFFFFF AND DUP2 JUMP JUMPDEST PUSH1 0x0 DUP2 MLOAD SWAP1 POP SWAP2 SWAP1 POP JUMP JUMPDEST PUSH1 0x0 DUP3 DUP3 MSTORE PUSH1 0x20 DUP3 ADD SWAP1 POP SWAP3 SWAP2 POP POP JUMP JUMPDEST PUSH1 0x0 JUMPDEST DUP4 DUP2 LT ISZERO PUSH2 0x165 JUMPI DUP1 DUP3 ADD MLOAD DUP2 DUP5 ADD MSTORE PUSH1 0x20 DUP2 ADD SWAP1 POP PUSH2 0x14A JUMP JUMPDEST PUSH1 0x0 DUP5 DUP5 ADD MSTORE POP POP POP POP JUMP JUMPDEST PUSH1 0x0 PUSH1 0x1F NOT PUSH1 0x1F DUP4 ADD AND SWAP1 POP SWAP2 SWAP1 POP JUMP JUMPDEST PUSH1 0x0 PUSH2 0x18D DUP3 PUSH2 0x12B JUMP JUMPDEST PUSH2 0x197 DUP2 DUP6 PUSH2 0x136 JUMP JUMPDEST SWAP4 POP PUSH2 0x1A7 DUP2 DUP6 PUSH1 0x20 DUP7 ADD PUSH2 0x147 JUMP JUMPDEST PUSH2 0x1B0 DUP2 PUSH2 0x171 JUMP JUMPDEST DUP5 ADD SWAP2 POP POP SWAP3 SWAP2 POP POP JUMP JUMPDEST PUSH1 0x0 PUSH1 0x20 DUP3 ADD SWAP1 POP DUP2 DUP2 SUB PUSH1 0x0 DUP4 ADD MSTORE PUSH2 0x1D5 DUP2 DUP5 PUSH2 0x182 JUMP JUMPDEST SWAP1 POP SWAP3 SWAP2 POP POP JUMP JUMPDEST PUSH1 0x0 PUSH20 0xFFFFFFFFFFFFFFFFFFFFFFFFFFFFFFFFFFFFFFFF DUP3 AND SWAP1 POP SWAP2 SWAP1 POP JUMP JUMPDEST PUSH1 0x0 PUSH2 0x208 DUP3 PUSH2 0x1DD JUMP JUMPDEST SWAP1 POP SWAP2 SWAP1 POP JUMP JUMPDEST PUSH2 0x218 DUP2 PUSH2 0x1FD JUMP JUMPDEST DUP3 MSTORE POP POP JUMP JUMPDEST PUSH1 0x0 PUSH1 0x20 DUP3 ADD SWAP1 POP PUSH2 0x233 PUSH1 0x0 DUP4 ADD DUP5 PUSH2 0x20F JUMP JUMPDEST SWAP3 SWAP2 POP POP JUMP JUMPDEST PUSH32 0x4E487B7100000000000000000000000000000000000000000000000000000000 PUSH1 0x0 MSTORE PUSH1 0x22 PUSH1 0x4 MSTORE PUSH1 0x24 PUSH1 0x0 REVERT JUMPDEST PUSH1 0x0 PUSH1 0x2 DUP3 DIV SWAP1 POP PUSH1 0x1 DUP3 AND DUP1 PUSH2 0x280 JUMPI PUSH1 0x7F DUP3 AND SWAP2 POP JUMPDEST PUSH1 0x20 DUP3 LT DUP2 SUB PUSH2 0x293 JUMPI PUSH2 0x292 PUSH2 0x239 JUMP JUMPDEST JUMPDEST POP SWAP2 SWAP1 POP JUMP INVALID LOG2 PUSH5 0x6970667358 0x22 SLT KECCAK256 0x2B 0x2E PUSH19 0xED741320E15BCD0026818A1AF2650A7CE3F06E REVERT CALLDATACOPY PUSH3 0x7A8F16 MULMOD 0xA8 0xDD SHL PUSH5 0x736F6C6343 STOP ADDMOD SLT STOP CALLER LOG2 PUSH5 0x6970667358 0x22 SLT KECCAK256 DUP2 0x2F 0xBB DUP12 PUSH6 0xB57AF832A6BA BYTE 0xC2 LOG4 DUP14 0xAD INVALID SWAP2 PUSH32 0x24FFBA74CB31EAEFC67E13F4D564736F6C634300081200330000000000000000 "
		},
		"gasEstimates": {
			"creation": {
				"codeDepositCost": "932600",
				"executionCost": "968",
				"totalCost": "933568"
			},
			"external": {
				"getCar(uint256)": "infinite",
				"newRental(address,string)": "infinite"
			}
		},
		"methodIdentifiers": {
			"getCar(uint256)": "5e8be190",
			"newRental(address,string)": "5df2c864"
		}
	},
	"abi": [
		{
			"inputs": [
				{
					"internalType": "uint256",
					"name": "_index",
					"type": "uint256"
				}
			],
			"name": "getCar",
			"outputs": [
				{
					"internalType": "string",
					"name": "",
					"type": "string"
				},
				{
					"internalType": "address",
					"name": "",
					"type": "address"
				}
			],
			"stateMutability": "view",
			"type": "function"
		},
		{
			"inputs": [
				{
					"internalType": "address",
					"name": "_renter",
					"type": "address"
				},
				{
					"internalType": "string",
					"name": "_model",
					"type": "string"
				}
			],
			"name": "newRental",
			"outputs": [],
			"stateMutability": "payable",
			"type": "function"
		}
	]
}