{
	"data": {
		"bytecode": {
			"linkReferences": {},
			"object": "608060405234801561001057600080fd5b506040516108ca3803806108ca8339818101604052810190610032919061007a565b80600181905550506100a7565b600080fd5b6000819050919050565b61005781610044565b811461006257600080fd5b50565b6000815190506100748161004e565b92915050565b6000602082840312156100905761008f61003f565b5b600061009e84828501610065565b91505092915050565b610814806100b66000396000f3fe608060405234801561001057600080fd5b50600436106100885760003560e01c80638f15024f1161005b5780638f15024f14610103578063ab0d92dd14610121578063c74465651461013f578063ce6d41de1461015d57610088565b80631209b1f61461008d5780636284568a146100ab57806367dd74ca146100c95780637cc3ae8c146100e5575b600080fd5b61009561017b565b6040516100a2919061048e565b60405180910390f35b6100b3610181565b6040516100c0919061048e565b60405180910390f35b6100e360048036038101906100de91906104da565b610187565b005b6100ed61020b565b6040516100fa919061048e565b60405180910390f35b61010b610211565b604051610118919061048e565b60405180910390f35b610129610217565b604051610136919061048e565b60405180910390f35b61014761021d565b604051610154919061048e565b60405180910390f35b610165610223565b6040516101729190610597565b60405180910390f35b60015481565b60045481565b8060015461019591906105e8565b6005819055504260028190555062093a80426101b1919061062a565b6003819055506018603c806002546003546101cc919061065e565b6101d691906106c1565b6101e091906106c1565b6101ea91906106c1565b60048190555080600080828254610201919061062a565b9250508190555050565b60035481565b60005481565b60055481565b60025481565b6060610230600154610254565b604051602001610240919061077a565b604051602081830303815290604052905090565b60606000600161026384610322565b01905060008167ffffffffffffffff811115610282576102816107af565b5b6040519080825280601f01601f1916602001820160405280156102b45781602001600182028036833780820191505090505b509050600082602001820190505b600115610317578080600190039150507f3031323334353637383961626364656600000000000000000000000000000000600a86061a8153600a858161030b5761030a610692565b5b049450600085036102c2575b819350505050919050565b600080600090507a184f03e93ff9f4daa797ed6e38ed64bf6a1f0100000000000000008310610380577a184f03e93ff9f4daa797ed6e38ed64bf6a1f010000000000000000838161037657610375610692565b5b0492506040810190505b6d04ee2d6d415b85acef810000000083106103bd576d04ee2d6d415b85acef810000000083816103b3576103b2610692565b5b0492506020810190505b662386f26fc1000083106103ec57662386f26fc1000083816103e2576103e1610692565b5b0492506010810190505b6305f5e1008310610415576305f5e100838161040b5761040a610692565b5b0492506008810190505b612710831061043a5761271083816104305761042f610692565b5b0492506004810190505b6064831061045d576064838161045357610452610692565b5b0492506002810190505b600a831061046c576001810190505b80915050919050565b6000819050919050565b61048881610475565b82525050565b60006020820190506104a3600083018461047f565b92915050565b600080fd5b6104b781610475565b81146104c257600080fd5b50565b6000813590506104d4816104ae565b92915050565b6000602082840312156104f0576104ef6104a9565b5b60006104fe848285016104c5565b91505092915050565b600081519050919050565b600082825260208201905092915050565b60005b83811015610541578082015181840152602081019050610526565b60008484015250505050565b6000601f19601f8301169050919050565b600061056982610507565b6105738185610512565b9350610583818560208601610523565b61058c8161054d565b840191505092915050565b600060208201905081810360008301526105b1818461055e565b905092915050565b7f4e487b7100000000000000000000000000000000000000000000000000000000600052601160045260246000fd5b60006105f382610475565b91506105fe83610475565b925082820261060c81610475565b91508282048414831517610623576106226105b9565b5b5092915050565b600061063582610475565b915061064083610475565b9250828201905080821115610658576106576105b9565b5b92915050565b600061066982610475565b915061067483610475565b925082820390508181111561068c5761068b6105b9565b5b92915050565b7f4e487b7100000000000000000000000000000000000000000000000000000000600052601260045260246000fd5b60006106cc82610475565b91506106d783610475565b9250826106e7576106e6610692565b5b828204905092915050565b7f42757920796f7572207469636b657420666f7220240000000000000000000000815250565b600081905092915050565b600061072e82610507565b6107388185610718565b9350610748818560208601610523565b80840191505092915050565b7f2100000000000000000000000000000000000000000000000000000000000000815250565b6000610785826106f2565b6015820191506107958284610723565b91506107a082610754565b60018201915081905092915050565b7f4e487b7100000000000000000000000000000000000000000000000000000000600052604160045260246000fdfea2646970667358221220f639cd4d01cce0ea9faeda0eb2b2d2b6961cf93744df0020883f45408a995bcc64736f6c63430008120033",
			"opcodes": "PUSH1 0x80 PUSH1 0x40 MSTORE CALLVALUE DUP1 ISZERO PUSH2 0x10 JUMPI PUSH1 0x0 DUP1 REVERT JUMPDEST POP PUSH1 0x40 MLOAD PUSH2 0x8CA CODESIZE SUB DUP1 PUSH2 0x8CA DUP4 CODECOPY DUP2 DUP2 ADD PUSH1 0x40 MSTORE DUP2 ADD SWAP1 PUSH2 0x32 SWAP2 SWAP1 PUSH2 0x7A JUMP JUMPDEST DUP1 PUSH1 0x1 DUP2 SWAP1 SSTORE POP POP PUSH2 0xA7 JUMP JUMPDEST PUSH1 0x0 DUP1 REVERT JUMPDEST PUSH1 0x0 DUP2 SWAP1 POP SWAP2 SWAP1 POP JUMP JUMPDEST PUSH2 0x57 DUP2 PUSH2 0x44 JUMP JUMPDEST DUP2 EQ PUSH2 0x62 JUMPI PUSH1 0x0 DUP1 REVERT JUMPDEST POP JUMP JUMPDEST PUSH1 0x0 DUP2 MLOAD SWAP1 POP PUSH2 0x74 DUP2 PUSH2 0x4E JUMP JUMPDEST SWAP3 SWAP2 POP POP JUMP JUMPDEST PUSH1 0x0 PUSH1 0x20 DUP3 DUP5 SUB SLT ISZERO PUSH2 0x90 JUMPI PUSH2 0x8F PUSH2 0x3F JUMP JUMPDEST JUMPDEST PUSH1 0x0 PUSH2 0x9E DUP5 DUP3 DUP6 ADD PUSH2 0x65 JUMP JUMPDEST SWAP2 POP POP SWAP3 SWAP2 POP POP JUMP JUMPDEST PUSH2 0x814 DUP1 PUSH2 0xB6 PUSH1 0x0 CODECOPY PUSH1 0x0 RETURN INVALID PUSH1 0x80 PUSH1 0x40 MSTORE CALLVALUE DUP1 ISZERO PUSH2 0x10 JUMPI PUSH1 0x0 DUP1 REVERT JUMPDEST POP PUSH1 0x4 CALLDATASIZE LT PUSH2 0x88 JUMPI PUSH1 0x0 CALLDATALOAD PUSH1 0xE0 SHR DUP1 PUSH4 0x8F15024F GT PUSH2 0x5B JUMPI DUP1 PUSH4 0x8F15024F EQ PUSH2 0x103 JUMPI DUP1 PUSH4 0xAB0D92DD EQ PUSH2 0x121 JUMPI DUP1 PUSH4 0xC7446565 EQ PUSH2 0x13F JUMPI DUP1 PUSH4 0xCE6D41DE EQ PUSH2 0x15D JUMPI PUSH2 0x88 JUMP JUMPDEST DUP1 PUSH4 0x1209B1F6 EQ PUSH2 0x8D JUMPI DUP1 PUSH4 0x6284568A EQ PUSH2 0xAB JUMPI DUP1 PUSH4 0x67DD74CA EQ PUSH2 0xC9 JUMPI DUP1 PUSH4 0x7CC3AE8C EQ PUSH2 0xE5 JUMPI JUMPDEST PUSH1 0x0 DUP1 REVERT JUMPDEST PUSH2 0x95 PUSH2 0x17B JUMP JUMPDEST PUSH1 0x40 MLOAD PUSH2 0xA2 SWAP2 SWAP1 PUSH2 0x48E JUMP JUMPDEST PUSH1 0x40 MLOAD DUP1 SWAP2 SUB SWAP1 RETURN JUMPDEST PUSH2 0xB3 PUSH2 0x181 JUMP JUMPDEST PUSH1 0x40 MLOAD PUSH2 0xC0 SWAP2 SWAP1 PUSH2 0x48E JUMP JUMPDEST PUSH1 0x40 MLOAD DUP1 SWAP2 SUB SWAP1 RETURN JUMPDEST PUSH2 0xE3 PUSH1 0x4 DUP1 CALLDATASIZE SUB DUP2 ADD SWAP1 PUSH2 0xDE SWAP2 SWAP1 PUSH2 0x4DA JUMP JUMPDEST PUSH2 0x187 JUMP JUMPDEST STOP JUMPDEST PUSH2 0xED PUSH2 0x20B JUMP JUMPDEST PUSH1 0x40 MLOAD PUSH2 0xFA SWAP2 SWAP1 PUSH2 0x48E JUMP JUMPDEST PUSH1 0x40 MLOAD DUP1 SWAP2 SUB SWAP1 RETURN JUMPDEST PUSH2 0x10B PUSH2 0x211 JUMP JUMPDEST PUSH1 0x40 MLOAD PUSH2 0x118 SWAP2 SWAP1 PUSH2 0x48E JUMP JUMPDEST PUSH1 0x40 MLOAD DUP1 SWAP2 SUB SWAP1 RETURN JUMPDEST PUSH2 0x129 PUSH2 0x217 JUMP JUMPDEST PUSH1 0x40 MLOAD PUSH2 0x136 SWAP2 SWAP1 PUSH2 0x48E JUMP JUMPDEST PUSH1 0x40 MLOAD DUP1 SWAP2 SUB SWAP1 RETURN JUMPDEST PUSH2 0x147 PUSH2 0x21D JUMP JUMPDEST PUSH1 0x40 MLOAD PUSH2 0x154 SWAP2 SWAP1 PUSH2 0x48E JUMP JUMPDEST PUSH1 0x40 MLOAD DUP1 SWAP2 SUB SWAP1 RETURN JUMPDEST PUSH2 0x165 PUSH2 0x223 JUMP JUMPDEST PUSH1 0x40 MLOAD PUSH2 0x172 SWAP2 SWAP1 PUSH2 0x597 JUMP JUMPDEST PUSH1 0x40 MLOAD DUP1 SWAP2 SUB SWAP1 RETURN JUMPDEST PUSH1 0x1 SLOAD DUP2 JUMP JUMPDEST PUSH1 0x4 SLOAD DUP2 JUMP JUMPDEST DUP1 PUSH1 0x1 SLOAD PUSH2 0x195 SWAP2 SWAP1 PUSH2 0x5E8 JUMP JUMPDEST PUSH1 0x5 DUP2 SWAP1 SSTORE POP TIMESTAMP PUSH1 0x2 DUP2 SWAP1 SSTORE POP PUSH3 0x93A80 TIMESTAMP PUSH2 0x1B1 SWAP2 SWAP1 PUSH2 0x62A JUMP JUMPDEST PUSH1 0x3 DUP2 SWAP1 SSTORE POP PUSH1 0x18 PUSH1 0x3C DUP1 PUSH1 0x2 SLOAD PUSH1 0x3 SLOAD PUSH2 0x1CC SWAP2 SWAP1 PUSH2 0x65E JUMP JUMPDEST PUSH2 0x1D6 SWAP2 SWAP1 PUSH2 0x6C1 JUMP JUMPDEST PUSH2 0x1E0 SWAP2 SWAP1 PUSH2 0x6C1 JUMP JUMPDEST PUSH2 0x1EA SWAP2 SWAP1 PUSH2 0x6C1 JUMP JUMPDEST PUSH1 0x4 DUP2 SWAP1 SSTORE POP DUP1 PUSH1 0x0 DUP1 DUP3 DUP3 SLOAD PUSH2 0x201 SWAP2 SWAP1 PUSH2 0x62A JUMP JUMPDEST SWAP3 POP POP DUP2 SWAP1 SSTORE POP POP JUMP JUMPDEST PUSH1 0x3 SLOAD DUP2 JUMP JUMPDEST PUSH1 0x0 SLOAD DUP2 JUMP JUMPDEST PUSH1 0x5 SLOAD DUP2 JUMP JUMPDEST PUSH1 0x2 SLOAD DUP2 JUMP JUMPDEST PUSH1 0x60 PUSH2 0x230 PUSH1 0x1 SLOAD PUSH2 0x254 JUMP JUMPDEST PUSH1 0x40 MLOAD PUSH1 0x20 ADD PUSH2 0x240 SWAP2 SWAP1 PUSH2 0x77A JUMP JUMPDEST PUSH1 0x40 MLOAD PUSH1 0x20 DUP2 DUP4 SUB SUB DUP2 MSTORE SWAP1 PUSH1 0x40 MSTORE SWAP1 POP SWAP1 JUMP JUMPDEST PUSH1 0x60 PUSH1 0x0 PUSH1 0x1 PUSH2 0x263 DUP5 PUSH2 0x322 JUMP JUMPDEST ADD SWAP1 POP PUSH1 0x0 DUP2 PUSH8 0xFFFFFFFFFFFFFFFF DUP2 GT ISZERO PUSH2 0x282 JUMPI PUSH2 0x281 PUSH2 0x7AF JUMP JUMPDEST JUMPDEST PUSH1 0x40 MLOAD SWAP1 DUP1 DUP3 MSTORE DUP1 PUSH1 0x1F ADD PUSH1 0x1F NOT AND PUSH1 0x20 ADD DUP3 ADD PUSH1 0x40 MSTORE DUP1 ISZERO PUSH2 0x2B4 JUMPI DUP2 PUSH1 0x20 ADD PUSH1 0x1 DUP3 MUL DUP1 CALLDATASIZE DUP4 CALLDATACOPY DUP1 DUP3 ADD SWAP2 POP POP SWAP1 POP JUMPDEST POP SWAP1 POP PUSH1 0x0 DUP3 PUSH1 0x20 ADD DUP3 ADD SWAP1 POP JUMPDEST PUSH1 0x1 ISZERO PUSH2 0x317 JUMPI DUP1 DUP1 PUSH1 0x1 SWAP1 SUB SWAP2 POP POP PUSH32 0x3031323334353637383961626364656600000000000000000000000000000000 PUSH1 0xA DUP7 MOD BYTE DUP2 MSTORE8 PUSH1 0xA DUP6 DUP2 PUSH2 0x30B JUMPI PUSH2 0x30A PUSH2 0x692 JUMP JUMPDEST JUMPDEST DIV SWAP5 POP PUSH1 0x0 DUP6 SUB PUSH2 0x2C2 JUMPI JUMPDEST DUP2 SWAP4 POP POP POP POP SWAP2 SWAP1 POP JUMP JUMPDEST PUSH1 0x0 DUP1 PUSH1 0x0 SWAP1 POP PUSH27 0x184F03E93FF9F4DAA797ED6E38ED64BF6A1F010000000000000000 DUP4 LT PUSH2 0x380 JUMPI PUSH27 0x184F03E93FF9F4DAA797ED6E38ED64BF6A1F010000000000000000 DUP4 DUP2 PUSH2 0x376 JUMPI PUSH2 0x375 PUSH2 0x692 JUMP JUMPDEST JUMPDEST DIV SWAP3 POP PUSH1 0x40 DUP2 ADD SWAP1 POP JUMPDEST PUSH14 0x4EE2D6D415B85ACEF8100000000 DUP4 LT PUSH2 0x3BD JUMPI PUSH14 0x4EE2D6D415B85ACEF8100000000 DUP4 DUP2 PUSH2 0x3B3 JUMPI PUSH2 0x3B2 PUSH2 0x692 JUMP JUMPDEST JUMPDEST DIV SWAP3 POP PUSH1 0x20 DUP2 ADD SWAP1 POP JUMPDEST PUSH7 0x2386F26FC10000 DUP4 LT PUSH2 0x3EC JUMPI PUSH7 0x2386F26FC10000 DUP4 DUP2 PUSH2 0x3E2 JUMPI PUSH2 0x3E1 PUSH2 0x692 JUMP JUMPDEST JUMPDEST DIV SWAP3 POP PUSH1 0x10 DUP2 ADD SWAP1 POP JUMPDEST PUSH4 0x5F5E100 DUP4 LT PUSH2 0x415 JUMPI PUSH4 0x5F5E100 DUP4 DUP2 PUSH2 0x40B JUMPI PUSH2 0x40A PUSH2 0x692 JUMP JUMPDEST JUMPDEST DIV SWAP3 POP PUSH1 0x8 DUP2 ADD SWAP1 POP JUMPDEST PUSH2 0x2710 DUP4 LT PUSH2 0x43A JUMPI PUSH2 0x2710 DUP4 DUP2 PUSH2 0x430 JUMPI PUSH2 0x42F PUSH2 0x692 JUMP JUMPDEST JUMPDEST DIV SWAP3 POP PUSH1 0x4 DUP2 ADD SWAP1 POP JUMPDEST PUSH1 0x64 DUP4 LT PUSH2 0x45D JUMPI PUSH1 0x64 DUP4 DUP2 PUSH2 0x453 JUMPI PUSH2 0x452 PUSH2 0x692 JUMP JUMPDEST JUMPDEST DIV SWAP3 POP PUSH1 0x2 DUP2 ADD SWAP1 POP JUMPDEST PUSH1 0xA DUP4 LT PUSH2 0x46C JUMPI PUSH1 0x1 DUP2 ADD SWAP1 POP JUMPDEST DUP1 SWAP2 POP POP SWAP2 SWAP1 POP JUMP JUMPDEST PUSH1 0x0 DUP2 SWAP1 POP SWAP2 SWAP1 POP JUMP JUMPDEST PUSH2 0x488 DUP2 PUSH2 0x475 JUMP JUMPDEST DUP3 MSTORE POP POP JUMP JUMPDEST PUSH1 0x0 PUSH1 0x20 DUP3 ADD SWAP1 POP PUSH2 0x4A3 PUSH1 0x0 DUP4 ADD DUP5 PUSH2 0x47F JUMP JUMPDEST SWAP3 SWAP2 POP POP JUMP JUMPDEST PUSH1 0x0 DUP1 REVERT JUMPDEST PUSH2 0x4B7 DUP2 PUSH2 0x475 JUMP JUMPDEST DUP2 EQ PUSH2 0x4C2 JUMPI PUSH1 0x0 DUP1 REVERT JUMPDEST POP JUMP JUMPDEST PUSH1 0x0 DUP2 CALLDATALOAD SWAP1 POP PUSH2 0x4D4 DUP2 PUSH2 0x4AE JUMP JUMPDEST SWAP3 SWAP2 POP POP JUMP JUMPDEST PUSH1 0x0 PUSH1 0x20 DUP3 DUP5 SUB SLT ISZERO PUSH2 0x4F0 JUMPI PUSH2 0x4EF PUSH2 0x4A9 JUMP JUMPDEST JUMPDEST PUSH1 0x0 PUSH2 0x4FE DUP5 DUP3 DUP6 ADD PUSH2 0x4C5 JUMP JUMPDEST SWAP2 POP POP SWAP3 SWAP2 POP POP JUMP JUMPDEST PUSH1 0x0 DUP2 MLOAD SWAP1 POP SWAP2 SWAP1 POP JUMP JUMPDEST PUSH1 0x0 DUP3 DUP3 MSTORE PUSH1 0x20 DUP3 ADD SWAP1 POP SWAP3 SWAP2 POP POP JUMP JUMPDEST PUSH1 0x0 JUMPDEST DUP4 DUP2 LT ISZERO PUSH2 0x541 JUMPI DUP1 DUP3 ADD MLOAD DUP2 DUP5 ADD MSTORE PUSH1 0x20 DUP2 ADD SWAP1 POP PUSH2 0x526 JUMP JUMPDEST PUSH1 0x0 DUP5 DUP5 ADD MSTORE POP POP POP POP JUMP JUMPDEST PUSH1 0x0 PUSH1 0x1F NOT PUSH1 0x1F DUP4 ADD AND SWAP1 POP SWAP2 SWAP1 POP JUMP JUMPDEST PUSH1 0x0 PUSH2 0x569 DUP3 PUSH2 0x507 JUMP JUMPDEST PUSH2 0x573 DUP2 DUP6 PUSH2 0x512 JUMP JUMPDEST SWAP4 POP PUSH2 0x583 DUP2 DUP6 PUSH1 0x20 DUP7 ADD PUSH2 0x523 JUMP JUMPDEST PUSH2 0x58C DUP2 PUSH2 0x54D JUMP JUMPDEST DUP5 ADD SWAP2 POP POP SWAP3 SWAP2 POP POP JUMP JUMPDEST PUSH1 0x0 PUSH1 0x20 DUP3 ADD SWAP1 POP DUP2 DUP2 SUB PUSH1 0x0 DUP4 ADD MSTORE PUSH2 0x5B1 DUP2 DUP5 PUSH2 0x55E JUMP JUMPDEST SWAP1 POP SWAP3 SWAP2 POP POP JUMP JUMPDEST PUSH32 0x4E487B7100000000000000000000000000000000000000000000000000000000 PUSH1 0x0 MSTORE PUSH1 0x11 PUSH1 0x4 MSTORE PUSH1 0x24 PUSH1 0x0 REVERT JUMPDEST PUSH1 0x0 PUSH2 0x5F3 DUP3 PUSH2 0x475 JUMP JUMPDEST SWAP2 POP PUSH2 0x5FE DUP4 PUSH2 0x475 JUMP JUMPDEST SWAP3 POP DUP3 DUP3 MUL PUSH2 0x60C DUP2 PUSH2 0x475 JUMP JUMPDEST SWAP2 POP DUP3 DUP3 DIV DUP5 EQ DUP4 ISZERO OR PUSH2 0x623 JUMPI PUSH2 0x622 PUSH2 0x5B9 JUMP JUMPDEST JUMPDEST POP SWAP3 SWAP2 POP POP JUMP JUMPDEST PUSH1 0x0 PUSH2 0x635 DUP3 PUSH2 0x475 JUMP JUMPDEST SWAP2 POP PUSH2 0x640 DUP4 PUSH2 0x475 JUMP JUMPDEST SWAP3 POP DUP3 DUP3 ADD SWAP1 POP DUP1 DUP3 GT ISZERO PUSH2 0x658 JUMPI PUSH2 0x657 PUSH2 0x5B9 JUMP JUMPDEST JUMPDEST SWAP3 SWAP2 POP POP JUMP JUMPDEST PUSH1 0x0 PUSH2 0x669 DUP3 PUSH2 0x475 JUMP JUMPDEST SWAP2 POP PUSH2 0x674 DUP4 PUSH2 0x475 JUMP JUMPDEST SWAP3 POP DUP3 DUP3 SUB SWAP1 POP DUP2 DUP2 GT ISZERO PUSH2 0x68C JUMPI PUSH2 0x68B PUSH2 0x5B9 JUMP JUMPDEST JUMPDEST SWAP3 SWAP2 POP POP JUMP JUMPDEST PUSH32 0x4E487B7100000000000000000000000000000000000000000000000000000000 PUSH1 0x0 MSTORE PUSH1 0x12 PUSH1 0x4 MSTORE PUSH1 0x24 PUSH1 0x0 REVERT JUMPDEST PUSH1 0x0 PUSH2 0x6CC DUP3 PUSH2 0x475 JUMP JUMPDEST SWAP2 POP PUSH2 0x6D7 DUP4 PUSH2 0x475 JUMP JUMPDEST SWAP3 POP DUP3 PUSH2 0x6E7 JUMPI PUSH2 0x6E6 PUSH2 0x692 JUMP JUMPDEST JUMPDEST DUP3 DUP3 DIV SWAP1 POP SWAP3 SWAP2 POP POP JUMP JUMPDEST PUSH32 0x42757920796F7572207469636B657420666F7220240000000000000000000000 DUP2 MSTORE POP JUMP JUMPDEST PUSH1 0x0 DUP2 SWAP1 POP SWAP3 SWAP2 POP POP JUMP JUMPDEST PUSH1 0x0 PUSH2 0x72E DUP3 PUSH2 0x507 JUMP JUMPDEST PUSH2 0x738 DUP2 DUP6 PUSH2 0x718 JUMP JUMPDEST SWAP4 POP PUSH2 0x748 DUP2 DUP6 PUSH1 0x20 DUP7 ADD PUSH2 0x523 JUMP JUMPDEST DUP1 DUP5 ADD SWAP2 POP POP SWAP3 SWAP2 POP POP JUMP JUMPDEST PUSH32 0x2100000000000000000000000000000000000000000000000000000000000000 DUP2 MSTORE POP JUMP JUMPDEST PUSH1 0x0 PUSH2 0x785 DUP3 PUSH2 0x6F2 JUMP JUMPDEST PUSH1 0x15 DUP3 ADD SWAP2 POP PUSH2 0x795 DUP3 DUP5 PUSH2 0x723 JUMP JUMPDEST SWAP2 POP PUSH2 0x7A0 DUP3 PUSH2 0x754 JUMP JUMPDEST PUSH1 0x1 DUP3 ADD SWAP2 POP DUP2 SWAP1 POP SWAP3 SWAP2 POP POP JUMP JUMPDEST PUSH32 0x4E487B7100000000000000000000000000000000000000000000000000000000 PUSH1 0x0 MSTORE PUSH1 0x41 PUSH1 0x4 MSTORE PUSH1 0x24 PUSH1 0x0 REVERT INVALID LOG2 PUSH5 0x6970667358 0x22 SLT KECCAK256 0xF6 CODECOPY 0xCD 0x4D ADD 0xCC 0xE0 0xEA SWAP16 0xAE 0xDA 0xE 0xB2 0xB2 0xD2 0xB6 SWAP7 SHR 0xF9 CALLDATACOPY PREVRANDAO 0xDF STOP KECCAK256 DUP9 EXTCODEHASH GASLIMIT BLOCKHASH DUP11 SWAP10 JUMPDEST 0xCC PUSH5 0x736F6C6343 STOP ADDMOD SLT STOP CALLER "
		},
		"gasEstimates": {
			"creation": {
				"codeDepositCost": "413600",
				"executionCost": "infinite",
				"totalCost": "infinite"
			},
			"external": {
				"buyTicket(uint256)": "infinite",
				"endAt()": "2496",
				"getMessage()": "infinite",
				"startAt()": "2473",
				"ticketPrice()": "2430",
				"ticketsSold()": "2429",
				"timeRange()": "2452",
				"totalPrice()": "2451"
			}
		},
		"methodIdentifiers": {
			"buyTicket(uint256)": "67dd74ca",
			"endAt()": "7cc3ae8c",
			"getMessage()": "ce6d41de",
			"startAt()": "c7446565",
			"ticketPrice()": "1209b1f6",
			"ticketsSold()": "8f15024f",
			"timeRange()": "6284568a",
			"totalPrice()": "ab0d92dd"
		}
	},
	"abi": [
		{
			"inputs": [
				{
					"internalType": "uint256",
					"name": "_ticketPrice",
					"type": "uint256"
				}
			],
			"stateMutability": "nonpayable",
			"type": "constructor"
		},
		{
			"inputs": [
				{
					"internalType": "uint256",
					"name": "_amountOfTicket",
					"type": "uint256"
				}
			],
			"name": "buyTicket",
			"outputs": [],
			"stateMutability": "nonpayable",
			"type": "function"
		},
		{
			"inputs": [],
			"name": "endAt",
			"outputs": [
				{
					"internalType": "uint256",
					"name": "",
					"type": "uint256"
				}
			],
			"stateMutability": "view",
			"type": "function"
		},
		{
			"inputs": [],
			"name": "getMessage",
			"outputs": [
				{
					"internalType": "string",
					"name": "",
					"type": "string"
				}
			],
			"stateMutability": "view",
			"type": "function"
		},
		{
			"inputs": [],
			"name": "startAt",
			"outputs": [
				{
					"internalType": "uint256",
					"name": "",
					"type": "uint256"
				}
			],
			"stateMutability": "view",
			"type": "function"
		},
		{
			"inputs": [],
			"name": "ticketPrice",
			"outputs": [
				{
					"internalType": "uint256",
					"name": "",
					"type": "uint256"
				}
			],
			"stateMutability": "view",
			"type": "function"
		},
		{
			"inputs": [],
			"name": "ticketsSold",
			"outputs": [
				{
					"internalType": "uint256",
					"name": "",
					"type": "uint256"
				}
			],
			"stateMutability": "view",
			"type": "function"
		},
		{
			"inputs": [],
			"name": "timeRange",
			"outputs": [
				{
					"internalType": "uint256",
					"name": "",
					"type": "uint256"
				}
			],
			"stateMutability": "view",
			"type": "function"
		},
		{
			"inputs": [],
			"name": "totalPrice",
			"outputs": [
				{
					"internalType": "uint256",
					"name": "",
					"type": "uint256"
				}
			],
			"stateMutability": "view",
			"type": "function"
		}
	]
}