{
	"data": {
		"bytecode": {
			"linkReferences": {},
			"object": "608060405234801561001057600080fd5b506102ab806100206000396000f3fe608060405234801561001057600080fd5b506004361061002b5760003560e01c8063bb01989814610030575b600080fd5b61004a60048036038101906100459190610135565b610060565b6040516100579190610171565b60405180910390f35b600060088260ff1611156100a9576040517f08c379a00000000000000000000000000000000000000000000000000000000081526004016100a0906101e9565b60405180910390fd5b60008260ff16036100ef576040517f08c379a00000000000000000000000000000000000000000000000000000000081526004016100e690610255565b60405180910390fd5b819050919050565b600080fd5b600060ff82169050919050565b610112816100fc565b811461011d57600080fd5b50565b60008135905061012f81610109565b92915050565b60006020828403121561014b5761014a6100f7565b5b600061015984828501610120565b91505092915050565b61016b816100fc565b82525050565b60006020820190506101866000830184610162565b92915050565b600082825260208201905092915050565b7f496e70757420746f6f2068696768000000000000000000000000000000000000600082015250565b60006101d3600e8361018c565b91506101de8261019d565b602082019050919050565b60006020820190508181036000830152610202816101c6565b9050919050565b7f496e70757420746f6f206c6f7700000000000000000000000000000000000000600082015250565b600061023f600d8361018c565b915061024a82610209565b602082019050919050565b6000602082019050818103600083015261026e81610232565b905091905056fea26469706673582212204feef6c25ccc1aa939ad1f54d62b395a6ac83c18cc4bd60b2c3b723bb4be9f5a64736f6c63430008120033",
			"opcodes": "PUSH1 0x80 PUSH1 0x40 MSTORE CALLVALUE DUP1 ISZERO PUSH2 0x10 JUMPI PUSH1 0x0 DUP1 REVERT JUMPDEST POP PUSH2 0x2AB DUP1 PUSH2 0x20 PUSH1 0x0 CODECOPY PUSH1 0x0 RETURN INVALID PUSH1 0x80 PUSH1 0x40 MSTORE CALLVALUE DUP1 ISZERO PUSH2 0x10 JUMPI PUSH1 0x0 DUP1 REVERT JUMPDEST POP PUSH1 0x4 CALLDATASIZE LT PUSH2 0x2B JUMPI PUSH1 0x0 CALLDATALOAD PUSH1 0xE0 SHR DUP1 PUSH4 0xBB019898 EQ PUSH2 0x30 JUMPI JUMPDEST PUSH1 0x0 DUP1 REVERT JUMPDEST PUSH2 0x4A PUSH1 0x4 DUP1 CALLDATASIZE SUB DUP2 ADD SWAP1 PUSH2 0x45 SWAP2 SWAP1 PUSH2 0x135 JUMP JUMPDEST PUSH2 0x60 JUMP JUMPDEST PUSH1 0x40 MLOAD PUSH2 0x57 SWAP2 SWAP1 PUSH2 0x171 JUMP JUMPDEST PUSH1 0x40 MLOAD DUP1 SWAP2 SUB SWAP1 RETURN JUMPDEST PUSH1 0x0 PUSH1 0x8 DUP3 PUSH1 0xFF AND GT ISZERO PUSH2 0xA9 JUMPI PUSH1 0x40 MLOAD PUSH32 0x8C379A000000000000000000000000000000000000000000000000000000000 DUP2 MSTORE PUSH1 0x4 ADD PUSH2 0xA0 SWAP1 PUSH2 0x1E9 JUMP JUMPDEST PUSH1 0x40 MLOAD DUP1 SWAP2 SUB SWAP1 REVERT JUMPDEST PUSH1 0x0 DUP3 PUSH1 0xFF AND SUB PUSH2 0xEF JUMPI PUSH1 0x40 MLOAD PUSH32 0x8C379A000000000000000000000000000000000000000000000000000000000 DUP2 MSTORE PUSH1 0x4 ADD PUSH2 0xE6 SWAP1 PUSH2 0x255 JUMP JUMPDEST PUSH1 0x40 MLOAD DUP1 SWAP2 SUB SWAP1 REVERT JUMPDEST DUP2 SWAP1 POP SWAP2 SWAP1 POP JUMP JUMPDEST PUSH1 0x0 DUP1 REVERT JUMPDEST PUSH1 0x0 PUSH1 0xFF DUP3 AND SWAP1 POP SWAP2 SWAP1 POP JUMP JUMPDEST PUSH2 0x112 DUP2 PUSH2 0xFC JUMP JUMPDEST DUP2 EQ PUSH2 0x11D JUMPI PUSH1 0x0 DUP1 REVERT JUMPDEST POP JUMP JUMPDEST PUSH1 0x0 DUP2 CALLDATALOAD SWAP1 POP PUSH2 0x12F DUP2 PUSH2 0x109 JUMP JUMPDEST SWAP3 SWAP2 POP POP JUMP JUMPDEST PUSH1 0x0 PUSH1 0x20 DUP3 DUP5 SUB SLT ISZERO PUSH2 0x14B JUMPI PUSH2 0x14A PUSH2 0xF7 JUMP JUMPDEST JUMPDEST PUSH1 0x0 PUSH2 0x159 DUP5 DUP3 DUP6 ADD PUSH2 0x120 JUMP JUMPDEST SWAP2 POP POP SWAP3 SWAP2 POP POP JUMP JUMPDEST PUSH2 0x16B DUP2 PUSH2 0xFC JUMP JUMPDEST DUP3 MSTORE POP POP JUMP JUMPDEST PUSH1 0x0 PUSH1 0x20 DUP3 ADD SWAP1 POP PUSH2 0x186 PUSH1 0x0 DUP4 ADD DUP5 PUSH2 0x162 JUMP JUMPDEST SWAP3 SWAP2 POP POP JUMP JUMPDEST PUSH1 0x0 DUP3 DUP3 MSTORE PUSH1 0x20 DUP3 ADD SWAP1 POP SWAP3 SWAP2 POP POP JUMP JUMPDEST PUSH32 0x496E70757420746F6F2068696768000000000000000000000000000000000000 PUSH1 0x0 DUP3 ADD MSTORE POP JUMP JUMPDEST PUSH1 0x0 PUSH2 0x1D3 PUSH1 0xE DUP4 PUSH2 0x18C JUMP JUMPDEST SWAP2 POP PUSH2 0x1DE DUP3 PUSH2 0x19D JUMP JUMPDEST PUSH1 0x20 DUP3 ADD SWAP1 POP SWAP2 SWAP1 POP JUMP JUMPDEST PUSH1 0x0 PUSH1 0x20 DUP3 ADD SWAP1 POP DUP2 DUP2 SUB PUSH1 0x0 DUP4 ADD MSTORE PUSH2 0x202 DUP2 PUSH2 0x1C6 JUMP JUMPDEST SWAP1 POP SWAP2 SWAP1 POP JUMP JUMPDEST PUSH32 0x496E70757420746F6F206C6F7700000000000000000000000000000000000000 PUSH1 0x0 DUP3 ADD MSTORE POP JUMP JUMPDEST PUSH1 0x0 PUSH2 0x23F PUSH1 0xD DUP4 PUSH2 0x18C JUMP JUMPDEST SWAP2 POP PUSH2 0x24A DUP3 PUSH2 0x209 JUMP JUMPDEST PUSH1 0x20 DUP3 ADD SWAP1 POP SWAP2 SWAP1 POP JUMP JUMPDEST PUSH1 0x0 PUSH1 0x20 DUP3 ADD SWAP1 POP DUP2 DUP2 SUB PUSH1 0x0 DUP4 ADD MSTORE PUSH2 0x26E DUP2 PUSH2 0x232 JUMP JUMPDEST SWAP1 POP SWAP2 SWAP1 POP JUMP INVALID LOG2 PUSH5 0x6970667358 0x22 SLT KECCAK256 0x4F 0xEE 0xF6 0xC2 0x5C 0xCC BYTE 0xA9 CODECOPY 0xAD 0x1F SLOAD 0xD6 0x2B CODECOPY GAS PUSH11 0xC83C18CC4BD60B2C3B723B 0xB4 0xBE SWAP16 GAS PUSH5 0x736F6C6343 STOP ADDMOD SLT STOP CALLER "
		},
		"gasEstimates": {
			"creation": {
				"codeDepositCost": "136600",
				"executionCost": "183",
				"totalCost": "136783"
			},
			"external": {
				"checkInput(uint8)": "infinite"
			}
		},
		"methodIdentifiers": {
			"checkInput(uint8)": "bb019898"
		}
	},
	"abi": [
		{
			"inputs": [
				{
					"internalType": "uint8",
					"name": "_input",
					"type": "uint8"
				}
			],
			"name": "checkInput",
			"outputs": [
				{
					"internalType": "uint8",
					"name": "",
					"type": "uint8"
				}
			],
			"stateMutability": "pure",
			"type": "function"
		}
	]
}