{
	"data": {
		"bytecode": {
			"linkReferences": {
				"library.sol": {
					"Math": [
						{
							"length": 20,
							"start": 132
						}
					]
				}
			},
			"object": "608060405234801561001057600080fd5b50610215806100206000396000f3fe608060405234801561001057600080fd5b506004361061002b5760003560e01c806366229e5614610030575b600080fd5b61004a6004803603810190610045919061011c565b610060565b6040516100579190610158565b60405180910390f35b600073__$f9de7b4197918d5c26927322b87318da30$__6311a1d3e8836040518263ffffffff1660e01b81526004016100999190610182565b602060405180830381865af41580156100b6573d6000803e3d6000fd5b505050506040513d601f19601f820116820180604052508101906100da91906101b2565b9050919050565b600080fd5b6000819050919050565b6100f9816100e6565b811461010457600080fd5b50565b600081359050610116816100f0565b92915050565b600060208284031215610132576101316100e1565b5b600061014084828501610107565b91505092915050565b610152816100e6565b82525050565b600060208201905061016d6000830184610149565b92915050565b61017c816100e6565b82525050565b60006020820190506101976000830184610173565b92915050565b6000815190506101ac816100f0565b92915050565b6000602082840312156101c8576101c76100e1565b5b60006101d68482850161019d565b9150509291505056fea2646970667358221220d0b13315adbb0bdcd88c3f3d466d9f196656e4be3602921641a933ade2183efe64736f6c63430008120033",
			"opcodes": "PUSH1 0x80 PUSH1 0x40 MSTORE CALLVALUE DUP1 ISZERO PUSH2 0x10 JUMPI PUSH1 0x0 DUP1 REVERT JUMPDEST POP PUSH2 0x215 DUP1 PUSH2 0x20 PUSH1 0x0 CODECOPY PUSH1 0x0 RETURN INVALID PUSH1 0x80 PUSH1 0x40 MSTORE CALLVALUE DUP1 ISZERO PUSH2 0x10 JUMPI PUSH1 0x0 DUP1 REVERT JUMPDEST POP PUSH1 0x4 CALLDATASIZE LT PUSH2 0x2B JUMPI PUSH1 0x0 CALLDATALOAD PUSH1 0xE0 SHR DUP1 PUSH4 0x66229E56 EQ PUSH2 0x30 JUMPI JUMPDEST PUSH1 0x0 DUP1 REVERT JUMPDEST PUSH2 0x4A PUSH1 0x4 DUP1 CALLDATASIZE SUB DUP2 ADD SWAP1 PUSH2 0x45 SWAP2 SWAP1 PUSH2 0x11C JUMP JUMPDEST PUSH2 0x60 JUMP JUMPDEST PUSH1 0x40 MLOAD PUSH2 0x57 SWAP2 SWAP1 PUSH2 0x158 JUMP JUMPDEST PUSH1 0x40 MLOAD DUP1 SWAP2 SUB SWAP1 RETURN JUMPDEST PUSH1 0x0 PUSH20 0x0 PUSH4 0x11A1D3E8 DUP4 PUSH1 0x40 MLOAD DUP3 PUSH4 0xFFFFFFFF AND PUSH1 0xE0 SHL DUP2 MSTORE PUSH1 0x4 ADD PUSH2 0x99 SWAP2 SWAP1 PUSH2 0x182 JUMP JUMPDEST PUSH1 0x20 PUSH1 0x40 MLOAD DUP1 DUP4 SUB DUP2 DUP7 GAS DELEGATECALL ISZERO DUP1 ISZERO PUSH2 0xB6 JUMPI RETURNDATASIZE PUSH1 0x0 DUP1 RETURNDATACOPY RETURNDATASIZE PUSH1 0x0 REVERT JUMPDEST POP POP POP POP PUSH1 0x40 MLOAD RETURNDATASIZE PUSH1 0x1F NOT PUSH1 0x1F DUP3 ADD AND DUP3 ADD DUP1 PUSH1 0x40 MSTORE POP DUP2 ADD SWAP1 PUSH2 0xDA SWAP2 SWAP1 PUSH2 0x1B2 JUMP JUMPDEST SWAP1 POP SWAP2 SWAP1 POP JUMP JUMPDEST PUSH1 0x0 DUP1 REVERT JUMPDEST PUSH1 0x0 DUP2 SWAP1 POP SWAP2 SWAP1 POP JUMP JUMPDEST PUSH2 0xF9 DUP2 PUSH2 0xE6 JUMP JUMPDEST DUP2 EQ PUSH2 0x104 JUMPI PUSH1 0x0 DUP1 REVERT JUMPDEST POP JUMP JUMPDEST PUSH1 0x0 DUP2 CALLDATALOAD SWAP1 POP PUSH2 0x116 DUP2 PUSH2 0xF0 JUMP JUMPDEST SWAP3 SWAP2 POP POP JUMP JUMPDEST PUSH1 0x0 PUSH1 0x20 DUP3 DUP5 SUB SLT ISZERO PUSH2 0x132 JUMPI PUSH2 0x131 PUSH2 0xE1 JUMP JUMPDEST JUMPDEST PUSH1 0x0 PUSH2 0x140 DUP5 DUP3 DUP6 ADD PUSH2 0x107 JUMP JUMPDEST SWAP2 POP POP SWAP3 SWAP2 POP POP JUMP JUMPDEST PUSH2 0x152 DUP2 PUSH2 0xE6 JUMP JUMPDEST DUP3 MSTORE POP POP JUMP JUMPDEST PUSH1 0x0 PUSH1 0x20 DUP3 ADD SWAP1 POP PUSH2 0x16D PUSH1 0x0 DUP4 ADD DUP5 PUSH2 0x149 JUMP JUMPDEST SWAP3 SWAP2 POP POP JUMP JUMPDEST PUSH2 0x17C DUP2 PUSH2 0xE6 JUMP JUMPDEST DUP3 MSTORE POP POP JUMP JUMPDEST PUSH1 0x0 PUSH1 0x20 DUP3 ADD SWAP1 POP PUSH2 0x197 PUSH1 0x0 DUP4 ADD DUP5 PUSH2 0x173 JUMP JUMPDEST SWAP3 SWAP2 POP POP JUMP JUMPDEST PUSH1 0x0 DUP2 MLOAD SWAP1 POP PUSH2 0x1AC DUP2 PUSH2 0xF0 JUMP JUMPDEST SWAP3 SWAP2 POP POP JUMP JUMPDEST PUSH1 0x0 PUSH1 0x20 DUP3 DUP5 SUB SLT ISZERO PUSH2 0x1C8 JUMPI PUSH2 0x1C7 PUSH2 0xE1 JUMP JUMPDEST JUMPDEST PUSH1 0x0 PUSH2 0x1D6 DUP5 DUP3 DUP6 ADD PUSH2 0x19D JUMP JUMPDEST SWAP2 POP POP SWAP3 SWAP2 POP POP JUMP INVALID LOG2 PUSH5 0x6970667358 0x22 SLT KECCAK256 0xD0 0xB1 CALLER ISZERO 0xAD 0xBB SIGNEXTEND 0xDC 0xD8 DUP13 EXTCODEHASH RETURNDATASIZE CHAINID PUSH14 0x9F196656E4BE3602921641A933AD 0xE2 XOR RETURNDATACOPY INVALID PUSH5 0x736F6C6343 STOP ADDMOD SLT STOP CALLER "
		},
		"gasEstimates": {
			"creation": {
				"codeDepositCost": "106600",
				"executionCost": "153",
				"totalCost": "106753"
			},
			"external": {
				"callSquared(uint256)": "infinite"
			}
		},
		"methodIdentifiers": {
			"callSquared(uint256)": "66229e56"
		}
	},
	"abi": [
		{
			"inputs": [
				{
					"internalType": "uint256",
					"name": "_x",
					"type": "uint256"
				}
			],
			"name": "callSquared",
			"outputs": [
				{
					"internalType": "uint256",
					"name": "",
					"type": "uint256"
				}
			],
			"stateMutability": "pure",
			"type": "function"
		}
	]
}